{
  "contractName": "CitizenContract",
  "abi": [
    {
      "inputs": [
        {
          "internalType": "address",
          "name": "_wasteManagementAddress",
          "type": "address"
        }
      ],
      "stateMutability": "nonpayable",
      "type": "constructor"
    },
    {
      "anonymous": false,
      "inputs": [
        {
          "indexed": false,
          "internalType": "string",
          "name": "wasteId",
          "type": "string"
        }
      ],
      "name": "WasteCreated",
      "type": "event"
    },
    {
      "inputs": [
        {
          "internalType": "uint256",
          "name": "_weight",
          "type": "uint256"
        },
        {
          "internalType": "address",
          "name": "_citizenId",
          "type": "address"
        },
        {
          "internalType": "string",
          "name": "_binId",
          "type": "string"
        }
      ],
      "name": "createWaste",
      "outputs": [],
      "stateMutability": "nonpayable",
      "type": "function"
    }
  ],
  "bytecode": "0x608060405234801561001057600080fd5b50604051610e5d380380610e5d833981810160405281019061003291906100db565b806000806101000a81548173ffffffffffffffffffffffffffffffffffffffff021916908373ffffffffffffffffffffffffffffffffffffffff16021790555050610108565b600080fd5b600073ffffffffffffffffffffffffffffffffffffffff82169050919050565b60006100a88261007d565b9050919050565b6100b88161009d565b81146100c357600080fd5b50565b6000815190506100d5816100af565b92915050565b6000602082840312156100f1576100f0610078565b5b60006100ff848285016100c6565b91505092915050565b610d46806101176000396000f3fe608060405234801561001057600080fd5b506004361061002b5760003560e01c806351793e0614610030575b600080fd5b61004a6004803603810190610045919061073a565b61004c565b005b60006100566103b1565b905060008054906101000a900473ffffffffffffffffffffffffffffffffffffffff1673ffffffffffffffffffffffffffffffffffffffff16633edb6272836040518263ffffffff1660e01b81526004016100b19190610828565b602060405180830381865afa1580156100ce573d6000803e3d6000fd5b505050506040513d601f19601f820116820180604052508101906100f29190610882565b610131576040517f08c379a0000000000000000000000000000000000000000000000000000000008152600401610128906108fb565b60405180910390fd5b60008054906101000a900473ffffffffffffffffffffffffffffffffffffffff1673ffffffffffffffffffffffffffffffffffffffff1663c773e649846040518263ffffffff1660e01b815260040161018a919061092a565b602060405180830381865afa1580156101a7573d6000803e3d6000fd5b505050506040513d601f19601f820116820180604052508101906101cb9190610882565b61020a576040517f08c379a000000000000000000000000000000000000000000000000000000000815260040161020190610991565b60405180910390fd5b60008054906101000a900473ffffffffffffffffffffffffffffffffffffffff1673ffffffffffffffffffffffffffffffffffffffff1663e1c7b8d5826040518263ffffffff1660e01b81526004016102639190610828565b602060405180830381865afa158015610280573d6000803e3d6000fd5b505050506040513d601f19601f820116820180604052508101906102a49190610882565b6102e3576040517f08c379a00000000000000000000000000000000000000000000000000000000081526004016102da906109fd565b60405180910390fd5b60008054906101000a900473ffffffffffffffffffffffffffffffffffffffff1673ffffffffffffffffffffffffffffffffffffffff1663a08c1079828686866040518563ffffffff1660e01b81526004016103429493929190610a2c565b600060405180830381600087803b15801561035c57600080fd5b505af1158015610370573d6000803e3d6000fd5b505050507fb62e88846a771c38e76c9848749dabcfdbd24908fba21b57deea11535d34f062816040516103a39190610828565b60405180910390a150505050565b60606000424441336040516020016103cc9493929190610b23565b60405160208183030381529060405280519060200120905060008160001c905060008103610433576040518060400160405280600181526020017f300000000000000000000000000000000000000000000000000000000000000081525092505050610549565b600081905060005b6000821461046557808061044e90610ba0565b915050600a8261045e9190610c17565b915061043b565b60008167ffffffffffffffff8111156104815761048061060f565b5b6040519080825280601f01601f1916602001820160405280156104b35781602001600182028036833780820191505090505b5090505b60008414610540576001826104cc9190610c48565b9150600a846104db9190610c7c565b60306104e79190610cad565b60f81b8183815181106104fd576104fc610ce1565b5b60200101907effffffffffffffffffffffffffffffffffffffffffffffffffffffffffffff1916908160001a905350600a846105399190610c17565b93506104b7565b80955050505050505b90565b6000604051905090565b600080fd5b600080fd5b6000819050919050565b61057381610560565b811461057e57600080fd5b50565b6000813590506105908161056a565b92915050565b600073ffffffffffffffffffffffffffffffffffffffff82169050919050565b60006105c182610596565b9050919050565b6105d1816105b6565b81146105dc57600080fd5b50565b6000813590506105ee816105c8565b92915050565b600080fd5b600080fd5b6000601f19601f8301169050919050565b7f4e487b7100000000000000000000000000000000000000000000000000000000600052604160045260246000fd5b610647826105fe565b810181811067ffffffffffffffff821117156106665761066561060f565b5b80604052505050565b600061067961054c565b9050610685828261063e565b919050565b600067ffffffffffffffff8211156106a5576106a461060f565b5b6106ae826105fe565b9050602081019050919050565b82818337600083830152505050565b60006106dd6106d88461068a565b61066f565b9050828152602081018484840111156106f9576106f86105f9565b5b6107048482856106bb565b509392505050565b600082601f830112610721576107206105f4565b5b81356107318482602086016106ca565b91505092915050565b60008060006060848603121561075357610752610556565b5b600061076186828701610581565b9350506020610772868287016105df565b925050604084013567ffffffffffffffff8111156107935761079261055b565b5b61079f8682870161070c565b9150509250925092565b600081519050919050565b600082825260208201905092915050565b60005b838110156107e35780820151818401526020810190506107c8565b60008484015250505050565b60006107fa826107a9565b61080481856107b4565b93506108148185602086016107c5565b61081d816105fe565b840191505092915050565b6000602082019050818103600083015261084281846107ef565b905092915050565b60008115159050919050565b61085f8161084a565b811461086a57600080fd5b50565b60008151905061087c81610856565b92915050565b60006020828403121561089857610897610556565b5b60006108a68482850161086d565b91505092915050565b7f42696e20646f65736e2774206578697374000000000000000000000000000000600082015250565b60006108e56011836107b4565b91506108f0826108af565b602082019050919050565b60006020820190508181036000830152610914816108d8565b9050919050565b610924816105b6565b82525050565b600060208201905061093f600083018461091b565b92915050565b7f436974697a656e20646f65736e27742065786973740000000000000000000000600082015250565b600061097b6015836107b4565b915061098682610945565b602082019050919050565b600060208201905081810360008301526109aa8161096e565b9050919050565b7f576173746520616c726561647920657869737473000000000000000000000000600082015250565b60006109e76014836107b4565b91506109f2826109b1565b602082019050919050565b60006020820190508181036000830152610a16816109da565b9050919050565b610a2681610560565b82525050565b60006080820190508181036000830152610a4681876107ef565b9050610a556020830186610a1d565b610a62604083018561091b565b8181036060830152610a7481846107ef565b905095945050505050565b6000819050919050565b610a9a610a9582610560565b610a7f565b82525050565b6000610aab82610596565b9050919050565b60008160601b9050919050565b6000610aca82610ab2565b9050919050565b6000610adc82610abf565b9050919050565b610af4610aef82610aa0565b610ad1565b82525050565b6000610b0582610abf565b9050919050565b610b1d610b18826105b6565b610afa565b82525050565b6000610b2f8287610a89565b602082019150610b3f8286610a89565b602082019150610b4f8285610ae3565b601482019150610b5f8284610b0c565b60148201915081905095945050505050565b7f4e487b7100000000000000000000000000000000000000000000000000000000600052601160045260246000fd5b6000610bab82610560565b91507fffffffffffffffffffffffffffffffffffffffffffffffffffffffffffffffff8203610bdd57610bdc610b71565b5b600182019050919050565b7f4e487b7100000000000000000000000000000000000000000000000000000000600052601260045260246000fd5b6000610c2282610560565b9150610c2d83610560565b925082610c3d57610c3c610be8565b5b828204905092915050565b6000610c5382610560565b9150610c5e83610560565b9250828203905081811115610c7657610c75610b71565b5b92915050565b6000610c8782610560565b9150610c9283610560565b925082610ca257610ca1610be8565b5b828206905092915050565b6000610cb882610560565b9150610cc383610560565b9250828201905080821115610cdb57610cda610b71565b5b92915050565b7f4e487b7100000000000000000000000000000000000000000000000000000000600052603260045260246000fdfea2646970667358221220790e4dc5be211709553048fc685d3c3199f5634622ddb1a6d4f6e9bababe567e64736f6c63430008140033",
  "immutableReferences": {},
  "source": "// SPDX-License-Identifier: MIT\r\npragma solidity ^0.8.19;\r\nimport \"./WasteManagement.sol\";\r\n\r\ncontract CitizenContract {\r\n    WasteManagement WasteManage;\r\n\r\n    constructor(address _wasteManagementAddress) {\r\n        WasteManage = WasteManagement(_wasteManagementAddress);\r\n    }\r\n    event   WasteCreated(string wasteId);\r\n  function createWaste(uint256 _weight, address _citizenId, string memory _binId) external {\r\n    string memory _id =generateUniqueId();\r\n    require(WasteManage.getIsBin(_binId), \"Bin doesn't exist\");\r\n    require(WasteManage.getIsCitizen(_citizenId), \"Citizen doesn't exist\");\r\n    require(WasteManage.CheckWaste(_id), \"Waste already exists\");\r\n    WasteManage.setWaste(_id,  _weight, _citizenId, _binId);\r\n    emit WasteCreated(_id);\r\n}       \r\n\r\nfunction generateUniqueId() internal view returns (string memory) {\r\n    bytes32 hash = keccak256(abi.encodePacked(\r\n        block.timestamp,\r\n        block.prevrandao,\r\n        block.coinbase,\r\n        msg.sender\r\n    ));\r\n\r\n    // Convert hash to string\r\n    uint256 value = uint256(hash);\r\n    if (value == 0) {\r\n        return \"0\";\r\n    }\r\n    \r\n    uint256 temp = value;\r\n    uint256 digits;\r\n    \r\n    while (temp != 0) {\r\n        digits++;\r\n        temp /= 10;\r\n    }\r\n    \r\n    bytes memory buffer = new bytes(digits);\r\n    \r\n    while (value != 0) {\r\n        digits -= 1;\r\n        buffer[digits] = bytes1(uint8(48 + uint256(value % 10)));\r\n        value /= 10;\r\n    }\r\n    \r\n    return string(buffer);\r\n}\r\n}\r\n",
  "sourcePath": "C:\\Users\\MSI\\Desktop\\PFA_GUI - Copie\\truffle\\contracts\\CitizenContract.sol",
  "compiler": {
    "name": "solc",
    "version": "0.8.20+commit.a1b79de6.Emscripten.clang"
  },
  "schemaVersion": "3.4.16",
  "updatedAt": "2024-03-29T01:20:35.889Z",
  "networkType": "ethereum",
  "devdoc": {
    "kind": "dev",
    "methods": {},
    "version": 1
  },
  "userdoc": {
    "kind": "user",
    "methods": {},
    "version": 1
  }
}