{
  "contractName": "WasteManagement",
  "abi": [
    {
      "inputs": [],
      "stateMutability": "nonpayable",
      "type": "constructor"
    },
    {
      "anonymous": false,
      "inputs": [
        {
          "indexed": false,
          "internalType": "string",
          "name": "id",
          "type": "string"
        }
      ],
      "name": "BinCreated",
      "type": "event"
    },
    {
      "anonymous": false,
      "inputs": [
        {
          "indexed": false,
          "internalType": "string",
          "name": "message",
          "type": "string"
        }
      ],
      "name": "ModifCitizen",
      "type": "event"
    },
    {
      "anonymous": false,
      "inputs": [
        {
          "indexed": false,
          "internalType": "string",
          "name": "message",
          "type": "string"
        }
      ],
      "name": "ModifShipper",
      "type": "event"
    },
    {
      "inputs": [],
      "name": "binCount",
      "outputs": [
        {
          "internalType": "uint256",
          "name": "",
          "type": "uint256"
        }
      ],
      "stateMutability": "view",
      "type": "function",
      "constant": true
    },
    {
      "inputs": [
        {
          "internalType": "string",
          "name": "",
          "type": "string"
        }
      ],
      "name": "bins",
      "outputs": [
        {
          "internalType": "string",
          "name": "id",
          "type": "string"
        },
        {
          "internalType": "string",
          "name": "location",
          "type": "string"
        },
        {
          "internalType": "uint256",
          "name": "capacity",
          "type": "uint256"
        },
        {
          "internalType": "uint256",
          "name": "currentWeight",
          "type": "uint256"
        }
      ],
      "stateMutability": "view",
      "type": "function",
      "constant": true
    },
    {
      "inputs": [
        {
          "internalType": "address",
          "name": "",
          "type": "address"
        }
      ],
      "name": "citizenRewards",
      "outputs": [
        {
          "internalType": "uint256",
          "name": "",
          "type": "uint256"
        }
      ],
      "stateMutability": "view",
      "type": "function",
      "constant": true
    },
    {
      "inputs": [
        {
          "internalType": "address",
          "name": "",
          "type": "address"
        },
        {
          "internalType": "string",
          "name": "",
          "type": "string"
        }
      ],
      "name": "notifications",
      "outputs": [
        {
          "internalType": "address",
          "name": "shipperNotified",
          "type": "address"
        },
        {
          "internalType": "string",
          "name": "binNotif",
          "type": "string"
        },
        {
          "internalType": "bool",
          "name": "done",
          "type": "bool"
        }
      ],
      "stateMutability": "view",
      "type": "function",
      "constant": true
    },
    {
      "inputs": [],
      "name": "owner",
      "outputs": [
        {
          "internalType": "address",
          "name": "",
          "type": "address"
        }
      ],
      "stateMutability": "view",
      "type": "function",
      "constant": true
    },
    {
      "inputs": [],
      "name": "wasteCount",
      "outputs": [
        {
          "internalType": "uint256",
          "name": "",
          "type": "uint256"
        }
      ],
      "stateMutability": "view",
      "type": "function",
      "constant": true
    },
    {
      "inputs": [
        {
          "internalType": "string",
          "name": "",
          "type": "string"
        }
      ],
      "name": "wastes",
      "outputs": [
        {
          "internalType": "string",
          "name": "id",
          "type": "string"
        },
        {
          "internalType": "string",
          "name": "status",
          "type": "string"
        },
        {
          "internalType": "uint256",
          "name": "weight",
          "type": "uint256"
        },
        {
          "internalType": "address",
          "name": "citizenId",
          "type": "address"
        },
        {
          "internalType": "address",
          "name": "shipperId",
          "type": "address"
        },
        {
          "internalType": "address",
          "name": "recyclerId",
          "type": "address"
        },
        {
          "internalType": "string",
          "name": "binId",
          "type": "string"
        }
      ],
      "stateMutability": "view",
      "type": "function",
      "constant": true
    },
    {
      "inputs": [
        {
          "internalType": "string",
          "name": "_location",
          "type": "string"
        },
        {
          "internalType": "uint256",
          "name": "_capacity",
          "type": "uint256"
        },
        {
          "internalType": "uint256",
          "name": "_currentWeight",
          "type": "uint256"
        }
      ],
      "name": "createBin",
      "outputs": [
        {
          "internalType": "string",
          "name": "",
          "type": "string"
        }
      ],
      "stateMutability": "nonpayable",
      "type": "function"
    },
    {
      "inputs": [
        {
          "internalType": "string",
          "name": "_id",
          "type": "string"
        },
        {
          "internalType": "string",
          "name": "_location",
          "type": "string"
        },
        {
          "internalType": "uint256",
          "name": "_capacity",
          "type": "uint256"
        },
        {
          "internalType": "uint256",
          "name": "_currentWeight",
          "type": "uint256"
        }
      ],
      "name": "modifyBin",
      "outputs": [],
      "stateMutability": "nonpayable",
      "type": "function"
    },
    {
      "inputs": [
        {
          "internalType": "string",
          "name": "_id",
          "type": "string"
        }
      ],
      "name": "deleteBin",
      "outputs": [],
      "stateMutability": "nonpayable",
      "type": "function"
    },
    {
      "inputs": [],
      "name": "getBins",
      "outputs": [
        {
          "internalType": "string[]",
          "name": "",
          "type": "string[]"
        },
        {
          "internalType": "string[]",
          "name": "",
          "type": "string[]"
        },
        {
          "internalType": "uint256[]",
          "name": "",
          "type": "uint256[]"
        },
        {
          "internalType": "uint256[]",
          "name": "",
          "type": "uint256[]"
        }
      ],
      "stateMutability": "view",
      "type": "function",
      "constant": true
    },
    {
      "inputs": [
        {
          "internalType": "address",
          "name": "_shipper",
          "type": "address"
        }
      ],
      "name": "createShipper",
      "outputs": [],
      "stateMutability": "nonpayable",
      "type": "function"
    },
    {
      "inputs": [],
      "name": "getShippers",
      "outputs": [
        {
          "internalType": "address[]",
          "name": "",
          "type": "address[]"
        }
      ],
      "stateMutability": "view",
      "type": "function",
      "constant": true
    },
    {
      "inputs": [
        {
          "internalType": "address",
          "name": "_shipper",
          "type": "address"
        },
        {
          "internalType": "string",
          "name": "_idBin",
          "type": "string"
        }
      ],
      "name": "notifyShipper",
      "outputs": [],
      "stateMutability": "nonpayable",
      "type": "function"
    },
    {
      "inputs": [
        {
          "internalType": "address",
          "name": "_shipper",
          "type": "address"
        }
      ],
      "name": "getNotifByShipper",
      "outputs": [
        {
          "components": [
            {
              "internalType": "address",
              "name": "shipperNotified",
              "type": "address"
            },
            {
              "internalType": "string",
              "name": "binNotif",
              "type": "string"
            },
            {
              "internalType": "bool",
              "name": "done",
              "type": "bool"
            }
          ],
          "internalType": "struct WasteManagement.Notif[]",
          "name": "",
          "type": "tuple[]"
        }
      ],
      "stateMutability": "view",
      "type": "function",
      "constant": true
    },
    {
      "inputs": [],
      "name": "getAllNotif",
      "outputs": [
        {
          "components": [
            {
              "internalType": "address",
              "name": "shipperNotified",
              "type": "address"
            },
            {
              "internalType": "string",
              "name": "binNotif",
              "type": "string"
            },
            {
              "internalType": "bool",
              "name": "done",
              "type": "bool"
            }
          ],
          "internalType": "struct WasteManagement.Notif[]",
          "name": "",
          "type": "tuple[]"
        }
      ],
      "stateMutability": "view",
      "type": "function",
      "constant": true
    },
    {
      "inputs": [
        {
          "internalType": "address",
          "name": "_shipperAddress",
          "type": "address"
        }
      ],
      "name": "deleteShipper",
      "outputs": [],
      "stateMutability": "nonpayable",
      "type": "function"
    },
    {
      "inputs": [
        {
          "internalType": "address",
          "name": "_shipperAddress",
          "type": "address"
        }
      ],
      "name": "modifyShipper",
      "outputs": [],
      "stateMutability": "nonpayable",
      "type": "function"
    },
    {
      "inputs": [
        {
          "internalType": "address",
          "name": "_citizen",
          "type": "address"
        }
      ],
      "name": "createCitizen",
      "outputs": [],
      "stateMutability": "nonpayable",
      "type": "function"
    },
    {
      "inputs": [],
      "name": "getCitizens",
      "outputs": [
        {
          "internalType": "address[]",
          "name": "",
          "type": "address[]"
        }
      ],
      "stateMutability": "view",
      "type": "function",
      "constant": true
    },
    {
      "inputs": [
        {
          "internalType": "address",
          "name": "_citizenAddress",
          "type": "address"
        }
      ],
      "name": "deleteCitizen",
      "outputs": [],
      "stateMutability": "nonpayable",
      "type": "function"
    },
    {
      "inputs": [
        {
          "internalType": "address",
          "name": "_citizenAddress",
          "type": "address"
        }
      ],
      "name": "modifyCitizen",
      "outputs": [],
      "stateMutability": "nonpayable",
      "type": "function"
    },
    {
      "inputs": [
        {
          "internalType": "string",
          "name": "_binId",
          "type": "string"
        }
      ],
      "name": "getIsBin",
      "outputs": [
        {
          "internalType": "bool",
          "name": "",
          "type": "bool"
        }
      ],
      "stateMutability": "view",
      "type": "function",
      "constant": true
    }
  ],
  "bytecode": "0x6080604052734494f3bb19f95bb33ec116887b9dbd728c008f9b600760006101000a81548173ffffffffffffffffffffffffffffffffffffffff021916908373ffffffffffffffffffffffffffffffffffffffff16021790555034801561006557600080fd5b5033600d60006101000a81548173ffffffffffffffffffffffffffffffffffffffff021916908373ffffffffffffffffffffffffffffffffffffffff1602179055506146c8806100b66000396000f3fe608060405234801561001057600080fd5b506004361061014d5760003560e01c80638d68d807116100c3578063cc3b2e881161007c578063cc3b2e88146103b9578063ce4717df146103d7578063d5972802146103f3578063df12989114610423578063e042a4021461043f578063eee8c7db146104605761014d565b80638d68d807146102fb5780638da5cb5b146103175780638e44b61514610335578063963464f114610365578063aef16e7614610381578063c9b5ac5b1461039d5761014d565b80633c1bc3b9116101155780633c1bc3b9146101f95780633edb6272146102155780634a19d56d146102455780636a10fe941461027b57806378bfbc281461029957806381d06633146102cb5761014d565b80630977c961146101525780630ebc36981461017057806313a172f31461018c57806316207393146101bf578063236b831c146101dd575b600080fd5b61015a61047e565b60405161016791906130eb565b60405180910390f35b61018a60048036038101906101859190613282565b610a42565b005b6101a660048036038101906101a191906132de565b610cdc565b6040516101b6949392919061338a565b60405180910390f35b6101c7610e32565b6040516101d491906133dd565b60405180910390f35b6101f760048036038101906101f291906133f8565b610e38565b005b610213600480360381019061020e91906133f8565b610f8c565b005b61022f600480360381019061022a91906132de565b6111f7565b60405161023c9190613434565b60405180910390f35b61025f600480360381019061025a91906132de565b611297565b604051610272979695949392919061345e565b60405180910390f35b6102836114e7565b6040516102909190613591565b60405180910390f35b6102b360048036038101906102ae9190613282565b611575565b6040516102c2939291906135b3565b60405180910390f35b6102e560048036038101906102e0919061361d565b611677565b6040516102f2919061368c565b60405180910390f35b610315600480360381019061031091906133f8565b6118c9565b005b61031f611b41565b60405161032c91906136ae565b60405180910390f35b61034f600480360381019061034a91906133f8565b611b67565b60405161035c91906130eb565b60405180910390f35b61037f600480360381019061037a91906133f8565b611e52565b005b61039b600480360381019061039691906136c9565b61202d565b005b6103b760048036038101906103b291906133f8565b6121b0565b005b6103c1612304565b6040516103ce91906133dd565b60405180910390f35b6103f160048036038101906103ec91906132de565b61230a565b005b61040d600480360381019061040891906133f8565b612600565b60405161041a91906133dd565b60405180910390f35b61043d600480360381019061043891906133f8565b612618565b005b610447612890565b60405161045794939291906138e8565b60405180910390f35b610468612c24565b6040516104759190613591565b60405180910390f35b60606000805b6008805490508110156106a65760005b600154811015610692576000600382815481106104b4576104b3613949565b5b9060005260206000200180546104c9906139a7565b80601f01602080910402602001604051908101604052809291908181526020018280546104f5906139a7565b80156105425780601f1061051757610100808354040283529160200191610542565b820191906000526020600020905b81548152906001019060200180831161052557829003601f168201915b505050505090506009816040516105599190613a14565b908152602001604051809103902060009054906101000a900460ff16801561066a5750600073ffffffffffffffffffffffffffffffffffffffff16600e6000600886815481106105ac576105ab613949565b5b9060005260206000200160009054906101000a900473ffffffffffffffffffffffffffffffffffffffff1673ffffffffffffffffffffffffffffffffffffffff1673ffffffffffffffffffffffffffffffffffffffff1681526020019081526020016000208260405161061f9190613a14565b908152602001604051809103902060000160009054906101000a900473ffffffffffffffffffffffffffffffffffffffff1673ffffffffffffffffffffffffffffffffffffffff1614155b1561067e57838061067a90613a5a565b9450505b50808061068a90613a5a565b915050610494565b50808061069e90613a5a565b915050610484565b5060008167ffffffffffffffff8111156106c3576106c2613157565b5b6040519080825280602002602001820160405280156106fc57816020015b6106e9612e57565b8152602001906001900390816106e15790505b5090506000805b600880549050811015610a385760005b600154811015610a245760006003828154811061073357610732613949565b5b906000526020600020018054610748906139a7565b80601f0160208091040260200160405190810160405280929190818152602001828054610774906139a7565b80156107c15780601f10610796576101008083540402835291602001916107c1565b820191906000526020600020905b8154815290600101906020018083116107a457829003601f168201915b505050505090506000600e6000600886815481106107e2576107e1613949565b5b9060005260206000200160009054906101000a900473ffffffffffffffffffffffffffffffffffffffff1673ffffffffffffffffffffffffffffffffffffffff1673ffffffffffffffffffffffffffffffffffffffff168152602001908152602001600020826040516108559190613a14565b90815260200160405180910390206040518060600160405290816000820160009054906101000a900473ffffffffffffffffffffffffffffffffffffffff1673ffffffffffffffffffffffffffffffffffffffff1673ffffffffffffffffffffffffffffffffffffffff1681526020016001820180546108d4906139a7565b80601f0160208091040260200160405190810160405280929190818152602001828054610900906139a7565b801561094d5780601f106109225761010080835404028352916020019161094d565b820191906000526020600020905b81548152906001019060200180831161093057829003601f168201915b505050505081526020016002820160009054906101000a900460ff16151515158152505090506009826040516109839190613a14565b908152602001604051809103902060009054906101000a900460ff1680156109dc5750600073ffffffffffffffffffffffffffffffffffffffff16816000015173ffffffffffffffffffffffffffffffffffffffff1614155b15610a0f57808686815181106109f5576109f4613949565b5b60200260200101819052508480610a0b90613a5a565b9550505b50508080610a1c90613a5a565b915050610713565b508080610a3090613a5a565b915050610703565b5081935050505090565b600d60009054906101000a900473ffffffffffffffffffffffffffffffffffffffff1673ffffffffffffffffffffffffffffffffffffffff163373ffffffffffffffffffffffffffffffffffffffff1614610ad2576040517f08c379a0000000000000000000000000000000000000000000000000000000008152600401610ac990613b14565b60405180910390fd5b600c60008373ffffffffffffffffffffffffffffffffffffffff1673ffffffffffffffffffffffffffffffffffffffff16815260200190815260200160002060009054906101000a900460ff16610b5e576040517f08c379a0000000000000000000000000000000000000000000000000000000008152600401610b5590613b80565b60405180910390fd5b600981604051610b6e9190613a14565b908152602001604051809103902060009054906101000a900460ff16610bc9576040517f08c379a0000000000000000000000000000000000000000000000000000000008152600401610bc090613bec565b60405180910390fd5b60405180606001604052808373ffffffffffffffffffffffffffffffffffffffff16815260200182815260200160001515815250600e60008473ffffffffffffffffffffffffffffffffffffffff1673ffffffffffffffffffffffffffffffffffffffff16815260200190815260200160002082604051610c4a9190613a14565b908152602001604051809103902060008201518160000160006101000a81548173ffffffffffffffffffffffffffffffffffffffff021916908373ffffffffffffffffffffffffffffffffffffffff1602179055506020820151816001019081610cb49190613db8565b5060408201518160020160006101000a81548160ff0219169083151502179055509050505050565b600281805160208101820180518482526020830160208501208183528095505050505050600091509050806000018054610d15906139a7565b80601f0160208091040260200160405190810160405280929190818152602001828054610d41906139a7565b8015610d8e5780601f10610d6357610100808354040283529160200191610d8e565b820191906000526020600020905b815481529060010190602001808311610d7157829003601f168201915b505050505090806001018054610da3906139a7565b80601f0160208091040260200160405190810160405280929190818152602001828054610dcf906139a7565b8015610e1c5780601f10610df157610100808354040283529160200191610e1c565b820191906000526020600020905b815481529060010190602001808311610dff57829003601f168201915b5050505050908060020154908060030154905084565b60005481565b600d60009054906101000a900473ffffffffffffffffffffffffffffffffffffffff1673ffffffffffffffffffffffffffffffffffffffff163373ffffffffffffffffffffffffffffffffffffffff1614610ec8576040517f08c379a0000000000000000000000000000000000000000000000000000000008152600401610ebf90613b14565b60405180910390fd5b600b60008273ffffffffffffffffffffffffffffffffffffffff1673ffffffffffffffffffffffffffffffffffffffff16815260200190815260200160002060009054906101000a900460ff16610f54576040517f08c379a0000000000000000000000000000000000000000000000000000000008152600401610f4b90613ed6565b60405180910390fd5b7fb93a331b14aae9427dff15bad12885145072068d20db5bc47066d700abfe7dea604051610f8190613f42565b60405180910390a150565b600d60009054906101000a900473ffffffffffffffffffffffffffffffffffffffff1673ffffffffffffffffffffffffffffffffffffffff163373ffffffffffffffffffffffffffffffffffffffff161461101c576040517f08c379a000000000000000000000000000000000000000000000000000000000815260040161101390613b14565b60405180910390fd5b600b60008273ffffffffffffffffffffffffffffffffffffffff1673ffffffffffffffffffffffffffffffffffffffff16815260200190815260200160002060009054906101000a900460ff16156110a9576040517f08c379a00000000000000000000000000000000000000000000000000000000081526004016110a090613fae565b60405180910390fd5b600d60009054906101000a900473ffffffffffffffffffffffffffffffffffffffff1673ffffffffffffffffffffffffffffffffffffffff168173ffffffffffffffffffffffffffffffffffffffff1603611139576040517f08c379a000000000000000000000000000000000000000000000000000000000815260040161113090614040565b60405180910390fd5b6006819080600181540180825580915050600190039060005260206000200160009091909190916101000a81548173ffffffffffffffffffffffffffffffffffffffff021916908373ffffffffffffffffffffffffffffffffffffffff1602179055506001600b60008373ffffffffffffffffffffffffffffffffffffffff1673ffffffffffffffffffffffffffffffffffffffff16815260200190815260200160002060006101000a81548160ff02191690831515021790555050565b60006009826040516112099190613a14565b908152602001604051809103902060009054906101000a900460ff16611264576040517f08c379a000000000000000000000000000000000000000000000000000000000815260040161125b90613bec565b60405180910390fd5b6009826040516112749190613a14565b908152602001604051809103902060009054906101000a900460ff169050919050565b6005818051602081018201805184825260208301602085012081835280955050505050506000915090508060000180546112d0906139a7565b80601f01602080910402602001604051908101604052809291908181526020018280546112fc906139a7565b80156113495780601f1061131e57610100808354040283529160200191611349565b820191906000526020600020905b81548152906001019060200180831161132c57829003601f168201915b50505050509080600101805461135e906139a7565b80601f016020809104026020016040519081016040528092919081815260200182805461138a906139a7565b80156113d75780601f106113ac576101008083540402835291602001916113d7565b820191906000526020600020905b8154815290600101906020018083116113ba57829003601f168201915b5050505050908060020154908060030160009054906101000a900473ffffffffffffffffffffffffffffffffffffffff16908060040160009054906101000a900473ffffffffffffffffffffffffffffffffffffffff16908060050160009054906101000a900473ffffffffffffffffffffffffffffffffffffffff1690806006018054611464906139a7565b80601f0160208091040260200160405190810160405280929190818152602001828054611490906139a7565b80156114dd5780601f106114b2576101008083540402835291602001916114dd565b820191906000526020600020905b8154815290600101906020018083116114c057829003601f168201915b5050505050905087565b6060600880548060200260200160405190810160405280929190818152602001828054801561156b57602002820191906000526020600020905b8160009054906101000a900473ffffffffffffffffffffffffffffffffffffffff1673ffffffffffffffffffffffffffffffffffffffff1681526020019060010190808311611521575b5050505050905090565b600e60205281600052604060002081805160208101820180518482526020830160208501208183528095505050505050600091509150508060000160009054906101000a900473ffffffffffffffffffffffffffffffffffffffff16908060010180546115e1906139a7565b80601f016020809104026020016040519081016040528092919081815260200182805461160d906139a7565b801561165a5780601f1061162f5761010080835404028352916020019161165a565b820191906000526020600020905b81548152906001019060200180831161163d57829003601f168201915b5050505050908060020160009054906101000a900460ff16905083565b6060600d60009054906101000a900473ffffffffffffffffffffffffffffffffffffffff1673ffffffffffffffffffffffffffffffffffffffff163373ffffffffffffffffffffffffffffffffffffffff1614611709576040517f08c379a000000000000000000000000000000000000000000000000000000000815260040161170090613b14565b60405180910390fd5b6000611713612cb2565b90506009816040516117259190613a14565b908152602001604051809103902060009054906101000a900460ff1615611781576040517f08c379a0000000000000000000000000000000000000000000000000000000008152600401611778906140ac565b60405180910390fd5b6040518060800160405280828152602001868152602001858152602001848152506002826040516117b29190613a14565b908152602001604051809103902060008201518160000190816117d59190613db8565b5060208201518160010190816117eb9190613db8565b5060408201518160020155606082015181600301559050506003819080600181540180825580915050600190039060005260206000200160009091909190915090816118379190613db8565b506001600081548092919061184b90613a5a565b919050555060016009826040516118629190613a14565b908152602001604051809103902060006101000a81548160ff0219169083151502179055507fd5413a7934f1aa973af7bc53f68df06953b49031401619e5997d54afb849377e816040516118b6919061368c565b60405180910390a1809150509392505050565b600d60009054906101000a900473ffffffffffffffffffffffffffffffffffffffff1673ffffffffffffffffffffffffffffffffffffffff163373ffffffffffffffffffffffffffffffffffffffff1614611959576040517f08c379a000000000000000000000000000000000000000000000000000000000815260040161195090613b14565b60405180910390fd5b60005b600680549050811015611b3d578173ffffffffffffffffffffffffffffffffffffffff166006828154811061199457611993613949565b5b9060005260206000200160009054906101000a900473ffffffffffffffffffffffffffffffffffffffff1673ffffffffffffffffffffffffffffffffffffffff1603611b2a57600660016006805490506119ee91906140cc565b815481106119ff576119fe613949565b5b9060005260206000200160009054906101000a900473ffffffffffffffffffffffffffffffffffffffff1660068281548110611a3e57611a3d613949565b5b9060005260206000200160006101000a81548173ffffffffffffffffffffffffffffffffffffffff021916908373ffffffffffffffffffffffffffffffffffffffff1602179055506006805480611a9857611a97614100565b5b6001900381819060005260206000200160006101000a81549073ffffffffffffffffffffffffffffffffffffffff021916905590556000600b60008473ffffffffffffffffffffffffffffffffffffffff1673ffffffffffffffffffffffffffffffffffffffff16815260200190815260200160002060006101000a81548160ff021916908315150217905550611b3d565b8080611b3590613a5a565b91505061195c565b5050565b600d60009054906101000a900473ffffffffffffffffffffffffffffffffffffffff1681565b6060600060015467ffffffffffffffff811115611b8757611b86613157565b5b604051908082528060200260200182016040528015611bc057816020015b611bad612e57565b815260200190600190039081611ba55790505b50905060005b600154811015611e4857600060038281548110611be657611be5613949565b5b906000526020600020018054611bfb906139a7565b80601f0160208091040260200160405190810160405280929190818152602001828054611c27906139a7565b8015611c745780601f10611c4957610100808354040283529160200191611c74565b820191906000526020600020905b815481529060010190602001808311611c5757829003601f168201915b50505050509050600981604051611c8b9190613a14565b908152602001604051809103902060009054906101000a900460ff1615611e3457600e60008673ffffffffffffffffffffffffffffffffffffffff1673ffffffffffffffffffffffffffffffffffffffff16815260200190815260200160002081604051611cf99190613a14565b90815260200160405180910390206040518060600160405290816000820160009054906101000a900473ffffffffffffffffffffffffffffffffffffffff1673ffffffffffffffffffffffffffffffffffffffff1673ffffffffffffffffffffffffffffffffffffffff168152602001600182018054611d78906139a7565b80601f0160208091040260200160405190810160405280929190818152602001828054611da4906139a7565b8015611df15780601f10611dc657610100808354040283529160200191611df1565b820191906000526020600020905b815481529060010190602001808311611dd457829003601f168201915b505050505081526020016002820160009054906101000a900460ff161515151581525050838381518110611e2857611e27613949565b5b60200260200101819052505b508080611e4090613a5a565b915050611bc6565b5080915050919050565b600d60009054906101000a900473ffffffffffffffffffffffffffffffffffffffff1673ffffffffffffffffffffffffffffffffffffffff163373ffffffffffffffffffffffffffffffffffffffff1614611ee2576040517f08c379a0000000000000000000000000000000000000000000000000000000008152600401611ed990613b14565b60405180910390fd5b600c60008273ffffffffffffffffffffffffffffffffffffffff1673ffffffffffffffffffffffffffffffffffffffff16815260200190815260200160002060009054906101000a900460ff1615611f6f576040517f08c379a0000000000000000000000000000000000000000000000000000000008152600401611f669061417b565b60405180910390fd5b6008819080600181540180825580915050600190039060005260206000200160009091909190916101000a81548173ffffffffffffffffffffffffffffffffffffffff021916908373ffffffffffffffffffffffffffffffffffffffff1602179055506001600c60008373ffffffffffffffffffffffffffffffffffffffff1673ffffffffffffffffffffffffffffffffffffffff16815260200190815260200160002060006101000a81548160ff02191690831515021790555050565b600d60009054906101000a900473ffffffffffffffffffffffffffffffffffffffff1673ffffffffffffffffffffffffffffffffffffffff163373ffffffffffffffffffffffffffffffffffffffff16146120bd576040517f08c379a00000000000000000000000000000000000000000000000000000000081526004016120b490613b14565b60405180910390fd5b6009846040516120cd9190613a14565b908152602001604051809103902060009054906101000a900460ff16612128576040517f08c379a000000000000000000000000000000000000000000000000000000000815260040161211f906141e7565b60405180910390fd5b6040518060800160405280858152602001848152602001838152602001828152506002856040516121599190613a14565b9081526020016040518091039020600082015181600001908161217c9190613db8565b5060208201518160010190816121929190613db8565b50604082015181600201556060820151816003015590505050505050565b600d60009054906101000a900473ffffffffffffffffffffffffffffffffffffffff1673ffffffffffffffffffffffffffffffffffffffff163373ffffffffffffffffffffffffffffffffffffffff1614612240576040517f08c379a000000000000000000000000000000000000000000000000000000000815260040161223790613b14565b60405180910390fd5b600c60008273ffffffffffffffffffffffffffffffffffffffff1673ffffffffffffffffffffffffffffffffffffffff16815260200190815260200160002060009054906101000a900460ff166122cc576040517f08c379a00000000000000000000000000000000000000000000000000000000081526004016122c390614253565b60405180910390fd5b7f7d0afd94fbb67c41dce82b00240b23eb17cd64b8971fe1b722eee0363a2dede06040516122f9906142bf565b60405180910390a150565b60015481565b600d60009054906101000a900473ffffffffffffffffffffffffffffffffffffffff1673ffffffffffffffffffffffffffffffffffffffff163373ffffffffffffffffffffffffffffffffffffffff161461239a576040517f08c379a000000000000000000000000000000000000000000000000000000000815260040161239190613b14565b60405180910390fd5b6009816040516123aa9190613a14565b908152602001604051809103902060009054906101000a900460ff16612405576040517f08c379a00000000000000000000000000000000000000000000000000000000081526004016123fc906141e7565b60405180910390fd5b60006009826040516124179190613a14565b908152602001604051809103902060006101000a81548160ff02191690831515021790555060028160405161244c9190613a14565b90815260200160405180910390206000808201600061246b9190612e90565b60018201600061247b9190612e90565b60028201600090556003820160009055505060005b6003805490508110156125e4578180519060200120600382815481106124b9576124b8613949565b5b906000526020600020016040516124d09190614382565b6040518091039020036125d15760008190505b60016003805490506124f591906140cc565b81101561256457600360018261250b9190614399565b8154811061251c5761251b613949565b5b906000526020600020016003828154811061253a57612539613949565b5b90600052602060002001908161255091906143f8565b50808061255c90613a5a565b9150506124e3565b50600380548061257757612576614100565b5b6001900381819060005260206000200160006125939190612e90565b905560006009836040516125a79190613a14565b908152602001604051809103902060006101000a81548160ff0219169083151502179055506125e4565b80806125dc90613a5a565b915050612490565b50600160008154809291906125f8906144e0565b919050555050565b600f6020528060005260406000206000915090505481565b600d60009054906101000a900473ffffffffffffffffffffffffffffffffffffffff1673ffffffffffffffffffffffffffffffffffffffff163373ffffffffffffffffffffffffffffffffffffffff16146126a8576040517f08c379a000000000000000000000000000000000000000000000000000000000815260040161269f90613b14565b60405180910390fd5b60005b60088054905081101561288c578173ffffffffffffffffffffffffffffffffffffffff16600882815481106126e3576126e2613949565b5b9060005260206000200160009054906101000a900473ffffffffffffffffffffffffffffffffffffffff1673ffffffffffffffffffffffffffffffffffffffff1603612879576008600160088054905061273d91906140cc565b8154811061274e5761274d613949565b5b9060005260206000200160009054906101000a900473ffffffffffffffffffffffffffffffffffffffff166008828154811061278d5761278c613949565b5b9060005260206000200160006101000a81548173ffffffffffffffffffffffffffffffffffffffff021916908373ffffffffffffffffffffffffffffffffffffffff16021790555060088054806127e7576127e6614100565b5b6001900381819060005260206000200160006101000a81549073ffffffffffffffffffffffffffffffffffffffff021916905590556000600c60008473ffffffffffffffffffffffffffffffffffffffff1673ffffffffffffffffffffffffffffffffffffffff16815260200190815260200160002060006101000a81548160ff02191690831515021790555061288c565b808061288490613a5a565b9150506126ab565b5050565b606080606080600060015467ffffffffffffffff8111156128b4576128b3613157565b5b6040519080825280602002602001820160405280156128e757816020015b60608152602001906001900390816128d25790505b509050600060015467ffffffffffffffff81111561290857612907613157565b5b60405190808252806020026020018201604052801561293b57816020015b60608152602001906001900390816129265790505b509050600060015467ffffffffffffffff81111561295c5761295b613157565b5b60405190808252806020026020018201604052801561298a5781602001602082028036833780820191505090505b509050600060015467ffffffffffffffff8111156129ab576129aa613157565b5b6040519080825280602002602001820160405280156129d95781602001602082028036833780820191505090505b50905060005b600154811015612c0d576000600260038381548110612a0157612a00613949565b5b90600052602060002001604051612a18919061458c565b9081526020016040518091039020604051806080016040529081600082018054612a41906139a7565b80601f0160208091040260200160405190810160405280929190818152602001828054612a6d906139a7565b8015612aba5780601f10612a8f57610100808354040283529160200191612aba565b820191906000526020600020905b815481529060010190602001808311612a9d57829003601f168201915b50505050508152602001600182018054612ad3906139a7565b80601f0160208091040260200160405190810160405280929190818152602001828054612aff906139a7565b8015612b4c5780601f10612b2157610100808354040283529160200191612b4c565b820191906000526020600020905b815481529060010190602001808311612b2f57829003601f168201915b505050505081526020016002820154815260200160038201548152505090508060000151868381518110612b8357612b82613949565b5b60200260200101819052508060200151858381518110612ba657612ba5613949565b5b60200260200101819052508060400151848381518110612bc957612bc8613949565b5b6020026020010181815250508060600151838381518110612bed57612bec613949565b5b602002602001018181525050508080612c0590613a5a565b9150506129df565b508383838397509750975097505050505090919293565b60606006805480602002602001604051908101604052809291908181526020018280548015612ca857602002820191906000526020600020905b8160009054906101000a900473ffffffffffffffffffffffffffffffffffffffff1673ffffffffffffffffffffffffffffffffffffffff1681526020019060010190808311612c5e575b5050505050905090565b606060004244600154604051602001612ccd939291906145c4565b604051602081830303815290604052805190602001209050612cf18160001c612cf7565b91505090565b606060008203612d3e576040518060400160405280600181526020017f30000000000000000000000000000000000000000000000000000000000000008152509050612e52565b600082905060005b60008214612d70578080612d5990613a5a565b915050600a82612d699190614630565b9150612d46565b60008167ffffffffffffffff811115612d8c57612d8b613157565b5b6040519080825280601f01601f191660200182016040528015612dbe5781602001600182028036833780820191505090505b5090505b60008514612e4b57600182612dd791906140cc565b9150600a85612de69190614661565b6030612df29190614399565b60f81b818381518110612e0857612e07613949565b5b60200101907effffffffffffffffffffffffffffffffffffffffffffffffffffffffffffff1916908160001a905350600a85612e449190614630565b9450612dc2565b8093505050505b919050565b6040518060600160405280600073ffffffffffffffffffffffffffffffffffffffff168152602001606081526020016000151581525090565b508054612e9c906139a7565b6000825580601f10612eae5750612ecd565b601f016020900490600052602060002090810190612ecc9190612ed0565b5b50565b5b80821115612ee9576000816000905550600101612ed1565b5090565b600081519050919050565b600082825260208201905092915050565b6000819050602082019050919050565b600073ffffffffffffffffffffffffffffffffffffffff82169050919050565b6000612f4482612f19565b9050919050565b612f5481612f39565b82525050565b600081519050919050565b600082825260208201905092915050565b60005b83811015612f94578082015181840152602081019050612f79565b60008484015250505050565b6000601f19601f8301169050919050565b6000612fbc82612f5a565b612fc68185612f65565b9350612fd6818560208601612f76565b612fdf81612fa0565b840191505092915050565b60008115159050919050565b612fff81612fea565b82525050565b600060608301600083015161301d6000860182612f4b565b50602083015184820360208601526130358282612fb1565b915050604083015161304a6040860182612ff6565b508091505092915050565b60006130618383613005565b905092915050565b6000602082019050919050565b600061308182612eed565b61308b8185612ef8565b93508360208202850161309d85612f09565b8060005b858110156130d957848403895281516130ba8582613055565b94506130c583613069565b925060208a019950506001810190506130a1565b50829750879550505050505092915050565b600060208201905081810360008301526131058184613076565b905092915050565b6000604051905090565b600080fd5b600080fd5b61312a81612f39565b811461313557600080fd5b50565b60008135905061314781613121565b92915050565b600080fd5b600080fd5b7f4e487b7100000000000000000000000000000000000000000000000000000000600052604160045260246000fd5b61318f82612fa0565b810181811067ffffffffffffffff821117156131ae576131ad613157565b5b80604052505050565b60006131c161310d565b90506131cd8282613186565b919050565b600067ffffffffffffffff8211156131ed576131ec613157565b5b6131f682612fa0565b9050602081019050919050565b82818337600083830152505050565b6000613225613220846131d2565b6131b7565b90508281526020810184848401111561324157613240613152565b5b61324c848285613203565b509392505050565b600082601f8301126132695761326861314d565b5b8135613279848260208601613212565b91505092915050565b6000806040838503121561329957613298613117565b5b60006132a785828601613138565b925050602083013567ffffffffffffffff8111156132c8576132c761311c565b5b6132d485828601613254565b9150509250929050565b6000602082840312156132f4576132f3613117565b5b600082013567ffffffffffffffff8111156133125761331161311c565b5b61331e84828501613254565b91505092915050565b600082825260208201905092915050565b600061334382612f5a565b61334d8185613327565b935061335d818560208601612f76565b61336681612fa0565b840191505092915050565b6000819050919050565b61338481613371565b82525050565b600060808201905081810360008301526133a48187613338565b905081810360208301526133b88186613338565b90506133c7604083018561337b565b6133d4606083018461337b565b95945050505050565b60006020820190506133f2600083018461337b565b92915050565b60006020828403121561340e5761340d613117565b5b600061341c84828501613138565b91505092915050565b61342e81612fea565b82525050565b60006020820190506134496000830184613425565b92915050565b61345881612f39565b82525050565b600060e0820190508181036000830152613478818a613338565b9050818103602083015261348c8189613338565b905061349b604083018861337b565b6134a8606083018761344f565b6134b5608083018661344f565b6134c260a083018561344f565b81810360c08301526134d48184613338565b905098975050505050505050565b600081519050919050565b600082825260208201905092915050565b6000819050602082019050919050565b600061351a8383612f4b565b60208301905092915050565b6000602082019050919050565b600061353e826134e2565b61354881856134ed565b9350613553836134fe565b8060005b8381101561358457815161356b888261350e565b975061357683613526565b925050600181019050613557565b5085935050505092915050565b600060208201905081810360008301526135ab8184613533565b905092915050565b60006060820190506135c8600083018661344f565b81810360208301526135da8185613338565b90506135e96040830184613425565b949350505050565b6135fa81613371565b811461360557600080fd5b50565b600081359050613617816135f1565b92915050565b60008060006060848603121561363657613635613117565b5b600084013567ffffffffffffffff8111156136545761365361311c565b5b61366086828701613254565b935050602061367186828701613608565b925050604061368286828701613608565b9150509250925092565b600060208201905081810360008301526136a68184613338565b905092915050565b60006020820190506136c3600083018461344f565b92915050565b600080600080608085870312156136e3576136e2613117565b5b600085013567ffffffffffffffff8111156137015761370061311c565b5b61370d87828801613254565b945050602085013567ffffffffffffffff81111561372e5761372d61311c565b5b61373a87828801613254565b935050604061374b87828801613608565b925050606061375c87828801613608565b91505092959194509250565b600081519050919050565b600082825260208201905092915050565b6000819050602082019050919050565b60006137a08383612fb1565b905092915050565b6000602082019050919050565b60006137c082613768565b6137ca8185613773565b9350836020820285016137dc85613784565b8060005b8581101561381857848403895281516137f98582613794565b9450613804836137a8565b925060208a019950506001810190506137e0565b50829750879550505050505092915050565b600081519050919050565b600082825260208201905092915050565b6000819050602082019050919050565b61385f81613371565b82525050565b60006138718383613856565b60208301905092915050565b6000602082019050919050565b60006138958261382a565b61389f8185613835565b93506138aa83613846565b8060005b838110156138db5781516138c28882613865565b97506138cd8361387d565b9250506001810190506138ae565b5085935050505092915050565b6000608082019050818103600083015261390281876137b5565b9050818103602083015261391681866137b5565b9050818103604083015261392a818561388a565b9050818103606083015261393e818461388a565b905095945050505050565b7f4e487b7100000000000000000000000000000000000000000000000000000000600052603260045260246000fd5b7f4e487b7100000000000000000000000000000000000000000000000000000000600052602260045260246000fd5b600060028204905060018216806139bf57607f821691505b6020821081036139d2576139d1613978565b5b50919050565b600081905092915050565b60006139ee82612f5a565b6139f881856139d8565b9350613a08818560208601612f76565b80840191505092915050565b6000613a2082846139e3565b915081905092915050565b7f4e487b7100000000000000000000000000000000000000000000000000000000600052601160045260246000fd5b6000613a6582613371565b91507fffffffffffffffffffffffffffffffffffffffffffffffffffffffffffffffff8203613a9757613a96613a2b565b5b600182019050919050565b7f4f6e6c79206f776e65722063616e2063616c6c20746869732066756e6374696f60008201527f6e00000000000000000000000000000000000000000000000000000000000000602082015250565b6000613afe602183613327565b9150613b0982613aa2565b604082019050919050565b60006020820190508181036000830152613b2d81613af1565b9050919050565b7f5368697070657220646f65736e27742065786973740000000000000000000000600082015250565b6000613b6a601583613327565b9150613b7582613b34565b602082019050919050565b60006020820190508181036000830152613b9981613b5d565b9050919050565b7f42696e20646f65736e2774206578697374000000000000000000000000000000600082015250565b6000613bd6601183613327565b9150613be182613ba0565b602082019050919050565b60006020820190508181036000830152613c0581613bc9565b9050919050565b60008190508160005260206000209050919050565b60006020601f8301049050919050565b600082821b905092915050565b600060088302613c6e7fffffffffffffffffffffffffffffffffffffffffffffffffffffffffffffffff82613c31565b613c788683613c31565b95508019841693508086168417925050509392505050565b6000819050919050565b6000613cb5613cb0613cab84613371565b613c90565b613371565b9050919050565b6000819050919050565b613ccf83613c9a565b613ce3613cdb82613cbc565b848454613c3e565b825550505050565b600090565b613cf8613ceb565b613d03818484613cc6565b505050565b5b81811015613d2757613d1c600082613cf0565b600181019050613d09565b5050565b601f821115613d6c57613d3d81613c0c565b613d4684613c21565b81016020851015613d55578190505b613d69613d6185613c21565b830182613d08565b50505b505050565b600082821c905092915050565b6000613d8f60001984600802613d71565b1980831691505092915050565b6000613da88383613d7e565b9150826002028217905092915050565b613dc182612f5a565b67ffffffffffffffff811115613dda57613dd9613157565b5b613de482546139a7565b613def828285613d2b565b600060209050601f831160018114613e225760008415613e10578287015190505b613e1a8582613d9c565b865550613e82565b601f198416613e3086613c0c565b60005b82811015613e5857848901518255600182019150602085019450602081019050613e33565b86831015613e755784890151613e71601f891682613d7e565b8355505b6001600288020188555050505b505050505050565b7f436974697a656e20646f6573206e6f7420657869737400000000000000000000600082015250565b6000613ec0601683613327565b9150613ecb82613e8a565b602082019050919050565b60006020820190508181036000830152613eef81613eb3565b9050919050565b7f436974697a656e2063616e206265206d6f646966696564000000000000000000600082015250565b6000613f2c601783613327565b9150613f3782613ef6565b602082019050919050565b60006020820190508181036000830152613f5b81613f1f565b9050919050565b7f436974697a656e20616c72656164792065786973747300000000000000000000600082015250565b6000613f98601683613327565b9150613fa382613f62565b602082019050919050565b60006020820190508181036000830152613fc781613f8b565b9050919050565b7f43616e6e6f742063726561746520636974697a656e2077697468206f776e657260008201527f2773206164647265737300000000000000000000000000000000000000000000602082015250565b600061402a602a83613327565b915061403582613fce565b604082019050919050565b600060208201905081810360008301526140598161401d565b9050919050565b7f47656e65726174656420494420616c7265616479206578697374730000000000600082015250565b6000614096601b83613327565b91506140a182614060565b602082019050919050565b600060208201905081810360008301526140c581614089565b9050919050565b60006140d782613371565b91506140e283613371565b92508282039050818111156140fa576140f9613a2b565b5b92915050565b7f4e487b7100000000000000000000000000000000000000000000000000000000600052603160045260246000fd5b7f5368697070657220616c72656164792065786973747300000000000000000000600082015250565b6000614165601683613327565b91506141708261412f565b602082019050919050565b6000602082019050818103600083015261419481614158565b9050919050565b7f42696e20646f6573206e6f742065786973740000000000000000000000000000600082015250565b60006141d1601283613327565b91506141dc8261419b565b602082019050919050565b60006020820190508181036000830152614200816141c4565b9050919050565b7f5368697070657220646f6573206e6f7420657869737400000000000000000000600082015250565b600061423d601683613327565b915061424882614207565b602082019050919050565b6000602082019050818103600083015261426c81614230565b9050919050565b7f536869707065722063616e206265206d6f646966696564000000000000000000600082015250565b60006142a9601783613327565b91506142b482614273565b602082019050919050565b600060208201905081810360008301526142d88161429c565b9050919050565b600081905092915050565b60008190508160005260206000209050919050565b6000815461430c816139a7565b61431681866142df565b94506001821660008114614331576001811461434657614379565b60ff1983168652811515820286019350614379565b61434f856142ea565b60005b8381101561437157815481890152600182019150602081019050614352565b838801955050505b50505092915050565b600061438e82846142ff565b915081905092915050565b60006143a482613371565b91506143af83613371565b92508282019050808211156143c7576143c6613a2b565b5b92915050565b6000815490506143dc816139a7565b9050919050565b60008190508160005260206000209050919050565b8181036144065750506144de565b61440f826143cd565b67ffffffffffffffff81111561442857614427613157565b5b61443282546139a7565b61443d828285613d2b565b6000601f83116001811461446c576000841561445a578287015490505b6144648582613d9c565b8655506144d7565b601f19841661447a876143e3565b965061448586613c0c565b60005b828110156144ad57848901548255600182019150600185019450602081019050614488565b868310156144ca57848901546144c6601f891682613d7e565b8355505b6001600288020188555050505b5050505050505b565b60006144eb82613371565b9150600082036144fe576144fd613a2b565b5b600182039050919050565b60008154614516816139a7565b61452081866139d8565b9450600182166000811461453b576001811461455057614583565b60ff1983168652811515820286019350614583565b61455985613c0c565b60005b8381101561457b5781548189015260018201915060208101905061455c565b838801955050505b50505092915050565b60006145988284614509565b915081905092915050565b6000819050919050565b6145be6145b982613371565b6145a3565b82525050565b60006145d082866145ad565b6020820191506145e082856145ad565b6020820191506145f082846145ad565b602082019150819050949350505050565b7f4e487b7100000000000000000000000000000000000000000000000000000000600052601260045260246000fd5b600061463b82613371565b915061464683613371565b92508261465657614655614601565b5b828204905092915050565b600061466c82613371565b915061467783613371565b92508261468757614686614601565b5b82820690509291505056fea26469706673582212200dfcbac4d2dbd5b16cad6adc4ea21e3c0814fd16145294b7eb202b302fe7d46864736f6c63430008130033",
  "immutableReferences": {},
  "source": "// SPDX-License-Identifier: MIT\r\npragma solidity ^0.8.0;\r\n\r\ncontract WasteManagement {\r\n    struct Bin {\r\n        string id; // Changed type to string\r\n        string location;\r\n        uint256 capacity;\r\n        uint256 currentWeight;\r\n    }\r\n    struct Waste {\r\n        string id;\r\n        string status;\r\n        uint256 weight;\r\n        address citizenId;\r\n        address shipperId;\r\n        address recyclerId;\r\n        string binId; // Changed type to string\r\n    }\r\n    struct Notif {\r\n        address shipperNotified;\r\n        string binNotif; // Changed type to string\r\n        bool done;\r\n    }\r\n    event BinCreated(string id);\r\n    event ModifShipper(string message);\r\n    event ModifCitizen(string message);\r\n    uint256 public wasteCount;\r\n    uint256 public binCount;\r\n    mapping(string => Bin) public bins; // Changed key type to string\r\n    string[] binIds; // Changed type to string\r\n    string[] wasteIds; // Changed type to string\r\n    mapping(string => Waste) public wastes; // Changed key type to string\r\n    address[] citizens;\r\n    address recycler = address(0x4494f3bb19F95BB33EC116887b9dbd728C008f9b);\r\n    address[] shippers;\r\n    mapping(string => bool) isBin;\r\n    mapping(string => bool) isWaste;\r\n    mapping(address => bool) isCitizen;\r\n    mapping(address => bool) isShipper;\r\n    address public owner;\r\n    mapping(address => mapping(string => Notif)) public notifications; // Changed key type to string\r\n    mapping(address => uint256) public citizenRewards;\r\n    \r\n\r\n\r\n    modifier onlyOwner() {\r\n        require(msg.sender == owner, \"Only owner can call this function\");\r\n        _;\r\n    }\r\n\r\n    constructor() {\r\n        owner = msg.sender;\r\n    }\r\n\r\n\r\n\r\n                     //*************Bin************//\r\n    function createBin(string memory _location,  uint256 _capacity, uint256 _currentWeight) external onlyOwner returns (string memory) {\r\n        string memory _id = generateUniqueId();\r\n        require(!isBin[_id], \"Generated ID already exists\");\r\n        bins[_id] = Bin(_id, _location,  _capacity, _currentWeight);\r\n        binIds.push(_id);\r\n        binCount++;\r\n        isBin[_id] = true;\r\n        emit BinCreated(_id);\r\n        return _id;\r\n    }\r\n\r\n    function modifyBin(string memory _id, string memory _location,  uint256 _capacity, uint256 _currentWeight) external onlyOwner {\r\n        require(isBin[_id], \"Bin does not exist\");\r\n        bins[_id] = Bin(_id, _location,  _capacity, _currentWeight);\r\n    }\r\n\r\n    function deleteBin(string memory _id) external onlyOwner {\r\n        require(isBin[_id], \"Bin does not exist\");\r\n        \r\n        // Update mappings and arrays\r\n        isBin[_id] = false;\r\n        delete bins[_id];\r\n        \r\n        // Find and remove the bin ID from binIds array\r\n        for (uint256 i = 0; i < binIds.length; i++) {\r\n            if (keccak256(bytes(binIds[i])) == keccak256(bytes(_id))) {\r\n                for (uint256 j = i; j < binIds.length - 1; j++) {\r\n                    binIds[j] = binIds[j + 1];\r\n                }\r\n                binIds.pop();\r\n                isBin[_id]=false;\r\n                break;\r\n            }\r\n        }\r\n        \r\n        // Decrement binCount\r\n        binCount--;\r\n    }\r\n    \r\n    function getBins() public view returns (string[] memory, string[] memory, uint256[] memory, uint256[] memory) {\r\n        string[] memory ids = new string[](binCount);\r\n        string[] memory locations = new string[](binCount);\r\n       \r\n        uint256[] memory capacities = new uint256[](binCount);\r\n        uint256[] memory currentWeights = new uint256[](binCount);\r\n\r\n        for (uint256 i = 0; i < binCount; i++) {\r\n            Bin memory bin = bins[binIds[i]];\r\n            ids[i] = bin.id;\r\n            locations[i] = bin.location;\r\n            capacities[i] = bin.capacity;\r\n            currentWeights[i] = bin.currentWeight;\r\n        }\r\n\r\n        return (ids, locations, capacities, currentWeights);\r\n    }\r\n    function generateUniqueId() internal view returns (string memory) {\r\n        bytes32 hash = keccak256(abi.encodePacked(block.timestamp, block.prevrandao, binCount));\r\n        return toStringUniqueId((uint256(hash)));\r\n    }\r\n    //ena zedt fazat uint64 bech nsa8arha\r\n\r\n    function toStringUniqueId(uint256 value) internal pure returns (string memory) {\r\n        if (value == 0) {\r\n            return \"0\";\r\n        }\r\n        uint256 temp = value;\r\n        uint256 digits;\r\n        while (temp != 0) {\r\n            digits++;\r\n            temp /= 10;\r\n        }\r\n        bytes memory buffer = new bytes(digits);\r\n        while (value != 0) {\r\n            digits -= 1;\r\n            buffer[digits] = bytes1(uint8(48 + uint256(value % 10)));\r\n            value /= 10;\r\n        }\r\n        return string(buffer);\r\n    }\r\n\r\n                   //*****************Shipper********************//\r\n\r\n\r\n\r\n    function createShipper(address _shipper) external onlyOwner {\r\n        require(!isShipper[_shipper], \"Shipper already exists\");\r\n\r\n        shippers.push(_shipper);\r\n        isShipper[_shipper] = true;\r\n    }\r\n\r\n    function getShippers() public view returns (address[] memory) {\r\n        return shippers;\r\n    }\r\n\r\n    function notifyShipper(address _shipper, string memory _idBin) external onlyOwner {\r\n        require(isShipper[_shipper], \"Shipper doesn't exist\");\r\n        require(isBin[_idBin], \"Bin doesn't exist\");\r\n        notifications[_shipper][_idBin] = Notif(_shipper, _idBin, false);\r\n    }\r\n\r\n    function getNotifByShipper(address _shipper) public view returns (Notif[] memory) {\r\n        Notif[] memory shipperNotifications = new Notif[](binCount);\r\n\r\n        for (uint256 i = 0; i < binCount; i++) {\r\n            string memory binId = binIds[i];\r\n            if (isBin[binId]) {\r\n                shipperNotifications[i] = notifications[_shipper][binId];\r\n            }\r\n        }\r\n\r\n        return shipperNotifications;\r\n    }\r\n\r\n    function getAllNotif() public view returns (Notif[] memory) {\r\n        uint256 totalNotifications = 0;\r\n        for (uint256 i = 0; i < shippers.length; i++) {\r\n            for (uint256 j = 0; j < binCount; j++) {\r\n                string memory binId = binIds[j];\r\n                if (isBin[binId] && notifications[shippers[i]][binId].shipperNotified != address(0)) {\r\n                    totalNotifications++;\r\n                }\r\n            }\r\n        }\r\n\r\n        Notif[] memory allNotifications = new Notif[](totalNotifications);\r\n\r\n        uint256 index = 0;\r\n        for (uint256 i = 0; i < shippers.length; i++) {\r\n            for (uint256 j = 0; j < binCount; j++) {\r\n                string memory binId = binIds[j];\r\n                Notif memory notification = notifications[shippers[i]][binId];\r\n                if (isBin[binId] && notification.shipperNotified != address(0)) {\r\n                    allNotifications[index] = notification;\r\n                    index++;\r\n                }\r\n            }\r\n        }\r\n\r\n        return allNotifications;\r\n    }\r\n\r\n    function deleteShipper(address _shipperAddress) external onlyOwner {\r\n        for (uint256 i = 0; i < shippers.length; i++) {\r\n            if (shippers[i] == _shipperAddress) {\r\n                shippers[i] = shippers[\r\n                    shippers.length - 1\r\n                ];\r\n                shippers.pop();\r\n                isShipper[_shipperAddress]=false;\r\n                break;\r\n            }\r\n        }\r\n    }\r\n\r\n    function modifyShipper(address _shipperAddress) external onlyOwner {\r\n        require(isShipper[ _shipperAddress], \"Shipper does not exist\");\r\n        \r\n        // Emit a message after the require statement\r\n        emit ModifShipper(\"Shipper can be modified\");\r\n        \r\n        // Further logic here if needed\r\n    }\r\n                        //*****************Citizen********************//\r\n    function createCitizen(address _citizen) external onlyOwner {\r\n        require(!isCitizen[_citizen], \"Citizen already exists\");\r\n        require(_citizen != owner, \"Cannot create citizen with owner's address\");\r\n\r\n        citizens.push(_citizen);\r\n        isCitizen[_citizen] = true;\r\n    }\r\n\r\n    function getCitizens() public view returns (address[] memory) {\r\n        return citizens;\r\n    }\r\n\r\n    function deleteCitizen(address _citizenAddress) external onlyOwner {\r\n        for (uint256 i = 0; i < citizens.length; i++) {\r\n            if (citizens[i] == _citizenAddress) {\r\n                citizens[i] = citizens[\r\n                    citizens.length - 1\r\n                ];\r\n                citizens.pop();\r\n                isCitizen[_citizenAddress]=false;\r\n                break;\r\n            }\r\n        }\r\n    }\r\n    function modifyCitizen(address _citizenAddress) external onlyOwner {\r\n        require(isCitizen[ _citizenAddress], \"Citizen does not exist\");\r\n        \r\n        // Emit a message after the require statement\r\n        emit ModifCitizen(\"Citizen can be modified\");\r\n        \r\n        // Further logic here if needed\r\n    }\r\n    function getIsBin(string memory _binId) external view returns (bool) {\r\n        require(isBin[_binId], \"Bin doesn't exist\");\r\n        return isBin[_binId];\r\n    }\r\n\r\n}",
  "sourcePath": "C:\\Users\\MSI\\Desktop\\PFA_GUI - Copie\\truffle\\contracts\\WasteManagement.sol",
  "compiler": {
    "name": "solc",
    "version": "0.8.19+commit.7dd6d404.Emscripten.clang"
  },
  "schemaVersion": "3.4.16",
  "updatedAt": "2024-02-28T13:56:26.562Z",
  "networkType": "ethereum",
  "devdoc": {
    "kind": "dev",
    "methods": {},
    "version": 1
  },
  "userdoc": {
    "kind": "user",
    "methods": {},
    "version": 1
  }
}