{
  "contractName": "WasteManagement",
  "abi": [
    {
      "inputs": [],
      "stateMutability": "nonpayable",
      "type": "constructor"
    },
    {
      "inputs": [
        {
          "internalType": "address",
          "name": "spender",
          "type": "address"
        },
        {
          "internalType": "uint256",
          "name": "allowance",
          "type": "uint256"
        },
        {
          "internalType": "uint256",
          "name": "needed",
          "type": "uint256"
        }
      ],
      "name": "ERC20InsufficientAllowance",
      "type": "error"
    },
    {
      "inputs": [
        {
          "internalType": "address",
          "name": "sender",
          "type": "address"
        },
        {
          "internalType": "uint256",
          "name": "balance",
          "type": "uint256"
        },
        {
          "internalType": "uint256",
          "name": "needed",
          "type": "uint256"
        }
      ],
      "name": "ERC20InsufficientBalance",
      "type": "error"
    },
    {
      "inputs": [
        {
          "internalType": "address",
          "name": "approver",
          "type": "address"
        }
      ],
      "name": "ERC20InvalidApprover",
      "type": "error"
    },
    {
      "inputs": [
        {
          "internalType": "address",
          "name": "receiver",
          "type": "address"
        }
      ],
      "name": "ERC20InvalidReceiver",
      "type": "error"
    },
    {
      "inputs": [
        {
          "internalType": "address",
          "name": "sender",
          "type": "address"
        }
      ],
      "name": "ERC20InvalidSender",
      "type": "error"
    },
    {
      "inputs": [
        {
          "internalType": "address",
          "name": "spender",
          "type": "address"
        }
      ],
      "name": "ERC20InvalidSpender",
      "type": "error"
    },
    {
      "inputs": [
        {
          "internalType": "address",
          "name": "owner",
          "type": "address"
        }
      ],
      "name": "OwnableInvalidOwner",
      "type": "error"
    },
    {
      "inputs": [
        {
          "internalType": "address",
          "name": "account",
          "type": "address"
        }
      ],
      "name": "OwnableUnauthorizedAccount",
      "type": "error"
    },
    {
      "anonymous": false,
      "inputs": [
        {
          "indexed": true,
          "internalType": "address",
          "name": "owner",
          "type": "address"
        },
        {
          "indexed": true,
          "internalType": "address",
          "name": "spender",
          "type": "address"
        },
        {
          "indexed": false,
          "internalType": "uint256",
          "name": "value",
          "type": "uint256"
        }
      ],
      "name": "Approval",
      "type": "event"
    },
    {
      "anonymous": false,
      "inputs": [
        {
          "indexed": false,
          "internalType": "string",
          "name": "id",
          "type": "string"
        }
      ],
      "name": "BinCreated",
      "type": "event"
    },
    {
      "anonymous": false,
      "inputs": [
        {
          "indexed": false,
          "internalType": "string",
          "name": "id",
          "type": "string"
        }
      ],
      "name": "CollectionCreated",
      "type": "event"
    },
    {
      "anonymous": false,
      "inputs": [
        {
          "indexed": false,
          "internalType": "string",
          "name": "message",
          "type": "string"
        }
      ],
      "name": "ModifCitizen",
      "type": "event"
    },
    {
      "anonymous": false,
      "inputs": [
        {
          "indexed": false,
          "internalType": "string",
          "name": "message",
          "type": "string"
        }
      ],
      "name": "ModifShipper",
      "type": "event"
    },
    {
      "anonymous": false,
      "inputs": [
        {
          "indexed": true,
          "internalType": "address",
          "name": "previousOwner",
          "type": "address"
        },
        {
          "indexed": true,
          "internalType": "address",
          "name": "newOwner",
          "type": "address"
        }
      ],
      "name": "OwnershipTransferred",
      "type": "event"
    },
    {
      "anonymous": false,
      "inputs": [
        {
          "indexed": true,
          "internalType": "address",
          "name": "from",
          "type": "address"
        },
        {
          "indexed": true,
          "internalType": "address",
          "name": "to",
          "type": "address"
        },
        {
          "indexed": false,
          "internalType": "uint256",
          "name": "value",
          "type": "uint256"
        }
      ],
      "name": "Transfer",
      "type": "event"
    },
    {
      "inputs": [
        {
          "internalType": "address",
          "name": "owner",
          "type": "address"
        },
        {
          "internalType": "address",
          "name": "spender",
          "type": "address"
        }
      ],
      "name": "allowance",
      "outputs": [
        {
          "internalType": "uint256",
          "name": "",
          "type": "uint256"
        }
      ],
      "stateMutability": "view",
      "type": "function",
      "constant": true
    },
    {
      "inputs": [
        {
          "internalType": "address",
          "name": "spender",
          "type": "address"
        },
        {
          "internalType": "uint256",
          "name": "value",
          "type": "uint256"
        }
      ],
      "name": "approve",
      "outputs": [
        {
          "internalType": "bool",
          "name": "",
          "type": "bool"
        }
      ],
      "stateMutability": "nonpayable",
      "type": "function"
    },
    {
      "inputs": [
        {
          "internalType": "address",
          "name": "account",
          "type": "address"
        }
      ],
      "name": "balanceOf",
      "outputs": [
        {
          "internalType": "uint256",
          "name": "",
          "type": "uint256"
        }
      ],
      "stateMutability": "view",
      "type": "function",
      "constant": true
    },
    {
      "inputs": [],
      "name": "binCount",
      "outputs": [
        {
          "internalType": "uint256",
          "name": "",
          "type": "uint256"
        }
      ],
      "stateMutability": "view",
      "type": "function",
      "constant": true
    },
    {
      "inputs": [
        {
          "internalType": "string",
          "name": "",
          "type": "string"
        }
      ],
      "name": "bins",
      "outputs": [
        {
          "internalType": "string",
          "name": "id",
          "type": "string"
        },
        {
          "internalType": "string",
          "name": "location",
          "type": "string"
        },
        {
          "internalType": "uint256",
          "name": "capacity",
          "type": "uint256"
        },
        {
          "internalType": "uint256",
          "name": "currentWeight",
          "type": "uint256"
        }
      ],
      "stateMutability": "view",
      "type": "function",
      "constant": true
    },
    {
      "inputs": [
        {
          "internalType": "address",
          "name": "",
          "type": "address"
        }
      ],
      "name": "citizenRewards",
      "outputs": [
        {
          "internalType": "uint256",
          "name": "",
          "type": "uint256"
        }
      ],
      "stateMutability": "view",
      "type": "function",
      "constant": true
    },
    {
      "inputs": [],
      "name": "collectionCount",
      "outputs": [
        {
          "internalType": "uint256",
          "name": "",
          "type": "uint256"
        }
      ],
      "stateMutability": "view",
      "type": "function",
      "constant": true
    },
    {
      "inputs": [
        {
          "internalType": "string",
          "name": "",
          "type": "string"
        }
      ],
      "name": "collections",
      "outputs": [
        {
          "internalType": "string",
          "name": "idCollection",
          "type": "string"
        },
        {
          "internalType": "address",
          "name": "shipperNotified",
          "type": "address"
        },
        {
          "internalType": "string",
          "name": "binNotif",
          "type": "string"
        },
        {
          "internalType": "bool",
          "name": "done",
          "type": "bool"
        },
        {
          "internalType": "string",
          "name": "date",
          "type": "string"
        },
        {
          "internalType": "string",
          "name": "status",
          "type": "string"
        }
      ],
      "stateMutability": "view",
      "type": "function",
      "constant": true
    },
    {
      "inputs": [],
      "name": "decimals",
      "outputs": [
        {
          "internalType": "uint8",
          "name": "",
          "type": "uint8"
        }
      ],
      "stateMutability": "view",
      "type": "function",
      "constant": true
    },
    {
      "inputs": [],
      "name": "maxSupply",
      "outputs": [
        {
          "internalType": "uint256",
          "name": "",
          "type": "uint256"
        }
      ],
      "stateMutability": "view",
      "type": "function",
      "constant": true
    },
    {
      "inputs": [],
      "name": "name",
      "outputs": [
        {
          "internalType": "string",
          "name": "",
          "type": "string"
        }
      ],
      "stateMutability": "view",
      "type": "function",
      "constant": true
    },
    {
      "inputs": [],
      "name": "owner",
      "outputs": [
        {
          "internalType": "address",
          "name": "",
          "type": "address"
        }
      ],
      "stateMutability": "view",
      "type": "function",
      "constant": true
    },
    {
      "inputs": [],
      "name": "renounceOwnership",
      "outputs": [],
      "stateMutability": "nonpayable",
      "type": "function"
    },
    {
      "inputs": [],
      "name": "symbol",
      "outputs": [
        {
          "internalType": "string",
          "name": "",
          "type": "string"
        }
      ],
      "stateMutability": "view",
      "type": "function",
      "constant": true
    },
    {
      "inputs": [],
      "name": "totalSupply",
      "outputs": [
        {
          "internalType": "uint256",
          "name": "",
          "type": "uint256"
        }
      ],
      "stateMutability": "view",
      "type": "function",
      "constant": true
    },
    {
      "inputs": [
        {
          "internalType": "address",
          "name": "to",
          "type": "address"
        },
        {
          "internalType": "uint256",
          "name": "value",
          "type": "uint256"
        }
      ],
      "name": "transfer",
      "outputs": [
        {
          "internalType": "bool",
          "name": "",
          "type": "bool"
        }
      ],
      "stateMutability": "nonpayable",
      "type": "function"
    },
    {
      "inputs": [
        {
          "internalType": "address",
          "name": "from",
          "type": "address"
        },
        {
          "internalType": "address",
          "name": "to",
          "type": "address"
        },
        {
          "internalType": "uint256",
          "name": "value",
          "type": "uint256"
        }
      ],
      "name": "transferFrom",
      "outputs": [
        {
          "internalType": "bool",
          "name": "",
          "type": "bool"
        }
      ],
      "stateMutability": "nonpayable",
      "type": "function"
    },
    {
      "inputs": [
        {
          "internalType": "address",
          "name": "newOwner",
          "type": "address"
        }
      ],
      "name": "transferOwnership",
      "outputs": [],
      "stateMutability": "nonpayable",
      "type": "function"
    },
    {
      "inputs": [],
      "name": "wasteCount",
      "outputs": [
        {
          "internalType": "uint256",
          "name": "",
          "type": "uint256"
        }
      ],
      "stateMutability": "view",
      "type": "function",
      "constant": true
    },
    {
      "inputs": [
        {
          "internalType": "uint256",
          "name": "",
          "type": "uint256"
        }
      ],
      "name": "wasteIds",
      "outputs": [
        {
          "internalType": "string",
          "name": "",
          "type": "string"
        }
      ],
      "stateMutability": "view",
      "type": "function",
      "constant": true
    },
    {
      "inputs": [
        {
          "internalType": "string",
          "name": "",
          "type": "string"
        }
      ],
      "name": "wastes",
      "outputs": [
        {
          "internalType": "string",
          "name": "id",
          "type": "string"
        },
        {
          "internalType": "string",
          "name": "status",
          "type": "string"
        },
        {
          "internalType": "uint256",
          "name": "weight",
          "type": "uint256"
        },
        {
          "internalType": "address",
          "name": "citizenId",
          "type": "address"
        },
        {
          "internalType": "address",
          "name": "shipperId",
          "type": "address"
        },
        {
          "internalType": "address",
          "name": "recyclerId",
          "type": "address"
        },
        {
          "internalType": "string",
          "name": "binId",
          "type": "string"
        },
        {
          "internalType": "string",
          "name": "dateCollection",
          "type": "string"
        }
      ],
      "stateMutability": "view",
      "type": "function",
      "constant": true
    },
    {
      "inputs": [
        {
          "internalType": "address",
          "name": "to",
          "type": "address"
        },
        {
          "internalType": "uint256",
          "name": "amount",
          "type": "uint256"
        }
      ],
      "name": "mint",
      "outputs": [],
      "stateMutability": "nonpayable",
      "type": "function"
    },
    {
      "inputs": [
        {
          "internalType": "string",
          "name": "_location",
          "type": "string"
        },
        {
          "internalType": "uint256",
          "name": "_capacity",
          "type": "uint256"
        },
        {
          "internalType": "uint256",
          "name": "_currentWeight",
          "type": "uint256"
        }
      ],
      "name": "createBin",
      "outputs": [
        {
          "internalType": "string",
          "name": "",
          "type": "string"
        }
      ],
      "stateMutability": "nonpayable",
      "type": "function"
    },
    {
      "inputs": [
        {
          "internalType": "string",
          "name": "_id",
          "type": "string"
        },
        {
          "internalType": "string",
          "name": "_location",
          "type": "string"
        },
        {
          "internalType": "uint256",
          "name": "_capacity",
          "type": "uint256"
        },
        {
          "internalType": "uint256",
          "name": "_currentWeight",
          "type": "uint256"
        }
      ],
      "name": "modifyBin",
      "outputs": [],
      "stateMutability": "nonpayable",
      "type": "function"
    },
    {
      "inputs": [
        {
          "internalType": "string",
          "name": "_id",
          "type": "string"
        }
      ],
      "name": "deleteBin",
      "outputs": [],
      "stateMutability": "nonpayable",
      "type": "function"
    },
    {
      "inputs": [],
      "name": "getBins",
      "outputs": [
        {
          "internalType": "string[]",
          "name": "",
          "type": "string[]"
        },
        {
          "internalType": "string[]",
          "name": "",
          "type": "string[]"
        },
        {
          "internalType": "uint256[]",
          "name": "",
          "type": "uint256[]"
        },
        {
          "internalType": "uint256[]",
          "name": "",
          "type": "uint256[]"
        }
      ],
      "stateMutability": "view",
      "type": "function",
      "constant": true
    },
    {
      "inputs": [
        {
          "internalType": "address",
          "name": "_shipper",
          "type": "address"
        }
      ],
      "name": "createShipper",
      "outputs": [],
      "stateMutability": "nonpayable",
      "type": "function"
    },
    {
      "inputs": [
        {
          "internalType": "address",
          "name": "_shipper",
          "type": "address"
        },
        {
          "internalType": "string",
          "name": "_idBin",
          "type": "string"
        },
        {
          "internalType": "string",
          "name": "_date",
          "type": "string"
        }
      ],
      "name": "createCollection",
      "outputs": [
        {
          "internalType": "string",
          "name": "",
          "type": "string"
        }
      ],
      "stateMutability": "nonpayable",
      "type": "function"
    },
    {
      "inputs": [
        {
          "internalType": "string",
          "name": "_idCollection",
          "type": "string"
        },
        {
          "internalType": "address",
          "name": "_shipperId",
          "type": "address"
        },
        {
          "internalType": "string",
          "name": "_date",
          "type": "string"
        }
      ],
      "name": "shipCollection",
      "outputs": [],
      "stateMutability": "nonpayable",
      "type": "function"
    },
    {
      "inputs": [
        {
          "internalType": "address",
          "name": "_shipperAddress",
          "type": "address"
        }
      ],
      "name": "modifyShipper",
      "outputs": [],
      "stateMutability": "nonpayable",
      "type": "function"
    },
    {
      "inputs": [
        {
          "internalType": "string",
          "name": "_idCollection",
          "type": "string"
        },
        {
          "internalType": "string",
          "name": "_date",
          "type": "string"
        }
      ],
      "name": "recycleCollection",
      "outputs": [],
      "stateMutability": "nonpayable",
      "type": "function"
    },
    {
      "inputs": [
        {
          "internalType": "address",
          "name": "_citizen",
          "type": "address"
        }
      ],
      "name": "createCitizen",
      "outputs": [],
      "stateMutability": "nonpayable",
      "type": "function"
    },
    {
      "inputs": [
        {
          "internalType": "address",
          "name": "_citizenAddress",
          "type": "address"
        }
      ],
      "name": "deleteCitizen",
      "outputs": [],
      "stateMutability": "nonpayable",
      "type": "function"
    },
    {
      "inputs": [
        {
          "internalType": "address",
          "name": "_citizenAddress",
          "type": "address"
        }
      ],
      "name": "modifyCitizen",
      "outputs": [],
      "stateMutability": "nonpayable",
      "type": "function"
    },
    {
      "inputs": [
        {
          "internalType": "uint256",
          "name": "_weight",
          "type": "uint256"
        },
        {
          "internalType": "address",
          "name": "_citizenId",
          "type": "address"
        },
        {
          "internalType": "string",
          "name": "_binId",
          "type": "string"
        }
      ],
      "name": "createWaste",
      "outputs": [],
      "stateMutability": "nonpayable",
      "type": "function"
    }
  ],
  "bytecode": "0x6080604052734494f3bb19f95bb33ec116887b9dbd728c008f9b601060006101000a81548173ffffffffffffffffffffffffffffffffffffffff021916908373ffffffffffffffffffffffffffffffffffffffff16021790555060006018553480156200006b57600080fd5b50336040518060400160405280601281526020017f477265656e4561726e205472616e7366657200000000000000000000000000008152506040518060400160405280600381526020017f47524e00000000000000000000000000000000000000000000000000000000008152508160039081620000ea91906200091c565b508060049081620000fc91906200091c565b505050600073ffffffffffffffffffffffffffffffffffffffff168173ffffffffffffffffffffffffffffffffffffffff1603620001745760006040517f1e4fbdf70000000000000000000000000000000000000000000000000000000081526004016200016b919062000a48565b60405180910390fd5b6200018581620001b760201b60201c565b50683635c9adc5dea00000601a81905550620001b133683635c9adc5dea000006200027d60201b60201c565b62000bbd565b6000600560009054906101000a900473ffffffffffffffffffffffffffffffffffffffff16905081600560006101000a81548173ffffffffffffffffffffffffffffffffffffffff021916908373ffffffffffffffffffffffffffffffffffffffff1602179055508173ffffffffffffffffffffffffffffffffffffffff168173ffffffffffffffffffffffffffffffffffffffff167f8be0079c531659141344cd1fd0a4f28419497f9722a3daafe3b4186f6b6457e060405160405180910390a35050565b6200028d6200030760201b60201c565b601a5481620002a1620003a960201b60201c565b620002ad919062000a94565b1115620002f1576040517f08c379a0000000000000000000000000000000000000000000000000000000008152600401620002e89062000b30565b60405180910390fd5b620003038282620003b360201b60201c565b5050565b620003176200044060201b60201c565b73ffffffffffffffffffffffffffffffffffffffff166200033d6200044860201b60201c565b73ffffffffffffffffffffffffffffffffffffffff1614620003a757620003696200044060201b60201c565b6040517f118cdaa70000000000000000000000000000000000000000000000000000000081526004016200039e919062000a48565b60405180910390fd5b565b6000600254905090565b600073ffffffffffffffffffffffffffffffffffffffff168273ffffffffffffffffffffffffffffffffffffffff1603620004285760006040517fec442f050000000000000000000000000000000000000000000000000000000081526004016200041f919062000a48565b60405180910390fd5b6200043c600083836200047260201b60201c565b5050565b600033905090565b6000600560009054906101000a900473ffffffffffffffffffffffffffffffffffffffff16905090565b600073ffffffffffffffffffffffffffffffffffffffff168373ffffffffffffffffffffffffffffffffffffffff1603620004c8578060026000828254620004bb919062000a94565b925050819055506200059e565b60008060008573ffffffffffffffffffffffffffffffffffffffff1673ffffffffffffffffffffffffffffffffffffffff1681526020019081526020016000205490508181101562000557578381836040517fe450d38c0000000000000000000000000000000000000000000000000000000081526004016200054e9392919062000b63565b60405180910390fd5b8181036000808673ffffffffffffffffffffffffffffffffffffffff1673ffffffffffffffffffffffffffffffffffffffff16815260200190815260200160002081905550505b600073ffffffffffffffffffffffffffffffffffffffff168273ffffffffffffffffffffffffffffffffffffffff1603620005e9578060026000828254039250508190555062000636565b806000808473ffffffffffffffffffffffffffffffffffffffff1673ffffffffffffffffffffffffffffffffffffffff168152602001908152602001600020600082825401925050819055505b8173ffffffffffffffffffffffffffffffffffffffff168373ffffffffffffffffffffffffffffffffffffffff167fddf252ad1be2c89b69c2b068fc378daa952ba7f163c4a11628f55a4df523b3ef8360405162000695919062000ba0565b60405180910390a3505050565b600081519050919050565b7f4e487b7100000000000000000000000000000000000000000000000000000000600052604160045260246000fd5b7f4e487b7100000000000000000000000000000000000000000000000000000000600052602260045260246000fd5b600060028204905060018216806200072457607f821691505b6020821081036200073a5762000739620006dc565b5b50919050565b60008190508160005260206000209050919050565b60006020601f8301049050919050565b600082821b905092915050565b600060088302620007a47fffffffffffffffffffffffffffffffffffffffffffffffffffffffffffffffff8262000765565b620007b0868362000765565b95508019841693508086168417925050509392505050565b6000819050919050565b6000819050919050565b6000620007fd620007f7620007f184620007c8565b620007d2565b620007c8565b9050919050565b6000819050919050565b6200081983620007dc565b62000831620008288262000804565b84845462000772565b825550505050565b600090565b6200084862000839565b620008558184846200080e565b505050565b5b818110156200087d57620008716000826200083e565b6001810190506200085b565b5050565b601f821115620008cc57620008968162000740565b620008a18462000755565b81016020851015620008b1578190505b620008c9620008c08562000755565b8301826200085a565b50505b505050565b600082821c905092915050565b6000620008f160001984600802620008d1565b1980831691505092915050565b60006200090c8383620008de565b9150826002028217905092915050565b6200092782620006a2565b67ffffffffffffffff811115620009435762000942620006ad565b5b6200094f82546200070b565b6200095c82828562000881565b600060209050601f8311600181146200099457600084156200097f578287015190505b6200098b8582620008fe565b865550620009fb565b601f198416620009a48662000740565b60005b82811015620009ce57848901518255600182019150602085019450602081019050620009a7565b86831015620009ee5784890151620009ea601f891682620008de565b8355505b6001600288020188555050505b505050505050565b600073ffffffffffffffffffffffffffffffffffffffff82169050919050565b600062000a308262000a03565b9050919050565b62000a428162000a23565b82525050565b600060208201905062000a5f600083018462000a37565b92915050565b7f4e487b7100000000000000000000000000000000000000000000000000000000600052601160045260246000fd5b600062000aa182620007c8565b915062000aae83620007c8565b925082820190508082111562000ac95762000ac862000a65565b5b92915050565b600082825260208201905092915050565b7f4d617820537570706c7920457863656564656400000000000000000000000000600082015250565b600062000b1860138362000acf565b915062000b258262000ae0565b602082019050919050565b6000602082019050818103600083015262000b4b8162000b09565b9050919050565b62000b5d81620007c8565b82525050565b600060608201905062000b7a600083018662000a37565b62000b89602083018562000b52565b62000b98604083018462000b52565b949350505050565b600060208201905062000bb7600083018462000b52565b92915050565b615c538062000bcd6000396000f3fe608060405234801561001057600080fd5b50600436106102115760003560e01c8063715018a611610125578063c9b5ac5b116100ad578063d59728021161007c578063d597280214610633578063d5abeb0114610663578063dd62ed3e14610681578063e042a402146106b1578063f2fde38b146106d257610211565b8063c9b5ac5b146105bf578063cc3b2e88146105db578063ce4717df146105f9578063d57f966b1461061557610211565b80638da5cb5b116100f45780638da5cb5b1461051b57806395d89b4114610539578063963464f114610557578063a9059cbb14610573578063aef16e76146105a357610211565b8063715018a6146104a9578063715624c9146104b357806381d06633146104cf5780638d68d807146104ff57610211565b806335a9c596116101a85780634a19d56d116101775780634a19d56d146103c157806351793e06146103f8578063537a828f1461041457806366e54d7b1461044457806370a082311461047957610211565b806335a9c5961461033d5780633c1bc3b91461036d5780633e8176dc1461038957806340c10f19146103a557610211565b806318160ddd116101e457806318160ddd146102b5578063236b831c146102d357806323b872dd146102ef578063313ce5671461031f57610211565b806306fdde0314610216578063095ea7b31461023457806313a172f3146102645780631620739314610297575b600080fd5b61021e6106ee565b60405161022b9190613f87565b60405180910390f35b61024e60048036038101906102499190614051565b610780565b60405161025b91906140ac565b60405180910390f35b61027e600480360381019061027991906141fc565b6107a3565b60405161028e9493929190614254565b60405180910390f35b61029f6108f9565b6040516102ac91906142a7565b60405180910390f35b6102bd6108ff565b6040516102ca91906142a7565b60405180910390f35b6102ed60048036038101906102e891906142c2565b610909565b005b610309600480360381019061030491906142ef565b6109d5565b60405161031691906140ac565b60405180910390f35b610327610a04565b604051610334919061435e565b60405180910390f35b61035760048036038101906103529190614379565b610a0d565b6040516103649190613f87565b60405180910390f35b610387600480360381019061038291906142c2565b611157565b005b6103a3600480360381019061039e9190614404565b6112aa565b005b6103bf60048036038101906103ba9190614051565b6116df565b005b6103db60048036038101906103d691906141fc565b61174c565b6040516103ef98979695949392919061449e565b60405180910390f35b610412600480360381019061040d9190614538565b611a2a565b005b61042e600480360381019061042991906145a7565b611b20565b60405161043b9190613f87565b60405180910390f35b61045e600480360381019061045991906141fc565b611bcc565b604051610470969594939291906145d4565b60405180910390f35b610493600480360381019061048e91906142c2565b611e6b565b6040516104a091906142a7565b60405180910390f35b6104b1611eb3565b005b6104cd60048036038101906104c89190614651565b611ec7565b005b6104e960048036038101906104e491906146c9565b6121d6565b6040516104f69190613f87565b60405180910390f35b610519600480360381019061051491906142c2565b6123a0565b005b610523612590565b6040516105309190614738565b60405180910390f35b6105416125ba565b60405161054e9190613f87565b60405180910390f35b610571600480360381019061056c91906142c2565b61264c565b005b61058d60048036038101906105889190614051565b61279f565b60405161059a91906140ac565b60405180910390f35b6105bd60048036038101906105b89190614753565b6127c2565b005b6105d960048036038101906105d491906142c2565b6128bd565b005b6105e3612989565b6040516105f091906142a7565b60405180910390f35b610613600480360381019061060e91906141fc565b61298f565b005b61061d612bfd565b60405161062a91906142a7565b60405180910390f35b61064d600480360381019061064891906142c2565b612c03565b60405161065a91906142a7565b60405180910390f35b61066b612c1b565b60405161067891906142a7565b60405180910390f35b61069b600480360381019061069691906147f2565b612c21565b6040516106a891906142a7565b60405180910390f35b6106b9612ca8565b6040516106c994939291906149fc565b60405180910390f35b6106ec60048036038101906106e791906142c2565b61303c565b005b6060600380546106fd90614a8c565b80601f016020809104026020016040519081016040528092919081815260200182805461072990614a8c565b80156107765780601f1061074b57610100808354040283529160200191610776565b820191906000526020600020905b81548152906001019060200180831161075957829003601f168201915b5050505050905090565b60008061078b6130c2565b90506107988185856130ca565b600191505092915050565b6009818051602081018201805184825260208301602085012081835280955050505050506000915090508060000180546107dc90614a8c565b80601f016020809104026020016040519081016040528092919081815260200182805461080890614a8c565b80156108555780601f1061082a57610100808354040283529160200191610855565b820191906000526020600020905b81548152906001019060200180831161083857829003601f168201915b50505050509080600101805461086a90614a8c565b80601f016020809104026020016040519081016040528092919081815260200182805461089690614a8c565b80156108e35780601f106108b8576101008083540402835291602001916108e3565b820191906000526020600020905b8154815290600101906020018083116108c657829003601f168201915b5050505050908060020154908060030154905084565b60065481565b6000600254905090565b6109116130dc565b601560008273ffffffffffffffffffffffffffffffffffffffff1673ffffffffffffffffffffffffffffffffffffffff16815260200190815260200160002060009054906101000a900460ff1661099d576040517f08c379a000000000000000000000000000000000000000000000000000000000815260040161099490614b09565b60405180910390fd5b7fb93a331b14aae9427dff15bad12885145072068d20db5bc47066d700abfe7dea6040516109ca90614b75565b60405180910390a150565b6000806109e06130c2565b90506109ed858285613163565b6109f88585856131f7565b60019150509392505050565b60006012905090565b6060610a176130dc565b601660008573ffffffffffffffffffffffffffffffffffffffff1673ffffffffffffffffffffffffffffffffffffffff16815260200190815260200160002060009054906101000a900460ff16610aa3576040517f08c379a0000000000000000000000000000000000000000000000000000000008152600401610a9a90614be1565b60405180910390fd5b601283604051610ab39190614c3d565b908152602001604051809103902060009054906101000a900460ff16610b0e576040517f08c379a0000000000000000000000000000000000000000000000000000000008152600401610b0590614ca0565b60405180910390fd5b60005b600c80549050811015610bfd576000600a600c8381548110610b3657610b35614cc0565b5b90600052602060002001604051610b4d9190614d87565b90815260200160405180910390209050848051906020012081600201604051610b769190614e41565b6040518091039020148015610ba95750838051906020012081600401604051610b9f9190614e41565b6040518091039020145b15610be9576040517f08c379a0000000000000000000000000000000000000000000000000000000008152600401610be090614eca565b60405180910390fd5b508080610bf590614f19565b915050610b11565b506000610c086132eb565b9050601381604051610c1a9190614c3d565b908152602001604051809103902060009054906101000a900460ff1615610c76576040517f08c379a0000000000000000000000000000000000000000000000000000000008152600401610c6d90614fd3565b60405180910390fd5b60005b600d80549050811015610db5576000600e600d8381548110610c9e57610c9d614cc0565b5b90600052602060002001604051610cb59190614d87565b90815260200160405180910390209050858051906020012081600601604051610cde9190614e41565b6040518091039020148015610d4657506040518060400160405280600781526020017f57616974696e67000000000000000000000000000000000000000000000000008152508051906020012081600101604051610d3c9190614e41565b6040518091039020145b15610da15784816007019081610d5c919061518a565b50868160040160006101000a81548173ffffffffffffffffffffffffffffffffffffffff021916908373ffffffffffffffffffffffffffffffffffffffff1602179055505b508080610dad90614f19565b915050610c79565b506040518060c001604052808281526020018673ffffffffffffffffffffffffffffffffffffffff1681526020018581526020016000151581526020018481526020016040518060400160405280600781526020017f57616974696e6700000000000000000000000000000000000000000000000000815250815250600a82604051610e419190614c3d565b90815260200160405180910390206000820151816000019081610e64919061518a565b5060208201518160010160006101000a81548173ffffffffffffffffffffffffffffffffffffffff021916908373ffffffffffffffffffffffffffffffffffffffff1602179055506040820151816002019081610ec1919061518a565b5060608201518160030160006101000a81548160ff0219169083151502179055506080820151816004019081610ef7919061518a565b5060a0820151816005019081610f0d919061518a565b50905050600c81908060018154018082558091505060019003906000526020600020016000909190919091509081610f45919061518a565b5060086000815480929190610f5990614f19565b91905055506001601382604051610f709190614c3d565b908152602001604051809103902060006101000a81548160ff021916908315150217905550601960008673ffffffffffffffffffffffffffffffffffffffff1673ffffffffffffffffffffffffffffffffffffffff16815260200190815260200160002083604051610fe29190614c3d565b908152602001604051809103902060020160009054906101000a900460ff166111155760405180606001604052808673ffffffffffffffffffffffffffffffffffffffff16815260200185815260200160001515815250601960008773ffffffffffffffffffffffffffffffffffffffff1673ffffffffffffffffffffffffffffffffffffffff168152602001908152602001600020846040516110869190614c3d565b908152602001604051809103902060008201518160000160006101000a81548173ffffffffffffffffffffffffffffffffffffffff021916908373ffffffffffffffffffffffffffffffffffffffff16021790555060208201518160010190816110f0919061518a565b5060408201518160020160006101000a81548160ff0219169083151502179055509050505b7ff2e193f96c77b8eebe5989f9851e54078a47d1e2d8e3ca74dca8a4aeb249aebf816040516111449190613f87565b60405180910390a1809150509392505050565b61115f6130dc565b601560008273ffffffffffffffffffffffffffffffffffffffff1673ffffffffffffffffffffffffffffffffffffffff16815260200190815260200160002060009054906101000a900460ff16156111ec576040517f08c379a00000000000000000000000000000000000000000000000000000000081526004016111e3906152a8565b60405180910390fd5b600f819080600181540180825580915050600190039060005260206000200160009091909190916101000a81548173ffffffffffffffffffffffffffffffffffffffff021916908373ffffffffffffffffffffffffffffffffffffffff1602179055506001601560008373ffffffffffffffffffffffffffffffffffffffff1673ffffffffffffffffffffffffffffffffffffffff16815260200190815260200160002060006101000a81548160ff02191690831515021790555050565b6112b26130dc565b6013836040516112c29190614c3d565b908152602001604051809103902060009054906101000a900460ff1661131d576040517f08c379a000000000000000000000000000000000000000000000000000000000815260040161131490615314565b60405180910390fd5b8173ffffffffffffffffffffffffffffffffffffffff16600a846040516113449190614c3d565b908152602001604051809103902060010160009054906101000a900473ffffffffffffffffffffffffffffffffffffffff1673ffffffffffffffffffffffffffffffffffffffff16146113cc576040517f08c379a00000000000000000000000000000000000000000000000000000000081526004016113c3906153a6565b60405180910390fd5b6000600a846040516113de9190614c3d565b9081526020016040518091039020600401905060005b600d805490508110156115ce576000600e600d838154811061141957611418614cc0565b5b906000526020600020016040516114309190614d87565b90815260200160405180910390209050600a866040516114509190614c3d565b908152602001604051809103902060020160405161146e9190614e41565b6040518091039020816006016040516114879190614e41565b60405180910390201480156114eb57508473ffffffffffffffffffffffffffffffffffffffff168160040160009054906101000a900473ffffffffffffffffffffffffffffffffffffffff1673ffffffffffffffffffffffffffffffffffffffff16145b80156115435750600a866040516115029190614c3d565b90815260200160405180910390206004016040516115209190614e41565b6040518091039020816007016040516115399190614e41565b6040518091039020145b156115ba5783816007019081611559919061518a565b506040518060400160405280600781526020017f53686970706564000000000000000000000000000000000000000000000000008152508160010190816115a0919061518a565b50601860008154809291906115b490614f19565b91905055505b5080806115c690614f19565b9150506113f4565b5081600a856040516115e09190614c3d565b908152602001604051809103902060040190816115fd919061518a565b506040518060400160405280600781526020017f5368697070656400000000000000000000000000000000000000000000000000815250600a856040516116449190614c3d565b90815260200160405180910390206005019081611661919061518a565b506001601960008573ffffffffffffffffffffffffffffffffffffffff1673ffffffffffffffffffffffffffffffffffffffff168152602001908152602001600020826040516116b1919061545e565b908152602001604051809103902060020160006101000a81548160ff02191690831515021790555050505050565b6116e76130dc565b601a54816116f36108ff565b6116fd9190615475565b111561173e576040517f08c379a0000000000000000000000000000000000000000000000000000000008152600401611735906154f5565b60405180910390fd5b611748828261348e565b5050565b600e8180516020810182018051848252602083016020850120818352809550505050505060009150905080600001805461178590614a8c565b80601f01602080910402602001604051908101604052809291908181526020018280546117b190614a8c565b80156117fe5780601f106117d3576101008083540402835291602001916117fe565b820191906000526020600020905b8154815290600101906020018083116117e157829003601f168201915b50505050509080600101805461181390614a8c565b80601f016020809104026020016040519081016040528092919081815260200182805461183f90614a8c565b801561188c5780601f106118615761010080835404028352916020019161188c565b820191906000526020600020905b81548152906001019060200180831161186f57829003601f168201915b5050505050908060020154908060030160009054906101000a900473ffffffffffffffffffffffffffffffffffffffff16908060040160009054906101000a900473ffffffffffffffffffffffffffffffffffffffff16908060050160009054906101000a900473ffffffffffffffffffffffffffffffffffffffff169080600601805461191990614a8c565b80601f016020809104026020016040519081016040528092919081815260200182805461194590614a8c565b80156119925780601f1061196757610100808354040283529160200191611992565b820191906000526020600020905b81548152906001019060200180831161197557829003601f168201915b5050505050908060070180546119a790614a8c565b80601f01602080910402602001604051908101604052809291908181526020018280546119d390614a8c565b8015611a205780601f106119f557610100808354040283529160200191611a20565b820191906000526020600020905b815481529060010190602001808311611a0357829003601f168201915b5050505050905088565b6000611a346132eb565b9050611a3f82613510565b611a7e576040517f08c379a0000000000000000000000000000000000000000000000000000000008152600401611a7590614ca0565b60405180910390fd5b611a87836135b0565b611ac6576040517f08c379a0000000000000000000000000000000000000000000000000000000008152600401611abd90615561565b60405180910390fd5b611acf81613692565b611b0e576040517f08c379a0000000000000000000000000000000000000000000000000000000008152600401611b05906155cd565b60405180910390fd5b611b1a81858585613734565b50505050565b600d8181548110611b3057600080fd5b906000526020600020016000915090508054611b4b90614a8c565b80601f0160208091040260200160405190810160405280929190818152602001828054611b7790614a8c565b8015611bc45780601f10611b9957610100808354040283529160200191611bc4565b820191906000526020600020905b815481529060010190602001808311611ba757829003601f168201915b505050505081565b600a81805160208101820180518482526020830160208501208183528095505050505050600091509050806000018054611c0590614a8c565b80601f0160208091040260200160405190810160405280929190818152602001828054611c3190614a8c565b8015611c7e5780601f10611c5357610100808354040283529160200191611c7e565b820191906000526020600020905b815481529060010190602001808311611c6157829003601f168201915b5050505050908060010160009054906101000a900473ffffffffffffffffffffffffffffffffffffffff1690806002018054611cb990614a8c565b80601f0160208091040260200160405190810160405280929190818152602001828054611ce590614a8c565b8015611d325780601f10611d0757610100808354040283529160200191611d32565b820191906000526020600020905b815481529060010190602001808311611d1557829003601f168201915b5050505050908060030160009054906101000a900460ff1690806004018054611d5a90614a8c565b80601f0160208091040260200160405190810160405280929190818152602001828054611d8690614a8c565b8015611dd35780601f10611da857610100808354040283529160200191611dd3565b820191906000526020600020905b815481529060010190602001808311611db657829003601f168201915b505050505090806005018054611de890614a8c565b80601f0160208091040260200160405190810160405280929190818152602001828054611e1490614a8c565b8015611e615780601f10611e3657610100808354040283529160200191611e61565b820191906000526020600020905b815481529060010190602001808311611e4457829003601f168201915b5050505050905086565b60008060008373ffffffffffffffffffffffffffffffffffffffff1673ffffffffffffffffffffffffffffffffffffffff168152602001908152602001600020549050919050565b611ebb6130dc565b611ec560006139d8565b565b601382604051611ed79190614c3d565b908152602001604051809103902060009054906101000a900460ff16611f32576040517f08c379a0000000000000000000000000000000000000000000000000000000008152600401611f2990615314565b60405180910390fd5b60005b600d8054905081101561213e576000600e600d8381548110611f5a57611f59614cc0565b5b90600052602060002001604051611f719190614d87565b90815260200160405180910390209050600a84604051611f919190614c3d565b9081526020016040518091039020600201604051611faf9190614e41565b604051809103902081600601604051611fc89190614e41565b60405180910390201480156120295750600a84604051611fe89190614c3d565b90815260200160405180910390206004016040516120069190614e41565b60405180910390208160070160405161201f9190614e41565b6040518091039020145b1561212a576040518060400160405280600781526020017f5368697070656400000000000000000000000000000000000000000000000000815250805190602001208160010160405161207c9190614e41565b604051809103902003612129578281600701908161209a919061518a565b506040518060400160405280600781526020017f526563796c6564000000000000000000000000000000000000000000000000008152508160010190816120e1919061518a565b5060006103e882600201546120f691906155ed565b9050612127338360030160009054906101000a900473ffffffffffffffffffffffffffffffffffffffff16836131f7565b505b5b50808061213690614f19565b915050611f35565b5080600a836040516121509190614c3d565b9081526020016040518091039020600401908161216d919061518a565b506040518060400160405280600781526020017f526563796c656400000000000000000000000000000000000000000000000000815250600a836040516121b49190614c3d565b908152602001604051809103902060050190816121d1919061518a565b505050565b60606121e06130dc565b60006121ea6132eb565b90506012816040516121fc9190614c3d565b908152602001604051809103902060009054906101000a900460ff1615612258576040517f08c379a000000000000000000000000000000000000000000000000000000000815260040161224f9061567b565b60405180910390fd5b6040518060800160405280828152602001868152602001858152602001848152506009826040516122899190614c3d565b908152602001604051809103902060008201518160000190816122ac919061518a565b5060208201518160010190816122c2919061518a565b506040820151816002015560608201518160030155905050600b8190806001815401808255809150506001900390600052602060002001600090919091909150908161230e919061518a565b506007600081548092919061232290614f19565b919050555060016012826040516123399190614c3d565b908152602001604051809103902060006101000a81548160ff0219169083151502179055507fd5413a7934f1aa973af7bc53f68df06953b49031401619e5997d54afb849377e8160405161238d9190613f87565b60405180910390a1809150509392505050565b6123a86130dc565b60005b600f8054905081101561258c578173ffffffffffffffffffffffffffffffffffffffff16600f82815481106123e3576123e2614cc0565b5b9060005260206000200160009054906101000a900473ffffffffffffffffffffffffffffffffffffffff1673ffffffffffffffffffffffffffffffffffffffff160361257957600f6001600f8054905061243d919061569b565b8154811061244e5761244d614cc0565b5b9060005260206000200160009054906101000a900473ffffffffffffffffffffffffffffffffffffffff16600f828154811061248d5761248c614cc0565b5b9060005260206000200160006101000a81548173ffffffffffffffffffffffffffffffffffffffff021916908373ffffffffffffffffffffffffffffffffffffffff160217905550600f8054806124e7576124e66156cf565b5b6001900381819060005260206000200160006101000a81549073ffffffffffffffffffffffffffffffffffffffff021916905590556000601560008473ffffffffffffffffffffffffffffffffffffffff1673ffffffffffffffffffffffffffffffffffffffff16815260200190815260200160002060006101000a81548160ff02191690831515021790555061258c565b808061258490614f19565b9150506123ab565b5050565b6000600560009054906101000a900473ffffffffffffffffffffffffffffffffffffffff16905090565b6060600480546125c990614a8c565b80601f01602080910402602001604051908101604052809291908181526020018280546125f590614a8c565b80156126425780601f1061261757610100808354040283529160200191612642565b820191906000526020600020905b81548152906001019060200180831161262557829003601f168201915b5050505050905090565b6126546130dc565b601660008273ffffffffffffffffffffffffffffffffffffffff1673ffffffffffffffffffffffffffffffffffffffff16815260200190815260200160002060009054906101000a900460ff16156126e1576040517f08c379a00000000000000000000000000000000000000000000000000000000081526004016126d89061574a565b60405180910390fd5b6011819080600181540180825580915050600190039060005260206000200160009091909190916101000a81548173ffffffffffffffffffffffffffffffffffffffff021916908373ffffffffffffffffffffffffffffffffffffffff1602179055506001601660008373ffffffffffffffffffffffffffffffffffffffff1673ffffffffffffffffffffffffffffffffffffffff16815260200190815260200160002060006101000a81548160ff02191690831515021790555050565b6000806127aa6130c2565b90506127b78185856131f7565b600191505092915050565b6127ca6130dc565b6012846040516127da9190614c3d565b908152602001604051809103902060009054906101000a900460ff16612835576040517f08c379a000000000000000000000000000000000000000000000000000000000815260040161282c906157b6565b60405180910390fd5b6040518060800160405280858152602001848152602001838152602001828152506009856040516128669190614c3d565b90815260200160405180910390206000820151816000019081612889919061518a565b50602082015181600101908161289f919061518a565b50604082015181600201556060820151816003015590505050505050565b6128c56130dc565b601660008273ffffffffffffffffffffffffffffffffffffffff1673ffffffffffffffffffffffffffffffffffffffff16815260200190815260200160002060009054906101000a900460ff16612951576040517f08c379a000000000000000000000000000000000000000000000000000000000815260040161294890615822565b60405180910390fd5b7f7d0afd94fbb67c41dce82b00240b23eb17cd64b8971fe1b722eee0363a2dede060405161297e9061588e565b60405180910390a150565b60075481565b6129976130dc565b6012816040516129a79190614c3d565b908152602001604051809103902060009054906101000a900460ff16612a02576040517f08c379a00000000000000000000000000000000000000000000000000000000081526004016129f9906157b6565b60405180910390fd5b6000601282604051612a149190614c3d565b908152602001604051809103902060006101000a81548160ff021916908315150217905550600981604051612a499190614c3d565b908152602001604051809103902060008082016000612a689190613e9a565b600182016000612a789190613e9a565b60028201600090556003820160009055505060005b600b80549050811015612be1578180519060200120600b8281548110612ab657612ab5614cc0565b5b90600052602060002001604051612acd9190614e41565b604051809103902003612bce5760008190505b6001600b80549050612af2919061569b565b811015612b6157600b600182612b089190615475565b81548110612b1957612b18614cc0565b5b90600052602060002001600b8281548110612b3757612b36614cc0565b5b906000526020600020019081612b4d91906158c4565b508080612b5990614f19565b915050612ae0565b50600b805480612b7457612b736156cf565b5b600190038181906000526020600020016000612b909190613e9a565b90556000601283604051612ba49190614c3d565b908152602001604051809103902060006101000a81548160ff021916908315150217905550612be1565b8080612bd990614f19565b915050612a8d565b5060076000815480929190612bf5906159ac565b919050555050565b60085481565b60176020528060005260406000206000915090505481565b601a5481565b6000600160008473ffffffffffffffffffffffffffffffffffffffff1673ffffffffffffffffffffffffffffffffffffffff16815260200190815260200160002060008373ffffffffffffffffffffffffffffffffffffffff1673ffffffffffffffffffffffffffffffffffffffff16815260200190815260200160002054905092915050565b606080606080600060075467ffffffffffffffff811115612ccc57612ccb6140d1565b5b604051908082528060200260200182016040528015612cff57816020015b6060815260200190600190039081612cea5790505b509050600060075467ffffffffffffffff811115612d2057612d1f6140d1565b5b604051908082528060200260200182016040528015612d5357816020015b6060815260200190600190039081612d3e5790505b509050600060075467ffffffffffffffff811115612d7457612d736140d1565b5b604051908082528060200260200182016040528015612da25781602001602082028036833780820191505090505b509050600060075467ffffffffffffffff811115612dc357612dc26140d1565b5b604051908082528060200260200182016040528015612df15781602001602082028036833780820191505090505b50905060005b6007548110156130255760006009600b8381548110612e1957612e18614cc0565b5b90600052602060002001604051612e309190614d87565b9081526020016040518091039020604051806080016040529081600082018054612e5990614a8c565b80601f0160208091040260200160405190810160405280929190818152602001828054612e8590614a8c565b8015612ed25780601f10612ea757610100808354040283529160200191612ed2565b820191906000526020600020905b815481529060010190602001808311612eb557829003601f168201915b50505050508152602001600182018054612eeb90614a8c565b80601f0160208091040260200160405190810160405280929190818152602001828054612f1790614a8c565b8015612f645780601f10612f3957610100808354040283529160200191612f64565b820191906000526020600020905b815481529060010190602001808311612f4757829003601f168201915b505050505081526020016002820154815260200160038201548152505090508060000151868381518110612f9b57612f9a614cc0565b5b60200260200101819052508060200151858381518110612fbe57612fbd614cc0565b5b60200260200101819052508060400151848381518110612fe157612fe0614cc0565b5b602002602001018181525050806060015183838151811061300557613004614cc0565b5b60200260200101818152505050808061301d90614f19565b915050612df7565b508383838397509750975097505050505090919293565b6130446130dc565b600073ffffffffffffffffffffffffffffffffffffffff168173ffffffffffffffffffffffffffffffffffffffff16036130b65760006040517f1e4fbdf70000000000000000000000000000000000000000000000000000000081526004016130ad9190614738565b60405180910390fd5b6130bf816139d8565b50565b600033905090565b6130d78383836001613a9e565b505050565b6130e46130c2565b73ffffffffffffffffffffffffffffffffffffffff16613102612590565b73ffffffffffffffffffffffffffffffffffffffff1614613161576131256130c2565b6040517f118cdaa70000000000000000000000000000000000000000000000000000000081526004016131589190614738565b60405180910390fd5b565b600061316f8484612c21565b90507fffffffffffffffffffffffffffffffffffffffffffffffffffffffffffffffff81146131f157818110156131e1578281836040517ffb8f41b20000000000000000000000000000000000000000000000000000000081526004016131d8939291906159d5565b60405180910390fd5b6131f084848484036000613a9e565b5b50505050565b600073ffffffffffffffffffffffffffffffffffffffff168373ffffffffffffffffffffffffffffffffffffffff16036132695760006040517f96c6fd1e0000000000000000000000000000000000000000000000000000000081526004016132609190614738565b60405180910390fd5b600073ffffffffffffffffffffffffffffffffffffffff168273ffffffffffffffffffffffffffffffffffffffff16036132db5760006040517fec442f050000000000000000000000000000000000000000000000000000000081526004016132d29190614738565b60405180910390fd5b6132e6838383613c75565b505050565b606060004244413360075460085460405160200161330e96959493929190615ab0565b60405160208183030381529060405280519060200120905060008160001c905060008103613375576040518060400160405280600181526020017f30000000000000000000000000000000000000000000000000000000000000008152509250505061348b565b600081905060005b600082146133a757808061339090614f19565b915050600a826133a09190615b4f565b915061337d565b60008167ffffffffffffffff8111156133c3576133c26140d1565b5b6040519080825280601f01601f1916602001820160405280156133f55781602001600182028036833780820191505090505b5090505b600084146134825760018261340e919061569b565b9150600a8461341d9190615b80565b60306134299190615475565b60f81b81838151811061343f5761343e614cc0565b5b60200101907effffffffffffffffffffffffffffffffffffffffffffffffffffffffffffff1916908160001a905350600a8461347b9190615b4f565b93506133f9565b80955050505050505b90565b600073ffffffffffffffffffffffffffffffffffffffff168273ffffffffffffffffffffffffffffffffffffffff16036135005760006040517fec442f050000000000000000000000000000000000000000000000000000000081526004016134f79190614738565b60405180910390fd5b61350c60008383613c75565b5050565b60006012826040516135229190614c3d565b908152602001604051809103902060009054906101000a900460ff1661357d576040517f08c379a000000000000000000000000000000000000000000000000000000000815260040161357490614ca0565b60405180910390fd5b60128260405161358d9190614c3d565b908152602001604051809103902060009054906101000a900460ff169050919050565b6000601560008373ffffffffffffffffffffffffffffffffffffffff1673ffffffffffffffffffffffffffffffffffffffff16815260200190815260200160002060009054906101000a900460ff1661363e576040517f08c379a000000000000000000000000000000000000000000000000000000000815260040161363590615561565b60405180910390fd5b601560008373ffffffffffffffffffffffffffffffffffffffff1673ffffffffffffffffffffffffffffffffffffffff16815260200190815260200160002060009054906101000a900460ff169050919050565b60006014826040516136a49190614c3d565b908152602001604051809103902060009054906101000a900460ff1615613700576040517f08c379a00000000000000000000000000000000000000000000000000000000081526004016136f790615bfd565b60405180910390fd5b6014826040516137109190614c3d565b908152602001604051809103902060009054906101000a900460ff16159050919050565b6040518061010001604052808581526020016040518060400160405280600781526020017f57616974696e670000000000000000000000000000000000000000000000000081525081526020018481526020018373ffffffffffffffffffffffffffffffffffffffff168152602001600073ffffffffffffffffffffffffffffffffffffffff168152602001600073ffffffffffffffffffffffffffffffffffffffff16815260200182815260200160405180602001604052806000815250815250600e856040516138069190614c3d565b90815260200160405180910390206000820151816000019081613829919061518a565b50602082015181600101908161383f919061518a565b506040820151816002015560608201518160030160006101000a81548173ffffffffffffffffffffffffffffffffffffffff021916908373ffffffffffffffffffffffffffffffffffffffff16021790555060808201518160040160006101000a81548173ffffffffffffffffffffffffffffffffffffffff021916908373ffffffffffffffffffffffffffffffffffffffff16021790555060a08201518160050160006101000a81548173ffffffffffffffffffffffffffffffffffffffff021916908373ffffffffffffffffffffffffffffffffffffffff16021790555060c0820151816006019081613934919061518a565b5060e082015181600701908161394a919061518a565b50905050600d84908060018154018082558091505060019003906000526020600020016000909190919091509081613982919061518a565b5060016014856040516139959190614c3d565b908152602001604051809103902060006101000a81548160ff021916908315150217905550600660008154809291906139cd90614f19565b919050555050505050565b6000600560009054906101000a900473ffffffffffffffffffffffffffffffffffffffff16905081600560006101000a81548173ffffffffffffffffffffffffffffffffffffffff021916908373ffffffffffffffffffffffffffffffffffffffff1602179055508173ffffffffffffffffffffffffffffffffffffffff168173ffffffffffffffffffffffffffffffffffffffff167f8be0079c531659141344cd1fd0a4f28419497f9722a3daafe3b4186f6b6457e060405160405180910390a35050565b600073ffffffffffffffffffffffffffffffffffffffff168473ffffffffffffffffffffffffffffffffffffffff1603613b105760006040517fe602df05000000000000000000000000000000000000000000000000000000008152600401613b079190614738565b60405180910390fd5b600073ffffffffffffffffffffffffffffffffffffffff168373ffffffffffffffffffffffffffffffffffffffff1603613b825760006040517f94280d62000000000000000000000000000000000000000000000000000000008152600401613b799190614738565b60405180910390fd5b81600160008673ffffffffffffffffffffffffffffffffffffffff1673ffffffffffffffffffffffffffffffffffffffff16815260200190815260200160002060008573ffffffffffffffffffffffffffffffffffffffff1673ffffffffffffffffffffffffffffffffffffffff168152602001908152602001600020819055508015613c6f578273ffffffffffffffffffffffffffffffffffffffff168473ffffffffffffffffffffffffffffffffffffffff167f8c5be1e5ebec7d5bd14f71427d1e84f3dd0314c0f7b2291e5b200ac8c7c3b92584604051613c6691906142a7565b60405180910390a35b50505050565b600073ffffffffffffffffffffffffffffffffffffffff168373ffffffffffffffffffffffffffffffffffffffff1603613cc7578060026000828254613cbb9190615475565b92505081905550613d9a565b60008060008573ffffffffffffffffffffffffffffffffffffffff1673ffffffffffffffffffffffffffffffffffffffff16815260200190815260200160002054905081811015613d53578381836040517fe450d38c000000000000000000000000000000000000000000000000000000008152600401613d4a939291906159d5565b60405180910390fd5b8181036000808673ffffffffffffffffffffffffffffffffffffffff1673ffffffffffffffffffffffffffffffffffffffff16815260200190815260200160002081905550505b600073ffffffffffffffffffffffffffffffffffffffff168273ffffffffffffffffffffffffffffffffffffffff1603613de35780600260008282540392505081905550613e30565b806000808473ffffffffffffffffffffffffffffffffffffffff1673ffffffffffffffffffffffffffffffffffffffff168152602001908152602001600020600082825401925050819055505b8173ffffffffffffffffffffffffffffffffffffffff168373ffffffffffffffffffffffffffffffffffffffff167fddf252ad1be2c89b69c2b068fc378daa952ba7f163c4a11628f55a4df523b3ef83604051613e8d91906142a7565b60405180910390a3505050565b508054613ea690614a8c565b6000825580601f10613eb85750613ed7565b601f016020900490600052602060002090810190613ed69190613eda565b5b50565b5b80821115613ef3576000816000905550600101613edb565b5090565b600081519050919050565b600082825260208201905092915050565b60005b83811015613f31578082015181840152602081019050613f16565b60008484015250505050565b6000601f19601f8301169050919050565b6000613f5982613ef7565b613f638185613f02565b9350613f73818560208601613f13565b613f7c81613f3d565b840191505092915050565b60006020820190508181036000830152613fa18184613f4e565b905092915050565b6000604051905090565b600080fd5b600080fd5b600073ffffffffffffffffffffffffffffffffffffffff82169050919050565b6000613fe882613fbd565b9050919050565b613ff881613fdd565b811461400357600080fd5b50565b60008135905061401581613fef565b92915050565b6000819050919050565b61402e8161401b565b811461403957600080fd5b50565b60008135905061404b81614025565b92915050565b6000806040838503121561406857614067613fb3565b5b600061407685828601614006565b92505060206140878582860161403c565b9150509250929050565b60008115159050919050565b6140a681614091565b82525050565b60006020820190506140c1600083018461409d565b92915050565b600080fd5b600080fd5b7f4e487b7100000000000000000000000000000000000000000000000000000000600052604160045260246000fd5b61410982613f3d565b810181811067ffffffffffffffff82111715614128576141276140d1565b5b80604052505050565b600061413b613fa9565b90506141478282614100565b919050565b600067ffffffffffffffff821115614167576141666140d1565b5b61417082613f3d565b9050602081019050919050565b82818337600083830152505050565b600061419f61419a8461414c565b614131565b9050828152602081018484840111156141bb576141ba6140cc565b5b6141c684828561417d565b509392505050565b600082601f8301126141e3576141e26140c7565b5b81356141f384826020860161418c565b91505092915050565b60006020828403121561421257614211613fb3565b5b600082013567ffffffffffffffff8111156142305761422f613fb8565b5b61423c848285016141ce565b91505092915050565b61424e8161401b565b82525050565b6000608082019050818103600083015261426e8187613f4e565b905081810360208301526142828186613f4e565b90506142916040830185614245565b61429e6060830184614245565b95945050505050565b60006020820190506142bc6000830184614245565b92915050565b6000602082840312156142d8576142d7613fb3565b5b60006142e684828501614006565b91505092915050565b60008060006060848603121561430857614307613fb3565b5b600061431686828701614006565b935050602061432786828701614006565b92505060406143388682870161403c565b9150509250925092565b600060ff82169050919050565b61435881614342565b82525050565b6000602082019050614373600083018461434f565b92915050565b60008060006060848603121561439257614391613fb3565b5b60006143a086828701614006565b935050602084013567ffffffffffffffff8111156143c1576143c0613fb8565b5b6143cd868287016141ce565b925050604084013567ffffffffffffffff8111156143ee576143ed613fb8565b5b6143fa868287016141ce565b9150509250925092565b60008060006060848603121561441d5761441c613fb3565b5b600084013567ffffffffffffffff81111561443b5761443a613fb8565b5b614447868287016141ce565b935050602061445886828701614006565b925050604084013567ffffffffffffffff81111561447957614478613fb8565b5b614485868287016141ce565b9150509250925092565b61449881613fdd565b82525050565b60006101008201905081810360008301526144b9818b613f4e565b905081810360208301526144cd818a613f4e565b90506144dc6040830189614245565b6144e9606083018861448f565b6144f6608083018761448f565b61450360a083018661448f565b81810360c08301526145158185613f4e565b905081810360e08301526145298184613f4e565b90509998505050505050505050565b60008060006060848603121561455157614550613fb3565b5b600061455f8682870161403c565b935050602061457086828701614006565b925050604084013567ffffffffffffffff81111561459157614590613fb8565b5b61459d868287016141ce565b9150509250925092565b6000602082840312156145bd576145bc613fb3565b5b60006145cb8482850161403c565b91505092915050565b600060c08201905081810360008301526145ee8189613f4e565b90506145fd602083018861448f565b818103604083015261460f8187613f4e565b905061461e606083018661409d565b81810360808301526146308185613f4e565b905081810360a08301526146448184613f4e565b9050979650505050505050565b6000806040838503121561466857614667613fb3565b5b600083013567ffffffffffffffff81111561468657614685613fb8565b5b614692858286016141ce565b925050602083013567ffffffffffffffff8111156146b3576146b2613fb8565b5b6146bf858286016141ce565b9150509250929050565b6000806000606084860312156146e2576146e1613fb3565b5b600084013567ffffffffffffffff811115614700576146ff613fb8565b5b61470c868287016141ce565b935050602061471d8682870161403c565b925050604061472e8682870161403c565b9150509250925092565b600060208201905061474d600083018461448f565b92915050565b6000806000806080858703121561476d5761476c613fb3565b5b600085013567ffffffffffffffff81111561478b5761478a613fb8565b5b614797878288016141ce565b945050602085013567ffffffffffffffff8111156147b8576147b7613fb8565b5b6147c4878288016141ce565b93505060406147d58782880161403c565b92505060606147e68782880161403c565b91505092959194509250565b6000806040838503121561480957614808613fb3565b5b600061481785828601614006565b925050602061482885828601614006565b9150509250929050565b600081519050919050565b600082825260208201905092915050565b6000819050602082019050919050565b600082825260208201905092915050565b600061487a82613ef7565b614884818561485e565b9350614894818560208601613f13565b61489d81613f3d565b840191505092915050565b60006148b4838361486f565b905092915050565b6000602082019050919050565b60006148d482614832565b6148de818561483d565b9350836020820285016148f08561484e565b8060005b8581101561492c578484038952815161490d85826148a8565b9450614918836148bc565b925060208a019950506001810190506148f4565b50829750879550505050505092915050565b600081519050919050565b600082825260208201905092915050565b6000819050602082019050919050565b6149738161401b565b82525050565b6000614985838361496a565b60208301905092915050565b6000602082019050919050565b60006149a98261493e565b6149b38185614949565b93506149be8361495a565b8060005b838110156149ef5781516149d68882614979565b97506149e183614991565b9250506001810190506149c2565b5085935050505092915050565b60006080820190508181036000830152614a1681876148c9565b90508181036020830152614a2a81866148c9565b90508181036040830152614a3e818561499e565b90508181036060830152614a52818461499e565b905095945050505050565b7f4e487b7100000000000000000000000000000000000000000000000000000000600052602260045260246000fd5b60006002820490506001821680614aa457607f821691505b602082108103614ab757614ab6614a5d565b5b50919050565b7f436974697a656e20646f6573206e6f7420657869737400000000000000000000600082015250565b6000614af3601683613f02565b9150614afe82614abd565b602082019050919050565b60006020820190508181036000830152614b2281614ae6565b9050919050565b7f436974697a656e2063616e206265206d6f646966696564000000000000000000600082015250565b6000614b5f601783613f02565b9150614b6a82614b29565b602082019050919050565b60006020820190508181036000830152614b8e81614b52565b9050919050565b7f5368697070657220646f65736e27742065786973740000000000000000000000600082015250565b6000614bcb601583613f02565b9150614bd682614b95565b602082019050919050565b60006020820190508181036000830152614bfa81614bbe565b9050919050565b600081905092915050565b6000614c1782613ef7565b614c218185614c01565b9350614c31818560208601613f13565b80840191505092915050565b6000614c498284614c0c565b915081905092915050565b7f42696e20646f65736e2774206578697374000000000000000000000000000000600082015250565b6000614c8a601183613f02565b9150614c9582614c54565b602082019050919050565b60006020820190508181036000830152614cb981614c7d565b9050919050565b7f4e487b7100000000000000000000000000000000000000000000000000000000600052603260045260246000fd5b60008190508160005260206000209050919050565b60008154614d1181614a8c565b614d1b8186614c01565b94506001821660008114614d365760018114614d4b57614d7e565b60ff1983168652811515820286019350614d7e565b614d5485614cef565b60005b83811015614d7657815481890152600182019150602081019050614d57565b838801955050505b50505092915050565b6000614d938284614d04565b915081905092915050565b600081905092915050565b60008190508160005260206000209050919050565b60008154614dcb81614a8c565b614dd58186614d9e565b94506001821660008114614df05760018114614e0557614e38565b60ff1983168652811515820286019350614e38565b614e0e85614da9565b60005b83811015614e3057815481890152600182019150602081019050614e11565b838801955050505b50505092915050565b6000614e4d8284614dbe565b915081905092915050565b7f436f6c6c656374696f6e20616c72656164792065786973747320666f7220746860008201527f69732062696e20616e6420646174650000000000000000000000000000000000602082015250565b6000614eb4602f83613f02565b9150614ebf82614e58565b604082019050919050565b60006020820190508181036000830152614ee381614ea7565b9050919050565b7f4e487b7100000000000000000000000000000000000000000000000000000000600052601160045260246000fd5b6000614f248261401b565b91507fffffffffffffffffffffffffffffffffffffffffffffffffffffffffffffffff8203614f5657614f55614eea565b5b600182019050919050565b7f47656e657261746564204944436f6c6c656374696f6e20616c7265616479206560008201527f7869737473000000000000000000000000000000000000000000000000000000602082015250565b6000614fbd602583613f02565b9150614fc882614f61565b604082019050919050565b60006020820190508181036000830152614fec81614fb0565b9050919050565b60006020601f8301049050919050565b600082821b905092915050565b6000600883026150407fffffffffffffffffffffffffffffffffffffffffffffffffffffffffffffffff82615003565b61504a8683615003565b95508019841693508086168417925050509392505050565b6000819050919050565b600061508761508261507d8461401b565b615062565b61401b565b9050919050565b6000819050919050565b6150a18361506c565b6150b56150ad8261508e565b848454615010565b825550505050565b600090565b6150ca6150bd565b6150d5818484615098565b505050565b5b818110156150f9576150ee6000826150c2565b6001810190506150db565b5050565b601f82111561513e5761510f81614cef565b61511884614ff3565b81016020851015615127578190505b61513b61513385614ff3565b8301826150da565b50505b505050565b600082821c905092915050565b600061516160001984600802615143565b1980831691505092915050565b600061517a8383615150565b9150826002028217905092915050565b61519382613ef7565b67ffffffffffffffff8111156151ac576151ab6140d1565b5b6151b68254614a8c565b6151c18282856150fd565b600060209050601f8311600181146151f457600084156151e2578287015190505b6151ec858261516e565b865550615254565b601f19841661520286614cef565b60005b8281101561522a57848901518255600182019150602085019450602081019050615205565b868310156152475784890151615243601f891682615150565b8355505b6001600288020188555050505b505050505050565b7f436974697a656e20616c72656164792065786973747300000000000000000000600082015250565b6000615292601683613f02565b915061529d8261525c565b602082019050919050565b600060208201905081810360008301526152c181615285565b9050919050565b7f436f6c6c656374696f6e20646f65736e27742065786973740000000000000000600082015250565b60006152fe601883613f02565b9150615309826152c8565b602082019050919050565b6000602082019050818103600083015261532d816152f1565b9050919050565b7f5468697320636f6c6c656374696f6e20646f65736e277420636f6e6365726e2060008201527f7468697320736869707065720000000000000000000000000000000000000000602082015250565b6000615390602c83613f02565b915061539b82615334565b604082019050919050565b600060208201905081810360008301526153bf81615383565b9050919050565b60008190508160005260206000209050919050565b600081546153e881614a8c565b6153f28186614c01565b9450600182166000811461540d576001811461542257615455565b60ff1983168652811515820286019350615455565b61542b856153c6565b60005b8381101561544d5781548189015260018201915060208101905061542e565b838801955050505b50505092915050565b600061546a82846153db565b915081905092915050565b60006154808261401b565b915061548b8361401b565b92508282019050808211156154a3576154a2614eea565b5b92915050565b7f4d617820537570706c7920457863656564656400000000000000000000000000600082015250565b60006154df601383613f02565b91506154ea826154a9565b602082019050919050565b6000602082019050818103600083015261550e816154d2565b9050919050565b7f436974697a656e20646f65736e27742065786973740000000000000000000000600082015250565b600061554b601583613f02565b915061555682615515565b602082019050919050565b6000602082019050818103600083015261557a8161553e565b9050919050565b7f576173746520616c726561647920657869737473000000000000000000000000600082015250565b60006155b7601483613f02565b91506155c282615581565b602082019050919050565b600060208201905081810360008301526155e6816155aa565b9050919050565b60006155f88261401b565b91506156038361401b565b92508282026156118161401b565b9150828204841483151761562857615627614eea565b5b5092915050565b7f47656e65726174656420494420616c7265616479206578697374730000000000600082015250565b6000615665601b83613f02565b91506156708261562f565b602082019050919050565b6000602082019050818103600083015261569481615658565b9050919050565b60006156a68261401b565b91506156b18361401b565b92508282039050818111156156c9576156c8614eea565b5b92915050565b7f4e487b7100000000000000000000000000000000000000000000000000000000600052603160045260246000fd5b7f5368697070657220616c72656164792065786973747300000000000000000000600082015250565b6000615734601683613f02565b915061573f826156fe565b602082019050919050565b6000602082019050818103600083015261576381615727565b9050919050565b7f42696e20646f6573206e6f742065786973740000000000000000000000000000600082015250565b60006157a0601283613f02565b91506157ab8261576a565b602082019050919050565b600060208201905081810360008301526157cf81615793565b9050919050565b7f5368697070657220646f6573206e6f7420657869737400000000000000000000600082015250565b600061580c601683613f02565b9150615817826157d6565b602082019050919050565b6000602082019050818103600083015261583b816157ff565b9050919050565b7f536869707065722063616e206265206d6f646966696564000000000000000000600082015250565b6000615878601783613f02565b915061588382615842565b602082019050919050565b600060208201905081810360008301526158a78161586b565b9050919050565b6000815490506158bd81614a8c565b9050919050565b8181036158d25750506159aa565b6158db826158ae565b67ffffffffffffffff8111156158f4576158f36140d1565b5b6158fe8254614a8c565b6159098282856150fd565b6000601f8311600181146159385760008415615926578287015490505b615930858261516e565b8655506159a3565b601f198416615946876153c6565b965061595186614cef565b60005b8281101561597957848901548255600182019150600185019450602081019050615954565b868310156159965784890154615992601f891682615150565b8355505b6001600288020188555050505b5050505050505b565b60006159b78261401b565b9150600082036159ca576159c9614eea565b5b600182039050919050565b60006060820190506159ea600083018661448f565b6159f76020830185614245565b615a046040830184614245565b949350505050565b6000819050919050565b615a27615a228261401b565b615a0c565b82525050565b6000615a3882613fbd565b9050919050565b60008160601b9050919050565b6000615a5782615a3f565b9050919050565b6000615a6982615a4c565b9050919050565b615a81615a7c82615a2d565b615a5e565b82525050565b6000615a9282615a4c565b9050919050565b615aaa615aa582613fdd565b615a87565b82525050565b6000615abc8289615a16565b602082019150615acc8288615a16565b602082019150615adc8287615a70565b601482019150615aec8286615a99565b601482019150615afc8285615a16565b602082019150615b0c8284615a16565b602082019150819050979650505050505050565b7f4e487b7100000000000000000000000000000000000000000000000000000000600052601260045260246000fd5b6000615b5a8261401b565b9150615b658361401b565b925082615b7557615b74615b20565b5b828204905092915050565b6000615b8b8261401b565b9150615b968361401b565b925082615ba657615ba5615b20565b5b828206905092915050565b7f5761747365206578697374000000000000000000000000000000000000000000600082015250565b6000615be7600b83613f02565b9150615bf282615bb1565b602082019050919050565b60006020820190508181036000830152615c1681615bda565b905091905056fea2646970667358221220d63824dd0487fc947e2bf213fd94a558236e3088050826079a5f85df0b817efa64736f6c63430008140033",
  "immutableReferences": {},
  "source": "// SPDX-License-Identifier: MIT\r\npragma solidity >=0.8.0;\r\n\r\nimport \"@openzeppelin/contracts/token/ERC20/ERC20.sol\";\r\nimport \"@openzeppelin/contracts/access/Ownable.sol\";\r\n\r\ncontract WasteManagement is ERC20, Ownable {\r\n    struct Bin {\r\n        string id; // Changed type to string\r\n        string location;\r\n        uint256 capacity;\r\n        uint256 currentWeight;\r\n    }\r\n    struct Waste {\r\n        string id;\r\n        string status;\r\n        uint256 weight;\r\n        address citizenId;\r\n        address shipperId;\r\n        address recyclerId;\r\n        string binId; // Changed type to string\r\n        string dateCollection;\r\n    }\r\n    struct Collection {\r\n        string idCollection;\r\n        address shipperNotified;\r\n        string binNotif; // Changed type to string\r\n        bool done;\r\n        string date;\r\n        string status;\r\n    }\r\n    struct Notif {\r\n        address shipperNotified;\r\n        string binNotif; // Changed type to string\r\n        bool done;\r\n    }\r\n    event BinCreated(string id);\r\n    //event BinCreated(string id);\r\n    event CollectionCreated(string id);\r\n    event ModifShipper(string message);\r\n    event ModifCitizen(string message);\r\n    uint256 public wasteCount;\r\n    uint256 public binCount;\r\n    uint256 public collectionCount;\r\n    mapping(string => Bin) public bins; // Changed key type to string\r\n    mapping(string => Collection) public collections;\r\n    string[] binIds; // Changed type to string\r\n    string[] collectionIds;\r\n    string[] public wasteIds; // Changed type to string\r\n    mapping(string => Waste) public wastes; // Changed key type to string\r\n    address[] citizens;\r\n    address recycler = address(0x4494f3bb19F95BB33EC116887b9dbd728C008f9b);\r\n    address[] shippers;\r\n    mapping(string => bool) isBin;\r\n    mapping(string => bool) isCollection;\r\n    mapping(string => bool) isWaste;\r\n    mapping(address => bool) isCitizen;\r\n    mapping(address => bool) isShipper;\r\n    //mapping(address => mapping(string => Notif)) public notifications; // Changed key type to string\r\n    mapping(address => uint256) public citizenRewards;\r\n    uint256 shipCount=0;\r\n    mapping(address => mapping(string => Notif))  notifications;\r\n\r\n\r\n  uint public maxSupply;\r\n    constructor() ERC20(\"GreenEarn Transfer\", \"GRN\") Ownable(msg.sender) {\r\n        maxSupply = 1000000000000000000000; // 1000000000000000000000 GRN\r\n        mint(msg.sender, 1000000000000000000000); // Mint initial supply to contract deployer\r\n    }\r\n\r\n    function mint(address to, uint amount) public onlyOwner {\r\n        require(totalSupply() + amount <= maxSupply, \"Max Supply Exceeded\");\r\n        _mint(to, amount);\r\n    }\r\n\r\n\r\n                     //*************Bin************//\r\n    function createBin(string memory _location,  uint256 _capacity, uint256 _currentWeight) external onlyOwner returns (string memory) {\r\n        string memory _id = generateUniqueId();\r\n        require(!isBin[_id], \"Generated ID already exists\");\r\n        bins[_id] = Bin(_id, _location,  _capacity, _currentWeight);\r\n        binIds.push(_id);\r\n        binCount++;\r\n        isBin[_id] = true;\r\n        emit BinCreated(_id);\r\n        return _id;\r\n    }\r\n\r\n    function modifyBin(string memory _id, string memory _location,  uint256 _capacity, uint256 _currentWeight) external onlyOwner {\r\n        require(isBin[_id], \"Bin does not exist\");\r\n        bins[_id] = Bin(_id, _location,  _capacity, _currentWeight);\r\n    }\r\n\r\n    function deleteBin(string memory _id) external onlyOwner {\r\n        require(isBin[_id], \"Bin does not exist\");\r\n        \r\n        // Update mappings and arrays\r\n        isBin[_id] = false;\r\n        delete bins[_id];\r\n        \r\n        // Find and remove the bin ID from binIds array\r\n        for (uint256 i = 0; i < binIds.length; i++) {\r\n            if (keccak256(bytes(binIds[i])) == keccak256(bytes(_id))) {\r\n                for (uint256 j = i; j < binIds.length - 1; j++) {\r\n                    binIds[j] = binIds[j + 1];\r\n                }\r\n                binIds.pop();\r\n                isBin[_id]=false;\r\n                break;\r\n            }\r\n        }\r\n        \r\n        // Decrement binCount\r\n        binCount--;\r\n    }\r\n    \r\n    function getBins() public view returns (string[] memory, string[] memory, uint256[] memory, uint256[] memory) {\r\n        string[] memory ids = new string[](binCount);\r\n        string[] memory locations = new string[](binCount);\r\n       \r\n        uint256[] memory capacities = new uint256[](binCount);\r\n        uint256[] memory currentWeights = new uint256[](binCount);\r\n\r\n        for (uint256 i = 0; i < binCount; i++) {\r\n            Bin memory bin = bins[binIds[i]];\r\n            ids[i] = bin.id;\r\n            locations[i] = bin.location;\r\n            capacities[i] = bin.capacity;\r\n            currentWeights[i] = bin.currentWeight;\r\n        }\r\n\r\n        return (ids, locations, capacities, currentWeights);\r\n    }\r\n    // function generateUniqueId() internal view returns (string memory) {\r\n    //     bytes32 hash = keccak256(abi.encodePacked(block.timestamp, block.prevrandao, binCount));\r\n    //     uint256 value=(uint256(hash));\r\n    //     if (value == 0) {\r\n    //         return \"0\";\r\n    //     }\r\n    //     uint256 temp = value;\r\n    //     uint256 digits;\r\n    //     while (temp != 0) {\r\n    //         digits++;\r\n    //         temp /= 10;\r\n    //     }\r\n    //     bytes memory buffer = new bytes(digits);\r\n    //     while (value != 0) {\r\n    //         digits -= 1;\r\n    //         buffer[digits] = bytes1(uint8(48 + uint256(value % 10)));\r\n    //         value /= 10;\r\n    //     }\r\n    //     return string(buffer);\r\n    // }\r\n\r\n// Function to generate a unique ID\r\nfunction generateUniqueId() internal view returns (string memory) {\r\n    bytes32 hash = keccak256(abi.encodePacked(\r\n        block.timestamp,\r\n        block.prevrandao,\r\n        block.coinbase,\r\n        msg.sender,\r\n        binCount,\r\n        collectionCount // Assuming this is a counter for collections\r\n    ));\r\n\r\n    // Convert hash to string\r\n    uint256 value = uint256(hash);\r\n    if (value == 0) {\r\n        return \"0\";\r\n    }\r\n    \r\n    uint256 temp = value;\r\n    uint256 digits;\r\n    \r\n    while (temp != 0) {\r\n        digits++;\r\n        temp /= 10;\r\n    }\r\n    \r\n    bytes memory buffer = new bytes(digits);\r\n    \r\n    while (value != 0) {\r\n        digits -= 1;\r\n        buffer[digits] = bytes1(uint8(48 + uint256(value % 10)));\r\n        value /= 10;\r\n    }\r\n    \r\n    return string(buffer);\r\n}\r\n\r\n                   //*****************Shipper********************//\r\n    function createShipper(address _shipper) external onlyOwner {\r\n        require(!isShipper[_shipper], \"Shipper already exists\");\r\n\r\n        shippers.push(_shipper);\r\n        isShipper[_shipper] = true;\r\n    }\r\n\r\n    // function getShippers() public view returns (address[] memory) {\r\n    //     return shippers;\r\n    // }\r\n\r\n    // function notifyShipper(address _shipper, string memory _idBin, string memory _date) external onlyOwner {\r\n\r\n    //     require(isShipper[_shipper], \"Shipper doesn't exist\");\r\n    //     require(isBin[_idBin], \"Bin doesn't exist\");\r\n    //     notifications[_shipper][_idBin] = Notif(_shipper, _idBin, false);\r\n    // }\r\n\r\n    function createCollection(address _shipper, string memory _idBin, string memory _date) external onlyOwner returns (string memory) {\r\n        require(isShipper[_shipper], \"Shipper doesn't exist\");\r\n        require(isBin[_idBin], \"Bin doesn't exist\");\r\n\r\n        // Check if a collection with the same bin and date already exists\r\n        for (uint256 i = 0; i < collectionIds.length; i++) {\r\n            Collection storage collection = collections[collectionIds[i]];\r\n            if (keccak256(bytes(collection.binNotif)) == keccak256(bytes(_idBin)) && keccak256(bytes(collection.date)) == keccak256(bytes(_date))) {\r\n                revert(\"Collection already exists for this bin and date\");\r\n            }\r\n        }\r\n        // Generate a unique ID for the new collection\r\n        string memory _idCollection = generateUniqueId();\r\n        require(!isCollection[_idCollection], \"Generated IDCollection already exists\");\r\n\r\n        // Update dateCollection for waiting wastes with the same bin ID\r\n        for (uint256 j = 0; j < wasteIds.length; j++) {\r\n            Waste storage waste = wastes[wasteIds[j]];\r\n            if (keccak256(bytes(waste.binId)) == keccak256(bytes(_idBin)) && keccak256(bytes(waste.status)) == keccak256(bytes(\"Waiting\"))) {\r\n                waste.dateCollection = _date;\r\n                waste.shipperId=_shipper;\r\n            }\r\n        }\r\n        // Create the new collection\r\n        collections[_idCollection] = Collection(_idCollection, _shipper, _idBin, false, _date, \"Waiting\");\r\n        collectionIds.push(_idCollection);\r\n        collectionCount++;\r\n        isCollection[_idCollection] = true;\r\n         if (!notifications[_shipper][_date].done) {\r\n            // If not, create a new notification\r\n            notifications[_shipper][_date] = Notif(_shipper, _idBin, false);\r\n        }\r\n        emit CollectionCreated(_idCollection);\r\n\r\n        return _idCollection;\r\n    }\r\n\r\n\r\n    function shipCollection(string memory _idCollection, address _shipperId, string memory _date) external onlyOwner  {\r\n        require(isCollection[_idCollection], \"Collection doesn't exist\");\r\n        if (collections[_idCollection].shipperNotified != _shipperId) {\r\n            revert(\"This collection doesn't concern this shipper\");\r\n        }\r\n        string storage date= collections[_idCollection].date;\r\n        // Update collection status and shipper notification\r\n        // Update waste status and dateCollection for all wastes in the collection\r\n        for (uint256 i = 0; i < wasteIds.length; i++) {\r\n            Waste storage waste = wastes[wasteIds[i]];\r\n            if ((keccak256(bytes(waste.binId)) == keccak256(bytes(collections[_idCollection].binNotif)) )&&\r\n                (waste.shipperId == _shipperId) && (keccak256(bytes(waste.dateCollection)) == keccak256(bytes(collections[_idCollection].date)))) {\r\n                    waste.dateCollection = _date;\r\n                    waste.status = \"Shipped\"; \r\n                    shipCount++; // Increment shipCount for each waste that meets the conditions\r\n            }\r\n        }\r\n        collections[_idCollection].date = _date;\r\n        collections[_idCollection].status = \"Shipped\";\r\n        notifications[_shipperId][date].done=true;\r\n    }\r\n \r\n    // function deleteShipper(address _shipperAddress) external onlyOwner {\r\n    //     for (uint256 i = 0; i < shippers.length; i++) {\r\n    //         if (shippers[i] == _shipperAddress) {\r\n    //             shippers[i] = shippers[\r\n    //                 shippers.length - 1\r\n    //             ];\r\n    //             shippers.pop();\r\n    //             isShipper[_shipperAddress]=false;\r\n    //             break;\r\n    //         }\r\n    //     }\r\n    // }\r\n\r\n    function modifyShipper(address _shipperAddress) external onlyOwner {\r\n        require(isShipper[ _shipperAddress], \"Shipper does not exist\");\r\n        \r\n        // Emit a message after the require statement\r\n        emit ModifShipper(\"Shipper can be modified\");\r\n        \r\n        // Further logic here if needed\r\n    }\r\n    \r\n                         //*****************Recycler********************//\r\n    \r\n    function recycleCollection(string memory _idCollection,string memory _date) external  {\r\n        require(isCollection[_idCollection], \"Collection doesn't exist\");\r\n        \r\n        for (uint256 i = 0; i < wasteIds.length; i++) {\r\n            Waste storage waste = wastes[wasteIds[i]];\r\n            if (keccak256(bytes(waste.binId)) == keccak256(bytes(collections[_idCollection].binNotif)) &&\r\n                keccak256(bytes(waste.dateCollection)) == keccak256(bytes(collections[_idCollection].date))) {\r\n                if (keccak256(bytes(waste.status)) == keccak256(bytes(\"Shipped\"))) {\r\n                    waste.dateCollection=_date;\r\n                    waste.status = \"Recyled\";\r\n                    uint256 rewardAmount = waste.weight * 1000; // Example: 1000 tokens per unit weight\r\n                    // Transfer reward to citizen\r\n                    _transfer(msg.sender, waste.citizenId, rewardAmount);\r\n                }\r\n            }\r\n        }\r\n        collections[_idCollection].date=_date;\r\n        collections[_idCollection].status = \"Recyled\";\r\n    }                         \r\n                     \r\n                     \r\n                        //*****************Citizen********************//\r\n    function createCitizen(address _citizen) external onlyOwner {\r\n        require(!isCitizen[_citizen], \"Citizen already exists\");\r\n       // require(_citizen != owner, \"Cannot create citizen with owner's address\");\r\n\r\n        citizens.push(_citizen);\r\n        isCitizen[_citizen] = true;\r\n    }\r\n\r\n    function deleteCitizen(address _citizenAddress) external onlyOwner {\r\n        for (uint256 i = 0; i < citizens.length; i++) {\r\n            if (citizens[i] == _citizenAddress) {\r\n                citizens[i] = citizens[\r\n                    citizens.length - 1\r\n                ];\r\n                citizens.pop();\r\n                isCitizen[_citizenAddress]=false;\r\n                break;\r\n            }\r\n        }\r\n    }\r\n\r\n    function modifyCitizen(address _citizenAddress) external onlyOwner {\r\n        require(isCitizen[ _citizenAddress], \"Citizen does not exist\");\r\n        \r\n        // Emit a message after the require statement\r\n        emit ModifCitizen(\"Citizen can be modified\");\r\n        \r\n        // Further logic here if needed\r\n    }\r\n\r\n    function getIsBin(string memory _binId) internal view returns (bool) {\r\n        require(isBin[_binId], \"Bin doesn't exist\");\r\n        return isBin[_binId];\r\n    }\r\n\r\n    function getIsCitizen(address _citizenId) internal view returns (bool) {\r\n        require(isCitizen[_citizenId], \"Citizen doesn't exist\");\r\n        return isCitizen[_citizenId];\r\n    }\r\n\r\n    function CheckWaste(string memory _wasteId) internal view returns (bool) {\r\n        require(!isWaste[_wasteId], \"Watse exist\");\r\n        return !isWaste[_wasteId];\r\n    }\r\n\r\n    function setWaste(string memory _wasteId,uint256 _weight,address _citizenId,string memory _binId) internal {\r\n        wastes[_wasteId]=Waste(_wasteId, \"Waiting\", _weight, _citizenId, address(0), address(0), _binId, \"\");\r\n        wasteIds.push(_wasteId);\r\n        isWaste[_wasteId]=true;\r\n        wasteCount++;\r\n       // emit WasteCreated(_wasteId);\r\n\r\n       \r\n    }\r\n\r\n\r\n    /*TEEEEEEEEEEEEEEEEEEEEEEEEEEEEEEESTS */\r\n    // function getCountWaste() view external onlyOwner() returns (uint256){\r\n    //     return wasteCount;\r\n    // }\r\n\r\n    // function getWastes()view external onlyOwner returns (Waste[]memory){\r\n    //     Waste[] memory trash = new Waste[](wasteIds.length);\r\n    //      for (uint256 i = 0; i < wasteIds.length; i++) {\r\n    //         Waste storage waste = wastes[wasteIds[i]];\r\n    //         trash[i]=waste;\r\n    //      }\r\n    //     return trash;\r\n    // }\r\n\r\n    // function getWastesIDs()view external onlyOwner returns (string[] memory){\r\n       \r\n    //     return wasteIds;\r\n    // }\r\n\r\n    // function getWastesStatus()view external onlyOwner returns (string[] memory,string[] memory){\r\n    //     string[] memory Status = new string[](wasteIds.length);\r\n    //     for (uint256 i = 0; i < wasteIds.length; i++) {\r\n    //         Waste storage waste = wastes[wasteIds[i]];\r\n    //         Status[i] = waste.status;\r\n    //     }\r\n    //     return(wasteIds,Status);\r\n    // }\r\n\r\n    // function getCollectionsIds()view external onlyOwner returns(string[] memory) {\r\n    //      return collectionIds;\r\n    // } \r\n\r\n    // function getCollectionsStatus()view external onlyOwner returns(string[] memory) {\r\n    //       string[] memory Status = new string[](collectionIds.length);\r\n    //     for (uint256 i = 0; i < collectionIds.length; i++) {\r\n    //         Collection storage coll = collections[collectionIds[i]];\r\n    //         Status[i] = coll.status;\r\n    //     }\r\n    //     return(Status);\r\n    // } \r\n\r\n    // // function getShipCount() view external onlyOwner() returns(uint256){\r\n    // //     return shipCount;\r\n    // // }\r\n    // // function getCitizens() public view returns (address[] memory) {\r\n    // //     return citizens;\r\n    // // }\r\n    // function getNotifByShipper(address _shipper) public view returns (Notif[] memory) {\r\n    //     Notif[] memory shipperNotifications = new Notif[](binCount);\r\n\r\n    //     for (uint256 i = 0; i < binCount; i++) {\r\n    //         string memory binId = binIds[i];\r\n    //         if (isBin[binId]) {\r\n    //             shipperNotifications[i] = notifications[_shipper][binId];\r\n    //         }\r\n    //     }\r\n\r\n    //     return shipperNotifications;\r\n    // }\r\n\r\n    function createWaste(uint256 _weight, address _citizenId, string memory _binId) external {\r\n        string memory _id =generateUniqueId();\r\n        require(getIsBin(_binId), \"Bin doesn't exist\");\r\n        require(getIsCitizen(_citizenId), \"Citizen doesn't exist\");\r\n        require(CheckWaste(_id), \"Waste already exists\");\r\n        setWaste(_id,  _weight, _citizenId, _binId);\r\n        // emit WasteCreated(_id);\r\n    }\r\n}",
  "sourcePath": "C:\\Users\\MSI\\Desktop\\PFA_GUI - Copie\\truffle\\contracts\\WasteManagement.sol",
  "compiler": {
    "name": "solc",
    "version": "0.8.20+commit.a1b79de6.Emscripten.clang"
  },
  "schemaVersion": "3.4.16",
  "updatedAt": "2024-03-29T01:26:34.400Z",
  "networkType": "ethereum",
  "devdoc": {
    "errors": {
      "ERC20InsufficientAllowance(address,uint256,uint256)": [
        {
          "details": "Indicates a failure with the `spender`s `allowance`. Used in transfers.",
          "params": {
            "allowance": "Amount of tokens a `spender` is allowed to operate with.",
            "needed": "Minimum amount required to perform a transfer.",
            "spender": "Address that may be allowed to operate on tokens without being their owner."
          }
        }
      ],
      "ERC20InsufficientBalance(address,uint256,uint256)": [
        {
          "details": "Indicates an error related to the current `balance` of a `sender`. Used in transfers.",
          "params": {
            "balance": "Current balance for the interacting account.",
            "needed": "Minimum amount required to perform a transfer.",
            "sender": "Address whose tokens are being transferred."
          }
        }
      ],
      "ERC20InvalidApprover(address)": [
        {
          "details": "Indicates a failure with the `approver` of a token to be approved. Used in approvals.",
          "params": {
            "approver": "Address initiating an approval operation."
          }
        }
      ],
      "ERC20InvalidReceiver(address)": [
        {
          "details": "Indicates a failure with the token `receiver`. Used in transfers.",
          "params": {
            "receiver": "Address to which tokens are being transferred."
          }
        }
      ],
      "ERC20InvalidSender(address)": [
        {
          "details": "Indicates a failure with the token `sender`. Used in transfers.",
          "params": {
            "sender": "Address whose tokens are being transferred."
          }
        }
      ],
      "ERC20InvalidSpender(address)": [
        {
          "details": "Indicates a failure with the `spender` to be approved. Used in approvals.",
          "params": {
            "spender": "Address that may be allowed to operate on tokens without being their owner."
          }
        }
      ],
      "OwnableInvalidOwner(address)": [
        {
          "details": "The owner is not a valid owner account. (eg. `address(0)`)"
        }
      ],
      "OwnableUnauthorizedAccount(address)": [
        {
          "details": "The caller account is not authorized to perform an operation."
        }
      ]
    },
    "events": {
      "Approval(address,address,uint256)": {
        "details": "Emitted when the allowance of a `spender` for an `owner` is set by a call to {approve}. `value` is the new allowance."
      },
      "Transfer(address,address,uint256)": {
        "details": "Emitted when `value` tokens are moved from one account (`from`) to another (`to`). Note that `value` may be zero."
      }
    },
    "kind": "dev",
    "methods": {
      "allowance(address,address)": {
        "details": "See {IERC20-allowance}."
      },
      "approve(address,uint256)": {
        "details": "See {IERC20-approve}. NOTE: If `value` is the maximum `uint256`, the allowance is not updated on `transferFrom`. This is semantically equivalent to an infinite approval. Requirements: - `spender` cannot be the zero address."
      },
      "balanceOf(address)": {
        "details": "See {IERC20-balanceOf}."
      },
      "decimals()": {
        "details": "Returns the number of decimals used to get its user representation. For example, if `decimals` equals `2`, a balance of `505` tokens should be displayed to a user as `5.05` (`505 / 10 ** 2`). Tokens usually opt for a value of 18, imitating the relationship between Ether and Wei. This is the default value returned by this function, unless it's overridden. NOTE: This information is only used for _display_ purposes: it in no way affects any of the arithmetic of the contract, including {IERC20-balanceOf} and {IERC20-transfer}."
      },
      "name()": {
        "details": "Returns the name of the token."
      },
      "owner()": {
        "details": "Returns the address of the current owner."
      },
      "renounceOwnership()": {
        "details": "Leaves the contract without owner. It will not be possible to call `onlyOwner` functions. Can only be called by the current owner. NOTE: Renouncing ownership will leave the contract without an owner, thereby disabling any functionality that is only available to the owner."
      },
      "symbol()": {
        "details": "Returns the symbol of the token, usually a shorter version of the name."
      },
      "totalSupply()": {
        "details": "See {IERC20-totalSupply}."
      },
      "transfer(address,uint256)": {
        "details": "See {IERC20-transfer}. Requirements: - `to` cannot be the zero address. - the caller must have a balance of at least `value`."
      },
      "transferFrom(address,address,uint256)": {
        "details": "See {IERC20-transferFrom}. Emits an {Approval} event indicating the updated allowance. This is not required by the EIP. See the note at the beginning of {ERC20}. NOTE: Does not update the allowance if the current allowance is the maximum `uint256`. Requirements: - `from` and `to` cannot be the zero address. - `from` must have a balance of at least `value`. - the caller must have allowance for ``from``'s tokens of at least `value`."
      },
      "transferOwnership(address)": {
        "details": "Transfers ownership of the contract to a new account (`newOwner`). Can only be called by the current owner."
      }
    },
    "version": 1
  },
  "userdoc": {
    "kind": "user",
    "methods": {},
    "version": 1
  }
}