{
  "contractName": "CitizenContract",
  "abi": [
    {
      "inputs": [
        {
          "internalType": "address",
          "name": "_wasteManagementAddress",
          "type": "address"
        }
      ],
      "stateMutability": "nonpayable",
      "type": "constructor"
    },
    {
      "inputs": [
        {
          "internalType": "string",
          "name": "_id",
          "type": "string"
        },
        {
          "internalType": "uint256",
          "name": "_weight",
          "type": "uint256"
        },
        {
          "internalType": "address",
          "name": "_citizenId",
          "type": "address"
        },
        {
          "internalType": "string",
          "name": "_binId",
          "type": "string"
        }
      ],
      "name": "createWaste",
      "outputs": [],
      "stateMutability": "nonpayable",
      "type": "function"
    }
  ],
  "bytecode": "0x608060405234801561001057600080fd5b50604051610dad380380610dad833981810160405281019061003291906100db565b806000806101000a81548173ffffffffffffffffffffffffffffffffffffffff021916908373ffffffffffffffffffffffffffffffffffffffff16021790555050610108565b600080fd5b600073ffffffffffffffffffffffffffffffffffffffff82169050919050565b60006100a88261007d565b9050919050565b6100b88161009d565b81146100c357600080fd5b50565b6000815190506100d5816100af565b92915050565b6000602082840312156100f1576100f0610078565b5b60006100ff848285016100c6565b91505092915050565b610c96806101176000396000f3fe608060405234801561001057600080fd5b506004361061002b5760003560e01c806304401e0814610030575b600080fd5b61004a60048036038101906100459190610735565b61004c565b005b60008054906101000a900473ffffffffffffffffffffffffffffffffffffffff1673ffffffffffffffffffffffffffffffffffffffff16633edb6272826040518263ffffffff1660e01b81526004016100a59190610853565b602060405180830381865afa1580156100c2573d6000803e3d6000fd5b505050506040513d601f19601f820116820180604052508101906100e691906108ad565b610125576040517f08c379a000000000000000000000000000000000000000000000000000000000815260040161011c90610926565b60405180910390fd5b60008054906101000a900473ffffffffffffffffffffffffffffffffffffffff1673ffffffffffffffffffffffffffffffffffffffff1663c773e649836040518263ffffffff1660e01b815260040161017e9190610955565b602060405180830381865afa15801561019b573d6000803e3d6000fd5b505050506040513d601f19601f820116820180604052508101906101bf91906108ad565b6101fe576040517f08c379a00000000000000000000000000000000000000000000000000000000081526004016101f5906109bc565b60405180910390fd5b60008054906101000a900473ffffffffffffffffffffffffffffffffffffffff1673ffffffffffffffffffffffffffffffffffffffff1663e1c7b8d5856040518263ffffffff1660e01b81526004016102579190610853565b602060405180830381865afa158015610274573d6000803e3d6000fd5b505050506040513d601f19601f8201168201806040525081019061029891906108ad565b6102d7576040517f08c379a00000000000000000000000000000000000000000000000000000000081526004016102ce90610a28565b60405180910390fd5b60008060009054906101000a900473ffffffffffffffffffffffffffffffffffffffff1673ffffffffffffffffffffffffffffffffffffffff166355ef71486040518163ffffffff1660e01b8152600401602060405180830381865afa158015610345573d6000803e3d6000fd5b505050506040513d601f19601f820116820180604052508101906103699190610a5d565b905060008054906101000a900473ffffffffffffffffffffffffffffffffffffffff1673ffffffffffffffffffffffffffffffffffffffff1663224e20116001836103b49190610ab9565b6040518263ffffffff1660e01b81526004016103d09190610afc565b600060405180830381600087803b1580156103ea57600080fd5b505af11580156103fe573d6000803e3d6000fd5b5050505060006040518060e001604052808781526020016040518060400160405280600681526020017f496e2042696e000000000000000000000000000000000000000000000000000081525081526020018681526020018573ffffffffffffffffffffffffffffffffffffffff168152602001600073ffffffffffffffffffffffffffffffffffffffff168152602001600073ffffffffffffffffffffffffffffffffffffffff16815260200184815250905060008054906101000a900473ffffffffffffffffffffffffffffffffffffffff1673ffffffffffffffffffffffffffffffffffffffff1663cc70ebe787836040518363ffffffff1660e01b815260040161050d929190610c29565b600060405180830381600087803b15801561052757600080fd5b505af115801561053b573d6000803e3d6000fd5b50505050505050505050565b6000604051905090565b600080fd5b600080fd5b600080fd5b600080fd5b6000601f19601f8301169050919050565b7f4e487b7100000000000000000000000000000000000000000000000000000000600052604160045260246000fd5b6105ae82610565565b810181811067ffffffffffffffff821117156105cd576105cc610576565b5b80604052505050565b60006105e0610547565b90506105ec82826105a5565b919050565b600067ffffffffffffffff82111561060c5761060b610576565b5b61061582610565565b9050602081019050919050565b82818337600083830152505050565b600061064461063f846105f1565b6105d6565b9050828152602081018484840111156106605761065f610560565b5b61066b848285610622565b509392505050565b600082601f8301126106885761068761055b565b5b8135610698848260208601610631565b91505092915050565b6000819050919050565b6106b4816106a1565b81146106bf57600080fd5b50565b6000813590506106d1816106ab565b92915050565b600073ffffffffffffffffffffffffffffffffffffffff82169050919050565b6000610702826106d7565b9050919050565b610712816106f7565b811461071d57600080fd5b50565b60008135905061072f81610709565b92915050565b6000806000806080858703121561074f5761074e610551565b5b600085013567ffffffffffffffff81111561076d5761076c610556565b5b61077987828801610673565b945050602061078a878288016106c2565b935050604061079b87828801610720565b925050606085013567ffffffffffffffff8111156107bc576107bb610556565b5b6107c887828801610673565b91505092959194509250565b600081519050919050565b600082825260208201905092915050565b60005b8381101561080e5780820151818401526020810190506107f3565b60008484015250505050565b6000610825826107d4565b61082f81856107df565b935061083f8185602086016107f0565b61084881610565565b840191505092915050565b6000602082019050818103600083015261086d818461081a565b905092915050565b60008115159050919050565b61088a81610875565b811461089557600080fd5b50565b6000815190506108a781610881565b92915050565b6000602082840312156108c3576108c2610551565b5b60006108d184828501610898565b91505092915050565b7f42696e20646f65736e2774206578697374000000000000000000000000000000600082015250565b60006109106011836107df565b915061091b826108da565b602082019050919050565b6000602082019050818103600083015261093f81610903565b9050919050565b61094f816106f7565b82525050565b600060208201905061096a6000830184610946565b92915050565b7f436974697a656e20646f65736e27742065786973740000000000000000000000600082015250565b60006109a66015836107df565b91506109b182610970565b602082019050919050565b600060208201905081810360008301526109d581610999565b9050919050565b7f576173746520616c726561647920657869737473000000000000000000000000600082015250565b6000610a126014836107df565b9150610a1d826109dc565b602082019050919050565b60006020820190508181036000830152610a4181610a05565b9050919050565b600081519050610a57816106ab565b92915050565b600060208284031215610a7357610a72610551565b5b6000610a8184828501610a48565b91505092915050565b7f4e487b7100000000000000000000000000000000000000000000000000000000600052601160045260246000fd5b6000610ac4826106a1565b9150610acf836106a1565b9250828201905080821115610ae757610ae6610a8a565b5b92915050565b610af6816106a1565b82525050565b6000602082019050610b116000830184610aed565b92915050565b600082825260208201905092915050565b6000610b33826107d4565b610b3d8185610b17565b9350610b4d8185602086016107f0565b610b5681610565565b840191505092915050565b610b6a816106a1565b82525050565b610b79816106f7565b82525050565b600060e0830160008301518482036000860152610b9c8282610b28565b91505060208301518482036020860152610bb68282610b28565b9150506040830151610bcb6040860182610b61565b506060830151610bde6060860182610b70565b506080830151610bf16080860182610b70565b5060a0830151610c0460a0860182610b70565b5060c083015184820360c0860152610c1c8282610b28565b9150508091505092915050565b60006040820190508181036000830152610c43818561081a565b90508181036020830152610c578184610b7f565b9050939250505056fea264697066735822122041320ee916b06eb4356eb560a58cb762535986650f15c3ca43add872ca0f4a4e64736f6c63430008130033",
  "immutableReferences": {},
  "source": "// SPDX-License-Identifier: MIT\r\npragma solidity ^0.8.19;\r\nimport \"./WasteManagement.sol\";\r\n\r\ncontract CitizenContract {\r\n    WasteManagement WasteManage;\r\n\r\n    constructor(address _wasteManagementAddress) {\r\n        WasteManage = WasteManagement(_wasteManagementAddress);\r\n    }\r\n\r\n    function createWaste(string memory _id, uint256 _weight, address _citizenId, string memory _binId) external {\r\n        require(WasteManage.getIsBin(_binId), \"Bin doesn't exist\");\r\n        require(WasteManage.getIsCitizen(_citizenId), \"Citizen doesn't exist\");\r\n        require(WasteManage.CheckWaste(_id), \"Waste already exists\");\r\n\r\n        uint256 wasteCount = WasteManage.getWasteCount();\r\n        WasteManage.setWasteCount(wasteCount + 1);\r\n\r\n        WasteManagement.Waste memory newWaste = WasteManagement.Waste(_id, \"In Bin\", _weight, _citizenId, address(0), address(0), _binId);\r\n        WasteManage.setWastes(_id, newWaste);\r\n    }\r\n}\r\n",
  "sourcePath": "C:\\Users\\MSI\\Desktop\\PFA_GUI - Copie\\truffle\\contracts\\CitizenContract.sol",
  "compiler": {
    "name": "solc",
    "version": "0.8.19+commit.7dd6d404.Emscripten.clang"
  },
  "schemaVersion": "3.4.16",
  "updatedAt": "2024-03-01T15:21:21.813Z",
  "networkType": "ethereum",
  "devdoc": {
    "kind": "dev",
    "methods": {},
    "version": 1
  },
  "userdoc": {
    "kind": "user",
    "methods": {},
    "version": 1
  }
}