{
  "contractName": "CitizenContract",
  "abi": [
    {
      "inputs": [
        {
          "internalType": "address",
          "name": "_wasteManagementAddress",
          "type": "address"
        }
      ],
      "stateMutability": "nonpayable",
      "type": "constructor"
    },
    {
      "anonymous": false,
      "inputs": [
        {
          "indexed": false,
          "internalType": "string",
          "name": "wasteId",
          "type": "string"
        }
      ],
      "name": "WasteCreated",
      "type": "event"
    },
    {
      "inputs": [
        {
          "internalType": "string",
          "name": "_id",
          "type": "string"
        },
        {
          "internalType": "uint256",
          "name": "_weight",
          "type": "uint256"
        },
        {
          "internalType": "address",
          "name": "_citizenId",
          "type": "address"
        },
        {
          "internalType": "string",
          "name": "_binId",
          "type": "string"
        }
      ],
      "name": "createWaste",
      "outputs": [],
      "stateMutability": "nonpayable",
      "type": "function"
    }
  ],
  "bytecode": "0x608060405234801561001057600080fd5b50604051610a55380380610a55833981810160405281019061003291906100db565b806000806101000a81548173ffffffffffffffffffffffffffffffffffffffff021916908373ffffffffffffffffffffffffffffffffffffffff16021790555050610108565b600080fd5b600073ffffffffffffffffffffffffffffffffffffffff82169050919050565b60006100a88261007d565b9050919050565b6100b88161009d565b81146100c357600080fd5b50565b6000815190506100d5816100af565b92915050565b6000602082840312156100f1576100f0610078565b5b60006100ff848285016100c6565b91505092915050565b61093e806101176000396000f3fe608060405234801561001057600080fd5b506004361061002b5760003560e01c806304401e0814610030575b600080fd5b61004a60048036038101906100459190610593565b61004c565b005b60008054906101000a900473ffffffffffffffffffffffffffffffffffffffff1673ffffffffffffffffffffffffffffffffffffffff16633edb6272826040518263ffffffff1660e01b81526004016100a591906106b1565b602060405180830381865afa1580156100c2573d6000803e3d6000fd5b505050506040513d601f19601f820116820180604052508101906100e6919061070b565b610125576040517f08c379a000000000000000000000000000000000000000000000000000000000815260040161011c90610784565b60405180910390fd5b60008054906101000a900473ffffffffffffffffffffffffffffffffffffffff1673ffffffffffffffffffffffffffffffffffffffff1663c773e649836040518263ffffffff1660e01b815260040161017e91906107b3565b602060405180830381865afa15801561019b573d6000803e3d6000fd5b505050506040513d601f19601f820116820180604052508101906101bf919061070b565b6101fe576040517f08c379a00000000000000000000000000000000000000000000000000000000081526004016101f59061081a565b60405180910390fd5b60008054906101000a900473ffffffffffffffffffffffffffffffffffffffff1673ffffffffffffffffffffffffffffffffffffffff1663e1c7b8d5856040518263ffffffff1660e01b815260040161025791906106b1565b602060405180830381865afa158015610274573d6000803e3d6000fd5b505050506040513d601f19601f82011682018060405250810190610298919061070b565b6102d7576040517f08c379a00000000000000000000000000000000000000000000000000000000081526004016102ce90610886565b60405180910390fd5b60008054906101000a900473ffffffffffffffffffffffffffffffffffffffff1673ffffffffffffffffffffffffffffffffffffffff1663a08c1079858585856040518563ffffffff1660e01b815260040161033694939291906108b5565b600060405180830381600087803b15801561035057600080fd5b505af1158015610364573d6000803e3d6000fd5b505050507fb62e88846a771c38e76c9848749dabcfdbd24908fba21b57deea11535d34f0628460405161039791906106b1565b60405180910390a150505050565b6000604051905090565b600080fd5b600080fd5b600080fd5b600080fd5b6000601f19601f8301169050919050565b7f4e487b7100000000000000000000000000000000000000000000000000000000600052604160045260246000fd5b61040c826103c3565b810181811067ffffffffffffffff8211171561042b5761042a6103d4565b5b80604052505050565b600061043e6103a5565b905061044a8282610403565b919050565b600067ffffffffffffffff82111561046a576104696103d4565b5b610473826103c3565b9050602081019050919050565b82818337600083830152505050565b60006104a261049d8461044f565b610434565b9050828152602081018484840111156104be576104bd6103be565b5b6104c9848285610480565b509392505050565b600082601f8301126104e6576104e56103b9565b5b81356104f684826020860161048f565b91505092915050565b6000819050919050565b610512816104ff565b811461051d57600080fd5b50565b60008135905061052f81610509565b92915050565b600073ffffffffffffffffffffffffffffffffffffffff82169050919050565b600061056082610535565b9050919050565b61057081610555565b811461057b57600080fd5b50565b60008135905061058d81610567565b92915050565b600080600080608085870312156105ad576105ac6103af565b5b600085013567ffffffffffffffff8111156105cb576105ca6103b4565b5b6105d7878288016104d1565b94505060206105e887828801610520565b93505060406105f98782880161057e565b925050606085013567ffffffffffffffff81111561061a576106196103b4565b5b610626878288016104d1565b91505092959194509250565b600081519050919050565b600082825260208201905092915050565b60005b8381101561066c578082015181840152602081019050610651565b60008484015250505050565b600061068382610632565b61068d818561063d565b935061069d81856020860161064e565b6106a6816103c3565b840191505092915050565b600060208201905081810360008301526106cb8184610678565b905092915050565b60008115159050919050565b6106e8816106d3565b81146106f357600080fd5b50565b600081519050610705816106df565b92915050565b600060208284031215610721576107206103af565b5b600061072f848285016106f6565b91505092915050565b7f42696e20646f65736e2774206578697374000000000000000000000000000000600082015250565b600061076e60118361063d565b915061077982610738565b602082019050919050565b6000602082019050818103600083015261079d81610761565b9050919050565b6107ad81610555565b82525050565b60006020820190506107c860008301846107a4565b92915050565b7f436974697a656e20646f65736e27742065786973740000000000000000000000600082015250565b600061080460158361063d565b915061080f826107ce565b602082019050919050565b60006020820190508181036000830152610833816107f7565b9050919050565b7f576173746520616c726561647920657869737473000000000000000000000000600082015250565b600061087060148361063d565b915061087b8261083a565b602082019050919050565b6000602082019050818103600083015261089f81610863565b9050919050565b6108af816104ff565b82525050565b600060808201905081810360008301526108cf8187610678565b90506108de60208301866108a6565b6108eb60408301856107a4565b81810360608301526108fd8184610678565b90509594505050505056fea26469706673582212207043353757c535cf7fc31d9bf4a97d976d0a689628fbad608195a19a57714ad064736f6c63430008130033",
  "immutableReferences": {},
  "source": "// SPDX-License-Identifier: MIT\r\npragma solidity ^0.8.19;\r\nimport \"./WasteManagement.sol\";\r\n\r\ncontract CitizenContract {\r\n    WasteManagement WasteManage;\r\n\r\n    constructor(address _wasteManagementAddress) {\r\n        WasteManage = WasteManagement(_wasteManagementAddress);\r\n    }\r\n    event   WasteCreated(string wasteId);\r\n  function createWaste(string memory _id, uint256 _weight, address _citizenId, string memory _binId) external {\r\n    require(WasteManage.getIsBin(_binId), \"Bin doesn't exist\");\r\n    require(WasteManage.getIsCitizen(_citizenId), \"Citizen doesn't exist\");\r\n    require(WasteManage.CheckWaste(_id), \"Waste already exists\");\r\n    WasteManage.setWaste(_id,  _weight, _citizenId, _binId);\r\n    emit WasteCreated(_id);\r\n}    \r\n}\r\n",
  "sourcePath": "C:\\Users\\Asma\\Desktop\\FinalGreenEarn\\testPFAAuthManager\\truffle\\contracts\\CitizenContract.sol",
  "compiler": {
    "name": "solc",
    "version": "0.8.19+commit.7dd6d404.Emscripten.clang"
  },
  "schemaVersion": "3.4.16",
  "updatedAt": "2024-03-01T19:47:09.126Z",
  "networkType": "ethereum",
  "devdoc": {
    "kind": "dev",
    "methods": {},
    "version": 1
  },
  "userdoc": {
    "kind": "user",
    "methods": {},
    "version": 1
  }
}