{
  "contractName": "WasteManagement",
  "abi": [
    {
      "inputs": [],
      "stateMutability": "nonpayable",
      "type": "constructor"
    },
    {
      "inputs": [
        {
          "internalType": "address",
          "name": "spender",
          "type": "address"
        },
        {
          "internalType": "uint256",
          "name": "allowance",
          "type": "uint256"
        },
        {
          "internalType": "uint256",
          "name": "needed",
          "type": "uint256"
        }
      ],
      "name": "ERC20InsufficientAllowance",
      "type": "error"
    },
    {
      "inputs": [
        {
          "internalType": "address",
          "name": "sender",
          "type": "address"
        },
        {
          "internalType": "uint256",
          "name": "balance",
          "type": "uint256"
        },
        {
          "internalType": "uint256",
          "name": "needed",
          "type": "uint256"
        }
      ],
      "name": "ERC20InsufficientBalance",
      "type": "error"
    },
    {
      "inputs": [
        {
          "internalType": "address",
          "name": "approver",
          "type": "address"
        }
      ],
      "name": "ERC20InvalidApprover",
      "type": "error"
    },
    {
      "inputs": [
        {
          "internalType": "address",
          "name": "receiver",
          "type": "address"
        }
      ],
      "name": "ERC20InvalidReceiver",
      "type": "error"
    },
    {
      "inputs": [
        {
          "internalType": "address",
          "name": "sender",
          "type": "address"
        }
      ],
      "name": "ERC20InvalidSender",
      "type": "error"
    },
    {
      "inputs": [
        {
          "internalType": "address",
          "name": "spender",
          "type": "address"
        }
      ],
      "name": "ERC20InvalidSpender",
      "type": "error"
    },
    {
      "inputs": [
        {
          "internalType": "address",
          "name": "owner",
          "type": "address"
        }
      ],
      "name": "OwnableInvalidOwner",
      "type": "error"
    },
    {
      "inputs": [
        {
          "internalType": "address",
          "name": "account",
          "type": "address"
        }
      ],
      "name": "OwnableUnauthorizedAccount",
      "type": "error"
    },
    {
      "anonymous": false,
      "inputs": [
        {
          "indexed": true,
          "internalType": "address",
          "name": "owner",
          "type": "address"
        },
        {
          "indexed": true,
          "internalType": "address",
          "name": "spender",
          "type": "address"
        },
        {
          "indexed": false,
          "internalType": "uint256",
          "name": "value",
          "type": "uint256"
        }
      ],
      "name": "Approval",
      "type": "event"
    },
    {
      "anonymous": false,
      "inputs": [
        {
          "indexed": false,
          "internalType": "string",
          "name": "id",
          "type": "string"
        }
      ],
      "name": "BinCreated",
      "type": "event"
    },
    {
      "anonymous": false,
      "inputs": [
        {
          "indexed": false,
          "internalType": "string",
          "name": "id",
          "type": "string"
        }
      ],
      "name": "CollectionCreated",
      "type": "event"
    },
    {
      "anonymous": false,
      "inputs": [
        {
          "indexed": false,
          "internalType": "string",
          "name": "message",
          "type": "string"
        }
      ],
      "name": "ModifCitizen",
      "type": "event"
    },
    {
      "anonymous": false,
      "inputs": [
        {
          "indexed": false,
          "internalType": "string",
          "name": "message",
          "type": "string"
        }
      ],
      "name": "ModifShipper",
      "type": "event"
    },
    {
      "anonymous": false,
      "inputs": [
        {
          "indexed": true,
          "internalType": "address",
          "name": "previousOwner",
          "type": "address"
        },
        {
          "indexed": true,
          "internalType": "address",
          "name": "newOwner",
          "type": "address"
        }
      ],
      "name": "OwnershipTransferred",
      "type": "event"
    },
    {
      "anonymous": false,
      "inputs": [
        {
          "indexed": true,
          "internalType": "address",
          "name": "from",
          "type": "address"
        },
        {
          "indexed": true,
          "internalType": "address",
          "name": "to",
          "type": "address"
        },
        {
          "indexed": false,
          "internalType": "uint256",
          "name": "value",
          "type": "uint256"
        }
      ],
      "name": "Transfer",
      "type": "event"
    },
    {
      "inputs": [
        {
          "internalType": "address",
          "name": "owner",
          "type": "address"
        },
        {
          "internalType": "address",
          "name": "spender",
          "type": "address"
        }
      ],
      "name": "allowance",
      "outputs": [
        {
          "internalType": "uint256",
          "name": "",
          "type": "uint256"
        }
      ],
      "stateMutability": "view",
      "type": "function",
      "constant": true
    },
    {
      "inputs": [
        {
          "internalType": "address",
          "name": "spender",
          "type": "address"
        },
        {
          "internalType": "uint256",
          "name": "value",
          "type": "uint256"
        }
      ],
      "name": "approve",
      "outputs": [
        {
          "internalType": "bool",
          "name": "",
          "type": "bool"
        }
      ],
      "stateMutability": "nonpayable",
      "type": "function"
    },
    {
      "inputs": [
        {
          "internalType": "address",
          "name": "account",
          "type": "address"
        }
      ],
      "name": "balanceOf",
      "outputs": [
        {
          "internalType": "uint256",
          "name": "",
          "type": "uint256"
        }
      ],
      "stateMutability": "view",
      "type": "function",
      "constant": true
    },
    {
      "inputs": [],
      "name": "binCount",
      "outputs": [
        {
          "internalType": "uint256",
          "name": "",
          "type": "uint256"
        }
      ],
      "stateMutability": "view",
      "type": "function",
      "constant": true
    },
    {
      "inputs": [
        {
          "internalType": "string",
          "name": "",
          "type": "string"
        }
      ],
      "name": "bins",
      "outputs": [
        {
          "internalType": "string",
          "name": "id",
          "type": "string"
        },
        {
          "internalType": "string",
          "name": "location",
          "type": "string"
        },
        {
          "internalType": "uint256",
          "name": "capacity",
          "type": "uint256"
        },
        {
          "internalType": "uint256",
          "name": "currentWeight",
          "type": "uint256"
        }
      ],
      "stateMutability": "view",
      "type": "function",
      "constant": true
    },
    {
      "inputs": [
        {
          "internalType": "address",
          "name": "",
          "type": "address"
        }
      ],
      "name": "citizenRewards",
      "outputs": [
        {
          "internalType": "uint256",
          "name": "",
          "type": "uint256"
        }
      ],
      "stateMutability": "view",
      "type": "function",
      "constant": true
    },
    {
      "inputs": [],
      "name": "collectionCount",
      "outputs": [
        {
          "internalType": "uint256",
          "name": "",
          "type": "uint256"
        }
      ],
      "stateMutability": "view",
      "type": "function",
      "constant": true
    },
    {
      "inputs": [
        {
          "internalType": "string",
          "name": "",
          "type": "string"
        }
      ],
      "name": "collections",
      "outputs": [
        {
          "internalType": "string",
          "name": "idCollection",
          "type": "string"
        },
        {
          "internalType": "address",
          "name": "shipperNotified",
          "type": "address"
        },
        {
          "internalType": "string",
          "name": "binNotif",
          "type": "string"
        },
        {
          "internalType": "bool",
          "name": "done",
          "type": "bool"
        },
        {
          "internalType": "string",
          "name": "date",
          "type": "string"
        },
        {
          "internalType": "string",
          "name": "status",
          "type": "string"
        }
      ],
      "stateMutability": "view",
      "type": "function",
      "constant": true
    },
    {
      "inputs": [],
      "name": "decimals",
      "outputs": [
        {
          "internalType": "uint8",
          "name": "",
          "type": "uint8"
        }
      ],
      "stateMutability": "view",
      "type": "function",
      "constant": true
    },
    {
      "inputs": [],
      "name": "maxSupply",
      "outputs": [
        {
          "internalType": "uint256",
          "name": "",
          "type": "uint256"
        }
      ],
      "stateMutability": "view",
      "type": "function",
      "constant": true
    },
    {
      "inputs": [],
      "name": "name",
      "outputs": [
        {
          "internalType": "string",
          "name": "",
          "type": "string"
        }
      ],
      "stateMutability": "view",
      "type": "function",
      "constant": true
    },
    {
      "inputs": [],
      "name": "owner",
      "outputs": [
        {
          "internalType": "address",
          "name": "",
          "type": "address"
        }
      ],
      "stateMutability": "view",
      "type": "function",
      "constant": true
    },
    {
      "inputs": [],
      "name": "renounceOwnership",
      "outputs": [],
      "stateMutability": "nonpayable",
      "type": "function"
    },
    {
      "inputs": [],
      "name": "symbol",
      "outputs": [
        {
          "internalType": "string",
          "name": "",
          "type": "string"
        }
      ],
      "stateMutability": "view",
      "type": "function",
      "constant": true
    },
    {
      "inputs": [],
      "name": "totalSupply",
      "outputs": [
        {
          "internalType": "uint256",
          "name": "",
          "type": "uint256"
        }
      ],
      "stateMutability": "view",
      "type": "function",
      "constant": true
    },
    {
      "inputs": [
        {
          "internalType": "address",
          "name": "to",
          "type": "address"
        },
        {
          "internalType": "uint256",
          "name": "value",
          "type": "uint256"
        }
      ],
      "name": "transfer",
      "outputs": [
        {
          "internalType": "bool",
          "name": "",
          "type": "bool"
        }
      ],
      "stateMutability": "nonpayable",
      "type": "function"
    },
    {
      "inputs": [
        {
          "internalType": "address",
          "name": "from",
          "type": "address"
        },
        {
          "internalType": "address",
          "name": "to",
          "type": "address"
        },
        {
          "internalType": "uint256",
          "name": "value",
          "type": "uint256"
        }
      ],
      "name": "transferFrom",
      "outputs": [
        {
          "internalType": "bool",
          "name": "",
          "type": "bool"
        }
      ],
      "stateMutability": "nonpayable",
      "type": "function"
    },
    {
      "inputs": [
        {
          "internalType": "address",
          "name": "newOwner",
          "type": "address"
        }
      ],
      "name": "transferOwnership",
      "outputs": [],
      "stateMutability": "nonpayable",
      "type": "function"
    },
    {
      "inputs": [],
      "name": "wasteCount",
      "outputs": [
        {
          "internalType": "uint256",
          "name": "",
          "type": "uint256"
        }
      ],
      "stateMutability": "view",
      "type": "function",
      "constant": true
    },
    {
      "inputs": [
        {
          "internalType": "uint256",
          "name": "",
          "type": "uint256"
        }
      ],
      "name": "wasteIds",
      "outputs": [
        {
          "internalType": "string",
          "name": "",
          "type": "string"
        }
      ],
      "stateMutability": "view",
      "type": "function",
      "constant": true
    },
    {
      "inputs": [
        {
          "internalType": "string",
          "name": "",
          "type": "string"
        }
      ],
      "name": "wastes",
      "outputs": [
        {
          "internalType": "string",
          "name": "id",
          "type": "string"
        },
        {
          "internalType": "string",
          "name": "status",
          "type": "string"
        },
        {
          "internalType": "uint256",
          "name": "weight",
          "type": "uint256"
        },
        {
          "internalType": "address",
          "name": "citizenId",
          "type": "address"
        },
        {
          "internalType": "address",
          "name": "shipperId",
          "type": "address"
        },
        {
          "internalType": "address",
          "name": "recyclerId",
          "type": "address"
        },
        {
          "internalType": "string",
          "name": "binId",
          "type": "string"
        },
        {
          "internalType": "string",
          "name": "dateCollection",
          "type": "string"
        }
      ],
      "stateMutability": "view",
      "type": "function",
      "constant": true
    },
    {
      "inputs": [
        {
          "internalType": "address",
          "name": "to",
          "type": "address"
        },
        {
          "internalType": "uint256",
          "name": "amount",
          "type": "uint256"
        }
      ],
      "name": "mint",
      "outputs": [],
      "stateMutability": "nonpayable",
      "type": "function"
    },
    {
      "inputs": [
        {
          "internalType": "string",
          "name": "_location",
          "type": "string"
        },
        {
          "internalType": "uint256",
          "name": "_capacity",
          "type": "uint256"
        },
        {
          "internalType": "uint256",
          "name": "_currentWeight",
          "type": "uint256"
        }
      ],
      "name": "createBin",
      "outputs": [
        {
          "internalType": "string",
          "name": "",
          "type": "string"
        }
      ],
      "stateMutability": "nonpayable",
      "type": "function"
    },
    {
      "inputs": [
        {
          "internalType": "string",
          "name": "_id",
          "type": "string"
        },
        {
          "internalType": "string",
          "name": "_location",
          "type": "string"
        },
        {
          "internalType": "uint256",
          "name": "_capacity",
          "type": "uint256"
        },
        {
          "internalType": "uint256",
          "name": "_currentWeight",
          "type": "uint256"
        }
      ],
      "name": "modifyBin",
      "outputs": [],
      "stateMutability": "nonpayable",
      "type": "function"
    },
    {
      "inputs": [
        {
          "internalType": "string",
          "name": "_id",
          "type": "string"
        }
      ],
      "name": "deleteBin",
      "outputs": [],
      "stateMutability": "nonpayable",
      "type": "function"
    },
    {
      "inputs": [],
      "name": "getBins",
      "outputs": [
        {
          "internalType": "string[]",
          "name": "",
          "type": "string[]"
        },
        {
          "internalType": "string[]",
          "name": "",
          "type": "string[]"
        },
        {
          "internalType": "uint256[]",
          "name": "",
          "type": "uint256[]"
        },
        {
          "internalType": "uint256[]",
          "name": "",
          "type": "uint256[]"
        }
      ],
      "stateMutability": "view",
      "type": "function",
      "constant": true
    },
    {
      "inputs": [
        {
          "internalType": "address",
          "name": "_shipper",
          "type": "address"
        }
      ],
      "name": "createShipper",
      "outputs": [],
      "stateMutability": "nonpayable",
      "type": "function"
    },
    {
      "inputs": [
        {
          "internalType": "address",
          "name": "_shipper",
          "type": "address"
        },
        {
          "internalType": "string",
          "name": "_idBin",
          "type": "string"
        },
        {
          "internalType": "string",
          "name": "_date",
          "type": "string"
        }
      ],
      "name": "createCollection",
      "outputs": [
        {
          "internalType": "string",
          "name": "",
          "type": "string"
        }
      ],
      "stateMutability": "nonpayable",
      "type": "function"
    },
    {
      "inputs": [
        {
          "internalType": "string",
          "name": "_idCollection",
          "type": "string"
        },
        {
          "internalType": "address",
          "name": "_shipperId",
          "type": "address"
        },
        {
          "internalType": "string",
          "name": "_date",
          "type": "string"
        }
      ],
      "name": "shipCollection",
      "outputs": [],
      "stateMutability": "nonpayable",
      "type": "function"
    },
    {
      "inputs": [
        {
          "internalType": "address",
          "name": "_shipperAddress",
          "type": "address"
        }
      ],
      "name": "modifyShipper",
      "outputs": [],
      "stateMutability": "nonpayable",
      "type": "function"
    },
    {
      "inputs": [
        {
          "internalType": "string",
          "name": "_idCollection",
          "type": "string"
        },
        {
          "internalType": "string",
          "name": "_date",
          "type": "string"
        }
      ],
      "name": "recycleCollection",
      "outputs": [],
      "stateMutability": "nonpayable",
      "type": "function"
    },
    {
      "inputs": [
        {
          "internalType": "address",
          "name": "_citizen",
          "type": "address"
        }
      ],
      "name": "createCitizen",
      "outputs": [],
      "stateMutability": "nonpayable",
      "type": "function"
    },
    {
      "inputs": [
        {
          "internalType": "address",
          "name": "_citizenAddress",
          "type": "address"
        }
      ],
      "name": "deleteCitizen",
      "outputs": [],
      "stateMutability": "nonpayable",
      "type": "function"
    },
    {
      "inputs": [
        {
          "internalType": "address",
          "name": "_citizenAddress",
          "type": "address"
        }
      ],
      "name": "modifyCitizen",
      "outputs": [],
      "stateMutability": "nonpayable",
      "type": "function"
    },
    {
      "inputs": [
        {
          "internalType": "string",
          "name": "_binId",
          "type": "string"
        }
      ],
      "name": "getIsBin",
      "outputs": [
        {
          "internalType": "bool",
          "name": "",
          "type": "bool"
        }
      ],
      "stateMutability": "view",
      "type": "function",
      "constant": true
    },
    {
      "inputs": [
        {
          "internalType": "address",
          "name": "_citizenId",
          "type": "address"
        }
      ],
      "name": "getIsCitizen",
      "outputs": [
        {
          "internalType": "bool",
          "name": "",
          "type": "bool"
        }
      ],
      "stateMutability": "view",
      "type": "function",
      "constant": true
    },
    {
      "inputs": [
        {
          "internalType": "string",
          "name": "_wasteId",
          "type": "string"
        }
      ],
      "name": "CheckWaste",
      "outputs": [
        {
          "internalType": "bool",
          "name": "",
          "type": "bool"
        }
      ],
      "stateMutability": "view",
      "type": "function",
      "constant": true
    },
    {
      "inputs": [
        {
          "internalType": "string",
          "name": "_wasteId",
          "type": "string"
        },
        {
          "internalType": "uint256",
          "name": "_weight",
          "type": "uint256"
        },
        {
          "internalType": "address",
          "name": "_citizenId",
          "type": "address"
        },
        {
          "internalType": "string",
          "name": "_binId",
          "type": "string"
        }
      ],
      "name": "setWaste",
      "outputs": [],
      "stateMutability": "nonpayable",
      "type": "function"
    }
  ],
  "bytecode": "0x6080604052734494f3bb19f95bb33ec116887b9dbd728c008f9b601060006101000a81548173ffffffffffffffffffffffffffffffffffffffff021916908373ffffffffffffffffffffffffffffffffffffffff16021790555060006018553480156200006b57600080fd5b50336040518060400160405280601281526020017f477265656e4561726e205472616e7366657200000000000000000000000000008152506040518060400160405280600381526020017f47524e00000000000000000000000000000000000000000000000000000000008152508160039081620000ea91906200091c565b508060049081620000fc91906200091c565b505050600073ffffffffffffffffffffffffffffffffffffffff168173ffffffffffffffffffffffffffffffffffffffff1603620001745760006040517f1e4fbdf70000000000000000000000000000000000000000000000000000000081526004016200016b919062000a48565b60405180910390fd5b6200018581620001b760201b60201c565b50683635c9adc5dea00000601a81905550620001b133683635c9adc5dea000006200027d60201b60201c565b62000bbd565b6000600560009054906101000a900473ffffffffffffffffffffffffffffffffffffffff16905081600560006101000a81548173ffffffffffffffffffffffffffffffffffffffff021916908373ffffffffffffffffffffffffffffffffffffffff1602179055508173ffffffffffffffffffffffffffffffffffffffff168173ffffffffffffffffffffffffffffffffffffffff167f8be0079c531659141344cd1fd0a4f28419497f9722a3daafe3b4186f6b6457e060405160405180910390a35050565b6200028d6200030760201b60201c565b601a5481620002a1620003a960201b60201c565b620002ad919062000a94565b1115620002f1576040517f08c379a0000000000000000000000000000000000000000000000000000000008152600401620002e89062000b30565b60405180910390fd5b620003038282620003b360201b60201c565b5050565b620003176200044060201b60201c565b73ffffffffffffffffffffffffffffffffffffffff166200033d6200044860201b60201c565b73ffffffffffffffffffffffffffffffffffffffff1614620003a757620003696200044060201b60201c565b6040517f118cdaa70000000000000000000000000000000000000000000000000000000081526004016200039e919062000a48565b60405180910390fd5b565b6000600254905090565b600073ffffffffffffffffffffffffffffffffffffffff168273ffffffffffffffffffffffffffffffffffffffff1603620004285760006040517fec442f050000000000000000000000000000000000000000000000000000000081526004016200041f919062000a48565b60405180910390fd5b6200043c600083836200047260201b60201c565b5050565b600033905090565b6000600560009054906101000a900473ffffffffffffffffffffffffffffffffffffffff16905090565b600073ffffffffffffffffffffffffffffffffffffffff168373ffffffffffffffffffffffffffffffffffffffff1603620004c8578060026000828254620004bb919062000a94565b925050819055506200059e565b60008060008573ffffffffffffffffffffffffffffffffffffffff1673ffffffffffffffffffffffffffffffffffffffff1681526020019081526020016000205490508181101562000557578381836040517fe450d38c0000000000000000000000000000000000000000000000000000000081526004016200054e9392919062000b63565b60405180910390fd5b8181036000808673ffffffffffffffffffffffffffffffffffffffff1673ffffffffffffffffffffffffffffffffffffffff16815260200190815260200160002081905550505b600073ffffffffffffffffffffffffffffffffffffffff168273ffffffffffffffffffffffffffffffffffffffff1603620005e9578060026000828254039250508190555062000636565b806000808473ffffffffffffffffffffffffffffffffffffffff1673ffffffffffffffffffffffffffffffffffffffff168152602001908152602001600020600082825401925050819055505b8173ffffffffffffffffffffffffffffffffffffffff168373ffffffffffffffffffffffffffffffffffffffff167fddf252ad1be2c89b69c2b068fc378daa952ba7f163c4a11628f55a4df523b3ef8360405162000695919062000ba0565b60405180910390a3505050565b600081519050919050565b7f4e487b7100000000000000000000000000000000000000000000000000000000600052604160045260246000fd5b7f4e487b7100000000000000000000000000000000000000000000000000000000600052602260045260246000fd5b600060028204905060018216806200072457607f821691505b6020821081036200073a5762000739620006dc565b5b50919050565b60008190508160005260206000209050919050565b60006020601f8301049050919050565b600082821b905092915050565b600060088302620007a47fffffffffffffffffffffffffffffffffffffffffffffffffffffffffffffffff8262000765565b620007b0868362000765565b95508019841693508086168417925050509392505050565b6000819050919050565b6000819050919050565b6000620007fd620007f7620007f184620007c8565b620007d2565b620007c8565b9050919050565b6000819050919050565b6200081983620007dc565b62000831620008288262000804565b84845462000772565b825550505050565b600090565b6200084862000839565b620008558184846200080e565b505050565b5b818110156200087d57620008716000826200083e565b6001810190506200085b565b5050565b601f821115620008cc57620008968162000740565b620008a18462000755565b81016020851015620008b1578190505b620008c9620008c08562000755565b8301826200085a565b50505b505050565b600082821c905092915050565b6000620008f160001984600802620008d1565b1980831691505092915050565b60006200090c8383620008de565b9150826002028217905092915050565b6200092782620006a2565b67ffffffffffffffff811115620009435762000942620006ad565b5b6200094f82546200070b565b6200095c82828562000881565b600060209050601f8311600181146200099457600084156200097f578287015190505b6200098b8582620008fe565b865550620009fb565b601f198416620009a48662000740565b60005b82811015620009ce57848901518255600182019150602085019450602081019050620009a7565b86831015620009ee5784890151620009ea601f891682620008de565b8355505b6001600288020188555050505b505050505050565b600073ffffffffffffffffffffffffffffffffffffffff82169050919050565b600062000a308262000a03565b9050919050565b62000a428162000a23565b82525050565b600060208201905062000a5f600083018462000a37565b92915050565b7f4e487b7100000000000000000000000000000000000000000000000000000000600052601160045260246000fd5b600062000aa182620007c8565b915062000aae83620007c8565b925082820190508082111562000ac95762000ac862000a65565b5b92915050565b600082825260208201905092915050565b7f4d617820537570706c7920457863656564656400000000000000000000000000600082015250565b600062000b1860138362000acf565b915062000b258262000ae0565b602082019050919050565b6000602082019050818103600083015262000b4b8162000b09565b9050919050565b62000b5d81620007c8565b82525050565b600060608201905062000b7a600083018662000a37565b62000b89602083018562000b52565b62000b98604083018462000b52565b949350505050565b600060208201905062000bb7600083018462000b52565b92915050565b615bd28062000bcd6000396000f3fe608060405234801561001057600080fd5b50600436106102325760003560e01c806381d0663311610130578063c9b5ac5b116100b8578063d5abeb011161007c578063d5abeb01146106e4578063dd62ed3e14610702578063e042a40214610732578063e1c7b8d514610753578063f2fde38b1461078357610232565b8063c9b5ac5b14610640578063cc3b2e881461065c578063ce4717df1461067a578063d57f966b14610696578063d5972802146106b457610232565b8063963464f1116100ff578063963464f11461058c578063a08c1079146105a8578063a9059cbb146105c4578063aef16e76146105f4578063c773e6491461061057610232565b806381d06633146105045780638d68d807146105345780638da5cb5b1461055057806395d89b411461056e57610232565b80633c1bc3b9116101be578063537a828f11610182578063537a828f1461044957806366e54d7b1461047957806370a08231146104ae578063715018a6146104de578063715624c9146104e857610232565b80633c1bc3b91461038e5780633e8176dc146103aa5780633edb6272146103c657806340c10f19146103f65780634a19d56d1461041257610232565b806318160ddd1161020557806318160ddd146102d6578063236b831c146102f457806323b872dd14610310578063313ce5671461034057806335a9c5961461035e57610232565b806306fdde0314610237578063095ea7b31461025557806313a172f31461028557806316207393146102b8575b600080fd5b61023f61079f565b60405161024c9190613f42565b60405180910390f35b61026f600480360381019061026a919061400c565b610831565b60405161027c9190614067565b60405180910390f35b61029f600480360381019061029a91906141b7565b610854565b6040516102af949392919061420f565b60405180910390f35b6102c06109aa565b6040516102cd9190614262565b60405180910390f35b6102de6109b0565b6040516102eb9190614262565b60405180910390f35b61030e6004803603810190610309919061427d565b6109ba565b005b61032a600480360381019061032591906142aa565b610a86565b6040516103379190614067565b60405180910390f35b610348610ab5565b6040516103559190614319565b60405180910390f35b61037860048036038101906103739190614334565b610abe565b6040516103859190613f42565b60405180910390f35b6103a860048036038101906103a3919061427d565b611208565b005b6103c460048036038101906103bf91906143bf565b61135b565b005b6103e060048036038101906103db91906141b7565b611790565b6040516103ed9190614067565b60405180910390f35b610410600480360381019061040b919061400c565b611830565b005b61042c600480360381019061042791906141b7565b61189d565b604051610440989796959493929190614459565b60405180910390f35b610463600480360381019061045e91906144f3565b611b7b565b6040516104709190613f42565b60405180910390f35b610493600480360381019061048e91906141b7565b611c27565b6040516104a596959493929190614520565b60405180910390f35b6104c860048036038101906104c3919061427d565b611ec6565b6040516104d59190614262565b60405180910390f35b6104e6611f0e565b005b61050260048036038101906104fd919061459d565b611f22565b005b61051e60048036038101906105199190614615565b612231565b60405161052b9190613f42565b60405180910390f35b61054e6004803603810190610549919061427d565b6123fb565b005b6105586125eb565b6040516105659190614684565b60405180910390f35b610576612615565b6040516105839190613f42565b60405180910390f35b6105a660048036038101906105a1919061427d565b6126a7565b005b6105c260048036038101906105bd919061469f565b6127fa565b005b6105de60048036038101906105d9919061400c565b612a9e565b6040516105eb9190614067565b60405180910390f35b61060e6004803603810190610609919061473e565b612ac1565b005b61062a6004803603810190610625919061427d565b612bbc565b6040516106379190614067565b60405180910390f35b61065a6004803603810190610655919061427d565b612c9e565b005b610664612d6a565b6040516106719190614262565b60405180910390f35b610694600480360381019061068f91906141b7565b612d70565b005b61069e612fde565b6040516106ab9190614262565b60405180910390f35b6106ce60048036038101906106c9919061427d565b612fe4565b6040516106db9190614262565b60405180910390f35b6106ec612ffc565b6040516106f99190614262565b60405180910390f35b61071c600480360381019061071791906147dd565b613002565b6040516107299190614262565b60405180910390f35b61073a613089565b60405161074a94939291906149e7565b60405180910390f35b61076d600480360381019061076891906141b7565b61341d565b60405161077a9190614067565b60405180910390f35b61079d6004803603810190610798919061427d565b6134bf565b005b6060600380546107ae90614a77565b80601f01602080910402602001604051908101604052809291908181526020018280546107da90614a77565b80156108275780601f106107fc57610100808354040283529160200191610827565b820191906000526020600020905b81548152906001019060200180831161080a57829003601f168201915b5050505050905090565b60008061083c613545565b905061084981858561354d565b600191505092915050565b60098180516020810182018051848252602083016020850120818352809550505050505060009150905080600001805461088d90614a77565b80601f01602080910402602001604051908101604052809291908181526020018280546108b990614a77565b80156109065780601f106108db57610100808354040283529160200191610906565b820191906000526020600020905b8154815290600101906020018083116108e957829003601f168201915b50505050509080600101805461091b90614a77565b80601f016020809104026020016040519081016040528092919081815260200182805461094790614a77565b80156109945780601f1061096957610100808354040283529160200191610994565b820191906000526020600020905b81548152906001019060200180831161097757829003601f168201915b5050505050908060020154908060030154905084565b60065481565b6000600254905090565b6109c261355f565b601560008273ffffffffffffffffffffffffffffffffffffffff1673ffffffffffffffffffffffffffffffffffffffff16815260200190815260200160002060009054906101000a900460ff16610a4e576040517f08c379a0000000000000000000000000000000000000000000000000000000008152600401610a4590614af4565b60405180910390fd5b7fb93a331b14aae9427dff15bad12885145072068d20db5bc47066d700abfe7dea604051610a7b90614b60565b60405180910390a150565b600080610a91613545565b9050610a9e8582856135e6565b610aa985858561367a565b60019150509392505050565b60006012905090565b6060610ac861355f565b601660008573ffffffffffffffffffffffffffffffffffffffff1673ffffffffffffffffffffffffffffffffffffffff16815260200190815260200160002060009054906101000a900460ff16610b54576040517f08c379a0000000000000000000000000000000000000000000000000000000008152600401610b4b90614bcc565b60405180910390fd5b601283604051610b649190614c28565b908152602001604051809103902060009054906101000a900460ff16610bbf576040517f08c379a0000000000000000000000000000000000000000000000000000000008152600401610bb690614c8b565b60405180910390fd5b60005b600c80549050811015610cae576000600a600c8381548110610be757610be6614cab565b5b90600052602060002001604051610bfe9190614d72565b90815260200160405180910390209050848051906020012081600201604051610c279190614e2c565b6040518091039020148015610c5a5750838051906020012081600401604051610c509190614e2c565b6040518091039020145b15610c9a576040517f08c379a0000000000000000000000000000000000000000000000000000000008152600401610c9190614eb5565b60405180910390fd5b508080610ca690614f04565b915050610bc2565b506000610cb961376e565b9050601381604051610ccb9190614c28565b908152602001604051809103902060009054906101000a900460ff1615610d27576040517f08c379a0000000000000000000000000000000000000000000000000000000008152600401610d1e90614fbe565b60405180910390fd5b60005b600d80549050811015610e66576000600e600d8381548110610d4f57610d4e614cab565b5b90600052602060002001604051610d669190614d72565b90815260200160405180910390209050858051906020012081600601604051610d8f9190614e2c565b6040518091039020148015610df757506040518060400160405280600781526020017f57616974696e67000000000000000000000000000000000000000000000000008152508051906020012081600101604051610ded9190614e2c565b6040518091039020145b15610e525784816007019081610e0d9190615175565b50868160040160006101000a81548173ffffffffffffffffffffffffffffffffffffffff021916908373ffffffffffffffffffffffffffffffffffffffff1602179055505b508080610e5e90614f04565b915050610d2a565b506040518060c001604052808281526020018673ffffffffffffffffffffffffffffffffffffffff1681526020018581526020016000151581526020018481526020016040518060400160405280600781526020017f57616974696e6700000000000000000000000000000000000000000000000000815250815250600a82604051610ef29190614c28565b90815260200160405180910390206000820151816000019081610f159190615175565b5060208201518160010160006101000a81548173ffffffffffffffffffffffffffffffffffffffff021916908373ffffffffffffffffffffffffffffffffffffffff1602179055506040820151816002019081610f729190615175565b5060608201518160030160006101000a81548160ff0219169083151502179055506080820151816004019081610fa89190615175565b5060a0820151816005019081610fbe9190615175565b50905050600c81908060018154018082558091505060019003906000526020600020016000909190919091509081610ff69190615175565b506008600081548092919061100a90614f04565b919050555060016013826040516110219190614c28565b908152602001604051809103902060006101000a81548160ff021916908315150217905550601960008673ffffffffffffffffffffffffffffffffffffffff1673ffffffffffffffffffffffffffffffffffffffff168152602001908152602001600020836040516110939190614c28565b908152602001604051809103902060020160009054906101000a900460ff166111c65760405180606001604052808673ffffffffffffffffffffffffffffffffffffffff16815260200185815260200160001515815250601960008773ffffffffffffffffffffffffffffffffffffffff1673ffffffffffffffffffffffffffffffffffffffff168152602001908152602001600020846040516111379190614c28565b908152602001604051809103902060008201518160000160006101000a81548173ffffffffffffffffffffffffffffffffffffffff021916908373ffffffffffffffffffffffffffffffffffffffff16021790555060208201518160010190816111a19190615175565b5060408201518160020160006101000a81548160ff0219169083151502179055509050505b7ff2e193f96c77b8eebe5989f9851e54078a47d1e2d8e3ca74dca8a4aeb249aebf816040516111f59190613f42565b60405180910390a1809150509392505050565b61121061355f565b601560008273ffffffffffffffffffffffffffffffffffffffff1673ffffffffffffffffffffffffffffffffffffffff16815260200190815260200160002060009054906101000a900460ff161561129d576040517f08c379a000000000000000000000000000000000000000000000000000000000815260040161129490615293565b60405180910390fd5b600f819080600181540180825580915050600190039060005260206000200160009091909190916101000a81548173ffffffffffffffffffffffffffffffffffffffff021916908373ffffffffffffffffffffffffffffffffffffffff1602179055506001601560008373ffffffffffffffffffffffffffffffffffffffff1673ffffffffffffffffffffffffffffffffffffffff16815260200190815260200160002060006101000a81548160ff02191690831515021790555050565b61136361355f565b6013836040516113739190614c28565b908152602001604051809103902060009054906101000a900460ff166113ce576040517f08c379a00000000000000000000000000000000000000000000000000000000081526004016113c5906152ff565b60405180910390fd5b8173ffffffffffffffffffffffffffffffffffffffff16600a846040516113f59190614c28565b908152602001604051809103902060010160009054906101000a900473ffffffffffffffffffffffffffffffffffffffff1673ffffffffffffffffffffffffffffffffffffffff161461147d576040517f08c379a000000000000000000000000000000000000000000000000000000000815260040161147490615391565b60405180910390fd5b6000600a8460405161148f9190614c28565b9081526020016040518091039020600401905060005b600d8054905081101561167f576000600e600d83815481106114ca576114c9614cab565b5b906000526020600020016040516114e19190614d72565b90815260200160405180910390209050600a866040516115019190614c28565b908152602001604051809103902060020160405161151f9190614e2c565b6040518091039020816006016040516115389190614e2c565b604051809103902014801561159c57508473ffffffffffffffffffffffffffffffffffffffff168160040160009054906101000a900473ffffffffffffffffffffffffffffffffffffffff1673ffffffffffffffffffffffffffffffffffffffff16145b80156115f45750600a866040516115b39190614c28565b90815260200160405180910390206004016040516115d19190614e2c565b6040518091039020816007016040516115ea9190614e2c565b6040518091039020145b1561166b578381600701908161160a9190615175565b506040518060400160405280600781526020017f53686970706564000000000000000000000000000000000000000000000000008152508160010190816116519190615175565b506018600081548092919061166590614f04565b91905055505b50808061167790614f04565b9150506114a5565b5081600a856040516116919190614c28565b908152602001604051809103902060040190816116ae9190615175565b506040518060400160405280600781526020017f5368697070656400000000000000000000000000000000000000000000000000815250600a856040516116f59190614c28565b908152602001604051809103902060050190816117129190615175565b506001601960008573ffffffffffffffffffffffffffffffffffffffff1673ffffffffffffffffffffffffffffffffffffffff168152602001908152602001600020826040516117629190615449565b908152602001604051809103902060020160006101000a81548160ff02191690831515021790555050505050565b60006012826040516117a29190614c28565b908152602001604051809103902060009054906101000a900460ff166117fd576040517f08c379a00000000000000000000000000000000000000000000000000000000081526004016117f490614c8b565b60405180910390fd5b60128260405161180d9190614c28565b908152602001604051809103902060009054906101000a900460ff169050919050565b61183861355f565b601a54816118446109b0565b61184e9190615460565b111561188f576040517f08c379a0000000000000000000000000000000000000000000000000000000008152600401611886906154e0565b60405180910390fd5b6118998282613911565b5050565b600e818051602081018201805184825260208301602085012081835280955050505050506000915090508060000180546118d690614a77565b80601f016020809104026020016040519081016040528092919081815260200182805461190290614a77565b801561194f5780601f106119245761010080835404028352916020019161194f565b820191906000526020600020905b81548152906001019060200180831161193257829003601f168201915b50505050509080600101805461196490614a77565b80601f016020809104026020016040519081016040528092919081815260200182805461199090614a77565b80156119dd5780601f106119b2576101008083540402835291602001916119dd565b820191906000526020600020905b8154815290600101906020018083116119c057829003601f168201915b5050505050908060020154908060030160009054906101000a900473ffffffffffffffffffffffffffffffffffffffff16908060040160009054906101000a900473ffffffffffffffffffffffffffffffffffffffff16908060050160009054906101000a900473ffffffffffffffffffffffffffffffffffffffff1690806006018054611a6a90614a77565b80601f0160208091040260200160405190810160405280929190818152602001828054611a9690614a77565b8015611ae35780601f10611ab857610100808354040283529160200191611ae3565b820191906000526020600020905b815481529060010190602001808311611ac657829003601f168201915b505050505090806007018054611af890614a77565b80601f0160208091040260200160405190810160405280929190818152602001828054611b2490614a77565b8015611b715780601f10611b4657610100808354040283529160200191611b71565b820191906000526020600020905b815481529060010190602001808311611b5457829003601f168201915b5050505050905088565b600d8181548110611b8b57600080fd5b906000526020600020016000915090508054611ba690614a77565b80601f0160208091040260200160405190810160405280929190818152602001828054611bd290614a77565b8015611c1f5780601f10611bf457610100808354040283529160200191611c1f565b820191906000526020600020905b815481529060010190602001808311611c0257829003601f168201915b505050505081565b600a81805160208101820180518482526020830160208501208183528095505050505050600091509050806000018054611c6090614a77565b80601f0160208091040260200160405190810160405280929190818152602001828054611c8c90614a77565b8015611cd95780601f10611cae57610100808354040283529160200191611cd9565b820191906000526020600020905b815481529060010190602001808311611cbc57829003601f168201915b5050505050908060010160009054906101000a900473ffffffffffffffffffffffffffffffffffffffff1690806002018054611d1490614a77565b80601f0160208091040260200160405190810160405280929190818152602001828054611d4090614a77565b8015611d8d5780601f10611d6257610100808354040283529160200191611d8d565b820191906000526020600020905b815481529060010190602001808311611d7057829003601f168201915b5050505050908060030160009054906101000a900460ff1690806004018054611db590614a77565b80601f0160208091040260200160405190810160405280929190818152602001828054611de190614a77565b8015611e2e5780601f10611e0357610100808354040283529160200191611e2e565b820191906000526020600020905b815481529060010190602001808311611e1157829003601f168201915b505050505090806005018054611e4390614a77565b80601f0160208091040260200160405190810160405280929190818152602001828054611e6f90614a77565b8015611ebc5780601f10611e9157610100808354040283529160200191611ebc565b820191906000526020600020905b815481529060010190602001808311611e9f57829003601f168201915b5050505050905086565b60008060008373ffffffffffffffffffffffffffffffffffffffff1673ffffffffffffffffffffffffffffffffffffffff168152602001908152602001600020549050919050565b611f1661355f565b611f206000613993565b565b601382604051611f329190614c28565b908152602001604051809103902060009054906101000a900460ff16611f8d576040517f08c379a0000000000000000000000000000000000000000000000000000000008152600401611f84906152ff565b60405180910390fd5b60005b600d80549050811015612199576000600e600d8381548110611fb557611fb4614cab565b5b90600052602060002001604051611fcc9190614d72565b90815260200160405180910390209050600a84604051611fec9190614c28565b908152602001604051809103902060020160405161200a9190614e2c565b6040518091039020816006016040516120239190614e2c565b60405180910390201480156120845750600a846040516120439190614c28565b90815260200160405180910390206004016040516120619190614e2c565b60405180910390208160070160405161207a9190614e2c565b6040518091039020145b15612185576040518060400160405280600781526020017f536869707065640000000000000000000000000000000000000000000000000081525080519060200120816001016040516120d79190614e2c565b60405180910390200361218457828160070190816120f59190615175565b506040518060400160405280600781526020017f526563796c65640000000000000000000000000000000000000000000000000081525081600101908161213c9190615175565b5060006103e882600201546121519190615500565b9050612182338360030160009054906101000a900473ffffffffffffffffffffffffffffffffffffffff168361367a565b505b5b50808061219190614f04565b915050611f90565b5080600a836040516121ab9190614c28565b908152602001604051809103902060040190816121c89190615175565b506040518060400160405280600781526020017f526563796c656400000000000000000000000000000000000000000000000000815250600a8360405161220f9190614c28565b9081526020016040518091039020600501908161222c9190615175565b505050565b606061223b61355f565b600061224561376e565b90506012816040516122579190614c28565b908152602001604051809103902060009054906101000a900460ff16156122b3576040517f08c379a00000000000000000000000000000000000000000000000000000000081526004016122aa9061558e565b60405180910390fd5b6040518060800160405280828152602001868152602001858152602001848152506009826040516122e49190614c28565b908152602001604051809103902060008201518160000190816123079190615175565b50602082015181600101908161231d9190615175565b506040820151816002015560608201518160030155905050600b819080600181540180825580915050600190039060005260206000200160009091909190915090816123699190615175565b506007600081548092919061237d90614f04565b919050555060016012826040516123949190614c28565b908152602001604051809103902060006101000a81548160ff0219169083151502179055507fd5413a7934f1aa973af7bc53f68df06953b49031401619e5997d54afb849377e816040516123e89190613f42565b60405180910390a1809150509392505050565b61240361355f565b60005b600f805490508110156125e7578173ffffffffffffffffffffffffffffffffffffffff16600f828154811061243e5761243d614cab565b5b9060005260206000200160009054906101000a900473ffffffffffffffffffffffffffffffffffffffff1673ffffffffffffffffffffffffffffffffffffffff16036125d457600f6001600f8054905061249891906155ae565b815481106124a9576124a8614cab565b5b9060005260206000200160009054906101000a900473ffffffffffffffffffffffffffffffffffffffff16600f82815481106124e8576124e7614cab565b5b9060005260206000200160006101000a81548173ffffffffffffffffffffffffffffffffffffffff021916908373ffffffffffffffffffffffffffffffffffffffff160217905550600f805480612542576125416155e2565b5b6001900381819060005260206000200160006101000a81549073ffffffffffffffffffffffffffffffffffffffff021916905590556000601560008473ffffffffffffffffffffffffffffffffffffffff1673ffffffffffffffffffffffffffffffffffffffff16815260200190815260200160002060006101000a81548160ff0219169083151502179055506125e7565b80806125df90614f04565b915050612406565b5050565b6000600560009054906101000a900473ffffffffffffffffffffffffffffffffffffffff16905090565b60606004805461262490614a77565b80601f016020809104026020016040519081016040528092919081815260200182805461265090614a77565b801561269d5780601f106126725761010080835404028352916020019161269d565b820191906000526020600020905b81548152906001019060200180831161268057829003601f168201915b5050505050905090565b6126af61355f565b601660008273ffffffffffffffffffffffffffffffffffffffff1673ffffffffffffffffffffffffffffffffffffffff16815260200190815260200160002060009054906101000a900460ff161561273c576040517f08c379a00000000000000000000000000000000000000000000000000000000081526004016127339061565d565b60405180910390fd5b6011819080600181540180825580915050600190039060005260206000200160009091909190916101000a81548173ffffffffffffffffffffffffffffffffffffffff021916908373ffffffffffffffffffffffffffffffffffffffff1602179055506001601660008373ffffffffffffffffffffffffffffffffffffffff1673ffffffffffffffffffffffffffffffffffffffff16815260200190815260200160002060006101000a81548160ff02191690831515021790555050565b6040518061010001604052808581526020016040518060400160405280600781526020017f57616974696e670000000000000000000000000000000000000000000000000081525081526020018481526020018373ffffffffffffffffffffffffffffffffffffffff168152602001600073ffffffffffffffffffffffffffffffffffffffff168152602001600073ffffffffffffffffffffffffffffffffffffffff16815260200182815260200160405180602001604052806000815250815250600e856040516128cc9190614c28565b908152602001604051809103902060008201518160000190816128ef9190615175565b5060208201518160010190816129059190615175565b506040820151816002015560608201518160030160006101000a81548173ffffffffffffffffffffffffffffffffffffffff021916908373ffffffffffffffffffffffffffffffffffffffff16021790555060808201518160040160006101000a81548173ffffffffffffffffffffffffffffffffffffffff021916908373ffffffffffffffffffffffffffffffffffffffff16021790555060a08201518160050160006101000a81548173ffffffffffffffffffffffffffffffffffffffff021916908373ffffffffffffffffffffffffffffffffffffffff16021790555060c08201518160060190816129fa9190615175565b5060e0820151816007019081612a109190615175565b50905050600d84908060018154018082558091505060019003906000526020600020016000909190919091509081612a489190615175565b506001601485604051612a5b9190614c28565b908152602001604051809103902060006101000a81548160ff02191690831515021790555060066000815480929190612a9390614f04565b919050555050505050565b600080612aa9613545565b9050612ab681858561367a565b600191505092915050565b612ac961355f565b601284604051612ad99190614c28565b908152602001604051809103902060009054906101000a900460ff16612b34576040517f08c379a0000000000000000000000000000000000000000000000000000000008152600401612b2b906156c9565b60405180910390fd5b604051806080016040528085815260200184815260200183815260200182815250600985604051612b659190614c28565b90815260200160405180910390206000820151816000019081612b889190615175565b506020820151816001019081612b9e9190615175565b50604082015181600201556060820151816003015590505050505050565b6000601560008373ffffffffffffffffffffffffffffffffffffffff1673ffffffffffffffffffffffffffffffffffffffff16815260200190815260200160002060009054906101000a900460ff16612c4a576040517f08c379a0000000000000000000000000000000000000000000000000000000008152600401612c4190615735565b60405180910390fd5b601560008373ffffffffffffffffffffffffffffffffffffffff1673ffffffffffffffffffffffffffffffffffffffff16815260200190815260200160002060009054906101000a900460ff169050919050565b612ca661355f565b601660008273ffffffffffffffffffffffffffffffffffffffff1673ffffffffffffffffffffffffffffffffffffffff16815260200190815260200160002060009054906101000a900460ff16612d32576040517f08c379a0000000000000000000000000000000000000000000000000000000008152600401612d29906157a1565b60405180910390fd5b7f7d0afd94fbb67c41dce82b00240b23eb17cd64b8971fe1b722eee0363a2dede0604051612d5f9061580d565b60405180910390a150565b60075481565b612d7861355f565b601281604051612d889190614c28565b908152602001604051809103902060009054906101000a900460ff16612de3576040517f08c379a0000000000000000000000000000000000000000000000000000000008152600401612dda906156c9565b60405180910390fd5b6000601282604051612df59190614c28565b908152602001604051809103902060006101000a81548160ff021916908315150217905550600981604051612e2a9190614c28565b908152602001604051809103902060008082016000612e499190613e55565b600182016000612e599190613e55565b60028201600090556003820160009055505060005b600b80549050811015612fc2578180519060200120600b8281548110612e9757612e96614cab565b5b90600052602060002001604051612eae9190614e2c565b604051809103902003612faf5760008190505b6001600b80549050612ed391906155ae565b811015612f4257600b600182612ee99190615460565b81548110612efa57612ef9614cab565b5b90600052602060002001600b8281548110612f1857612f17614cab565b5b906000526020600020019081612f2e9190615843565b508080612f3a90614f04565b915050612ec1565b50600b805480612f5557612f546155e2565b5b600190038181906000526020600020016000612f719190613e55565b90556000601283604051612f859190614c28565b908152602001604051809103902060006101000a81548160ff021916908315150217905550612fc2565b8080612fba90614f04565b915050612e6e565b5060076000815480929190612fd69061592b565b919050555050565b60085481565b60176020528060005260406000206000915090505481565b601a5481565b6000600160008473ffffffffffffffffffffffffffffffffffffffff1673ffffffffffffffffffffffffffffffffffffffff16815260200190815260200160002060008373ffffffffffffffffffffffffffffffffffffffff1673ffffffffffffffffffffffffffffffffffffffff16815260200190815260200160002054905092915050565b606080606080600060075467ffffffffffffffff8111156130ad576130ac61408c565b5b6040519080825280602002602001820160405280156130e057816020015b60608152602001906001900390816130cb5790505b509050600060075467ffffffffffffffff8111156131015761310061408c565b5b60405190808252806020026020018201604052801561313457816020015b606081526020019060019003908161311f5790505b509050600060075467ffffffffffffffff8111156131555761315461408c565b5b6040519080825280602002602001820160405280156131835781602001602082028036833780820191505090505b509050600060075467ffffffffffffffff8111156131a4576131a361408c565b5b6040519080825280602002602001820160405280156131d25781602001602082028036833780820191505090505b50905060005b6007548110156134065760006009600b83815481106131fa576131f9614cab565b5b906000526020600020016040516132119190614d72565b908152602001604051809103902060405180608001604052908160008201805461323a90614a77565b80601f016020809104026020016040519081016040528092919081815260200182805461326690614a77565b80156132b35780601f10613288576101008083540402835291602001916132b3565b820191906000526020600020905b81548152906001019060200180831161329657829003601f168201915b505050505081526020016001820180546132cc90614a77565b80601f01602080910402602001604051908101604052809291908181526020018280546132f890614a77565b80156133455780601f1061331a57610100808354040283529160200191613345565b820191906000526020600020905b81548152906001019060200180831161332857829003601f168201915b50505050508152602001600282015481526020016003820154815250509050806000015186838151811061337c5761337b614cab565b5b6020026020010181905250806020015185838151811061339f5761339e614cab565b5b602002602001018190525080604001518483815181106133c2576133c1614cab565b5b60200260200101818152505080606001518383815181106133e6576133e5614cab565b5b6020026020010181815250505080806133fe90614f04565b9150506131d8565b508383838397509750975097505050505090919293565b600060148260405161342f9190614c28565b908152602001604051809103902060009054906101000a900460ff161561348b576040517f08c379a0000000000000000000000000000000000000000000000000000000008152600401613482906159a0565b60405180910390fd5b60148260405161349b9190614c28565b908152602001604051809103902060009054906101000a900460ff16159050919050565b6134c761355f565b600073ffffffffffffffffffffffffffffffffffffffff168173ffffffffffffffffffffffffffffffffffffffff16036135395760006040517f1e4fbdf70000000000000000000000000000000000000000000000000000000081526004016135309190614684565b60405180910390fd5b61354281613993565b50565b600033905090565b61355a8383836001613a59565b505050565b613567613545565b73ffffffffffffffffffffffffffffffffffffffff166135856125eb565b73ffffffffffffffffffffffffffffffffffffffff16146135e4576135a8613545565b6040517f118cdaa70000000000000000000000000000000000000000000000000000000081526004016135db9190614684565b60405180910390fd5b565b60006135f28484613002565b90507fffffffffffffffffffffffffffffffffffffffffffffffffffffffffffffffff81146136745781811015613664578281836040517ffb8f41b200000000000000000000000000000000000000000000000000000000815260040161365b939291906159c0565b60405180910390fd5b61367384848484036000613a59565b5b50505050565b600073ffffffffffffffffffffffffffffffffffffffff168373ffffffffffffffffffffffffffffffffffffffff16036136ec5760006040517f96c6fd1e0000000000000000000000000000000000000000000000000000000081526004016136e39190614684565b60405180910390fd5b600073ffffffffffffffffffffffffffffffffffffffff168273ffffffffffffffffffffffffffffffffffffffff160361375e5760006040517fec442f050000000000000000000000000000000000000000000000000000000081526004016137559190614684565b60405180910390fd5b613769838383613c30565b505050565b606060004244413360075460085460405160200161379196959493929190615a9b565b60405160208183030381529060405280519060200120905060008160001c9050600081036137f8576040518060400160405280600181526020017f30000000000000000000000000000000000000000000000000000000000000008152509250505061390e565b600081905060005b6000821461382a57808061381390614f04565b915050600a826138239190615b3a565b9150613800565b60008167ffffffffffffffff8111156138465761384561408c565b5b6040519080825280601f01601f1916602001820160405280156138785781602001600182028036833780820191505090505b5090505b600084146139055760018261389191906155ae565b9150600a846138a09190615b6b565b60306138ac9190615460565b60f81b8183815181106138c2576138c1614cab565b5b60200101907effffffffffffffffffffffffffffffffffffffffffffffffffffffffffffff1916908160001a905350600a846138fe9190615b3a565b935061387c565b80955050505050505b90565b600073ffffffffffffffffffffffffffffffffffffffff168273ffffffffffffffffffffffffffffffffffffffff16036139835760006040517fec442f0500000000000000000000000000000000000000000000000000000000815260040161397a9190614684565b60405180910390fd5b61398f60008383613c30565b5050565b6000600560009054906101000a900473ffffffffffffffffffffffffffffffffffffffff16905081600560006101000a81548173ffffffffffffffffffffffffffffffffffffffff021916908373ffffffffffffffffffffffffffffffffffffffff1602179055508173ffffffffffffffffffffffffffffffffffffffff168173ffffffffffffffffffffffffffffffffffffffff167f8be0079c531659141344cd1fd0a4f28419497f9722a3daafe3b4186f6b6457e060405160405180910390a35050565b600073ffffffffffffffffffffffffffffffffffffffff168473ffffffffffffffffffffffffffffffffffffffff1603613acb5760006040517fe602df05000000000000000000000000000000000000000000000000000000008152600401613ac29190614684565b60405180910390fd5b600073ffffffffffffffffffffffffffffffffffffffff168373ffffffffffffffffffffffffffffffffffffffff1603613b3d5760006040517f94280d62000000000000000000000000000000000000000000000000000000008152600401613b349190614684565b60405180910390fd5b81600160008673ffffffffffffffffffffffffffffffffffffffff1673ffffffffffffffffffffffffffffffffffffffff16815260200190815260200160002060008573ffffffffffffffffffffffffffffffffffffffff1673ffffffffffffffffffffffffffffffffffffffff168152602001908152602001600020819055508015613c2a578273ffffffffffffffffffffffffffffffffffffffff168473ffffffffffffffffffffffffffffffffffffffff167f8c5be1e5ebec7d5bd14f71427d1e84f3dd0314c0f7b2291e5b200ac8c7c3b92584604051613c219190614262565b60405180910390a35b50505050565b600073ffffffffffffffffffffffffffffffffffffffff168373ffffffffffffffffffffffffffffffffffffffff1603613c82578060026000828254613c769190615460565b92505081905550613d55565b60008060008573ffffffffffffffffffffffffffffffffffffffff1673ffffffffffffffffffffffffffffffffffffffff16815260200190815260200160002054905081811015613d0e578381836040517fe450d38c000000000000000000000000000000000000000000000000000000008152600401613d05939291906159c0565b60405180910390fd5b8181036000808673ffffffffffffffffffffffffffffffffffffffff1673ffffffffffffffffffffffffffffffffffffffff16815260200190815260200160002081905550505b600073ffffffffffffffffffffffffffffffffffffffff168273ffffffffffffffffffffffffffffffffffffffff1603613d9e5780600260008282540392505081905550613deb565b806000808473ffffffffffffffffffffffffffffffffffffffff1673ffffffffffffffffffffffffffffffffffffffff168152602001908152602001600020600082825401925050819055505b8173ffffffffffffffffffffffffffffffffffffffff168373ffffffffffffffffffffffffffffffffffffffff167fddf252ad1be2c89b69c2b068fc378daa952ba7f163c4a11628f55a4df523b3ef83604051613e489190614262565b60405180910390a3505050565b508054613e6190614a77565b6000825580601f10613e735750613e92565b601f016020900490600052602060002090810190613e919190613e95565b5b50565b5b80821115613eae576000816000905550600101613e96565b5090565b600081519050919050565b600082825260208201905092915050565b60005b83811015613eec578082015181840152602081019050613ed1565b60008484015250505050565b6000601f19601f8301169050919050565b6000613f1482613eb2565b613f1e8185613ebd565b9350613f2e818560208601613ece565b613f3781613ef8565b840191505092915050565b60006020820190508181036000830152613f5c8184613f09565b905092915050565b6000604051905090565b600080fd5b600080fd5b600073ffffffffffffffffffffffffffffffffffffffff82169050919050565b6000613fa382613f78565b9050919050565b613fb381613f98565b8114613fbe57600080fd5b50565b600081359050613fd081613faa565b92915050565b6000819050919050565b613fe981613fd6565b8114613ff457600080fd5b50565b60008135905061400681613fe0565b92915050565b6000806040838503121561402357614022613f6e565b5b600061403185828601613fc1565b925050602061404285828601613ff7565b9150509250929050565b60008115159050919050565b6140618161404c565b82525050565b600060208201905061407c6000830184614058565b92915050565b600080fd5b600080fd5b7f4e487b7100000000000000000000000000000000000000000000000000000000600052604160045260246000fd5b6140c482613ef8565b810181811067ffffffffffffffff821117156140e3576140e261408c565b5b80604052505050565b60006140f6613f64565b905061410282826140bb565b919050565b600067ffffffffffffffff8211156141225761412161408c565b5b61412b82613ef8565b9050602081019050919050565b82818337600083830152505050565b600061415a61415584614107565b6140ec565b90508281526020810184848401111561417657614175614087565b5b614181848285614138565b509392505050565b600082601f83011261419e5761419d614082565b5b81356141ae848260208601614147565b91505092915050565b6000602082840312156141cd576141cc613f6e565b5b600082013567ffffffffffffffff8111156141eb576141ea613f73565b5b6141f784828501614189565b91505092915050565b61420981613fd6565b82525050565b600060808201905081810360008301526142298187613f09565b9050818103602083015261423d8186613f09565b905061424c6040830185614200565b6142596060830184614200565b95945050505050565b60006020820190506142776000830184614200565b92915050565b60006020828403121561429357614292613f6e565b5b60006142a184828501613fc1565b91505092915050565b6000806000606084860312156142c3576142c2613f6e565b5b60006142d186828701613fc1565b93505060206142e286828701613fc1565b92505060406142f386828701613ff7565b9150509250925092565b600060ff82169050919050565b614313816142fd565b82525050565b600060208201905061432e600083018461430a565b92915050565b60008060006060848603121561434d5761434c613f6e565b5b600061435b86828701613fc1565b935050602084013567ffffffffffffffff81111561437c5761437b613f73565b5b61438886828701614189565b925050604084013567ffffffffffffffff8111156143a9576143a8613f73565b5b6143b586828701614189565b9150509250925092565b6000806000606084860312156143d8576143d7613f6e565b5b600084013567ffffffffffffffff8111156143f6576143f5613f73565b5b61440286828701614189565b935050602061441386828701613fc1565b925050604084013567ffffffffffffffff81111561443457614433613f73565b5b61444086828701614189565b9150509250925092565b61445381613f98565b82525050565b6000610100820190508181036000830152614474818b613f09565b90508181036020830152614488818a613f09565b90506144976040830189614200565b6144a4606083018861444a565b6144b1608083018761444a565b6144be60a083018661444a565b81810360c08301526144d08185613f09565b905081810360e08301526144e48184613f09565b90509998505050505050505050565b60006020828403121561450957614508613f6e565b5b600061451784828501613ff7565b91505092915050565b600060c082019050818103600083015261453a8189613f09565b9050614549602083018861444a565b818103604083015261455b8187613f09565b905061456a6060830186614058565b818103608083015261457c8185613f09565b905081810360a08301526145908184613f09565b9050979650505050505050565b600080604083850312156145b4576145b3613f6e565b5b600083013567ffffffffffffffff8111156145d2576145d1613f73565b5b6145de85828601614189565b925050602083013567ffffffffffffffff8111156145ff576145fe613f73565b5b61460b85828601614189565b9150509250929050565b60008060006060848603121561462e5761462d613f6e565b5b600084013567ffffffffffffffff81111561464c5761464b613f73565b5b61465886828701614189565b935050602061466986828701613ff7565b925050604061467a86828701613ff7565b9150509250925092565b6000602082019050614699600083018461444a565b92915050565b600080600080608085870312156146b9576146b8613f6e565b5b600085013567ffffffffffffffff8111156146d7576146d6613f73565b5b6146e387828801614189565b94505060206146f487828801613ff7565b935050604061470587828801613fc1565b925050606085013567ffffffffffffffff81111561472657614725613f73565b5b61473287828801614189565b91505092959194509250565b6000806000806080858703121561475857614757613f6e565b5b600085013567ffffffffffffffff81111561477657614775613f73565b5b61478287828801614189565b945050602085013567ffffffffffffffff8111156147a3576147a2613f73565b5b6147af87828801614189565b93505060406147c087828801613ff7565b92505060606147d187828801613ff7565b91505092959194509250565b600080604083850312156147f4576147f3613f6e565b5b600061480285828601613fc1565b925050602061481385828601613fc1565b9150509250929050565b600081519050919050565b600082825260208201905092915050565b6000819050602082019050919050565b600082825260208201905092915050565b600061486582613eb2565b61486f8185614849565b935061487f818560208601613ece565b61488881613ef8565b840191505092915050565b600061489f838361485a565b905092915050565b6000602082019050919050565b60006148bf8261481d565b6148c98185614828565b9350836020820285016148db85614839565b8060005b8581101561491757848403895281516148f88582614893565b9450614903836148a7565b925060208a019950506001810190506148df565b50829750879550505050505092915050565b600081519050919050565b600082825260208201905092915050565b6000819050602082019050919050565b61495e81613fd6565b82525050565b60006149708383614955565b60208301905092915050565b6000602082019050919050565b600061499482614929565b61499e8185614934565b93506149a983614945565b8060005b838110156149da5781516149c18882614964565b97506149cc8361497c565b9250506001810190506149ad565b5085935050505092915050565b60006080820190508181036000830152614a0181876148b4565b90508181036020830152614a1581866148b4565b90508181036040830152614a298185614989565b90508181036060830152614a3d8184614989565b905095945050505050565b7f4e487b7100000000000000000000000000000000000000000000000000000000600052602260045260246000fd5b60006002820490506001821680614a8f57607f821691505b602082108103614aa257614aa1614a48565b5b50919050565b7f436974697a656e20646f6573206e6f7420657869737400000000000000000000600082015250565b6000614ade601683613ebd565b9150614ae982614aa8565b602082019050919050565b60006020820190508181036000830152614b0d81614ad1565b9050919050565b7f436974697a656e2063616e206265206d6f646966696564000000000000000000600082015250565b6000614b4a601783613ebd565b9150614b5582614b14565b602082019050919050565b60006020820190508181036000830152614b7981614b3d565b9050919050565b7f5368697070657220646f65736e27742065786973740000000000000000000000600082015250565b6000614bb6601583613ebd565b9150614bc182614b80565b602082019050919050565b60006020820190508181036000830152614be581614ba9565b9050919050565b600081905092915050565b6000614c0282613eb2565b614c0c8185614bec565b9350614c1c818560208601613ece565b80840191505092915050565b6000614c348284614bf7565b915081905092915050565b7f42696e20646f65736e2774206578697374000000000000000000000000000000600082015250565b6000614c75601183613ebd565b9150614c8082614c3f565b602082019050919050565b60006020820190508181036000830152614ca481614c68565b9050919050565b7f4e487b7100000000000000000000000000000000000000000000000000000000600052603260045260246000fd5b60008190508160005260206000209050919050565b60008154614cfc81614a77565b614d068186614bec565b94506001821660008114614d215760018114614d3657614d69565b60ff1983168652811515820286019350614d69565b614d3f85614cda565b60005b83811015614d6157815481890152600182019150602081019050614d42565b838801955050505b50505092915050565b6000614d7e8284614cef565b915081905092915050565b600081905092915050565b60008190508160005260206000209050919050565b60008154614db681614a77565b614dc08186614d89565b94506001821660008114614ddb5760018114614df057614e23565b60ff1983168652811515820286019350614e23565b614df985614d94565b60005b83811015614e1b57815481890152600182019150602081019050614dfc565b838801955050505b50505092915050565b6000614e388284614da9565b915081905092915050565b7f436f6c6c656374696f6e20616c72656164792065786973747320666f7220746860008201527f69732062696e20616e6420646174650000000000000000000000000000000000602082015250565b6000614e9f602f83613ebd565b9150614eaa82614e43565b604082019050919050565b60006020820190508181036000830152614ece81614e92565b9050919050565b7f4e487b7100000000000000000000000000000000000000000000000000000000600052601160045260246000fd5b6000614f0f82613fd6565b91507fffffffffffffffffffffffffffffffffffffffffffffffffffffffffffffffff8203614f4157614f40614ed5565b5b600182019050919050565b7f47656e657261746564204944436f6c6c656374696f6e20616c7265616479206560008201527f7869737473000000000000000000000000000000000000000000000000000000602082015250565b6000614fa8602583613ebd565b9150614fb382614f4c565b604082019050919050565b60006020820190508181036000830152614fd781614f9b565b9050919050565b60006020601f8301049050919050565b600082821b905092915050565b60006008830261502b7fffffffffffffffffffffffffffffffffffffffffffffffffffffffffffffffff82614fee565b6150358683614fee565b95508019841693508086168417925050509392505050565b6000819050919050565b600061507261506d61506884613fd6565b61504d565b613fd6565b9050919050565b6000819050919050565b61508c83615057565b6150a061509882615079565b848454614ffb565b825550505050565b600090565b6150b56150a8565b6150c0818484615083565b505050565b5b818110156150e4576150d96000826150ad565b6001810190506150c6565b5050565b601f821115615129576150fa81614cda565b61510384614fde565b81016020851015615112578190505b61512661511e85614fde565b8301826150c5565b50505b505050565b600082821c905092915050565b600061514c6000198460080261512e565b1980831691505092915050565b6000615165838361513b565b9150826002028217905092915050565b61517e82613eb2565b67ffffffffffffffff8111156151975761519661408c565b5b6151a18254614a77565b6151ac8282856150e8565b600060209050601f8311600181146151df57600084156151cd578287015190505b6151d78582615159565b86555061523f565b601f1984166151ed86614cda565b60005b82811015615215578489015182556001820191506020850194506020810190506151f0565b86831015615232578489015161522e601f89168261513b565b8355505b6001600288020188555050505b505050505050565b7f436974697a656e20616c72656164792065786973747300000000000000000000600082015250565b600061527d601683613ebd565b915061528882615247565b602082019050919050565b600060208201905081810360008301526152ac81615270565b9050919050565b7f436f6c6c656374696f6e20646f65736e27742065786973740000000000000000600082015250565b60006152e9601883613ebd565b91506152f4826152b3565b602082019050919050565b60006020820190508181036000830152615318816152dc565b9050919050565b7f5468697320636f6c6c656374696f6e20646f65736e277420636f6e6365726e2060008201527f7468697320736869707065720000000000000000000000000000000000000000602082015250565b600061537b602c83613ebd565b91506153868261531f565b604082019050919050565b600060208201905081810360008301526153aa8161536e565b9050919050565b60008190508160005260206000209050919050565b600081546153d381614a77565b6153dd8186614bec565b945060018216600081146153f8576001811461540d57615440565b60ff1983168652811515820286019350615440565b615416856153b1565b60005b8381101561543857815481890152600182019150602081019050615419565b838801955050505b50505092915050565b600061545582846153c6565b915081905092915050565b600061546b82613fd6565b915061547683613fd6565b925082820190508082111561548e5761548d614ed5565b5b92915050565b7f4d617820537570706c7920457863656564656400000000000000000000000000600082015250565b60006154ca601383613ebd565b91506154d582615494565b602082019050919050565b600060208201905081810360008301526154f9816154bd565b9050919050565b600061550b82613fd6565b915061551683613fd6565b925082820261552481613fd6565b9150828204841483151761553b5761553a614ed5565b5b5092915050565b7f47656e65726174656420494420616c7265616479206578697374730000000000600082015250565b6000615578601b83613ebd565b915061558382615542565b602082019050919050565b600060208201905081810360008301526155a78161556b565b9050919050565b60006155b982613fd6565b91506155c483613fd6565b92508282039050818111156155dc576155db614ed5565b5b92915050565b7f4e487b7100000000000000000000000000000000000000000000000000000000600052603160045260246000fd5b7f5368697070657220616c72656164792065786973747300000000000000000000600082015250565b6000615647601683613ebd565b915061565282615611565b602082019050919050565b600060208201905081810360008301526156768161563a565b9050919050565b7f42696e20646f6573206e6f742065786973740000000000000000000000000000600082015250565b60006156b3601283613ebd565b91506156be8261567d565b602082019050919050565b600060208201905081810360008301526156e2816156a6565b9050919050565b7f436974697a656e20646f65736e27742065786973740000000000000000000000600082015250565b600061571f601583613ebd565b915061572a826156e9565b602082019050919050565b6000602082019050818103600083015261574e81615712565b9050919050565b7f5368697070657220646f6573206e6f7420657869737400000000000000000000600082015250565b600061578b601683613ebd565b915061579682615755565b602082019050919050565b600060208201905081810360008301526157ba8161577e565b9050919050565b7f536869707065722063616e206265206d6f646966696564000000000000000000600082015250565b60006157f7601783613ebd565b9150615802826157c1565b602082019050919050565b60006020820190508181036000830152615826816157ea565b9050919050565b60008154905061583c81614a77565b9050919050565b818103615851575050615929565b61585a8261582d565b67ffffffffffffffff8111156158735761587261408c565b5b61587d8254614a77565b6158888282856150e8565b6000601f8311600181146158b757600084156158a5578287015490505b6158af8582615159565b865550615922565b601f1984166158c5876153b1565b96506158d086614cda565b60005b828110156158f8578489015482556001820191506001850194506020810190506158d3565b868310156159155784890154615911601f89168261513b565b8355505b6001600288020188555050505b5050505050505b565b600061593682613fd6565b91506000820361594957615948614ed5565b5b600182039050919050565b7f5761747365206578697374000000000000000000000000000000000000000000600082015250565b600061598a600b83613ebd565b915061599582615954565b602082019050919050565b600060208201905081810360008301526159b98161597d565b9050919050565b60006060820190506159d5600083018661444a565b6159e26020830185614200565b6159ef6040830184614200565b949350505050565b6000819050919050565b615a12615a0d82613fd6565b6159f7565b82525050565b6000615a2382613f78565b9050919050565b60008160601b9050919050565b6000615a4282615a2a565b9050919050565b6000615a5482615a37565b9050919050565b615a6c615a6782615a18565b615a49565b82525050565b6000615a7d82615a37565b9050919050565b615a95615a9082613f98565b615a72565b82525050565b6000615aa78289615a01565b602082019150615ab78288615a01565b602082019150615ac78287615a5b565b601482019150615ad78286615a84565b601482019150615ae78285615a01565b602082019150615af78284615a01565b602082019150819050979650505050505050565b7f4e487b7100000000000000000000000000000000000000000000000000000000600052601260045260246000fd5b6000615b4582613fd6565b9150615b5083613fd6565b925082615b6057615b5f615b0b565b5b828204905092915050565b6000615b7682613fd6565b9150615b8183613fd6565b925082615b9157615b90615b0b565b5b82820690509291505056fea2646970667358221220473f1280ca7bb0751d4f4d6050bdf8d88765a91e3ee6740968b8f2633fb647a664736f6c63430008140033",
  "immutableReferences": {},
  "source": "// SPDX-License-Identifier: MIT\r\npragma solidity >=0.8.0;\r\n\r\nimport \"@openzeppelin/contracts/token/ERC20/ERC20.sol\";\r\nimport \"@openzeppelin/contracts/access/Ownable.sol\";\r\n\r\ncontract WasteManagement is ERC20, Ownable {\r\n    struct Bin {\r\n        string id; // Changed type to string\r\n        string location;\r\n        uint256 capacity;\r\n        uint256 currentWeight;\r\n    }\r\n    struct Waste {\r\n        string id;\r\n        string status;\r\n        uint256 weight;\r\n        address citizenId;\r\n        address shipperId;\r\n        address recyclerId;\r\n        string binId; // Changed type to string\r\n        string dateCollection;\r\n    }\r\n    struct Collection {\r\n        string idCollection;\r\n        address shipperNotified;\r\n        string binNotif; // Changed type to string\r\n        bool done;\r\n        string date;\r\n        string status;\r\n    }\r\n    struct Notif {\r\n        address shipperNotified;\r\n        string binNotif; // Changed type to string\r\n        bool done;\r\n    }\r\n    event BinCreated(string id);\r\n    //event BinCreated(string id);\r\n    event CollectionCreated(string id);\r\n    event ModifShipper(string message);\r\n    event ModifCitizen(string message);\r\n    uint256 public wasteCount;\r\n    uint256 public binCount;\r\n    uint256 public collectionCount;\r\n    mapping(string => Bin) public bins; // Changed key type to string\r\n    mapping(string => Collection) public collections;\r\n    string[] binIds; // Changed type to string\r\n    string[] collectionIds;\r\n    string[] public wasteIds; // Changed type to string\r\n    mapping(string => Waste) public wastes; // Changed key type to string\r\n    address[] citizens;\r\n    address recycler = address(0x4494f3bb19F95BB33EC116887b9dbd728C008f9b);\r\n    address[] shippers;\r\n    mapping(string => bool) isBin;\r\n    mapping(string => bool) isCollection;\r\n    mapping(string => bool) isWaste;\r\n    mapping(address => bool) isCitizen;\r\n    mapping(address => bool) isShipper;\r\n    //mapping(address => mapping(string => Notif)) public notifications; // Changed key type to string\r\n    mapping(address => uint256) public citizenRewards;\r\n    uint256 shipCount=0;\r\n    mapping(address => mapping(string => Notif))  notifications;\r\n\r\n\r\n  uint public maxSupply;\r\n    constructor() ERC20(\"GreenEarn Transfer\", \"GRN\") Ownable(msg.sender) {\r\n        maxSupply = 1000000000000000000000; // 1000000000000000000000 GRN\r\n        mint(msg.sender, 1000000000000000000000); // Mint initial supply to contract deployer\r\n    }\r\n\r\n    function mint(address to, uint amount) public onlyOwner {\r\n        require(totalSupply() + amount <= maxSupply, \"Max Supply Exceeded\");\r\n        _mint(to, amount);\r\n    }\r\n\r\n\r\n                     //*************Bin************//\r\n    function createBin(string memory _location,  uint256 _capacity, uint256 _currentWeight) external onlyOwner returns (string memory) {\r\n        string memory _id = generateUniqueId();\r\n        require(!isBin[_id], \"Generated ID already exists\");\r\n        bins[_id] = Bin(_id, _location,  _capacity, _currentWeight);\r\n        binIds.push(_id);\r\n        binCount++;\r\n        isBin[_id] = true;\r\n        emit BinCreated(_id);\r\n        return _id;\r\n    }\r\n\r\n    function modifyBin(string memory _id, string memory _location,  uint256 _capacity, uint256 _currentWeight) external onlyOwner {\r\n        require(isBin[_id], \"Bin does not exist\");\r\n        bins[_id] = Bin(_id, _location,  _capacity, _currentWeight);\r\n    }\r\n\r\n    function deleteBin(string memory _id) external onlyOwner {\r\n        require(isBin[_id], \"Bin does not exist\");\r\n        \r\n        // Update mappings and arrays\r\n        isBin[_id] = false;\r\n        delete bins[_id];\r\n        \r\n        // Find and remove the bin ID from binIds array\r\n        for (uint256 i = 0; i < binIds.length; i++) {\r\n            if (keccak256(bytes(binIds[i])) == keccak256(bytes(_id))) {\r\n                for (uint256 j = i; j < binIds.length - 1; j++) {\r\n                    binIds[j] = binIds[j + 1];\r\n                }\r\n                binIds.pop();\r\n                isBin[_id]=false;\r\n                break;\r\n            }\r\n        }\r\n        \r\n        // Decrement binCount\r\n        binCount--;\r\n    }\r\n    \r\n    function getBins() public view returns (string[] memory, string[] memory, uint256[] memory, uint256[] memory) {\r\n        string[] memory ids = new string[](binCount);\r\n        string[] memory locations = new string[](binCount);\r\n       \r\n        uint256[] memory capacities = new uint256[](binCount);\r\n        uint256[] memory currentWeights = new uint256[](binCount);\r\n\r\n        for (uint256 i = 0; i < binCount; i++) {\r\n            Bin memory bin = bins[binIds[i]];\r\n            ids[i] = bin.id;\r\n            locations[i] = bin.location;\r\n            capacities[i] = bin.capacity;\r\n            currentWeights[i] = bin.currentWeight;\r\n        }\r\n\r\n        return (ids, locations, capacities, currentWeights);\r\n    }\r\n    // function generateUniqueId() internal view returns (string memory) {\r\n    //     bytes32 hash = keccak256(abi.encodePacked(block.timestamp, block.prevrandao, binCount));\r\n    //     uint256 value=(uint256(hash));\r\n    //     if (value == 0) {\r\n    //         return \"0\";\r\n    //     }\r\n    //     uint256 temp = value;\r\n    //     uint256 digits;\r\n    //     while (temp != 0) {\r\n    //         digits++;\r\n    //         temp /= 10;\r\n    //     }\r\n    //     bytes memory buffer = new bytes(digits);\r\n    //     while (value != 0) {\r\n    //         digits -= 1;\r\n    //         buffer[digits] = bytes1(uint8(48 + uint256(value % 10)));\r\n    //         value /= 10;\r\n    //     }\r\n    //     return string(buffer);\r\n    // }\r\n\r\n// Function to generate a unique ID\r\nfunction generateUniqueId() internal view returns (string memory) {\r\n    bytes32 hash = keccak256(abi.encodePacked(\r\n        block.timestamp,\r\n        block.prevrandao,\r\n        block.coinbase,\r\n        msg.sender,\r\n        binCount,\r\n        collectionCount // Assuming this is a counter for collections\r\n    ));\r\n\r\n    // Convert hash to string\r\n    uint256 value = uint256(hash);\r\n    if (value == 0) {\r\n        return \"0\";\r\n    }\r\n    \r\n    uint256 temp = value;\r\n    uint256 digits;\r\n    \r\n    while (temp != 0) {\r\n        digits++;\r\n        temp /= 10;\r\n    }\r\n    \r\n    bytes memory buffer = new bytes(digits);\r\n    \r\n    while (value != 0) {\r\n        digits -= 1;\r\n        buffer[digits] = bytes1(uint8(48 + uint256(value % 10)));\r\n        value /= 10;\r\n    }\r\n    \r\n    return string(buffer);\r\n}\r\n\r\n                   //*****************Shipper********************//\r\n    function createShipper(address _shipper) external onlyOwner {\r\n        require(!isShipper[_shipper], \"Shipper already exists\");\r\n\r\n        shippers.push(_shipper);\r\n        isShipper[_shipper] = true;\r\n    }\r\n\r\n    // function getShippers() public view returns (address[] memory) {\r\n    //     return shippers;\r\n    // }\r\n\r\n    // function notifyShipper(address _shipper, string memory _idBin, string memory _date) external onlyOwner {\r\n\r\n    //     require(isShipper[_shipper], \"Shipper doesn't exist\");\r\n    //     require(isBin[_idBin], \"Bin doesn't exist\");\r\n    //     notifications[_shipper][_idBin] = Notif(_shipper, _idBin, false);\r\n    // }\r\n\r\n    function createCollection(address _shipper, string memory _idBin, string memory _date) external onlyOwner returns (string memory) {\r\n        require(isShipper[_shipper], \"Shipper doesn't exist\");\r\n        require(isBin[_idBin], \"Bin doesn't exist\");\r\n\r\n        // Check if a collection with the same bin and date already exists\r\n        for (uint256 i = 0; i < collectionIds.length; i++) {\r\n            Collection storage collection = collections[collectionIds[i]];\r\n            if (keccak256(bytes(collection.binNotif)) == keccak256(bytes(_idBin)) && keccak256(bytes(collection.date)) == keccak256(bytes(_date))) {\r\n                revert(\"Collection already exists for this bin and date\");\r\n            }\r\n        }\r\n        // Generate a unique ID for the new collection\r\n        string memory _idCollection = generateUniqueId();\r\n        require(!isCollection[_idCollection], \"Generated IDCollection already exists\");\r\n\r\n        // Update dateCollection for waiting wastes with the same bin ID\r\n        for (uint256 j = 0; j < wasteIds.length; j++) {\r\n            Waste storage waste = wastes[wasteIds[j]];\r\n            if (keccak256(bytes(waste.binId)) == keccak256(bytes(_idBin)) && keccak256(bytes(waste.status)) == keccak256(bytes(\"Waiting\"))) {\r\n                waste.dateCollection = _date;\r\n                waste.shipperId=_shipper;\r\n            }\r\n        }\r\n        // Create the new collection\r\n        collections[_idCollection] = Collection(_idCollection, _shipper, _idBin, false, _date, \"Waiting\");\r\n        collectionIds.push(_idCollection);\r\n        collectionCount++;\r\n        isCollection[_idCollection] = true;\r\n         if (!notifications[_shipper][_date].done) {\r\n            // If not, create a new notification\r\n            notifications[_shipper][_date] = Notif(_shipper, _idBin, false);\r\n        }\r\n        emit CollectionCreated(_idCollection);\r\n\r\n        return _idCollection;\r\n    }\r\n\r\n\r\n    function shipCollection(string memory _idCollection, address _shipperId, string memory _date) external onlyOwner  {\r\n        require(isCollection[_idCollection], \"Collection doesn't exist\");\r\n        if (collections[_idCollection].shipperNotified != _shipperId) {\r\n            revert(\"This collection doesn't concern this shipper\");\r\n        }\r\n        string storage date= collections[_idCollection].date;\r\n        // Update collection status and shipper notification\r\n        // Update waste status and dateCollection for all wastes in the collection\r\n        for (uint256 i = 0; i < wasteIds.length; i++) {\r\n            Waste storage waste = wastes[wasteIds[i]];\r\n            if ((keccak256(bytes(waste.binId)) == keccak256(bytes(collections[_idCollection].binNotif)) )&&\r\n                (waste.shipperId == _shipperId) && (keccak256(bytes(waste.dateCollection)) == keccak256(bytes(collections[_idCollection].date)))) {\r\n                    waste.dateCollection = _date;\r\n                    waste.status = \"Shipped\"; \r\n                    shipCount++; // Increment shipCount for each waste that meets the conditions\r\n            }\r\n        }\r\n        collections[_idCollection].date = _date;\r\n        collections[_idCollection].status = \"Shipped\";\r\n        notifications[_shipperId][date].done=true;\r\n    }\r\n \r\n    // function deleteShipper(address _shipperAddress) external onlyOwner {\r\n    //     for (uint256 i = 0; i < shippers.length; i++) {\r\n    //         if (shippers[i] == _shipperAddress) {\r\n    //             shippers[i] = shippers[\r\n    //                 shippers.length - 1\r\n    //             ];\r\n    //             shippers.pop();\r\n    //             isShipper[_shipperAddress]=false;\r\n    //             break;\r\n    //         }\r\n    //     }\r\n    // }\r\n\r\n    function modifyShipper(address _shipperAddress) external onlyOwner {\r\n        require(isShipper[ _shipperAddress], \"Shipper does not exist\");\r\n        \r\n        // Emit a message after the require statement\r\n        emit ModifShipper(\"Shipper can be modified\");\r\n        \r\n        // Further logic here if needed\r\n    }\r\n    \r\n                         //*****************Recycler********************//\r\n    \r\n    function recycleCollection(string memory _idCollection,string memory _date) external  {\r\n        require(isCollection[_idCollection], \"Collection doesn't exist\");\r\n        \r\n        for (uint256 i = 0; i < wasteIds.length; i++) {\r\n            Waste storage waste = wastes[wasteIds[i]];\r\n            if (keccak256(bytes(waste.binId)) == keccak256(bytes(collections[_idCollection].binNotif)) &&\r\n                keccak256(bytes(waste.dateCollection)) == keccak256(bytes(collections[_idCollection].date))) {\r\n                if (keccak256(bytes(waste.status)) == keccak256(bytes(\"Shipped\"))) {\r\n                    waste.dateCollection=_date;\r\n                    waste.status = \"Recyled\";\r\n                    uint256 rewardAmount = waste.weight * 1000; // Example: 1000 tokens per unit weight\r\n                    // Transfer reward to citizen\r\n                    _transfer(msg.sender, waste.citizenId, rewardAmount);\r\n                }\r\n            }\r\n        }\r\n        collections[_idCollection].date=_date;\r\n        collections[_idCollection].status = \"Recyled\";\r\n    }                         \r\n                     \r\n                     \r\n                        //*****************Citizen********************//\r\n    function createCitizen(address _citizen) external onlyOwner {\r\n        require(!isCitizen[_citizen], \"Citizen already exists\");\r\n       // require(_citizen != owner, \"Cannot create citizen with owner's address\");\r\n\r\n        citizens.push(_citizen);\r\n        isCitizen[_citizen] = true;\r\n    }\r\n\r\n    function deleteCitizen(address _citizenAddress) external onlyOwner {\r\n        for (uint256 i = 0; i < citizens.length; i++) {\r\n            if (citizens[i] == _citizenAddress) {\r\n                citizens[i] = citizens[\r\n                    citizens.length - 1\r\n                ];\r\n                citizens.pop();\r\n                isCitizen[_citizenAddress]=false;\r\n                break;\r\n            }\r\n        }\r\n    }\r\n\r\n    function modifyCitizen(address _citizenAddress) external onlyOwner {\r\n        require(isCitizen[ _citizenAddress], \"Citizen does not exist\");\r\n        \r\n        // Emit a message after the require statement\r\n        emit ModifCitizen(\"Citizen can be modified\");\r\n        \r\n        // Further logic here if needed\r\n    }\r\n\r\n    function getIsBin(string memory _binId) external view returns (bool) {\r\n        require(isBin[_binId], \"Bin doesn't exist\");\r\n        return isBin[_binId];\r\n    }\r\n\r\n    function getIsCitizen(address _citizenId) external view returns (bool) {\r\n        require(isCitizen[_citizenId], \"Citizen doesn't exist\");\r\n        return isCitizen[_citizenId];\r\n    }\r\n\r\n    function CheckWaste(string memory _wasteId) external view returns (bool) {\r\n        require(!isWaste[_wasteId], \"Watse exist\");\r\n        return !isWaste[_wasteId];\r\n    }\r\n\r\n    function setWaste(string memory _wasteId,uint256 _weight,address _citizenId,string memory _binId) external {\r\n        wastes[_wasteId]=Waste(_wasteId, \"Waiting\", _weight, _citizenId, address(0), address(0), _binId, \"\");\r\n        wasteIds.push(_wasteId);\r\n        isWaste[_wasteId]=true;\r\n        wasteCount++;\r\n       // emit WasteCreated(_wasteId);\r\n\r\n       \r\n    }\r\n\r\n\r\n    /*TEEEEEEEEEEEEEEEEEEEEEEEEEEEEEEESTS */\r\n    // function getCountWaste() view external onlyOwner() returns (uint256){\r\n    //     return wasteCount;\r\n    // }\r\n\r\n    // function getWastes()view external onlyOwner returns (Waste[]memory){\r\n    //     Waste[] memory trash = new Waste[](wasteIds.length);\r\n    //      for (uint256 i = 0; i < wasteIds.length; i++) {\r\n    //         Waste storage waste = wastes[wasteIds[i]];\r\n    //         trash[i]=waste;\r\n    //      }\r\n    //     return trash;\r\n    // }\r\n\r\n    // function getWastesIDs()view external onlyOwner returns (string[] memory){\r\n       \r\n    //     return wasteIds;\r\n    // }\r\n\r\n    // function getWastesStatus()view external onlyOwner returns (string[] memory,string[] memory){\r\n    //     string[] memory Status = new string[](wasteIds.length);\r\n    //     for (uint256 i = 0; i < wasteIds.length; i++) {\r\n    //         Waste storage waste = wastes[wasteIds[i]];\r\n    //         Status[i] = waste.status;\r\n    //     }\r\n    //     return(wasteIds,Status);\r\n    // }\r\n\r\n    // function getCollectionsIds()view external onlyOwner returns(string[] memory) {\r\n    //      return collectionIds;\r\n    // } \r\n\r\n    // function getCollectionsStatus()view external onlyOwner returns(string[] memory) {\r\n    //       string[] memory Status = new string[](collectionIds.length);\r\n    //     for (uint256 i = 0; i < collectionIds.length; i++) {\r\n    //         Collection storage coll = collections[collectionIds[i]];\r\n    //         Status[i] = coll.status;\r\n    //     }\r\n    //     return(Status);\r\n    // } \r\n\r\n    // // function getShipCount() view external onlyOwner() returns(uint256){\r\n    // //     return shipCount;\r\n    // // }\r\n    // // function getCitizens() public view returns (address[] memory) {\r\n    // //     return citizens;\r\n    // // }\r\n    // function getNotifByShipper(address _shipper) public view returns (Notif[] memory) {\r\n    //     Notif[] memory shipperNotifications = new Notif[](binCount);\r\n\r\n    //     for (uint256 i = 0; i < binCount; i++) {\r\n    //         string memory binId = binIds[i];\r\n    //         if (isBin[binId]) {\r\n    //             shipperNotifications[i] = notifications[_shipper][binId];\r\n    //         }\r\n    //     }\r\n\r\n    //     return shipperNotifications;\r\n    // }\r\n\r\n}",
  "sourcePath": "C:\\Users\\MSI\\Desktop\\PFA_GUI - Copie\\truffle\\contracts\\WasteManagement.sol",
  "compiler": {
    "name": "solc",
    "version": "0.8.20+commit.a1b79de6.Emscripten.clang"
  },
  "schemaVersion": "3.4.16",
  "updatedAt": "2024-03-28T21:20:58.134Z",
  "networkType": "ethereum",
  "devdoc": {
    "errors": {
      "ERC20InsufficientAllowance(address,uint256,uint256)": [
        {
          "details": "Indicates a failure with the `spender`s `allowance`. Used in transfers.",
          "params": {
            "allowance": "Amount of tokens a `spender` is allowed to operate with.",
            "needed": "Minimum amount required to perform a transfer.",
            "spender": "Address that may be allowed to operate on tokens without being their owner."
          }
        }
      ],
      "ERC20InsufficientBalance(address,uint256,uint256)": [
        {
          "details": "Indicates an error related to the current `balance` of a `sender`. Used in transfers.",
          "params": {
            "balance": "Current balance for the interacting account.",
            "needed": "Minimum amount required to perform a transfer.",
            "sender": "Address whose tokens are being transferred."
          }
        }
      ],
      "ERC20InvalidApprover(address)": [
        {
          "details": "Indicates a failure with the `approver` of a token to be approved. Used in approvals.",
          "params": {
            "approver": "Address initiating an approval operation."
          }
        }
      ],
      "ERC20InvalidReceiver(address)": [
        {
          "details": "Indicates a failure with the token `receiver`. Used in transfers.",
          "params": {
            "receiver": "Address to which tokens are being transferred."
          }
        }
      ],
      "ERC20InvalidSender(address)": [
        {
          "details": "Indicates a failure with the token `sender`. Used in transfers.",
          "params": {
            "sender": "Address whose tokens are being transferred."
          }
        }
      ],
      "ERC20InvalidSpender(address)": [
        {
          "details": "Indicates a failure with the `spender` to be approved. Used in approvals.",
          "params": {
            "spender": "Address that may be allowed to operate on tokens without being their owner."
          }
        }
      ],
      "OwnableInvalidOwner(address)": [
        {
          "details": "The owner is not a valid owner account. (eg. `address(0)`)"
        }
      ],
      "OwnableUnauthorizedAccount(address)": [
        {
          "details": "The caller account is not authorized to perform an operation."
        }
      ]
    },
    "events": {
      "Approval(address,address,uint256)": {
        "details": "Emitted when the allowance of a `spender` for an `owner` is set by a call to {approve}. `value` is the new allowance."
      },
      "Transfer(address,address,uint256)": {
        "details": "Emitted when `value` tokens are moved from one account (`from`) to another (`to`). Note that `value` may be zero."
      }
    },
    "kind": "dev",
    "methods": {
      "allowance(address,address)": {
        "details": "See {IERC20-allowance}."
      },
      "approve(address,uint256)": {
        "details": "See {IERC20-approve}. NOTE: If `value` is the maximum `uint256`, the allowance is not updated on `transferFrom`. This is semantically equivalent to an infinite approval. Requirements: - `spender` cannot be the zero address."
      },
      "balanceOf(address)": {
        "details": "See {IERC20-balanceOf}."
      },
      "decimals()": {
        "details": "Returns the number of decimals used to get its user representation. For example, if `decimals` equals `2`, a balance of `505` tokens should be displayed to a user as `5.05` (`505 / 10 ** 2`). Tokens usually opt for a value of 18, imitating the relationship between Ether and Wei. This is the default value returned by this function, unless it's overridden. NOTE: This information is only used for _display_ purposes: it in no way affects any of the arithmetic of the contract, including {IERC20-balanceOf} and {IERC20-transfer}."
      },
      "name()": {
        "details": "Returns the name of the token."
      },
      "owner()": {
        "details": "Returns the address of the current owner."
      },
      "renounceOwnership()": {
        "details": "Leaves the contract without owner. It will not be possible to call `onlyOwner` functions. Can only be called by the current owner. NOTE: Renouncing ownership will leave the contract without an owner, thereby disabling any functionality that is only available to the owner."
      },
      "symbol()": {
        "details": "Returns the symbol of the token, usually a shorter version of the name."
      },
      "totalSupply()": {
        "details": "See {IERC20-totalSupply}."
      },
      "transfer(address,uint256)": {
        "details": "See {IERC20-transfer}. Requirements: - `to` cannot be the zero address. - the caller must have a balance of at least `value`."
      },
      "transferFrom(address,address,uint256)": {
        "details": "See {IERC20-transferFrom}. Emits an {Approval} event indicating the updated allowance. This is not required by the EIP. See the note at the beginning of {ERC20}. NOTE: Does not update the allowance if the current allowance is the maximum `uint256`. Requirements: - `from` and `to` cannot be the zero address. - `from` must have a balance of at least `value`. - the caller must have allowance for ``from``'s tokens of at least `value`."
      },
      "transferOwnership(address)": {
        "details": "Transfers ownership of the contract to a new account (`newOwner`). Can only be called by the current owner."
      }
    },
    "version": 1
  },
  "userdoc": {
    "kind": "user",
    "methods": {},
    "version": 1
  }
}