{
  "contractName": "WasteManagement",
  "abi": [
    {
      "inputs": [],
      "stateMutability": "nonpayable",
      "type": "constructor"
    },
    {
      "inputs": [
        {
          "internalType": "address",
          "name": "spender",
          "type": "address"
        },
        {
          "internalType": "uint256",
          "name": "allowance",
          "type": "uint256"
        },
        {
          "internalType": "uint256",
          "name": "needed",
          "type": "uint256"
        }
      ],
      "name": "ERC20InsufficientAllowance",
      "type": "error"
    },
    {
      "inputs": [
        {
          "internalType": "address",
          "name": "sender",
          "type": "address"
        },
        {
          "internalType": "uint256",
          "name": "balance",
          "type": "uint256"
        },
        {
          "internalType": "uint256",
          "name": "needed",
          "type": "uint256"
        }
      ],
      "name": "ERC20InsufficientBalance",
      "type": "error"
    },
    {
      "inputs": [
        {
          "internalType": "address",
          "name": "approver",
          "type": "address"
        }
      ],
      "name": "ERC20InvalidApprover",
      "type": "error"
    },
    {
      "inputs": [
        {
          "internalType": "address",
          "name": "receiver",
          "type": "address"
        }
      ],
      "name": "ERC20InvalidReceiver",
      "type": "error"
    },
    {
      "inputs": [
        {
          "internalType": "address",
          "name": "sender",
          "type": "address"
        }
      ],
      "name": "ERC20InvalidSender",
      "type": "error"
    },
    {
      "inputs": [
        {
          "internalType": "address",
          "name": "spender",
          "type": "address"
        }
      ],
      "name": "ERC20InvalidSpender",
      "type": "error"
    },
    {
      "inputs": [
        {
          "internalType": "address",
          "name": "owner",
          "type": "address"
        }
      ],
      "name": "OwnableInvalidOwner",
      "type": "error"
    },
    {
      "inputs": [
        {
          "internalType": "address",
          "name": "account",
          "type": "address"
        }
      ],
      "name": "OwnableUnauthorizedAccount",
      "type": "error"
    },
    {
      "anonymous": false,
      "inputs": [
        {
          "indexed": true,
          "internalType": "address",
          "name": "owner",
          "type": "address"
        },
        {
          "indexed": true,
          "internalType": "address",
          "name": "spender",
          "type": "address"
        },
        {
          "indexed": false,
          "internalType": "uint256",
          "name": "value",
          "type": "uint256"
        }
      ],
      "name": "Approval",
      "type": "event"
    },
    {
      "anonymous": false,
      "inputs": [
        {
          "indexed": false,
          "internalType": "string",
          "name": "id",
          "type": "string"
        }
      ],
      "name": "BinCreated",
      "type": "event"
    },
    {
      "anonymous": false,
      "inputs": [
        {
          "indexed": false,
          "internalType": "string",
          "name": "id",
          "type": "string"
        }
      ],
      "name": "CollectionCreated",
      "type": "event"
    },
    {
      "anonymous": false,
      "inputs": [
        {
          "indexed": false,
          "internalType": "string",
          "name": "message",
          "type": "string"
        }
      ],
      "name": "ModifCitizen",
      "type": "event"
    },
    {
      "anonymous": false,
      "inputs": [
        {
          "indexed": false,
          "internalType": "string",
          "name": "message",
          "type": "string"
        }
      ],
      "name": "ModifShipper",
      "type": "event"
    },
    {
      "anonymous": false,
      "inputs": [
        {
          "indexed": true,
          "internalType": "address",
          "name": "previousOwner",
          "type": "address"
        },
        {
          "indexed": true,
          "internalType": "address",
          "name": "newOwner",
          "type": "address"
        }
      ],
      "name": "OwnershipTransferred",
      "type": "event"
    },
    {
      "anonymous": false,
      "inputs": [
        {
          "indexed": true,
          "internalType": "address",
          "name": "from",
          "type": "address"
        },
        {
          "indexed": true,
          "internalType": "address",
          "name": "to",
          "type": "address"
        },
        {
          "indexed": false,
          "internalType": "uint256",
          "name": "value",
          "type": "uint256"
        }
      ],
      "name": "Transfer",
      "type": "event"
    },
    {
      "inputs": [
        {
          "internalType": "address",
          "name": "owner",
          "type": "address"
        },
        {
          "internalType": "address",
          "name": "spender",
          "type": "address"
        }
      ],
      "name": "allowance",
      "outputs": [
        {
          "internalType": "uint256",
          "name": "",
          "type": "uint256"
        }
      ],
      "stateMutability": "view",
      "type": "function",
      "constant": true
    },
    {
      "inputs": [
        {
          "internalType": "address",
          "name": "spender",
          "type": "address"
        },
        {
          "internalType": "uint256",
          "name": "value",
          "type": "uint256"
        }
      ],
      "name": "approve",
      "outputs": [
        {
          "internalType": "bool",
          "name": "",
          "type": "bool"
        }
      ],
      "stateMutability": "nonpayable",
      "type": "function"
    },
    {
      "inputs": [
        {
          "internalType": "address",
          "name": "account",
          "type": "address"
        }
      ],
      "name": "balanceOf",
      "outputs": [
        {
          "internalType": "uint256",
          "name": "",
          "type": "uint256"
        }
      ],
      "stateMutability": "view",
      "type": "function",
      "constant": true
    },
    {
      "inputs": [],
      "name": "binCount",
      "outputs": [
        {
          "internalType": "uint256",
          "name": "",
          "type": "uint256"
        }
      ],
      "stateMutability": "view",
      "type": "function",
      "constant": true
    },
    {
      "inputs": [
        {
          "internalType": "string",
          "name": "",
          "type": "string"
        }
      ],
      "name": "bins",
      "outputs": [
        {
          "internalType": "string",
          "name": "id",
          "type": "string"
        },
        {
          "internalType": "string",
          "name": "location",
          "type": "string"
        },
        {
          "internalType": "uint256",
          "name": "capacity",
          "type": "uint256"
        },
        {
          "internalType": "uint256",
          "name": "currentWeight",
          "type": "uint256"
        }
      ],
      "stateMutability": "view",
      "type": "function",
      "constant": true
    },
    {
      "inputs": [
        {
          "internalType": "address",
          "name": "",
          "type": "address"
        }
      ],
      "name": "citizenRewards",
      "outputs": [
        {
          "internalType": "uint256",
          "name": "",
          "type": "uint256"
        }
      ],
      "stateMutability": "view",
      "type": "function",
      "constant": true
    },
    {
      "inputs": [],
      "name": "collectionCount",
      "outputs": [
        {
          "internalType": "uint256",
          "name": "",
          "type": "uint256"
        }
      ],
      "stateMutability": "view",
      "type": "function",
      "constant": true
    },
    {
      "inputs": [
        {
          "internalType": "string",
          "name": "",
          "type": "string"
        }
      ],
      "name": "collections",
      "outputs": [
        {
          "internalType": "string",
          "name": "idCollection",
          "type": "string"
        },
        {
          "internalType": "address",
          "name": "shipperNotified",
          "type": "address"
        },
        {
          "internalType": "string",
          "name": "binNotif",
          "type": "string"
        },
        {
          "internalType": "bool",
          "name": "done",
          "type": "bool"
        },
        {
          "internalType": "string",
          "name": "date",
          "type": "string"
        },
        {
          "internalType": "string",
          "name": "status",
          "type": "string"
        }
      ],
      "stateMutability": "view",
      "type": "function",
      "constant": true
    },
    {
      "inputs": [],
      "name": "decimals",
      "outputs": [
        {
          "internalType": "uint8",
          "name": "",
          "type": "uint8"
        }
      ],
      "stateMutability": "view",
      "type": "function",
      "constant": true
    },
    {
      "inputs": [],
      "name": "dispoRC",
      "outputs": [
        {
          "internalType": "uint256",
          "name": "",
          "type": "uint256"
        }
      ],
      "stateMutability": "view",
      "type": "function",
      "constant": true
    },
    {
      "inputs": [],
      "name": "maxSupply",
      "outputs": [
        {
          "internalType": "uint256",
          "name": "",
          "type": "uint256"
        }
      ],
      "stateMutability": "view",
      "type": "function",
      "constant": true
    },
    {
      "inputs": [],
      "name": "name",
      "outputs": [
        {
          "internalType": "string",
          "name": "",
          "type": "string"
        }
      ],
      "stateMutability": "view",
      "type": "function",
      "constant": true
    },
    {
      "inputs": [],
      "name": "owner",
      "outputs": [
        {
          "internalType": "address",
          "name": "",
          "type": "address"
        }
      ],
      "stateMutability": "view",
      "type": "function",
      "constant": true
    },
    {
      "inputs": [],
      "name": "renounceOwnership",
      "outputs": [],
      "stateMutability": "nonpayable",
      "type": "function"
    },
    {
      "inputs": [],
      "name": "symbol",
      "outputs": [
        {
          "internalType": "string",
          "name": "",
          "type": "string"
        }
      ],
      "stateMutability": "view",
      "type": "function",
      "constant": true
    },
    {
      "inputs": [],
      "name": "totalSupply",
      "outputs": [
        {
          "internalType": "uint256",
          "name": "",
          "type": "uint256"
        }
      ],
      "stateMutability": "view",
      "type": "function",
      "constant": true
    },
    {
      "inputs": [
        {
          "internalType": "address",
          "name": "from",
          "type": "address"
        },
        {
          "internalType": "address",
          "name": "to",
          "type": "address"
        },
        {
          "internalType": "uint256",
          "name": "value",
          "type": "uint256"
        }
      ],
      "name": "transferFrom",
      "outputs": [
        {
          "internalType": "bool",
          "name": "",
          "type": "bool"
        }
      ],
      "stateMutability": "nonpayable",
      "type": "function"
    },
    {
      "inputs": [
        {
          "internalType": "address",
          "name": "newOwner",
          "type": "address"
        }
      ],
      "name": "transferOwnership",
      "outputs": [],
      "stateMutability": "nonpayable",
      "type": "function"
    },
    {
      "inputs": [],
      "name": "wasteCount",
      "outputs": [
        {
          "internalType": "uint256",
          "name": "",
          "type": "uint256"
        }
      ],
      "stateMutability": "view",
      "type": "function",
      "constant": true
    },
    {
      "inputs": [
        {
          "internalType": "uint256",
          "name": "",
          "type": "uint256"
        }
      ],
      "name": "wasteIds",
      "outputs": [
        {
          "internalType": "string",
          "name": "",
          "type": "string"
        }
      ],
      "stateMutability": "view",
      "type": "function",
      "constant": true
    },
    {
      "inputs": [
        {
          "internalType": "string",
          "name": "",
          "type": "string"
        }
      ],
      "name": "wastes",
      "outputs": [
        {
          "internalType": "string",
          "name": "id",
          "type": "string"
        },
        {
          "internalType": "string",
          "name": "status",
          "type": "string"
        },
        {
          "internalType": "uint256",
          "name": "weight",
          "type": "uint256"
        },
        {
          "internalType": "address",
          "name": "citizenId",
          "type": "address"
        },
        {
          "internalType": "address",
          "name": "shipperId",
          "type": "address"
        },
        {
          "internalType": "address",
          "name": "recyclerId",
          "type": "address"
        },
        {
          "internalType": "string",
          "name": "binId",
          "type": "string"
        },
        {
          "internalType": "string",
          "name": "dateCollection",
          "type": "string"
        }
      ],
      "stateMutability": "view",
      "type": "function",
      "constant": true
    },
    {
      "inputs": [
        {
          "internalType": "address",
          "name": "to",
          "type": "address"
        },
        {
          "internalType": "uint256",
          "name": "amount",
          "type": "uint256"
        }
      ],
      "name": "mint",
      "outputs": [],
      "stateMutability": "nonpayable",
      "type": "function"
    },
    {
      "inputs": [
        {
          "internalType": "address",
          "name": "recipient",
          "type": "address"
        },
        {
          "internalType": "uint256",
          "name": "amount",
          "type": "uint256"
        }
      ],
      "name": "transfer",
      "outputs": [
        {
          "internalType": "bool",
          "name": "",
          "type": "bool"
        }
      ],
      "stateMutability": "nonpayable",
      "type": "function"
    },
    {
      "inputs": [
        {
          "internalType": "string",
          "name": "_location",
          "type": "string"
        },
        {
          "internalType": "uint256",
          "name": "_capacity",
          "type": "uint256"
        },
        {
          "internalType": "uint256",
          "name": "_currentWeight",
          "type": "uint256"
        }
      ],
      "name": "createBin",
      "outputs": [
        {
          "internalType": "string",
          "name": "",
          "type": "string"
        }
      ],
      "stateMutability": "nonpayable",
      "type": "function"
    },
    {
      "inputs": [
        {
          "internalType": "string",
          "name": "_id",
          "type": "string"
        },
        {
          "internalType": "string",
          "name": "_location",
          "type": "string"
        },
        {
          "internalType": "uint256",
          "name": "_capacity",
          "type": "uint256"
        },
        {
          "internalType": "uint256",
          "name": "_currentWeight",
          "type": "uint256"
        }
      ],
      "name": "modifyBin",
      "outputs": [],
      "stateMutability": "nonpayable",
      "type": "function"
    },
    {
      "inputs": [
        {
          "internalType": "string",
          "name": "_id",
          "type": "string"
        }
      ],
      "name": "deleteBin",
      "outputs": [],
      "stateMutability": "nonpayable",
      "type": "function"
    },
    {
      "inputs": [
        {
          "internalType": "address",
          "name": "_shipper",
          "type": "address"
        }
      ],
      "name": "createShipper",
      "outputs": [],
      "stateMutability": "nonpayable",
      "type": "function"
    },
    {
      "inputs": [
        {
          "internalType": "uint256",
          "name": "_weight",
          "type": "uint256"
        },
        {
          "internalType": "address",
          "name": "_citizenId",
          "type": "address"
        },
        {
          "internalType": "string",
          "name": "_binId",
          "type": "string"
        }
      ],
      "name": "createWaste",
      "outputs": [],
      "stateMutability": "nonpayable",
      "type": "function"
    },
    {
      "inputs": [
        {
          "internalType": "address",
          "name": "_shipper",
          "type": "address"
        },
        {
          "internalType": "string",
          "name": "_idBin",
          "type": "string"
        },
        {
          "internalType": "string",
          "name": "_date",
          "type": "string"
        }
      ],
      "name": "createCollection",
      "outputs": [
        {
          "internalType": "string",
          "name": "",
          "type": "string"
        }
      ],
      "stateMutability": "nonpayable",
      "type": "function"
    },
    {
      "inputs": [
        {
          "internalType": "string",
          "name": "_idCollection",
          "type": "string"
        },
        {
          "internalType": "address",
          "name": "_shipperId",
          "type": "address"
        },
        {
          "internalType": "string",
          "name": "_date",
          "type": "string"
        }
      ],
      "name": "shipCollection",
      "outputs": [],
      "stateMutability": "nonpayable",
      "type": "function"
    },
    {
      "inputs": [
        {
          "internalType": "address",
          "name": "_shipperAddress",
          "type": "address"
        }
      ],
      "name": "deleteShipper",
      "outputs": [],
      "stateMutability": "nonpayable",
      "type": "function"
    },
    {
      "inputs": [
        {
          "internalType": "address",
          "name": "_shipperAddress",
          "type": "address"
        }
      ],
      "name": "modifyShipper",
      "outputs": [],
      "stateMutability": "nonpayable",
      "type": "function"
    },
    {
      "inputs": [
        {
          "internalType": "string",
          "name": "_idCollection",
          "type": "string"
        },
        {
          "internalType": "string",
          "name": "_date",
          "type": "string"
        }
      ],
      "name": "recycleCollection",
      "outputs": [],
      "stateMutability": "nonpayable",
      "type": "function"
    },
    {
      "inputs": [
        {
          "internalType": "address",
          "name": "_citizen",
          "type": "address"
        }
      ],
      "name": "createCitizen",
      "outputs": [],
      "stateMutability": "nonpayable",
      "type": "function"
    },
    {
      "inputs": [
        {
          "internalType": "address",
          "name": "_citizenAddress",
          "type": "address"
        }
      ],
      "name": "deleteCitizen",
      "outputs": [],
      "stateMutability": "nonpayable",
      "type": "function"
    },
    {
      "inputs": [
        {
          "internalType": "address",
          "name": "_citizenAddress",
          "type": "address"
        }
      ],
      "name": "modifyCitizen",
      "outputs": [],
      "stateMutability": "nonpayable",
      "type": "function"
    }
  ],
  "bytecode": "0x60806040527356383d8e914ba54040125baed014ddcae01de81a601060006101000a81548173ffffffffffffffffffffffffffffffffffffffff021916908373ffffffffffffffffffffffffffffffffffffffff16021790555060006018553480156200006b57600080fd5b50336040518060400160405280601281526020017f477265656e4561726e205472616e7366657200000000000000000000000000008152506040518060400160405280600381526020017f47524e00000000000000000000000000000000000000000000000000000000008152508160039081620000ea919062000a9a565b508060049081620000fc919062000a9a565b505050600073ffffffffffffffffffffffffffffffffffffffff168173ffffffffffffffffffffffffffffffffffffffff1603620001745760006040517f1e4fbdf70000000000000000000000000000000000000000000000000000000081526004016200016b919062000bc6565b60405180910390fd5b62000185816200020560201b60201c565b50683635c9adc5dea00000601a81905550620001b133683635c9adc5dea00000620002cb60201b60201c565b620001ee601060009054906101000a900473ffffffffffffffffffffffffffffffffffffffff16683635c9adc5dea000006200035560201b60201c565b50683635c9adc5dea00000601b8190555062000d3b565b6000600560009054906101000a900473ffffffffffffffffffffffffffffffffffffffff16905081600560006101000a81548173ffffffffffffffffffffffffffffffffffffffff021916908373ffffffffffffffffffffffffffffffffffffffff1602179055508173ffffffffffffffffffffffffffffffffffffffff168173ffffffffffffffffffffffffffffffffffffffff167f8be0079c531659141344cd1fd0a4f28419497f9722a3daafe3b4186f6b6457e060405160405180910390a35050565b620002db6200038360201b60201c565b601a5481620002ef6200042560201b60201c565b620002fb919062000c12565b11156200033f576040517f08c379a0000000000000000000000000000000000000000000000000000000008152600401620003369062000cae565b60405180910390fd5b6200035182826200042f60201b60201c565b5050565b6000620003796200036b620004bc60201b60201c565b8484620004c460201b60201c565b6001905092915050565b62000393620004bc60201b60201c565b73ffffffffffffffffffffffffffffffffffffffff16620003b9620005c660201b60201c565b73ffffffffffffffffffffffffffffffffffffffff16146200042357620003e5620004bc60201b60201c565b6040517f118cdaa70000000000000000000000000000000000000000000000000000000081526004016200041a919062000bc6565b60405180910390fd5b565b6000600254905090565b600073ffffffffffffffffffffffffffffffffffffffff168273ffffffffffffffffffffffffffffffffffffffff1603620004a45760006040517fec442f050000000000000000000000000000000000000000000000000000000081526004016200049b919062000bc6565b60405180910390fd5b620004b860008383620005f060201b60201c565b5050565b600033905090565b600073ffffffffffffffffffffffffffffffffffffffff168373ffffffffffffffffffffffffffffffffffffffff1603620005395760006040517f96c6fd1e00000000000000000000000000000000000000000000000000000000815260040162000530919062000bc6565b60405180910390fd5b600073ffffffffffffffffffffffffffffffffffffffff168273ffffffffffffffffffffffffffffffffffffffff1603620005ae5760006040517fec442f05000000000000000000000000000000000000000000000000000000008152600401620005a5919062000bc6565b60405180910390fd5b620005c1838383620005f060201b60201c565b505050565b6000600560009054906101000a900473ffffffffffffffffffffffffffffffffffffffff16905090565b600073ffffffffffffffffffffffffffffffffffffffff168373ffffffffffffffffffffffffffffffffffffffff16036200064657806002600082825462000639919062000c12565b925050819055506200071c565b60008060008573ffffffffffffffffffffffffffffffffffffffff1673ffffffffffffffffffffffffffffffffffffffff16815260200190815260200160002054905081811015620006d5578381836040517fe450d38c000000000000000000000000000000000000000000000000000000008152600401620006cc9392919062000ce1565b60405180910390fd5b8181036000808673ffffffffffffffffffffffffffffffffffffffff1673ffffffffffffffffffffffffffffffffffffffff16815260200190815260200160002081905550505b600073ffffffffffffffffffffffffffffffffffffffff168273ffffffffffffffffffffffffffffffffffffffff1603620007675780600260008282540392505081905550620007b4565b806000808473ffffffffffffffffffffffffffffffffffffffff1673ffffffffffffffffffffffffffffffffffffffff168152602001908152602001600020600082825401925050819055505b8173ffffffffffffffffffffffffffffffffffffffff168373ffffffffffffffffffffffffffffffffffffffff167fddf252ad1be2c89b69c2b068fc378daa952ba7f163c4a11628f55a4df523b3ef8360405162000813919062000d1e565b60405180910390a3505050565b600081519050919050565b7f4e487b7100000000000000000000000000000000000000000000000000000000600052604160045260246000fd5b7f4e487b7100000000000000000000000000000000000000000000000000000000600052602260045260246000fd5b60006002820490506001821680620008a257607f821691505b602082108103620008b857620008b76200085a565b5b50919050565b60008190508160005260206000209050919050565b60006020601f8301049050919050565b600082821b905092915050565b600060088302620009227fffffffffffffffffffffffffffffffffffffffffffffffffffffffffffffffff82620008e3565b6200092e8683620008e3565b95508019841693508086168417925050509392505050565b6000819050919050565b6000819050919050565b60006200097b620009756200096f8462000946565b62000950565b62000946565b9050919050565b6000819050919050565b62000997836200095a565b620009af620009a68262000982565b848454620008f0565b825550505050565b600090565b620009c6620009b7565b620009d38184846200098c565b505050565b5b81811015620009fb57620009ef600082620009bc565b600181019050620009d9565b5050565b601f82111562000a4a5762000a1481620008be565b62000a1f84620008d3565b8101602085101562000a2f578190505b62000a4762000a3e85620008d3565b830182620009d8565b50505b505050565b600082821c905092915050565b600062000a6f6000198460080262000a4f565b1980831691505092915050565b600062000a8a838362000a5c565b9150826002028217905092915050565b62000aa58262000820565b67ffffffffffffffff81111562000ac15762000ac06200082b565b5b62000acd825462000889565b62000ada828285620009ff565b600060209050601f83116001811462000b12576000841562000afd578287015190505b62000b09858262000a7c565b86555062000b79565b601f19841662000b2286620008be565b60005b8281101562000b4c5784890151825560018201915060208501945060208101905062000b25565b8683101562000b6c578489015162000b68601f89168262000a5c565b8355505b6001600288020188555050505b505050505050565b600073ffffffffffffffffffffffffffffffffffffffff82169050919050565b600062000bae8262000b81565b9050919050565b62000bc08162000ba1565b82525050565b600060208201905062000bdd600083018462000bb5565b92915050565b7f4e487b7100000000000000000000000000000000000000000000000000000000600052601160045260246000fd5b600062000c1f8262000946565b915062000c2c8362000946565b925082820190508082111562000c475762000c4662000be3565b5b92915050565b600082825260208201905092915050565b7f4d617820537570706c7920457863656564656400000000000000000000000000600082015250565b600062000c9660138362000c4d565b915062000ca38262000c5e565b602082019050919050565b6000602082019050818103600083015262000cc98162000c87565b9050919050565b62000cdb8162000946565b82525050565b600060608201905062000cf8600083018662000bb5565b62000d07602083018562000cd0565b62000d16604083018462000cd0565b949350505050565b600060208201905062000d35600083018462000cd0565b92915050565b615b9f8062000d4b6000396000f3fe608060405234801561001057600080fd5b506004361061021c5760003560e01c8063715018a611610125578063c9b5ac5b116100ad578063d59728021161007c578063d59728021461065c578063d5abeb011461068c578063dd62ed3e146106aa578063df129891146106da578063f2fde38b146106f65761021c565b8063c9b5ac5b146105e8578063cc3b2e8814610604578063ce4717df14610622578063d57f966b1461063e5761021c565b80638da5cb5b116100f45780638da5cb5b1461054457806395d89b4114610562578063963464f114610580578063a9059cbb1461059c578063aef16e76146105cc5761021c565b8063715018a6146104d2578063715624c9146104dc57806381d06633146104f85780638d68d807146105285761021c565b806335a9c596116101a85780634a19d56d116101775780634a19d56d146103ea57806351793e0614610421578063537a828f1461043d57806366e54d7b1461046d57806370a08231146104a25761021c565b806335a9c596146103665780633c1bc3b9146103965780633e8176dc146103b257806340c10f19146103ce5761021c565b806318160ddd116101ef57806318160ddd146102c05780631b8926d1146102de578063236b831c146102fc57806323b872dd14610318578063313ce567146103485761021c565b806306fdde0314610221578063095ea7b31461023f57806313a172f31461026f57806316207393146102a2575b600080fd5b610229610712565b6040516102369190614081565b60405180910390f35b6102596004803603810190610254919061414b565b6107a4565b60405161026691906141a6565b60405180910390f35b610289600480360381019061028491906142f6565b6107c7565b604051610299949392919061434e565b60405180910390f35b6102aa61091d565b6040516102b791906143a1565b60405180910390f35b6102c8610923565b6040516102d591906143a1565b60405180910390f35b6102e661092d565b6040516102f391906143a1565b60405180910390f35b610316600480360381019061031191906143bc565b610933565b005b610332600480360381019061032d91906143e9565b6109ff565b60405161033f91906141a6565b60405180910390f35b610350610a2e565b60405161035d9190614458565b60405180910390f35b610380600480360381019061037b9190614473565b610a37565b60405161038d9190614081565b60405180910390f35b6103b060048036038101906103ab91906143bc565b61124e565b005b6103cc60048036038101906103c791906144fe565b6113a1565b005b6103e860048036038101906103e3919061414b565b611883565b005b61040460048036038101906103ff91906142f6565b6118f0565b604051610418989796959493929190614598565b60405180910390f35b61043b60048036038101906104369190614632565b611bce565b005b610457600480360381019061045291906146a1565b6120df565b6040516104649190614081565b60405180910390f35b610487600480360381019061048291906142f6565b61218b565b604051610499969594939291906146ce565b60405180910390f35b6104bc60048036038101906104b791906143bc565b61242a565b6040516104c991906143a1565b60405180910390f35b6104da612472565b005b6104f660048036038101906104f1919061474b565b612486565b005b610512600480360381019061050d91906147c3565b612825565b60405161051f9190614081565b60405180910390f35b610542600480360381019061053d91906143bc565b6129ef565b005b61054c612c6b565b6040516105599190614832565b60405180910390f35b61056a612c95565b6040516105779190614081565b60405180910390f35b61059a600480360381019061059591906143bc565b612d27565b005b6105b660048036038101906105b1919061414b565b612e7a565b6040516105c391906141a6565b60405180910390f35b6105e660048036038101906105e1919061484d565b612e98565b005b61060260048036038101906105fd91906143bc565b612f93565b005b61060c61305f565b60405161061991906143a1565b60405180910390f35b61063c600480360381019061063791906142f6565b613065565b005b6106466132d3565b60405161065391906143a1565b60405180910390f35b610676600480360381019061067191906143bc565b6132d9565b60405161068391906143a1565b60405180910390f35b6106946132f1565b6040516106a191906143a1565b60405180910390f35b6106c460048036038101906106bf91906148ec565b6132f7565b6040516106d191906143a1565b60405180910390f35b6106f460048036038101906106ef91906143bc565b61337e565b005b610710600480360381019061070b91906143bc565b6135fa565b005b6060600380546107219061495b565b80601f016020809104026020016040519081016040528092919081815260200182805461074d9061495b565b801561079a5780601f1061076f5761010080835404028352916020019161079a565b820191906000526020600020905b81548152906001019060200180831161077d57829003601f168201915b5050505050905090565b6000806107af613680565b90506107bc818585613688565b600191505092915050565b6009818051602081018201805184825260208301602085012081835280955050505050506000915090508060000180546108009061495b565b80601f016020809104026020016040519081016040528092919081815260200182805461082c9061495b565b80156108795780601f1061084e57610100808354040283529160200191610879565b820191906000526020600020905b81548152906001019060200180831161085c57829003601f168201915b50505050509080600101805461088e9061495b565b80601f01602080910402602001604051908101604052809291908181526020018280546108ba9061495b565b80156109075780601f106108dc57610100808354040283529160200191610907565b820191906000526020600020905b8154815290600101906020018083116108ea57829003601f168201915b5050505050908060020154908060030154905084565b60065481565b6000600254905090565b601b5481565b61093b61369a565b601560008273ffffffffffffffffffffffffffffffffffffffff1673ffffffffffffffffffffffffffffffffffffffff16815260200190815260200160002060009054906101000a900460ff166109c7576040517f08c379a00000000000000000000000000000000000000000000000000000000081526004016109be906149d8565b60405180910390fd5b7fb93a331b14aae9427dff15bad12885145072068d20db5bc47066d700abfe7dea6040516109f490614a44565b60405180910390a150565b600080610a0a613680565b9050610a17858285613721565b610a228585856137b5565b60019150509392505050565b60006012905090565b6060610a4161369a565b601660008573ffffffffffffffffffffffffffffffffffffffff1673ffffffffffffffffffffffffffffffffffffffff16815260200190815260200160002060009054906101000a900460ff16610acd576040517f08c379a0000000000000000000000000000000000000000000000000000000008152600401610ac490614ab0565b60405180910390fd5b601283604051610add9190614b0c565b908152602001604051809103902060009054906101000a900460ff16610b38576040517f08c379a0000000000000000000000000000000000000000000000000000000008152600401610b2f90614b6f565b60405180910390fd5b60005b600c80549050811015610c27576000600a600c8381548110610b6057610b5f614b8f565b5b90600052602060002001604051610b779190614c56565b90815260200160405180910390209050848051906020012081600201604051610ba09190614d10565b6040518091039020148015610bd35750838051906020012081600401604051610bc99190614d10565b6040518091039020145b15610c13576040517f08c379a0000000000000000000000000000000000000000000000000000000008152600401610c0a90614d99565b60405180910390fd5b508080610c1f90614de8565b915050610b3b565b506000610c326138a9565b9050601381604051610c449190614b0c565b908152602001604051809103902060009054906101000a900460ff1615610ca0576040517f08c379a0000000000000000000000000000000000000000000000000000000008152600401610c9790614ea2565b60405180910390fd5b60005b600d80549050811015610ddf576000600e600d8381548110610cc857610cc7614b8f565b5b90600052602060002001604051610cdf9190614c56565b90815260200160405180910390209050858051906020012081600601604051610d089190614d10565b6040518091039020148015610d7057506040518060400160405280600781526020017f57616974696e67000000000000000000000000000000000000000000000000008152508051906020012081600101604051610d669190614d10565b6040518091039020145b15610dcb5784816007019081610d869190615059565b50868160040160006101000a81548173ffffffffffffffffffffffffffffffffffffffff021916908373ffffffffffffffffffffffffffffffffffffffff1602179055505b508080610dd790614de8565b915050610ca3565b506040518060c001604052808281526020018673ffffffffffffffffffffffffffffffffffffffff1681526020018581526020016000151581526020018481526020016040518060400160405280600781526020017f57616974696e6700000000000000000000000000000000000000000000000000815250815250600a82604051610e6b9190614b0c565b90815260200160405180910390206000820151816000019081610e8e9190615059565b5060208201518160010160006101000a81548173ffffffffffffffffffffffffffffffffffffffff021916908373ffffffffffffffffffffffffffffffffffffffff1602179055506040820151816002019081610eeb9190615059565b5060608201518160030160006101000a81548160ff0219169083151502179055506080820151816004019081610f219190615059565b5060a0820151816005019081610f379190615059565b509050506103e8600985604051610f4e9190614b0c565b908152602001604051809103902060020154610f6a919061512b565b601b5411610fc057610f8533683635c9adc5dea00000611883565b610fba601060009054906101000a900473ffffffffffffffffffffffffffffffffffffffff16683635c9adc5dea00000612e7a565b50611008565b6103e8600985604051610fd39190614b0c565b908152602001604051809103902060020154610fef919061512b565b601b6000828254611000919061516d565b925050819055505b600c8190806001815401808255809150506001900390600052602060002001600090919091909150908161103c9190615059565b506008600081548092919061105090614de8565b919050555060016013826040516110679190614b0c565b908152602001604051809103902060006101000a81548160ff021916908315150217905550601960008673ffffffffffffffffffffffffffffffffffffffff1673ffffffffffffffffffffffffffffffffffffffff168152602001908152602001600020836040516110d99190614b0c565b908152602001604051809103902060020160009054906101000a900460ff1661120c5760405180606001604052808673ffffffffffffffffffffffffffffffffffffffff16815260200185815260200160001515815250601960008773ffffffffffffffffffffffffffffffffffffffff1673ffffffffffffffffffffffffffffffffffffffff1681526020019081526020016000208460405161117d9190614b0c565b908152602001604051809103902060008201518160000160006101000a81548173ffffffffffffffffffffffffffffffffffffffff021916908373ffffffffffffffffffffffffffffffffffffffff16021790555060208201518160010190816111e79190615059565b5060408201518160020160006101000a81548160ff0219169083151502179055509050505b7ff2e193f96c77b8eebe5989f9851e54078a47d1e2d8e3ca74dca8a4aeb249aebf8160405161123b9190614081565b60405180910390a1809150509392505050565b61125661369a565b601560008273ffffffffffffffffffffffffffffffffffffffff1673ffffffffffffffffffffffffffffffffffffffff16815260200190815260200160002060009054906101000a900460ff16156112e3576040517f08c379a00000000000000000000000000000000000000000000000000000000081526004016112da906151ed565b60405180910390fd5b600f819080600181540180825580915050600190039060005260206000200160009091909190916101000a81548173ffffffffffffffffffffffffffffffffffffffff021916908373ffffffffffffffffffffffffffffffffffffffff1602179055506001601560008373ffffffffffffffffffffffffffffffffffffffff1673ffffffffffffffffffffffffffffffffffffffff16815260200190815260200160002060006101000a81548160ff02191690831515021790555050565b6013836040516113b19190614b0c565b908152602001604051809103902060009054906101000a900460ff1661140c576040517f08c379a000000000000000000000000000000000000000000000000000000000815260040161140390615259565b60405180910390fd5b8173ffffffffffffffffffffffffffffffffffffffff163373ffffffffffffffffffffffffffffffffffffffff161461147a576040517f08c379a0000000000000000000000000000000000000000000000000000000008152600401611471906152c5565b60405180910390fd5b8173ffffffffffffffffffffffffffffffffffffffff16600a846040516114a19190614b0c565b908152602001604051809103902060010160009054906101000a900473ffffffffffffffffffffffffffffffffffffffff1673ffffffffffffffffffffffffffffffffffffffff1614611529576040517f08c379a000000000000000000000000000000000000000000000000000000000815260040161152090615357565b60405180910390fd5b6000600a8460405161153b9190614b0c565b9081526020016040518091039020600401905060005b600d8054905081101561172b576000600e600d838154811061157657611575614b8f565b5b9060005260206000200160405161158d9190614c56565b90815260200160405180910390209050600a866040516115ad9190614b0c565b90815260200160405180910390206002016040516115cb9190614d10565b6040518091039020816006016040516115e49190614d10565b604051809103902014801561164857508473ffffffffffffffffffffffffffffffffffffffff168160040160009054906101000a900473ffffffffffffffffffffffffffffffffffffffff1673ffffffffffffffffffffffffffffffffffffffff16145b80156116a05750600a8660405161165f9190614b0c565b908152602001604051809103902060040160405161167d9190614d10565b6040518091039020816007016040516116969190614d10565b6040518091039020145b1561171757838160070190816116b69190615059565b506040518060400160405280600781526020017f53686970706564000000000000000000000000000000000000000000000000008152508160010190816116fd9190615059565b506018600081548092919061171190614de8565b91905055505b50808061172390614de8565b915050611551565b5060006009600a866040516117409190614b0c565b908152602001604051809103902060020160405161175e9190614c56565b90815260200160405180910390206003018190555081600a856040516117849190614b0c565b908152602001604051809103902060040190816117a19190615059565b506040518060400160405280600781526020017f5368697070656400000000000000000000000000000000000000000000000000815250600a856040516117e89190614b0c565b908152602001604051809103902060050190816118059190615059565b506001601960008573ffffffffffffffffffffffffffffffffffffffff1673ffffffffffffffffffffffffffffffffffffffff16815260200190815260200160002082604051611855919061540f565b908152602001604051809103902060020160006101000a81548160ff02191690831515021790555050505050565b61188b61369a565b601a5481611897610923565b6118a19190615426565b11156118e2576040517f08c379a00000000000000000000000000000000000000000000000000000000081526004016118d9906154a6565b60405180910390fd5b6118ec8282613a50565b5050565b600e818051602081018201805184825260208301602085012081835280955050505050506000915090508060000180546119299061495b565b80601f01602080910402602001604051908101604052809291908181526020018280546119559061495b565b80156119a25780601f10611977576101008083540402835291602001916119a2565b820191906000526020600020905b81548152906001019060200180831161198557829003601f168201915b5050505050908060010180546119b79061495b565b80601f01602080910402602001604051908101604052809291908181526020018280546119e39061495b565b8015611a305780601f10611a0557610100808354040283529160200191611a30565b820191906000526020600020905b815481529060010190602001808311611a1357829003601f168201915b5050505050908060020154908060030160009054906101000a900473ffffffffffffffffffffffffffffffffffffffff16908060040160009054906101000a900473ffffffffffffffffffffffffffffffffffffffff16908060050160009054906101000a900473ffffffffffffffffffffffffffffffffffffffff1690806006018054611abd9061495b565b80601f0160208091040260200160405190810160405280929190818152602001828054611ae99061495b565b8015611b365780601f10611b0b57610100808354040283529160200191611b36565b820191906000526020600020905b815481529060010190602001808311611b1957829003601f168201915b505050505090806007018054611b4b9061495b565b80601f0160208091040260200160405190810160405280929190818152602001828054611b779061495b565b8015611bc45780601f10611b9957610100808354040283529160200191611bc4565b820191906000526020600020905b815481529060010190602001808311611ba757829003601f168201915b5050505050905088565b6000611bd86138a9565b9050601282604051611bea9190614b0c565b908152602001604051809103902060009054906101000a900460ff16611c45576040517f08c379a0000000000000000000000000000000000000000000000000000000008152600401611c3c90614b6f565b60405180910390fd5b601560008473ffffffffffffffffffffffffffffffffffffffff1673ffffffffffffffffffffffffffffffffffffffff16815260200190815260200160002060009054906101000a900460ff16611cd1576040517f08c379a0000000000000000000000000000000000000000000000000000000008152600401611cc890615512565b60405180910390fd5b601481604051611ce19190614b0c565b908152602001604051809103902060009054906101000a900460ff1615611d3d576040517f08c379a0000000000000000000000000000000000000000000000000000000008152600401611d349061557e565b60405180910390fd5b83600983604051611d4e9190614b0c565b908152602001604051809103902060030154600984604051611d709190614b0c565b908152602001604051809103902060020154611d8c919061516d565b1015611dcd576040517f08c379a0000000000000000000000000000000000000000000000000000000008152600401611dc4906155ea565b60405180910390fd5b8273ffffffffffffffffffffffffffffffffffffffff163373ffffffffffffffffffffffffffffffffffffffff1614611e3b576040517f08c379a0000000000000000000000000000000000000000000000000000000008152600401611e32906152c5565b60405180910390fd5b6040518061010001604052808281526020016040518060400160405280600781526020017f57616974696e670000000000000000000000000000000000000000000000000081525081526020018581526020018473ffffffffffffffffffffffffffffffffffffffff168152602001600073ffffffffffffffffffffffffffffffffffffffff168152602001600073ffffffffffffffffffffffffffffffffffffffff16815260200183815260200160405180602001604052806000815250815250600e82604051611f0d9190614b0c565b90815260200160405180910390206000820151816000019081611f309190615059565b506020820151816001019081611f469190615059565b506040820151816002015560608201518160030160006101000a81548173ffffffffffffffffffffffffffffffffffffffff021916908373ffffffffffffffffffffffffffffffffffffffff16021790555060808201518160040160006101000a81548173ffffffffffffffffffffffffffffffffffffffff021916908373ffffffffffffffffffffffffffffffffffffffff16021790555060a08201518160050160006101000a81548173ffffffffffffffffffffffffffffffffffffffff021916908373ffffffffffffffffffffffffffffffffffffffff16021790555060c082015181600601908161203b9190615059565b5060e08201518160070190816120519190615059565b50905050600d819080600181540180825580915050600190039060005260206000200160009091909190915090816120899190615059565b50600160148260405161209c9190614b0c565b908152602001604051809103902060006101000a81548160ff021916908315150217905550600660008154809291906120d490614de8565b919050555050505050565b600d81815481106120ef57600080fd5b90600052602060002001600091509050805461210a9061495b565b80601f01602080910402602001604051908101604052809291908181526020018280546121369061495b565b80156121835780601f1061215857610100808354040283529160200191612183565b820191906000526020600020905b81548152906001019060200180831161216657829003601f168201915b505050505081565b600a818051602081018201805184825260208301602085012081835280955050505050506000915090508060000180546121c49061495b565b80601f01602080910402602001604051908101604052809291908181526020018280546121f09061495b565b801561223d5780601f106122125761010080835404028352916020019161223d565b820191906000526020600020905b81548152906001019060200180831161222057829003601f168201915b5050505050908060010160009054906101000a900473ffffffffffffffffffffffffffffffffffffffff16908060020180546122789061495b565b80601f01602080910402602001604051908101604052809291908181526020018280546122a49061495b565b80156122f15780601f106122c6576101008083540402835291602001916122f1565b820191906000526020600020905b8154815290600101906020018083116122d457829003601f168201915b5050505050908060030160009054906101000a900460ff16908060040180546123199061495b565b80601f01602080910402602001604051908101604052809291908181526020018280546123459061495b565b80156123925780601f1061236757610100808354040283529160200191612392565b820191906000526020600020905b81548152906001019060200180831161237557829003601f168201915b5050505050908060050180546123a79061495b565b80601f01602080910402602001604051908101604052809291908181526020018280546123d39061495b565b80156124205780601f106123f557610100808354040283529160200191612420565b820191906000526020600020905b81548152906001019060200180831161240357829003601f168201915b5050505050905086565b60008060008373ffffffffffffffffffffffffffffffffffffffff1673ffffffffffffffffffffffffffffffffffffffff168152602001908152602001600020549050919050565b61247a61369a565b6124846000613ad2565b565b6013826040516124969190614b0c565b908152602001604051809103902060009054906101000a900460ff166124f1576040517f08c379a00000000000000000000000000000000000000000000000000000000081526004016124e890615259565b60405180910390fd5b601060009054906101000a900473ffffffffffffffffffffffffffffffffffffffff1673ffffffffffffffffffffffffffffffffffffffff163373ffffffffffffffffffffffffffffffffffffffff1614612581576040517f08c379a0000000000000000000000000000000000000000000000000000000008152600401612578906152c5565b60405180910390fd5b60005b600d8054905081101561278d576000600e600d83815481106125a9576125a8614b8f565b5b906000526020600020016040516125c09190614c56565b90815260200160405180910390209050600a846040516125e09190614b0c565b90815260200160405180910390206002016040516125fe9190614d10565b6040518091039020816006016040516126179190614d10565b60405180910390201480156126785750600a846040516126379190614b0c565b90815260200160405180910390206004016040516126559190614d10565b60405180910390208160070160405161266e9190614d10565b6040518091039020145b15612779576040518060400160405280600781526020017f536869707065640000000000000000000000000000000000000000000000000081525080519060200120816001016040516126cb9190614d10565b60405180910390200361277857828160070190816126e99190615059565b506040518060400160405280600781526020017f526563796c6564000000000000000000000000000000000000000000000000008152508160010190816127309190615059565b5060006103e88260020154612745919061512b565b90506127758260030160009054906101000a900473ffffffffffffffffffffffffffffffffffffffff1682612e7a565b50505b5b50808061278590614de8565b915050612584565b5080600a8360405161279f9190614b0c565b908152602001604051809103902060040190816127bc9190615059565b506040518060400160405280600781526020017f526563796c656400000000000000000000000000000000000000000000000000815250600a836040516128039190614b0c565b908152602001604051809103902060050190816128209190615059565b505050565b606061282f61369a565b60006128396138a9565b905060128160405161284b9190614b0c565b908152602001604051809103902060009054906101000a900460ff16156128a7576040517f08c379a000000000000000000000000000000000000000000000000000000000815260040161289e90615656565b60405180910390fd5b6040518060800160405280828152602001868152602001858152602001848152506009826040516128d89190614b0c565b908152602001604051809103902060008201518160000190816128fb9190615059565b5060208201518160010190816129119190615059565b506040820151816002015560608201518160030155905050600b8190806001815401808255809150506001900390600052602060002001600090919091909150908161295d9190615059565b506007600081548092919061297190614de8565b919050555060016012826040516129889190614b0c565b908152602001604051809103902060006101000a81548160ff0219169083151502179055507fd5413a7934f1aa973af7bc53f68df06953b49031401619e5997d54afb849377e816040516129dc9190614081565b60405180910390a1809150509392505050565b6129f761369a565b601560008273ffffffffffffffffffffffffffffffffffffffff1673ffffffffffffffffffffffffffffffffffffffff16815260200190815260200160002060009054906101000a900460ff16612a83576040517f08c379a0000000000000000000000000000000000000000000000000000000008152600401612a7a906149d8565b60405180910390fd5b60005b600f80549050811015612c67578173ffffffffffffffffffffffffffffffffffffffff16600f8281548110612abe57612abd614b8f565b5b9060005260206000200160009054906101000a900473ffffffffffffffffffffffffffffffffffffffff1673ffffffffffffffffffffffffffffffffffffffff1603612c5457600f6001600f80549050612b18919061516d565b81548110612b2957612b28614b8f565b5b9060005260206000200160009054906101000a900473ffffffffffffffffffffffffffffffffffffffff16600f8281548110612b6857612b67614b8f565b5b9060005260206000200160006101000a81548173ffffffffffffffffffffffffffffffffffffffff021916908373ffffffffffffffffffffffffffffffffffffffff160217905550600f805480612bc257612bc1615676565b5b6001900381819060005260206000200160006101000a81549073ffffffffffffffffffffffffffffffffffffffff021916905590556000601560008473ffffffffffffffffffffffffffffffffffffffff1673ffffffffffffffffffffffffffffffffffffffff16815260200190815260200160002060006101000a81548160ff021916908315150217905550612c67565b8080612c5f90614de8565b915050612a86565b5050565b6000600560009054906101000a900473ffffffffffffffffffffffffffffffffffffffff16905090565b606060048054612ca49061495b565b80601f0160208091040260200160405190810160405280929190818152602001828054612cd09061495b565b8015612d1d5780601f10612cf257610100808354040283529160200191612d1d565b820191906000526020600020905b815481529060010190602001808311612d0057829003601f168201915b5050505050905090565b612d2f61369a565b601660008273ffffffffffffffffffffffffffffffffffffffff1673ffffffffffffffffffffffffffffffffffffffff16815260200190815260200160002060009054906101000a900460ff1615612dbc576040517f08c379a0000000000000000000000000000000000000000000000000000000008152600401612db3906156f1565b60405180910390fd5b6011819080600181540180825580915050600190039060005260206000200160009091909190916101000a81548173ffffffffffffffffffffffffffffffffffffffff021916908373ffffffffffffffffffffffffffffffffffffffff1602179055506001601660008373ffffffffffffffffffffffffffffffffffffffff1673ffffffffffffffffffffffffffffffffffffffff16815260200190815260200160002060006101000a81548160ff02191690831515021790555050565b6000612e8e612e87613680565b84846137b5565b6001905092915050565b612ea061369a565b601284604051612eb09190614b0c565b908152602001604051809103902060009054906101000a900460ff16612f0b576040517f08c379a0000000000000000000000000000000000000000000000000000000008152600401612f029061575d565b60405180910390fd5b604051806080016040528085815260200184815260200183815260200182815250600985604051612f3c9190614b0c565b90815260200160405180910390206000820151816000019081612f5f9190615059565b506020820151816001019081612f759190615059565b50604082015181600201556060820151816003015590505050505050565b612f9b61369a565b601660008273ffffffffffffffffffffffffffffffffffffffff1673ffffffffffffffffffffffffffffffffffffffff16815260200190815260200160002060009054906101000a900460ff16613027576040517f08c379a000000000000000000000000000000000000000000000000000000000815260040161301e906157c9565b60405180910390fd5b7f7d0afd94fbb67c41dce82b00240b23eb17cd64b8971fe1b722eee0363a2dede060405161305490615835565b60405180910390a150565b60075481565b61306d61369a565b60128160405161307d9190614b0c565b908152602001604051809103902060009054906101000a900460ff166130d8576040517f08c379a00000000000000000000000000000000000000000000000000000000081526004016130cf9061575d565b60405180910390fd5b60006012826040516130ea9190614b0c565b908152602001604051809103902060006101000a81548160ff02191690831515021790555060098160405161311f9190614b0c565b90815260200160405180910390206000808201600061313e9190613f94565b60018201600061314e9190613f94565b60028201600090556003820160009055505060005b600b805490508110156132b7578180519060200120600b828154811061318c5761318b614b8f565b5b906000526020600020016040516131a39190614d10565b6040518091039020036132a45760008190505b6001600b805490506131c8919061516d565b81101561323757600b6001826131de9190615426565b815481106131ef576131ee614b8f565b5b90600052602060002001600b828154811061320d5761320c614b8f565b5b906000526020600020019081613223919061586b565b50808061322f90614de8565b9150506131b6565b50600b80548061324a57613249615676565b5b6001900381819060005260206000200160006132669190613f94565b9055600060128360405161327a9190614b0c565b908152602001604051809103902060006101000a81548160ff0219169083151502179055506132b7565b80806132af90614de8565b915050613163565b50600760008154809291906132cb90615953565b919050555050565b60085481565b60176020528060005260406000206000915090505481565b601a5481565b6000600160008473ffffffffffffffffffffffffffffffffffffffff1673ffffffffffffffffffffffffffffffffffffffff16815260200190815260200160002060008373ffffffffffffffffffffffffffffffffffffffff1673ffffffffffffffffffffffffffffffffffffffff16815260200190815260200160002054905092915050565b61338661369a565b601660008273ffffffffffffffffffffffffffffffffffffffff1673ffffffffffffffffffffffffffffffffffffffff16815260200190815260200160002060009054906101000a900460ff16613412576040517f08c379a0000000000000000000000000000000000000000000000000000000008152600401613409906157c9565b60405180910390fd5b60005b6011805490508110156135f6578173ffffffffffffffffffffffffffffffffffffffff166011828154811061344d5761344c614b8f565b5b9060005260206000200160009054906101000a900473ffffffffffffffffffffffffffffffffffffffff1673ffffffffffffffffffffffffffffffffffffffff16036135e357601160016011805490506134a7919061516d565b815481106134b8576134b7614b8f565b5b9060005260206000200160009054906101000a900473ffffffffffffffffffffffffffffffffffffffff16601182815481106134f7576134f6614b8f565b5b9060005260206000200160006101000a81548173ffffffffffffffffffffffffffffffffffffffff021916908373ffffffffffffffffffffffffffffffffffffffff160217905550601180548061355157613550615676565b5b6001900381819060005260206000200160006101000a81549073ffffffffffffffffffffffffffffffffffffffff021916905590556000601660008473ffffffffffffffffffffffffffffffffffffffff1673ffffffffffffffffffffffffffffffffffffffff16815260200190815260200160002060006101000a81548160ff0219169083151502179055506135f6565b80806135ee90614de8565b915050613415565b5050565b61360261369a565b600073ffffffffffffffffffffffffffffffffffffffff168173ffffffffffffffffffffffffffffffffffffffff16036136745760006040517f1e4fbdf700000000000000000000000000000000000000000000000000000000815260040161366b9190614832565b60405180910390fd5b61367d81613ad2565b50565b600033905090565b6136958383836001613b98565b505050565b6136a2613680565b73ffffffffffffffffffffffffffffffffffffffff166136c0612c6b565b73ffffffffffffffffffffffffffffffffffffffff161461371f576136e3613680565b6040517f118cdaa70000000000000000000000000000000000000000000000000000000081526004016137169190614832565b60405180910390fd5b565b600061372d84846132f7565b90507fffffffffffffffffffffffffffffffffffffffffffffffffffffffffffffffff81146137af578181101561379f578281836040517ffb8f41b20000000000000000000000000000000000000000000000000000000081526004016137969392919061597c565b60405180910390fd5b6137ae84848484036000613b98565b5b50505050565b600073ffffffffffffffffffffffffffffffffffffffff168373ffffffffffffffffffffffffffffffffffffffff16036138275760006040517f96c6fd1e00000000000000000000000000000000000000000000000000000000815260040161381e9190614832565b60405180910390fd5b600073ffffffffffffffffffffffffffffffffffffffff168273ffffffffffffffffffffffffffffffffffffffff16036138995760006040517fec442f050000000000000000000000000000000000000000000000000000000081526004016138909190614832565b60405180910390fd5b6138a4838383613d6f565b505050565b60606000424441336007546006546008546040516020016138d09796959493929190615a57565b60405160208183030381529060405280519060200120905060008160001c905060008103613937576040518060400160405280600181526020017f300000000000000000000000000000000000000000000000000000000000000081525092505050613a4d565b600081905060005b6000821461396957808061395290614de8565b915050600a826139629190615b07565b915061393f565b60008167ffffffffffffffff811115613985576139846141cb565b5b6040519080825280601f01601f1916602001820160405280156139b75781602001600182028036833780820191505090505b5090505b60008414613a44576001826139d0919061516d565b9150600a846139df9190615b38565b60306139eb9190615426565b60f81b818381518110613a0157613a00614b8f565b5b60200101907effffffffffffffffffffffffffffffffffffffffffffffffffffffffffffff1916908160001a905350600a84613a3d9190615b07565b93506139bb565b80955050505050505b90565b600073ffffffffffffffffffffffffffffffffffffffff168273ffffffffffffffffffffffffffffffffffffffff1603613ac25760006040517fec442f05000000000000000000000000000000000000000000000000000000008152600401613ab99190614832565b60405180910390fd5b613ace60008383613d6f565b5050565b6000600560009054906101000a900473ffffffffffffffffffffffffffffffffffffffff16905081600560006101000a81548173ffffffffffffffffffffffffffffffffffffffff021916908373ffffffffffffffffffffffffffffffffffffffff1602179055508173ffffffffffffffffffffffffffffffffffffffff168173ffffffffffffffffffffffffffffffffffffffff167f8be0079c531659141344cd1fd0a4f28419497f9722a3daafe3b4186f6b6457e060405160405180910390a35050565b600073ffffffffffffffffffffffffffffffffffffffff168473ffffffffffffffffffffffffffffffffffffffff1603613c0a5760006040517fe602df05000000000000000000000000000000000000000000000000000000008152600401613c019190614832565b60405180910390fd5b600073ffffffffffffffffffffffffffffffffffffffff168373ffffffffffffffffffffffffffffffffffffffff1603613c7c5760006040517f94280d62000000000000000000000000000000000000000000000000000000008152600401613c739190614832565b60405180910390fd5b81600160008673ffffffffffffffffffffffffffffffffffffffff1673ffffffffffffffffffffffffffffffffffffffff16815260200190815260200160002060008573ffffffffffffffffffffffffffffffffffffffff1673ffffffffffffffffffffffffffffffffffffffff168152602001908152602001600020819055508015613d69578273ffffffffffffffffffffffffffffffffffffffff168473ffffffffffffffffffffffffffffffffffffffff167f8c5be1e5ebec7d5bd14f71427d1e84f3dd0314c0f7b2291e5b200ac8c7c3b92584604051613d6091906143a1565b60405180910390a35b50505050565b600073ffffffffffffffffffffffffffffffffffffffff168373ffffffffffffffffffffffffffffffffffffffff1603613dc1578060026000828254613db59190615426565b92505081905550613e94565b60008060008573ffffffffffffffffffffffffffffffffffffffff1673ffffffffffffffffffffffffffffffffffffffff16815260200190815260200160002054905081811015613e4d578381836040517fe450d38c000000000000000000000000000000000000000000000000000000008152600401613e449392919061597c565b60405180910390fd5b8181036000808673ffffffffffffffffffffffffffffffffffffffff1673ffffffffffffffffffffffffffffffffffffffff16815260200190815260200160002081905550505b600073ffffffffffffffffffffffffffffffffffffffff168273ffffffffffffffffffffffffffffffffffffffff1603613edd5780600260008282540392505081905550613f2a565b806000808473ffffffffffffffffffffffffffffffffffffffff1673ffffffffffffffffffffffffffffffffffffffff168152602001908152602001600020600082825401925050819055505b8173ffffffffffffffffffffffffffffffffffffffff168373ffffffffffffffffffffffffffffffffffffffff167fddf252ad1be2c89b69c2b068fc378daa952ba7f163c4a11628f55a4df523b3ef83604051613f8791906143a1565b60405180910390a3505050565b508054613fa09061495b565b6000825580601f10613fb25750613fd1565b601f016020900490600052602060002090810190613fd09190613fd4565b5b50565b5b80821115613fed576000816000905550600101613fd5565b5090565b600081519050919050565b600082825260208201905092915050565b60005b8381101561402b578082015181840152602081019050614010565b60008484015250505050565b6000601f19601f8301169050919050565b600061405382613ff1565b61405d8185613ffc565b935061406d81856020860161400d565b61407681614037565b840191505092915050565b6000602082019050818103600083015261409b8184614048565b905092915050565b6000604051905090565b600080fd5b600080fd5b600073ffffffffffffffffffffffffffffffffffffffff82169050919050565b60006140e2826140b7565b9050919050565b6140f2816140d7565b81146140fd57600080fd5b50565b60008135905061410f816140e9565b92915050565b6000819050919050565b61412881614115565b811461413357600080fd5b50565b6000813590506141458161411f565b92915050565b60008060408385031215614162576141616140ad565b5b600061417085828601614100565b925050602061418185828601614136565b9150509250929050565b60008115159050919050565b6141a08161418b565b82525050565b60006020820190506141bb6000830184614197565b92915050565b600080fd5b600080fd5b7f4e487b7100000000000000000000000000000000000000000000000000000000600052604160045260246000fd5b61420382614037565b810181811067ffffffffffffffff82111715614222576142216141cb565b5b80604052505050565b60006142356140a3565b905061424182826141fa565b919050565b600067ffffffffffffffff821115614261576142606141cb565b5b61426a82614037565b9050602081019050919050565b82818337600083830152505050565b600061429961429484614246565b61422b565b9050828152602081018484840111156142b5576142b46141c6565b5b6142c0848285614277565b509392505050565b600082601f8301126142dd576142dc6141c1565b5b81356142ed848260208601614286565b91505092915050565b60006020828403121561430c5761430b6140ad565b5b600082013567ffffffffffffffff81111561432a576143296140b2565b5b614336848285016142c8565b91505092915050565b61434881614115565b82525050565b600060808201905081810360008301526143688187614048565b9050818103602083015261437c8186614048565b905061438b604083018561433f565b614398606083018461433f565b95945050505050565b60006020820190506143b6600083018461433f565b92915050565b6000602082840312156143d2576143d16140ad565b5b60006143e084828501614100565b91505092915050565b600080600060608486031215614402576144016140ad565b5b600061441086828701614100565b935050602061442186828701614100565b925050604061443286828701614136565b9150509250925092565b600060ff82169050919050565b6144528161443c565b82525050565b600060208201905061446d6000830184614449565b92915050565b60008060006060848603121561448c5761448b6140ad565b5b600061449a86828701614100565b935050602084013567ffffffffffffffff8111156144bb576144ba6140b2565b5b6144c7868287016142c8565b925050604084013567ffffffffffffffff8111156144e8576144e76140b2565b5b6144f4868287016142c8565b9150509250925092565b600080600060608486031215614517576145166140ad565b5b600084013567ffffffffffffffff811115614535576145346140b2565b5b614541868287016142c8565b935050602061455286828701614100565b925050604084013567ffffffffffffffff811115614573576145726140b2565b5b61457f868287016142c8565b9150509250925092565b614592816140d7565b82525050565b60006101008201905081810360008301526145b3818b614048565b905081810360208301526145c7818a614048565b90506145d6604083018961433f565b6145e36060830188614589565b6145f06080830187614589565b6145fd60a0830186614589565b81810360c083015261460f8185614048565b905081810360e08301526146238184614048565b90509998505050505050505050565b60008060006060848603121561464b5761464a6140ad565b5b600061465986828701614136565b935050602061466a86828701614100565b925050604084013567ffffffffffffffff81111561468b5761468a6140b2565b5b614697868287016142c8565b9150509250925092565b6000602082840312156146b7576146b66140ad565b5b60006146c584828501614136565b91505092915050565b600060c08201905081810360008301526146e88189614048565b90506146f76020830188614589565b81810360408301526147098187614048565b90506147186060830186614197565b818103608083015261472a8185614048565b905081810360a083015261473e8184614048565b9050979650505050505050565b60008060408385031215614762576147616140ad565b5b600083013567ffffffffffffffff8111156147805761477f6140b2565b5b61478c858286016142c8565b925050602083013567ffffffffffffffff8111156147ad576147ac6140b2565b5b6147b9858286016142c8565b9150509250929050565b6000806000606084860312156147dc576147db6140ad565b5b600084013567ffffffffffffffff8111156147fa576147f96140b2565b5b614806868287016142c8565b935050602061481786828701614136565b925050604061482886828701614136565b9150509250925092565b60006020820190506148476000830184614589565b92915050565b60008060008060808587031215614867576148666140ad565b5b600085013567ffffffffffffffff811115614885576148846140b2565b5b614891878288016142c8565b945050602085013567ffffffffffffffff8111156148b2576148b16140b2565b5b6148be878288016142c8565b93505060406148cf87828801614136565b92505060606148e087828801614136565b91505092959194509250565b60008060408385031215614903576149026140ad565b5b600061491185828601614100565b925050602061492285828601614100565b9150509250929050565b7f4e487b7100000000000000000000000000000000000000000000000000000000600052602260045260246000fd5b6000600282049050600182168061497357607f821691505b6020821081036149865761498561492c565b5b50919050565b7f436974697a656e20646f6573206e6f7420657869737400000000000000000000600082015250565b60006149c2601683613ffc565b91506149cd8261498c565b602082019050919050565b600060208201905081810360008301526149f1816149b5565b9050919050565b7f436974697a656e2063616e206265206d6f646966696564000000000000000000600082015250565b6000614a2e601783613ffc565b9150614a39826149f8565b602082019050919050565b60006020820190508181036000830152614a5d81614a21565b9050919050565b7f5368697070657220646f65736e27742065786973740000000000000000000000600082015250565b6000614a9a601583613ffc565b9150614aa582614a64565b602082019050919050565b60006020820190508181036000830152614ac981614a8d565b9050919050565b600081905092915050565b6000614ae682613ff1565b614af08185614ad0565b9350614b0081856020860161400d565b80840191505092915050565b6000614b188284614adb565b915081905092915050565b7f42696e20646f65736e2774206578697374000000000000000000000000000000600082015250565b6000614b59601183613ffc565b9150614b6482614b23565b602082019050919050565b60006020820190508181036000830152614b8881614b4c565b9050919050565b7f4e487b7100000000000000000000000000000000000000000000000000000000600052603260045260246000fd5b60008190508160005260206000209050919050565b60008154614be08161495b565b614bea8186614ad0565b94506001821660008114614c055760018114614c1a57614c4d565b60ff1983168652811515820286019350614c4d565b614c2385614bbe565b60005b83811015614c4557815481890152600182019150602081019050614c26565b838801955050505b50505092915050565b6000614c628284614bd3565b915081905092915050565b600081905092915050565b60008190508160005260206000209050919050565b60008154614c9a8161495b565b614ca48186614c6d565b94506001821660008114614cbf5760018114614cd457614d07565b60ff1983168652811515820286019350614d07565b614cdd85614c78565b60005b83811015614cff57815481890152600182019150602081019050614ce0565b838801955050505b50505092915050565b6000614d1c8284614c8d565b915081905092915050565b7f436f6c6c656374696f6e20616c72656164792065786973747320666f7220746860008201527f69732062696e20616e6420646174650000000000000000000000000000000000602082015250565b6000614d83602f83613ffc565b9150614d8e82614d27565b604082019050919050565b60006020820190508181036000830152614db281614d76565b9050919050565b7f4e487b7100000000000000000000000000000000000000000000000000000000600052601160045260246000fd5b6000614df382614115565b91507fffffffffffffffffffffffffffffffffffffffffffffffffffffffffffffffff8203614e2557614e24614db9565b5b600182019050919050565b7f47656e657261746564204944436f6c6c656374696f6e20616c7265616479206560008201527f7869737473000000000000000000000000000000000000000000000000000000602082015250565b6000614e8c602583613ffc565b9150614e9782614e30565b604082019050919050565b60006020820190508181036000830152614ebb81614e7f565b9050919050565b60006020601f8301049050919050565b600082821b905092915050565b600060088302614f0f7fffffffffffffffffffffffffffffffffffffffffffffffffffffffffffffffff82614ed2565b614f198683614ed2565b95508019841693508086168417925050509392505050565b6000819050919050565b6000614f56614f51614f4c84614115565b614f31565b614115565b9050919050565b6000819050919050565b614f7083614f3b565b614f84614f7c82614f5d565b848454614edf565b825550505050565b600090565b614f99614f8c565b614fa4818484614f67565b505050565b5b81811015614fc857614fbd600082614f91565b600181019050614faa565b5050565b601f82111561500d57614fde81614bbe565b614fe784614ec2565b81016020851015614ff6578190505b61500a61500285614ec2565b830182614fa9565b50505b505050565b600082821c905092915050565b600061503060001984600802615012565b1980831691505092915050565b6000615049838361501f565b9150826002028217905092915050565b61506282613ff1565b67ffffffffffffffff81111561507b5761507a6141cb565b5b615085825461495b565b615090828285614fcc565b600060209050601f8311600181146150c357600084156150b1578287015190505b6150bb858261503d565b865550615123565b601f1984166150d186614bbe565b60005b828110156150f9578489015182556001820191506020850194506020810190506150d4565b868310156151165784890151615112601f89168261501f565b8355505b6001600288020188555050505b505050505050565b600061513682614115565b915061514183614115565b925082820261514f81614115565b9150828204841483151761516657615165614db9565b5b5092915050565b600061517882614115565b915061518383614115565b925082820390508181111561519b5761519a614db9565b5b92915050565b7f436974697a656e20616c72656164792065786973747300000000000000000000600082015250565b60006151d7601683613ffc565b91506151e2826151a1565b602082019050919050565b60006020820190508181036000830152615206816151ca565b9050919050565b7f436f6c6c656374696f6e20646f65736e27742065786973740000000000000000600082015250565b6000615243601883613ffc565b915061524e8261520d565b602082019050919050565b6000602082019050818103600083015261527281615236565b9050919050565b7f20466f7262696464656e20000000000000000000000000000000000000000000600082015250565b60006152af600b83613ffc565b91506152ba82615279565b602082019050919050565b600060208201905081810360008301526152de816152a2565b9050919050565b7f5468697320636f6c6c656374696f6e20646f65736e277420636f6e6365726e2060008201527f7468697320736869707065720000000000000000000000000000000000000000602082015250565b6000615341602c83613ffc565b915061534c826152e5565b604082019050919050565b6000602082019050818103600083015261537081615334565b9050919050565b60008190508160005260206000209050919050565b600081546153998161495b565b6153a38186614ad0565b945060018216600081146153be57600181146153d357615406565b60ff1983168652811515820286019350615406565b6153dc85615377565b60005b838110156153fe578154818901526001820191506020810190506153df565b838801955050505b50505092915050565b600061541b828461538c565b915081905092915050565b600061543182614115565b915061543c83614115565b925082820190508082111561545457615453614db9565b5b92915050565b7f4d617820537570706c7920457863656564656400000000000000000000000000600082015250565b6000615490601383613ffc565b915061549b8261545a565b602082019050919050565b600060208201905081810360008301526154bf81615483565b9050919050565b7f436974697a656e20646f65736e27742065786973740000000000000000000000600082015250565b60006154fc601583613ffc565b9150615507826154c6565b602082019050919050565b6000602082019050818103600083015261552b816154ef565b9050919050565b7f576173746520616c726561647920657869737473000000000000000000000000600082015250565b6000615568601483613ffc565b915061557382615532565b602082019050919050565b600060208201905081810360008301526155978161555b565b9050919050565b7f42696e2063617061636974792065786365656465640000000000000000000000600082015250565b60006155d4601583613ffc565b91506155df8261559e565b602082019050919050565b60006020820190508181036000830152615603816155c7565b9050919050565b7f47656e65726174656420494420616c7265616479206578697374730000000000600082015250565b6000615640601b83613ffc565b915061564b8261560a565b602082019050919050565b6000602082019050818103600083015261566f81615633565b9050919050565b7f4e487b7100000000000000000000000000000000000000000000000000000000600052603160045260246000fd5b7f5368697070657220616c72656164792065786973747300000000000000000000600082015250565b60006156db601683613ffc565b91506156e6826156a5565b602082019050919050565b6000602082019050818103600083015261570a816156ce565b9050919050565b7f42696e20646f6573206e6f742065786973740000000000000000000000000000600082015250565b6000615747601283613ffc565b915061575282615711565b602082019050919050565b600060208201905081810360008301526157768161573a565b9050919050565b7f5368697070657220646f6573206e6f7420657869737400000000000000000000600082015250565b60006157b3601683613ffc565b91506157be8261577d565b602082019050919050565b600060208201905081810360008301526157e2816157a6565b9050919050565b7f536869707065722063616e206265206d6f646966696564000000000000000000600082015250565b600061581f601783613ffc565b915061582a826157e9565b602082019050919050565b6000602082019050818103600083015261584e81615812565b9050919050565b6000815490506158648161495b565b9050919050565b818103615879575050615951565b61588282615855565b67ffffffffffffffff81111561589b5761589a6141cb565b5b6158a5825461495b565b6158b0828285614fcc565b6000601f8311600181146158df57600084156158cd578287015490505b6158d7858261503d565b86555061594a565b601f1984166158ed87615377565b96506158f886614bbe565b60005b82811015615920578489015482556001820191506001850194506020810190506158fb565b8683101561593d5784890154615939601f89168261501f565b8355505b6001600288020188555050505b5050505050505b565b600061595e82614115565b91506000820361597157615970614db9565b5b600182039050919050565b60006060820190506159916000830186614589565b61599e602083018561433f565b6159ab604083018461433f565b949350505050565b6000819050919050565b6159ce6159c982614115565b6159b3565b82525050565b60006159df826140b7565b9050919050565b60008160601b9050919050565b60006159fe826159e6565b9050919050565b6000615a10826159f3565b9050919050565b615a28615a23826159d4565b615a05565b82525050565b6000615a39826159f3565b9050919050565b615a51615a4c826140d7565b615a2e565b82525050565b6000615a63828a6159bd565b602082019150615a7382896159bd565b602082019150615a838288615a17565b601482019150615a938287615a40565b601482019150615aa382866159bd565b602082019150615ab382856159bd565b602082019150615ac382846159bd565b60208201915081905098975050505050505050565b7f4e487b7100000000000000000000000000000000000000000000000000000000600052601260045260246000fd5b6000615b1282614115565b9150615b1d83614115565b925082615b2d57615b2c615ad8565b5b828204905092915050565b6000615b4382614115565b9150615b4e83614115565b925082615b5e57615b5d615ad8565b5b82820690509291505056fea26469706673582212209e53d7fa30a65be14aff520f63052b62740f888589034337e7becb4240583b1d64736f6c63430008140033",
  "immutableReferences": {},
  "source": "// SPDX-License-Identifier: MIT\r\npragma solidity >=0.8.0;\r\n\r\nimport \"@openzeppelin/contracts/token/ERC20/ERC20.sol\";\r\nimport \"@openzeppelin/contracts/access/Ownable.sol\";\r\n\r\ncontract WasteManagement is ERC20, Ownable {\r\n    struct Bin {\r\n        string id; // Changed type to string\r\n        string location;\r\n        uint256 capacity;\r\n        uint256 currentWeight;\r\n    }\r\n    struct Waste {\r\n        string id;\r\n        string status;\r\n        uint256 weight;\r\n        address citizenId;\r\n        address shipperId;\r\n        address recyclerId;\r\n        string binId; // Changed type to string\r\n        string dateCollection;\r\n    }\r\n    struct Collection {\r\n        string idCollection;\r\n        address shipperNotified;\r\n        string binNotif; // Changed type to string\r\n        bool done;\r\n        string date;\r\n        string status;\r\n    }\r\n    struct Notif {\r\n        address shipperNotified;\r\n        string binNotif; // Changed type to string\r\n        bool done;\r\n    }\r\n    event BinCreated(string id);\r\n    //event BinCreated(string id);\r\n    event CollectionCreated(string id);\r\n    event ModifShipper(string message);\r\n    event ModifCitizen(string message);\r\n    uint256 public wasteCount;\r\n    uint256 public binCount;\r\n    uint256 public collectionCount;\r\n    mapping(string => Bin) public bins; // Changed key type to string\r\n    mapping(string => Collection) public collections;\r\n    string[] binIds; // Changed type to string\r\n    string[] collectionIds;\r\n    string[] public wasteIds; // Changed type to string\r\n    mapping(string => Waste) public wastes; // Changed key type to string\r\n    address[] citizens;\r\n    address recycler = address(0x56383d8e914BA54040125bAeD014ddCAE01DE81A);\r\n    address[] shippers;\r\n    mapping(string => bool) isBin;\r\n    mapping(string => bool) isCollection;\r\n    mapping(string => bool) isWaste;\r\n    mapping(address => bool) isCitizen;\r\n    mapping(address => bool) isShipper;\r\n    //mapping(address => mapping(string => Notif)) public notifications; // Changed key type to string\r\n    mapping(address => uint256) public citizenRewards;\r\n    uint256 shipCount=0;\r\n    mapping(address => mapping(string => Notif))  notifications;\r\n\r\n\r\n    uint public maxSupply;\r\n    uint public dispoRC;\r\n    constructor() ERC20(\"GreenEarn Transfer\", \"GRN\") Ownable(msg.sender) {\r\n        maxSupply = 1000000000000000000000; // 1000000000000000000000 GRN\r\n        mint(msg.sender, 1000000000000000000000); // Mint initial supply to contract deployer\r\n        transfer(recycler, 1000000000000000000000);\r\n        dispoRC=1000000000000000000000;\r\n    }\r\n\r\n    function mint(address to, uint amount) public onlyOwner {\r\n        require(totalSupply() + amount <= maxSupply, \"Max Supply Exceeded\");\r\n        _mint(to, amount);\r\n    }\r\n\r\n    function transfer(address recipient, uint256 amount) public override returns (bool) {\r\n        _transfer(_msgSender(), recipient, amount);\r\n        return true;\r\n    }\r\n\r\n                     //*************Bin************//\r\n    function createBin(string memory _location,  uint256 _capacity, uint256 _currentWeight) external onlyOwner returns (string memory) {\r\n        string memory _id = generateUniqueId();\r\n        require(!isBin[_id], \"Generated ID already exists\");\r\n        bins[_id] = Bin(_id, _location,  _capacity, _currentWeight);\r\n        binIds.push(_id);\r\n        binCount++;\r\n        isBin[_id] = true;\r\n        emit BinCreated(_id);\r\n        return _id;\r\n    }\r\n\r\n    function modifyBin(string memory _id, string memory _location,  uint256 _capacity, uint256 _currentWeight) external onlyOwner {\r\n        require(isBin[_id], \"Bin does not exist\");\r\n        bins[_id] = Bin(_id, _location,  _capacity, _currentWeight);\r\n    }\r\n\r\n    function deleteBin(string memory _id) external onlyOwner {\r\n        require(isBin[_id], \"Bin does not exist\");\r\n        \r\n        // Update mappings and arrays\r\n        isBin[_id] = false;\r\n        delete bins[_id];\r\n        \r\n        // Find and remove the bin ID from binIds array\r\n        for (uint256 i = 0; i < binIds.length; i++) {\r\n            if (keccak256(bytes(binIds[i])) == keccak256(bytes(_id))) {\r\n                for (uint256 j = i; j < binIds.length - 1; j++) {\r\n                    binIds[j] = binIds[j + 1];\r\n                }\r\n                binIds.pop();\r\n                isBin[_id]=false;\r\n                break;\r\n            }\r\n        }\r\n        \r\n        // Decrement binCount\r\n        binCount--;\r\n    }\r\n    \r\n    // function getBins() public view returns (string[] memory, string[] memory, uint256[] memory, uint256[] memory) {\r\n    //     string[] memory ids = new string[](binCount);\r\n    //     string[] memory locations = new string[](binCount);\r\n       \r\n    //     uint256[] memory capacities = new uint256[](binCount);\r\n    //     uint256[] memory currentWeights = new uint256[](binCount);\r\n\r\n    //     for (uint256 i = 0; i < binCount; i++) {\r\n    //         Bin memory bin = bins[binIds[i]];\r\n    //         ids[i] = bin.id;\r\n    //         locations[i] = bin.location;\r\n    //         capacities[i] = bin.capacity;\r\n    //         currentWeights[i] = bin.currentWeight;\r\n    //     }\r\n\r\n    //     return (ids, locations, capacities, currentWeights);\r\n    // }\r\n    // Function to generate a unique ID\r\n    function generateUniqueId() internal  returns (string memory) {\r\n        bytes32 hash = keccak256(abi.encodePacked(\r\n            block.timestamp,\r\n            block.prevrandao,\r\n            block.coinbase,\r\n            msg.sender,\r\n            binCount,\r\n            wasteCount,\r\n            collectionCount // Assuming this is a counter for collections\r\n        ));\r\n\r\n        // Convert hash to string\r\n        uint256 value = uint256(hash);\r\n        if (value == 0) {\r\n            return \"0\";\r\n        }\r\n        \r\n        uint256 temp = value;\r\n        uint256 digits;\r\n        \r\n        while (temp != 0) {\r\n            digits++;\r\n            temp /= 10;\r\n        }\r\n        \r\n        bytes memory buffer = new bytes(digits);\r\n        \r\n        while (value != 0) {\r\n            digits -= 1;\r\n            buffer[digits] = bytes1(uint8(48 + uint256(value % 10)));\r\n            value /= 10;\r\n        }\r\n        \r\n        return string(buffer);\r\n    }\r\n\r\n                   //*****************Shipper********************//\r\n    function createShipper(address _shipper) external onlyOwner {\r\n        require(!isShipper[_shipper], \"Shipper already exists\");\r\n\r\n        shippers.push(_shipper);\r\n        isShipper[_shipper] = true;\r\n    }\r\n\r\n    // function getShippers() public view returns (address[] memory) {\r\n    //     return shippers;\r\n    // }\r\n\r\n    // function notifyShipper(address _shipper, string memory _idBin, string memory _date) external onlyOwner {\r\n\r\n    //     require(isShipper[_shipper], \"Shipper doesn't exist\");\r\n    //     require(isBin[_idBin], \"Bin doesn't exist\");\r\n    //     notifications[_shipper][_idBin] = Notif(_shipper, _idBin, false);\r\n    // }\r\n\r\n    function createWaste(uint256 _weight, address _citizenId, string memory _binId) external {\r\n        string memory _id = generateUniqueId();\r\n\r\n        require(isBin[_binId], \"Bin doesn't exist\");\r\n        require(isCitizen[_citizenId], \"Citizen doesn't exist\");\r\n        require(!isWaste[_id], \"Waste already exists\");\r\n        require(bins[_binId].capacity - bins[_binId].currentWeight >= _weight, \"Bin capacity exceeded\");\r\n        require(msg.sender==_citizenId,\" Forbidden \");\r\n        // Create waste\r\n        wastes[_id] = Waste(_id, \"Waiting\", _weight, _citizenId, address(0), address(0), _binId, \"\");\r\n        wasteIds.push(_id);\r\n        isWaste[_id] = true;\r\n        wasteCount++;\r\n    }\r\n\r\n    function createCollection(address _shipper, string memory _idBin, string memory _date) external onlyOwner returns (string memory) {\r\n        require(isShipper[_shipper], \"Shipper doesn't exist\");\r\n        require(isBin[_idBin], \"Bin doesn't exist\");\r\n\r\n        // Check if a collection with the same bin and date already exists\r\n        for (uint256 i = 0; i < collectionIds.length; i++) {\r\n            Collection storage collection = collections[collectionIds[i]];\r\n            if (keccak256(bytes(collection.binNotif)) == keccak256(bytes(_idBin)) && keccak256(bytes(collection.date)) == keccak256(bytes(_date))) {\r\n                revert(\"Collection already exists for this bin and date\");\r\n            }\r\n        }\r\n        // Generate a unique ID for the new collection\r\n        string memory _idCollection = generateUniqueId();\r\n        require(!isCollection[_idCollection], \"Generated IDCollection already exists\");\r\n\r\n        // Update dateCollection for waiting wastes with the same bin ID\r\n        for (uint256 j = 0; j < wasteIds.length; j++) {\r\n            Waste storage waste = wastes[wasteIds[j]];\r\n            if (keccak256(bytes(waste.binId)) == keccak256(bytes(_idBin)) && keccak256(bytes(waste.status)) == keccak256(bytes(\"Waiting\"))) {\r\n                waste.dateCollection = _date;\r\n                waste.shipperId=_shipper;\r\n            }\r\n        }\r\n        // Create the new collection\r\n        collections[_idCollection] = Collection(_idCollection, _shipper, _idBin, false, _date, \"Waiting\");\r\n        if(dispoRC <= (bins[_idBin].capacity)*1000){\r\n            mint(msg.sender, 1000000000000000000000); // Mint initial supply to contract deployer\r\n            transfer(recycler, 1000000000000000000000);\r\n        }\r\n        else{\r\n            dispoRC-=(bins[_idBin].capacity)*1000;\r\n        }\r\n        collectionIds.push(_idCollection);\r\n        collectionCount++;\r\n        isCollection[_idCollection] = true;\r\n         if (!notifications[_shipper][_date].done) {\r\n            // If not, create a new notification\r\n            notifications[_shipper][_date] = Notif(_shipper, _idBin, false);\r\n        }\r\n        emit CollectionCreated(_idCollection);\r\n\r\n        return _idCollection;\r\n    }\r\n\r\n\r\n    function shipCollection(string memory _idCollection, address _shipperId, string memory _date) external  {\r\n        require(isCollection[_idCollection], \"Collection doesn't exist\");\r\n        require(msg.sender==_shipperId,\" Forbidden \");\r\n        if (collections[_idCollection].shipperNotified != _shipperId) {\r\n            revert(\"This collection doesn't concern this shipper\");\r\n        }\r\n        string storage date= collections[_idCollection].date;\r\n        // Update collection status and shipper notification\r\n        // Update waste status and dateCollection for all wastes in the collection\r\n        for (uint256 i = 0; i < wasteIds.length; i++) {\r\n            Waste storage waste = wastes[wasteIds[i]];\r\n            if ((keccak256(bytes(waste.binId)) == keccak256(bytes(collections[_idCollection].binNotif)) )&&\r\n                (waste.shipperId == _shipperId) && (keccak256(bytes(waste.dateCollection)) == keccak256(bytes(collections[_idCollection].date)))) {\r\n                    waste.dateCollection = _date;\r\n                    waste.status = \"Shipped\"; \r\n                    shipCount++; // Increment shipCount for each waste that meets the conditions\r\n            }\r\n        }\r\n        bins[collections[_idCollection].binNotif].currentWeight = 0;\r\n        collections[_idCollection].date = _date;\r\n        collections[_idCollection].status = \"Shipped\";\r\n        notifications[_shipperId][date].done=true;\r\n    }\r\n \r\n    function deleteShipper(address _shipperAddress) external onlyOwner {\r\n        require(isShipper[_shipperAddress], \"Shipper does not exist\");\r\n        for (uint256 i = 0; i < shippers.length; i++) {\r\n            if (shippers[i] == _shipperAddress) {\r\n                shippers[i] = shippers[\r\n                    shippers.length - 1\r\n                ];\r\n                shippers.pop();\r\n                isShipper[_shipperAddress]=false;\r\n                break;\r\n            }\r\n        }\r\n    }\r\n\r\n    function modifyShipper(address _shipperAddress) external onlyOwner {\r\n        require(isShipper[ _shipperAddress], \"Shipper does not exist\");\r\n        \r\n        // Emit a message after the require statement\r\n        emit ModifShipper(\"Shipper can be modified\");\r\n        \r\n        // Further logic here if needed\r\n    }\r\n    \r\n                         //*****************Recycler********************//\r\n    \r\n    function recycleCollection(string memory _idCollection,string memory _date) external  {\r\n        require(isCollection[_idCollection], \"Collection doesn't exist\");\r\n        require(msg.sender==recycler,\" Forbidden \");\r\n        for (uint256 i = 0; i < wasteIds.length; i++) {\r\n            Waste storage waste = wastes[wasteIds[i]];\r\n            if (keccak256(bytes(waste.binId)) == keccak256(bytes(collections[_idCollection].binNotif)) &&\r\n                keccak256(bytes(waste.dateCollection)) == keccak256(bytes(collections[_idCollection].date))) {\r\n                if (keccak256(bytes(waste.status)) == keccak256(bytes(\"Shipped\"))) {\r\n                    waste.dateCollection=_date;\r\n                    waste.status = \"Recyled\";\r\n                    uint256 rewardAmount = waste.weight * 1000; // Example: 1000 tokens per unit weight\r\n                    // Transfer reward to citizen\r\n                   // _transfer(msg.sender, waste.citizenId, rewardAmount);\r\n                    transfer(waste.citizenId,  rewardAmount);\r\n                }\r\n            }\r\n        }\r\n        collections[_idCollection].date=_date;\r\n        collections[_idCollection].status = \"Recyled\";\r\n    }                         \r\n                     \r\n                     \r\n                        //*****************Citizen********************//\r\n    function createCitizen(address _citizen) external onlyOwner {\r\n        require(!isCitizen[_citizen], \"Citizen already exists\");\r\n       // require(_citizen != owner, \"Cannot create citizen with owner's address\");\r\n\r\n        citizens.push(_citizen);\r\n        isCitizen[_citizen] = true;\r\n    }\r\n\r\n    function deleteCitizen(address _citizenAddress) external onlyOwner {\r\n        require(isCitizen[_citizenAddress], \"Citizen does not exist\");\r\n        for (uint256 i = 0; i < citizens.length; i++) {\r\n            if (citizens[i] == _citizenAddress) {\r\n                citizens[i] = citizens[\r\n                    citizens.length - 1\r\n                ];\r\n                citizens.pop();\r\n                isCitizen[_citizenAddress]=false;\r\n                break;\r\n            }\r\n        }\r\n    }\r\n\r\n    function modifyCitizen(address _citizenAddress) external onlyOwner {\r\n        require(isCitizen[ _citizenAddress], \"Citizen does not exist\");\r\n        \r\n        // Emit a message after the require statement\r\n        emit ModifCitizen(\"Citizen can be modified\");\r\n        \r\n        // Further logic here if needed\r\n    }\r\n\r\n    // function getIsBin(string memory _binId) internal view returns (bool) {\r\n    //     require(isBin[_binId], \"Bin doesn't exist\");\r\n    //     return isBin[_binId];\r\n    // }\r\n\r\n    // function getIsCitizen(address _citizenId) internal view returns (bool) {\r\n    //     require(isCitizen[_citizenId], \"Citizen doesn't exist\");\r\n    //     return isCitizen[_citizenId];\r\n    // }\r\n\r\n    // function CheckWaste(string memory _wasteId) internal view returns (bool) {\r\n    //     require(!isWaste[_wasteId], \"Watse exist\");\r\n    //     return !isWaste[_wasteId];\r\n    // }\r\n\r\n    // function setWaste(string memory _wasteId,uint256 _weight,address _citizenId,string memory _binId) internal {\r\n    //     wastes[_wasteId]=Waste(_wasteId, \"Waiting\", _weight, _citizenId, address(0), address(0), _binId, \"\");\r\n    //     wasteIds.push(_wasteId);\r\n    //     isWaste[_wasteId]=true;\r\n    //     wasteCount++;\r\n    //    // emit WasteCreated(_wasteId);\r\n\r\n       \r\n    // }\r\n\r\n\r\n    /*TEEEEEEEEEEEEEEEEEEEEEEEEEEEEEEESTS */\r\n    // function getCountWaste() view external onlyOwner() returns (uint256){\r\n    //     return wasteCount;\r\n    // }\r\n\r\n    // function getWastes()view external onlyOwner returns (Waste[]memory){\r\n    //     Waste[] memory trash = new Waste[](wasteIds.length);\r\n    //      for (uint256 i = 0; i < wasteIds.length; i++) {\r\n    //         Waste storage waste = wastes[wasteIds[i]];\r\n    //         trash[i]=waste;\r\n    //      }\r\n    //     return trash;\r\n    // }\r\n\r\n    // function getWastesIDs()view external onlyOwner returns (string[] memory){\r\n       \r\n    //     return wasteIds;\r\n    // }\r\n\r\n    // function getWastesStatus()view external onlyOwner returns (string[] memory,string[] memory){\r\n    //     string[] memory Status = new string[](wasteIds.length);\r\n    //     for (uint256 i = 0; i < wasteIds.length; i++) {\r\n    //         Waste storage waste = wastes[wasteIds[i]];\r\n    //         Status[i] = waste.status;\r\n    //     }\r\n    //     return(wasteIds,Status);\r\n    // }\r\n\r\n    // function getCollectionsIds()view external onlyOwner returns(string[] memory) {\r\n    //      return collectionIds;\r\n    // } \r\n\r\n    // function getCollectionsStatus()view external onlyOwner returns(string[] memory) {\r\n    //       string[] memory Status = new string[](collectionIds.length);\r\n    //     for (uint256 i = 0; i < collectionIds.length; i++) {\r\n    //         Collection storage coll = collections[collectionIds[i]];\r\n    //         Status[i] = coll.status;\r\n    //     }\r\n    //     return(Status);\r\n    // } \r\n\r\n    // // function getShipCount() view external onlyOwner() returns(uint256){\r\n    // //     return shipCount;\r\n    // // }\r\n    // // function getCitizens() public view returns (address[] memory) {\r\n    // //     return citizens;\r\n    // // }\r\n    // function getNotifByShipper(address _shipper) public view returns (Notif[] memory) {\r\n    //     Notif[] memory shipperNotifications = new Notif[](binCount);\r\n\r\n    //     for (uint256 i = 0; i < binCount; i++) {\r\n    //         string memory binId = binIds[i];\r\n    //         if (isBin[binId]) {\r\n    //             shipperNotifications[i] = notifications[_shipper][binId];\r\n    //         }\r\n    //     }\r\n\r\n    //     return shipperNotifications;\r\n    // }\r\n\r\n    \r\n\r\n}",
  "sourcePath": "C:\\Users\\Asma\\Desktop\\FinalGreenEarn\\testPFAAuthManager\\truffle\\contracts\\WasteManagement.sol",
  "compiler": {
    "name": "solc",
    "version": "0.8.20+commit.a1b79de6.Emscripten.clang"
  },
  "schemaVersion": "3.4.16",
  "updatedAt": "2024-04-21T11:54:56.126Z",
  "networkType": "ethereum",
  "devdoc": {
    "errors": {
      "ERC20InsufficientAllowance(address,uint256,uint256)": [
        {
          "details": "Indicates a failure with the `spender`s `allowance`. Used in transfers.",
          "params": {
            "allowance": "Amount of tokens a `spender` is allowed to operate with.",
            "needed": "Minimum amount required to perform a transfer.",
            "spender": "Address that may be allowed to operate on tokens without being their owner."
          }
        }
      ],
      "ERC20InsufficientBalance(address,uint256,uint256)": [
        {
          "details": "Indicates an error related to the current `balance` of a `sender`. Used in transfers.",
          "params": {
            "balance": "Current balance for the interacting account.",
            "needed": "Minimum amount required to perform a transfer.",
            "sender": "Address whose tokens are being transferred."
          }
        }
      ],
      "ERC20InvalidApprover(address)": [
        {
          "details": "Indicates a failure with the `approver` of a token to be approved. Used in approvals.",
          "params": {
            "approver": "Address initiating an approval operation."
          }
        }
      ],
      "ERC20InvalidReceiver(address)": [
        {
          "details": "Indicates a failure with the token `receiver`. Used in transfers.",
          "params": {
            "receiver": "Address to which tokens are being transferred."
          }
        }
      ],
      "ERC20InvalidSender(address)": [
        {
          "details": "Indicates a failure with the token `sender`. Used in transfers.",
          "params": {
            "sender": "Address whose tokens are being transferred."
          }
        }
      ],
      "ERC20InvalidSpender(address)": [
        {
          "details": "Indicates a failure with the `spender` to be approved. Used in approvals.",
          "params": {
            "spender": "Address that may be allowed to operate on tokens without being their owner."
          }
        }
      ],
      "OwnableInvalidOwner(address)": [
        {
          "details": "The owner is not a valid owner account. (eg. `address(0)`)"
        }
      ],
      "OwnableUnauthorizedAccount(address)": [
        {
          "details": "The caller account is not authorized to perform an operation."
        }
      ]
    },
    "events": {
      "Approval(address,address,uint256)": {
        "details": "Emitted when the allowance of a `spender` for an `owner` is set by a call to {approve}. `value` is the new allowance."
      },
      "Transfer(address,address,uint256)": {
        "details": "Emitted when `value` tokens are moved from one account (`from`) to another (`to`). Note that `value` may be zero."
      }
    },
    "kind": "dev",
    "methods": {
      "allowance(address,address)": {
        "details": "See {IERC20-allowance}."
      },
      "approve(address,uint256)": {
        "details": "See {IERC20-approve}. NOTE: If `value` is the maximum `uint256`, the allowance is not updated on `transferFrom`. This is semantically equivalent to an infinite approval. Requirements: - `spender` cannot be the zero address."
      },
      "balanceOf(address)": {
        "details": "See {IERC20-balanceOf}."
      },
      "decimals()": {
        "details": "Returns the number of decimals used to get its user representation. For example, if `decimals` equals `2`, a balance of `505` tokens should be displayed to a user as `5.05` (`505 / 10 ** 2`). Tokens usually opt for a value of 18, imitating the relationship between Ether and Wei. This is the default value returned by this function, unless it's overridden. NOTE: This information is only used for _display_ purposes: it in no way affects any of the arithmetic of the contract, including {IERC20-balanceOf} and {IERC20-transfer}."
      },
      "name()": {
        "details": "Returns the name of the token."
      },
      "owner()": {
        "details": "Returns the address of the current owner."
      },
      "renounceOwnership()": {
        "details": "Leaves the contract without owner. It will not be possible to call `onlyOwner` functions. Can only be called by the current owner. NOTE: Renouncing ownership will leave the contract without an owner, thereby disabling any functionality that is only available to the owner."
      },
      "symbol()": {
        "details": "Returns the symbol of the token, usually a shorter version of the name."
      },
      "totalSupply()": {
        "details": "See {IERC20-totalSupply}."
      },
      "transferFrom(address,address,uint256)": {
        "details": "See {IERC20-transferFrom}. Emits an {Approval} event indicating the updated allowance. This is not required by the EIP. See the note at the beginning of {ERC20}. NOTE: Does not update the allowance if the current allowance is the maximum `uint256`. Requirements: - `from` and `to` cannot be the zero address. - `from` must have a balance of at least `value`. - the caller must have allowance for ``from``'s tokens of at least `value`."
      },
      "transferOwnership(address)": {
        "details": "Transfers ownership of the contract to a new account (`newOwner`). Can only be called by the current owner."
      }
    },
    "version": 1
  },
  "userdoc": {
    "kind": "user",
    "methods": {},
    "version": 1
  }
}