{
  "contractName": "WasteManagement",
  "abi": [
    {
      "inputs": [],
      "stateMutability": "nonpayable",
      "type": "constructor"
    },
    {
      "anonymous": false,
      "inputs": [
        {
          "indexed": false,
          "internalType": "string",
          "name": "id",
          "type": "string"
        }
      ],
      "name": "BinCreated",
      "type": "event"
    },
    {
      "anonymous": false,
      "inputs": [
        {
          "indexed": false,
          "internalType": "string",
          "name": "id",
          "type": "string"
        }
      ],
      "name": "CollectionCreated",
      "type": "event"
    },
    {
      "anonymous": false,
      "inputs": [
        {
          "indexed": false,
          "internalType": "string",
          "name": "message",
          "type": "string"
        }
      ],
      "name": "ModifCitizen",
      "type": "event"
    },
    {
      "anonymous": false,
      "inputs": [
        {
          "indexed": false,
          "internalType": "string",
          "name": "message",
          "type": "string"
        }
      ],
      "name": "ModifShipper",
      "type": "event"
    },
    {
      "inputs": [],
      "name": "binCount",
      "outputs": [
        {
          "internalType": "uint256",
          "name": "",
          "type": "uint256"
        }
      ],
      "stateMutability": "view",
      "type": "function",
      "constant": true
    },
    {
      "inputs": [
        {
          "internalType": "string",
          "name": "",
          "type": "string"
        }
      ],
      "name": "bins",
      "outputs": [
        {
          "internalType": "string",
          "name": "id",
          "type": "string"
        },
        {
          "internalType": "string",
          "name": "location",
          "type": "string"
        },
        {
          "internalType": "uint256",
          "name": "capacity",
          "type": "uint256"
        },
        {
          "internalType": "uint256",
          "name": "currentWeight",
          "type": "uint256"
        }
      ],
      "stateMutability": "view",
      "type": "function",
      "constant": true
    },
    {
      "inputs": [
        {
          "internalType": "address",
          "name": "",
          "type": "address"
        }
      ],
      "name": "citizenRewards",
      "outputs": [
        {
          "internalType": "uint256",
          "name": "",
          "type": "uint256"
        }
      ],
      "stateMutability": "view",
      "type": "function",
      "constant": true
    },
    {
      "inputs": [],
      "name": "collectionCount",
      "outputs": [
        {
          "internalType": "uint256",
          "name": "",
          "type": "uint256"
        }
      ],
      "stateMutability": "view",
      "type": "function",
      "constant": true
    },
    {
      "inputs": [
        {
          "internalType": "string",
          "name": "",
          "type": "string"
        }
      ],
      "name": "collections",
      "outputs": [
        {
          "internalType": "string",
          "name": "idCollection",
          "type": "string"
        },
        {
          "internalType": "address",
          "name": "shipperNotified",
          "type": "address"
        },
        {
          "internalType": "string",
          "name": "binNotif",
          "type": "string"
        },
        {
          "internalType": "bool",
          "name": "done",
          "type": "bool"
        },
        {
          "internalType": "string",
          "name": "date",
          "type": "string"
        },
        {
          "internalType": "string",
          "name": "status",
          "type": "string"
        }
      ],
      "stateMutability": "view",
      "type": "function",
      "constant": true
    },
    {
      "inputs": [],
      "name": "owner",
      "outputs": [
        {
          "internalType": "address",
          "name": "",
          "type": "address"
        }
      ],
      "stateMutability": "view",
      "type": "function",
      "constant": true
    },
    {
      "inputs": [],
      "name": "wasteCount",
      "outputs": [
        {
          "internalType": "uint256",
          "name": "",
          "type": "uint256"
        }
      ],
      "stateMutability": "view",
      "type": "function",
      "constant": true
    },
    {
      "inputs": [
        {
          "internalType": "uint256",
          "name": "",
          "type": "uint256"
        }
      ],
      "name": "wasteIds",
      "outputs": [
        {
          "internalType": "string",
          "name": "",
          "type": "string"
        }
      ],
      "stateMutability": "view",
      "type": "function",
      "constant": true
    },
    {
      "inputs": [
        {
          "internalType": "string",
          "name": "",
          "type": "string"
        }
      ],
      "name": "wastes",
      "outputs": [
        {
          "internalType": "string",
          "name": "id",
          "type": "string"
        },
        {
          "internalType": "string",
          "name": "status",
          "type": "string"
        },
        {
          "internalType": "uint256",
          "name": "weight",
          "type": "uint256"
        },
        {
          "internalType": "address",
          "name": "citizenId",
          "type": "address"
        },
        {
          "internalType": "address",
          "name": "shipperId",
          "type": "address"
        },
        {
          "internalType": "address",
          "name": "recyclerId",
          "type": "address"
        },
        {
          "internalType": "string",
          "name": "binId",
          "type": "string"
        },
        {
          "internalType": "string",
          "name": "dateCollection",
          "type": "string"
        }
      ],
      "stateMutability": "view",
      "type": "function",
      "constant": true
    },
    {
      "inputs": [
        {
          "internalType": "string",
          "name": "_location",
          "type": "string"
        },
        {
          "internalType": "uint256",
          "name": "_capacity",
          "type": "uint256"
        },
        {
          "internalType": "uint256",
          "name": "_currentWeight",
          "type": "uint256"
        }
      ],
      "name": "createBin",
      "outputs": [
        {
          "internalType": "string",
          "name": "",
          "type": "string"
        }
      ],
      "stateMutability": "nonpayable",
      "type": "function"
    },
    {
      "inputs": [],
      "name": "getBins",
      "outputs": [
        {
          "internalType": "string[]",
          "name": "",
          "type": "string[]"
        },
        {
          "internalType": "string[]",
          "name": "",
          "type": "string[]"
        },
        {
          "internalType": "uint256[]",
          "name": "",
          "type": "uint256[]"
        },
        {
          "internalType": "uint256[]",
          "name": "",
          "type": "uint256[]"
        }
      ],
      "stateMutability": "view",
      "type": "function",
      "constant": true
    },
    {
      "inputs": [
        {
          "internalType": "address",
          "name": "_shipper",
          "type": "address"
        }
      ],
      "name": "createShipper",
      "outputs": [],
      "stateMutability": "nonpayable",
      "type": "function"
    },
    {
      "inputs": [
        {
          "internalType": "address",
          "name": "_shipper",
          "type": "address"
        },
        {
          "internalType": "string",
          "name": "_idBin",
          "type": "string"
        },
        {
          "internalType": "string",
          "name": "_date",
          "type": "string"
        }
      ],
      "name": "createCollection",
      "outputs": [
        {
          "internalType": "string",
          "name": "",
          "type": "string"
        }
      ],
      "stateMutability": "nonpayable",
      "type": "function"
    },
    {
      "inputs": [
        {
          "internalType": "string",
          "name": "_idCollection",
          "type": "string"
        },
        {
          "internalType": "address",
          "name": "_shipperId",
          "type": "address"
        },
        {
          "internalType": "string",
          "name": "_date",
          "type": "string"
        }
      ],
      "name": "ShipCollection",
      "outputs": [],
      "stateMutability": "nonpayable",
      "type": "function"
    },
    {
      "inputs": [
        {
          "internalType": "string",
          "name": "_idCollection",
          "type": "string"
        },
        {
          "internalType": "string",
          "name": "_date",
          "type": "string"
        }
      ],
      "name": "RecycleCollection",
      "outputs": [],
      "stateMutability": "nonpayable",
      "type": "function"
    },
    {
      "inputs": [
        {
          "internalType": "address",
          "name": "_citizen",
          "type": "address"
        }
      ],
      "name": "createCitizen",
      "outputs": [],
      "stateMutability": "nonpayable",
      "type": "function"
    },
    {
      "inputs": [
        {
          "internalType": "string",
          "name": "_binId",
          "type": "string"
        }
      ],
      "name": "getIsBin",
      "outputs": [
        {
          "internalType": "bool",
          "name": "",
          "type": "bool"
        }
      ],
      "stateMutability": "view",
      "type": "function",
      "constant": true
    },
    {
      "inputs": [
        {
          "internalType": "address",
          "name": "_citizenId",
          "type": "address"
        }
      ],
      "name": "getIsCitizen",
      "outputs": [
        {
          "internalType": "bool",
          "name": "",
          "type": "bool"
        }
      ],
      "stateMutability": "view",
      "type": "function",
      "constant": true
    },
    {
      "inputs": [
        {
          "internalType": "string",
          "name": "_wasteId",
          "type": "string"
        }
      ],
      "name": "CheckWaste",
      "outputs": [
        {
          "internalType": "bool",
          "name": "",
          "type": "bool"
        }
      ],
      "stateMutability": "view",
      "type": "function",
      "constant": true
    },
    {
      "inputs": [
        {
          "internalType": "string",
          "name": "_wasteId",
          "type": "string"
        },
        {
          "internalType": "uint256",
          "name": "_weight",
          "type": "uint256"
        },
        {
          "internalType": "address",
          "name": "_citizenId",
          "type": "address"
        },
        {
          "internalType": "string",
          "name": "_binId",
          "type": "string"
        }
      ],
      "name": "setWaste",
      "outputs": [],
      "stateMutability": "nonpayable",
      "type": "function"
    },
    {
      "inputs": [],
      "name": "getCountWaste",
      "outputs": [
        {
          "internalType": "uint256",
          "name": "",
          "type": "uint256"
        }
      ],
      "stateMutability": "view",
      "type": "function",
      "constant": true
    },
    {
      "inputs": [],
      "name": "getWastes",
      "outputs": [
        {
          "components": [
            {
              "internalType": "string",
              "name": "id",
              "type": "string"
            },
            {
              "internalType": "string",
              "name": "status",
              "type": "string"
            },
            {
              "internalType": "uint256",
              "name": "weight",
              "type": "uint256"
            },
            {
              "internalType": "address",
              "name": "citizenId",
              "type": "address"
            },
            {
              "internalType": "address",
              "name": "shipperId",
              "type": "address"
            },
            {
              "internalType": "address",
              "name": "recyclerId",
              "type": "address"
            },
            {
              "internalType": "string",
              "name": "binId",
              "type": "string"
            },
            {
              "internalType": "string",
              "name": "dateCollection",
              "type": "string"
            }
          ],
          "internalType": "struct WasteManagement.Waste[]",
          "name": "",
          "type": "tuple[]"
        }
      ],
      "stateMutability": "view",
      "type": "function",
      "constant": true
    },
    {
      "inputs": [],
      "name": "getWastesStatus",
      "outputs": [
        {
          "internalType": "string[]",
          "name": "",
          "type": "string[]"
        },
        {
          "internalType": "string[]",
          "name": "",
          "type": "string[]"
        }
      ],
      "stateMutability": "view",
      "type": "function",
      "constant": true
    },
    {
      "inputs": [],
      "name": "getCollectionsIds",
      "outputs": [
        {
          "internalType": "string[]",
          "name": "",
          "type": "string[]"
        }
      ],
      "stateMutability": "view",
      "type": "function",
      "constant": true
    },
    {
      "inputs": [],
      "name": "getCollectionsStatus",
      "outputs": [
        {
          "internalType": "string[]",
          "name": "",
          "type": "string[]"
        }
      ],
      "stateMutability": "view",
      "type": "function",
      "constant": true
    },
    {
      "inputs": [],
      "name": "getShipCount",
      "outputs": [
        {
          "internalType": "uint256",
          "name": "",
          "type": "uint256"
        }
      ],
      "stateMutability": "view",
      "type": "function",
      "constant": true
    }
  ],
  "bytecode": "0x6080604052734494f3bb19f95bb33ec116887b9dbd728c008f9b600a60006101000a81548173ffffffffffffffffffffffffffffffffffffffff021916908373ffffffffffffffffffffffffffffffffffffffff160217905550600060135534801561006a57600080fd5b5033601160006101000a81548173ffffffffffffffffffffffffffffffffffffffff021916908373ffffffffffffffffffffffffffffffffffffffff160217905550615060806100bb6000396000f3fe608060405234801561001057600080fd5b506004361061018e5760003560e01c806381d06633116100de578063c773e64911610097578063d597280211610071578063d5972802146104bd578063e042a402146104ed578063e1c7b8d51461050e578063fb576d121461053e5761018e565b8063c773e64914610451578063cc3b2e8814610481578063d57f966b1461049f5761018e565b806381d066331461038f5780638da5cb5b146103bf5780638f8c7b90146103dd578063963464f1146103fb578063a08c107914610417578063ac7ef1e9146104335761018e565b806334ab75761161014b5780633edb6272116101255780633edb6272146102c35780634a19d56d146102f3578063537a828f1461032a57806366e54d7b1461035a5761018e565b806334ab75761461025b57806335a9c596146102775780633c1bc3b9146102a75761018e565b8063038e7c1114610193578063113caa3d146101af57806313a172f3146101cd57806316207393146102005780631704c2711461021e578063314dc3701461023c575b600080fd5b6101ad60048036038101906101a891906138ca565b61055c565b005b6101b7610825565b6040516101c49190613a83565b60405180910390f35b6101e760048036038101906101e29190613aa5565b61098e565b6040516101f79493929190613b51565b60405180910390f35b610208610ae4565b6040516102159190613ba4565b60405180910390f35b610226610aea565b6040516102339190613ba4565b60405180910390f35b610244610b84565b604051610252929190613bbf565b60405180910390f35b61027560048036038101906102709190613c54565b610e5c565b005b610291600480360381019061028c9190613cdf565b611224565b60405161029e9190613d6a565b60405180910390f35b6102c160048036038101906102bc9190613d8c565b611876565b005b6102dd60048036038101906102d89190613aa5565b611ae1565b6040516102ea9190613dd4565b60405180910390f35b61030d60048036038101906103089190613aa5565b611b81565b604051610321989796959493929190613dfe565b60405180910390f35b610344600480360381019061033f9190613ec4565b611e5f565b6040516103519190613d6a565b60405180910390f35b610374600480360381019061036f9190613aa5565b611f0b565b60405161038696959493929190613ef1565b60405180910390f35b6103a960048036038101906103a49190613f6e565b6121aa565b6040516103b69190613d6a565b60405180910390f35b6103c76123fc565b6040516103d49190613fdd565b60405180910390f35b6103e5612422565b6040516103f29190613ba4565b60405180910390f35b61041560048036038101906104109190613d8c565b6124bc565b005b610431600480360381019061042c9190613ff8565b612697565b005b61043b61293a565b6040516104489190613a83565b60405180910390f35b61046b60048036038101906104669190613d8c565b612b39565b6040516104789190613dd4565b60405180910390f35b610489612c1b565b6040516104969190613ba4565b60405180910390f35b6104a7612c21565b6040516104b49190613ba4565b60405180910390f35b6104d760048036038101906104d29190613d8c565b612c27565b6040516104e49190613ba4565b60405180910390f35b6104f5612c3f565b6040516105059493929190614155565b60405180910390f35b61052860048036038101906105239190613aa5565b612fd3565b6040516105359190613dd4565b60405180910390f35b610546613075565b604051610553919061434c565b60405180910390f35b600d8260405161056c91906143aa565b908152602001604051809103902060009054906101000a900460ff166105c7576040517f08c379a00000000000000000000000000000000000000000000000000000000081526004016105be9061440d565b60405180910390fd5b6040518060400160405280600781526020017f526563796c65640000000000000000000000000000000000000000000000000081525060048360405161060d91906143aa565b9081526020016040518091039020600501908161062a9190614639565b5060005b6007805490508110156108205760006008600783815481106106535761065261470b565b5b9060005260206000200160405161066a91906147bd565b9081526020016040518091039020905060048460405161068a91906143aa565b90815260200160405180910390206002016040516106a89190614877565b6040518091039020816006016040516106c19190614877565b604051809103902014801561072257506004846040516106e191906143aa565b90815260200160405180910390206004016040516106ff9190614877565b6040518091039020816007016040516107189190614877565b6040518091039020145b1561080c576040518060400160405280600781526020017f536869707065640000000000000000000000000000000000000000000000000081525080519060200120816001016040516107759190614877565b60405180910390200361080b578260048560405161079391906143aa565b908152602001604051809103902060040190816107b09190614639565b50828160070190816107c29190614639565b506040518060400160405280600781526020017f526563796c6564000000000000000000000000000000000000000000000000008152508160010190816108099190614639565b505b5b508080610818906148bd565b91505061062e565b505050565b6060601160009054906101000a900473ffffffffffffffffffffffffffffffffffffffff1673ffffffffffffffffffffffffffffffffffffffff163373ffffffffffffffffffffffffffffffffffffffff16146108b7576040517f08c379a00000000000000000000000000000000000000000000000000000000081526004016108ae90614977565b60405180910390fd5b6006805480602002602001604051908101604052809291908181526020016000905b828210156109855783829060005260206000200180546108f89061445c565b80601f01602080910402602001604051908101604052809291908181526020018280546109249061445c565b80156109715780601f1061094657610100808354040283529160200191610971565b820191906000526020600020905b81548152906001019060200180831161095457829003601f168201915b5050505050815260200190600101906108d9565b50505050905090565b6003818051602081018201805184825260208301602085012081835280955050505050506000915090508060000180546109c79061445c565b80601f01602080910402602001604051908101604052809291908181526020018280546109f39061445c565b8015610a405780601f10610a1557610100808354040283529160200191610a40565b820191906000526020600020905b815481529060010190602001808311610a2357829003601f168201915b505050505090806001018054610a559061445c565b80601f0160208091040260200160405190810160405280929190818152602001828054610a819061445c565b8015610ace5780601f10610aa357610100808354040283529160200191610ace565b820191906000526020600020905b815481529060010190602001808311610ab157829003601f168201915b5050505050908060020154908060030154905084565b60005481565b6000601160009054906101000a900473ffffffffffffffffffffffffffffffffffffffff1673ffffffffffffffffffffffffffffffffffffffff163373ffffffffffffffffffffffffffffffffffffffff1614610b7c576040517f08c379a0000000000000000000000000000000000000000000000000000000008152600401610b7390614977565b60405180910390fd5b601354905090565b606080601160009054906101000a900473ffffffffffffffffffffffffffffffffffffffff1673ffffffffffffffffffffffffffffffffffffffff163373ffffffffffffffffffffffffffffffffffffffff1614610c17576040517f08c379a0000000000000000000000000000000000000000000000000000000008152600401610c0e90614977565b60405180910390fd5b600060078054905067ffffffffffffffff811115610c3857610c3761379f565b5b604051908082528060200260200182016040528015610c6b57816020015b6060815260200190600190039081610c565790505b50905060005b600780549050811015610d7c576000600860078381548110610c9657610c9561470b565b5b90600052602060002001604051610cad91906147bd565b90815260200160405180910390209050806001018054610ccc9061445c565b80601f0160208091040260200160405190810160405280929190818152602001828054610cf89061445c565b8015610d455780601f10610d1a57610100808354040283529160200191610d45565b820191906000526020600020905b815481529060010190602001808311610d2857829003601f168201915b5050505050838381518110610d5d57610d5c61470b565b5b6020026020010181905250508080610d74906148bd565b915050610c71565b5060078181805480602002602001604051908101604052809291908181526020016000905b82821015610e4d578382906000526020600020018054610dc09061445c565b80601f0160208091040260200160405190810160405280929190818152602001828054610dec9061445c565b8015610e395780601f10610e0e57610100808354040283529160200191610e39565b820191906000526020600020905b815481529060010190602001808311610e1c57829003601f168201915b505050505081526020019060010190610da1565b50505050915092509250509091565b601160009054906101000a900473ffffffffffffffffffffffffffffffffffffffff1673ffffffffffffffffffffffffffffffffffffffff163373ffffffffffffffffffffffffffffffffffffffff1614610eec576040517f08c379a0000000000000000000000000000000000000000000000000000000008152600401610ee390614977565b60405180910390fd5b600d83604051610efc91906143aa565b908152602001604051809103902060009054906101000a900460ff16610f57576040517f08c379a0000000000000000000000000000000000000000000000000000000008152600401610f4e9061440d565b60405180910390fd5b8173ffffffffffffffffffffffffffffffffffffffff16600484604051610f7e91906143aa565b908152602001604051809103902060010160009054906101000a900473ffffffffffffffffffffffffffffffffffffffff1673ffffffffffffffffffffffffffffffffffffffff1614611006576040517f08c379a0000000000000000000000000000000000000000000000000000000008152600401610ffd90614a09565b60405180910390fd5b6040518060400160405280600781526020017f536869707065640000000000000000000000000000000000000000000000000081525060048460405161104c91906143aa565b908152602001604051809103902060050190816110699190614639565b508060048460405161107b91906143aa565b908152602001604051809103902060040190816110989190614639565b5060005b60078054905081101561121e5760006008600783815481106110c1576110c061470b565b5b906000526020600020016040516110d891906147bd565b908152602001604051809103902090506004856040516110f891906143aa565b90815260200160405180910390206002016040516111169190614877565b60405180910390208160060160405161112f9190614877565b604051809103902014801561119357508373ffffffffffffffffffffffffffffffffffffffff168160040160009054906101000a900473ffffffffffffffffffffffffffffffffffffffff1673ffffffffffffffffffffffffffffffffffffffff16145b1561120a57828160070190816111a99190614639565b506040518060400160405280600781526020017f53686970706564000000000000000000000000000000000000000000000000008152508160010190816111f09190614639565b5060136000815480929190611204906148bd565b91905055505b508080611216906148bd565b91505061109c565b50505050565b6060601160009054906101000a900473ffffffffffffffffffffffffffffffffffffffff1673ffffffffffffffffffffffffffffffffffffffff163373ffffffffffffffffffffffffffffffffffffffff16146112b6576040517f08c379a00000000000000000000000000000000000000000000000000000000081526004016112ad90614977565b60405180910390fd5b601060008573ffffffffffffffffffffffffffffffffffffffff1673ffffffffffffffffffffffffffffffffffffffff16815260200190815260200160002060009054906101000a900460ff16611342576040517f08c379a000000000000000000000000000000000000000000000000000000000815260040161133990614a75565b60405180910390fd5b600c8360405161135291906143aa565b908152602001604051809103902060009054906101000a900460ff166113ad576040517f08c379a00000000000000000000000000000000000000000000000000000000081526004016113a490614ae1565b60405180910390fd5b60005b60068054905081101561149c5760006004600683815481106113d5576113d461470b565b5b906000526020600020016040516113ec91906147bd565b908152602001604051809103902090508480519060200120816002016040516114159190614877565b6040518091039020148015611448575083805190602001208160040160405161143e9190614877565b6040518091039020145b15611488576040517f08c379a000000000000000000000000000000000000000000000000000000000815260040161147f90614b73565b60405180910390fd5b508080611494906148bd565b9150506113b0565b5060006114a761354e565b9050600d816040516114b991906143aa565b908152602001604051809103902060009054906101000a900460ff1615611515576040517f08c379a000000000000000000000000000000000000000000000000000000000815260040161150c90614c05565b60405180910390fd5b60005b60078054905081101561165457600060086007838154811061153d5761153c61470b565b5b9060005260206000200160405161155491906147bd565b9081526020016040518091039020905085805190602001208160060160405161157d9190614877565b60405180910390201480156115e557506040518060400160405280600781526020017f57616974696e670000000000000000000000000000000000000000000000000081525080519060200120816001016040516115db9190614877565b6040518091039020145b1561164057848160070190816115fb9190614639565b50868160040160006101000a81548173ffffffffffffffffffffffffffffffffffffffff021916908373ffffffffffffffffffffffffffffffffffffffff1602179055505b50808061164c906148bd565b915050611518565b506040518060c001604052808281526020018673ffffffffffffffffffffffffffffffffffffffff1681526020018581526020016000151581526020018481526020016040518060400160405280600781526020017f57616974696e67000000000000000000000000000000000000000000000000008152508152506004826040516116e091906143aa565b908152602001604051809103902060008201518160000190816117039190614639565b5060208201518160010160006101000a81548173ffffffffffffffffffffffffffffffffffffffff021916908373ffffffffffffffffffffffffffffffffffffffff16021790555060408201518160020190816117609190614639565b5060608201518160030160006101000a81548160ff02191690831515021790555060808201518160040190816117969190614639565b5060a08201518160050190816117ac9190614639565b509050506006819080600181540180825580915050600190039060005260206000200160009091909190915090816117e49190614639565b50600260008154809291906117f8906148bd565b91905055506001600d8260405161180f91906143aa565b908152602001604051809103902060006101000a81548160ff0219169083151502179055507ff2e193f96c77b8eebe5989f9851e54078a47d1e2d8e3ca74dca8a4aeb249aebf816040516118639190613d6a565b60405180910390a1809150509392505050565b601160009054906101000a900473ffffffffffffffffffffffffffffffffffffffff1673ffffffffffffffffffffffffffffffffffffffff163373ffffffffffffffffffffffffffffffffffffffff1614611906576040517f08c379a00000000000000000000000000000000000000000000000000000000081526004016118fd90614977565b60405180910390fd5b600f60008273ffffffffffffffffffffffffffffffffffffffff1673ffffffffffffffffffffffffffffffffffffffff16815260200190815260200160002060009054906101000a900460ff1615611993576040517f08c379a000000000000000000000000000000000000000000000000000000000815260040161198a90614c71565b60405180910390fd5b601160009054906101000a900473ffffffffffffffffffffffffffffffffffffffff1673ffffffffffffffffffffffffffffffffffffffff168173ffffffffffffffffffffffffffffffffffffffff1603611a23576040517f08c379a0000000000000000000000000000000000000000000000000000000008152600401611a1a90614d03565b60405180910390fd5b6009819080600181540180825580915050600190039060005260206000200160009091909190916101000a81548173ffffffffffffffffffffffffffffffffffffffff021916908373ffffffffffffffffffffffffffffffffffffffff1602179055506001600f60008373ffffffffffffffffffffffffffffffffffffffff1673ffffffffffffffffffffffffffffffffffffffff16815260200190815260200160002060006101000a81548160ff02191690831515021790555050565b6000600c82604051611af391906143aa565b908152602001604051809103902060009054906101000a900460ff16611b4e576040517f08c379a0000000000000000000000000000000000000000000000000000000008152600401611b4590614ae1565b60405180910390fd5b600c82604051611b5e91906143aa565b908152602001604051809103902060009054906101000a900460ff169050919050565b600881805160208101820180518482526020830160208501208183528095505050505050600091509050806000018054611bba9061445c565b80601f0160208091040260200160405190810160405280929190818152602001828054611be69061445c565b8015611c335780601f10611c0857610100808354040283529160200191611c33565b820191906000526020600020905b815481529060010190602001808311611c1657829003601f168201915b505050505090806001018054611c489061445c565b80601f0160208091040260200160405190810160405280929190818152602001828054611c749061445c565b8015611cc15780601f10611c9657610100808354040283529160200191611cc1565b820191906000526020600020905b815481529060010190602001808311611ca457829003601f168201915b5050505050908060020154908060030160009054906101000a900473ffffffffffffffffffffffffffffffffffffffff16908060040160009054906101000a900473ffffffffffffffffffffffffffffffffffffffff16908060050160009054906101000a900473ffffffffffffffffffffffffffffffffffffffff1690806006018054611d4e9061445c565b80601f0160208091040260200160405190810160405280929190818152602001828054611d7a9061445c565b8015611dc75780601f10611d9c57610100808354040283529160200191611dc7565b820191906000526020600020905b815481529060010190602001808311611daa57829003601f168201915b505050505090806007018054611ddc9061445c565b80601f0160208091040260200160405190810160405280929190818152602001828054611e089061445c565b8015611e555780601f10611e2a57610100808354040283529160200191611e55565b820191906000526020600020905b815481529060010190602001808311611e3857829003601f168201915b5050505050905088565b60078181548110611e6f57600080fd5b906000526020600020016000915090508054611e8a9061445c565b80601f0160208091040260200160405190810160405280929190818152602001828054611eb69061445c565b8015611f035780601f10611ed857610100808354040283529160200191611f03565b820191906000526020600020905b815481529060010190602001808311611ee657829003601f168201915b505050505081565b600481805160208101820180518482526020830160208501208183528095505050505050600091509050806000018054611f449061445c565b80601f0160208091040260200160405190810160405280929190818152602001828054611f709061445c565b8015611fbd5780601f10611f9257610100808354040283529160200191611fbd565b820191906000526020600020905b815481529060010190602001808311611fa057829003601f168201915b5050505050908060010160009054906101000a900473ffffffffffffffffffffffffffffffffffffffff1690806002018054611ff89061445c565b80601f01602080910402602001604051908101604052809291908181526020018280546120249061445c565b80156120715780601f1061204657610100808354040283529160200191612071565b820191906000526020600020905b81548152906001019060200180831161205457829003601f168201915b5050505050908060030160009054906101000a900460ff16908060040180546120999061445c565b80601f01602080910402602001604051908101604052809291908181526020018280546120c59061445c565b80156121125780601f106120e757610100808354040283529160200191612112565b820191906000526020600020905b8154815290600101906020018083116120f557829003601f168201915b5050505050908060050180546121279061445c565b80601f01602080910402602001604051908101604052809291908181526020018280546121539061445c565b80156121a05780601f10612175576101008083540402835291602001916121a0565b820191906000526020600020905b81548152906001019060200180831161218357829003601f168201915b5050505050905086565b6060601160009054906101000a900473ffffffffffffffffffffffffffffffffffffffff1673ffffffffffffffffffffffffffffffffffffffff163373ffffffffffffffffffffffffffffffffffffffff161461223c576040517f08c379a000000000000000000000000000000000000000000000000000000000815260040161223390614977565b60405180910390fd5b600061224661354e565b9050600c8160405161225891906143aa565b908152602001604051809103902060009054906101000a900460ff16156122b4576040517f08c379a00000000000000000000000000000000000000000000000000000000081526004016122ab90614d6f565b60405180910390fd5b6040518060800160405280828152602001868152602001858152602001848152506003826040516122e591906143aa565b908152602001604051809103902060008201518160000190816123089190614639565b50602082015181600101908161231e9190614639565b50604082015181600201556060820151816003015590505060058190806001815401808255809150506001900390600052602060002001600090919091909150908161236a9190614639565b506001600081548092919061237e906148bd565b91905055506001600c8260405161239591906143aa565b908152602001604051809103902060006101000a81548160ff0219169083151502179055507fd5413a7934f1aa973af7bc53f68df06953b49031401619e5997d54afb849377e816040516123e99190613d6a565b60405180910390a1809150509392505050565b601160009054906101000a900473ffffffffffffffffffffffffffffffffffffffff1681565b6000601160009054906101000a900473ffffffffffffffffffffffffffffffffffffffff1673ffffffffffffffffffffffffffffffffffffffff163373ffffffffffffffffffffffffffffffffffffffff16146124b4576040517f08c379a00000000000000000000000000000000000000000000000000000000081526004016124ab90614977565b60405180910390fd5b600054905090565b601160009054906101000a900473ffffffffffffffffffffffffffffffffffffffff1673ffffffffffffffffffffffffffffffffffffffff163373ffffffffffffffffffffffffffffffffffffffff161461254c576040517f08c379a000000000000000000000000000000000000000000000000000000000815260040161254390614977565b60405180910390fd5b601060008273ffffffffffffffffffffffffffffffffffffffff1673ffffffffffffffffffffffffffffffffffffffff16815260200190815260200160002060009054906101000a900460ff16156125d9576040517f08c379a00000000000000000000000000000000000000000000000000000000081526004016125d090614ddb565b60405180910390fd5b600b819080600181540180825580915050600190039060005260206000200160009091909190916101000a81548173ffffffffffffffffffffffffffffffffffffffff021916908373ffffffffffffffffffffffffffffffffffffffff1602179055506001601060008373ffffffffffffffffffffffffffffffffffffffff1673ffffffffffffffffffffffffffffffffffffffff16815260200190815260200160002060006101000a81548160ff02191690831515021790555050565b6040518061010001604052808581526020016040518060400160405280600781526020017f57616974696e670000000000000000000000000000000000000000000000000081525081526020018481526020018373ffffffffffffffffffffffffffffffffffffffff168152602001600073ffffffffffffffffffffffffffffffffffffffff168152602001600073ffffffffffffffffffffffffffffffffffffffff1681526020018281526020016040518060200160405280600081525081525060088560405161276991906143aa565b9081526020016040518091039020600082015181600001908161278c9190614639565b5060208201518160010190816127a29190614639565b506040820151816002015560608201518160030160006101000a81548173ffffffffffffffffffffffffffffffffffffffff021916908373ffffffffffffffffffffffffffffffffffffffff16021790555060808201518160040160006101000a81548173ffffffffffffffffffffffffffffffffffffffff021916908373ffffffffffffffffffffffffffffffffffffffff16021790555060a08201518160050160006101000a81548173ffffffffffffffffffffffffffffffffffffffff021916908373ffffffffffffffffffffffffffffffffffffffff16021790555060c08201518160060190816128979190614639565b5060e08201518160070190816128ad9190614639565b509050506007849080600181540180825580915050600190039060005260206000200160009091909190915090816128e59190614639565b506001600e856040516128f891906143aa565b908152602001604051809103902060006101000a81548160ff02191690831515021790555060008081548092919061292f906148bd565b919050555050505050565b6060601160009054906101000a900473ffffffffffffffffffffffffffffffffffffffff1673ffffffffffffffffffffffffffffffffffffffff163373ffffffffffffffffffffffffffffffffffffffff16146129cc576040517f08c379a00000000000000000000000000000000000000000000000000000000081526004016129c390614977565b60405180910390fd5b600060068054905067ffffffffffffffff8111156129ed576129ec61379f565b5b604051908082528060200260200182016040528015612a2057816020015b6060815260200190600190039081612a0b5790505b50905060005b600680549050811015612b31576000600460068381548110612a4b57612a4a61470b565b5b90600052602060002001604051612a6291906147bd565b90815260200160405180910390209050806005018054612a819061445c565b80601f0160208091040260200160405190810160405280929190818152602001828054612aad9061445c565b8015612afa5780601f10612acf57610100808354040283529160200191612afa565b820191906000526020600020905b815481529060010190602001808311612add57829003601f168201915b5050505050838381518110612b1257612b1161470b565b5b6020026020010181905250508080612b29906148bd565b915050612a26565b508091505090565b6000600f60008373ffffffffffffffffffffffffffffffffffffffff1673ffffffffffffffffffffffffffffffffffffffff16815260200190815260200160002060009054906101000a900460ff16612bc7576040517f08c379a0000000000000000000000000000000000000000000000000000000008152600401612bbe90614e47565b60405180910390fd5b600f60008373ffffffffffffffffffffffffffffffffffffffff1673ffffffffffffffffffffffffffffffffffffffff16815260200190815260200160002060009054906101000a900460ff169050919050565b60015481565b60025481565b60126020528060005260406000206000915090505481565b606080606080600060015467ffffffffffffffff811115612c6357612c6261379f565b5b604051908082528060200260200182016040528015612c9657816020015b6060815260200190600190039081612c815790505b509050600060015467ffffffffffffffff811115612cb757612cb661379f565b5b604051908082528060200260200182016040528015612cea57816020015b6060815260200190600190039081612cd55790505b509050600060015467ffffffffffffffff811115612d0b57612d0a61379f565b5b604051908082528060200260200182016040528015612d395781602001602082028036833780820191505090505b509050600060015467ffffffffffffffff811115612d5a57612d5961379f565b5b604051908082528060200260200182016040528015612d885781602001602082028036833780820191505090505b50905060005b600154811015612fbc576000600360058381548110612db057612daf61470b565b5b90600052602060002001604051612dc791906147bd565b9081526020016040518091039020604051806080016040529081600082018054612df09061445c565b80601f0160208091040260200160405190810160405280929190818152602001828054612e1c9061445c565b8015612e695780601f10612e3e57610100808354040283529160200191612e69565b820191906000526020600020905b815481529060010190602001808311612e4c57829003601f168201915b50505050508152602001600182018054612e829061445c565b80601f0160208091040260200160405190810160405280929190818152602001828054612eae9061445c565b8015612efb5780601f10612ed057610100808354040283529160200191612efb565b820191906000526020600020905b815481529060010190602001808311612ede57829003601f168201915b505050505081526020016002820154815260200160038201548152505090508060000151868381518110612f3257612f3161470b565b5b60200260200101819052508060200151858381518110612f5557612f5461470b565b5b60200260200101819052508060400151848381518110612f7857612f7761470b565b5b6020026020010181815250508060600151838381518110612f9c57612f9b61470b565b5b602002602001018181525050508080612fb4906148bd565b915050612d8e565b508383838397509750975097505050505090919293565b6000600e82604051612fe591906143aa565b908152602001604051809103902060009054906101000a900460ff1615613041576040517f08c379a000000000000000000000000000000000000000000000000000000000815260040161303890614eb3565b60405180910390fd5b600e8260405161305191906143aa565b908152602001604051809103902060009054906101000a900460ff16159050919050565b6060601160009054906101000a900473ffffffffffffffffffffffffffffffffffffffff1673ffffffffffffffffffffffffffffffffffffffff163373ffffffffffffffffffffffffffffffffffffffff1614613107576040517f08c379a00000000000000000000000000000000000000000000000000000000081526004016130fe90614977565b60405180910390fd5b600060078054905067ffffffffffffffff8111156131285761312761379f565b5b60405190808252806020026020018201604052801561316157816020015b61314e6136e9565b8152602001906001900390816131465790505b50905060005b60078054905081101561354657600060086007838154811061318c5761318b61470b565b5b906000526020600020016040516131a391906147bd565b9081526020016040518091039020905080604051806101000160405290816000820180546131d09061445c565b80601f01602080910402602001604051908101604052809291908181526020018280546131fc9061445c565b80156132495780601f1061321e57610100808354040283529160200191613249565b820191906000526020600020905b81548152906001019060200180831161322c57829003601f168201915b505050505081526020016001820180546132629061445c565b80601f016020809104026020016040519081016040528092919081815260200182805461328e9061445c565b80156132db5780601f106132b0576101008083540402835291602001916132db565b820191906000526020600020905b8154815290600101906020018083116132be57829003601f168201915b50505050508152602001600282015481526020016003820160009054906101000a900473ffffffffffffffffffffffffffffffffffffffff1673ffffffffffffffffffffffffffffffffffffffff1673ffffffffffffffffffffffffffffffffffffffff1681526020016004820160009054906101000a900473ffffffffffffffffffffffffffffffffffffffff1673ffffffffffffffffffffffffffffffffffffffff1673ffffffffffffffffffffffffffffffffffffffff1681526020016005820160009054906101000a900473ffffffffffffffffffffffffffffffffffffffff1673ffffffffffffffffffffffffffffffffffffffff1673ffffffffffffffffffffffffffffffffffffffff1681526020016006820180546134009061445c565b80601f016020809104026020016040519081016040528092919081815260200182805461342c9061445c565b80156134795780601f1061344e57610100808354040283529160200191613479565b820191906000526020600020905b81548152906001019060200180831161345c57829003601f168201915b505050505081526020016007820180546134929061445c565b80601f01602080910402602001604051908101604052809291908181526020018280546134be9061445c565b801561350b5780601f106134e05761010080835404028352916020019161350b565b820191906000526020600020905b8154815290600101906020018083116134ee57829003601f168201915b5050505050815250508383815181106135275761352661470b565b5b602002602001018190525050808061353e906148bd565b915050613167565b508091505090565b60606000424460015460405160200161356993929190614ef4565b60405160208183030381529060405280519060200120905060008160001c9050600081036135d0576040518060400160405280600181526020017f3000000000000000000000000000000000000000000000000000000000000000815250925050506136e6565b600081905060005b600082146136025780806135eb906148bd565b915050600a826135fb9190614f60565b91506135d8565b60008167ffffffffffffffff81111561361e5761361d61379f565b5b6040519080825280601f01601f1916602001820160405280156136505781602001600182028036833780820191505090505b5090505b600084146136dd576001826136699190614f91565b9150600a846136789190614fc5565b60306136849190614ff6565b60f81b81838151811061369a5761369961470b565b5b60200101907effffffffffffffffffffffffffffffffffffffffffffffffffffffffffffff1916908160001a905350600a846136d69190614f60565b9350613654565b80955050505050505b90565b604051806101000160405280606081526020016060815260200160008152602001600073ffffffffffffffffffffffffffffffffffffffff168152602001600073ffffffffffffffffffffffffffffffffffffffff168152602001600073ffffffffffffffffffffffffffffffffffffffff16815260200160608152602001606081525090565b6000604051905090565b600080fd5b600080fd5b600080fd5b600080fd5b6000601f19601f8301169050919050565b7f4e487b7100000000000000000000000000000000000000000000000000000000600052604160045260246000fd5b6137d78261378e565b810181811067ffffffffffffffff821117156137f6576137f561379f565b5b80604052505050565b6000613809613770565b905061381582826137ce565b919050565b600067ffffffffffffffff8211156138355761383461379f565b5b61383e8261378e565b9050602081019050919050565b82818337600083830152505050565b600061386d6138688461381a565b6137ff565b90508281526020810184848401111561388957613888613789565b5b61389484828561384b565b509392505050565b600082601f8301126138b1576138b0613784565b5b81356138c184826020860161385a565b91505092915050565b600080604083850312156138e1576138e061377a565b5b600083013567ffffffffffffffff8111156138ff576138fe61377f565b5b61390b8582860161389c565b925050602083013567ffffffffffffffff81111561392c5761392b61377f565b5b6139388582860161389c565b9150509250929050565b600081519050919050565b600082825260208201905092915050565b6000819050602082019050919050565b600081519050919050565b600082825260208201905092915050565b60005b838110156139a857808201518184015260208101905061398d565b60008484015250505050565b60006139bf8261396e565b6139c98185613979565b93506139d981856020860161398a565b6139e28161378e565b840191505092915050565b60006139f983836139b4565b905092915050565b6000602082019050919050565b6000613a1982613942565b613a23818561394d565b935083602082028501613a358561395e565b8060005b85811015613a715784840389528151613a5285826139ed565b9450613a5d83613a01565b925060208a01995050600181019050613a39565b50829750879550505050505092915050565b60006020820190508181036000830152613a9d8184613a0e565b905092915050565b600060208284031215613abb57613aba61377a565b5b600082013567ffffffffffffffff811115613ad957613ad861377f565b5b613ae58482850161389c565b91505092915050565b600082825260208201905092915050565b6000613b0a8261396e565b613b148185613aee565b9350613b2481856020860161398a565b613b2d8161378e565b840191505092915050565b6000819050919050565b613b4b81613b38565b82525050565b60006080820190508181036000830152613b6b8187613aff565b90508181036020830152613b7f8186613aff565b9050613b8e6040830185613b42565b613b9b6060830184613b42565b95945050505050565b6000602082019050613bb96000830184613b42565b92915050565b60006040820190508181036000830152613bd98185613a0e565b90508181036020830152613bed8184613a0e565b90509392505050565b600073ffffffffffffffffffffffffffffffffffffffff82169050919050565b6000613c2182613bf6565b9050919050565b613c3181613c16565b8114613c3c57600080fd5b50565b600081359050613c4e81613c28565b92915050565b600080600060608486031215613c6d57613c6c61377a565b5b600084013567ffffffffffffffff811115613c8b57613c8a61377f565b5b613c978682870161389c565b9350506020613ca886828701613c3f565b925050604084013567ffffffffffffffff811115613cc957613cc861377f565b5b613cd58682870161389c565b9150509250925092565b600080600060608486031215613cf857613cf761377a565b5b6000613d0686828701613c3f565b935050602084013567ffffffffffffffff811115613d2757613d2661377f565b5b613d338682870161389c565b925050604084013567ffffffffffffffff811115613d5457613d5361377f565b5b613d608682870161389c565b9150509250925092565b60006020820190508181036000830152613d848184613aff565b905092915050565b600060208284031215613da257613da161377a565b5b6000613db084828501613c3f565b91505092915050565b60008115159050919050565b613dce81613db9565b82525050565b6000602082019050613de96000830184613dc5565b92915050565b613df881613c16565b82525050565b6000610100820190508181036000830152613e19818b613aff565b90508181036020830152613e2d818a613aff565b9050613e3c6040830189613b42565b613e496060830188613def565b613e566080830187613def565b613e6360a0830186613def565b81810360c0830152613e758185613aff565b905081810360e0830152613e898184613aff565b90509998505050505050505050565b613ea181613b38565b8114613eac57600080fd5b50565b600081359050613ebe81613e98565b92915050565b600060208284031215613eda57613ed961377a565b5b6000613ee884828501613eaf565b91505092915050565b600060c0820190508181036000830152613f0b8189613aff565b9050613f1a6020830188613def565b8181036040830152613f2c8187613aff565b9050613f3b6060830186613dc5565b8181036080830152613f4d8185613aff565b905081810360a0830152613f618184613aff565b9050979650505050505050565b600080600060608486031215613f8757613f8661377a565b5b600084013567ffffffffffffffff811115613fa557613fa461377f565b5b613fb18682870161389c565b9350506020613fc286828701613eaf565b9250506040613fd386828701613eaf565b9150509250925092565b6000602082019050613ff26000830184613def565b92915050565b600080600080608085870312156140125761401161377a565b5b600085013567ffffffffffffffff8111156140305761402f61377f565b5b61403c8782880161389c565b945050602061404d87828801613eaf565b935050604061405e87828801613c3f565b925050606085013567ffffffffffffffff81111561407f5761407e61377f565b5b61408b8782880161389c565b91505092959194509250565b600081519050919050565b600082825260208201905092915050565b6000819050602082019050919050565b6140cc81613b38565b82525050565b60006140de83836140c3565b60208301905092915050565b6000602082019050919050565b600061410282614097565b61410c81856140a2565b9350614117836140b3565b8060005b8381101561414857815161412f88826140d2565b975061413a836140ea565b92505060018101905061411b565b5085935050505092915050565b6000608082019050818103600083015261416f8187613a0e565b905081810360208301526141838186613a0e565b9050818103604083015261419781856140f7565b905081810360608301526141ab81846140f7565b905095945050505050565b600081519050919050565b600082825260208201905092915050565b6000819050602082019050919050565b6141eb81613c16565b82525050565b600061010083016000830151848203600086015261420f82826139b4565b9150506020830151848203602086015261422982826139b4565b915050604083015161423e60408601826140c3565b50606083015161425160608601826141e2565b50608083015161426460808601826141e2565b5060a083015161427760a08601826141e2565b5060c083015184820360c086015261428f82826139b4565b91505060e083015184820360e08601526142a982826139b4565b9150508091505092915050565b60006142c283836141f1565b905092915050565b6000602082019050919050565b60006142e2826141b6565b6142ec81856141c1565b9350836020820285016142fe856141d2565b8060005b8581101561433a578484038952815161431b85826142b6565b9450614326836142ca565b925060208a01995050600181019050614302565b50829750879550505050505092915050565b6000602082019050818103600083015261436681846142d7565b905092915050565b600081905092915050565b60006143848261396e565b61438e818561436e565b935061439e81856020860161398a565b80840191505092915050565b60006143b68284614379565b915081905092915050565b7f436f6c6c656374696f6e20646f65736e27742065786973740000000000000000600082015250565b60006143f7601883613aee565b9150614402826143c1565b602082019050919050565b60006020820190508181036000830152614426816143ea565b9050919050565b7f4e487b7100000000000000000000000000000000000000000000000000000000600052602260045260246000fd5b6000600282049050600182168061447457607f821691505b6020821081036144875761448661442d565b5b50919050565b60008190508160005260206000209050919050565b60006020601f8301049050919050565b600082821b905092915050565b6000600883026144ef7fffffffffffffffffffffffffffffffffffffffffffffffffffffffffffffffff826144b2565b6144f986836144b2565b95508019841693508086168417925050509392505050565b6000819050919050565b600061453661453161452c84613b38565b614511565b613b38565b9050919050565b6000819050919050565b6145508361451b565b61456461455c8261453d565b8484546144bf565b825550505050565b600090565b61457961456c565b614584818484614547565b505050565b5b818110156145a85761459d600082614571565b60018101905061458a565b5050565b601f8211156145ed576145be8161448d565b6145c7846144a2565b810160208510156145d6578190505b6145ea6145e2856144a2565b830182614589565b50505b505050565b600082821c905092915050565b6000614610600019846008026145f2565b1980831691505092915050565b600061462983836145ff565b9150826002028217905092915050565b6146428261396e565b67ffffffffffffffff81111561465b5761465a61379f565b5b614665825461445c565b6146708282856145ac565b600060209050601f8311600181146146a35760008415614691578287015190505b61469b858261461d565b865550614703565b601f1984166146b18661448d565b60005b828110156146d9578489015182556001820191506020850194506020810190506146b4565b868310156146f657848901516146f2601f8916826145ff565b8355505b6001600288020188555050505b505050505050565b7f4e487b7100000000000000000000000000000000000000000000000000000000600052603260045260246000fd5b600081546147478161445c565b614751818661436e565b9450600182166000811461476c5760018114614781576147b4565b60ff19831686528115158202860193506147b4565b61478a8561448d565b60005b838110156147ac5781548189015260018201915060208101905061478d565b838801955050505b50505092915050565b60006147c9828461473a565b915081905092915050565b600081905092915050565b60008190508160005260206000209050919050565b600081546148018161445c565b61480b81866147d4565b94506001821660008114614826576001811461483b5761486e565b60ff198316865281151582028601935061486e565b614844856147df565b60005b8381101561486657815481890152600182019150602081019050614847565b838801955050505b50505092915050565b600061488382846147f4565b915081905092915050565b7f4e487b7100000000000000000000000000000000000000000000000000000000600052601160045260246000fd5b60006148c882613b38565b91507fffffffffffffffffffffffffffffffffffffffffffffffffffffffffffffffff82036148fa576148f961488e565b5b600182019050919050565b7f4f6e6c79206f776e65722063616e2063616c6c20746869732066756e6374696f60008201527f6e00000000000000000000000000000000000000000000000000000000000000602082015250565b6000614961602183613aee565b915061496c82614905565b604082019050919050565b6000602082019050818103600083015261499081614954565b9050919050565b7f5468697320636f6c6c656374696f6e20646f65736e277420636f6e6365726e2060008201527f7468697320736869707065720000000000000000000000000000000000000000602082015250565b60006149f3602c83613aee565b91506149fe82614997565b604082019050919050565b60006020820190508181036000830152614a22816149e6565b9050919050565b7f5368697070657220646f65736e27742065786973740000000000000000000000600082015250565b6000614a5f601583613aee565b9150614a6a82614a29565b602082019050919050565b60006020820190508181036000830152614a8e81614a52565b9050919050565b7f42696e20646f65736e2774206578697374000000000000000000000000000000600082015250565b6000614acb601183613aee565b9150614ad682614a95565b602082019050919050565b60006020820190508181036000830152614afa81614abe565b9050919050565b7f436f6c6c656374696f6e20616c72656164792065786973747320666f7220746860008201527f69732062696e20616e6420646174650000000000000000000000000000000000602082015250565b6000614b5d602f83613aee565b9150614b6882614b01565b604082019050919050565b60006020820190508181036000830152614b8c81614b50565b9050919050565b7f47656e657261746564204944436f6c6c656374696f6e20616c7265616479206560008201527f7869737473000000000000000000000000000000000000000000000000000000602082015250565b6000614bef602583613aee565b9150614bfa82614b93565b604082019050919050565b60006020820190508181036000830152614c1e81614be2565b9050919050565b7f436974697a656e20616c72656164792065786973747300000000000000000000600082015250565b6000614c5b601683613aee565b9150614c6682614c25565b602082019050919050565b60006020820190508181036000830152614c8a81614c4e565b9050919050565b7f43616e6e6f742063726561746520636974697a656e2077697468206f776e657260008201527f2773206164647265737300000000000000000000000000000000000000000000602082015250565b6000614ced602a83613aee565b9150614cf882614c91565b604082019050919050565b60006020820190508181036000830152614d1c81614ce0565b9050919050565b7f47656e65726174656420494420616c7265616479206578697374730000000000600082015250565b6000614d59601b83613aee565b9150614d6482614d23565b602082019050919050565b60006020820190508181036000830152614d8881614d4c565b9050919050565b7f5368697070657220616c72656164792065786973747300000000000000000000600082015250565b6000614dc5601683613aee565b9150614dd082614d8f565b602082019050919050565b60006020820190508181036000830152614df481614db8565b9050919050565b7f436974697a656e20646f65736e27742065786973740000000000000000000000600082015250565b6000614e31601583613aee565b9150614e3c82614dfb565b602082019050919050565b60006020820190508181036000830152614e6081614e24565b9050919050565b7f5761747365206578697374000000000000000000000000000000000000000000600082015250565b6000614e9d600b83613aee565b9150614ea882614e67565b602082019050919050565b60006020820190508181036000830152614ecc81614e90565b9050919050565b6000819050919050565b614eee614ee982613b38565b614ed3565b82525050565b6000614f008286614edd565b602082019150614f108285614edd565b602082019150614f208284614edd565b602082019150819050949350505050565b7f4e487b7100000000000000000000000000000000000000000000000000000000600052601260045260246000fd5b6000614f6b82613b38565b9150614f7683613b38565b925082614f8657614f85614f31565b5b828204905092915050565b6000614f9c82613b38565b9150614fa783613b38565b9250828203905081811115614fbf57614fbe61488e565b5b92915050565b6000614fd082613b38565b9150614fdb83613b38565b925082614feb57614fea614f31565b5b828206905092915050565b600061500182613b38565b915061500c83613b38565b92508282019050808211156150245761502361488e565b5b9291505056fea26469706673582212201baafd043a3f63efb6bf5a6ca9103aee1e80feed555f224a5b9c281a79cd999d64736f6c63430008130033",
  "immutableReferences": {},
  "source": "// SPDX-License-Identifier: MIT\r\npragma solidity ^0.8.0;\r\n\r\ncontract WasteManagement {\r\n    struct Bin {\r\n        string id; // Changed type to string\r\n        string location;\r\n        uint256 capacity;\r\n        uint256 currentWeight;\r\n    }\r\n    struct Waste {\r\n        string id;\r\n        string status;\r\n        uint256 weight;\r\n        address citizenId;\r\n        address shipperId;\r\n        address recyclerId;\r\n        string binId; // Changed type to string\r\n        string dateCollection;\r\n    }\r\n    struct Collection {\r\n        string idCollection;\r\n        address shipperNotified;\r\n        string binNotif; // Changed type to string\r\n        bool done;\r\n        string date;\r\n        string status;\r\n    }\r\n    event BinCreated(string id);\r\n    //event BinCreated(string id);\r\n    event CollectionCreated(string id);\r\n    event ModifShipper(string message);\r\n    event ModifCitizen(string message);\r\n    uint256 public wasteCount;\r\n    uint256 public binCount;\r\n    uint256 public collectionCount;\r\n    mapping(string => Bin) public bins; // Changed key type to string\r\n    mapping(string => Collection) public collections;\r\n    string[] binIds; // Changed type to string\r\n    string[] collectionIds;\r\n    string[] public wasteIds; // Changed type to string\r\n    mapping(string => Waste) public wastes; // Changed key type to string\r\n    address[] citizens;\r\n    address recycler = address(0x4494f3bb19F95BB33EC116887b9dbd728C008f9b);\r\n    address[] shippers;\r\n    mapping(string => bool) isBin;\r\n    mapping(string => bool) isCollection;\r\n    mapping(string => bool) isWaste;\r\n    mapping(address => bool) isCitizen;\r\n    mapping(address => bool) isShipper;\r\n    address public owner;\r\n    //mapping(address => mapping(string => Notif)) public notifications; // Changed key type to string\r\n    mapping(address => uint256) public citizenRewards;\r\n    uint256 shipCount=0;\r\n    \r\n\r\n\r\n    modifier onlyOwner() {\r\n        require(msg.sender == owner, \"Only owner can call this function\");\r\n        _;\r\n    }\r\n\r\n    constructor() {\r\n        owner = msg.sender;\r\n    }\r\n\r\n\r\n\r\n                     //*************Bin************//\r\n    function createBin(string memory _location,  uint256 _capacity, uint256 _currentWeight) external onlyOwner returns (string memory) {\r\n        string memory _id = generateUniqueId();\r\n        require(!isBin[_id], \"Generated ID already exists\");\r\n        bins[_id] = Bin(_id, _location,  _capacity, _currentWeight);\r\n        binIds.push(_id);\r\n        binCount++;\r\n        isBin[_id] = true;\r\n        emit BinCreated(_id);\r\n        return _id;\r\n    }\r\n\r\n    // function modifyBin(string memory _id, string memory _location,  uint256 _capacity, uint256 _currentWeight) external onlyOwner {\r\n    //     require(isBin[_id], \"Bin does not exist\");\r\n    //     bins[_id] = Bin(_id, _location,  _capacity, _currentWeight);\r\n    // }\r\n\r\n    // function deleteBin(string memory _id) external onlyOwner {\r\n    //     require(isBin[_id], \"Bin does not exist\");\r\n        \r\n    //     // Update mappings and arrays\r\n    //     isBin[_id] = false;\r\n    //     delete bins[_id];\r\n        \r\n    //     // Find and remove the bin ID from binIds array\r\n    //     for (uint256 i = 0; i < binIds.length; i++) {\r\n    //         if (keccak256(bytes(binIds[i])) == keccak256(bytes(_id))) {\r\n    //             for (uint256 j = i; j < binIds.length - 1; j++) {\r\n    //                 binIds[j] = binIds[j + 1];\r\n    //             }\r\n    //             binIds.pop();\r\n    //             isBin[_id]=false;\r\n    //             break;\r\n    //         }\r\n    //     }\r\n        \r\n    //     // Decrement binCount\r\n    //     binCount--;\r\n    // }\r\n    \r\n    function getBins() public view returns (string[] memory, string[] memory, uint256[] memory, uint256[] memory) {\r\n        string[] memory ids = new string[](binCount);\r\n        string[] memory locations = new string[](binCount);\r\n       \r\n        uint256[] memory capacities = new uint256[](binCount);\r\n        uint256[] memory currentWeights = new uint256[](binCount);\r\n\r\n        for (uint256 i = 0; i < binCount; i++) {\r\n            Bin memory bin = bins[binIds[i]];\r\n            ids[i] = bin.id;\r\n            locations[i] = bin.location;\r\n            capacities[i] = bin.capacity;\r\n            currentWeights[i] = bin.currentWeight;\r\n        }\r\n\r\n        return (ids, locations, capacities, currentWeights);\r\n    }\r\n    function generateUniqueId() internal view returns (string memory) {\r\n        bytes32 hash = keccak256(abi.encodePacked(block.timestamp, block.prevrandao, binCount));\r\n        uint256 value=(uint256(hash));\r\n        if (value == 0) {\r\n            return \"0\";\r\n        }\r\n        uint256 temp = value;\r\n        uint256 digits;\r\n        while (temp != 0) {\r\n            digits++;\r\n            temp /= 10;\r\n        }\r\n        bytes memory buffer = new bytes(digits);\r\n        while (value != 0) {\r\n            digits -= 1;\r\n            buffer[digits] = bytes1(uint8(48 + uint256(value % 10)));\r\n            value /= 10;\r\n        }\r\n        return string(buffer);\r\n    }\r\n\r\n\r\n                   //*****************Shipper********************//\r\n    function createShipper(address _shipper) external onlyOwner {\r\n        require(!isShipper[_shipper], \"Shipper already exists\");\r\n\r\n        shippers.push(_shipper);\r\n        isShipper[_shipper] = true;\r\n    }\r\n\r\n    // function getShippers() public view returns (address[] memory) {\r\n    //     return shippers;\r\n    // }\r\n\r\n    // function notifyShipper(address _shipper, string memory _idBin, string memory _date) external onlyOwner {\r\n\r\n    //     require(isShipper[_shipper], \"Shipper doesn't exist\");\r\n    //     require(isBin[_idBin], \"Bin doesn't exist\");\r\n    //     notifications[_shipper][_idBin] = Notif(_shipper, _idBin, false);\r\n    // }\r\n\r\n    function createCollection(address _shipper, string memory _idBin, string memory _date) external onlyOwner returns (string memory) {\r\n        require(isShipper[_shipper], \"Shipper doesn't exist\");\r\n        require(isBin[_idBin], \"Bin doesn't exist\");\r\n\r\n        // Check if a collection with the same bin and date already exists\r\n        for (uint256 i = 0; i < collectionIds.length; i++) {\r\n            Collection storage collection = collections[collectionIds[i]];\r\n            if (keccak256(bytes(collection.binNotif)) == keccak256(bytes(_idBin)) && keccak256(bytes(collection.date)) == keccak256(bytes(_date))) {\r\n                revert(\"Collection already exists for this bin and date\");\r\n            }\r\n        }\r\n\r\n        // Generate a unique ID for the new collection\r\n        string memory _idCollection = generateUniqueId();\r\n        require(!isCollection[_idCollection], \"Generated IDCollection already exists\");\r\n\r\n        // Update dateCollection for waiting wastes with the same bin ID\r\n        for (uint256 j = 0; j < wasteIds.length; j++) {\r\n            Waste storage waste = wastes[wasteIds[j]];\r\n            if (keccak256(bytes(waste.binId)) == keccak256(bytes(_idBin)) && keccak256(bytes(waste.status)) == keccak256(bytes(\"Waiting\"))) {\r\n                waste.dateCollection = _date;\r\n                waste.shipperId=_shipper;\r\n            }\r\n        }\r\n\r\n        // Create the new collection\r\n        collections[_idCollection] = Collection(_idCollection, _shipper, _idBin, false, _date, \"Waiting\");\r\n        collectionIds.push(_idCollection);\r\n        collectionCount++;\r\n        isCollection[_idCollection] = true;\r\n\r\n        emit CollectionCreated(_idCollection);\r\n        return _idCollection;\r\n    }\r\n\r\n\r\n    function ShipCollection(string memory _idCollection, address _shipperId, string memory _date) external onlyOwner  {\r\n        require(isCollection[_idCollection], \"Collection doesn't exist\");\r\n        if (collections[_idCollection].shipperNotified != _shipperId) {\r\n            revert(\"This collection doesn't concern this shipper\");\r\n        }\r\n                // Update collection status and shipper notification\r\n        collections[_idCollection].status = \"Shipped\";\r\n        collections[_idCollection].date = _date;\r\n\r\n        // Update waste status and dateCollection for all wastes in the collection\r\n        for (uint256 i = 0; i < wasteIds.length; i++) {\r\n            Waste storage waste = wastes[wasteIds[i]];\r\n            if (keccak256(bytes(waste.binId)) == keccak256(bytes(collections[_idCollection].binNotif)) &&\r\n                waste.shipperId == _shipperId ) {\r\n                    waste.dateCollection = _date;\r\n                    waste.status = \"Shipped\"; \r\n                    shipCount++; // Increment shipCount for each waste that meets the conditions\r\n            }\r\n        }\r\n    }\r\n \r\n    // function deleteShipper(address _shipperAddress) external onlyOwner {\r\n    //     for (uint256 i = 0; i < shippers.length; i++) {\r\n    //         if (shippers[i] == _shipperAddress) {\r\n    //             shippers[i] = shippers[\r\n    //                 shippers.length - 1\r\n    //             ];\r\n    //             shippers.pop();\r\n    //             isShipper[_shipperAddress]=false;\r\n    //             break;\r\n    //         }\r\n    //     }\r\n    // }\r\n\r\n    // function modifyShipper(address _shipperAddress) external onlyOwner {\r\n    //     require(isShipper[ _shipperAddress], \"Shipper does not exist\");\r\n        \r\n    //     // Emit a message after the require statement\r\n    //     emit ModifShipper(\"Shipper can be modified\");\r\n        \r\n    //     // Further logic here if needed\r\n    // }\r\n    \r\n                         //*****************Recycler********************//\r\n    \r\n    function RecycleCollection(string memory _idCollection,string memory _date) external  {\r\n        require(isCollection[_idCollection], \"Collection doesn't exist\");\r\n        collections[_idCollection].status = \"Recyled\";\r\n        for (uint256 i = 0; i < wasteIds.length; i++) {\r\n            Waste storage waste = wastes[wasteIds[i]];\r\n            if (keccak256(bytes(waste.binId)) == keccak256(bytes(collections[_idCollection].binNotif)) &&\r\n                keccak256(bytes(waste.dateCollection)) == keccak256(bytes(collections[_idCollection].date))) {\r\n                if (keccak256(bytes(waste.status)) == keccak256(bytes(\"Shipped\"))) {\r\n                    collections[_idCollection].date=_date;\r\n                    waste.dateCollection=_date;\r\n                    waste.status = \"Recyled\";\r\n                }\r\n            }\r\n        }\r\n    }                         \r\n                     \r\n                     \r\n                        //*****************Citizen********************//\r\n    function createCitizen(address _citizen) external onlyOwner {\r\n        require(!isCitizen[_citizen], \"Citizen already exists\");\r\n        require(_citizen != owner, \"Cannot create citizen with owner's address\");\r\n\r\n        citizens.push(_citizen);\r\n        isCitizen[_citizen] = true;\r\n    }\r\n\r\n    // function deleteCitizen(address _citizenAddress) external onlyOwner {\r\n    //     for (uint256 i = 0; i < citizens.length; i++) {\r\n    //         if (citizens[i] == _citizenAddress) {\r\n    //             citizens[i] = citizens[\r\n    //                 citizens.length - 1\r\n    //             ];\r\n    //             citizens.pop();\r\n    //             isCitizen[_citizenAddress]=false;\r\n    //             break;\r\n    //         }\r\n    //     }\r\n    // }\r\n\r\n    // function modifyCitizen(address _citizenAddress) external onlyOwner {\r\n    //     require(isCitizen[ _citizenAddress], \"Citizen does not exist\");\r\n        \r\n    //     // Emit a message after the require statement\r\n    //     emit ModifCitizen(\"Citizen can be modified\");\r\n        \r\n    //     // Further logic here if needed\r\n    // }\r\n\r\n    function getIsBin(string memory _binId) external view returns (bool) {\r\n        require(isBin[_binId], \"Bin doesn't exist\");\r\n        return isBin[_binId];\r\n    }\r\n\r\n    function getIsCitizen(address _citizenId) external view returns (bool) {\r\n        require(isCitizen[_citizenId], \"Citizen doesn't exist\");\r\n        return isCitizen[_citizenId];\r\n    }\r\n\r\n    function CheckWaste(string memory _wasteId) external view returns (bool) {\r\n        require(!isWaste[_wasteId], \"Watse exist\");\r\n        return !isWaste[_wasteId];\r\n    }\r\n\r\n    function setWaste(string memory _wasteId,uint256 _weight,address _citizenId,string memory _binId) external {\r\n        wastes[_wasteId]=Waste(_wasteId, \"Waiting\", _weight, _citizenId, address(0), address(0), _binId, \"\");\r\n        wasteIds.push(_wasteId);\r\n        isWaste[_wasteId]=true;\r\n        wasteCount++;\r\n       // emit WasteCreated(_wasteId);\r\n\r\n       \r\n    }\r\n\r\n\r\n    /*TEEEEEEEEEEEEEEEEEEEEEEEEEEEEEEESTS */\r\n    function getCountWaste() view external onlyOwner() returns (uint256){\r\n        return wasteCount;\r\n    }\r\n\r\n    function getWastes()view external onlyOwner returns (Waste[]memory){\r\n        Waste[] memory trash = new Waste[](wasteIds.length);\r\n         for (uint256 i = 0; i < wasteIds.length; i++) {\r\n            Waste storage waste = wastes[wasteIds[i]];\r\n            trash[i]=waste;\r\n         }\r\n        return trash;\r\n    }\r\n\r\n    // function getWastesIDs()view external onlyOwner returns (string[] memory){\r\n       \r\n    //     return wasteIds;\r\n    // }\r\n\r\n    function getWastesStatus()view external onlyOwner returns (string[] memory,string[] memory){\r\n        string[] memory Status = new string[](wasteIds.length);\r\n        for (uint256 i = 0; i < wasteIds.length; i++) {\r\n            Waste storage waste = wastes[wasteIds[i]];\r\n            Status[i] = waste.status;\r\n        }\r\n        return(wasteIds,Status);\r\n    }\r\n\r\n    function getCollectionsIds()view external onlyOwner returns(string[] memory) {\r\n         return collectionIds;\r\n    } \r\n\r\n    function getCollectionsStatus()view external onlyOwner returns(string[] memory) {\r\n          string[] memory Status = new string[](collectionIds.length);\r\n        for (uint256 i = 0; i < collectionIds.length; i++) {\r\n            Collection storage coll = collections[collectionIds[i]];\r\n            Status[i] = coll.status;\r\n        }\r\n        return(Status);\r\n    } \r\n\r\n    function getShipCount() view external onlyOwner() returns(uint256){\r\n        return shipCount;\r\n    }\r\n    // function getCitizens() public view returns (address[] memory) {\r\n    //     return citizens;\r\n    // }\r\n\r\n}",
  "sourcePath": "C:\\Users\\Asma\\Desktop\\FinalGreenEarn\\testPFAAuthManager\\truffle\\contracts\\WasteManagement.sol",
  "compiler": {
    "name": "solc",
    "version": "0.8.19+commit.7dd6d404.Emscripten.clang"
  },
  "schemaVersion": "3.4.16",
  "updatedAt": "2024-03-02T10:36:31.034Z",
  "networkType": "ethereum",
  "devdoc": {
    "kind": "dev",
    "methods": {},
    "version": 1
  },
  "userdoc": {
    "kind": "user",
    "methods": {},
    "version": 1
  }
}