{
  "contractName": "WasteManagement",
  "abi": [
    {
      "inputs": [],
      "stateMutability": "nonpayable",
      "type": "constructor"
    },
    {
      "anonymous": false,
      "inputs": [
        {
          "indexed": false,
          "internalType": "string",
          "name": "id",
          "type": "string"
        }
      ],
      "name": "BinCreated",
      "type": "event"
    },
    {
      "anonymous": false,
      "inputs": [
        {
          "indexed": false,
          "internalType": "string",
          "name": "message",
          "type": "string"
        }
      ],
      "name": "ModifCitizen",
      "type": "event"
    },
    {
      "anonymous": false,
      "inputs": [
        {
          "indexed": false,
          "internalType": "string",
          "name": "message",
          "type": "string"
        }
      ],
      "name": "ModifShipper",
      "type": "event"
    },
    {
      "inputs": [],
      "name": "binCount",
      "outputs": [
        {
          "internalType": "uint256",
          "name": "",
          "type": "uint256"
        }
      ],
      "stateMutability": "view",
      "type": "function",
      "constant": true
    },
    {
      "inputs": [
        {
          "internalType": "string",
          "name": "",
          "type": "string"
        }
      ],
      "name": "bins",
      "outputs": [
        {
          "internalType": "string",
          "name": "id",
          "type": "string"
        },
        {
          "internalType": "string",
          "name": "location",
          "type": "string"
        },
        {
          "internalType": "uint256",
          "name": "capacity",
          "type": "uint256"
        },
        {
          "internalType": "uint256",
          "name": "currentWeight",
          "type": "uint256"
        }
      ],
      "stateMutability": "view",
      "type": "function",
      "constant": true
    },
    {
      "inputs": [
        {
          "internalType": "address",
          "name": "",
          "type": "address"
        }
      ],
      "name": "citizenRewards",
      "outputs": [
        {
          "internalType": "uint256",
          "name": "",
          "type": "uint256"
        }
      ],
      "stateMutability": "view",
      "type": "function",
      "constant": true
    },
    {
      "inputs": [
        {
          "internalType": "address",
          "name": "",
          "type": "address"
        },
        {
          "internalType": "string",
          "name": "",
          "type": "string"
        }
      ],
      "name": "notifications",
      "outputs": [
        {
          "internalType": "address",
          "name": "shipperNotified",
          "type": "address"
        },
        {
          "internalType": "string",
          "name": "binNotif",
          "type": "string"
        },
        {
          "internalType": "bool",
          "name": "done",
          "type": "bool"
        }
      ],
      "stateMutability": "view",
      "type": "function",
      "constant": true
    },
    {
      "inputs": [],
      "name": "owner",
      "outputs": [
        {
          "internalType": "address",
          "name": "",
          "type": "address"
        }
      ],
      "stateMutability": "view",
      "type": "function",
      "constant": true
    },
    {
      "inputs": [],
      "name": "wasteCount",
      "outputs": [
        {
          "internalType": "uint256",
          "name": "",
          "type": "uint256"
        }
      ],
      "stateMutability": "view",
      "type": "function",
      "constant": true
    },
    {
      "inputs": [
        {
          "internalType": "string",
          "name": "",
          "type": "string"
        }
      ],
      "name": "wastes",
      "outputs": [
        {
          "internalType": "string",
          "name": "id",
          "type": "string"
        },
        {
          "internalType": "string",
          "name": "status",
          "type": "string"
        },
        {
          "internalType": "uint256",
          "name": "weight",
          "type": "uint256"
        },
        {
          "internalType": "address",
          "name": "citizenId",
          "type": "address"
        },
        {
          "internalType": "address",
          "name": "shipperId",
          "type": "address"
        },
        {
          "internalType": "address",
          "name": "recyclerId",
          "type": "address"
        },
        {
          "internalType": "string",
          "name": "binId",
          "type": "string"
        }
      ],
      "stateMutability": "view",
      "type": "function",
      "constant": true
    },
    {
      "inputs": [
        {
          "internalType": "string",
          "name": "_location",
          "type": "string"
        },
        {
          "internalType": "uint256",
          "name": "_capacity",
          "type": "uint256"
        },
        {
          "internalType": "uint256",
          "name": "_currentWeight",
          "type": "uint256"
        }
      ],
      "name": "createBin",
      "outputs": [
        {
          "internalType": "string",
          "name": "",
          "type": "string"
        }
      ],
      "stateMutability": "nonpayable",
      "type": "function"
    },
    {
      "inputs": [
        {
          "internalType": "string",
          "name": "_id",
          "type": "string"
        },
        {
          "internalType": "string",
          "name": "_location",
          "type": "string"
        },
        {
          "internalType": "uint256",
          "name": "_capacity",
          "type": "uint256"
        },
        {
          "internalType": "uint256",
          "name": "_currentWeight",
          "type": "uint256"
        }
      ],
      "name": "modifyBin",
      "outputs": [],
      "stateMutability": "nonpayable",
      "type": "function"
    },
    {
      "inputs": [
        {
          "internalType": "string",
          "name": "_id",
          "type": "string"
        }
      ],
      "name": "deleteBin",
      "outputs": [],
      "stateMutability": "nonpayable",
      "type": "function"
    },
    {
      "inputs": [],
      "name": "getBins",
      "outputs": [
        {
          "internalType": "string[]",
          "name": "",
          "type": "string[]"
        },
        {
          "internalType": "string[]",
          "name": "",
          "type": "string[]"
        },
        {
          "internalType": "uint256[]",
          "name": "",
          "type": "uint256[]"
        },
        {
          "internalType": "uint256[]",
          "name": "",
          "type": "uint256[]"
        }
      ],
      "stateMutability": "view",
      "type": "function",
      "constant": true
    },
    {
      "inputs": [
        {
          "internalType": "address",
          "name": "_shipper",
          "type": "address"
        }
      ],
      "name": "createShipper",
      "outputs": [],
      "stateMutability": "nonpayable",
      "type": "function"
    },
    {
      "inputs": [],
      "name": "getShippers",
      "outputs": [
        {
          "internalType": "address[]",
          "name": "",
          "type": "address[]"
        }
      ],
      "stateMutability": "view",
      "type": "function",
      "constant": true
    },
    {
      "inputs": [
        {
          "internalType": "address",
          "name": "_shipper",
          "type": "address"
        },
        {
          "internalType": "string",
          "name": "_idBin",
          "type": "string"
        }
      ],
      "name": "notifyShipper",
      "outputs": [],
      "stateMutability": "nonpayable",
      "type": "function"
    },
    {
      "inputs": [
        {
          "internalType": "address",
          "name": "_shipper",
          "type": "address"
        }
      ],
      "name": "getNotifByShipper",
      "outputs": [
        {
          "components": [
            {
              "internalType": "address",
              "name": "shipperNotified",
              "type": "address"
            },
            {
              "internalType": "string",
              "name": "binNotif",
              "type": "string"
            },
            {
              "internalType": "bool",
              "name": "done",
              "type": "bool"
            }
          ],
          "internalType": "struct WasteManagement.Notif[]",
          "name": "",
          "type": "tuple[]"
        }
      ],
      "stateMutability": "view",
      "type": "function",
      "constant": true
    },
    {
      "inputs": [],
      "name": "getAllNotif",
      "outputs": [
        {
          "components": [
            {
              "internalType": "address",
              "name": "shipperNotified",
              "type": "address"
            },
            {
              "internalType": "string",
              "name": "binNotif",
              "type": "string"
            },
            {
              "internalType": "bool",
              "name": "done",
              "type": "bool"
            }
          ],
          "internalType": "struct WasteManagement.Notif[]",
          "name": "",
          "type": "tuple[]"
        }
      ],
      "stateMutability": "view",
      "type": "function",
      "constant": true
    },
    {
      "inputs": [
        {
          "internalType": "address",
          "name": "_shipperAddress",
          "type": "address"
        }
      ],
      "name": "deleteShipper",
      "outputs": [],
      "stateMutability": "nonpayable",
      "type": "function"
    },
    {
      "inputs": [
        {
          "internalType": "address",
          "name": "_shipperAddress",
          "type": "address"
        }
      ],
      "name": "modifyShipper",
      "outputs": [],
      "stateMutability": "nonpayable",
      "type": "function"
    },
    {
      "inputs": [
        {
          "internalType": "address",
          "name": "_citizen",
          "type": "address"
        }
      ],
      "name": "createCitizen",
      "outputs": [],
      "stateMutability": "nonpayable",
      "type": "function"
    },
    {
      "inputs": [],
      "name": "getCitizens",
      "outputs": [
        {
          "internalType": "address[]",
          "name": "",
          "type": "address[]"
        }
      ],
      "stateMutability": "view",
      "type": "function",
      "constant": true
    },
    {
      "inputs": [
        {
          "internalType": "address",
          "name": "_citizenAddress",
          "type": "address"
        }
      ],
      "name": "deleteCitizen",
      "outputs": [],
      "stateMutability": "nonpayable",
      "type": "function"
    },
    {
      "inputs": [
        {
          "internalType": "address",
          "name": "_citizenAddress",
          "type": "address"
        }
      ],
      "name": "modifyCitizen",
      "outputs": [],
      "stateMutability": "nonpayable",
      "type": "function"
    }
  ],
  "bytecode": "0x6080604052734494f3bb19f95bb33ec116887b9dbd728c008f9b600760006101000a81548173ffffffffffffffffffffffffffffffffffffffff021916908373ffffffffffffffffffffffffffffffffffffffff16021790555034801561006557600080fd5b5033600d60006101000a81548173ffffffffffffffffffffffffffffffffffffffff021916908373ffffffffffffffffffffffffffffffffffffffff160217905550614543806100b66000396000f3fe608060405234801561001057600080fd5b50600436106101425760003560e01c80638da5cb5b116100b8578063cc3b2e881161007c578063cc3b2e881461037e578063ce4717df1461039c578063d5972802146103b8578063df129891146103e8578063e042a40214610404578063eee8c7db1461042557610142565b80638da5cb5b146102dc5780638e44b615146102fa578063963464f11461032a578063aef16e7614610346578063c9b5ac5b1461036257610142565b80633c1bc3b91161010a5780633c1bc3b9146101ee5780634a19d56d1461020a5780636a10fe941461024057806378bfbc281461025e57806381d06633146102905780638d68d807146102c057610142565b80630977c961146101475780630ebc36981461016557806313a172f31461018157806316207393146101b4578063236b831c146101d2575b600080fd5b61014f610443565b60405161015c9190612f81565b60405180910390f35b61017f600480360381019061017a9190613118565b610a07565b005b61019b60048036038101906101969190613174565b610ca1565b6040516101ab9493929190613220565b60405180910390f35b6101bc610df7565b6040516101c99190613273565b60405180910390f35b6101ec60048036038101906101e7919061328e565b610dfd565b005b6102086004803603810190610203919061328e565b610f51565b005b610224600480360381019061021f9190613174565b6111bc565b60405161023797969594939291906132ca565b60405180910390f35b61024861140c565b60405161025591906133fd565b60405180910390f35b61027860048036038101906102739190613118565b61149a565b6040516102879392919061342e565b60405180910390f35b6102aa60048036038101906102a59190613498565b61159c565b6040516102b79190613507565b60405180910390f35b6102da60048036038101906102d5919061328e565b6117ee565b005b6102e4611a66565b6040516102f19190613529565b60405180910390f35b610314600480360381019061030f919061328e565b611a8c565b6040516103219190612f81565b60405180910390f35b610344600480360381019061033f919061328e565b611d77565b005b610360600480360381019061035b9190613544565b611f52565b005b61037c6004803603810190610377919061328e565b6120d5565b005b610386612229565b6040516103939190613273565b60405180910390f35b6103b660048036038101906103b19190613174565b61222f565b005b6103d260048036038101906103cd919061328e565b6124ee565b6040516103df9190613273565b60405180910390f35b61040260048036038101906103fd919061328e565b612506565b005b61040c612726565b60405161041c9493929190613763565b60405180910390f35b61042d612aba565b60405161043a91906133fd565b60405180910390f35b60606000805b60088054905081101561066b5760005b60015481101561065757600060038281548110610479576104786137c4565b5b90600052602060002001805461048e90613822565b80601f01602080910402602001604051908101604052809291908181526020018280546104ba90613822565b80156105075780601f106104dc57610100808354040283529160200191610507565b820191906000526020600020905b8154815290600101906020018083116104ea57829003601f168201915b5050505050905060098160405161051e919061388f565b908152602001604051809103902060009054906101000a900460ff16801561062f5750600073ffffffffffffffffffffffffffffffffffffffff16600e600060088681548110610571576105706137c4565b5b9060005260206000200160009054906101000a900473ffffffffffffffffffffffffffffffffffffffff1673ffffffffffffffffffffffffffffffffffffffff1673ffffffffffffffffffffffffffffffffffffffff168152602001908152602001600020826040516105e4919061388f565b908152602001604051809103902060000160009054906101000a900473ffffffffffffffffffffffffffffffffffffffff1673ffffffffffffffffffffffffffffffffffffffff1614155b1561064357838061063f906138d5565b9450505b50808061064f906138d5565b915050610459565b508080610663906138d5565b915050610449565b5060008167ffffffffffffffff81111561068857610687612fed565b5b6040519080825280602002602001820160405280156106c157816020015b6106ae612ced565b8152602001906001900390816106a65790505b5090506000805b6008805490508110156109fd5760005b6001548110156109e9576000600382815481106106f8576106f76137c4565b5b90600052602060002001805461070d90613822565b80601f016020809104026020016040519081016040528092919081815260200182805461073990613822565b80156107865780601f1061075b57610100808354040283529160200191610786565b820191906000526020600020905b81548152906001019060200180831161076957829003601f168201915b505050505090506000600e6000600886815481106107a7576107a66137c4565b5b9060005260206000200160009054906101000a900473ffffffffffffffffffffffffffffffffffffffff1673ffffffffffffffffffffffffffffffffffffffff1673ffffffffffffffffffffffffffffffffffffffff1681526020019081526020016000208260405161081a919061388f565b90815260200160405180910390206040518060600160405290816000820160009054906101000a900473ffffffffffffffffffffffffffffffffffffffff1673ffffffffffffffffffffffffffffffffffffffff1673ffffffffffffffffffffffffffffffffffffffff16815260200160018201805461089990613822565b80601f01602080910402602001604051908101604052809291908181526020018280546108c590613822565b80156109125780601f106108e757610100808354040283529160200191610912565b820191906000526020600020905b8154815290600101906020018083116108f557829003601f168201915b505050505081526020016002820160009054906101000a900460ff1615151515815250509050600982604051610948919061388f565b908152602001604051809103902060009054906101000a900460ff1680156109a15750600073ffffffffffffffffffffffffffffffffffffffff16816000015173ffffffffffffffffffffffffffffffffffffffff1614155b156109d457808686815181106109ba576109b96137c4565b5b602002602001018190525084806109d0906138d5565b9550505b505080806109e1906138d5565b9150506106d8565b5080806109f5906138d5565b9150506106c8565b5081935050505090565b600d60009054906101000a900473ffffffffffffffffffffffffffffffffffffffff1673ffffffffffffffffffffffffffffffffffffffff163373ffffffffffffffffffffffffffffffffffffffff1614610a97576040517f08c379a0000000000000000000000000000000000000000000000000000000008152600401610a8e9061398f565b60405180910390fd5b600c60008373ffffffffffffffffffffffffffffffffffffffff1673ffffffffffffffffffffffffffffffffffffffff16815260200190815260200160002060009054906101000a900460ff16610b23576040517f08c379a0000000000000000000000000000000000000000000000000000000008152600401610b1a906139fb565b60405180910390fd5b600981604051610b33919061388f565b908152602001604051809103902060009054906101000a900460ff16610b8e576040517f08c379a0000000000000000000000000000000000000000000000000000000008152600401610b8590613a67565b60405180910390fd5b60405180606001604052808373ffffffffffffffffffffffffffffffffffffffff16815260200182815260200160001515815250600e60008473ffffffffffffffffffffffffffffffffffffffff1673ffffffffffffffffffffffffffffffffffffffff16815260200190815260200160002082604051610c0f919061388f565b908152602001604051809103902060008201518160000160006101000a81548173ffffffffffffffffffffffffffffffffffffffff021916908373ffffffffffffffffffffffffffffffffffffffff1602179055506020820151816001019081610c799190613c33565b5060408201518160020160006101000a81548160ff0219169083151502179055509050505050565b600281805160208101820180518482526020830160208501208183528095505050505050600091509050806000018054610cda90613822565b80601f0160208091040260200160405190810160405280929190818152602001828054610d0690613822565b8015610d535780601f10610d2857610100808354040283529160200191610d53565b820191906000526020600020905b815481529060010190602001808311610d3657829003601f168201915b505050505090806001018054610d6890613822565b80601f0160208091040260200160405190810160405280929190818152602001828054610d9490613822565b8015610de15780601f10610db657610100808354040283529160200191610de1565b820191906000526020600020905b815481529060010190602001808311610dc457829003601f168201915b5050505050908060020154908060030154905084565b60005481565b600d60009054906101000a900473ffffffffffffffffffffffffffffffffffffffff1673ffffffffffffffffffffffffffffffffffffffff163373ffffffffffffffffffffffffffffffffffffffff1614610e8d576040517f08c379a0000000000000000000000000000000000000000000000000000000008152600401610e849061398f565b60405180910390fd5b600b60008273ffffffffffffffffffffffffffffffffffffffff1673ffffffffffffffffffffffffffffffffffffffff16815260200190815260200160002060009054906101000a900460ff16610f19576040517f08c379a0000000000000000000000000000000000000000000000000000000008152600401610f1090613d51565b60405180910390fd5b7fb93a331b14aae9427dff15bad12885145072068d20db5bc47066d700abfe7dea604051610f4690613dbd565b60405180910390a150565b600d60009054906101000a900473ffffffffffffffffffffffffffffffffffffffff1673ffffffffffffffffffffffffffffffffffffffff163373ffffffffffffffffffffffffffffffffffffffff1614610fe1576040517f08c379a0000000000000000000000000000000000000000000000000000000008152600401610fd89061398f565b60405180910390fd5b600b60008273ffffffffffffffffffffffffffffffffffffffff1673ffffffffffffffffffffffffffffffffffffffff16815260200190815260200160002060009054906101000a900460ff161561106e576040517f08c379a000000000000000000000000000000000000000000000000000000000815260040161106590613e29565b60405180910390fd5b600d60009054906101000a900473ffffffffffffffffffffffffffffffffffffffff1673ffffffffffffffffffffffffffffffffffffffff168173ffffffffffffffffffffffffffffffffffffffff16036110fe576040517f08c379a00000000000000000000000000000000000000000000000000000000081526004016110f590613ebb565b60405180910390fd5b6006819080600181540180825580915050600190039060005260206000200160009091909190916101000a81548173ffffffffffffffffffffffffffffffffffffffff021916908373ffffffffffffffffffffffffffffffffffffffff1602179055506001600b60008373ffffffffffffffffffffffffffffffffffffffff1673ffffffffffffffffffffffffffffffffffffffff16815260200190815260200160002060006101000a81548160ff02191690831515021790555050565b6005818051602081018201805184825260208301602085012081835280955050505050506000915090508060000180546111f590613822565b80601f016020809104026020016040519081016040528092919081815260200182805461122190613822565b801561126e5780601f106112435761010080835404028352916020019161126e565b820191906000526020600020905b81548152906001019060200180831161125157829003601f168201915b50505050509080600101805461128390613822565b80601f01602080910402602001604051908101604052809291908181526020018280546112af90613822565b80156112fc5780601f106112d1576101008083540402835291602001916112fc565b820191906000526020600020905b8154815290600101906020018083116112df57829003601f168201915b5050505050908060020154908060030160009054906101000a900473ffffffffffffffffffffffffffffffffffffffff16908060040160009054906101000a900473ffffffffffffffffffffffffffffffffffffffff16908060050160009054906101000a900473ffffffffffffffffffffffffffffffffffffffff169080600601805461138990613822565b80601f01602080910402602001604051908101604052809291908181526020018280546113b590613822565b80156114025780601f106113d757610100808354040283529160200191611402565b820191906000526020600020905b8154815290600101906020018083116113e557829003601f168201915b5050505050905087565b6060600880548060200260200160405190810160405280929190818152602001828054801561149057602002820191906000526020600020905b8160009054906101000a900473ffffffffffffffffffffffffffffffffffffffff1673ffffffffffffffffffffffffffffffffffffffff1681526020019060010190808311611446575b5050505050905090565b600e60205281600052604060002081805160208101820180518482526020830160208501208183528095505050505050600091509150508060000160009054906101000a900473ffffffffffffffffffffffffffffffffffffffff169080600101805461150690613822565b80601f016020809104026020016040519081016040528092919081815260200182805461153290613822565b801561157f5780601f106115545761010080835404028352916020019161157f565b820191906000526020600020905b81548152906001019060200180831161156257829003601f168201915b5050505050908060020160009054906101000a900460ff16905083565b6060600d60009054906101000a900473ffffffffffffffffffffffffffffffffffffffff1673ffffffffffffffffffffffffffffffffffffffff163373ffffffffffffffffffffffffffffffffffffffff161461162e576040517f08c379a00000000000000000000000000000000000000000000000000000000081526004016116259061398f565b60405180910390fd5b6000611638612b48565b905060098160405161164a919061388f565b908152602001604051809103902060009054906101000a900460ff16156116a6576040517f08c379a000000000000000000000000000000000000000000000000000000000815260040161169d90613f27565b60405180910390fd5b6040518060800160405280828152602001868152602001858152602001848152506002826040516116d7919061388f565b908152602001604051809103902060008201518160000190816116fa9190613c33565b5060208201518160010190816117109190613c33565b50604082015181600201556060820151816003015590505060038190806001815401808255809150506001900390600052602060002001600090919091909150908161175c9190613c33565b5060016000815480929190611770906138d5565b91905055506001600982604051611787919061388f565b908152602001604051809103902060006101000a81548160ff0219169083151502179055507fd5413a7934f1aa973af7bc53f68df06953b49031401619e5997d54afb849377e816040516117db9190613507565b60405180910390a1809150509392505050565b600d60009054906101000a900473ffffffffffffffffffffffffffffffffffffffff1673ffffffffffffffffffffffffffffffffffffffff163373ffffffffffffffffffffffffffffffffffffffff161461187e576040517f08c379a00000000000000000000000000000000000000000000000000000000081526004016118759061398f565b60405180910390fd5b60005b600680549050811015611a62578173ffffffffffffffffffffffffffffffffffffffff16600682815481106118b9576118b86137c4565b5b9060005260206000200160009054906101000a900473ffffffffffffffffffffffffffffffffffffffff1673ffffffffffffffffffffffffffffffffffffffff1603611a4f57600660016006805490506119139190613f47565b81548110611924576119236137c4565b5b9060005260206000200160009054906101000a900473ffffffffffffffffffffffffffffffffffffffff1660068281548110611963576119626137c4565b5b9060005260206000200160006101000a81548173ffffffffffffffffffffffffffffffffffffffff021916908373ffffffffffffffffffffffffffffffffffffffff16021790555060068054806119bd576119bc613f7b565b5b6001900381819060005260206000200160006101000a81549073ffffffffffffffffffffffffffffffffffffffff021916905590556000600b60008473ffffffffffffffffffffffffffffffffffffffff1673ffffffffffffffffffffffffffffffffffffffff16815260200190815260200160002060006101000a81548160ff021916908315150217905550611a62565b8080611a5a906138d5565b915050611881565b5050565b600d60009054906101000a900473ffffffffffffffffffffffffffffffffffffffff1681565b6060600060015467ffffffffffffffff811115611aac57611aab612fed565b5b604051908082528060200260200182016040528015611ae557816020015b611ad2612ced565b815260200190600190039081611aca5790505b50905060005b600154811015611d6d57600060038281548110611b0b57611b0a6137c4565b5b906000526020600020018054611b2090613822565b80601f0160208091040260200160405190810160405280929190818152602001828054611b4c90613822565b8015611b995780601f10611b6e57610100808354040283529160200191611b99565b820191906000526020600020905b815481529060010190602001808311611b7c57829003601f168201915b50505050509050600981604051611bb0919061388f565b908152602001604051809103902060009054906101000a900460ff1615611d5957600e60008673ffffffffffffffffffffffffffffffffffffffff1673ffffffffffffffffffffffffffffffffffffffff16815260200190815260200160002081604051611c1e919061388f565b90815260200160405180910390206040518060600160405290816000820160009054906101000a900473ffffffffffffffffffffffffffffffffffffffff1673ffffffffffffffffffffffffffffffffffffffff1673ffffffffffffffffffffffffffffffffffffffff168152602001600182018054611c9d90613822565b80601f0160208091040260200160405190810160405280929190818152602001828054611cc990613822565b8015611d165780601f10611ceb57610100808354040283529160200191611d16565b820191906000526020600020905b815481529060010190602001808311611cf957829003601f168201915b505050505081526020016002820160009054906101000a900460ff161515151581525050838381518110611d4d57611d4c6137c4565b5b60200260200101819052505b508080611d65906138d5565b915050611aeb565b5080915050919050565b600d60009054906101000a900473ffffffffffffffffffffffffffffffffffffffff1673ffffffffffffffffffffffffffffffffffffffff163373ffffffffffffffffffffffffffffffffffffffff1614611e07576040517f08c379a0000000000000000000000000000000000000000000000000000000008152600401611dfe9061398f565b60405180910390fd5b600c60008273ffffffffffffffffffffffffffffffffffffffff1673ffffffffffffffffffffffffffffffffffffffff16815260200190815260200160002060009054906101000a900460ff1615611e94576040517f08c379a0000000000000000000000000000000000000000000000000000000008152600401611e8b90613ff6565b60405180910390fd5b6008819080600181540180825580915050600190039060005260206000200160009091909190916101000a81548173ffffffffffffffffffffffffffffffffffffffff021916908373ffffffffffffffffffffffffffffffffffffffff1602179055506001600c60008373ffffffffffffffffffffffffffffffffffffffff1673ffffffffffffffffffffffffffffffffffffffff16815260200190815260200160002060006101000a81548160ff02191690831515021790555050565b600d60009054906101000a900473ffffffffffffffffffffffffffffffffffffffff1673ffffffffffffffffffffffffffffffffffffffff163373ffffffffffffffffffffffffffffffffffffffff1614611fe2576040517f08c379a0000000000000000000000000000000000000000000000000000000008152600401611fd99061398f565b60405180910390fd5b600984604051611ff2919061388f565b908152602001604051809103902060009054906101000a900460ff1661204d576040517f08c379a000000000000000000000000000000000000000000000000000000000815260040161204490614062565b60405180910390fd5b60405180608001604052808581526020018481526020018381526020018281525060028560405161207e919061388f565b908152602001604051809103902060008201518160000190816120a19190613c33565b5060208201518160010190816120b79190613c33565b50604082015181600201556060820151816003015590505050505050565b600d60009054906101000a900473ffffffffffffffffffffffffffffffffffffffff1673ffffffffffffffffffffffffffffffffffffffff163373ffffffffffffffffffffffffffffffffffffffff1614612165576040517f08c379a000000000000000000000000000000000000000000000000000000000815260040161215c9061398f565b60405180910390fd5b600c60008273ffffffffffffffffffffffffffffffffffffffff1673ffffffffffffffffffffffffffffffffffffffff16815260200190815260200160002060009054906101000a900460ff166121f1576040517f08c379a00000000000000000000000000000000000000000000000000000000081526004016121e8906140ce565b60405180910390fd5b7f7d0afd94fbb67c41dce82b00240b23eb17cd64b8971fe1b722eee0363a2dede060405161221e9061413a565b60405180910390a150565b60015481565b600d60009054906101000a900473ffffffffffffffffffffffffffffffffffffffff1673ffffffffffffffffffffffffffffffffffffffff163373ffffffffffffffffffffffffffffffffffffffff16146122bf576040517f08c379a00000000000000000000000000000000000000000000000000000000081526004016122b69061398f565b60405180910390fd5b6009816040516122cf919061388f565b908152602001604051809103902060009054906101000a900460ff1661232a576040517f08c379a000000000000000000000000000000000000000000000000000000000815260040161232190614062565b60405180910390fd5b600060098260405161233c919061388f565b908152602001604051809103902060006101000a81548160ff021916908315150217905550600281604051612371919061388f565b9081526020016040518091039020600080820160006123909190612d26565b6001820160006123a09190612d26565b60028201600090556003820160009055505060005b6003805490508110156124d2578180519060200120600382815481106123de576123dd6137c4565b5b906000526020600020016040516123f591906141fd565b6040518091039020036124bf5760008190505b600160038054905061241a9190613f47565b8110156124895760036001826124309190614214565b81548110612441576124406137c4565b5b906000526020600020016003828154811061245f5761245e6137c4565b5b9060005260206000200190816124759190614273565b508080612481906138d5565b915050612408565b50600380548061249c5761249b613f7b565b5b6001900381819060005260206000200160006124b89190612d26565b90556124d2565b80806124ca906138d5565b9150506123b5565b50600160008154809291906124e69061435b565b919050555050565b600f6020528060005260406000206000915090505481565b600d60009054906101000a900473ffffffffffffffffffffffffffffffffffffffff1673ffffffffffffffffffffffffffffffffffffffff163373ffffffffffffffffffffffffffffffffffffffff1614612596576040517f08c379a000000000000000000000000000000000000000000000000000000000815260040161258d9061398f565b60405180910390fd5b60005b600880549050811015612722578173ffffffffffffffffffffffffffffffffffffffff16600882815481106125d1576125d06137c4565b5b9060005260206000200160009054906101000a900473ffffffffffffffffffffffffffffffffffffffff1673ffffffffffffffffffffffffffffffffffffffff160361270f576008600160088054905061262b9190613f47565b8154811061263c5761263b6137c4565b5b9060005260206000200160009054906101000a900473ffffffffffffffffffffffffffffffffffffffff166008828154811061267b5761267a6137c4565b5b9060005260206000200160006101000a81548173ffffffffffffffffffffffffffffffffffffffff021916908373ffffffffffffffffffffffffffffffffffffffff16021790555060088054806126d5576126d4613f7b565b5b6001900381819060005260206000200160006101000a81549073ffffffffffffffffffffffffffffffffffffffff02191690559055612722565b808061271a906138d5565b915050612599565b5050565b606080606080600060015467ffffffffffffffff81111561274a57612749612fed565b5b60405190808252806020026020018201604052801561277d57816020015b60608152602001906001900390816127685790505b509050600060015467ffffffffffffffff81111561279e5761279d612fed565b5b6040519080825280602002602001820160405280156127d157816020015b60608152602001906001900390816127bc5790505b509050600060015467ffffffffffffffff8111156127f2576127f1612fed565b5b6040519080825280602002602001820160405280156128205781602001602082028036833780820191505090505b509050600060015467ffffffffffffffff81111561284157612840612fed565b5b60405190808252806020026020018201604052801561286f5781602001602082028036833780820191505090505b50905060005b600154811015612aa3576000600260038381548110612897576128966137c4565b5b906000526020600020016040516128ae9190614407565b90815260200160405180910390206040518060800160405290816000820180546128d790613822565b80601f016020809104026020016040519081016040528092919081815260200182805461290390613822565b80156129505780601f1061292557610100808354040283529160200191612950565b820191906000526020600020905b81548152906001019060200180831161293357829003601f168201915b5050505050815260200160018201805461296990613822565b80601f016020809104026020016040519081016040528092919081815260200182805461299590613822565b80156129e25780601f106129b7576101008083540402835291602001916129e2565b820191906000526020600020905b8154815290600101906020018083116129c557829003601f168201915b505050505081526020016002820154815260200160038201548152505090508060000151868381518110612a1957612a186137c4565b5b60200260200101819052508060200151858381518110612a3c57612a3b6137c4565b5b60200260200101819052508060400151848381518110612a5f57612a5e6137c4565b5b6020026020010181815250508060600151838381518110612a8357612a826137c4565b5b602002602001018181525050508080612a9b906138d5565b915050612875565b508383838397509750975097505050505090919293565b60606006805480602002602001604051908101604052809291908181526020018280548015612b3e57602002820191906000526020600020905b8160009054906101000a900473ffffffffffffffffffffffffffffffffffffffff1673ffffffffffffffffffffffffffffffffffffffff1681526020019060010190808311612af4575b5050505050905090565b606060004244600154604051602001612b639392919061443f565b604051602081830303815290604052805190602001209050612b878160001c612b8d565b91505090565b606060008203612bd4576040518060400160405280600181526020017f30000000000000000000000000000000000000000000000000000000000000008152509050612ce8565b600082905060005b60008214612c06578080612bef906138d5565b915050600a82612bff91906144ab565b9150612bdc565b60008167ffffffffffffffff811115612c2257612c21612fed565b5b6040519080825280601f01601f191660200182016040528015612c545781602001600182028036833780820191505090505b5090505b60008514612ce157600182612c6d9190613f47565b9150600a85612c7c91906144dc565b6030612c889190614214565b60f81b818381518110612c9e57612c9d6137c4565b5b60200101907effffffffffffffffffffffffffffffffffffffffffffffffffffffffffffff1916908160001a905350600a85612cda91906144ab565b9450612c58565b8093505050505b919050565b6040518060600160405280600073ffffffffffffffffffffffffffffffffffffffff168152602001606081526020016000151581525090565b508054612d3290613822565b6000825580601f10612d445750612d63565b601f016020900490600052602060002090810190612d629190612d66565b5b50565b5b80821115612d7f576000816000905550600101612d67565b5090565b600081519050919050565b600082825260208201905092915050565b6000819050602082019050919050565b600073ffffffffffffffffffffffffffffffffffffffff82169050919050565b6000612dda82612daf565b9050919050565b612dea81612dcf565b82525050565b600081519050919050565b600082825260208201905092915050565b60005b83811015612e2a578082015181840152602081019050612e0f565b60008484015250505050565b6000601f19601f8301169050919050565b6000612e5282612df0565b612e5c8185612dfb565b9350612e6c818560208601612e0c565b612e7581612e36565b840191505092915050565b60008115159050919050565b612e9581612e80565b82525050565b6000606083016000830151612eb36000860182612de1565b5060208301518482036020860152612ecb8282612e47565b9150506040830151612ee06040860182612e8c565b508091505092915050565b6000612ef78383612e9b565b905092915050565b6000602082019050919050565b6000612f1782612d83565b612f218185612d8e565b935083602082028501612f3385612d9f565b8060005b85811015612f6f5784840389528151612f508582612eeb565b9450612f5b83612eff565b925060208a01995050600181019050612f37565b50829750879550505050505092915050565b60006020820190508181036000830152612f9b8184612f0c565b905092915050565b6000604051905090565b600080fd5b600080fd5b612fc081612dcf565b8114612fcb57600080fd5b50565b600081359050612fdd81612fb7565b92915050565b600080fd5b600080fd5b7f4e487b7100000000000000000000000000000000000000000000000000000000600052604160045260246000fd5b61302582612e36565b810181811067ffffffffffffffff8211171561304457613043612fed565b5b80604052505050565b6000613057612fa3565b9050613063828261301c565b919050565b600067ffffffffffffffff82111561308357613082612fed565b5b61308c82612e36565b9050602081019050919050565b82818337600083830152505050565b60006130bb6130b684613068565b61304d565b9050828152602081018484840111156130d7576130d6612fe8565b5b6130e2848285613099565b509392505050565b600082601f8301126130ff576130fe612fe3565b5b813561310f8482602086016130a8565b91505092915050565b6000806040838503121561312f5761312e612fad565b5b600061313d85828601612fce565b925050602083013567ffffffffffffffff81111561315e5761315d612fb2565b5b61316a858286016130ea565b9150509250929050565b60006020828403121561318a57613189612fad565b5b600082013567ffffffffffffffff8111156131a8576131a7612fb2565b5b6131b4848285016130ea565b91505092915050565b600082825260208201905092915050565b60006131d982612df0565b6131e381856131bd565b93506131f3818560208601612e0c565b6131fc81612e36565b840191505092915050565b6000819050919050565b61321a81613207565b82525050565b6000608082019050818103600083015261323a81876131ce565b9050818103602083015261324e81866131ce565b905061325d6040830185613211565b61326a6060830184613211565b95945050505050565b60006020820190506132886000830184613211565b92915050565b6000602082840312156132a4576132a3612fad565b5b60006132b284828501612fce565b91505092915050565b6132c481612dcf565b82525050565b600060e08201905081810360008301526132e4818a6131ce565b905081810360208301526132f881896131ce565b90506133076040830188613211565b61331460608301876132bb565b61332160808301866132bb565b61332e60a08301856132bb565b81810360c083015261334081846131ce565b905098975050505050505050565b600081519050919050565b600082825260208201905092915050565b6000819050602082019050919050565b60006133868383612de1565b60208301905092915050565b6000602082019050919050565b60006133aa8261334e565b6133b48185613359565b93506133bf8361336a565b8060005b838110156133f05781516133d7888261337a565b97506133e283613392565b9250506001810190506133c3565b5085935050505092915050565b60006020820190508181036000830152613417818461339f565b905092915050565b61342881612e80565b82525050565b600060608201905061344360008301866132bb565b818103602083015261345581856131ce565b9050613464604083018461341f565b949350505050565b61347581613207565b811461348057600080fd5b50565b6000813590506134928161346c565b92915050565b6000806000606084860312156134b1576134b0612fad565b5b600084013567ffffffffffffffff8111156134cf576134ce612fb2565b5b6134db868287016130ea565b93505060206134ec86828701613483565b92505060406134fd86828701613483565b9150509250925092565b6000602082019050818103600083015261352181846131ce565b905092915050565b600060208201905061353e60008301846132bb565b92915050565b6000806000806080858703121561355e5761355d612fad565b5b600085013567ffffffffffffffff81111561357c5761357b612fb2565b5b613588878288016130ea565b945050602085013567ffffffffffffffff8111156135a9576135a8612fb2565b5b6135b5878288016130ea565b93505060406135c687828801613483565b92505060606135d787828801613483565b91505092959194509250565b600081519050919050565b600082825260208201905092915050565b6000819050602082019050919050565b600061361b8383612e47565b905092915050565b6000602082019050919050565b600061363b826135e3565b61364581856135ee565b935083602082028501613657856135ff565b8060005b858110156136935784840389528151613674858261360f565b945061367f83613623565b925060208a0199505060018101905061365b565b50829750879550505050505092915050565b600081519050919050565b600082825260208201905092915050565b6000819050602082019050919050565b6136da81613207565b82525050565b60006136ec83836136d1565b60208301905092915050565b6000602082019050919050565b6000613710826136a5565b61371a81856136b0565b9350613725836136c1565b8060005b8381101561375657815161373d88826136e0565b9750613748836136f8565b925050600181019050613729565b5085935050505092915050565b6000608082019050818103600083015261377d8187613630565b905081810360208301526137918186613630565b905081810360408301526137a58185613705565b905081810360608301526137b98184613705565b905095945050505050565b7f4e487b7100000000000000000000000000000000000000000000000000000000600052603260045260246000fd5b7f4e487b7100000000000000000000000000000000000000000000000000000000600052602260045260246000fd5b6000600282049050600182168061383a57607f821691505b60208210810361384d5761384c6137f3565b5b50919050565b600081905092915050565b600061386982612df0565b6138738185613853565b9350613883818560208601612e0c565b80840191505092915050565b600061389b828461385e565b915081905092915050565b7f4e487b7100000000000000000000000000000000000000000000000000000000600052601160045260246000fd5b60006138e082613207565b91507fffffffffffffffffffffffffffffffffffffffffffffffffffffffffffffffff8203613912576139116138a6565b5b600182019050919050565b7f4f6e6c79206f776e65722063616e2063616c6c20746869732066756e6374696f60008201527f6e00000000000000000000000000000000000000000000000000000000000000602082015250565b60006139796021836131bd565b91506139848261391d565b604082019050919050565b600060208201905081810360008301526139a88161396c565b9050919050565b7f5368697070657220646f65736e27742065786973740000000000000000000000600082015250565b60006139e56015836131bd565b91506139f0826139af565b602082019050919050565b60006020820190508181036000830152613a14816139d8565b9050919050565b7f42696e20646f65736e2774206578697374000000000000000000000000000000600082015250565b6000613a516011836131bd565b9150613a5c82613a1b565b602082019050919050565b60006020820190508181036000830152613a8081613a44565b9050919050565b60008190508160005260206000209050919050565b60006020601f8301049050919050565b600082821b905092915050565b600060088302613ae97fffffffffffffffffffffffffffffffffffffffffffffffffffffffffffffffff82613aac565b613af38683613aac565b95508019841693508086168417925050509392505050565b6000819050919050565b6000613b30613b2b613b2684613207565b613b0b565b613207565b9050919050565b6000819050919050565b613b4a83613b15565b613b5e613b5682613b37565b848454613ab9565b825550505050565b600090565b613b73613b66565b613b7e818484613b41565b505050565b5b81811015613ba257613b97600082613b6b565b600181019050613b84565b5050565b601f821115613be757613bb881613a87565b613bc184613a9c565b81016020851015613bd0578190505b613be4613bdc85613a9c565b830182613b83565b50505b505050565b600082821c905092915050565b6000613c0a60001984600802613bec565b1980831691505092915050565b6000613c238383613bf9565b9150826002028217905092915050565b613c3c82612df0565b67ffffffffffffffff811115613c5557613c54612fed565b5b613c5f8254613822565b613c6a828285613ba6565b600060209050601f831160018114613c9d5760008415613c8b578287015190505b613c958582613c17565b865550613cfd565b601f198416613cab86613a87565b60005b82811015613cd357848901518255600182019150602085019450602081019050613cae565b86831015613cf05784890151613cec601f891682613bf9565b8355505b6001600288020188555050505b505050505050565b7f436974697a656e20646f6573206e6f7420657869737400000000000000000000600082015250565b6000613d3b6016836131bd565b9150613d4682613d05565b602082019050919050565b60006020820190508181036000830152613d6a81613d2e565b9050919050565b7f436974697a656e2063616e206265206d6f646966696564000000000000000000600082015250565b6000613da76017836131bd565b9150613db282613d71565b602082019050919050565b60006020820190508181036000830152613dd681613d9a565b9050919050565b7f436974697a656e20616c72656164792065786973747300000000000000000000600082015250565b6000613e136016836131bd565b9150613e1e82613ddd565b602082019050919050565b60006020820190508181036000830152613e4281613e06565b9050919050565b7f43616e6e6f742063726561746520636974697a656e2077697468206f776e657260008201527f2773206164647265737300000000000000000000000000000000000000000000602082015250565b6000613ea5602a836131bd565b9150613eb082613e49565b604082019050919050565b60006020820190508181036000830152613ed481613e98565b9050919050565b7f47656e65726174656420494420616c7265616479206578697374730000000000600082015250565b6000613f11601b836131bd565b9150613f1c82613edb565b602082019050919050565b60006020820190508181036000830152613f4081613f04565b9050919050565b6000613f5282613207565b9150613f5d83613207565b9250828203905081811115613f7557613f746138a6565b5b92915050565b7f4e487b7100000000000000000000000000000000000000000000000000000000600052603160045260246000fd5b7f5368697070657220616c72656164792065786973747300000000000000000000600082015250565b6000613fe06016836131bd565b9150613feb82613faa565b602082019050919050565b6000602082019050818103600083015261400f81613fd3565b9050919050565b7f42696e20646f6573206e6f742065786973740000000000000000000000000000600082015250565b600061404c6012836131bd565b915061405782614016565b602082019050919050565b6000602082019050818103600083015261407b8161403f565b9050919050565b7f5368697070657220646f6573206e6f7420657869737400000000000000000000600082015250565b60006140b86016836131bd565b91506140c382614082565b602082019050919050565b600060208201905081810360008301526140e7816140ab565b9050919050565b7f536869707065722063616e206265206d6f646966696564000000000000000000600082015250565b60006141246017836131bd565b915061412f826140ee565b602082019050919050565b6000602082019050818103600083015261415381614117565b9050919050565b600081905092915050565b60008190508160005260206000209050919050565b6000815461418781613822565b614191818661415a565b945060018216600081146141ac57600181146141c1576141f4565b60ff19831686528115158202860193506141f4565b6141ca85614165565b60005b838110156141ec578154818901526001820191506020810190506141cd565b838801955050505b50505092915050565b6000614209828461417a565b915081905092915050565b600061421f82613207565b915061422a83613207565b9250828201905080821115614242576142416138a6565b5b92915050565b60008154905061425781613822565b9050919050565b60008190508160005260206000209050919050565b818103614281575050614359565b61428a82614248565b67ffffffffffffffff8111156142a3576142a2612fed565b5b6142ad8254613822565b6142b8828285613ba6565b6000601f8311600181146142e757600084156142d5578287015490505b6142df8582613c17565b865550614352565b601f1984166142f58761425e565b965061430086613a87565b60005b8281101561432857848901548255600182019150600185019450602081019050614303565b868310156143455784890154614341601f891682613bf9565b8355505b6001600288020188555050505b5050505050505b565b600061436682613207565b915060008203614379576143786138a6565b5b600182039050919050565b6000815461439181613822565b61439b8186613853565b945060018216600081146143b657600181146143cb576143fe565b60ff19831686528115158202860193506143fe565b6143d485613a87565b60005b838110156143f6578154818901526001820191506020810190506143d7565b838801955050505b50505092915050565b60006144138284614384565b915081905092915050565b6000819050919050565b61443961443482613207565b61441e565b82525050565b600061444b8286614428565b60208201915061445b8285614428565b60208201915061446b8284614428565b602082019150819050949350505050565b7f4e487b7100000000000000000000000000000000000000000000000000000000600052601260045260246000fd5b60006144b682613207565b91506144c183613207565b9250826144d1576144d061447c565b5b828204905092915050565b60006144e782613207565b91506144f283613207565b9250826145025761450161447c565b5b82820690509291505056fea2646970667358221220a2891f7185dfd89ac758c12f14704593a19410e28c8a42ce88f3d230beeeb66664736f6c63430008130033",
  "immutableReferences": {},
  "source": "// SPDX-License-Identifier: MIT\r\npragma solidity ^0.8.0;\r\n\r\ncontract WasteManagement {\r\n    struct Bin {\r\n        string id; // Changed type to string\r\n        string location;\r\n        uint256 capacity;\r\n        uint256 currentWeight;\r\n    }\r\n    struct Waste {\r\n        string id;\r\n        string status;\r\n        uint256 weight;\r\n        address citizenId;\r\n        address shipperId;\r\n        address recyclerId;\r\n        string binId; // Changed type to string\r\n    }\r\n    struct Notif {\r\n        address shipperNotified;\r\n        string binNotif; // Changed type to string\r\n        bool done;\r\n    }\r\n    event BinCreated(string id);\r\n    event ModifShipper(string message);\r\n    event ModifCitizen(string message);\r\n    uint256 public wasteCount;\r\n    uint256 public binCount;\r\n    mapping(string => Bin) public bins; // Changed key type to string\r\n    string[] binIds; // Changed type to string\r\n    string[] wasteIds; // Changed type to string\r\n    mapping(string => Waste) public wastes; // Changed key type to string\r\n    address[] citizens;\r\n    address recycler = address(0x4494f3bb19F95BB33EC116887b9dbd728C008f9b);\r\n    address[] shippers;\r\n    mapping(string => bool) isBin;\r\n    mapping(string => bool) isWaste;\r\n    mapping(address => bool) isCitizen;\r\n    mapping(address => bool) isShipper;\r\n    address public owner;\r\n    mapping(address => mapping(string => Notif)) public notifications; // Changed key type to string\r\n    mapping(address => uint256) public citizenRewards;\r\n    \r\n\r\n\r\n    modifier onlyOwner() {\r\n        require(msg.sender == owner, \"Only owner can call this function\");\r\n        _;\r\n    }\r\n\r\n    constructor() {\r\n        owner = msg.sender;\r\n    }\r\n\r\n\r\n\r\n                     //*************Bin************//\r\n    function createBin(string memory _location,  uint256 _capacity, uint256 _currentWeight) external onlyOwner returns (string memory) {\r\n        string memory _id = generateUniqueId();\r\n        require(!isBin[_id], \"Generated ID already exists\");\r\n        bins[_id] = Bin(_id, _location,  _capacity, _currentWeight);\r\n        binIds.push(_id);\r\n        binCount++;\r\n        isBin[_id] = true;\r\n        emit BinCreated(_id);\r\n        return _id;\r\n    }\r\n\r\n    function modifyBin(string memory _id, string memory _location,  uint256 _capacity, uint256 _currentWeight) external onlyOwner {\r\n        require(isBin[_id], \"Bin does not exist\");\r\n        bins[_id] = Bin(_id, _location,  _capacity, _currentWeight);\r\n    }\r\n\r\n    function deleteBin(string memory _id) external onlyOwner {\r\n        require(isBin[_id], \"Bin does not exist\");\r\n        \r\n        // Update mappings and arrays\r\n        isBin[_id] = false;\r\n        delete bins[_id];\r\n        \r\n        // Find and remove the bin ID from binIds array\r\n        for (uint256 i = 0; i < binIds.length; i++) {\r\n            if (keccak256(bytes(binIds[i])) == keccak256(bytes(_id))) {\r\n                for (uint256 j = i; j < binIds.length - 1; j++) {\r\n                    binIds[j] = binIds[j + 1];\r\n                }\r\n                binIds.pop();\r\n                break;\r\n            }\r\n        }\r\n        \r\n        // Decrement binCount\r\n        binCount--;\r\n    }\r\n    \r\n    function getBins() public view returns (string[] memory, string[] memory, uint256[] memory, uint256[] memory) {\r\n        string[] memory ids = new string[](binCount);\r\n        string[] memory locations = new string[](binCount);\r\n       \r\n        uint256[] memory capacities = new uint256[](binCount);\r\n        uint256[] memory currentWeights = new uint256[](binCount);\r\n\r\n        for (uint256 i = 0; i < binCount; i++) {\r\n            Bin memory bin = bins[binIds[i]];\r\n            ids[i] = bin.id;\r\n            locations[i] = bin.location;\r\n            capacities[i] = bin.capacity;\r\n            currentWeights[i] = bin.currentWeight;\r\n        }\r\n\r\n        return (ids, locations, capacities, currentWeights);\r\n    }\r\n    function generateUniqueId() internal view returns (string memory) {\r\n        bytes32 hash = keccak256(abi.encodePacked(block.timestamp, block.prevrandao, binCount));\r\n        return toStringUniqueId((uint256(hash)));\r\n    }\r\n    //ena zedt fazat uint64 bech nsa8arha\r\n\r\n    function toStringUniqueId(uint256 value) internal pure returns (string memory) {\r\n        if (value == 0) {\r\n            return \"0\";\r\n        }\r\n        uint256 temp = value;\r\n        uint256 digits;\r\n        while (temp != 0) {\r\n            digits++;\r\n            temp /= 10;\r\n        }\r\n        bytes memory buffer = new bytes(digits);\r\n        while (value != 0) {\r\n            digits -= 1;\r\n            buffer[digits] = bytes1(uint8(48 + uint256(value % 10)));\r\n            value /= 10;\r\n        }\r\n        return string(buffer);\r\n    }\r\n\r\n                   //*****************Shipper********************//\r\n\r\n\r\n\r\n    function createShipper(address _shipper) external onlyOwner {\r\n        require(!isShipper[_shipper], \"Shipper already exists\");\r\n\r\n        shippers.push(_shipper);\r\n        isShipper[_shipper] = true;\r\n    }\r\n\r\n    function getShippers() public view returns (address[] memory) {\r\n        return shippers;\r\n    }\r\n\r\n    function notifyShipper(address _shipper, string memory _idBin) external onlyOwner {\r\n        require(isShipper[_shipper], \"Shipper doesn't exist\");\r\n        require(isBin[_idBin], \"Bin doesn't exist\");\r\n        notifications[_shipper][_idBin] = Notif(_shipper, _idBin, false);\r\n    }\r\n\r\n    function getNotifByShipper(address _shipper) public view returns (Notif[] memory) {\r\n        Notif[] memory shipperNotifications = new Notif[](binCount);\r\n\r\n        for (uint256 i = 0; i < binCount; i++) {\r\n            string memory binId = binIds[i];\r\n            if (isBin[binId]) {\r\n                shipperNotifications[i] = notifications[_shipper][binId];\r\n            }\r\n        }\r\n\r\n        return shipperNotifications;\r\n    }\r\n\r\n    function getAllNotif() public view returns (Notif[] memory) {\r\n        uint256 totalNotifications = 0;\r\n        for (uint256 i = 0; i < shippers.length; i++) {\r\n            for (uint256 j = 0; j < binCount; j++) {\r\n                string memory binId = binIds[j];\r\n                if (isBin[binId] && notifications[shippers[i]][binId].shipperNotified != address(0)) {\r\n                    totalNotifications++;\r\n                }\r\n            }\r\n        }\r\n\r\n        Notif[] memory allNotifications = new Notif[](totalNotifications);\r\n\r\n        uint256 index = 0;\r\n        for (uint256 i = 0; i < shippers.length; i++) {\r\n            for (uint256 j = 0; j < binCount; j++) {\r\n                string memory binId = binIds[j];\r\n                Notif memory notification = notifications[shippers[i]][binId];\r\n                if (isBin[binId] && notification.shipperNotified != address(0)) {\r\n                    allNotifications[index] = notification;\r\n                    index++;\r\n                }\r\n            }\r\n        }\r\n\r\n        return allNotifications;\r\n    }\r\n\r\n    function deleteShipper(address _shipperAddress) external onlyOwner {\r\n        for (uint256 i = 0; i < shippers.length; i++) {\r\n            if (shippers[i] == _shipperAddress) {\r\n                shippers[i] = shippers[\r\n                    shippers.length - 1\r\n                ];\r\n                shippers.pop();\r\n                break;\r\n            }\r\n        }\r\n    }\r\n\r\n    function modifyShipper(address _shipperAddress) external onlyOwner {\r\n        require(isShipper[ _shipperAddress], \"Shipper does not exist\");\r\n        \r\n        // Emit a message after the require statement\r\n        emit ModifShipper(\"Shipper can be modified\");\r\n        \r\n        // Further logic here if needed\r\n    }\r\n                        //*****************Citizen********************//\r\n    function createCitizen(address _citizen) external onlyOwner {\r\n        require(!isCitizen[_citizen], \"Citizen already exists\");\r\n        require(_citizen != owner, \"Cannot create citizen with owner's address\");\r\n\r\n        citizens.push(_citizen);\r\n        isCitizen[_citizen] = true;\r\n    }\r\n\r\n    function getCitizens() public view returns (address[] memory) {\r\n        return citizens;\r\n    }\r\n\r\n    function deleteCitizen(address _citizenAddress) external onlyOwner {\r\n        for (uint256 i = 0; i < citizens.length; i++) {\r\n            if (citizens[i] == _citizenAddress) {\r\n                citizens[i] = citizens[\r\n                    citizens.length - 1\r\n                ];\r\n                citizens.pop();\r\n                isCitizen[_citizenAddress]=false;\r\n                break;\r\n            }\r\n        }\r\n    }\r\n    function modifyCitizen(address _citizenAddress) external onlyOwner {\r\n        require(isCitizen[ _citizenAddress], \"Citizen does not exist\");\r\n        \r\n        // Emit a message after the require statement\r\n        emit ModifCitizen(\"Citizen can be modified\");\r\n        \r\n        // Further logic here if needed\r\n    }\r\n\r\n\r\n}",
  "sourcePath": "C:\\Users\\Asma\\Desktop\\FinalGreenEarn\\testPFAAuthManager\\truffle\\contracts\\WasteManagement.sol",
  "compiler": {
    "name": "solc",
    "version": "0.8.19+commit.7dd6d404.Emscripten.clang"
  },
  "schemaVersion": "3.4.16",
  "updatedAt": "2024-02-23T16:26:19.285Z",
  "networkType": "ethereum",
  "devdoc": {
    "kind": "dev",
    "methods": {},
    "version": 1
  },
  "userdoc": {
    "kind": "user",
    "methods": {},
    "version": 1
  }
}