{
  "contractName": "WasteManagement",
  "abi": [
    {
      "inputs": [],
      "stateMutability": "nonpayable",
      "type": "constructor"
    },
    {
      "anonymous": false,
      "inputs": [
        {
          "indexed": false,
          "internalType": "string",
          "name": "id",
          "type": "string"
        }
      ],
      "name": "BinCreated",
      "type": "event"
    },
    {
      "inputs": [],
      "name": "binCount",
      "outputs": [
        {
          "internalType": "uint256",
          "name": "",
          "type": "uint256"
        }
      ],
      "stateMutability": "view",
      "type": "function",
      "constant": true
    },
    {
      "inputs": [
        {
          "internalType": "string",
          "name": "",
          "type": "string"
        }
      ],
      "name": "bins",
      "outputs": [
        {
          "internalType": "string",
          "name": "id",
          "type": "string"
        },
        {
          "internalType": "string",
          "name": "location",
          "type": "string"
        },
        {
          "internalType": "string",
          "name": "state",
          "type": "string"
        },
        {
          "internalType": "uint256",
          "name": "capacity",
          "type": "uint256"
        },
        {
          "internalType": "uint256",
          "name": "currentWeight",
          "type": "uint256"
        }
      ],
      "stateMutability": "view",
      "type": "function",
      "constant": true
    },
    {
      "inputs": [
        {
          "internalType": "address",
          "name": "",
          "type": "address"
        },
        {
          "internalType": "uint256",
          "name": "",
          "type": "uint256"
        }
      ],
      "name": "notifications",
      "outputs": [
        {
          "internalType": "address",
          "name": "shipperNotified",
          "type": "address"
        },
        {
          "internalType": "uint256",
          "name": "binNotif",
          "type": "uint256"
        },
        {
          "internalType": "bool",
          "name": "done",
          "type": "bool"
        }
      ],
      "stateMutability": "view",
      "type": "function",
      "constant": true
    },
    {
      "inputs": [],
      "name": "owner",
      "outputs": [
        {
          "internalType": "address",
          "name": "",
          "type": "address"
        }
      ],
      "stateMutability": "view",
      "type": "function",
      "constant": true
    },
    {
      "inputs": [
        {
          "internalType": "string",
          "name": "_location",
          "type": "string"
        },
        {
          "internalType": "string",
          "name": "_state",
          "type": "string"
        },
        {
          "internalType": "uint256",
          "name": "_capacity",
          "type": "uint256"
        },
        {
          "internalType": "uint256",
          "name": "_currentWeight",
          "type": "uint256"
        }
      ],
      "name": "createBin",
      "outputs": [
        {
          "internalType": "string",
          "name": "",
          "type": "string"
        }
      ],
      "stateMutability": "nonpayable",
      "type": "function"
    },
    {
      "inputs": [
        {
          "internalType": "string",
          "name": "_id",
          "type": "string"
        },
        {
          "internalType": "string",
          "name": "_location",
          "type": "string"
        },
        {
          "internalType": "string",
          "name": "_state",
          "type": "string"
        },
        {
          "internalType": "uint256",
          "name": "_capacity",
          "type": "uint256"
        },
        {
          "internalType": "uint256",
          "name": "_currentWeight",
          "type": "uint256"
        }
      ],
      "name": "modifyBin",
      "outputs": [],
      "stateMutability": "nonpayable",
      "type": "function"
    },
    {
      "inputs": [
        {
          "internalType": "string",
          "name": "_id",
          "type": "string"
        }
      ],
      "name": "deleteBin",
      "outputs": [],
      "stateMutability": "nonpayable",
      "type": "function"
    },
    {
      "inputs": [],
      "name": "getBins",
      "outputs": [
        {
          "internalType": "string[]",
          "name": "",
          "type": "string[]"
        },
        {
          "internalType": "string[]",
          "name": "",
          "type": "string[]"
        },
        {
          "internalType": "string[]",
          "name": "",
          "type": "string[]"
        },
        {
          "internalType": "uint256[]",
          "name": "",
          "type": "uint256[]"
        },
        {
          "internalType": "uint256[]",
          "name": "",
          "type": "uint256[]"
        }
      ],
      "stateMutability": "view",
      "type": "function",
      "constant": true
    }
  ],
  "bytecode": "0x608060405234801561001057600080fd5b5033600860006101000a81548173ffffffffffffffffffffffffffffffffffffffff021916908373ffffffffffffffffffffffffffffffffffffffff1602179055506123a9806100616000396000f3fe608060405234801561001057600080fd5b50600436106100885760003560e01c80638da5cb5b1161005b5780638da5cb5b1461013f578063cc3b2e881461015d578063ce4717df1461017b578063e042a4021461019757610088565b806313a172f31461008d57806355ec2d3a146100c157806365d0bddd146100f157806370985cd014610123575b600080fd5b6100a760048036038101906100a291906113f0565b6101b9565b6040516100b89594939291906114d1565b60405180910390f35b6100db60048036038101906100d69190611565565b61039d565b6040516100e89190611604565b60405180910390f35b61010b60048036038101906101069190611684565b61060b565b60405161011a939291906116ee565b60405180910390f35b61013d60048036038101906101389190611725565b61066f565b005b61014761080f565b60405161015491906117f4565b60405180910390f35b610165610835565b604051610172919061180f565b60405180910390f35b610195600480360381019061019091906113f0565b61083b565b005b61019f610b8e565b6040516101b09594939291906119f4565b60405180910390f35b6001818051602081018201805184825260208301602085012081835280955050505050506000915090508060000180546101f290611a99565b80601f016020809104026020016040519081016040528092919081815260200182805461021e90611a99565b801561026b5780601f106102405761010080835404028352916020019161026b565b820191906000526020600020905b81548152906001019060200180831161024e57829003601f168201915b50505050509080600101805461028090611a99565b80601f01602080910402602001604051908101604052809291908181526020018280546102ac90611a99565b80156102f95780601f106102ce576101008083540402835291602001916102f9565b820191906000526020600020905b8154815290600101906020018083116102dc57829003601f168201915b50505050509080600201805461030e90611a99565b80601f016020809104026020016040519081016040528092919081815260200182805461033a90611a99565b80156103875780601f1061035c57610100808354040283529160200191610387565b820191906000526020600020905b81548152906001019060200180831161036a57829003601f168201915b5050505050908060030154908060040154905085565b6060600860009054906101000a900473ffffffffffffffffffffffffffffffffffffffff1673ffffffffffffffffffffffffffffffffffffffff163373ffffffffffffffffffffffffffffffffffffffff161461042f576040517f08c379a000000000000000000000000000000000000000000000000000000000815260040161042690611b3c565b60405180910390fd5b600061043961108a565b905060058160405161044b9190611b98565b908152602001604051809103902060009054906101000a900460ff16156104a7576040517f08c379a000000000000000000000000000000000000000000000000000000000815260040161049e90611bfb565b60405180910390fd5b6040518060a00160405280828152602001878152602001868152602001858152602001848152506001826040516104de9190611b98565b908152602001604051809103902060008201518160000190816105019190611dc7565b5060208201518160010190816105179190611dc7565b50604082015181600201908161052d9190611dc7565b5060608201518160030155608082015181600401559050506002819080600181540180825580915050600190039060005260206000200160009091909190915090816105799190611dc7565b5060008081548092919061058c90611ec8565b919050555060016005826040516105a39190611b98565b908152602001604051809103902060006101000a81548160ff0219169083151502179055507fd5413a7934f1aa973af7bc53f68df06953b49031401619e5997d54afb849377e816040516105f79190611604565b60405180910390a180915050949350505050565b6009602052816000526040600020602052806000526040600020600091509150508060000160009054906101000a900473ffffffffffffffffffffffffffffffffffffffff16908060010154908060020160009054906101000a900460ff16905083565b600860009054906101000a900473ffffffffffffffffffffffffffffffffffffffff1673ffffffffffffffffffffffffffffffffffffffff163373ffffffffffffffffffffffffffffffffffffffff16146106ff576040517f08c379a00000000000000000000000000000000000000000000000000000000081526004016106f690611b3c565b60405180910390fd5b60058560405161070f9190611b98565b908152602001604051809103902060009054906101000a900460ff1661076a576040517f08c379a000000000000000000000000000000000000000000000000000000000815260040161076190611f5c565b60405180910390fd5b6040518060a00160405280868152602001858152602001848152602001838152602001828152506001866040516107a19190611b98565b908152602001604051809103902060008201518160000190816107c49190611dc7565b5060208201518160010190816107da9190611dc7565b5060408201518160020190816107f09190611dc7565b5060608201518160030155608082015181600401559050505050505050565b600860009054906101000a900473ffffffffffffffffffffffffffffffffffffffff1681565b60005481565b600860009054906101000a900473ffffffffffffffffffffffffffffffffffffffff1673ffffffffffffffffffffffffffffffffffffffff163373ffffffffffffffffffffffffffffffffffffffff16146108cb576040517f08c379a00000000000000000000000000000000000000000000000000000000081526004016108c290611b3c565b60405180910390fd5b6005816040516108db9190611b98565b908152602001604051809103902060009054906101000a900460ff16610936576040517f08c379a000000000000000000000000000000000000000000000000000000000815260040161092d90611f5c565b60405180910390fd5b6000600280549050905060005b6002805490508110156109db57826040516020016109619190611b98565b604051602081830303815290604052805190602001206002828154811061098b5761098a611f7c565b5b906000526020600020016040516020016109a5919061202e565b60405160208183030381529060405280519060200120036109c8578091506109db565b80806109d390611ec8565b915050610943565b506002805490508110610a23576040517f08c379a0000000000000000000000000000000000000000000000000000000008152600401610a1a90612091565b60405180910390fd5b60008190505b6001600280549050610a3b91906120b1565b811015610aaa576002600182610a5191906120e5565b81548110610a6257610a61611f7c565b5b9060005260206000200160028281548110610a8057610a7f611f7c565b5b906000526020600020019081610a969190612144565b508080610aa290611ec8565b915050610a29565b506002805480610abd57610abc61222c565b5b600190038181906000526020600020016000610ad99190611239565b9055600080815480929190610aed9061225b565b91905055506000600583604051610b049190611b98565b908152602001604051809103902060006101000a81548160ff021916908315150217905550600182604051610b399190611b98565b908152602001604051809103902060008082016000610b589190611239565b600182016000610b689190611239565b600282016000610b789190611239565b6003820160009055600482016000905550505050565b60608060608060606000805467ffffffffffffffff811115610bb357610bb26112c5565b5b604051908082528060200260200182016040528015610be657816020015b6060815260200190600190039081610bd15790505b5090506000805467ffffffffffffffff811115610c0657610c056112c5565b5b604051908082528060200260200182016040528015610c3957816020015b6060815260200190600190039081610c245790505b5090506000805467ffffffffffffffff811115610c5957610c586112c5565b5b604051908082528060200260200182016040528015610c875781602001602082028036833780820191505090505b5090506000805467ffffffffffffffff811115610ca757610ca66112c5565b5b604051908082528060200260200182016040528015610cd55781602001602082028036833780820191505090505b50905060005b600054811015610f9b576000600160028381548110610cfd57610cfc611f7c565b5b90600052602060002001604051610d14919061202e565b90815260200160405180910390206040518060a0016040529081600082018054610d3d90611a99565b80601f0160208091040260200160405190810160405280929190818152602001828054610d6990611a99565b8015610db65780601f10610d8b57610100808354040283529160200191610db6565b820191906000526020600020905b815481529060010190602001808311610d9957829003601f168201915b50505050508152602001600182018054610dcf90611a99565b80601f0160208091040260200160405190810160405280929190818152602001828054610dfb90611a99565b8015610e485780601f10610e1d57610100808354040283529160200191610e48565b820191906000526020600020905b815481529060010190602001808311610e2b57829003601f168201915b50505050508152602001600282018054610e6190611a99565b80601f0160208091040260200160405190810160405280929190818152602001828054610e8d90611a99565b8015610eda5780601f10610eaf57610100808354040283529160200191610eda565b820191906000526020600020905b815481529060010190602001808311610ebd57829003601f168201915b505050505081526020016003820154815260200160048201548152505090508060200151868381518110610f1157610f10611f7c565b5b60200260200101819052508060400151858381518110610f3457610f33611f7c565b5b60200260200101819052508060600151848381518110610f5757610f56611f7c565b5b6020026020010181815250508060800151838381518110610f7b57610f7a611f7c565b5b602002602001018181525050508080610f9390611ec8565b915050610cdb565b5060028484848484805480602002602001604051908101604052809291908181526020016000905b8282101561106f578382906000526020600020018054610fe290611a99565b80601f016020809104026020016040519081016040528092919081815260200182805461100e90611a99565b801561105b5780601f106110305761010080835404028352916020019161105b565b820191906000526020600020905b81548152906001019060200180831161103e57829003601f168201915b505050505081526020019060010190610fc3565b50505050945098509850985098509850505050509091929394565b6060600042446000546040516020016110a5939291906122a5565b6040516020818303038152906040528051906020012090506110d38160001c67ffffffffffffffff166110d9565b91505090565b606060008203611120576040518060400160405280600181526020017f30000000000000000000000000000000000000000000000000000000000000008152509050611234565b600082905060005b6000821461115257808061113b90611ec8565b915050600a8261114b9190612311565b9150611128565b60008167ffffffffffffffff81111561116e5761116d6112c5565b5b6040519080825280601f01601f1916602001820160405280156111a05781602001600182028036833780820191505090505b5090505b6000851461122d576001826111b991906120b1565b9150600a856111c89190612342565b60306111d491906120e5565b60f81b8183815181106111ea576111e9611f7c565b5b60200101907effffffffffffffffffffffffffffffffffffffffffffffffffffffffffffff1916908160001a905350600a856112269190612311565b94506111a4565b8093505050505b919050565b50805461124590611a99565b6000825580601f106112575750611276565b601f0160209004906000526020600020908101906112759190611279565b5b50565b5b8082111561129257600081600090555060010161127a565b5090565b6000604051905090565b600080fd5b600080fd5b600080fd5b600080fd5b6000601f19601f8301169050919050565b7f4e487b7100000000000000000000000000000000000000000000000000000000600052604160045260246000fd5b6112fd826112b4565b810181811067ffffffffffffffff8211171561131c5761131b6112c5565b5b80604052505050565b600061132f611296565b905061133b82826112f4565b919050565b600067ffffffffffffffff82111561135b5761135a6112c5565b5b611364826112b4565b9050602081019050919050565b82818337600083830152505050565b600061139361138e84611340565b611325565b9050828152602081018484840111156113af576113ae6112af565b5b6113ba848285611371565b509392505050565b600082601f8301126113d7576113d66112aa565b5b81356113e7848260208601611380565b91505092915050565b600060208284031215611406576114056112a0565b5b600082013567ffffffffffffffff811115611424576114236112a5565b5b611430848285016113c2565b91505092915050565b600081519050919050565b600082825260208201905092915050565b60005b83811015611473578082015181840152602081019050611458565b60008484015250505050565b600061148a82611439565b6114948185611444565b93506114a4818560208601611455565b6114ad816112b4565b840191505092915050565b6000819050919050565b6114cb816114b8565b82525050565b600060a08201905081810360008301526114eb818861147f565b905081810360208301526114ff818761147f565b90508181036040830152611513818661147f565b905061152260608301856114c2565b61152f60808301846114c2565b9695505050505050565b611542816114b8565b811461154d57600080fd5b50565b60008135905061155f81611539565b92915050565b6000806000806080858703121561157f5761157e6112a0565b5b600085013567ffffffffffffffff81111561159d5761159c6112a5565b5b6115a9878288016113c2565b945050602085013567ffffffffffffffff8111156115ca576115c96112a5565b5b6115d6878288016113c2565b93505060406115e787828801611550565b92505060606115f887828801611550565b91505092959194509250565b6000602082019050818103600083015261161e818461147f565b905092915050565b600073ffffffffffffffffffffffffffffffffffffffff82169050919050565b600061165182611626565b9050919050565b61166181611646565b811461166c57600080fd5b50565b60008135905061167e81611658565b92915050565b6000806040838503121561169b5761169a6112a0565b5b60006116a98582860161166f565b92505060206116ba85828601611550565b9150509250929050565b6116cd81611646565b82525050565b60008115159050919050565b6116e8816116d3565b82525050565b600060608201905061170360008301866116c4565b61171060208301856114c2565b61171d60408301846116df565b949350505050565b600080600080600060a08688031215611741576117406112a0565b5b600086013567ffffffffffffffff81111561175f5761175e6112a5565b5b61176b888289016113c2565b955050602086013567ffffffffffffffff81111561178c5761178b6112a5565b5b611798888289016113c2565b945050604086013567ffffffffffffffff8111156117b9576117b86112a5565b5b6117c5888289016113c2565b93505060606117d688828901611550565b92505060806117e788828901611550565b9150509295509295909350565b600060208201905061180960008301846116c4565b92915050565b600060208201905061182460008301846114c2565b92915050565b600081519050919050565b600082825260208201905092915050565b6000819050602082019050919050565b600082825260208201905092915050565b600061187282611439565b61187c8185611856565b935061188c818560208601611455565b611895816112b4565b840191505092915050565b60006118ac8383611867565b905092915050565b6000602082019050919050565b60006118cc8261182a565b6118d68185611835565b9350836020820285016118e885611846565b8060005b85811015611924578484038952815161190585826118a0565b9450611910836118b4565b925060208a019950506001810190506118ec565b50829750879550505050505092915050565b600081519050919050565b600082825260208201905092915050565b6000819050602082019050919050565b61196b816114b8565b82525050565b600061197d8383611962565b60208301905092915050565b6000602082019050919050565b60006119a182611936565b6119ab8185611941565b93506119b683611952565b8060005b838110156119e75781516119ce8882611971565b97506119d983611989565b9250506001810190506119ba565b5085935050505092915050565b600060a0820190508181036000830152611a0e81886118c1565b90508181036020830152611a2281876118c1565b90508181036040830152611a3681866118c1565b90508181036060830152611a4a8185611996565b90508181036080830152611a5e8184611996565b90509695505050505050565b7f4e487b7100000000000000000000000000000000000000000000000000000000600052602260045260246000fd5b60006002820490506001821680611ab157607f821691505b602082108103611ac457611ac3611a6a565b5b50919050565b7f4f6e6c79206f776e65722063616e2063616c6c20746869732066756e6374696f60008201527f6e00000000000000000000000000000000000000000000000000000000000000602082015250565b6000611b26602183611444565b9150611b3182611aca565b604082019050919050565b60006020820190508181036000830152611b5581611b19565b9050919050565b600081905092915050565b6000611b7282611439565b611b7c8185611b5c565b9350611b8c818560208601611455565b80840191505092915050565b6000611ba48284611b67565b915081905092915050565b7f47656e65726174656420494420616c7265616479206578697374730000000000600082015250565b6000611be5601b83611444565b9150611bf082611baf565b602082019050919050565b60006020820190508181036000830152611c1481611bd8565b9050919050565b60008190508160005260206000209050919050565b60006020601f8301049050919050565b600082821b905092915050565b600060088302611c7d7fffffffffffffffffffffffffffffffffffffffffffffffffffffffffffffffff82611c40565b611c878683611c40565b95508019841693508086168417925050509392505050565b6000819050919050565b6000611cc4611cbf611cba846114b8565b611c9f565b6114b8565b9050919050565b6000819050919050565b611cde83611ca9565b611cf2611cea82611ccb565b848454611c4d565b825550505050565b600090565b611d07611cfa565b611d12818484611cd5565b505050565b5b81811015611d3657611d2b600082611cff565b600181019050611d18565b5050565b601f821115611d7b57611d4c81611c1b565b611d5584611c30565b81016020851015611d64578190505b611d78611d7085611c30565b830182611d17565b50505b505050565b600082821c905092915050565b6000611d9e60001984600802611d80565b1980831691505092915050565b6000611db78383611d8d565b9150826002028217905092915050565b611dd082611439565b67ffffffffffffffff811115611de957611de86112c5565b5b611df38254611a99565b611dfe828285611d3a565b600060209050601f831160018114611e315760008415611e1f578287015190505b611e298582611dab565b865550611e91565b601f198416611e3f86611c1b565b60005b82811015611e6757848901518255600182019150602085019450602081019050611e42565b86831015611e845784890151611e80601f891682611d8d565b8355505b6001600288020188555050505b505050505050565b7f4e487b7100000000000000000000000000000000000000000000000000000000600052601160045260246000fd5b6000611ed3826114b8565b91507fffffffffffffffffffffffffffffffffffffffffffffffffffffffffffffffff8203611f0557611f04611e99565b5b600182019050919050565b7f42696e20646f6573206e6f742065786973740000000000000000000000000000600082015250565b6000611f46601283611444565b9150611f5182611f10565b602082019050919050565b60006020820190508181036000830152611f7581611f39565b9050919050565b7f4e487b7100000000000000000000000000000000000000000000000000000000600052603260045260246000fd5b60008154611fb881611a99565b611fc28186611b5c565b94506001821660008114611fdd5760018114611ff257612025565b60ff1983168652811515820286019350612025565b611ffb85611c1b565b60005b8381101561201d57815481890152600182019150602081019050611ffe565b838801955050505b50505092915050565b600061203a8284611fab565b915081905092915050565b7f42696e204944206e6f7420666f756e6420696e2062696e496473206172726179600082015250565b600061207b602083611444565b915061208682612045565b602082019050919050565b600060208201905081810360008301526120aa8161206e565b9050919050565b60006120bc826114b8565b91506120c7836114b8565b92508282039050818111156120df576120de611e99565b5b92915050565b60006120f0826114b8565b91506120fb836114b8565b925082820190508082111561211357612112611e99565b5b92915050565b60008154905061212881611a99565b9050919050565b60008190508160005260206000209050919050565b81810361215257505061222a565b61215b82612119565b67ffffffffffffffff811115612174576121736112c5565b5b61217e8254611a99565b612189828285611d3a565b6000601f8311600181146121b857600084156121a6578287015490505b6121b08582611dab565b865550612223565b601f1984166121c68761212f565b96506121d186611c1b565b60005b828110156121f9578489015482556001820191506001850194506020810190506121d4565b868310156122165784890154612212601f891682611d8d565b8355505b6001600288020188555050505b5050505050505b565b7f4e487b7100000000000000000000000000000000000000000000000000000000600052603160045260246000fd5b6000612266826114b8565b91506000820361227957612278611e99565b5b600182039050919050565b6000819050919050565b61229f61229a826114b8565b612284565b82525050565b60006122b1828661228e565b6020820191506122c1828561228e565b6020820191506122d1828461228e565b602082019150819050949350505050565b7f4e487b7100000000000000000000000000000000000000000000000000000000600052601260045260246000fd5b600061231c826114b8565b9150612327836114b8565b925082612337576123366122e2565b5b828204905092915050565b600061234d826114b8565b9150612358836114b8565b925082612368576123676122e2565b5b82820690509291505056fea26469706673582212202101cadab50eb914a1d32e4a81ffec249e9ca8e2daa65e05d8bef6c921f2470c64736f6c63430008130033",
  "immutableReferences": {},
  "source": "// SPDX-License-Identifier: MIT\r\npragma solidity ^0.8.0;\r\n\r\ncontract WasteManagement {\r\n    struct Bin {\r\n        string id;\r\n        string location;\r\n        string state;\r\n        uint256 capacity;\r\n        uint256 currentWeight;\r\n    }\r\n    struct Notif{\r\n        address shipperNotified;\r\n        uint256 binNotif;\r\n        bool done;\r\n    }\r\n    event BinCreated(string id);\r\n\r\n\r\n    uint256 public binCount;\r\n    mapping(string => Bin) public bins;\r\n    string[] binIds;\r\n    address[] citizens; // Array to store addresses of citizens\r\n    address[] shippers; // Array to store addresses of shippers\r\n    mapping(string => bool) isBin; // Mapping to check if an address is a bin\r\n    mapping(address => bool) isCitizen; // Mapping to check if an address is a citizen\r\n    mapping(address => bool) isShipper; // Mapping to check if an address is a shipper\r\n    address public owner;\r\n    mapping(address => mapping(uint256 => Notif)) public notifications;\r\n    \r\n\r\n\r\n    modifier onlyOwner() {\r\n        require(msg.sender == owner, \"Only owner can call this function\");\r\n        _;\r\n    }\r\n\r\n    constructor() {\r\n        owner = msg.sender;\r\n    }\r\n\r\n\r\n\r\n                     //*************Bin************//\r\n function createBin(string memory _location, string memory _state, uint256 _capacity, uint256 _currentWeight) external onlyOwner returns (string memory) {\r\n        string memory _id = generateUniqueId();\r\n        require(!isBin[_id], \"Generated ID already exists\");\r\n        bins[_id] = Bin(_id, _location, _state, _capacity, _currentWeight);\r\n        binIds.push(_id);\r\n        binCount++;\r\n        isBin[_id] = true;\r\n        emit BinCreated(_id);\r\n        return _id;\r\n    }\r\n\r\n\r\n    function modifyBin(string memory _id, string memory _location, string memory _state, uint256 _capacity, uint256 _currentWeight) external onlyOwner {\r\n        require(isBin[_id], \"Bin does not exist\");\r\n        bins[_id] = Bin(_id, _location, _state, _capacity, _currentWeight);\r\n    }\r\n\r\n    function deleteBin(string memory _id) external onlyOwner {\r\n        require(isBin[_id], \"Bin does not exist\");\r\n\r\n        // Find the index of the bin ID in binIds\r\n        uint256 indexToDelete = binIds.length; // Initialize to an out-of-bounds index\r\n        for (uint256 i = 0; i < binIds.length; i++) {\r\n            if (keccak256(abi.encodePacked(binIds[i])) == keccak256(abi.encodePacked(_id))) {\r\n                indexToDelete = i;\r\n                break;\r\n            }\r\n        }\r\n\r\n        // Ensure the bin ID was found in the binIds array\r\n        require(indexToDelete < binIds.length, \"Bin ID not found in binIds array\");\r\n\r\n        // Remove the bin ID from binIds\r\n        for (uint256 i = indexToDelete; i < binIds.length - 1; i++) {\r\n            binIds[i] = binIds[i + 1];\r\n        }\r\n        binIds.pop();\r\n\r\n        // Decrement binCount\r\n        binCount--;\r\n\r\n        // Update mappings\r\n        isBin[_id] = false;\r\n        delete bins[_id];\r\n    }\r\n    \r\n    function getBins() public view returns (string [] memory, string[] memory, string[] memory, uint256[] memory, uint256[] memory) {\r\n        string[] memory locations = new string[](binCount);\r\n        string[] memory states = new string[](binCount);\r\n        uint256[] memory capacities = new uint256[](binCount);\r\n        uint256[] memory currentWeights = new uint256[](binCount);\r\n\r\n        for (uint256 i = 0; i < binCount; i++) {\r\n            Bin memory bin = bins[binIds[i]];\r\n            locations[i] = bin.location;\r\n            states[i] = bin.state;\r\n            capacities[i] = bin.capacity;\r\n            currentWeights[i] = bin.currentWeight;\r\n        }\r\n\r\n        return (binIds, locations, states, capacities, currentWeights);\r\n    }\r\n    function generateUniqueId() internal view returns (string memory) {\r\n        bytes32 hash = keccak256(abi.encodePacked(block.timestamp, block.prevrandao, binCount));\r\n        return toStringUniqueId(uint64(uint256(hash)));\r\n    }\r\n    //ena zedt fazat uint64 bech nsa8arha\r\n\r\n    function toStringUniqueId(uint256 value) internal pure returns (string memory) {\r\n        if (value == 0) {\r\n            return \"0\";\r\n        }\r\n        uint256 temp = value;\r\n        uint256 digits;\r\n        while (temp != 0) {\r\n            digits++;\r\n            temp /= 10;\r\n        }\r\n        bytes memory buffer = new bytes(digits);\r\n        while (value != 0) {\r\n            digits -= 1;\r\n            buffer[digits] = bytes1(uint8(48 + uint256(value % 10)));\r\n            value /= 10;\r\n        }\r\n        return string(buffer);\r\n    }\r\n\r\n}",
  "sourcePath": "C:\\Users\\MSI\\Desktop\\PFA_GUI - Copie\\truffle\\contracts\\WasteManagement.sol",
  "compiler": {
    "name": "solc",
    "version": "0.8.19+commit.7dd6d404.Emscripten.clang"
  },
  "schemaVersion": "3.4.16",
  "updatedAt": "2024-02-22T16:26:11.156Z",
  "networkType": "ethereum",
  "devdoc": {
    "kind": "dev",
    "methods": {},
    "version": 1
  },
  "userdoc": {
    "kind": "user",
    "methods": {},
    "version": 1
  }
}