{
  "contractName": "WasteManagement",
  "abi": [
    {
      "inputs": [],
      "stateMutability": "nonpayable",
      "type": "constructor"
    },
    {
      "anonymous": false,
      "inputs": [
        {
          "indexed": false,
          "internalType": "string",
          "name": "id",
          "type": "string"
        }
      ],
      "name": "BinCreated",
      "type": "event"
    },
    {
      "anonymous": false,
      "inputs": [
        {
          "indexed": false,
          "internalType": "string",
          "name": "id",
          "type": "string"
        }
      ],
      "name": "CollectionCreated",
      "type": "event"
    },
    {
      "anonymous": false,
      "inputs": [
        {
          "indexed": false,
          "internalType": "string",
          "name": "message",
          "type": "string"
        }
      ],
      "name": "ModifCitizen",
      "type": "event"
    },
    {
      "anonymous": false,
      "inputs": [
        {
          "indexed": false,
          "internalType": "string",
          "name": "message",
          "type": "string"
        }
      ],
      "name": "ModifShipper",
      "type": "event"
    },
    {
      "inputs": [],
      "name": "binCount",
      "outputs": [
        {
          "internalType": "uint256",
          "name": "",
          "type": "uint256"
        }
      ],
      "stateMutability": "view",
      "type": "function",
      "constant": true
    },
    {
      "inputs": [
        {
          "internalType": "string",
          "name": "",
          "type": "string"
        }
      ],
      "name": "bins",
      "outputs": [
        {
          "internalType": "string",
          "name": "id",
          "type": "string"
        },
        {
          "internalType": "string",
          "name": "location",
          "type": "string"
        },
        {
          "internalType": "uint256",
          "name": "capacity",
          "type": "uint256"
        },
        {
          "internalType": "uint256",
          "name": "currentWeight",
          "type": "uint256"
        }
      ],
      "stateMutability": "view",
      "type": "function",
      "constant": true
    },
    {
      "inputs": [
        {
          "internalType": "address",
          "name": "",
          "type": "address"
        }
      ],
      "name": "citizenRewards",
      "outputs": [
        {
          "internalType": "uint256",
          "name": "",
          "type": "uint256"
        }
      ],
      "stateMutability": "view",
      "type": "function",
      "constant": true
    },
    {
      "inputs": [],
      "name": "collectionCount",
      "outputs": [
        {
          "internalType": "uint256",
          "name": "",
          "type": "uint256"
        }
      ],
      "stateMutability": "view",
      "type": "function",
      "constant": true
    },
    {
      "inputs": [
        {
          "internalType": "string",
          "name": "",
          "type": "string"
        }
      ],
      "name": "collections",
      "outputs": [
        {
          "internalType": "string",
          "name": "idCollection",
          "type": "string"
        },
        {
          "internalType": "address",
          "name": "shipperNotified",
          "type": "address"
        },
        {
          "internalType": "string",
          "name": "binNotif",
          "type": "string"
        },
        {
          "internalType": "bool",
          "name": "done",
          "type": "bool"
        },
        {
          "internalType": "string",
          "name": "date",
          "type": "string"
        },
        {
          "internalType": "string",
          "name": "status",
          "type": "string"
        }
      ],
      "stateMutability": "view",
      "type": "function",
      "constant": true
    },
    {
      "inputs": [],
      "name": "owner",
      "outputs": [
        {
          "internalType": "address",
          "name": "",
          "type": "address"
        }
      ],
      "stateMutability": "view",
      "type": "function",
      "constant": true
    },
    {
      "inputs": [],
      "name": "wasteCount",
      "outputs": [
        {
          "internalType": "uint256",
          "name": "",
          "type": "uint256"
        }
      ],
      "stateMutability": "view",
      "type": "function",
      "constant": true
    },
    {
      "inputs": [
        {
          "internalType": "uint256",
          "name": "",
          "type": "uint256"
        }
      ],
      "name": "wasteIds",
      "outputs": [
        {
          "internalType": "string",
          "name": "",
          "type": "string"
        }
      ],
      "stateMutability": "view",
      "type": "function",
      "constant": true
    },
    {
      "inputs": [
        {
          "internalType": "string",
          "name": "",
          "type": "string"
        }
      ],
      "name": "wastes",
      "outputs": [
        {
          "internalType": "string",
          "name": "id",
          "type": "string"
        },
        {
          "internalType": "string",
          "name": "status",
          "type": "string"
        },
        {
          "internalType": "uint256",
          "name": "weight",
          "type": "uint256"
        },
        {
          "internalType": "address",
          "name": "citizenId",
          "type": "address"
        },
        {
          "internalType": "address",
          "name": "shipperId",
          "type": "address"
        },
        {
          "internalType": "address",
          "name": "recyclerId",
          "type": "address"
        },
        {
          "internalType": "string",
          "name": "binId",
          "type": "string"
        }
      ],
      "stateMutability": "view",
      "type": "function",
      "constant": true
    },
    {
      "inputs": [
        {
          "internalType": "string",
          "name": "_location",
          "type": "string"
        },
        {
          "internalType": "uint256",
          "name": "_capacity",
          "type": "uint256"
        },
        {
          "internalType": "uint256",
          "name": "_currentWeight",
          "type": "uint256"
        }
      ],
      "name": "createBin",
      "outputs": [
        {
          "internalType": "string",
          "name": "",
          "type": "string"
        }
      ],
      "stateMutability": "nonpayable",
      "type": "function"
    },
    {
      "inputs": [
        {
          "internalType": "string",
          "name": "_id",
          "type": "string"
        },
        {
          "internalType": "string",
          "name": "_location",
          "type": "string"
        },
        {
          "internalType": "uint256",
          "name": "_capacity",
          "type": "uint256"
        },
        {
          "internalType": "uint256",
          "name": "_currentWeight",
          "type": "uint256"
        }
      ],
      "name": "modifyBin",
      "outputs": [],
      "stateMutability": "nonpayable",
      "type": "function"
    },
    {
      "inputs": [
        {
          "internalType": "string",
          "name": "_id",
          "type": "string"
        }
      ],
      "name": "deleteBin",
      "outputs": [],
      "stateMutability": "nonpayable",
      "type": "function"
    },
    {
      "inputs": [],
      "name": "getBins",
      "outputs": [
        {
          "internalType": "string[]",
          "name": "",
          "type": "string[]"
        },
        {
          "internalType": "string[]",
          "name": "",
          "type": "string[]"
        },
        {
          "internalType": "uint256[]",
          "name": "",
          "type": "uint256[]"
        },
        {
          "internalType": "uint256[]",
          "name": "",
          "type": "uint256[]"
        }
      ],
      "stateMutability": "view",
      "type": "function",
      "constant": true
    },
    {
      "inputs": [
        {
          "internalType": "address",
          "name": "_shipper",
          "type": "address"
        }
      ],
      "name": "createShipper",
      "outputs": [],
      "stateMutability": "nonpayable",
      "type": "function"
    },
    {
      "inputs": [],
      "name": "getShippers",
      "outputs": [
        {
          "internalType": "address[]",
          "name": "",
          "type": "address[]"
        }
      ],
      "stateMutability": "view",
      "type": "function",
      "constant": true
    },
    {
      "inputs": [
        {
          "internalType": "address",
          "name": "_shipper",
          "type": "address"
        },
        {
          "internalType": "string",
          "name": "_idBin",
          "type": "string"
        },
        {
          "internalType": "string",
          "name": "_date",
          "type": "string"
        }
      ],
      "name": "createCollection",
      "outputs": [
        {
          "internalType": "string",
          "name": "",
          "type": "string"
        }
      ],
      "stateMutability": "nonpayable",
      "type": "function"
    },
    {
      "inputs": [
        {
          "internalType": "string",
          "name": "_idCollection",
          "type": "string"
        },
        {
          "internalType": "address",
          "name": "_shipperId",
          "type": "address"
        }
      ],
      "name": "ShipWasteById",
      "outputs": [],
      "stateMutability": "nonpayable",
      "type": "function"
    },
    {
      "inputs": [
        {
          "internalType": "address",
          "name": "_shipperAddress",
          "type": "address"
        }
      ],
      "name": "deleteShipper",
      "outputs": [],
      "stateMutability": "nonpayable",
      "type": "function"
    },
    {
      "inputs": [
        {
          "internalType": "address",
          "name": "_shipperAddress",
          "type": "address"
        }
      ],
      "name": "modifyShipper",
      "outputs": [],
      "stateMutability": "nonpayable",
      "type": "function"
    },
    {
      "inputs": [
        {
          "internalType": "address",
          "name": "_citizen",
          "type": "address"
        }
      ],
      "name": "createCitizen",
      "outputs": [],
      "stateMutability": "nonpayable",
      "type": "function"
    },
    {
      "inputs": [],
      "name": "getCitizens",
      "outputs": [
        {
          "internalType": "address[]",
          "name": "",
          "type": "address[]"
        }
      ],
      "stateMutability": "view",
      "type": "function",
      "constant": true
    },
    {
      "inputs": [
        {
          "internalType": "address",
          "name": "_citizenAddress",
          "type": "address"
        }
      ],
      "name": "deleteCitizen",
      "outputs": [],
      "stateMutability": "nonpayable",
      "type": "function"
    },
    {
      "inputs": [
        {
          "internalType": "address",
          "name": "_citizenAddress",
          "type": "address"
        }
      ],
      "name": "modifyCitizen",
      "outputs": [],
      "stateMutability": "nonpayable",
      "type": "function"
    },
    {
      "inputs": [
        {
          "internalType": "string",
          "name": "_binId",
          "type": "string"
        }
      ],
      "name": "getIsBin",
      "outputs": [
        {
          "internalType": "bool",
          "name": "",
          "type": "bool"
        }
      ],
      "stateMutability": "view",
      "type": "function",
      "constant": true
    },
    {
      "inputs": [
        {
          "internalType": "address",
          "name": "_citizenId",
          "type": "address"
        }
      ],
      "name": "getIsCitizen",
      "outputs": [
        {
          "internalType": "bool",
          "name": "",
          "type": "bool"
        }
      ],
      "stateMutability": "view",
      "type": "function",
      "constant": true
    },
    {
      "inputs": [
        {
          "internalType": "string",
          "name": "_wasteId",
          "type": "string"
        }
      ],
      "name": "getIsWaste",
      "outputs": [
        {
          "internalType": "bool",
          "name": "",
          "type": "bool"
        }
      ],
      "stateMutability": "view",
      "type": "function",
      "constant": true
    },
    {
      "inputs": [
        {
          "internalType": "string",
          "name": "_wasteId",
          "type": "string"
        }
      ],
      "name": "CheckWaste",
      "outputs": [
        {
          "internalType": "bool",
          "name": "",
          "type": "bool"
        }
      ],
      "stateMutability": "view",
      "type": "function",
      "constant": true
    },
    {
      "inputs": [
        {
          "internalType": "string",
          "name": "_wasteId",
          "type": "string"
        }
      ],
      "name": "setWaste",
      "outputs": [],
      "stateMutability": "nonpayable",
      "type": "function"
    },
    {
      "inputs": [
        {
          "internalType": "uint256",
          "name": "_count",
          "type": "uint256"
        }
      ],
      "name": "setWasteCount",
      "outputs": [],
      "stateMutability": "nonpayable",
      "type": "function"
    },
    {
      "inputs": [],
      "name": "getWasteCount",
      "outputs": [
        {
          "internalType": "uint256",
          "name": "",
          "type": "uint256"
        }
      ],
      "stateMutability": "view",
      "type": "function",
      "constant": true
    },
    {
      "inputs": [
        {
          "internalType": "string",
          "name": "_wasteId",
          "type": "string"
        },
        {
          "components": [
            {
              "internalType": "string",
              "name": "id",
              "type": "string"
            },
            {
              "internalType": "string",
              "name": "status",
              "type": "string"
            },
            {
              "internalType": "uint256",
              "name": "weight",
              "type": "uint256"
            },
            {
              "internalType": "address",
              "name": "citizenId",
              "type": "address"
            },
            {
              "internalType": "address",
              "name": "shipperId",
              "type": "address"
            },
            {
              "internalType": "address",
              "name": "recyclerId",
              "type": "address"
            },
            {
              "internalType": "string",
              "name": "binId",
              "type": "string"
            }
          ],
          "internalType": "struct WasteManagement.Waste",
          "name": "waste",
          "type": "tuple"
        }
      ],
      "name": "setWastes",
      "outputs": [],
      "stateMutability": "nonpayable",
      "type": "function"
    }
  ],
  "bytecode": "0x6080604052734494f3bb19f95bb33ec116887b9dbd728c008f9b600a60006101000a81548173ffffffffffffffffffffffffffffffffffffffff021916908373ffffffffffffffffffffffffffffffffffffffff16021790555034801561006557600080fd5b5033601160006101000a81548173ffffffffffffffffffffffffffffffffffffffff021916908373ffffffffffffffffffffffffffffffffffffffff160217905550614d77806100b66000396000f3fe608060405234801561001057600080fd5b50600436106101e55760003560e01c8063963464f11161010f578063d57f966b116100a2578063e1c7b8d511610071578063e1c7b8d5146105b1578063e2848912146105e1578063eee8c7db14610611578063f67c63641461062f576101e5565b8063d57f966b14610526578063d597280214610544578063df12989114610574578063e042a40214610590576101e5565b8063cc3b2e88116100de578063cc3b2e88146104b4578063cc70ebe7146104d2578063ce4717df146104ee578063d17c760f1461050a576101e5565b8063963464f114610430578063aef16e761461044c578063c773e64914610468578063c9b5ac5b14610498576101e5565b80634a19d56d116101875780636a10fe94116101565780636a10fe94146103a857806381d06633146103c65780638d68d807146103f65780638da5cb5b14610412576101e5565b80634a19d56d146102ef578063537a828f1461032557806355ef71481461035557806366e54d7b14610373576101e5565b8063236b831c116101c3578063236b831c1461025757806335a9c596146102735780633c1bc3b9146102a35780633edb6272146102bf576101e5565b806313a172f3146101ea578063162073931461021d578063224e20111461023b575b600080fd5b61020460048036038101906101ff9190613376565b61064b565b6040516102149493929190613457565b60405180910390f35b6102256107a1565b60405161023291906134aa565b60405180910390f35b610255600480360381019061025091906134f1565b6107a7565b005b610271600480360381019061026c919061357c565b6107b1565b005b61028d600480360381019061028891906135a9565b610905565b60405161029a9190613634565b60405180910390f35b6102bd60048036038101906102b8919061357c565b610d27565b005b6102d960048036038101906102d49190613376565b610f92565b6040516102e69190613671565b60405180910390f35b61030960048036038101906103049190613376565b611032565b60405161031c979695949392919061369b565b60405180910390f35b61033f600480360381019061033a91906134f1565b611282565b60405161034c9190613634565b60405180910390f35b61035d61132e565b60405161036a91906134aa565b60405180910390f35b61038d60048036038101906103889190613376565b611337565b60405161039f9695949392919061371f565b60405180910390f35b6103b06115d6565b6040516103bd919061385a565b60405180910390f35b6103e060048036038101906103db919061387c565b611664565b6040516103ed9190613634565b60405180910390f35b610410600480360381019061040b919061357c565b6118b6565b005b61041a611b2e565b60405161042791906138eb565b60405180910390f35b61044a6004803603810190610445919061357c565b611b54565b005b61046660048036038101906104619190613906565b611d2f565b005b610482600480360381019061047d919061357c565b611eb2565b60405161048f9190613671565b60405180910390f35b6104b260048036038101906104ad919061357c565b611f94565b005b6104bc6120e8565b6040516104c991906134aa565b60405180910390f35b6104ec60048036038101906104e79190613ab7565b6120ee565b005b61050860048036038101906105039190613376565b612235565b005b610524600480360381019061051f9190613376565b61252b565b005b61052e6125d1565b60405161053b91906134aa565b60405180910390f35b61055e6004803603810190610559919061357c565b6125d7565b60405161056b91906134aa565b60405180910390f35b61058e6004803603810190610589919061357c565b6125ef565b005b610598612867565b6040516105a89493929190613cf9565b60405180910390f35b6105cb60048036038101906105c69190613376565b612bfb565b6040516105d89190613671565b60405180910390f35b6105fb60048036038101906105f69190613376565b612c9d565b6040516106089190613671565b60405180910390f35b610619612d3d565b604051610626919061385a565b60405180910390f35b61064960048036038101906106449190613d5a565b612dcb565b005b60038180516020810182018051848252602083016020850120818352809550505050505060009150905080600001805461068490613de5565b80601f01602080910402602001604051908101604052809291908181526020018280546106b090613de5565b80156106fd5780601f106106d2576101008083540402835291602001916106fd565b820191906000526020600020905b8154815290600101906020018083116106e057829003601f168201915b50505050509080600101805461071290613de5565b80601f016020809104026020016040519081016040528092919081815260200182805461073e90613de5565b801561078b5780601f106107605761010080835404028352916020019161078b565b820191906000526020600020905b81548152906001019060200180831161076e57829003601f168201915b5050505050908060020154908060030154905084565b60005481565b8060008190555050565b601160009054906101000a900473ffffffffffffffffffffffffffffffffffffffff1673ffffffffffffffffffffffffffffffffffffffff163373ffffffffffffffffffffffffffffffffffffffff1614610841576040517f08c379a000000000000000000000000000000000000000000000000000000000815260040161083890613e88565b60405180910390fd5b600f60008273ffffffffffffffffffffffffffffffffffffffff1673ffffffffffffffffffffffffffffffffffffffff16815260200190815260200160002060009054906101000a900460ff166108cd576040517f08c379a00000000000000000000000000000000000000000000000000000000081526004016108c490613ef4565b60405180910390fd5b7fb93a331b14aae9427dff15bad12885145072068d20db5bc47066d700abfe7dea6040516108fa90613f60565b60405180910390a150565b6060601160009054906101000a900473ffffffffffffffffffffffffffffffffffffffff1673ffffffffffffffffffffffffffffffffffffffff163373ffffffffffffffffffffffffffffffffffffffff1614610997576040517f08c379a000000000000000000000000000000000000000000000000000000000815260040161098e90613e88565b60405180910390fd5b60006109a161301a565b9050600d816040516109b39190613fbc565b908152602001604051809103902060009054906101000a900460ff1615610a0f576040517f08c379a0000000000000000000000000000000000000000000000000000000008152600401610a0690614045565b60405180910390fd5b601060008673ffffffffffffffffffffffffffffffffffffffff1673ffffffffffffffffffffffffffffffffffffffff16815260200190815260200160002060009054906101000a900460ff16610a9b576040517f08c379a0000000000000000000000000000000000000000000000000000000008152600401610a92906140b1565b60405180910390fd5b600c84604051610aab9190613fbc565b908152602001604051809103902060009054906101000a900460ff16610b06576040517f08c379a0000000000000000000000000000000000000000000000000000000008152600401610afd9061411d565b60405180910390fd5b6040518060c001604052808281526020018673ffffffffffffffffffffffffffffffffffffffff1681526020018581526020016000151581526020018481526020016040518060400160405280600781526020017f57616974696e6700000000000000000000000000000000000000000000000000815250815250600482604051610b919190613fbc565b90815260200160405180910390206000820151816000019081610bb491906142e9565b5060208201518160010160006101000a81548173ffffffffffffffffffffffffffffffffffffffff021916908373ffffffffffffffffffffffffffffffffffffffff1602179055506040820151816002019081610c1191906142e9565b5060608201518160030160006101000a81548160ff0219169083151502179055506080820151816004019081610c4791906142e9565b5060a0820151816005019081610c5d91906142e9565b50905050600681908060018154018082558091505060019003906000526020600020016000909190919091509081610c9591906142e9565b5060026000815480929190610ca9906143ea565b91905055506001600d82604051610cc09190613fbc565b908152602001604051809103902060006101000a81548160ff0219169083151502179055507ff2e193f96c77b8eebe5989f9851e54078a47d1e2d8e3ca74dca8a4aeb249aebf81604051610d149190613634565b60405180910390a1809150509392505050565b601160009054906101000a900473ffffffffffffffffffffffffffffffffffffffff1673ffffffffffffffffffffffffffffffffffffffff163373ffffffffffffffffffffffffffffffffffffffff1614610db7576040517f08c379a0000000000000000000000000000000000000000000000000000000008152600401610dae90613e88565b60405180910390fd5b600f60008273ffffffffffffffffffffffffffffffffffffffff1673ffffffffffffffffffffffffffffffffffffffff16815260200190815260200160002060009054906101000a900460ff1615610e44576040517f08c379a0000000000000000000000000000000000000000000000000000000008152600401610e3b9061447e565b60405180910390fd5b601160009054906101000a900473ffffffffffffffffffffffffffffffffffffffff1673ffffffffffffffffffffffffffffffffffffffff168173ffffffffffffffffffffffffffffffffffffffff1603610ed4576040517f08c379a0000000000000000000000000000000000000000000000000000000008152600401610ecb90614510565b60405180910390fd5b6009819080600181540180825580915050600190039060005260206000200160009091909190916101000a81548173ffffffffffffffffffffffffffffffffffffffff021916908373ffffffffffffffffffffffffffffffffffffffff1602179055506001600f60008373ffffffffffffffffffffffffffffffffffffffff1673ffffffffffffffffffffffffffffffffffffffff16815260200190815260200160002060006101000a81548160ff02191690831515021790555050565b6000600c82604051610fa49190613fbc565b908152602001604051809103902060009054906101000a900460ff16610fff576040517f08c379a0000000000000000000000000000000000000000000000000000000008152600401610ff69061411d565b60405180910390fd5b600c8260405161100f9190613fbc565b908152602001604051809103902060009054906101000a900460ff169050919050565b60088180516020810182018051848252602083016020850120818352809550505050505060009150905080600001805461106b90613de5565b80601f016020809104026020016040519081016040528092919081815260200182805461109790613de5565b80156110e45780601f106110b9576101008083540402835291602001916110e4565b820191906000526020600020905b8154815290600101906020018083116110c757829003601f168201915b5050505050908060010180546110f990613de5565b80601f016020809104026020016040519081016040528092919081815260200182805461112590613de5565b80156111725780601f1061114757610100808354040283529160200191611172565b820191906000526020600020905b81548152906001019060200180831161115557829003601f168201915b5050505050908060020154908060030160009054906101000a900473ffffffffffffffffffffffffffffffffffffffff16908060040160009054906101000a900473ffffffffffffffffffffffffffffffffffffffff16908060050160009054906101000a900473ffffffffffffffffffffffffffffffffffffffff16908060060180546111ff90613de5565b80601f016020809104026020016040519081016040528092919081815260200182805461122b90613de5565b80156112785780601f1061124d57610100808354040283529160200191611278565b820191906000526020600020905b81548152906001019060200180831161125b57829003601f168201915b5050505050905087565b6007818154811061129257600080fd5b9060005260206000200160009150905080546112ad90613de5565b80601f01602080910402602001604051908101604052809291908181526020018280546112d990613de5565b80156113265780601f106112fb57610100808354040283529160200191611326565b820191906000526020600020905b81548152906001019060200180831161130957829003601f168201915b505050505081565b60008054905090565b60048180516020810182018051848252602083016020850120818352809550505050505060009150905080600001805461137090613de5565b80601f016020809104026020016040519081016040528092919081815260200182805461139c90613de5565b80156113e95780601f106113be576101008083540402835291602001916113e9565b820191906000526020600020905b8154815290600101906020018083116113cc57829003601f168201915b5050505050908060010160009054906101000a900473ffffffffffffffffffffffffffffffffffffffff169080600201805461142490613de5565b80601f016020809104026020016040519081016040528092919081815260200182805461145090613de5565b801561149d5780601f106114725761010080835404028352916020019161149d565b820191906000526020600020905b81548152906001019060200180831161148057829003601f168201915b5050505050908060030160009054906101000a900460ff16908060040180546114c590613de5565b80601f01602080910402602001604051908101604052809291908181526020018280546114f190613de5565b801561153e5780601f106115135761010080835404028352916020019161153e565b820191906000526020600020905b81548152906001019060200180831161152157829003601f168201915b50505050509080600501805461155390613de5565b80601f016020809104026020016040519081016040528092919081815260200182805461157f90613de5565b80156115cc5780601f106115a1576101008083540402835291602001916115cc565b820191906000526020600020905b8154815290600101906020018083116115af57829003601f168201915b5050505050905086565b6060600b80548060200260200160405190810160405280929190818152602001828054801561165a57602002820191906000526020600020905b8160009054906101000a900473ffffffffffffffffffffffffffffffffffffffff1673ffffffffffffffffffffffffffffffffffffffff1681526020019060010190808311611610575b5050505050905090565b6060601160009054906101000a900473ffffffffffffffffffffffffffffffffffffffff1673ffffffffffffffffffffffffffffffffffffffff163373ffffffffffffffffffffffffffffffffffffffff16146116f6576040517f08c379a00000000000000000000000000000000000000000000000000000000081526004016116ed90613e88565b60405180910390fd5b600061170061301a565b9050600c816040516117129190613fbc565b908152602001604051809103902060009054906101000a900460ff161561176e576040517f08c379a00000000000000000000000000000000000000000000000000000000081526004016117659061457c565b60405180910390fd5b60405180608001604052808281526020018681526020018581526020018481525060038260405161179f9190613fbc565b908152602001604051809103902060008201518160000190816117c291906142e9565b5060208201518160010190816117d891906142e9565b50604082015181600201556060820151816003015590505060058190806001815401808255809150506001900390600052602060002001600090919091909150908161182491906142e9565b5060016000815480929190611838906143ea565b91905055506001600c8260405161184f9190613fbc565b908152602001604051809103902060006101000a81548160ff0219169083151502179055507fd5413a7934f1aa973af7bc53f68df06953b49031401619e5997d54afb849377e816040516118a39190613634565b60405180910390a1809150509392505050565b601160009054906101000a900473ffffffffffffffffffffffffffffffffffffffff1673ffffffffffffffffffffffffffffffffffffffff163373ffffffffffffffffffffffffffffffffffffffff1614611946576040517f08c379a000000000000000000000000000000000000000000000000000000000815260040161193d90613e88565b60405180910390fd5b60005b600980549050811015611b2a578173ffffffffffffffffffffffffffffffffffffffff16600982815481106119815761198061459c565b5b9060005260206000200160009054906101000a900473ffffffffffffffffffffffffffffffffffffffff1673ffffffffffffffffffffffffffffffffffffffff1603611b1757600960016009805490506119db91906145cb565b815481106119ec576119eb61459c565b5b9060005260206000200160009054906101000a900473ffffffffffffffffffffffffffffffffffffffff1660098281548110611a2b57611a2a61459c565b5b9060005260206000200160006101000a81548173ffffffffffffffffffffffffffffffffffffffff021916908373ffffffffffffffffffffffffffffffffffffffff1602179055506009805480611a8557611a846145ff565b5b6001900381819060005260206000200160006101000a81549073ffffffffffffffffffffffffffffffffffffffff021916905590556000600f60008473ffffffffffffffffffffffffffffffffffffffff1673ffffffffffffffffffffffffffffffffffffffff16815260200190815260200160002060006101000a81548160ff021916908315150217905550611b2a565b8080611b22906143ea565b915050611949565b5050565b601160009054906101000a900473ffffffffffffffffffffffffffffffffffffffff1681565b601160009054906101000a900473ffffffffffffffffffffffffffffffffffffffff1673ffffffffffffffffffffffffffffffffffffffff163373ffffffffffffffffffffffffffffffffffffffff1614611be4576040517f08c379a0000000000000000000000000000000000000000000000000000000008152600401611bdb90613e88565b60405180910390fd5b601060008273ffffffffffffffffffffffffffffffffffffffff1673ffffffffffffffffffffffffffffffffffffffff16815260200190815260200160002060009054906101000a900460ff1615611c71576040517f08c379a0000000000000000000000000000000000000000000000000000000008152600401611c689061467a565b60405180910390fd5b600b819080600181540180825580915050600190039060005260206000200160009091909190916101000a81548173ffffffffffffffffffffffffffffffffffffffff021916908373ffffffffffffffffffffffffffffffffffffffff1602179055506001601060008373ffffffffffffffffffffffffffffffffffffffff1673ffffffffffffffffffffffffffffffffffffffff16815260200190815260200160002060006101000a81548160ff02191690831515021790555050565b601160009054906101000a900473ffffffffffffffffffffffffffffffffffffffff1673ffffffffffffffffffffffffffffffffffffffff163373ffffffffffffffffffffffffffffffffffffffff1614611dbf576040517f08c379a0000000000000000000000000000000000000000000000000000000008152600401611db690613e88565b60405180910390fd5b600c84604051611dcf9190613fbc565b908152602001604051809103902060009054906101000a900460ff16611e2a576040517f08c379a0000000000000000000000000000000000000000000000000000000008152600401611e21906146e6565b60405180910390fd5b604051806080016040528085815260200184815260200183815260200182815250600385604051611e5b9190613fbc565b90815260200160405180910390206000820151816000019081611e7e91906142e9565b506020820151816001019081611e9491906142e9565b50604082015181600201556060820151816003015590505050505050565b6000600f60008373ffffffffffffffffffffffffffffffffffffffff1673ffffffffffffffffffffffffffffffffffffffff16815260200190815260200160002060009054906101000a900460ff16611f40576040517f08c379a0000000000000000000000000000000000000000000000000000000008152600401611f3790614752565b60405180910390fd5b600f60008373ffffffffffffffffffffffffffffffffffffffff1673ffffffffffffffffffffffffffffffffffffffff16815260200190815260200160002060009054906101000a900460ff169050919050565b601160009054906101000a900473ffffffffffffffffffffffffffffffffffffffff1673ffffffffffffffffffffffffffffffffffffffff163373ffffffffffffffffffffffffffffffffffffffff1614612024576040517f08c379a000000000000000000000000000000000000000000000000000000000815260040161201b90613e88565b60405180910390fd5b601060008273ffffffffffffffffffffffffffffffffffffffff1673ffffffffffffffffffffffffffffffffffffffff16815260200190815260200160002060009054906101000a900460ff166120b0576040517f08c379a00000000000000000000000000000000000000000000000000000000081526004016120a7906147be565b60405180910390fd5b7f7d0afd94fbb67c41dce82b00240b23eb17cd64b8971fe1b722eee0363a2dede06040516120dd9061482a565b60405180910390a150565b60015481565b806008836040516120ff9190613fbc565b9081526020016040518091039020600082015181600001908161212291906142e9565b50602082015181600101908161213891906142e9565b506040820151816002015560608201518160030160006101000a81548173ffffffffffffffffffffffffffffffffffffffff021916908373ffffffffffffffffffffffffffffffffffffffff16021790555060808201518160040160006101000a81548173ffffffffffffffffffffffffffffffffffffffff021916908373ffffffffffffffffffffffffffffffffffffffff16021790555060a08201518160050160006101000a81548173ffffffffffffffffffffffffffffffffffffffff021916908373ffffffffffffffffffffffffffffffffffffffff16021790555060c082015181600601908161222d91906142e9565b509050505050565b601160009054906101000a900473ffffffffffffffffffffffffffffffffffffffff1673ffffffffffffffffffffffffffffffffffffffff163373ffffffffffffffffffffffffffffffffffffffff16146122c5576040517f08c379a00000000000000000000000000000000000000000000000000000000081526004016122bc90613e88565b60405180910390fd5b600c816040516122d59190613fbc565b908152602001604051809103902060009054906101000a900460ff16612330576040517f08c379a0000000000000000000000000000000000000000000000000000000008152600401612327906146e6565b60405180910390fd5b6000600c826040516123429190613fbc565b908152602001604051809103902060006101000a81548160ff0219169083151502179055506003816040516123779190613fbc565b90815260200160405180910390206000808201600061239691906131bf565b6001820160006123a691906131bf565b60028201600090556003820160009055505060005b60058054905081101561250f578180519060200120600582815481106123e4576123e361459c565b5b906000526020600020016040516123fb91906148ed565b6040518091039020036124fc5760008190505b600160058054905061242091906145cb565b81101561248f5760056001826124369190614904565b815481106124475761244661459c565b5b90600052602060002001600582815481106124655761246461459c565b5b90600052602060002001908161247b9190614963565b508080612487906143ea565b91505061240e565b5060058054806124a2576124a16145ff565b5b6001900381819060005260206000200160006124be91906131bf565b90556000600c836040516124d29190613fbc565b908152602001604051809103902060006101000a81548160ff02191690831515021790555061250f565b8080612507906143ea565b9150506123bb565b506001600081548092919061252390614a4b565b919050555050565b600e8160405161253b9190613fbc565b908152602001604051809103902060009054906101000a900460ff1615612597576040517f08c379a000000000000000000000000000000000000000000000000000000000815260040161258e90614ac0565b60405180910390fd5b6001600e826040516125a99190613fbc565b908152602001604051809103902060006101000a81548160ff02191690831515021790555050565b60025481565b60126020528060005260406000206000915090505481565b601160009054906101000a900473ffffffffffffffffffffffffffffffffffffffff1673ffffffffffffffffffffffffffffffffffffffff163373ffffffffffffffffffffffffffffffffffffffff161461267f576040517f08c379a000000000000000000000000000000000000000000000000000000000815260040161267690613e88565b60405180910390fd5b60005b600b80549050811015612863578173ffffffffffffffffffffffffffffffffffffffff16600b82815481106126ba576126b961459c565b5b9060005260206000200160009054906101000a900473ffffffffffffffffffffffffffffffffffffffff1673ffffffffffffffffffffffffffffffffffffffff160361285057600b6001600b8054905061271491906145cb565b815481106127255761272461459c565b5b9060005260206000200160009054906101000a900473ffffffffffffffffffffffffffffffffffffffff16600b82815481106127645761276361459c565b5b9060005260206000200160006101000a81548173ffffffffffffffffffffffffffffffffffffffff021916908373ffffffffffffffffffffffffffffffffffffffff160217905550600b8054806127be576127bd6145ff565b5b6001900381819060005260206000200160006101000a81549073ffffffffffffffffffffffffffffffffffffffff021916905590556000601060008473ffffffffffffffffffffffffffffffffffffffff1673ffffffffffffffffffffffffffffffffffffffff16815260200190815260200160002060006101000a81548160ff021916908315150217905550612863565b808061285b906143ea565b915050612682565b5050565b606080606080600060015467ffffffffffffffff81111561288b5761288a61324b565b5b6040519080825280602002602001820160405280156128be57816020015b60608152602001906001900390816128a95790505b509050600060015467ffffffffffffffff8111156128df576128de61324b565b5b60405190808252806020026020018201604052801561291257816020015b60608152602001906001900390816128fd5790505b509050600060015467ffffffffffffffff8111156129335761293261324b565b5b6040519080825280602002602001820160405280156129615781602001602082028036833780820191505090505b509050600060015467ffffffffffffffff8111156129825761298161324b565b5b6040519080825280602002602001820160405280156129b05781602001602082028036833780820191505090505b50905060005b600154811015612be45760006003600583815481106129d8576129d761459c565b5b906000526020600020016040516129ef9190614b63565b9081526020016040518091039020604051806080016040529081600082018054612a1890613de5565b80601f0160208091040260200160405190810160405280929190818152602001828054612a4490613de5565b8015612a915780601f10612a6657610100808354040283529160200191612a91565b820191906000526020600020905b815481529060010190602001808311612a7457829003601f168201915b50505050508152602001600182018054612aaa90613de5565b80601f0160208091040260200160405190810160405280929190818152602001828054612ad690613de5565b8015612b235780601f10612af857610100808354040283529160200191612b23565b820191906000526020600020905b815481529060010190602001808311612b0657829003601f168201915b505050505081526020016002820154815260200160038201548152505090508060000151868381518110612b5a57612b5961459c565b5b60200260200101819052508060200151858381518110612b7d57612b7c61459c565b5b60200260200101819052508060400151848381518110612ba057612b9f61459c565b5b6020026020010181815250508060600151838381518110612bc457612bc361459c565b5b602002602001018181525050508080612bdc906143ea565b9150506129b6565b508383838397509750975097505050505090919293565b6000600e82604051612c0d9190613fbc565b908152602001604051809103902060009054906101000a900460ff1615612c69576040517f08c379a0000000000000000000000000000000000000000000000000000000008152600401612c6090614ac0565b60405180910390fd5b600e82604051612c799190613fbc565b908152602001604051809103902060009054906101000a900460ff16159050919050565b6000600e82604051612caf9190613fbc565b908152602001604051809103902060009054906101000a900460ff16612d0a576040517f08c379a0000000000000000000000000000000000000000000000000000000008152600401612d0190614bc6565b60405180910390fd5b600e82604051612d1a9190613fbc565b908152602001604051809103902060009054906101000a900460ff169050919050565b60606009805480602002602001604051908101604052809291908181526020018280548015612dc157602002820191906000526020600020905b8160009054906101000a900473ffffffffffffffffffffffffffffffffffffffff1673ffffffffffffffffffffffffffffffffffffffff1681526020019060010190808311612d77575b5050505050905090565b601160009054906101000a900473ffffffffffffffffffffffffffffffffffffffff1673ffffffffffffffffffffffffffffffffffffffff163373ffffffffffffffffffffffffffffffffffffffff1614612e5b576040517f08c379a0000000000000000000000000000000000000000000000000000000008152600401612e5290613e88565b60405180910390fd5b601060008273ffffffffffffffffffffffffffffffffffffffff1673ffffffffffffffffffffffffffffffffffffffff16815260200190815260200160002060009054906101000a900460ff16612ee7576040517f08c379a0000000000000000000000000000000000000000000000000000000008152600401612ede906140b1565b60405180910390fd5b600d82604051612ef79190613fbc565b908152602001604051809103902060009054906101000a900460ff16612f52576040517f08c379a0000000000000000000000000000000000000000000000000000000008152600401612f4990614c32565b60405180910390fd5b6040518060400160405280600781526020017f5368697070656400000000000000000000000000000000000000000000000000815250600483604051612f989190613fbc565b90815260200160405180910390206005019081612fb591906142e9565b5080600483604051612fc79190613fbc565b908152602001604051809103902060010160006101000a81548173ffffffffffffffffffffffffffffffffffffffff021916908373ffffffffffffffffffffffffffffffffffffffff1602179055505050565b60606000424460015460405160200161303593929190614c73565b6040516020818303038152906040528051906020012090506130598160001c61305f565b91505090565b6060600082036130a6576040518060400160405280600181526020017f300000000000000000000000000000000000000000000000000000000000000081525090506131ba565b600082905060005b600082146130d85780806130c1906143ea565b915050600a826130d19190614cdf565b91506130ae565b60008167ffffffffffffffff8111156130f4576130f361324b565b5b6040519080825280601f01601f1916602001820160405280156131265781602001600182028036833780820191505090505b5090505b600085146131b35760018261313f91906145cb565b9150600a8561314e9190614d10565b603061315a9190614904565b60f81b8183815181106131705761316f61459c565b5b60200101907effffffffffffffffffffffffffffffffffffffffffffffffffffffffffffff1916908160001a905350600a856131ac9190614cdf565b945061312a565b8093505050505b919050565b5080546131cb90613de5565b6000825580601f106131dd57506131fc565b601f0160209004906000526020600020908101906131fb91906131ff565b5b50565b5b80821115613218576000816000905550600101613200565b5090565b6000604051905090565b600080fd5b600080fd5b600080fd5b600080fd5b6000601f19601f8301169050919050565b7f4e487b7100000000000000000000000000000000000000000000000000000000600052604160045260246000fd5b6132838261323a565b810181811067ffffffffffffffff821117156132a2576132a161324b565b5b80604052505050565b60006132b561321c565b90506132c1828261327a565b919050565b600067ffffffffffffffff8211156132e1576132e061324b565b5b6132ea8261323a565b9050602081019050919050565b82818337600083830152505050565b6000613319613314846132c6565b6132ab565b90508281526020810184848401111561333557613334613235565b5b6133408482856132f7565b509392505050565b600082601f83011261335d5761335c613230565b5b813561336d848260208601613306565b91505092915050565b60006020828403121561338c5761338b613226565b5b600082013567ffffffffffffffff8111156133aa576133a961322b565b5b6133b684828501613348565b91505092915050565b600081519050919050565b600082825260208201905092915050565b60005b838110156133f95780820151818401526020810190506133de565b60008484015250505050565b6000613410826133bf565b61341a81856133ca565b935061342a8185602086016133db565b6134338161323a565b840191505092915050565b6000819050919050565b6134518161343e565b82525050565b600060808201905081810360008301526134718187613405565b905081810360208301526134858186613405565b90506134946040830185613448565b6134a16060830184613448565b95945050505050565b60006020820190506134bf6000830184613448565b92915050565b6134ce8161343e565b81146134d957600080fd5b50565b6000813590506134eb816134c5565b92915050565b60006020828403121561350757613506613226565b5b6000613515848285016134dc565b91505092915050565b600073ffffffffffffffffffffffffffffffffffffffff82169050919050565b60006135498261351e565b9050919050565b6135598161353e565b811461356457600080fd5b50565b60008135905061357681613550565b92915050565b60006020828403121561359257613591613226565b5b60006135a084828501613567565b91505092915050565b6000806000606084860312156135c2576135c1613226565b5b60006135d086828701613567565b935050602084013567ffffffffffffffff8111156135f1576135f061322b565b5b6135fd86828701613348565b925050604084013567ffffffffffffffff81111561361e5761361d61322b565b5b61362a86828701613348565b9150509250925092565b6000602082019050818103600083015261364e8184613405565b905092915050565b60008115159050919050565b61366b81613656565b82525050565b60006020820190506136866000830184613662565b92915050565b6136958161353e565b82525050565b600060e08201905081810360008301526136b5818a613405565b905081810360208301526136c98189613405565b90506136d86040830188613448565b6136e5606083018761368c565b6136f2608083018661368c565b6136ff60a083018561368c565b81810360c08301526137118184613405565b905098975050505050505050565b600060c08201905081810360008301526137398189613405565b9050613748602083018861368c565b818103604083015261375a8187613405565b90506137696060830186613662565b818103608083015261377b8185613405565b905081810360a083015261378f8184613405565b9050979650505050505050565b600081519050919050565b600082825260208201905092915050565b6000819050602082019050919050565b6137d18161353e565b82525050565b60006137e383836137c8565b60208301905092915050565b6000602082019050919050565b60006138078261379c565b61381181856137a7565b935061381c836137b8565b8060005b8381101561384d57815161383488826137d7565b975061383f836137ef565b925050600181019050613820565b5085935050505092915050565b6000602082019050818103600083015261387481846137fc565b905092915050565b60008060006060848603121561389557613894613226565b5b600084013567ffffffffffffffff8111156138b3576138b261322b565b5b6138bf86828701613348565b93505060206138d0868287016134dc565b92505060406138e1868287016134dc565b9150509250925092565b6000602082019050613900600083018461368c565b92915050565b600080600080608085870312156139205761391f613226565b5b600085013567ffffffffffffffff81111561393e5761393d61322b565b5b61394a87828801613348565b945050602085013567ffffffffffffffff81111561396b5761396a61322b565b5b61397787828801613348565b9350506040613988878288016134dc565b9250506060613999878288016134dc565b91505092959194509250565b600080fd5b600080fd5b600060e082840312156139c5576139c46139a5565b5b6139cf60e06132ab565b9050600082013567ffffffffffffffff8111156139ef576139ee6139aa565b5b6139fb84828501613348565b600083015250602082013567ffffffffffffffff811115613a1f57613a1e6139aa565b5b613a2b84828501613348565b6020830152506040613a3f848285016134dc565b6040830152506060613a5384828501613567565b6060830152506080613a6784828501613567565b60808301525060a0613a7b84828501613567565b60a08301525060c082013567ffffffffffffffff811115613a9f57613a9e6139aa565b5b613aab84828501613348565b60c08301525092915050565b60008060408385031215613ace57613acd613226565b5b600083013567ffffffffffffffff811115613aec57613aeb61322b565b5b613af885828601613348565b925050602083013567ffffffffffffffff811115613b1957613b1861322b565b5b613b25858286016139af565b9150509250929050565b600081519050919050565b600082825260208201905092915050565b6000819050602082019050919050565b600082825260208201905092915050565b6000613b77826133bf565b613b818185613b5b565b9350613b918185602086016133db565b613b9a8161323a565b840191505092915050565b6000613bb18383613b6c565b905092915050565b6000602082019050919050565b6000613bd182613b2f565b613bdb8185613b3a565b935083602082028501613bed85613b4b565b8060005b85811015613c295784840389528151613c0a8582613ba5565b9450613c1583613bb9565b925060208a01995050600181019050613bf1565b50829750879550505050505092915050565b600081519050919050565b600082825260208201905092915050565b6000819050602082019050919050565b613c708161343e565b82525050565b6000613c828383613c67565b60208301905092915050565b6000602082019050919050565b6000613ca682613c3b565b613cb08185613c46565b9350613cbb83613c57565b8060005b83811015613cec578151613cd38882613c76565b9750613cde83613c8e565b925050600181019050613cbf565b5085935050505092915050565b60006080820190508181036000830152613d138187613bc6565b90508181036020830152613d278186613bc6565b90508181036040830152613d3b8185613c9b565b90508181036060830152613d4f8184613c9b565b905095945050505050565b60008060408385031215613d7157613d70613226565b5b600083013567ffffffffffffffff811115613d8f57613d8e61322b565b5b613d9b85828601613348565b9250506020613dac85828601613567565b9150509250929050565b7f4e487b7100000000000000000000000000000000000000000000000000000000600052602260045260246000fd5b60006002820490506001821680613dfd57607f821691505b602082108103613e1057613e0f613db6565b5b50919050565b7f4f6e6c79206f776e65722063616e2063616c6c20746869732066756e6374696f60008201527f6e00000000000000000000000000000000000000000000000000000000000000602082015250565b6000613e726021836133ca565b9150613e7d82613e16565b604082019050919050565b60006020820190508181036000830152613ea181613e65565b9050919050565b7f436974697a656e20646f6573206e6f7420657869737400000000000000000000600082015250565b6000613ede6016836133ca565b9150613ee982613ea8565b602082019050919050565b60006020820190508181036000830152613f0d81613ed1565b9050919050565b7f436974697a656e2063616e206265206d6f646966696564000000000000000000600082015250565b6000613f4a6017836133ca565b9150613f5582613f14565b602082019050919050565b60006020820190508181036000830152613f7981613f3d565b9050919050565b600081905092915050565b6000613f96826133bf565b613fa08185613f80565b9350613fb08185602086016133db565b80840191505092915050565b6000613fc88284613f8b565b915081905092915050565b7f47656e657261746564204944436f6c6c656374696f6e20616c7265616479206560008201527f7869737473000000000000000000000000000000000000000000000000000000602082015250565b600061402f6025836133ca565b915061403a82613fd3565b604082019050919050565b6000602082019050818103600083015261405e81614022565b9050919050565b7f5368697070657220646f65736e27742065786973740000000000000000000000600082015250565b600061409b6015836133ca565b91506140a682614065565b602082019050919050565b600060208201905081810360008301526140ca8161408e565b9050919050565b7f42696e20646f65736e2774206578697374000000000000000000000000000000600082015250565b60006141076011836133ca565b9150614112826140d1565b602082019050919050565b60006020820190508181036000830152614136816140fa565b9050919050565b60008190508160005260206000209050919050565b60006020601f8301049050919050565b600082821b905092915050565b60006008830261419f7fffffffffffffffffffffffffffffffffffffffffffffffffffffffffffffffff82614162565b6141a98683614162565b95508019841693508086168417925050509392505050565b6000819050919050565b60006141e66141e16141dc8461343e565b6141c1565b61343e565b9050919050565b6000819050919050565b614200836141cb565b61421461420c826141ed565b84845461416f565b825550505050565b600090565b61422961421c565b6142348184846141f7565b505050565b5b818110156142585761424d600082614221565b60018101905061423a565b5050565b601f82111561429d5761426e8161413d565b61427784614152565b81016020851015614286578190505b61429a61429285614152565b830182614239565b50505b505050565b600082821c905092915050565b60006142c0600019846008026142a2565b1980831691505092915050565b60006142d983836142af565b9150826002028217905092915050565b6142f2826133bf565b67ffffffffffffffff81111561430b5761430a61324b565b5b6143158254613de5565b61432082828561425c565b600060209050601f8311600181146143535760008415614341578287015190505b61434b85826142cd565b8655506143b3565b601f1984166143618661413d565b60005b8281101561438957848901518255600182019150602085019450602081019050614364565b868310156143a657848901516143a2601f8916826142af565b8355505b6001600288020188555050505b505050505050565b7f4e487b7100000000000000000000000000000000000000000000000000000000600052601160045260246000fd5b60006143f58261343e565b91507fffffffffffffffffffffffffffffffffffffffffffffffffffffffffffffffff8203614427576144266143bb565b5b600182019050919050565b7f436974697a656e20616c72656164792065786973747300000000000000000000600082015250565b60006144686016836133ca565b915061447382614432565b602082019050919050565b600060208201905081810360008301526144978161445b565b9050919050565b7f43616e6e6f742063726561746520636974697a656e2077697468206f776e657260008201527f2773206164647265737300000000000000000000000000000000000000000000602082015250565b60006144fa602a836133ca565b91506145058261449e565b604082019050919050565b60006020820190508181036000830152614529816144ed565b9050919050565b7f47656e65726174656420494420616c7265616479206578697374730000000000600082015250565b6000614566601b836133ca565b915061457182614530565b602082019050919050565b6000602082019050818103600083015261459581614559565b9050919050565b7f4e487b7100000000000000000000000000000000000000000000000000000000600052603260045260246000fd5b60006145d68261343e565b91506145e18361343e565b92508282039050818111156145f9576145f86143bb565b5b92915050565b7f4e487b7100000000000000000000000000000000000000000000000000000000600052603160045260246000fd5b7f5368697070657220616c72656164792065786973747300000000000000000000600082015250565b60006146646016836133ca565b915061466f8261462e565b602082019050919050565b6000602082019050818103600083015261469381614657565b9050919050565b7f42696e20646f6573206e6f742065786973740000000000000000000000000000600082015250565b60006146d06012836133ca565b91506146db8261469a565b602082019050919050565b600060208201905081810360008301526146ff816146c3565b9050919050565b7f436974697a656e20646f65736e27742065786973740000000000000000000000600082015250565b600061473c6015836133ca565b915061474782614706565b602082019050919050565b6000602082019050818103600083015261476b8161472f565b9050919050565b7f5368697070657220646f6573206e6f7420657869737400000000000000000000600082015250565b60006147a86016836133ca565b91506147b382614772565b602082019050919050565b600060208201905081810360008301526147d78161479b565b9050919050565b7f536869707065722063616e206265206d6f646966696564000000000000000000600082015250565b60006148146017836133ca565b915061481f826147de565b602082019050919050565b6000602082019050818103600083015261484381614807565b9050919050565b600081905092915050565b60008190508160005260206000209050919050565b6000815461487781613de5565b614881818661484a565b9450600182166000811461489c57600181146148b1576148e4565b60ff19831686528115158202860193506148e4565b6148ba85614855565b60005b838110156148dc578154818901526001820191506020810190506148bd565b838801955050505b50505092915050565b60006148f9828461486a565b915081905092915050565b600061490f8261343e565b915061491a8361343e565b9250828201905080821115614932576149316143bb565b5b92915050565b60008154905061494781613de5565b9050919050565b60008190508160005260206000209050919050565b818103614971575050614a49565b61497a82614938565b67ffffffffffffffff8111156149935761499261324b565b5b61499d8254613de5565b6149a882828561425c565b6000601f8311600181146149d757600084156149c5578287015490505b6149cf85826142cd565b865550614a42565b601f1984166149e58761494e565b96506149f08661413d565b60005b82811015614a18578489015482556001820191506001850194506020810190506149f3565b86831015614a355784890154614a31601f8916826142af565b8355505b6001600288020188555050505b5050505050505b565b6000614a568261343e565b915060008203614a6957614a686143bb565b5b600182039050919050565b7f5761747365206578697374000000000000000000000000000000000000000000600082015250565b6000614aaa600b836133ca565b9150614ab582614a74565b602082019050919050565b60006020820190508181036000830152614ad981614a9d565b9050919050565b60008154614aed81613de5565b614af78186613f80565b94506001821660008114614b125760018114614b2757614b5a565b60ff1983168652811515820286019350614b5a565b614b308561413d565b60005b83811015614b5257815481890152600182019150602081019050614b33565b838801955050505b50505092915050565b6000614b6f8284614ae0565b915081905092915050565b7f576174736520646f65736e277420657869737400000000000000000000000000600082015250565b6000614bb06013836133ca565b9150614bbb82614b7a565b602082019050919050565b60006020820190508181036000830152614bdf81614ba3565b9050919050565b7f436f6c6c656374696f6e20646f65736e27742065786973740000000000000000600082015250565b6000614c1c6018836133ca565b9150614c2782614be6565b602082019050919050565b60006020820190508181036000830152614c4b81614c0f565b9050919050565b6000819050919050565b614c6d614c688261343e565b614c52565b82525050565b6000614c7f8286614c5c565b602082019150614c8f8285614c5c565b602082019150614c9f8284614c5c565b602082019150819050949350505050565b7f4e487b7100000000000000000000000000000000000000000000000000000000600052601260045260246000fd5b6000614cea8261343e565b9150614cf58361343e565b925082614d0557614d04614cb0565b5b828204905092915050565b6000614d1b8261343e565b9150614d268361343e565b925082614d3657614d35614cb0565b5b82820690509291505056fea26469706673582212209e7bf071f1c495197bd76cf78e1bad1e1c4b3a5fb8bf11cd1f2907217439525364736f6c63430008130033",
  "immutableReferences": {},
  "source": "// SPDX-License-Identifier: MIT\r\npragma solidity ^0.8.0;\r\n\r\ncontract WasteManagement {\r\n    struct Bin {\r\n        string id; // Changed type to string\r\n        string location;\r\n        uint256 capacity;\r\n        uint256 currentWeight;\r\n    }\r\n    struct Waste {\r\n        string id;\r\n        string status;\r\n        uint256 weight;\r\n        address citizenId;\r\n        address shipperId;\r\n        address recyclerId;\r\n        string binId; // Changed type to string\r\n    }\r\n    struct Collection {\r\n        string idCollection;\r\n        address shipperNotified;\r\n        string binNotif; // Changed type to string\r\n        bool done;\r\n        string date;\r\n        string status;\r\n    }\r\n    event BinCreated(string id);\r\n    event CollectionCreated(string id);\r\n    event ModifShipper(string message);\r\n    event ModifCitizen(string message);\r\n    uint256 public wasteCount;\r\n    uint256 public binCount;\r\n    uint256 public collectionCount;\r\n    mapping(string => Bin) public bins; // Changed key type to string\r\n    mapping(string => Collection) public collections;\r\n    string[] binIds; // Changed type to string\r\n    string[] collectionIds;\r\n    string[] public wasteIds; // Changed type to string\r\n    mapping(string => Waste) public wastes; // Changed key type to string\r\n    address[] citizens;\r\n    address recycler = address(0x4494f3bb19F95BB33EC116887b9dbd728C008f9b);\r\n    address[] shippers;\r\n    mapping(string => bool) isBin;\r\n    mapping(string => bool) isCollection;\r\n    mapping(string => bool) isWaste;\r\n    mapping(address => bool) isCitizen;\r\n    mapping(address => bool) isShipper;\r\n    address public owner;\r\n    //mapping(address => mapping(string => Notif)) public notifications; // Changed key type to string\r\n    mapping(address => uint256) public citizenRewards;\r\n    \r\n\r\n\r\n    modifier onlyOwner() {\r\n        require(msg.sender == owner, \"Only owner can call this function\");\r\n        _;\r\n    }\r\n\r\n    constructor() {\r\n        owner = msg.sender;\r\n    }\r\n\r\n\r\n\r\n                     //*************Bin************//\r\n    function createBin(string memory _location,  uint256 _capacity, uint256 _currentWeight) external onlyOwner returns (string memory) {\r\n        string memory _id = generateUniqueId();\r\n        require(!isBin[_id], \"Generated ID already exists\");\r\n        bins[_id] = Bin(_id, _location,  _capacity, _currentWeight);\r\n        binIds.push(_id);\r\n        binCount++;\r\n        isBin[_id] = true;\r\n        emit BinCreated(_id);\r\n        return _id;\r\n    }\r\n\r\n    function modifyBin(string memory _id, string memory _location,  uint256 _capacity, uint256 _currentWeight) external onlyOwner {\r\n        require(isBin[_id], \"Bin does not exist\");\r\n        bins[_id] = Bin(_id, _location,  _capacity, _currentWeight);\r\n    }\r\n\r\n    function deleteBin(string memory _id) external onlyOwner {\r\n        require(isBin[_id], \"Bin does not exist\");\r\n        \r\n        // Update mappings and arrays\r\n        isBin[_id] = false;\r\n        delete bins[_id];\r\n        \r\n        // Find and remove the bin ID from binIds array\r\n        for (uint256 i = 0; i < binIds.length; i++) {\r\n            if (keccak256(bytes(binIds[i])) == keccak256(bytes(_id))) {\r\n                for (uint256 j = i; j < binIds.length - 1; j++) {\r\n                    binIds[j] = binIds[j + 1];\r\n                }\r\n                binIds.pop();\r\n                isBin[_id]=false;\r\n                break;\r\n            }\r\n        }\r\n        \r\n        // Decrement binCount\r\n        binCount--;\r\n    }\r\n    \r\n    function getBins() public view returns (string[] memory, string[] memory, uint256[] memory, uint256[] memory) {\r\n        string[] memory ids = new string[](binCount);\r\n        string[] memory locations = new string[](binCount);\r\n       \r\n        uint256[] memory capacities = new uint256[](binCount);\r\n        uint256[] memory currentWeights = new uint256[](binCount);\r\n\r\n        for (uint256 i = 0; i < binCount; i++) {\r\n            Bin memory bin = bins[binIds[i]];\r\n            ids[i] = bin.id;\r\n            locations[i] = bin.location;\r\n            capacities[i] = bin.capacity;\r\n            currentWeights[i] = bin.currentWeight;\r\n        }\r\n\r\n        return (ids, locations, capacities, currentWeights);\r\n    }\r\n    function generateUniqueId() internal view returns (string memory) {\r\n        bytes32 hash = keccak256(abi.encodePacked(block.timestamp, block.prevrandao, binCount));\r\n        return toStringUniqueId((uint256(hash)));\r\n    }\r\n    //ena zedt fazat uint64 bech nsa8arha\r\n\r\n    function toStringUniqueId(uint256 value) internal pure returns (string memory) {\r\n        if (value == 0) {\r\n            return \"0\";\r\n        }\r\n        uint256 temp = value;\r\n        uint256 digits;\r\n        while (temp != 0) {\r\n            digits++;\r\n            temp /= 10;\r\n        }\r\n        bytes memory buffer = new bytes(digits);\r\n        while (value != 0) {\r\n            digits -= 1;\r\n            buffer[digits] = bytes1(uint8(48 + uint256(value % 10)));\r\n            value /= 10;\r\n        }\r\n        return string(buffer);\r\n    }\r\n\r\n                   //*****************Shipper********************//\r\n\r\n\r\n\r\n    function createShipper(address _shipper) external onlyOwner {\r\n        require(!isShipper[_shipper], \"Shipper already exists\");\r\n\r\n        shippers.push(_shipper);\r\n        isShipper[_shipper] = true;\r\n    }\r\n\r\n    function getShippers() public view returns (address[] memory) {\r\n        return shippers;\r\n    }\r\n\r\n    // function notifyShipper(address _shipper, string memory _idBin, string memory _date) external onlyOwner {\r\n\r\n    //     require(isShipper[_shipper], \"Shipper doesn't exist\");\r\n    //     require(isBin[_idBin], \"Bin doesn't exist\");\r\n    //     notifications[_shipper][_idBin] = Notif(_shipper, _idBin, false);\r\n    // }\r\n\r\n    function createCollection (address _shipper, string memory _idBin, string memory _date)external onlyOwner returns(string memory) {\r\n        string memory _idCollection = generateUniqueId();\r\n        require(!isCollection[_idCollection], \"Generated IDCollection already exists\");\r\n        require(isShipper[_shipper], \"Shipper doesn't exist\");\r\n        require(isBin[_idBin], \"Bin doesn't exist\");\r\n        collections[_idCollection] = Collection(_idCollection, _shipper,  _idBin, false,_date,\"Waiting\");\r\n        collectionIds.push(_idCollection);\r\n        collectionCount++;\r\n        isCollection[_idCollection] = true;\r\n        emit CollectionCreated(_idCollection);\r\n        return _idCollection;\r\n    }\r\n    function ShipWasteById(string memory _idCollection, address _shipperId) external onlyOwner {\r\n        require(isShipper[_shipperId], \"Shipper doesn't exist\");\r\n        require(isCollection[_idCollection], \"Collection doesn't exist\");\r\n        collections[_idCollection].status = \"Shipped\";\r\n        collections[_idCollection].shipperNotified = _shipperId;\r\n    }\r\n    // function getNotifByShipper(address _shipper) public view returns (Notif[] memory) {\r\n    //     Notif[] memory shipperNotifications = new Notif[](binCount);\r\n\r\n    //     for (uint256 i = 0; i < binCount; i++) {\r\n    //         string memory binId = binIds[i];\r\n    //         if (isBin[binId]) {\r\n    //             shipperNotifications[i] = notifications[_shipper][binId];\r\n    //         }\r\n    //     }\r\n\r\n    //     return shipperNotifications;\r\n    // }\r\n\r\n    // function getAllNotif() public view returns (Notif[] memory) {\r\n    //     uint256 totalNotifications = 0;\r\n    //     for (uint256 i = 0; i < shippers.length; i++) {\r\n    //         for (uint256 j = 0; j < binCount; j++) {\r\n    //             string memory binId = binIds[j];\r\n    //             if (isBin[binId] && notifications[shippers[i]][binId].shipperNotified != address(0)) {\r\n    //                 totalNotifications++;\r\n    //             }\r\n    //         }\r\n    //     }\r\n\r\n    //     Notif[] memory allNotifications = new Notif[](totalNotifications);\r\n\r\n    //     uint256 index = 0;\r\n    //     for (uint256 i = 0; i < shippers.length; i++) {\r\n    //         for (uint256 j = 0; j < binCount; j++) {\r\n    //             string memory binId = binIds[j];\r\n    //             Notif memory notification = notifications[shippers[i]][binId];\r\n    //             if (isBin[binId] && notification.shipperNotified != address(0)) {\r\n    //                 allNotifications[index] = notification;\r\n    //                 index++;\r\n    //             }\r\n    //         }\r\n    //     }\r\n\r\n    //     return allNotifications;\r\n    // }\r\n\r\n    function deleteShipper(address _shipperAddress) external onlyOwner {\r\n        for (uint256 i = 0; i < shippers.length; i++) {\r\n            if (shippers[i] == _shipperAddress) {\r\n                shippers[i] = shippers[\r\n                    shippers.length - 1\r\n                ];\r\n                shippers.pop();\r\n                isShipper[_shipperAddress]=false;\r\n                break;\r\n            }\r\n        }\r\n    }\r\n\r\n    function modifyShipper(address _shipperAddress) external onlyOwner {\r\n        require(isShipper[ _shipperAddress], \"Shipper does not exist\");\r\n        \r\n        // Emit a message after the require statement\r\n        emit ModifShipper(\"Shipper can be modified\");\r\n        \r\n        // Further logic here if needed\r\n    }\r\n                        //*****************Citizen********************//\r\n    function createCitizen(address _citizen) external onlyOwner {\r\n        require(!isCitizen[_citizen], \"Citizen already exists\");\r\n        require(_citizen != owner, \"Cannot create citizen with owner's address\");\r\n\r\n        citizens.push(_citizen);\r\n        isCitizen[_citizen] = true;\r\n    }\r\n\r\n    function getCitizens() public view returns (address[] memory) {\r\n        return citizens;\r\n    }\r\n\r\n    function deleteCitizen(address _citizenAddress) external onlyOwner {\r\n        for (uint256 i = 0; i < citizens.length; i++) {\r\n            if (citizens[i] == _citizenAddress) {\r\n                citizens[i] = citizens[\r\n                    citizens.length - 1\r\n                ];\r\n                citizens.pop();\r\n                isCitizen[_citizenAddress]=false;\r\n                break;\r\n            }\r\n        }\r\n    }\r\n    function modifyCitizen(address _citizenAddress) external onlyOwner {\r\n        require(isCitizen[ _citizenAddress], \"Citizen does not exist\");\r\n        \r\n        // Emit a message after the require statement\r\n        emit ModifCitizen(\"Citizen can be modified\");\r\n        \r\n        // Further logic here if needed\r\n    }\r\n    function getIsBin(string memory _binId) external view returns (bool) {\r\n        require(isBin[_binId], \"Bin doesn't exist\");\r\n        return isBin[_binId];\r\n    }\r\n\r\n    function getIsCitizen(address _citizenId) external view returns (bool) {\r\n        require(isCitizen[_citizenId], \"Citizen doesn't exist\");\r\n        return isCitizen[_citizenId];\r\n    }\r\n\r\n    function getIsWaste(string memory _wasteId) external view returns (bool) {\r\n        require(isWaste[_wasteId], \"Watse doesn't exist\");\r\n        return isWaste[_wasteId];\r\n    }\r\n function CheckWaste(string memory _wasteId) external view returns (bool) {\r\n        require(!isWaste[_wasteId], \"Watse exist\");\r\n        return !isWaste[_wasteId];\r\n    }\r\n\r\n\r\n    function setWaste(string memory _wasteId) external  {\r\n        require(!isWaste[_wasteId], \"Watse exist\");\r\n         isWaste[_wasteId]=true;\r\n    }\r\n     function setWasteCount(uint256 _count) external {\r\n        wasteCount = _count;\r\n    }\r\n    function getWasteCount() external view returns (uint256) {\r\n        return wasteCount;\r\n    }\r\n    function setWastes(string memory _wasteId,Waste memory waste) external{\r\n        wastes[_wasteId]=waste;\r\n\r\n   }\r\n}",
  "sourcePath": "C:\\Users\\MSI\\Desktop\\PFA_GUI - Copie\\truffle\\contracts\\WasteManagement.sol",
  "compiler": {
    "name": "solc",
    "version": "0.8.19+commit.7dd6d404.Emscripten.clang"
  },
  "schemaVersion": "3.4.16",
  "updatedAt": "2024-03-01T15:21:21.801Z",
  "networkType": "ethereum",
  "devdoc": {
    "kind": "dev",
    "methods": {},
    "version": 1
  },
  "userdoc": {
    "kind": "user",
    "methods": {},
    "version": 1
  }
}