{
  "contractName": "WasteManagement",
  "abi": [
    {
      "inputs": [],
      "stateMutability": "nonpayable",
      "type": "constructor"
    },
    {
      "inputs": [
        {
          "internalType": "address",
          "name": "spender",
          "type": "address"
        },
        {
          "internalType": "uint256",
          "name": "allowance",
          "type": "uint256"
        },
        {
          "internalType": "uint256",
          "name": "needed",
          "type": "uint256"
        }
      ],
      "name": "ERC20InsufficientAllowance",
      "type": "error"
    },
    {
      "inputs": [
        {
          "internalType": "address",
          "name": "sender",
          "type": "address"
        },
        {
          "internalType": "uint256",
          "name": "balance",
          "type": "uint256"
        },
        {
          "internalType": "uint256",
          "name": "needed",
          "type": "uint256"
        }
      ],
      "name": "ERC20InsufficientBalance",
      "type": "error"
    },
    {
      "inputs": [
        {
          "internalType": "address",
          "name": "approver",
          "type": "address"
        }
      ],
      "name": "ERC20InvalidApprover",
      "type": "error"
    },
    {
      "inputs": [
        {
          "internalType": "address",
          "name": "receiver",
          "type": "address"
        }
      ],
      "name": "ERC20InvalidReceiver",
      "type": "error"
    },
    {
      "inputs": [
        {
          "internalType": "address",
          "name": "sender",
          "type": "address"
        }
      ],
      "name": "ERC20InvalidSender",
      "type": "error"
    },
    {
      "inputs": [
        {
          "internalType": "address",
          "name": "spender",
          "type": "address"
        }
      ],
      "name": "ERC20InvalidSpender",
      "type": "error"
    },
    {
      "inputs": [
        {
          "internalType": "address",
          "name": "owner",
          "type": "address"
        }
      ],
      "name": "OwnableInvalidOwner",
      "type": "error"
    },
    {
      "inputs": [
        {
          "internalType": "address",
          "name": "account",
          "type": "address"
        }
      ],
      "name": "OwnableUnauthorizedAccount",
      "type": "error"
    },
    {
      "anonymous": false,
      "inputs": [
        {
          "indexed": true,
          "internalType": "address",
          "name": "owner",
          "type": "address"
        },
        {
          "indexed": true,
          "internalType": "address",
          "name": "spender",
          "type": "address"
        },
        {
          "indexed": false,
          "internalType": "uint256",
          "name": "value",
          "type": "uint256"
        }
      ],
      "name": "Approval",
      "type": "event"
    },
    {
      "anonymous": false,
      "inputs": [
        {
          "indexed": false,
          "internalType": "string",
          "name": "id",
          "type": "string"
        }
      ],
      "name": "BinCreated",
      "type": "event"
    },
    {
      "anonymous": false,
      "inputs": [
        {
          "indexed": false,
          "internalType": "string",
          "name": "id",
          "type": "string"
        }
      ],
      "name": "CollectionCreated",
      "type": "event"
    },
    {
      "anonymous": false,
      "inputs": [
        {
          "indexed": false,
          "internalType": "string",
          "name": "message",
          "type": "string"
        }
      ],
      "name": "ModifCitizen",
      "type": "event"
    },
    {
      "anonymous": false,
      "inputs": [
        {
          "indexed": false,
          "internalType": "string",
          "name": "message",
          "type": "string"
        }
      ],
      "name": "ModifShipper",
      "type": "event"
    },
    {
      "anonymous": false,
      "inputs": [
        {
          "indexed": true,
          "internalType": "address",
          "name": "previousOwner",
          "type": "address"
        },
        {
          "indexed": true,
          "internalType": "address",
          "name": "newOwner",
          "type": "address"
        }
      ],
      "name": "OwnershipTransferred",
      "type": "event"
    },
    {
      "anonymous": false,
      "inputs": [
        {
          "indexed": true,
          "internalType": "address",
          "name": "from",
          "type": "address"
        },
        {
          "indexed": true,
          "internalType": "address",
          "name": "to",
          "type": "address"
        },
        {
          "indexed": false,
          "internalType": "uint256",
          "name": "value",
          "type": "uint256"
        }
      ],
      "name": "Transfer",
      "type": "event"
    },
    {
      "inputs": [
        {
          "internalType": "address",
          "name": "owner",
          "type": "address"
        },
        {
          "internalType": "address",
          "name": "spender",
          "type": "address"
        }
      ],
      "name": "allowance",
      "outputs": [
        {
          "internalType": "uint256",
          "name": "",
          "type": "uint256"
        }
      ],
      "stateMutability": "view",
      "type": "function",
      "constant": true
    },
    {
      "inputs": [
        {
          "internalType": "address",
          "name": "spender",
          "type": "address"
        },
        {
          "internalType": "uint256",
          "name": "value",
          "type": "uint256"
        }
      ],
      "name": "approve",
      "outputs": [
        {
          "internalType": "bool",
          "name": "",
          "type": "bool"
        }
      ],
      "stateMutability": "nonpayable",
      "type": "function"
    },
    {
      "inputs": [
        {
          "internalType": "address",
          "name": "account",
          "type": "address"
        }
      ],
      "name": "balanceOf",
      "outputs": [
        {
          "internalType": "uint256",
          "name": "",
          "type": "uint256"
        }
      ],
      "stateMutability": "view",
      "type": "function",
      "constant": true
    },
    {
      "inputs": [],
      "name": "binCount",
      "outputs": [
        {
          "internalType": "uint256",
          "name": "",
          "type": "uint256"
        }
      ],
      "stateMutability": "view",
      "type": "function",
      "constant": true
    },
    {
      "inputs": [
        {
          "internalType": "string",
          "name": "",
          "type": "string"
        }
      ],
      "name": "bins",
      "outputs": [
        {
          "internalType": "string",
          "name": "id",
          "type": "string"
        },
        {
          "internalType": "string",
          "name": "location",
          "type": "string"
        },
        {
          "internalType": "uint256",
          "name": "capacity",
          "type": "uint256"
        },
        {
          "internalType": "uint256",
          "name": "currentWeight",
          "type": "uint256"
        }
      ],
      "stateMutability": "view",
      "type": "function",
      "constant": true
    },
    {
      "inputs": [
        {
          "internalType": "address",
          "name": "",
          "type": "address"
        }
      ],
      "name": "citizenRewards",
      "outputs": [
        {
          "internalType": "uint256",
          "name": "",
          "type": "uint256"
        }
      ],
      "stateMutability": "view",
      "type": "function",
      "constant": true
    },
    {
      "inputs": [],
      "name": "collectionCount",
      "outputs": [
        {
          "internalType": "uint256",
          "name": "",
          "type": "uint256"
        }
      ],
      "stateMutability": "view",
      "type": "function",
      "constant": true
    },
    {
      "inputs": [
        {
          "internalType": "string",
          "name": "",
          "type": "string"
        }
      ],
      "name": "collections",
      "outputs": [
        {
          "internalType": "string",
          "name": "idCollection",
          "type": "string"
        },
        {
          "internalType": "address",
          "name": "shipperNotified",
          "type": "address"
        },
        {
          "internalType": "string",
          "name": "binNotif",
          "type": "string"
        },
        {
          "internalType": "bool",
          "name": "done",
          "type": "bool"
        },
        {
          "internalType": "string",
          "name": "date",
          "type": "string"
        },
        {
          "internalType": "string",
          "name": "status",
          "type": "string"
        }
      ],
      "stateMutability": "view",
      "type": "function",
      "constant": true
    },
    {
      "inputs": [],
      "name": "decimals",
      "outputs": [
        {
          "internalType": "uint8",
          "name": "",
          "type": "uint8"
        }
      ],
      "stateMutability": "view",
      "type": "function",
      "constant": true
    },
    {
      "inputs": [],
      "name": "maxSupply",
      "outputs": [
        {
          "internalType": "uint256",
          "name": "",
          "type": "uint256"
        }
      ],
      "stateMutability": "view",
      "type": "function",
      "constant": true
    },
    {
      "inputs": [],
      "name": "name",
      "outputs": [
        {
          "internalType": "string",
          "name": "",
          "type": "string"
        }
      ],
      "stateMutability": "view",
      "type": "function",
      "constant": true
    },
    {
      "inputs": [],
      "name": "owner",
      "outputs": [
        {
          "internalType": "address",
          "name": "",
          "type": "address"
        }
      ],
      "stateMutability": "view",
      "type": "function",
      "constant": true
    },
    {
      "inputs": [],
      "name": "renounceOwnership",
      "outputs": [],
      "stateMutability": "nonpayable",
      "type": "function"
    },
    {
      "inputs": [],
      "name": "symbol",
      "outputs": [
        {
          "internalType": "string",
          "name": "",
          "type": "string"
        }
      ],
      "stateMutability": "view",
      "type": "function",
      "constant": true
    },
    {
      "inputs": [],
      "name": "totalSupply",
      "outputs": [
        {
          "internalType": "uint256",
          "name": "",
          "type": "uint256"
        }
      ],
      "stateMutability": "view",
      "type": "function",
      "constant": true
    },
    {
      "inputs": [
        {
          "internalType": "address",
          "name": "to",
          "type": "address"
        },
        {
          "internalType": "uint256",
          "name": "value",
          "type": "uint256"
        }
      ],
      "name": "transfer",
      "outputs": [
        {
          "internalType": "bool",
          "name": "",
          "type": "bool"
        }
      ],
      "stateMutability": "nonpayable",
      "type": "function"
    },
    {
      "inputs": [
        {
          "internalType": "address",
          "name": "from",
          "type": "address"
        },
        {
          "internalType": "address",
          "name": "to",
          "type": "address"
        },
        {
          "internalType": "uint256",
          "name": "value",
          "type": "uint256"
        }
      ],
      "name": "transferFrom",
      "outputs": [
        {
          "internalType": "bool",
          "name": "",
          "type": "bool"
        }
      ],
      "stateMutability": "nonpayable",
      "type": "function"
    },
    {
      "inputs": [
        {
          "internalType": "address",
          "name": "newOwner",
          "type": "address"
        }
      ],
      "name": "transferOwnership",
      "outputs": [],
      "stateMutability": "nonpayable",
      "type": "function"
    },
    {
      "inputs": [],
      "name": "wasteCount",
      "outputs": [
        {
          "internalType": "uint256",
          "name": "",
          "type": "uint256"
        }
      ],
      "stateMutability": "view",
      "type": "function",
      "constant": true
    },
    {
      "inputs": [
        {
          "internalType": "uint256",
          "name": "",
          "type": "uint256"
        }
      ],
      "name": "wasteIds",
      "outputs": [
        {
          "internalType": "string",
          "name": "",
          "type": "string"
        }
      ],
      "stateMutability": "view",
      "type": "function",
      "constant": true
    },
    {
      "inputs": [
        {
          "internalType": "string",
          "name": "",
          "type": "string"
        }
      ],
      "name": "wastes",
      "outputs": [
        {
          "internalType": "string",
          "name": "id",
          "type": "string"
        },
        {
          "internalType": "string",
          "name": "status",
          "type": "string"
        },
        {
          "internalType": "uint256",
          "name": "weight",
          "type": "uint256"
        },
        {
          "internalType": "address",
          "name": "citizenId",
          "type": "address"
        },
        {
          "internalType": "address",
          "name": "shipperId",
          "type": "address"
        },
        {
          "internalType": "address",
          "name": "recyclerId",
          "type": "address"
        },
        {
          "internalType": "string",
          "name": "binId",
          "type": "string"
        },
        {
          "internalType": "string",
          "name": "dateCollection",
          "type": "string"
        }
      ],
      "stateMutability": "view",
      "type": "function",
      "constant": true
    },
    {
      "inputs": [
        {
          "internalType": "address",
          "name": "to",
          "type": "address"
        },
        {
          "internalType": "uint256",
          "name": "amount",
          "type": "uint256"
        }
      ],
      "name": "mint",
      "outputs": [],
      "stateMutability": "nonpayable",
      "type": "function"
    },
    {
      "inputs": [
        {
          "internalType": "string",
          "name": "_location",
          "type": "string"
        },
        {
          "internalType": "uint256",
          "name": "_capacity",
          "type": "uint256"
        },
        {
          "internalType": "uint256",
          "name": "_currentWeight",
          "type": "uint256"
        }
      ],
      "name": "createBin",
      "outputs": [
        {
          "internalType": "string",
          "name": "",
          "type": "string"
        }
      ],
      "stateMutability": "nonpayable",
      "type": "function"
    },
    {
      "inputs": [
        {
          "internalType": "string",
          "name": "_id",
          "type": "string"
        },
        {
          "internalType": "string",
          "name": "_location",
          "type": "string"
        },
        {
          "internalType": "uint256",
          "name": "_capacity",
          "type": "uint256"
        },
        {
          "internalType": "uint256",
          "name": "_currentWeight",
          "type": "uint256"
        }
      ],
      "name": "modifyBin",
      "outputs": [],
      "stateMutability": "nonpayable",
      "type": "function"
    },
    {
      "inputs": [
        {
          "internalType": "string",
          "name": "_id",
          "type": "string"
        }
      ],
      "name": "deleteBin",
      "outputs": [],
      "stateMutability": "nonpayable",
      "type": "function"
    },
    {
      "inputs": [],
      "name": "getBins",
      "outputs": [
        {
          "internalType": "string[]",
          "name": "",
          "type": "string[]"
        },
        {
          "internalType": "string[]",
          "name": "",
          "type": "string[]"
        },
        {
          "internalType": "uint256[]",
          "name": "",
          "type": "uint256[]"
        },
        {
          "internalType": "uint256[]",
          "name": "",
          "type": "uint256[]"
        }
      ],
      "stateMutability": "view",
      "type": "function",
      "constant": true
    },
    {
      "inputs": [
        {
          "internalType": "address",
          "name": "_shipper",
          "type": "address"
        }
      ],
      "name": "createShipper",
      "outputs": [],
      "stateMutability": "nonpayable",
      "type": "function"
    },
    {
      "inputs": [
        {
          "internalType": "uint256",
          "name": "_weight",
          "type": "uint256"
        },
        {
          "internalType": "address",
          "name": "_citizenId",
          "type": "address"
        },
        {
          "internalType": "string",
          "name": "_binId",
          "type": "string"
        }
      ],
      "name": "createWaste",
      "outputs": [],
      "stateMutability": "nonpayable",
      "type": "function"
    },
    {
      "inputs": [
        {
          "internalType": "address",
          "name": "_shipper",
          "type": "address"
        },
        {
          "internalType": "string",
          "name": "_idBin",
          "type": "string"
        },
        {
          "internalType": "string",
          "name": "_date",
          "type": "string"
        }
      ],
      "name": "createCollection",
      "outputs": [
        {
          "internalType": "string",
          "name": "",
          "type": "string"
        }
      ],
      "stateMutability": "nonpayable",
      "type": "function"
    },
    {
      "inputs": [
        {
          "internalType": "string",
          "name": "_idCollection",
          "type": "string"
        },
        {
          "internalType": "address",
          "name": "_shipperId",
          "type": "address"
        },
        {
          "internalType": "string",
          "name": "_date",
          "type": "string"
        }
      ],
      "name": "shipCollection",
      "outputs": [],
      "stateMutability": "nonpayable",
      "type": "function"
    },
    {
      "inputs": [
        {
          "internalType": "address",
          "name": "_shipperAddress",
          "type": "address"
        }
      ],
      "name": "modifyShipper",
      "outputs": [],
      "stateMutability": "nonpayable",
      "type": "function"
    },
    {
      "inputs": [
        {
          "internalType": "string",
          "name": "_idCollection",
          "type": "string"
        },
        {
          "internalType": "string",
          "name": "_date",
          "type": "string"
        }
      ],
      "name": "recycleCollection",
      "outputs": [],
      "stateMutability": "nonpayable",
      "type": "function"
    },
    {
      "inputs": [
        {
          "internalType": "address",
          "name": "_citizen",
          "type": "address"
        }
      ],
      "name": "createCitizen",
      "outputs": [],
      "stateMutability": "nonpayable",
      "type": "function"
    },
    {
      "inputs": [
        {
          "internalType": "address",
          "name": "_citizenAddress",
          "type": "address"
        }
      ],
      "name": "deleteCitizen",
      "outputs": [],
      "stateMutability": "nonpayable",
      "type": "function"
    },
    {
      "inputs": [
        {
          "internalType": "address",
          "name": "_citizenAddress",
          "type": "address"
        }
      ],
      "name": "modifyCitizen",
      "outputs": [],
      "stateMutability": "nonpayable",
      "type": "function"
    }
  ],
  "bytecode": "0x6080604052734494f3bb19f95bb33ec116887b9dbd728c008f9b601060006101000a81548173ffffffffffffffffffffffffffffffffffffffff021916908373ffffffffffffffffffffffffffffffffffffffff16021790555060006018553480156200006b57600080fd5b50336040518060400160405280601281526020017f477265656e4561726e205472616e7366657200000000000000000000000000008152506040518060400160405280600381526020017f47524e00000000000000000000000000000000000000000000000000000000008152508160039081620000ea91906200091c565b508060049081620000fc91906200091c565b505050600073ffffffffffffffffffffffffffffffffffffffff168173ffffffffffffffffffffffffffffffffffffffff1603620001745760006040517f1e4fbdf70000000000000000000000000000000000000000000000000000000081526004016200016b919062000a48565b60405180910390fd5b6200018581620001b760201b60201c565b50683635c9adc5dea00000601a81905550620001b133683635c9adc5dea000006200027d60201b60201c565b62000bbd565b6000600560009054906101000a900473ffffffffffffffffffffffffffffffffffffffff16905081600560006101000a81548173ffffffffffffffffffffffffffffffffffffffff021916908373ffffffffffffffffffffffffffffffffffffffff1602179055508173ffffffffffffffffffffffffffffffffffffffff168173ffffffffffffffffffffffffffffffffffffffff167f8be0079c531659141344cd1fd0a4f28419497f9722a3daafe3b4186f6b6457e060405160405180910390a35050565b6200028d6200030760201b60201c565b601a5481620002a1620003a960201b60201c565b620002ad919062000a94565b1115620002f1576040517f08c379a0000000000000000000000000000000000000000000000000000000008152600401620002e89062000b30565b60405180910390fd5b620003038282620003b360201b60201c565b5050565b620003176200044060201b60201c565b73ffffffffffffffffffffffffffffffffffffffff166200033d6200044860201b60201c565b73ffffffffffffffffffffffffffffffffffffffff1614620003a757620003696200044060201b60201c565b6040517f118cdaa70000000000000000000000000000000000000000000000000000000081526004016200039e919062000a48565b60405180910390fd5b565b6000600254905090565b600073ffffffffffffffffffffffffffffffffffffffff168273ffffffffffffffffffffffffffffffffffffffff1603620004285760006040517fec442f050000000000000000000000000000000000000000000000000000000081526004016200041f919062000a48565b60405180910390fd5b6200043c600083836200047260201b60201c565b5050565b600033905090565b6000600560009054906101000a900473ffffffffffffffffffffffffffffffffffffffff16905090565b600073ffffffffffffffffffffffffffffffffffffffff168373ffffffffffffffffffffffffffffffffffffffff1603620004c8578060026000828254620004bb919062000a94565b925050819055506200059e565b60008060008573ffffffffffffffffffffffffffffffffffffffff1673ffffffffffffffffffffffffffffffffffffffff1681526020019081526020016000205490508181101562000557578381836040517fe450d38c0000000000000000000000000000000000000000000000000000000081526004016200054e9392919062000b63565b60405180910390fd5b8181036000808673ffffffffffffffffffffffffffffffffffffffff1673ffffffffffffffffffffffffffffffffffffffff16815260200190815260200160002081905550505b600073ffffffffffffffffffffffffffffffffffffffff168273ffffffffffffffffffffffffffffffffffffffff1603620005e9578060026000828254039250508190555062000636565b806000808473ffffffffffffffffffffffffffffffffffffffff1673ffffffffffffffffffffffffffffffffffffffff168152602001908152602001600020600082825401925050819055505b8173ffffffffffffffffffffffffffffffffffffffff168373ffffffffffffffffffffffffffffffffffffffff167fddf252ad1be2c89b69c2b068fc378daa952ba7f163c4a11628f55a4df523b3ef8360405162000695919062000ba0565b60405180910390a3505050565b600081519050919050565b7f4e487b7100000000000000000000000000000000000000000000000000000000600052604160045260246000fd5b7f4e487b7100000000000000000000000000000000000000000000000000000000600052602260045260246000fd5b600060028204905060018216806200072457607f821691505b6020821081036200073a5762000739620006dc565b5b50919050565b60008190508160005260206000209050919050565b60006020601f8301049050919050565b600082821b905092915050565b600060088302620007a47fffffffffffffffffffffffffffffffffffffffffffffffffffffffffffffffff8262000765565b620007b0868362000765565b95508019841693508086168417925050509392505050565b6000819050919050565b6000819050919050565b6000620007fd620007f7620007f184620007c8565b620007d2565b620007c8565b9050919050565b6000819050919050565b6200081983620007dc565b62000831620008288262000804565b84845462000772565b825550505050565b600090565b6200084862000839565b620008558184846200080e565b505050565b5b818110156200087d57620008716000826200083e565b6001810190506200085b565b5050565b601f821115620008cc57620008968162000740565b620008a18462000755565b81016020851015620008b1578190505b620008c9620008c08562000755565b8301826200085a565b50505b505050565b600082821c905092915050565b6000620008f160001984600802620008d1565b1980831691505092915050565b60006200090c8383620008de565b9150826002028217905092915050565b6200092782620006a2565b67ffffffffffffffff811115620009435762000942620006ad565b5b6200094f82546200070b565b6200095c82828562000881565b600060209050601f8311600181146200099457600084156200097f578287015190505b6200098b8582620008fe565b865550620009fb565b601f198416620009a48662000740565b60005b82811015620009ce57848901518255600182019150602085019450602081019050620009a7565b86831015620009ee5784890151620009ea601f891682620008de565b8355505b6001600288020188555050505b505050505050565b600073ffffffffffffffffffffffffffffffffffffffff82169050919050565b600062000a308262000a03565b9050919050565b62000a428162000a23565b82525050565b600060208201905062000a5f600083018462000a37565b92915050565b7f4e487b7100000000000000000000000000000000000000000000000000000000600052601160045260246000fd5b600062000aa182620007c8565b915062000aae83620007c8565b925082820190508082111562000ac95762000ac862000a65565b5b92915050565b600082825260208201905092915050565b7f4d617820537570706c7920457863656564656400000000000000000000000000600082015250565b600062000b1860138362000acf565b915062000b258262000ae0565b602082019050919050565b6000602082019050818103600083015262000b4b8162000b09565b9050919050565b62000b5d81620007c8565b82525050565b600060608201905062000b7a600083018662000a37565b62000b89602083018562000b52565b62000b98604083018462000b52565b949350505050565b600060208201905062000bb7600083018462000b52565b92915050565b615b4c8062000bcd6000396000f3fe608060405234801561001057600080fd5b50600436106102115760003560e01c8063715018a611610125578063c9b5ac5b116100ad578063d59728021161007c578063d597280214610633578063d5abeb0114610663578063dd62ed3e14610681578063e042a402146106b1578063f2fde38b146106d257610211565b8063c9b5ac5b146105bf578063cc3b2e88146105db578063ce4717df146105f9578063d57f966b1461061557610211565b80638da5cb5b116100f45780638da5cb5b1461051b57806395d89b4114610539578063963464f114610557578063a9059cbb14610573578063aef16e76146105a357610211565b8063715018a6146104a9578063715624c9146104b357806381d06633146104cf5780638d68d807146104ff57610211565b806335a9c596116101a85780634a19d56d116101775780634a19d56d146103c157806351793e06146103f8578063537a828f1461041457806366e54d7b1461044457806370a082311461047957610211565b806335a9c5961461033d5780633c1bc3b91461036d5780633e8176dc1461038957806340c10f19146103a557610211565b806318160ddd116101e457806318160ddd146102b5578063236b831c146102d357806323b872dd146102ef578063313ce5671461031f57610211565b806306fdde0314610216578063095ea7b31461023457806313a172f3146102645780631620739314610297575b600080fd5b61021e6106ee565b60405161022b9190613e6f565b60405180910390f35b61024e60048036038101906102499190613f39565b610780565b60405161025b9190613f94565b60405180910390f35b61027e600480360381019061027991906140e4565b6107a3565b60405161028e949392919061413c565b60405180910390f35b61029f6108f9565b6040516102ac919061418f565b60405180910390f35b6102bd6108ff565b6040516102ca919061418f565b60405180910390f35b6102ed60048036038101906102e891906141aa565b610909565b005b610309600480360381019061030491906141d7565b6109d5565b6040516103169190613f94565b60405180910390f35b610327610a04565b6040516103349190614246565b60405180910390f35b61035760048036038101906103529190614261565b610a0d565b6040516103649190613e6f565b60405180910390f35b610387600480360381019061038291906141aa565b611157565b005b6103a3600480360381019061039e91906142ec565b6112aa565b005b6103bf60048036038101906103ba9190613f39565b6116df565b005b6103db60048036038101906103d691906140e4565b61174c565b6040516103ef989796959493929190614386565b60405180910390f35b610412600480360381019061040d9190614420565b611a2a565b005b61042e6004803603810190610429919061448f565b611ecc565b60405161043b9190613e6f565b60405180910390f35b61045e600480360381019061045991906140e4565b611f78565b604051610470969594939291906144bc565b60405180910390f35b610493600480360381019061048e91906141aa565b612217565b6040516104a0919061418f565b60405180910390f35b6104b161225f565b005b6104cd60048036038101906104c89190614539565b612273565b005b6104e960048036038101906104e491906145b1565b612582565b6040516104f69190613e6f565b60405180910390f35b610519600480360381019061051491906141aa565b61274c565b005b61052361293c565b6040516105309190614620565b60405180910390f35b610541612966565b60405161054e9190613e6f565b60405180910390f35b610571600480360381019061056c91906141aa565b6129f8565b005b61058d60048036038101906105889190613f39565b612b4b565b60405161059a9190613f94565b60405180910390f35b6105bd60048036038101906105b8919061463b565b612b6e565b005b6105d960048036038101906105d491906141aa565b612c69565b005b6105e3612d35565b6040516105f0919061418f565b60405180910390f35b610613600480360381019061060e91906140e4565b612d3b565b005b61061d612fa9565b60405161062a919061418f565b60405180910390f35b61064d600480360381019061064891906141aa565b612faf565b60405161065a919061418f565b60405180910390f35b61066b612fc7565b604051610678919061418f565b60405180910390f35b61069b600480360381019061069691906146da565b612fcd565b6040516106a8919061418f565b60405180910390f35b6106b9613054565b6040516106c994939291906148e4565b60405180910390f35b6106ec60048036038101906106e791906141aa565b6133e8565b005b6060600380546106fd90614974565b80601f016020809104026020016040519081016040528092919081815260200182805461072990614974565b80156107765780601f1061074b57610100808354040283529160200191610776565b820191906000526020600020905b81548152906001019060200180831161075957829003601f168201915b5050505050905090565b60008061078b61346e565b9050610798818585613476565b600191505092915050565b6009818051602081018201805184825260208301602085012081835280955050505050506000915090508060000180546107dc90614974565b80601f016020809104026020016040519081016040528092919081815260200182805461080890614974565b80156108555780601f1061082a57610100808354040283529160200191610855565b820191906000526020600020905b81548152906001019060200180831161083857829003601f168201915b50505050509080600101805461086a90614974565b80601f016020809104026020016040519081016040528092919081815260200182805461089690614974565b80156108e35780601f106108b8576101008083540402835291602001916108e3565b820191906000526020600020905b8154815290600101906020018083116108c657829003601f168201915b5050505050908060020154908060030154905084565b60065481565b6000600254905090565b610911613488565b601560008273ffffffffffffffffffffffffffffffffffffffff1673ffffffffffffffffffffffffffffffffffffffff16815260200190815260200160002060009054906101000a900460ff1661099d576040517f08c379a0000000000000000000000000000000000000000000000000000000008152600401610994906149f1565b60405180910390fd5b7fb93a331b14aae9427dff15bad12885145072068d20db5bc47066d700abfe7dea6040516109ca90614a5d565b60405180910390a150565b6000806109e061346e565b90506109ed85828561350f565b6109f88585856135a3565b60019150509392505050565b60006012905090565b6060610a17613488565b601660008573ffffffffffffffffffffffffffffffffffffffff1673ffffffffffffffffffffffffffffffffffffffff16815260200190815260200160002060009054906101000a900460ff16610aa3576040517f08c379a0000000000000000000000000000000000000000000000000000000008152600401610a9a90614ac9565b60405180910390fd5b601283604051610ab39190614b25565b908152602001604051809103902060009054906101000a900460ff16610b0e576040517f08c379a0000000000000000000000000000000000000000000000000000000008152600401610b0590614b88565b60405180910390fd5b60005b600c80549050811015610bfd576000600a600c8381548110610b3657610b35614ba8565b5b90600052602060002001604051610b4d9190614c6f565b90815260200160405180910390209050848051906020012081600201604051610b769190614d29565b6040518091039020148015610ba95750838051906020012081600401604051610b9f9190614d29565b6040518091039020145b15610be9576040517f08c379a0000000000000000000000000000000000000000000000000000000008152600401610be090614db2565b60405180910390fd5b508080610bf590614e01565b915050610b11565b506000610c08613697565b9050601381604051610c1a9190614b25565b908152602001604051809103902060009054906101000a900460ff1615610c76576040517f08c379a0000000000000000000000000000000000000000000000000000000008152600401610c6d90614ebb565b60405180910390fd5b60005b600d80549050811015610db5576000600e600d8381548110610c9e57610c9d614ba8565b5b90600052602060002001604051610cb59190614c6f565b90815260200160405180910390209050858051906020012081600601604051610cde9190614d29565b6040518091039020148015610d4657506040518060400160405280600781526020017f57616974696e67000000000000000000000000000000000000000000000000008152508051906020012081600101604051610d3c9190614d29565b6040518091039020145b15610da15784816007019081610d5c9190615072565b50868160040160006101000a81548173ffffffffffffffffffffffffffffffffffffffff021916908373ffffffffffffffffffffffffffffffffffffffff1602179055505b508080610dad90614e01565b915050610c79565b506040518060c001604052808281526020018673ffffffffffffffffffffffffffffffffffffffff1681526020018581526020016000151581526020018481526020016040518060400160405280600781526020017f57616974696e6700000000000000000000000000000000000000000000000000815250815250600a82604051610e419190614b25565b90815260200160405180910390206000820151816000019081610e649190615072565b5060208201518160010160006101000a81548173ffffffffffffffffffffffffffffffffffffffff021916908373ffffffffffffffffffffffffffffffffffffffff1602179055506040820151816002019081610ec19190615072565b5060608201518160030160006101000a81548160ff0219169083151502179055506080820151816004019081610ef79190615072565b5060a0820151816005019081610f0d9190615072565b50905050600c81908060018154018082558091505060019003906000526020600020016000909190919091509081610f459190615072565b5060086000815480929190610f5990614e01565b91905055506001601382604051610f709190614b25565b908152602001604051809103902060006101000a81548160ff021916908315150217905550601960008673ffffffffffffffffffffffffffffffffffffffff1673ffffffffffffffffffffffffffffffffffffffff16815260200190815260200160002083604051610fe29190614b25565b908152602001604051809103902060020160009054906101000a900460ff166111155760405180606001604052808673ffffffffffffffffffffffffffffffffffffffff16815260200185815260200160001515815250601960008773ffffffffffffffffffffffffffffffffffffffff1673ffffffffffffffffffffffffffffffffffffffff168152602001908152602001600020846040516110869190614b25565b908152602001604051809103902060008201518160000160006101000a81548173ffffffffffffffffffffffffffffffffffffffff021916908373ffffffffffffffffffffffffffffffffffffffff16021790555060208201518160010190816110f09190615072565b5060408201518160020160006101000a81548160ff0219169083151502179055509050505b7ff2e193f96c77b8eebe5989f9851e54078a47d1e2d8e3ca74dca8a4aeb249aebf816040516111449190613e6f565b60405180910390a1809150509392505050565b61115f613488565b601560008273ffffffffffffffffffffffffffffffffffffffff1673ffffffffffffffffffffffffffffffffffffffff16815260200190815260200160002060009054906101000a900460ff16156111ec576040517f08c379a00000000000000000000000000000000000000000000000000000000081526004016111e390615190565b60405180910390fd5b600f819080600181540180825580915050600190039060005260206000200160009091909190916101000a81548173ffffffffffffffffffffffffffffffffffffffff021916908373ffffffffffffffffffffffffffffffffffffffff1602179055506001601560008373ffffffffffffffffffffffffffffffffffffffff1673ffffffffffffffffffffffffffffffffffffffff16815260200190815260200160002060006101000a81548160ff02191690831515021790555050565b6112b2613488565b6013836040516112c29190614b25565b908152602001604051809103902060009054906101000a900460ff1661131d576040517f08c379a0000000000000000000000000000000000000000000000000000000008152600401611314906151fc565b60405180910390fd5b8173ffffffffffffffffffffffffffffffffffffffff16600a846040516113449190614b25565b908152602001604051809103902060010160009054906101000a900473ffffffffffffffffffffffffffffffffffffffff1673ffffffffffffffffffffffffffffffffffffffff16146113cc576040517f08c379a00000000000000000000000000000000000000000000000000000000081526004016113c39061528e565b60405180910390fd5b6000600a846040516113de9190614b25565b9081526020016040518091039020600401905060005b600d805490508110156115ce576000600e600d838154811061141957611418614ba8565b5b906000526020600020016040516114309190614c6f565b90815260200160405180910390209050600a866040516114509190614b25565b908152602001604051809103902060020160405161146e9190614d29565b6040518091039020816006016040516114879190614d29565b60405180910390201480156114eb57508473ffffffffffffffffffffffffffffffffffffffff168160040160009054906101000a900473ffffffffffffffffffffffffffffffffffffffff1673ffffffffffffffffffffffffffffffffffffffff16145b80156115435750600a866040516115029190614b25565b90815260200160405180910390206004016040516115209190614d29565b6040518091039020816007016040516115399190614d29565b6040518091039020145b156115ba57838160070190816115599190615072565b506040518060400160405280600781526020017f53686970706564000000000000000000000000000000000000000000000000008152508160010190816115a09190615072565b50601860008154809291906115b490614e01565b91905055505b5080806115c690614e01565b9150506113f4565b5081600a856040516115e09190614b25565b908152602001604051809103902060040190816115fd9190615072565b506040518060400160405280600781526020017f5368697070656400000000000000000000000000000000000000000000000000815250600a856040516116449190614b25565b908152602001604051809103902060050190816116619190615072565b506001601960008573ffffffffffffffffffffffffffffffffffffffff1673ffffffffffffffffffffffffffffffffffffffff168152602001908152602001600020826040516116b19190615346565b908152602001604051809103902060020160006101000a81548160ff02191690831515021790555050505050565b6116e7613488565b601a54816116f36108ff565b6116fd919061535d565b111561173e576040517f08c379a0000000000000000000000000000000000000000000000000000000008152600401611735906153dd565b60405180910390fd5b611748828261383e565b5050565b600e8180516020810182018051848252602083016020850120818352809550505050505060009150905080600001805461178590614974565b80601f01602080910402602001604051908101604052809291908181526020018280546117b190614974565b80156117fe5780601f106117d3576101008083540402835291602001916117fe565b820191906000526020600020905b8154815290600101906020018083116117e157829003601f168201915b50505050509080600101805461181390614974565b80601f016020809104026020016040519081016040528092919081815260200182805461183f90614974565b801561188c5780601f106118615761010080835404028352916020019161188c565b820191906000526020600020905b81548152906001019060200180831161186f57829003601f168201915b5050505050908060020154908060030160009054906101000a900473ffffffffffffffffffffffffffffffffffffffff16908060040160009054906101000a900473ffffffffffffffffffffffffffffffffffffffff16908060050160009054906101000a900473ffffffffffffffffffffffffffffffffffffffff169080600601805461191990614974565b80601f016020809104026020016040519081016040528092919081815260200182805461194590614974565b80156119925780601f1061196757610100808354040283529160200191611992565b820191906000526020600020905b81548152906001019060200180831161197557829003601f168201915b5050505050908060070180546119a790614974565b80601f01602080910402602001604051908101604052809291908181526020018280546119d390614974565b8015611a205780601f106119f557610100808354040283529160200191611a20565b820191906000526020600020905b815481529060010190602001808311611a0357829003601f168201915b5050505050905088565b6000611a34613697565b9050601282604051611a469190614b25565b908152602001604051809103902060009054906101000a900460ff16611aa1576040517f08c379a0000000000000000000000000000000000000000000000000000000008152600401611a9890614b88565b60405180910390fd5b601560008473ffffffffffffffffffffffffffffffffffffffff1673ffffffffffffffffffffffffffffffffffffffff16815260200190815260200160002060009054906101000a900460ff16611b2d576040517f08c379a0000000000000000000000000000000000000000000000000000000008152600401611b2490615449565b60405180910390fd5b601481604051611b3d9190614b25565b908152602001604051809103902060009054906101000a900460ff1615611b99576040517f08c379a0000000000000000000000000000000000000000000000000000000008152600401611b90906154b5565b60405180910390fd5b83600983604051611baa9190614b25565b908152602001604051809103902060030154600984604051611bcc9190614b25565b908152602001604051809103902060020154611be891906154d5565b11611c28576040517f08c379a0000000000000000000000000000000000000000000000000000000008152600401611c1f90615555565b60405180910390fd5b6040518061010001604052808281526020016040518060400160405280600781526020017f57616974696e670000000000000000000000000000000000000000000000000081525081526020018581526020018473ffffffffffffffffffffffffffffffffffffffff168152602001600073ffffffffffffffffffffffffffffffffffffffff168152602001600073ffffffffffffffffffffffffffffffffffffffff16815260200183815260200160405180602001604052806000815250815250600e82604051611cfa9190614b25565b90815260200160405180910390206000820151816000019081611d1d9190615072565b506020820151816001019081611d339190615072565b506040820151816002015560608201518160030160006101000a81548173ffffffffffffffffffffffffffffffffffffffff021916908373ffffffffffffffffffffffffffffffffffffffff16021790555060808201518160040160006101000a81548173ffffffffffffffffffffffffffffffffffffffff021916908373ffffffffffffffffffffffffffffffffffffffff16021790555060a08201518160050160006101000a81548173ffffffffffffffffffffffffffffffffffffffff021916908373ffffffffffffffffffffffffffffffffffffffff16021790555060c0820151816006019081611e289190615072565b5060e0820151816007019081611e3e9190615072565b50905050600d81908060018154018082558091505060019003906000526020600020016000909190919091509081611e769190615072565b506001601482604051611e899190614b25565b908152602001604051809103902060006101000a81548160ff02191690831515021790555060066000815480929190611ec190614e01565b919050555050505050565b600d8181548110611edc57600080fd5b906000526020600020016000915090508054611ef790614974565b80601f0160208091040260200160405190810160405280929190818152602001828054611f2390614974565b8015611f705780601f10611f4557610100808354040283529160200191611f70565b820191906000526020600020905b815481529060010190602001808311611f5357829003601f168201915b505050505081565b600a81805160208101820180518482526020830160208501208183528095505050505050600091509050806000018054611fb190614974565b80601f0160208091040260200160405190810160405280929190818152602001828054611fdd90614974565b801561202a5780601f10611fff5761010080835404028352916020019161202a565b820191906000526020600020905b81548152906001019060200180831161200d57829003601f168201915b5050505050908060010160009054906101000a900473ffffffffffffffffffffffffffffffffffffffff169080600201805461206590614974565b80601f016020809104026020016040519081016040528092919081815260200182805461209190614974565b80156120de5780601f106120b3576101008083540402835291602001916120de565b820191906000526020600020905b8154815290600101906020018083116120c157829003601f168201915b5050505050908060030160009054906101000a900460ff169080600401805461210690614974565b80601f016020809104026020016040519081016040528092919081815260200182805461213290614974565b801561217f5780601f106121545761010080835404028352916020019161217f565b820191906000526020600020905b81548152906001019060200180831161216257829003601f168201915b50505050509080600501805461219490614974565b80601f01602080910402602001604051908101604052809291908181526020018280546121c090614974565b801561220d5780601f106121e25761010080835404028352916020019161220d565b820191906000526020600020905b8154815290600101906020018083116121f057829003601f168201915b5050505050905086565b60008060008373ffffffffffffffffffffffffffffffffffffffff1673ffffffffffffffffffffffffffffffffffffffff168152602001908152602001600020549050919050565b612267613488565b61227160006138c0565b565b6013826040516122839190614b25565b908152602001604051809103902060009054906101000a900460ff166122de576040517f08c379a00000000000000000000000000000000000000000000000000000000081526004016122d5906151fc565b60405180910390fd5b60005b600d805490508110156124ea576000600e600d838154811061230657612305614ba8565b5b9060005260206000200160405161231d9190614c6f565b90815260200160405180910390209050600a8460405161233d9190614b25565b908152602001604051809103902060020160405161235b9190614d29565b6040518091039020816006016040516123749190614d29565b60405180910390201480156123d55750600a846040516123949190614b25565b90815260200160405180910390206004016040516123b29190614d29565b6040518091039020816007016040516123cb9190614d29565b6040518091039020145b156124d6576040518060400160405280600781526020017f536869707065640000000000000000000000000000000000000000000000000081525080519060200120816001016040516124289190614d29565b6040518091039020036124d557828160070190816124469190615072565b506040518060400160405280600781526020017f526563796c65640000000000000000000000000000000000000000000000000081525081600101908161248d9190615072565b5060006103e882600201546124a29190615575565b90506124d3338360030160009054906101000a900473ffffffffffffffffffffffffffffffffffffffff16836135a3565b505b5b5080806124e290614e01565b9150506122e1565b5080600a836040516124fc9190614b25565b908152602001604051809103902060040190816125199190615072565b506040518060400160405280600781526020017f526563796c656400000000000000000000000000000000000000000000000000815250600a836040516125609190614b25565b9081526020016040518091039020600501908161257d9190615072565b505050565b606061258c613488565b6000612596613697565b90506012816040516125a89190614b25565b908152602001604051809103902060009054906101000a900460ff1615612604576040517f08c379a00000000000000000000000000000000000000000000000000000000081526004016125fb90615603565b60405180910390fd5b6040518060800160405280828152602001868152602001858152602001848152506009826040516126359190614b25565b908152602001604051809103902060008201518160000190816126589190615072565b50602082015181600101908161266e9190615072565b506040820151816002015560608201518160030155905050600b819080600181540180825580915050600190039060005260206000200160009091909190915090816126ba9190615072565b50600760008154809291906126ce90614e01565b919050555060016012826040516126e59190614b25565b908152602001604051809103902060006101000a81548160ff0219169083151502179055507fd5413a7934f1aa973af7bc53f68df06953b49031401619e5997d54afb849377e816040516127399190613e6f565b60405180910390a1809150509392505050565b612754613488565b60005b600f80549050811015612938578173ffffffffffffffffffffffffffffffffffffffff16600f828154811061278f5761278e614ba8565b5b9060005260206000200160009054906101000a900473ffffffffffffffffffffffffffffffffffffffff1673ffffffffffffffffffffffffffffffffffffffff160361292557600f6001600f805490506127e991906154d5565b815481106127fa576127f9614ba8565b5b9060005260206000200160009054906101000a900473ffffffffffffffffffffffffffffffffffffffff16600f828154811061283957612838614ba8565b5b9060005260206000200160006101000a81548173ffffffffffffffffffffffffffffffffffffffff021916908373ffffffffffffffffffffffffffffffffffffffff160217905550600f80548061289357612892615623565b5b6001900381819060005260206000200160006101000a81549073ffffffffffffffffffffffffffffffffffffffff021916905590556000601560008473ffffffffffffffffffffffffffffffffffffffff1673ffffffffffffffffffffffffffffffffffffffff16815260200190815260200160002060006101000a81548160ff021916908315150217905550612938565b808061293090614e01565b915050612757565b5050565b6000600560009054906101000a900473ffffffffffffffffffffffffffffffffffffffff16905090565b60606004805461297590614974565b80601f01602080910402602001604051908101604052809291908181526020018280546129a190614974565b80156129ee5780601f106129c3576101008083540402835291602001916129ee565b820191906000526020600020905b8154815290600101906020018083116129d157829003601f168201915b5050505050905090565b612a00613488565b601660008273ffffffffffffffffffffffffffffffffffffffff1673ffffffffffffffffffffffffffffffffffffffff16815260200190815260200160002060009054906101000a900460ff1615612a8d576040517f08c379a0000000000000000000000000000000000000000000000000000000008152600401612a849061569e565b60405180910390fd5b6011819080600181540180825580915050600190039060005260206000200160009091909190916101000a81548173ffffffffffffffffffffffffffffffffffffffff021916908373ffffffffffffffffffffffffffffffffffffffff1602179055506001601660008373ffffffffffffffffffffffffffffffffffffffff1673ffffffffffffffffffffffffffffffffffffffff16815260200190815260200160002060006101000a81548160ff02191690831515021790555050565b600080612b5661346e565b9050612b638185856135a3565b600191505092915050565b612b76613488565b601284604051612b869190614b25565b908152602001604051809103902060009054906101000a900460ff16612be1576040517f08c379a0000000000000000000000000000000000000000000000000000000008152600401612bd89061570a565b60405180910390fd5b604051806080016040528085815260200184815260200183815260200182815250600985604051612c129190614b25565b90815260200160405180910390206000820151816000019081612c359190615072565b506020820151816001019081612c4b9190615072565b50604082015181600201556060820151816003015590505050505050565b612c71613488565b601660008273ffffffffffffffffffffffffffffffffffffffff1673ffffffffffffffffffffffffffffffffffffffff16815260200190815260200160002060009054906101000a900460ff16612cfd576040517f08c379a0000000000000000000000000000000000000000000000000000000008152600401612cf490615776565b60405180910390fd5b7f7d0afd94fbb67c41dce82b00240b23eb17cd64b8971fe1b722eee0363a2dede0604051612d2a906157e2565b60405180910390a150565b60075481565b612d43613488565b601281604051612d539190614b25565b908152602001604051809103902060009054906101000a900460ff16612dae576040517f08c379a0000000000000000000000000000000000000000000000000000000008152600401612da59061570a565b60405180910390fd5b6000601282604051612dc09190614b25565b908152602001604051809103902060006101000a81548160ff021916908315150217905550600981604051612df59190614b25565b908152602001604051809103902060008082016000612e149190613d82565b600182016000612e249190613d82565b60028201600090556003820160009055505060005b600b80549050811015612f8d578180519060200120600b8281548110612e6257612e61614ba8565b5b90600052602060002001604051612e799190614d29565b604051809103902003612f7a5760008190505b6001600b80549050612e9e91906154d5565b811015612f0d57600b600182612eb4919061535d565b81548110612ec557612ec4614ba8565b5b90600052602060002001600b8281548110612ee357612ee2614ba8565b5b906000526020600020019081612ef99190615818565b508080612f0590614e01565b915050612e8c565b50600b805480612f2057612f1f615623565b5b600190038181906000526020600020016000612f3c9190613d82565b90556000601283604051612f509190614b25565b908152602001604051809103902060006101000a81548160ff021916908315150217905550612f8d565b8080612f8590614e01565b915050612e39565b5060076000815480929190612fa190615900565b919050555050565b60085481565b60176020528060005260406000206000915090505481565b601a5481565b6000600160008473ffffffffffffffffffffffffffffffffffffffff1673ffffffffffffffffffffffffffffffffffffffff16815260200190815260200160002060008373ffffffffffffffffffffffffffffffffffffffff1673ffffffffffffffffffffffffffffffffffffffff16815260200190815260200160002054905092915050565b606080606080600060075467ffffffffffffffff81111561307857613077613fb9565b5b6040519080825280602002602001820160405280156130ab57816020015b60608152602001906001900390816130965790505b509050600060075467ffffffffffffffff8111156130cc576130cb613fb9565b5b6040519080825280602002602001820160405280156130ff57816020015b60608152602001906001900390816130ea5790505b509050600060075467ffffffffffffffff8111156131205761311f613fb9565b5b60405190808252806020026020018201604052801561314e5781602001602082028036833780820191505090505b509050600060075467ffffffffffffffff81111561316f5761316e613fb9565b5b60405190808252806020026020018201604052801561319d5781602001602082028036833780820191505090505b50905060005b6007548110156133d15760006009600b83815481106131c5576131c4614ba8565b5b906000526020600020016040516131dc9190614c6f565b908152602001604051809103902060405180608001604052908160008201805461320590614974565b80601f016020809104026020016040519081016040528092919081815260200182805461323190614974565b801561327e5780601f106132535761010080835404028352916020019161327e565b820191906000526020600020905b81548152906001019060200180831161326157829003601f168201915b5050505050815260200160018201805461329790614974565b80601f01602080910402602001604051908101604052809291908181526020018280546132c390614974565b80156133105780601f106132e557610100808354040283529160200191613310565b820191906000526020600020905b8154815290600101906020018083116132f357829003601f168201915b50505050508152602001600282015481526020016003820154815250509050806000015186838151811061334757613346614ba8565b5b6020026020010181905250806020015185838151811061336a57613369614ba8565b5b6020026020010181905250806040015184838151811061338d5761338c614ba8565b5b60200260200101818152505080606001518383815181106133b1576133b0614ba8565b5b6020026020010181815250505080806133c990614e01565b9150506131a3565b508383838397509750975097505050505090919293565b6133f0613488565b600073ffffffffffffffffffffffffffffffffffffffff168173ffffffffffffffffffffffffffffffffffffffff16036134625760006040517f1e4fbdf70000000000000000000000000000000000000000000000000000000081526004016134599190614620565b60405180910390fd5b61346b816138c0565b50565b600033905090565b6134838383836001613986565b505050565b61349061346e565b73ffffffffffffffffffffffffffffffffffffffff166134ae61293c565b73ffffffffffffffffffffffffffffffffffffffff161461350d576134d161346e565b6040517f118cdaa70000000000000000000000000000000000000000000000000000000081526004016135049190614620565b60405180910390fd5b565b600061351b8484612fcd565b90507fffffffffffffffffffffffffffffffffffffffffffffffffffffffffffffffff811461359d578181101561358d578281836040517ffb8f41b200000000000000000000000000000000000000000000000000000000815260040161358493929190615929565b60405180910390fd5b61359c84848484036000613986565b5b50505050565b600073ffffffffffffffffffffffffffffffffffffffff168373ffffffffffffffffffffffffffffffffffffffff16036136155760006040517f96c6fd1e00000000000000000000000000000000000000000000000000000000815260040161360c9190614620565b60405180910390fd5b600073ffffffffffffffffffffffffffffffffffffffff168273ffffffffffffffffffffffffffffffffffffffff16036136875760006040517fec442f0500000000000000000000000000000000000000000000000000000000815260040161367e9190614620565b60405180910390fd5b613692838383613b5d565b505050565b60606000424441336007546006546008546040516020016136be9796959493929190615a04565b60405160208183030381529060405280519060200120905060008160001c905060008103613725576040518060400160405280600181526020017f30000000000000000000000000000000000000000000000000000000000000008152509250505061383b565b600081905060005b6000821461375757808061374090614e01565b915050600a826137509190615ab4565b915061372d565b60008167ffffffffffffffff81111561377357613772613fb9565b5b6040519080825280601f01601f1916602001820160405280156137a55781602001600182028036833780820191505090505b5090505b60008414613832576001826137be91906154d5565b9150600a846137cd9190615ae5565b60306137d9919061535d565b60f81b8183815181106137ef576137ee614ba8565b5b60200101907effffffffffffffffffffffffffffffffffffffffffffffffffffffffffffff1916908160001a905350600a8461382b9190615ab4565b93506137a9565b80955050505050505b90565b600073ffffffffffffffffffffffffffffffffffffffff168273ffffffffffffffffffffffffffffffffffffffff16036138b05760006040517fec442f050000000000000000000000000000000000000000000000000000000081526004016138a79190614620565b60405180910390fd5b6138bc60008383613b5d565b5050565b6000600560009054906101000a900473ffffffffffffffffffffffffffffffffffffffff16905081600560006101000a81548173ffffffffffffffffffffffffffffffffffffffff021916908373ffffffffffffffffffffffffffffffffffffffff1602179055508173ffffffffffffffffffffffffffffffffffffffff168173ffffffffffffffffffffffffffffffffffffffff167f8be0079c531659141344cd1fd0a4f28419497f9722a3daafe3b4186f6b6457e060405160405180910390a35050565b600073ffffffffffffffffffffffffffffffffffffffff168473ffffffffffffffffffffffffffffffffffffffff16036139f85760006040517fe602df050000000000000000000000000000000000000000000000000000000081526004016139ef9190614620565b60405180910390fd5b600073ffffffffffffffffffffffffffffffffffffffff168373ffffffffffffffffffffffffffffffffffffffff1603613a6a5760006040517f94280d62000000000000000000000000000000000000000000000000000000008152600401613a619190614620565b60405180910390fd5b81600160008673ffffffffffffffffffffffffffffffffffffffff1673ffffffffffffffffffffffffffffffffffffffff16815260200190815260200160002060008573ffffffffffffffffffffffffffffffffffffffff1673ffffffffffffffffffffffffffffffffffffffff168152602001908152602001600020819055508015613b57578273ffffffffffffffffffffffffffffffffffffffff168473ffffffffffffffffffffffffffffffffffffffff167f8c5be1e5ebec7d5bd14f71427d1e84f3dd0314c0f7b2291e5b200ac8c7c3b92584604051613b4e919061418f565b60405180910390a35b50505050565b600073ffffffffffffffffffffffffffffffffffffffff168373ffffffffffffffffffffffffffffffffffffffff1603613baf578060026000828254613ba3919061535d565b92505081905550613c82565b60008060008573ffffffffffffffffffffffffffffffffffffffff1673ffffffffffffffffffffffffffffffffffffffff16815260200190815260200160002054905081811015613c3b578381836040517fe450d38c000000000000000000000000000000000000000000000000000000008152600401613c3293929190615929565b60405180910390fd5b8181036000808673ffffffffffffffffffffffffffffffffffffffff1673ffffffffffffffffffffffffffffffffffffffff16815260200190815260200160002081905550505b600073ffffffffffffffffffffffffffffffffffffffff168273ffffffffffffffffffffffffffffffffffffffff1603613ccb5780600260008282540392505081905550613d18565b806000808473ffffffffffffffffffffffffffffffffffffffff1673ffffffffffffffffffffffffffffffffffffffff168152602001908152602001600020600082825401925050819055505b8173ffffffffffffffffffffffffffffffffffffffff168373ffffffffffffffffffffffffffffffffffffffff167fddf252ad1be2c89b69c2b068fc378daa952ba7f163c4a11628f55a4df523b3ef83604051613d75919061418f565b60405180910390a3505050565b508054613d8e90614974565b6000825580601f10613da05750613dbf565b601f016020900490600052602060002090810190613dbe9190613dc2565b5b50565b5b80821115613ddb576000816000905550600101613dc3565b5090565b600081519050919050565b600082825260208201905092915050565b60005b83811015613e19578082015181840152602081019050613dfe565b60008484015250505050565b6000601f19601f8301169050919050565b6000613e4182613ddf565b613e4b8185613dea565b9350613e5b818560208601613dfb565b613e6481613e25565b840191505092915050565b60006020820190508181036000830152613e898184613e36565b905092915050565b6000604051905090565b600080fd5b600080fd5b600073ffffffffffffffffffffffffffffffffffffffff82169050919050565b6000613ed082613ea5565b9050919050565b613ee081613ec5565b8114613eeb57600080fd5b50565b600081359050613efd81613ed7565b92915050565b6000819050919050565b613f1681613f03565b8114613f2157600080fd5b50565b600081359050613f3381613f0d565b92915050565b60008060408385031215613f5057613f4f613e9b565b5b6000613f5e85828601613eee565b9250506020613f6f85828601613f24565b9150509250929050565b60008115159050919050565b613f8e81613f79565b82525050565b6000602082019050613fa96000830184613f85565b92915050565b600080fd5b600080fd5b7f4e487b7100000000000000000000000000000000000000000000000000000000600052604160045260246000fd5b613ff182613e25565b810181811067ffffffffffffffff821117156140105761400f613fb9565b5b80604052505050565b6000614023613e91565b905061402f8282613fe8565b919050565b600067ffffffffffffffff82111561404f5761404e613fb9565b5b61405882613e25565b9050602081019050919050565b82818337600083830152505050565b600061408761408284614034565b614019565b9050828152602081018484840111156140a3576140a2613fb4565b5b6140ae848285614065565b509392505050565b600082601f8301126140cb576140ca613faf565b5b81356140db848260208601614074565b91505092915050565b6000602082840312156140fa576140f9613e9b565b5b600082013567ffffffffffffffff81111561411857614117613ea0565b5b614124848285016140b6565b91505092915050565b61413681613f03565b82525050565b600060808201905081810360008301526141568187613e36565b9050818103602083015261416a8186613e36565b9050614179604083018561412d565b614186606083018461412d565b95945050505050565b60006020820190506141a4600083018461412d565b92915050565b6000602082840312156141c0576141bf613e9b565b5b60006141ce84828501613eee565b91505092915050565b6000806000606084860312156141f0576141ef613e9b565b5b60006141fe86828701613eee565b935050602061420f86828701613eee565b925050604061422086828701613f24565b9150509250925092565b600060ff82169050919050565b6142408161422a565b82525050565b600060208201905061425b6000830184614237565b92915050565b60008060006060848603121561427a57614279613e9b565b5b600061428886828701613eee565b935050602084013567ffffffffffffffff8111156142a9576142a8613ea0565b5b6142b5868287016140b6565b925050604084013567ffffffffffffffff8111156142d6576142d5613ea0565b5b6142e2868287016140b6565b9150509250925092565b60008060006060848603121561430557614304613e9b565b5b600084013567ffffffffffffffff81111561432357614322613ea0565b5b61432f868287016140b6565b935050602061434086828701613eee565b925050604084013567ffffffffffffffff81111561436157614360613ea0565b5b61436d868287016140b6565b9150509250925092565b61438081613ec5565b82525050565b60006101008201905081810360008301526143a1818b613e36565b905081810360208301526143b5818a613e36565b90506143c4604083018961412d565b6143d16060830188614377565b6143de6080830187614377565b6143eb60a0830186614377565b81810360c08301526143fd8185613e36565b905081810360e08301526144118184613e36565b90509998505050505050505050565b60008060006060848603121561443957614438613e9b565b5b600061444786828701613f24565b935050602061445886828701613eee565b925050604084013567ffffffffffffffff81111561447957614478613ea0565b5b614485868287016140b6565b9150509250925092565b6000602082840312156144a5576144a4613e9b565b5b60006144b384828501613f24565b91505092915050565b600060c08201905081810360008301526144d68189613e36565b90506144e56020830188614377565b81810360408301526144f78187613e36565b90506145066060830186613f85565b81810360808301526145188185613e36565b905081810360a083015261452c8184613e36565b9050979650505050505050565b600080604083850312156145505761454f613e9b565b5b600083013567ffffffffffffffff81111561456e5761456d613ea0565b5b61457a858286016140b6565b925050602083013567ffffffffffffffff81111561459b5761459a613ea0565b5b6145a7858286016140b6565b9150509250929050565b6000806000606084860312156145ca576145c9613e9b565b5b600084013567ffffffffffffffff8111156145e8576145e7613ea0565b5b6145f4868287016140b6565b935050602061460586828701613f24565b925050604061461686828701613f24565b9150509250925092565b60006020820190506146356000830184614377565b92915050565b6000806000806080858703121561465557614654613e9b565b5b600085013567ffffffffffffffff81111561467357614672613ea0565b5b61467f878288016140b6565b945050602085013567ffffffffffffffff8111156146a05761469f613ea0565b5b6146ac878288016140b6565b93505060406146bd87828801613f24565b92505060606146ce87828801613f24565b91505092959194509250565b600080604083850312156146f1576146f0613e9b565b5b60006146ff85828601613eee565b925050602061471085828601613eee565b9150509250929050565b600081519050919050565b600082825260208201905092915050565b6000819050602082019050919050565b600082825260208201905092915050565b600061476282613ddf565b61476c8185614746565b935061477c818560208601613dfb565b61478581613e25565b840191505092915050565b600061479c8383614757565b905092915050565b6000602082019050919050565b60006147bc8261471a565b6147c68185614725565b9350836020820285016147d885614736565b8060005b8581101561481457848403895281516147f58582614790565b9450614800836147a4565b925060208a019950506001810190506147dc565b50829750879550505050505092915050565b600081519050919050565b600082825260208201905092915050565b6000819050602082019050919050565b61485b81613f03565b82525050565b600061486d8383614852565b60208301905092915050565b6000602082019050919050565b600061489182614826565b61489b8185614831565b93506148a683614842565b8060005b838110156148d75781516148be8882614861565b97506148c983614879565b9250506001810190506148aa565b5085935050505092915050565b600060808201905081810360008301526148fe81876147b1565b9050818103602083015261491281866147b1565b905081810360408301526149268185614886565b9050818103606083015261493a8184614886565b905095945050505050565b7f4e487b7100000000000000000000000000000000000000000000000000000000600052602260045260246000fd5b6000600282049050600182168061498c57607f821691505b60208210810361499f5761499e614945565b5b50919050565b7f436974697a656e20646f6573206e6f7420657869737400000000000000000000600082015250565b60006149db601683613dea565b91506149e6826149a5565b602082019050919050565b60006020820190508181036000830152614a0a816149ce565b9050919050565b7f436974697a656e2063616e206265206d6f646966696564000000000000000000600082015250565b6000614a47601783613dea565b9150614a5282614a11565b602082019050919050565b60006020820190508181036000830152614a7681614a3a565b9050919050565b7f5368697070657220646f65736e27742065786973740000000000000000000000600082015250565b6000614ab3601583613dea565b9150614abe82614a7d565b602082019050919050565b60006020820190508181036000830152614ae281614aa6565b9050919050565b600081905092915050565b6000614aff82613ddf565b614b098185614ae9565b9350614b19818560208601613dfb565b80840191505092915050565b6000614b318284614af4565b915081905092915050565b7f42696e20646f65736e2774206578697374000000000000000000000000000000600082015250565b6000614b72601183613dea565b9150614b7d82614b3c565b602082019050919050565b60006020820190508181036000830152614ba181614b65565b9050919050565b7f4e487b7100000000000000000000000000000000000000000000000000000000600052603260045260246000fd5b60008190508160005260206000209050919050565b60008154614bf981614974565b614c038186614ae9565b94506001821660008114614c1e5760018114614c3357614c66565b60ff1983168652811515820286019350614c66565b614c3c85614bd7565b60005b83811015614c5e57815481890152600182019150602081019050614c3f565b838801955050505b50505092915050565b6000614c7b8284614bec565b915081905092915050565b600081905092915050565b60008190508160005260206000209050919050565b60008154614cb381614974565b614cbd8186614c86565b94506001821660008114614cd85760018114614ced57614d20565b60ff1983168652811515820286019350614d20565b614cf685614c91565b60005b83811015614d1857815481890152600182019150602081019050614cf9565b838801955050505b50505092915050565b6000614d358284614ca6565b915081905092915050565b7f436f6c6c656374696f6e20616c72656164792065786973747320666f7220746860008201527f69732062696e20616e6420646174650000000000000000000000000000000000602082015250565b6000614d9c602f83613dea565b9150614da782614d40565b604082019050919050565b60006020820190508181036000830152614dcb81614d8f565b9050919050565b7f4e487b7100000000000000000000000000000000000000000000000000000000600052601160045260246000fd5b6000614e0c82613f03565b91507fffffffffffffffffffffffffffffffffffffffffffffffffffffffffffffffff8203614e3e57614e3d614dd2565b5b600182019050919050565b7f47656e657261746564204944436f6c6c656374696f6e20616c7265616479206560008201527f7869737473000000000000000000000000000000000000000000000000000000602082015250565b6000614ea5602583613dea565b9150614eb082614e49565b604082019050919050565b60006020820190508181036000830152614ed481614e98565b9050919050565b60006020601f8301049050919050565b600082821b905092915050565b600060088302614f287fffffffffffffffffffffffffffffffffffffffffffffffffffffffffffffffff82614eeb565b614f328683614eeb565b95508019841693508086168417925050509392505050565b6000819050919050565b6000614f6f614f6a614f6584613f03565b614f4a565b613f03565b9050919050565b6000819050919050565b614f8983614f54565b614f9d614f9582614f76565b848454614ef8565b825550505050565b600090565b614fb2614fa5565b614fbd818484614f80565b505050565b5b81811015614fe157614fd6600082614faa565b600181019050614fc3565b5050565b601f82111561502657614ff781614bd7565b61500084614edb565b8101602085101561500f578190505b61502361501b85614edb565b830182614fc2565b50505b505050565b600082821c905092915050565b60006150496000198460080261502b565b1980831691505092915050565b60006150628383615038565b9150826002028217905092915050565b61507b82613ddf565b67ffffffffffffffff81111561509457615093613fb9565b5b61509e8254614974565b6150a9828285614fe5565b600060209050601f8311600181146150dc57600084156150ca578287015190505b6150d48582615056565b86555061513c565b601f1984166150ea86614bd7565b60005b82811015615112578489015182556001820191506020850194506020810190506150ed565b8683101561512f578489015161512b601f891682615038565b8355505b6001600288020188555050505b505050505050565b7f436974697a656e20616c72656164792065786973747300000000000000000000600082015250565b600061517a601683613dea565b915061518582615144565b602082019050919050565b600060208201905081810360008301526151a98161516d565b9050919050565b7f436f6c6c656374696f6e20646f65736e27742065786973740000000000000000600082015250565b60006151e6601883613dea565b91506151f1826151b0565b602082019050919050565b60006020820190508181036000830152615215816151d9565b9050919050565b7f5468697320636f6c6c656374696f6e20646f65736e277420636f6e6365726e2060008201527f7468697320736869707065720000000000000000000000000000000000000000602082015250565b6000615278602c83613dea565b91506152838261521c565b604082019050919050565b600060208201905081810360008301526152a78161526b565b9050919050565b60008190508160005260206000209050919050565b600081546152d081614974565b6152da8186614ae9565b945060018216600081146152f5576001811461530a5761533d565b60ff198316865281151582028601935061533d565b615313856152ae565b60005b8381101561533557815481890152600182019150602081019050615316565b838801955050505b50505092915050565b600061535282846152c3565b915081905092915050565b600061536882613f03565b915061537383613f03565b925082820190508082111561538b5761538a614dd2565b5b92915050565b7f4d617820537570706c7920457863656564656400000000000000000000000000600082015250565b60006153c7601383613dea565b91506153d282615391565b602082019050919050565b600060208201905081810360008301526153f6816153ba565b9050919050565b7f436974697a656e20646f65736e27742065786973740000000000000000000000600082015250565b6000615433601583613dea565b915061543e826153fd565b602082019050919050565b6000602082019050818103600083015261546281615426565b9050919050565b7f576173746520616c726561647920657869737473000000000000000000000000600082015250565b600061549f601483613dea565b91506154aa82615469565b602082019050919050565b600060208201905081810360008301526154ce81615492565b9050919050565b60006154e082613f03565b91506154eb83613f03565b925082820390508181111561550357615502614dd2565b5b92915050565b7f42696e2063617061636974792065786365656465640000000000000000000000600082015250565b600061553f601583613dea565b915061554a82615509565b602082019050919050565b6000602082019050818103600083015261556e81615532565b9050919050565b600061558082613f03565b915061558b83613f03565b925082820261559981613f03565b915082820484148315176155b0576155af614dd2565b5b5092915050565b7f47656e65726174656420494420616c7265616479206578697374730000000000600082015250565b60006155ed601b83613dea565b91506155f8826155b7565b602082019050919050565b6000602082019050818103600083015261561c816155e0565b9050919050565b7f4e487b7100000000000000000000000000000000000000000000000000000000600052603160045260246000fd5b7f5368697070657220616c72656164792065786973747300000000000000000000600082015250565b6000615688601683613dea565b915061569382615652565b602082019050919050565b600060208201905081810360008301526156b78161567b565b9050919050565b7f42696e20646f6573206e6f742065786973740000000000000000000000000000600082015250565b60006156f4601283613dea565b91506156ff826156be565b602082019050919050565b60006020820190508181036000830152615723816156e7565b9050919050565b7f5368697070657220646f6573206e6f7420657869737400000000000000000000600082015250565b6000615760601683613dea565b915061576b8261572a565b602082019050919050565b6000602082019050818103600083015261578f81615753565b9050919050565b7f536869707065722063616e206265206d6f646966696564000000000000000000600082015250565b60006157cc601783613dea565b91506157d782615796565b602082019050919050565b600060208201905081810360008301526157fb816157bf565b9050919050565b60008154905061581181614974565b9050919050565b8181036158265750506158fe565b61582f82615802565b67ffffffffffffffff81111561584857615847613fb9565b5b6158528254614974565b61585d828285614fe5565b6000601f83116001811461588c576000841561587a578287015490505b6158848582615056565b8655506158f7565b601f19841661589a876152ae565b96506158a586614bd7565b60005b828110156158cd578489015482556001820191506001850194506020810190506158a8565b868310156158ea57848901546158e6601f891682615038565b8355505b6001600288020188555050505b5050505050505b565b600061590b82613f03565b91506000820361591e5761591d614dd2565b5b600182039050919050565b600060608201905061593e6000830186614377565b61594b602083018561412d565b615958604083018461412d565b949350505050565b6000819050919050565b61597b61597682613f03565b615960565b82525050565b600061598c82613ea5565b9050919050565b60008160601b9050919050565b60006159ab82615993565b9050919050565b60006159bd826159a0565b9050919050565b6159d56159d082615981565b6159b2565b82525050565b60006159e6826159a0565b9050919050565b6159fe6159f982613ec5565b6159db565b82525050565b6000615a10828a61596a565b602082019150615a20828961596a565b602082019150615a3082886159c4565b601482019150615a4082876159ed565b601482019150615a50828661596a565b602082019150615a60828561596a565b602082019150615a70828461596a565b60208201915081905098975050505050505050565b7f4e487b7100000000000000000000000000000000000000000000000000000000600052601260045260246000fd5b6000615abf82613f03565b9150615aca83613f03565b925082615ada57615ad9615a85565b5b828204905092915050565b6000615af082613f03565b9150615afb83613f03565b925082615b0b57615b0a615a85565b5b82820690509291505056fea2646970667358221220f5bbda191b836dd01e96b93fc6011686f84f6975d65d61f8da0b4ec823f0a0dd64736f6c63430008140033",
  "immutableReferences": {},
  "source": "// SPDX-License-Identifier: MIT\r\npragma solidity >=0.8.0;\r\n\r\nimport \"@openzeppelin/contracts/token/ERC20/ERC20.sol\";\r\nimport \"@openzeppelin/contracts/access/Ownable.sol\";\r\n\r\ncontract WasteManagement is ERC20, Ownable {\r\n    struct Bin {\r\n        string id; // Changed type to string\r\n        string location;\r\n        uint256 capacity;\r\n        uint256 currentWeight;\r\n    }\r\n    struct Waste {\r\n        string id;\r\n        string status;\r\n        uint256 weight;\r\n        address citizenId;\r\n        address shipperId;\r\n        address recyclerId;\r\n        string binId; // Changed type to string\r\n        string dateCollection;\r\n    }\r\n    struct Collection {\r\n        string idCollection;\r\n        address shipperNotified;\r\n        string binNotif; // Changed type to string\r\n        bool done;\r\n        string date;\r\n        string status;\r\n    }\r\n    struct Notif {\r\n        address shipperNotified;\r\n        string binNotif; // Changed type to string\r\n        bool done;\r\n    }\r\n    event BinCreated(string id);\r\n    //event BinCreated(string id);\r\n    event CollectionCreated(string id);\r\n    event ModifShipper(string message);\r\n    event ModifCitizen(string message);\r\n    uint256 public wasteCount;\r\n    uint256 public binCount;\r\n    uint256 public collectionCount;\r\n    mapping(string => Bin) public bins; // Changed key type to string\r\n    mapping(string => Collection) public collections;\r\n    string[] binIds; // Changed type to string\r\n    string[] collectionIds;\r\n    string[] public wasteIds; // Changed type to string\r\n    mapping(string => Waste) public wastes; // Changed key type to string\r\n    address[] citizens;\r\n    address recycler = address(0x4494f3bb19F95BB33EC116887b9dbd728C008f9b);\r\n    address[] shippers;\r\n    mapping(string => bool) isBin;\r\n    mapping(string => bool) isCollection;\r\n    mapping(string => bool) isWaste;\r\n    mapping(address => bool) isCitizen;\r\n    mapping(address => bool) isShipper;\r\n    //mapping(address => mapping(string => Notif)) public notifications; // Changed key type to string\r\n    mapping(address => uint256) public citizenRewards;\r\n    uint256 shipCount=0;\r\n    mapping(address => mapping(string => Notif))  notifications;\r\n\r\n\r\n    uint public maxSupply;\r\n    constructor() ERC20(\"GreenEarn Transfer\", \"GRN\") Ownable(msg.sender) {\r\n        maxSupply = 1000000000000000000000; // 1000000000000000000000 GRN\r\n        mint(msg.sender, 1000000000000000000000); // Mint initial supply to contract deployer\r\n    }\r\n\r\n    function mint(address to, uint amount) public onlyOwner {\r\n        require(totalSupply() + amount <= maxSupply, \"Max Supply Exceeded\");\r\n        _mint(to, amount);\r\n    }\r\n\r\n\r\n                     //*************Bin************//\r\n    function createBin(string memory _location,  uint256 _capacity, uint256 _currentWeight) external onlyOwner returns (string memory) {\r\n        string memory _id = generateUniqueId();\r\n        require(!isBin[_id], \"Generated ID already exists\");\r\n        bins[_id] = Bin(_id, _location,  _capacity, _currentWeight);\r\n        binIds.push(_id);\r\n        binCount++;\r\n        isBin[_id] = true;\r\n        emit BinCreated(_id);\r\n        return _id;\r\n    }\r\n\r\n    function modifyBin(string memory _id, string memory _location,  uint256 _capacity, uint256 _currentWeight) external onlyOwner {\r\n        require(isBin[_id], \"Bin does not exist\");\r\n        bins[_id] = Bin(_id, _location,  _capacity, _currentWeight);\r\n    }\r\n\r\n    function deleteBin(string memory _id) external onlyOwner {\r\n        require(isBin[_id], \"Bin does not exist\");\r\n        \r\n        // Update mappings and arrays\r\n        isBin[_id] = false;\r\n        delete bins[_id];\r\n        \r\n        // Find and remove the bin ID from binIds array\r\n        for (uint256 i = 0; i < binIds.length; i++) {\r\n            if (keccak256(bytes(binIds[i])) == keccak256(bytes(_id))) {\r\n                for (uint256 j = i; j < binIds.length - 1; j++) {\r\n                    binIds[j] = binIds[j + 1];\r\n                }\r\n                binIds.pop();\r\n                isBin[_id]=false;\r\n                break;\r\n            }\r\n        }\r\n        \r\n        // Decrement binCount\r\n        binCount--;\r\n    }\r\n    \r\n    function getBins() public view returns (string[] memory, string[] memory, uint256[] memory, uint256[] memory) {\r\n        string[] memory ids = new string[](binCount);\r\n        string[] memory locations = new string[](binCount);\r\n       \r\n        uint256[] memory capacities = new uint256[](binCount);\r\n        uint256[] memory currentWeights = new uint256[](binCount);\r\n\r\n        for (uint256 i = 0; i < binCount; i++) {\r\n            Bin memory bin = bins[binIds[i]];\r\n            ids[i] = bin.id;\r\n            locations[i] = bin.location;\r\n            capacities[i] = bin.capacity;\r\n            currentWeights[i] = bin.currentWeight;\r\n        }\r\n\r\n        return (ids, locations, capacities, currentWeights);\r\n    }\r\n    // function generateUniqueId() internal view returns (string memory) {\r\n    //     bytes32 hash = keccak256(abi.encodePacked(block.timestamp, block.prevrandao, binCount));\r\n    //     uint256 value=(uint256(hash));\r\n    //     if (value == 0) {\r\n    //         return \"0\";\r\n    //     }\r\n    //     uint256 temp = value;\r\n    //     uint256 digits;\r\n    //     while (temp != 0) {\r\n    //         digits++;\r\n    //         temp /= 10;\r\n    //     }\r\n    //     bytes memory buffer = new bytes(digits);\r\n    //     while (value != 0) {\r\n    //         digits -= 1;\r\n    //         buffer[digits] = bytes1(uint8(48 + uint256(value % 10)));\r\n    //         value /= 10;\r\n    //     }\r\n    //     return string(buffer);\r\n    // }\r\n\r\n// Function to generate a unique ID\r\n    function generateUniqueId() internal  returns (string memory) {\r\n        bytes32 hash = keccak256(abi.encodePacked(\r\n            block.timestamp,\r\n            block.prevrandao,\r\n            block.coinbase,\r\n            msg.sender,\r\n            binCount,\r\n            wasteCount,\r\n            collectionCount // Assuming this is a counter for collections\r\n        ));\r\n\r\n        // Convert hash to string\r\n        uint256 value = uint256(hash);\r\n        if (value == 0) {\r\n            return \"0\";\r\n        }\r\n        \r\n        uint256 temp = value;\r\n        uint256 digits;\r\n        \r\n        while (temp != 0) {\r\n            digits++;\r\n            temp /= 10;\r\n        }\r\n        \r\n        bytes memory buffer = new bytes(digits);\r\n        \r\n        while (value != 0) {\r\n            digits -= 1;\r\n            buffer[digits] = bytes1(uint8(48 + uint256(value % 10)));\r\n            value /= 10;\r\n        }\r\n        \r\n        return string(buffer);\r\n    }\r\n\r\n                   //*****************Shipper********************//\r\n    function createShipper(address _shipper) external onlyOwner {\r\n        require(!isShipper[_shipper], \"Shipper already exists\");\r\n\r\n        shippers.push(_shipper);\r\n        isShipper[_shipper] = true;\r\n    }\r\n\r\n    // function getShippers() public view returns (address[] memory) {\r\n    //     return shippers;\r\n    // }\r\n\r\n    // function notifyShipper(address _shipper, string memory _idBin, string memory _date) external onlyOwner {\r\n\r\n    //     require(isShipper[_shipper], \"Shipper doesn't exist\");\r\n    //     require(isBin[_idBin], \"Bin doesn't exist\");\r\n    //     notifications[_shipper][_idBin] = Notif(_shipper, _idBin, false);\r\n    // }\r\n\r\n    function createWaste(uint256 _weight, address _citizenId, string memory _binId) external {\r\n        string memory _id = generateUniqueId();\r\n\r\n        require(isBin[_binId], \"Bin doesn't exist\");\r\n        require(isCitizen[_citizenId], \"Citizen doesn't exist\");\r\n        require(!isWaste[_id], \"Waste already exists\");\r\n        require(bins[_binId].capacity - bins[_binId].currentWeight > _weight, \"Bin capacity exceeded\");\r\n\r\n        // Create waste\r\n        wastes[_id] = Waste(_id, \"Waiting\", _weight, _citizenId, address(0), address(0), _binId, \"\");\r\n        wasteIds.push(_id);\r\n        isWaste[_id] = true;\r\n        wasteCount++;\r\n    }\r\n\r\n    function createCollection(address _shipper, string memory _idBin, string memory _date) external onlyOwner returns (string memory) {\r\n        require(isShipper[_shipper], \"Shipper doesn't exist\");\r\n        require(isBin[_idBin], \"Bin doesn't exist\");\r\n\r\n        // Check if a collection with the same bin and date already exists\r\n        for (uint256 i = 0; i < collectionIds.length; i++) {\r\n            Collection storage collection = collections[collectionIds[i]];\r\n            if (keccak256(bytes(collection.binNotif)) == keccak256(bytes(_idBin)) && keccak256(bytes(collection.date)) == keccak256(bytes(_date))) {\r\n                revert(\"Collection already exists for this bin and date\");\r\n            }\r\n        }\r\n        // Generate a unique ID for the new collection\r\n        string memory _idCollection = generateUniqueId();\r\n        require(!isCollection[_idCollection], \"Generated IDCollection already exists\");\r\n\r\n        // Update dateCollection for waiting wastes with the same bin ID\r\n        for (uint256 j = 0; j < wasteIds.length; j++) {\r\n            Waste storage waste = wastes[wasteIds[j]];\r\n            if (keccak256(bytes(waste.binId)) == keccak256(bytes(_idBin)) && keccak256(bytes(waste.status)) == keccak256(bytes(\"Waiting\"))) {\r\n                waste.dateCollection = _date;\r\n                waste.shipperId=_shipper;\r\n            }\r\n        }\r\n        // Create the new collection\r\n        collections[_idCollection] = Collection(_idCollection, _shipper, _idBin, false, _date, \"Waiting\");\r\n        collectionIds.push(_idCollection);\r\n        collectionCount++;\r\n        isCollection[_idCollection] = true;\r\n         if (!notifications[_shipper][_date].done) {\r\n            // If not, create a new notification\r\n            notifications[_shipper][_date] = Notif(_shipper, _idBin, false);\r\n        }\r\n        emit CollectionCreated(_idCollection);\r\n\r\n        return _idCollection;\r\n    }\r\n\r\n\r\n    function shipCollection(string memory _idCollection, address _shipperId, string memory _date) external onlyOwner  {\r\n        require(isCollection[_idCollection], \"Collection doesn't exist\");\r\n        if (collections[_idCollection].shipperNotified != _shipperId) {\r\n            revert(\"This collection doesn't concern this shipper\");\r\n        }\r\n        string storage date= collections[_idCollection].date;\r\n        // Update collection status and shipper notification\r\n        // Update waste status and dateCollection for all wastes in the collection\r\n        for (uint256 i = 0; i < wasteIds.length; i++) {\r\n            Waste storage waste = wastes[wasteIds[i]];\r\n            if ((keccak256(bytes(waste.binId)) == keccak256(bytes(collections[_idCollection].binNotif)) )&&\r\n                (waste.shipperId == _shipperId) && (keccak256(bytes(waste.dateCollection)) == keccak256(bytes(collections[_idCollection].date)))) {\r\n                    waste.dateCollection = _date;\r\n                    waste.status = \"Shipped\"; \r\n                    shipCount++; // Increment shipCount for each waste that meets the conditions\r\n            }\r\n        }\r\n        collections[_idCollection].date = _date;\r\n        collections[_idCollection].status = \"Shipped\";\r\n        notifications[_shipperId][date].done=true;\r\n    }\r\n \r\n    // function deleteShipper(address _shipperAddress) external onlyOwner {\r\n    //     for (uint256 i = 0; i < shippers.length; i++) {\r\n    //         if (shippers[i] == _shipperAddress) {\r\n    //             shippers[i] = shippers[\r\n    //                 shippers.length - 1\r\n    //             ];\r\n    //             shippers.pop();\r\n    //             isShipper[_shipperAddress]=false;\r\n    //             break;\r\n    //         }\r\n    //     }\r\n    // }\r\n\r\n    function modifyShipper(address _shipperAddress) external onlyOwner {\r\n        require(isShipper[ _shipperAddress], \"Shipper does not exist\");\r\n        \r\n        // Emit a message after the require statement\r\n        emit ModifShipper(\"Shipper can be modified\");\r\n        \r\n        // Further logic here if needed\r\n    }\r\n    \r\n                         //*****************Recycler********************//\r\n    \r\n    function recycleCollection(string memory _idCollection,string memory _date) external  {\r\n        require(isCollection[_idCollection], \"Collection doesn't exist\");\r\n        \r\n        for (uint256 i = 0; i < wasteIds.length; i++) {\r\n            Waste storage waste = wastes[wasteIds[i]];\r\n            if (keccak256(bytes(waste.binId)) == keccak256(bytes(collections[_idCollection].binNotif)) &&\r\n                keccak256(bytes(waste.dateCollection)) == keccak256(bytes(collections[_idCollection].date))) {\r\n                if (keccak256(bytes(waste.status)) == keccak256(bytes(\"Shipped\"))) {\r\n                    waste.dateCollection=_date;\r\n                    waste.status = \"Recyled\";\r\n                    uint256 rewardAmount = waste.weight * 1000; // Example: 1000 tokens per unit weight\r\n                    // Transfer reward to citizen\r\n                    _transfer(msg.sender, waste.citizenId, rewardAmount);\r\n                }\r\n            }\r\n        }\r\n        collections[_idCollection].date=_date;\r\n        collections[_idCollection].status = \"Recyled\";\r\n    }                         \r\n                     \r\n                     \r\n                        //*****************Citizen********************//\r\n    function createCitizen(address _citizen) external onlyOwner {\r\n        require(!isCitizen[_citizen], \"Citizen already exists\");\r\n       // require(_citizen != owner, \"Cannot create citizen with owner's address\");\r\n\r\n        citizens.push(_citizen);\r\n        isCitizen[_citizen] = true;\r\n    }\r\n\r\n    function deleteCitizen(address _citizenAddress) external onlyOwner {\r\n        for (uint256 i = 0; i < citizens.length; i++) {\r\n            if (citizens[i] == _citizenAddress) {\r\n                citizens[i] = citizens[\r\n                    citizens.length - 1\r\n                ];\r\n                citizens.pop();\r\n                isCitizen[_citizenAddress]=false;\r\n                break;\r\n            }\r\n        }\r\n    }\r\n\r\n    function modifyCitizen(address _citizenAddress) external onlyOwner {\r\n        require(isCitizen[ _citizenAddress], \"Citizen does not exist\");\r\n        \r\n        // Emit a message after the require statement\r\n        emit ModifCitizen(\"Citizen can be modified\");\r\n        \r\n        // Further logic here if needed\r\n    }\r\n\r\n    // function getIsBin(string memory _binId) internal view returns (bool) {\r\n    //     require(isBin[_binId], \"Bin doesn't exist\");\r\n    //     return isBin[_binId];\r\n    // }\r\n\r\n    // function getIsCitizen(address _citizenId) internal view returns (bool) {\r\n    //     require(isCitizen[_citizenId], \"Citizen doesn't exist\");\r\n    //     return isCitizen[_citizenId];\r\n    // }\r\n\r\n    // function CheckWaste(string memory _wasteId) internal view returns (bool) {\r\n    //     require(!isWaste[_wasteId], \"Watse exist\");\r\n    //     return !isWaste[_wasteId];\r\n    // }\r\n\r\n    // function setWaste(string memory _wasteId,uint256 _weight,address _citizenId,string memory _binId) internal {\r\n    //     wastes[_wasteId]=Waste(_wasteId, \"Waiting\", _weight, _citizenId, address(0), address(0), _binId, \"\");\r\n    //     wasteIds.push(_wasteId);\r\n    //     isWaste[_wasteId]=true;\r\n    //     wasteCount++;\r\n    //    // emit WasteCreated(_wasteId);\r\n\r\n       \r\n    // }\r\n\r\n\r\n    /*TEEEEEEEEEEEEEEEEEEEEEEEEEEEEEEESTS */\r\n    // function getCountWaste() view external onlyOwner() returns (uint256){\r\n    //     return wasteCount;\r\n    // }\r\n\r\n    // function getWastes()view external onlyOwner returns (Waste[]memory){\r\n    //     Waste[] memory trash = new Waste[](wasteIds.length);\r\n    //      for (uint256 i = 0; i < wasteIds.length; i++) {\r\n    //         Waste storage waste = wastes[wasteIds[i]];\r\n    //         trash[i]=waste;\r\n    //      }\r\n    //     return trash;\r\n    // }\r\n\r\n    // function getWastesIDs()view external onlyOwner returns (string[] memory){\r\n       \r\n    //     return wasteIds;\r\n    // }\r\n\r\n    // function getWastesStatus()view external onlyOwner returns (string[] memory,string[] memory){\r\n    //     string[] memory Status = new string[](wasteIds.length);\r\n    //     for (uint256 i = 0; i < wasteIds.length; i++) {\r\n    //         Waste storage waste = wastes[wasteIds[i]];\r\n    //         Status[i] = waste.status;\r\n    //     }\r\n    //     return(wasteIds,Status);\r\n    // }\r\n\r\n    // function getCollectionsIds()view external onlyOwner returns(string[] memory) {\r\n    //      return collectionIds;\r\n    // } \r\n\r\n    // function getCollectionsStatus()view external onlyOwner returns(string[] memory) {\r\n    //       string[] memory Status = new string[](collectionIds.length);\r\n    //     for (uint256 i = 0; i < collectionIds.length; i++) {\r\n    //         Collection storage coll = collections[collectionIds[i]];\r\n    //         Status[i] = coll.status;\r\n    //     }\r\n    //     return(Status);\r\n    // } \r\n\r\n    // // function getShipCount() view external onlyOwner() returns(uint256){\r\n    // //     return shipCount;\r\n    // // }\r\n    // // function getCitizens() public view returns (address[] memory) {\r\n    // //     return citizens;\r\n    // // }\r\n    // function getNotifByShipper(address _shipper) public view returns (Notif[] memory) {\r\n    //     Notif[] memory shipperNotifications = new Notif[](binCount);\r\n\r\n    //     for (uint256 i = 0; i < binCount; i++) {\r\n    //         string memory binId = binIds[i];\r\n    //         if (isBin[binId]) {\r\n    //             shipperNotifications[i] = notifications[_shipper][binId];\r\n    //         }\r\n    //     }\r\n\r\n    //     return shipperNotifications;\r\n    // }\r\n\r\n    \r\n\r\n}",
  "sourcePath": "C:\\Users\\Asma\\Desktop\\FinalGreenEarn\\testPFAAuthManager\\truffle\\contracts\\WasteManagement.sol",
  "compiler": {
    "name": "solc",
    "version": "0.8.20+commit.a1b79de6.Emscripten.clang"
  },
  "schemaVersion": "3.4.16",
  "updatedAt": "2024-03-31T13:35:09.656Z",
  "networkType": "ethereum",
  "devdoc": {
    "errors": {
      "ERC20InsufficientAllowance(address,uint256,uint256)": [
        {
          "details": "Indicates a failure with the `spender`s `allowance`. Used in transfers.",
          "params": {
            "allowance": "Amount of tokens a `spender` is allowed to operate with.",
            "needed": "Minimum amount required to perform a transfer.",
            "spender": "Address that may be allowed to operate on tokens without being their owner."
          }
        }
      ],
      "ERC20InsufficientBalance(address,uint256,uint256)": [
        {
          "details": "Indicates an error related to the current `balance` of a `sender`. Used in transfers.",
          "params": {
            "balance": "Current balance for the interacting account.",
            "needed": "Minimum amount required to perform a transfer.",
            "sender": "Address whose tokens are being transferred."
          }
        }
      ],
      "ERC20InvalidApprover(address)": [
        {
          "details": "Indicates a failure with the `approver` of a token to be approved. Used in approvals.",
          "params": {
            "approver": "Address initiating an approval operation."
          }
        }
      ],
      "ERC20InvalidReceiver(address)": [
        {
          "details": "Indicates a failure with the token `receiver`. Used in transfers.",
          "params": {
            "receiver": "Address to which tokens are being transferred."
          }
        }
      ],
      "ERC20InvalidSender(address)": [
        {
          "details": "Indicates a failure with the token `sender`. Used in transfers.",
          "params": {
            "sender": "Address whose tokens are being transferred."
          }
        }
      ],
      "ERC20InvalidSpender(address)": [
        {
          "details": "Indicates a failure with the `spender` to be approved. Used in approvals.",
          "params": {
            "spender": "Address that may be allowed to operate on tokens without being their owner."
          }
        }
      ],
      "OwnableInvalidOwner(address)": [
        {
          "details": "The owner is not a valid owner account. (eg. `address(0)`)"
        }
      ],
      "OwnableUnauthorizedAccount(address)": [
        {
          "details": "The caller account is not authorized to perform an operation."
        }
      ]
    },
    "events": {
      "Approval(address,address,uint256)": {
        "details": "Emitted when the allowance of a `spender` for an `owner` is set by a call to {approve}. `value` is the new allowance."
      },
      "Transfer(address,address,uint256)": {
        "details": "Emitted when `value` tokens are moved from one account (`from`) to another (`to`). Note that `value` may be zero."
      }
    },
    "kind": "dev",
    "methods": {
      "allowance(address,address)": {
        "details": "See {IERC20-allowance}."
      },
      "approve(address,uint256)": {
        "details": "See {IERC20-approve}. NOTE: If `value` is the maximum `uint256`, the allowance is not updated on `transferFrom`. This is semantically equivalent to an infinite approval. Requirements: - `spender` cannot be the zero address."
      },
      "balanceOf(address)": {
        "details": "See {IERC20-balanceOf}."
      },
      "decimals()": {
        "details": "Returns the number of decimals used to get its user representation. For example, if `decimals` equals `2`, a balance of `505` tokens should be displayed to a user as `5.05` (`505 / 10 ** 2`). Tokens usually opt for a value of 18, imitating the relationship between Ether and Wei. This is the default value returned by this function, unless it's overridden. NOTE: This information is only used for _display_ purposes: it in no way affects any of the arithmetic of the contract, including {IERC20-balanceOf} and {IERC20-transfer}."
      },
      "name()": {
        "details": "Returns the name of the token."
      },
      "owner()": {
        "details": "Returns the address of the current owner."
      },
      "renounceOwnership()": {
        "details": "Leaves the contract without owner. It will not be possible to call `onlyOwner` functions. Can only be called by the current owner. NOTE: Renouncing ownership will leave the contract without an owner, thereby disabling any functionality that is only available to the owner."
      },
      "symbol()": {
        "details": "Returns the symbol of the token, usually a shorter version of the name."
      },
      "totalSupply()": {
        "details": "See {IERC20-totalSupply}."
      },
      "transfer(address,uint256)": {
        "details": "See {IERC20-transfer}. Requirements: - `to` cannot be the zero address. - the caller must have a balance of at least `value`."
      },
      "transferFrom(address,address,uint256)": {
        "details": "See {IERC20-transferFrom}. Emits an {Approval} event indicating the updated allowance. This is not required by the EIP. See the note at the beginning of {ERC20}. NOTE: Does not update the allowance if the current allowance is the maximum `uint256`. Requirements: - `from` and `to` cannot be the zero address. - `from` must have a balance of at least `value`. - the caller must have allowance for ``from``'s tokens of at least `value`."
      },
      "transferOwnership(address)": {
        "details": "Transfers ownership of the contract to a new account (`newOwner`). Can only be called by the current owner."
      }
    },
    "version": 1
  },
  "userdoc": {
    "kind": "user",
    "methods": {},
    "version": 1
  }
}