{
  "contractName": "WasteManagement",
  "abi": [
    {
      "inputs": [],
      "stateMutability": "nonpayable",
      "type": "constructor"
    },
    {
      "anonymous": false,
      "inputs": [
        {
          "indexed": false,
          "internalType": "string",
          "name": "id",
          "type": "string"
        }
      ],
      "name": "BinCreated",
      "type": "event"
    },
    {
      "anonymous": false,
      "inputs": [
        {
          "indexed": false,
          "internalType": "string",
          "name": "id",
          "type": "string"
        }
      ],
      "name": "CollectionCreated",
      "type": "event"
    },
    {
      "anonymous": false,
      "inputs": [
        {
          "indexed": false,
          "internalType": "string",
          "name": "message",
          "type": "string"
        }
      ],
      "name": "ModifCitizen",
      "type": "event"
    },
    {
      "anonymous": false,
      "inputs": [
        {
          "indexed": false,
          "internalType": "string",
          "name": "message",
          "type": "string"
        }
      ],
      "name": "ModifShipper",
      "type": "event"
    },
    {
      "inputs": [],
      "name": "binCount",
      "outputs": [
        {
          "internalType": "uint256",
          "name": "",
          "type": "uint256"
        }
      ],
      "stateMutability": "view",
      "type": "function",
      "constant": true
    },
    {
      "inputs": [
        {
          "internalType": "string",
          "name": "",
          "type": "string"
        }
      ],
      "name": "bins",
      "outputs": [
        {
          "internalType": "string",
          "name": "id",
          "type": "string"
        },
        {
          "internalType": "string",
          "name": "location",
          "type": "string"
        },
        {
          "internalType": "uint256",
          "name": "capacity",
          "type": "uint256"
        },
        {
          "internalType": "uint256",
          "name": "currentWeight",
          "type": "uint256"
        }
      ],
      "stateMutability": "view",
      "type": "function",
      "constant": true
    },
    {
      "inputs": [
        {
          "internalType": "address",
          "name": "",
          "type": "address"
        }
      ],
      "name": "citizenRewards",
      "outputs": [
        {
          "internalType": "uint256",
          "name": "",
          "type": "uint256"
        }
      ],
      "stateMutability": "view",
      "type": "function",
      "constant": true
    },
    {
      "inputs": [],
      "name": "collectionCount",
      "outputs": [
        {
          "internalType": "uint256",
          "name": "",
          "type": "uint256"
        }
      ],
      "stateMutability": "view",
      "type": "function",
      "constant": true
    },
    {
      "inputs": [
        {
          "internalType": "string",
          "name": "",
          "type": "string"
        }
      ],
      "name": "collections",
      "outputs": [
        {
          "internalType": "string",
          "name": "idCollection",
          "type": "string"
        },
        {
          "internalType": "address",
          "name": "shipperNotified",
          "type": "address"
        },
        {
          "internalType": "string",
          "name": "binNotif",
          "type": "string"
        },
        {
          "internalType": "bool",
          "name": "done",
          "type": "bool"
        },
        {
          "internalType": "string",
          "name": "date",
          "type": "string"
        },
        {
          "internalType": "string",
          "name": "status",
          "type": "string"
        }
      ],
      "stateMutability": "view",
      "type": "function",
      "constant": true
    },
    {
      "inputs": [],
      "name": "owner",
      "outputs": [
        {
          "internalType": "address",
          "name": "",
          "type": "address"
        }
      ],
      "stateMutability": "view",
      "type": "function",
      "constant": true
    },
    {
      "inputs": [],
      "name": "wasteCount",
      "outputs": [
        {
          "internalType": "uint256",
          "name": "",
          "type": "uint256"
        }
      ],
      "stateMutability": "view",
      "type": "function",
      "constant": true
    },
    {
      "inputs": [
        {
          "internalType": "uint256",
          "name": "",
          "type": "uint256"
        }
      ],
      "name": "wasteIds",
      "outputs": [
        {
          "internalType": "string",
          "name": "",
          "type": "string"
        }
      ],
      "stateMutability": "view",
      "type": "function",
      "constant": true
    },
    {
      "inputs": [
        {
          "internalType": "string",
          "name": "",
          "type": "string"
        }
      ],
      "name": "wastes",
      "outputs": [
        {
          "internalType": "string",
          "name": "id",
          "type": "string"
        },
        {
          "internalType": "string",
          "name": "status",
          "type": "string"
        },
        {
          "internalType": "uint256",
          "name": "weight",
          "type": "uint256"
        },
        {
          "internalType": "address",
          "name": "citizenId",
          "type": "address"
        },
        {
          "internalType": "address",
          "name": "shipperId",
          "type": "address"
        },
        {
          "internalType": "address",
          "name": "recyclerId",
          "type": "address"
        },
        {
          "internalType": "string",
          "name": "binId",
          "type": "string"
        }
      ],
      "stateMutability": "view",
      "type": "function",
      "constant": true
    },
    {
      "inputs": [
        {
          "internalType": "string",
          "name": "_location",
          "type": "string"
        },
        {
          "internalType": "uint256",
          "name": "_capacity",
          "type": "uint256"
        },
        {
          "internalType": "uint256",
          "name": "_currentWeight",
          "type": "uint256"
        }
      ],
      "name": "createBin",
      "outputs": [
        {
          "internalType": "string",
          "name": "",
          "type": "string"
        }
      ],
      "stateMutability": "nonpayable",
      "type": "function"
    },
    {
      "inputs": [
        {
          "internalType": "string",
          "name": "_id",
          "type": "string"
        },
        {
          "internalType": "string",
          "name": "_location",
          "type": "string"
        },
        {
          "internalType": "uint256",
          "name": "_capacity",
          "type": "uint256"
        },
        {
          "internalType": "uint256",
          "name": "_currentWeight",
          "type": "uint256"
        }
      ],
      "name": "modifyBin",
      "outputs": [],
      "stateMutability": "nonpayable",
      "type": "function"
    },
    {
      "inputs": [
        {
          "internalType": "string",
          "name": "_id",
          "type": "string"
        }
      ],
      "name": "deleteBin",
      "outputs": [],
      "stateMutability": "nonpayable",
      "type": "function"
    },
    {
      "inputs": [],
      "name": "getBins",
      "outputs": [
        {
          "internalType": "string[]",
          "name": "",
          "type": "string[]"
        },
        {
          "internalType": "string[]",
          "name": "",
          "type": "string[]"
        },
        {
          "internalType": "uint256[]",
          "name": "",
          "type": "uint256[]"
        },
        {
          "internalType": "uint256[]",
          "name": "",
          "type": "uint256[]"
        }
      ],
      "stateMutability": "view",
      "type": "function",
      "constant": true
    },
    {
      "inputs": [
        {
          "internalType": "address",
          "name": "_shipper",
          "type": "address"
        }
      ],
      "name": "createShipper",
      "outputs": [],
      "stateMutability": "nonpayable",
      "type": "function"
    },
    {
      "inputs": [],
      "name": "getShippers",
      "outputs": [
        {
          "internalType": "address[]",
          "name": "",
          "type": "address[]"
        }
      ],
      "stateMutability": "view",
      "type": "function",
      "constant": true
    },
    {
      "inputs": [
        {
          "internalType": "address",
          "name": "_shipper",
          "type": "address"
        },
        {
          "internalType": "string",
          "name": "_idBin",
          "type": "string"
        },
        {
          "internalType": "string",
          "name": "_date",
          "type": "string"
        }
      ],
      "name": "createCollection",
      "outputs": [
        {
          "internalType": "string",
          "name": "",
          "type": "string"
        }
      ],
      "stateMutability": "nonpayable",
      "type": "function"
    },
    {
      "inputs": [
        {
          "internalType": "string",
          "name": "_idCollection",
          "type": "string"
        },
        {
          "internalType": "address",
          "name": "_shipperId",
          "type": "address"
        }
      ],
      "name": "ShipWasteById",
      "outputs": [],
      "stateMutability": "nonpayable",
      "type": "function"
    },
    {
      "inputs": [
        {
          "internalType": "address",
          "name": "_shipperAddress",
          "type": "address"
        }
      ],
      "name": "deleteShipper",
      "outputs": [],
      "stateMutability": "nonpayable",
      "type": "function"
    },
    {
      "inputs": [
        {
          "internalType": "address",
          "name": "_shipperAddress",
          "type": "address"
        }
      ],
      "name": "modifyShipper",
      "outputs": [],
      "stateMutability": "nonpayable",
      "type": "function"
    }
  ],
  "bytecode": "0x6080604052734494f3bb19f95bb33ec116887b9dbd728c008f9b600a60006101000a81548173ffffffffffffffffffffffffffffffffffffffff021916908373ffffffffffffffffffffffffffffffffffffffff16021790555034801561006557600080fd5b5033601160006101000a81548173ffffffffffffffffffffffffffffffffffffffff021916908373ffffffffffffffffffffffffffffffffffffffff160217905550613ac7806100b66000396000f3fe608060405234801561001057600080fd5b50600436106101215760003560e01c8063963464f1116100ad578063d57f966b11610071578063d57f966b1461033c578063d59728021461035a578063df1298911461038a578063e042a402146103a6578063f67c6364146103c757610121565b8063963464f1146102ae578063aef16e76146102ca578063c9b5ac5b146102e6578063cc3b2e8814610302578063ce4717df1461032057610121565b8063537a828f116100f4578063537a828f146101dd57806366e54d7b1461020d5780636a10fe941461024257806381d06633146102605780638da5cb5b1461029057610121565b806313a172f314610126578063162073931461015957806335a9c596146101775780634a19d56d146101a7575b600080fd5b610140600480360381019061013b9190612585565b6103e3565b6040516101509493929190612666565b60405180910390f35b610161610539565b60405161016e91906126b9565b60405180910390f35b610191600480360381019061018c9190612732565b61053f565b60405161019e91906127bd565b60405180910390f35b6101c160048036038101906101bc9190612585565b610961565b6040516101d497969594939291906127ee565b60405180910390f35b6101f760048036038101906101f2919061289e565b610bb1565b60405161020491906127bd565b60405180910390f35b61022760048036038101906102229190612585565b610c5d565b604051610239969594939291906128e6565b60405180910390f35b61024a610efc565b6040516102579190612a21565b60405180910390f35b61027a60048036038101906102759190612a43565b610f8a565b60405161028791906127bd565b60405180910390f35b6102986111dc565b6040516102a59190612ab2565b60405180910390f35b6102c860048036038101906102c39190612acd565b611202565b005b6102e460048036038101906102df9190612afa565b6113dd565b005b61030060048036038101906102fb9190612acd565b611560565b005b61030a6116b4565b60405161031791906126b9565b60405180910390f35b61033a60048036038101906103359190612585565b6116ba565b005b6103446119b0565b60405161035191906126b9565b60405180910390f35b610374600480360381019061036f9190612acd565b6119b6565b60405161038191906126b9565b60405180910390f35b6103a4600480360381019061039f9190612acd565b6119ce565b005b6103ae611c46565b6040516103be9493929190612d63565b60405180910390f35b6103e160048036038101906103dc9190612dc4565b611fda565b005b60038180516020810182018051848252602083016020850120818352809550505050505060009150905080600001805461041c90612e4f565b80601f016020809104026020016040519081016040528092919081815260200182805461044890612e4f565b80156104955780601f1061046a57610100808354040283529160200191610495565b820191906000526020600020905b81548152906001019060200180831161047857829003601f168201915b5050505050908060010180546104aa90612e4f565b80601f01602080910402602001604051908101604052809291908181526020018280546104d690612e4f565b80156105235780601f106104f857610100808354040283529160200191610523565b820191906000526020600020905b81548152906001019060200180831161050657829003601f168201915b5050505050908060020154908060030154905084565b60005481565b6060601160009054906101000a900473ffffffffffffffffffffffffffffffffffffffff1673ffffffffffffffffffffffffffffffffffffffff163373ffffffffffffffffffffffffffffffffffffffff16146105d1576040517f08c379a00000000000000000000000000000000000000000000000000000000081526004016105c890612ef2565b60405180910390fd5b60006105db612229565b9050600d816040516105ed9190612f4e565b908152602001604051809103902060009054906101000a900460ff1615610649576040517f08c379a000000000000000000000000000000000000000000000000000000000815260040161064090612fd7565b60405180910390fd5b601060008673ffffffffffffffffffffffffffffffffffffffff1673ffffffffffffffffffffffffffffffffffffffff16815260200190815260200160002060009054906101000a900460ff166106d5576040517f08c379a00000000000000000000000000000000000000000000000000000000081526004016106cc90613043565b60405180910390fd5b600c846040516106e59190612f4e565b908152602001604051809103902060009054906101000a900460ff16610740576040517f08c379a0000000000000000000000000000000000000000000000000000000008152600401610737906130af565b60405180910390fd5b6040518060c001604052808281526020018673ffffffffffffffffffffffffffffffffffffffff1681526020018581526020016000151581526020018481526020016040518060400160405280600781526020017f57616974696e67000000000000000000000000000000000000000000000000008152508152506004826040516107cb9190612f4e565b908152602001604051809103902060008201518160000190816107ee919061327b565b5060208201518160010160006101000a81548173ffffffffffffffffffffffffffffffffffffffff021916908373ffffffffffffffffffffffffffffffffffffffff160217905550604082015181600201908161084b919061327b565b5060608201518160030160006101000a81548160ff0219169083151502179055506080820151816004019081610881919061327b565b5060a0820151816005019081610897919061327b565b509050506006819080600181540180825580915050600190039060005260206000200160009091909190915090816108cf919061327b565b50600260008154809291906108e39061337c565b91905055506001600d826040516108fa9190612f4e565b908152602001604051809103902060006101000a81548160ff0219169083151502179055507ff2e193f96c77b8eebe5989f9851e54078a47d1e2d8e3ca74dca8a4aeb249aebf8160405161094e91906127bd565b60405180910390a1809150509392505050565b60088180516020810182018051848252602083016020850120818352809550505050505060009150905080600001805461099a90612e4f565b80601f01602080910402602001604051908101604052809291908181526020018280546109c690612e4f565b8015610a135780601f106109e857610100808354040283529160200191610a13565b820191906000526020600020905b8154815290600101906020018083116109f657829003601f168201915b505050505090806001018054610a2890612e4f565b80601f0160208091040260200160405190810160405280929190818152602001828054610a5490612e4f565b8015610aa15780601f10610a7657610100808354040283529160200191610aa1565b820191906000526020600020905b815481529060010190602001808311610a8457829003601f168201915b5050505050908060020154908060030160009054906101000a900473ffffffffffffffffffffffffffffffffffffffff16908060040160009054906101000a900473ffffffffffffffffffffffffffffffffffffffff16908060050160009054906101000a900473ffffffffffffffffffffffffffffffffffffffff1690806006018054610b2e90612e4f565b80601f0160208091040260200160405190810160405280929190818152602001828054610b5a90612e4f565b8015610ba75780601f10610b7c57610100808354040283529160200191610ba7565b820191906000526020600020905b815481529060010190602001808311610b8a57829003601f168201915b5050505050905087565b60078181548110610bc157600080fd5b906000526020600020016000915090508054610bdc90612e4f565b80601f0160208091040260200160405190810160405280929190818152602001828054610c0890612e4f565b8015610c555780601f10610c2a57610100808354040283529160200191610c55565b820191906000526020600020905b815481529060010190602001808311610c3857829003601f168201915b505050505081565b600481805160208101820180518482526020830160208501208183528095505050505050600091509050806000018054610c9690612e4f565b80601f0160208091040260200160405190810160405280929190818152602001828054610cc290612e4f565b8015610d0f5780601f10610ce457610100808354040283529160200191610d0f565b820191906000526020600020905b815481529060010190602001808311610cf257829003601f168201915b5050505050908060010160009054906101000a900473ffffffffffffffffffffffffffffffffffffffff1690806002018054610d4a90612e4f565b80601f0160208091040260200160405190810160405280929190818152602001828054610d7690612e4f565b8015610dc35780601f10610d9857610100808354040283529160200191610dc3565b820191906000526020600020905b815481529060010190602001808311610da657829003601f168201915b5050505050908060030160009054906101000a900460ff1690806004018054610deb90612e4f565b80601f0160208091040260200160405190810160405280929190818152602001828054610e1790612e4f565b8015610e645780601f10610e3957610100808354040283529160200191610e64565b820191906000526020600020905b815481529060010190602001808311610e4757829003601f168201915b505050505090806005018054610e7990612e4f565b80601f0160208091040260200160405190810160405280929190818152602001828054610ea590612e4f565b8015610ef25780601f10610ec757610100808354040283529160200191610ef2565b820191906000526020600020905b815481529060010190602001808311610ed557829003601f168201915b5050505050905086565b6060600b805480602002602001604051908101604052809291908181526020018280548015610f8057602002820191906000526020600020905b8160009054906101000a900473ffffffffffffffffffffffffffffffffffffffff1673ffffffffffffffffffffffffffffffffffffffff1681526020019060010190808311610f36575b5050505050905090565b6060601160009054906101000a900473ffffffffffffffffffffffffffffffffffffffff1673ffffffffffffffffffffffffffffffffffffffff163373ffffffffffffffffffffffffffffffffffffffff161461101c576040517f08c379a000000000000000000000000000000000000000000000000000000000815260040161101390612ef2565b60405180910390fd5b6000611026612229565b9050600c816040516110389190612f4e565b908152602001604051809103902060009054906101000a900460ff1615611094576040517f08c379a000000000000000000000000000000000000000000000000000000000815260040161108b90613410565b60405180910390fd5b6040518060800160405280828152602001868152602001858152602001848152506003826040516110c59190612f4e565b908152602001604051809103902060008201518160000190816110e8919061327b565b5060208201518160010190816110fe919061327b565b50604082015181600201556060820151816003015590505060058190806001815401808255809150506001900390600052602060002001600090919091909150908161114a919061327b565b506001600081548092919061115e9061337c565b91905055506001600c826040516111759190612f4e565b908152602001604051809103902060006101000a81548160ff0219169083151502179055507fd5413a7934f1aa973af7bc53f68df06953b49031401619e5997d54afb849377e816040516111c991906127bd565b60405180910390a1809150509392505050565b601160009054906101000a900473ffffffffffffffffffffffffffffffffffffffff1681565b601160009054906101000a900473ffffffffffffffffffffffffffffffffffffffff1673ffffffffffffffffffffffffffffffffffffffff163373ffffffffffffffffffffffffffffffffffffffff1614611292576040517f08c379a000000000000000000000000000000000000000000000000000000000815260040161128990612ef2565b60405180910390fd5b601060008273ffffffffffffffffffffffffffffffffffffffff1673ffffffffffffffffffffffffffffffffffffffff16815260200190815260200160002060009054906101000a900460ff161561131f576040517f08c379a00000000000000000000000000000000000000000000000000000000081526004016113169061347c565b60405180910390fd5b600b819080600181540180825580915050600190039060005260206000200160009091909190916101000a81548173ffffffffffffffffffffffffffffffffffffffff021916908373ffffffffffffffffffffffffffffffffffffffff1602179055506001601060008373ffffffffffffffffffffffffffffffffffffffff1673ffffffffffffffffffffffffffffffffffffffff16815260200190815260200160002060006101000a81548160ff02191690831515021790555050565b601160009054906101000a900473ffffffffffffffffffffffffffffffffffffffff1673ffffffffffffffffffffffffffffffffffffffff163373ffffffffffffffffffffffffffffffffffffffff161461146d576040517f08c379a000000000000000000000000000000000000000000000000000000000815260040161146490612ef2565b60405180910390fd5b600c8460405161147d9190612f4e565b908152602001604051809103902060009054906101000a900460ff166114d8576040517f08c379a00000000000000000000000000000000000000000000000000000000081526004016114cf906134e8565b60405180910390fd5b6040518060800160405280858152602001848152602001838152602001828152506003856040516115099190612f4e565b9081526020016040518091039020600082015181600001908161152c919061327b565b506020820151816001019081611542919061327b565b50604082015181600201556060820151816003015590505050505050565b601160009054906101000a900473ffffffffffffffffffffffffffffffffffffffff1673ffffffffffffffffffffffffffffffffffffffff163373ffffffffffffffffffffffffffffffffffffffff16146115f0576040517f08c379a00000000000000000000000000000000000000000000000000000000081526004016115e790612ef2565b60405180910390fd5b601060008273ffffffffffffffffffffffffffffffffffffffff1673ffffffffffffffffffffffffffffffffffffffff16815260200190815260200160002060009054906101000a900460ff1661167c576040517f08c379a000000000000000000000000000000000000000000000000000000000815260040161167390613554565b60405180910390fd5b7f7d0afd94fbb67c41dce82b00240b23eb17cd64b8971fe1b722eee0363a2dede06040516116a9906135c0565b60405180910390a150565b60015481565b601160009054906101000a900473ffffffffffffffffffffffffffffffffffffffff1673ffffffffffffffffffffffffffffffffffffffff163373ffffffffffffffffffffffffffffffffffffffff161461174a576040517f08c379a000000000000000000000000000000000000000000000000000000000815260040161174190612ef2565b60405180910390fd5b600c8160405161175a9190612f4e565b908152602001604051809103902060009054906101000a900460ff166117b5576040517f08c379a00000000000000000000000000000000000000000000000000000000081526004016117ac906134e8565b60405180910390fd5b6000600c826040516117c79190612f4e565b908152602001604051809103902060006101000a81548160ff0219169083151502179055506003816040516117fc9190612f4e565b90815260200160405180910390206000808201600061181b91906123ce565b60018201600061182b91906123ce565b60028201600090556003820160009055505060005b60058054905081101561199457818051906020012060058281548110611869576118686135e0565b5b9060005260206000200160405161188091906136b2565b6040518091039020036119815760008190505b60016005805490506118a591906136c9565b8110156119145760056001826118bb91906136fd565b815481106118cc576118cb6135e0565b5b90600052602060002001600582815481106118ea576118e96135e0565b5b906000526020600020019081611900919061375c565b50808061190c9061337c565b915050611893565b50600580548061192757611926613844565b5b60019003818190600052602060002001600061194391906123ce565b90556000600c836040516119579190612f4e565b908152602001604051809103902060006101000a81548160ff021916908315150217905550611994565b808061198c9061337c565b915050611840565b50600160008154809291906119a890613873565b919050555050565b60025481565b60126020528060005260406000206000915090505481565b601160009054906101000a900473ffffffffffffffffffffffffffffffffffffffff1673ffffffffffffffffffffffffffffffffffffffff163373ffffffffffffffffffffffffffffffffffffffff1614611a5e576040517f08c379a0000000000000000000000000000000000000000000000000000000008152600401611a5590612ef2565b60405180910390fd5b60005b600b80549050811015611c42578173ffffffffffffffffffffffffffffffffffffffff16600b8281548110611a9957611a986135e0565b5b9060005260206000200160009054906101000a900473ffffffffffffffffffffffffffffffffffffffff1673ffffffffffffffffffffffffffffffffffffffff1603611c2f57600b6001600b80549050611af391906136c9565b81548110611b0457611b036135e0565b5b9060005260206000200160009054906101000a900473ffffffffffffffffffffffffffffffffffffffff16600b8281548110611b4357611b426135e0565b5b9060005260206000200160006101000a81548173ffffffffffffffffffffffffffffffffffffffff021916908373ffffffffffffffffffffffffffffffffffffffff160217905550600b805480611b9d57611b9c613844565b5b6001900381819060005260206000200160006101000a81549073ffffffffffffffffffffffffffffffffffffffff021916905590556000601060008473ffffffffffffffffffffffffffffffffffffffff1673ffffffffffffffffffffffffffffffffffffffff16815260200190815260200160002060006101000a81548160ff021916908315150217905550611c42565b8080611c3a9061337c565b915050611a61565b5050565b606080606080600060015467ffffffffffffffff811115611c6a57611c6961245a565b5b604051908082528060200260200182016040528015611c9d57816020015b6060815260200190600190039081611c885790505b509050600060015467ffffffffffffffff811115611cbe57611cbd61245a565b5b604051908082528060200260200182016040528015611cf157816020015b6060815260200190600190039081611cdc5790505b509050600060015467ffffffffffffffff811115611d1257611d1161245a565b5b604051908082528060200260200182016040528015611d405781602001602082028036833780820191505090505b509050600060015467ffffffffffffffff811115611d6157611d6061245a565b5b604051908082528060200260200182016040528015611d8f5781602001602082028036833780820191505090505b50905060005b600154811015611fc3576000600360058381548110611db757611db66135e0565b5b90600052602060002001604051611dce919061391f565b9081526020016040518091039020604051806080016040529081600082018054611df790612e4f565b80601f0160208091040260200160405190810160405280929190818152602001828054611e2390612e4f565b8015611e705780601f10611e4557610100808354040283529160200191611e70565b820191906000526020600020905b815481529060010190602001808311611e5357829003601f168201915b50505050508152602001600182018054611e8990612e4f565b80601f0160208091040260200160405190810160405280929190818152602001828054611eb590612e4f565b8015611f025780601f10611ed757610100808354040283529160200191611f02565b820191906000526020600020905b815481529060010190602001808311611ee557829003601f168201915b505050505081526020016002820154815260200160038201548152505090508060000151868381518110611f3957611f386135e0565b5b60200260200101819052508060200151858381518110611f5c57611f5b6135e0565b5b60200260200101819052508060400151848381518110611f7f57611f7e6135e0565b5b6020026020010181815250508060600151838381518110611fa357611fa26135e0565b5b602002602001018181525050508080611fbb9061337c565b915050611d95565b508383838397509750975097505050505090919293565b601160009054906101000a900473ffffffffffffffffffffffffffffffffffffffff1673ffffffffffffffffffffffffffffffffffffffff163373ffffffffffffffffffffffffffffffffffffffff161461206a576040517f08c379a000000000000000000000000000000000000000000000000000000000815260040161206190612ef2565b60405180910390fd5b601060008273ffffffffffffffffffffffffffffffffffffffff1673ffffffffffffffffffffffffffffffffffffffff16815260200190815260200160002060009054906101000a900460ff166120f6576040517f08c379a00000000000000000000000000000000000000000000000000000000081526004016120ed90613043565b60405180910390fd5b600d826040516121069190612f4e565b908152602001604051809103902060009054906101000a900460ff16612161576040517f08c379a000000000000000000000000000000000000000000000000000000000815260040161215890613982565b60405180910390fd5b6040518060400160405280600781526020017f53686970706564000000000000000000000000000000000000000000000000008152506004836040516121a79190612f4e565b908152602001604051809103902060050190816121c4919061327b565b50806004836040516121d69190612f4e565b908152602001604051809103902060010160006101000a81548173ffffffffffffffffffffffffffffffffffffffff021916908373ffffffffffffffffffffffffffffffffffffffff1602179055505050565b606060004244600154604051602001612244939291906139c3565b6040516020818303038152906040528051906020012090506122688160001c61226e565b91505090565b6060600082036122b5576040518060400160405280600181526020017f300000000000000000000000000000000000000000000000000000000000000081525090506123c9565b600082905060005b600082146122e75780806122d09061337c565b915050600a826122e09190613a2f565b91506122bd565b60008167ffffffffffffffff8111156123035761230261245a565b5b6040519080825280601f01601f1916602001820160405280156123355781602001600182028036833780820191505090505b5090505b600085146123c25760018261234e91906136c9565b9150600a8561235d9190613a60565b603061236991906136fd565b60f81b81838151811061237f5761237e6135e0565b5b60200101907effffffffffffffffffffffffffffffffffffffffffffffffffffffffffffff1916908160001a905350600a856123bb9190613a2f565b9450612339565b8093505050505b919050565b5080546123da90612e4f565b6000825580601f106123ec575061240b565b601f01602090049060005260206000209081019061240a919061240e565b5b50565b5b8082111561242757600081600090555060010161240f565b5090565b6000604051905090565b600080fd5b600080fd5b600080fd5b600080fd5b6000601f19601f8301169050919050565b7f4e487b7100000000000000000000000000000000000000000000000000000000600052604160045260246000fd5b61249282612449565b810181811067ffffffffffffffff821117156124b1576124b061245a565b5b80604052505050565b60006124c461242b565b90506124d08282612489565b919050565b600067ffffffffffffffff8211156124f0576124ef61245a565b5b6124f982612449565b9050602081019050919050565b82818337600083830152505050565b6000612528612523846124d5565b6124ba565b90508281526020810184848401111561254457612543612444565b5b61254f848285612506565b509392505050565b600082601f83011261256c5761256b61243f565b5b813561257c848260208601612515565b91505092915050565b60006020828403121561259b5761259a612435565b5b600082013567ffffffffffffffff8111156125b9576125b861243a565b5b6125c584828501612557565b91505092915050565b600081519050919050565b600082825260208201905092915050565b60005b838110156126085780820151818401526020810190506125ed565b60008484015250505050565b600061261f826125ce565b61262981856125d9565b93506126398185602086016125ea565b61264281612449565b840191505092915050565b6000819050919050565b6126608161264d565b82525050565b600060808201905081810360008301526126808187612614565b905081810360208301526126948186612614565b90506126a36040830185612657565b6126b06060830184612657565b95945050505050565b60006020820190506126ce6000830184612657565b92915050565b600073ffffffffffffffffffffffffffffffffffffffff82169050919050565b60006126ff826126d4565b9050919050565b61270f816126f4565b811461271a57600080fd5b50565b60008135905061272c81612706565b92915050565b60008060006060848603121561274b5761274a612435565b5b60006127598682870161271d565b935050602084013567ffffffffffffffff81111561277a5761277961243a565b5b61278686828701612557565b925050604084013567ffffffffffffffff8111156127a7576127a661243a565b5b6127b386828701612557565b9150509250925092565b600060208201905081810360008301526127d78184612614565b905092915050565b6127e8816126f4565b82525050565b600060e0820190508181036000830152612808818a612614565b9050818103602083015261281c8189612614565b905061282b6040830188612657565b61283860608301876127df565b61284560808301866127df565b61285260a08301856127df565b81810360c08301526128648184612614565b905098975050505050505050565b61287b8161264d565b811461288657600080fd5b50565b60008135905061289881612872565b92915050565b6000602082840312156128b4576128b3612435565b5b60006128c284828501612889565b91505092915050565b60008115159050919050565b6128e0816128cb565b82525050565b600060c08201905081810360008301526129008189612614565b905061290f60208301886127df565b81810360408301526129218187612614565b905061293060608301866128d7565b81810360808301526129428185612614565b905081810360a08301526129568184612614565b9050979650505050505050565b600081519050919050565b600082825260208201905092915050565b6000819050602082019050919050565b612998816126f4565b82525050565b60006129aa838361298f565b60208301905092915050565b6000602082019050919050565b60006129ce82612963565b6129d8818561296e565b93506129e38361297f565b8060005b83811015612a145781516129fb888261299e565b9750612a06836129b6565b9250506001810190506129e7565b5085935050505092915050565b60006020820190508181036000830152612a3b81846129c3565b905092915050565b600080600060608486031215612a5c57612a5b612435565b5b600084013567ffffffffffffffff811115612a7a57612a7961243a565b5b612a8686828701612557565b9350506020612a9786828701612889565b9250506040612aa886828701612889565b9150509250925092565b6000602082019050612ac760008301846127df565b92915050565b600060208284031215612ae357612ae2612435565b5b6000612af18482850161271d565b91505092915050565b60008060008060808587031215612b1457612b13612435565b5b600085013567ffffffffffffffff811115612b3257612b3161243a565b5b612b3e87828801612557565b945050602085013567ffffffffffffffff811115612b5f57612b5e61243a565b5b612b6b87828801612557565b9350506040612b7c87828801612889565b9250506060612b8d87828801612889565b91505092959194509250565b600081519050919050565b600082825260208201905092915050565b6000819050602082019050919050565b600082825260208201905092915050565b6000612be1826125ce565b612beb8185612bc5565b9350612bfb8185602086016125ea565b612c0481612449565b840191505092915050565b6000612c1b8383612bd6565b905092915050565b6000602082019050919050565b6000612c3b82612b99565b612c458185612ba4565b935083602082028501612c5785612bb5565b8060005b85811015612c935784840389528151612c748582612c0f565b9450612c7f83612c23565b925060208a01995050600181019050612c5b565b50829750879550505050505092915050565b600081519050919050565b600082825260208201905092915050565b6000819050602082019050919050565b612cda8161264d565b82525050565b6000612cec8383612cd1565b60208301905092915050565b6000602082019050919050565b6000612d1082612ca5565b612d1a8185612cb0565b9350612d2583612cc1565b8060005b83811015612d56578151612d3d8882612ce0565b9750612d4883612cf8565b925050600181019050612d29565b5085935050505092915050565b60006080820190508181036000830152612d7d8187612c30565b90508181036020830152612d918186612c30565b90508181036040830152612da58185612d05565b90508181036060830152612db98184612d05565b905095945050505050565b60008060408385031215612ddb57612dda612435565b5b600083013567ffffffffffffffff811115612df957612df861243a565b5b612e0585828601612557565b9250506020612e168582860161271d565b9150509250929050565b7f4e487b7100000000000000000000000000000000000000000000000000000000600052602260045260246000fd5b60006002820490506001821680612e6757607f821691505b602082108103612e7a57612e79612e20565b5b50919050565b7f4f6e6c79206f776e65722063616e2063616c6c20746869732066756e6374696f60008201527f6e00000000000000000000000000000000000000000000000000000000000000602082015250565b6000612edc6021836125d9565b9150612ee782612e80565b604082019050919050565b60006020820190508181036000830152612f0b81612ecf565b9050919050565b600081905092915050565b6000612f28826125ce565b612f328185612f12565b9350612f428185602086016125ea565b80840191505092915050565b6000612f5a8284612f1d565b915081905092915050565b7f47656e657261746564204944436f6c6c656374696f6e20616c7265616479206560008201527f7869737473000000000000000000000000000000000000000000000000000000602082015250565b6000612fc16025836125d9565b9150612fcc82612f65565b604082019050919050565b60006020820190508181036000830152612ff081612fb4565b9050919050565b7f5368697070657220646f65736e27742065786973740000000000000000000000600082015250565b600061302d6015836125d9565b915061303882612ff7565b602082019050919050565b6000602082019050818103600083015261305c81613020565b9050919050565b7f42696e20646f65736e2774206578697374000000000000000000000000000000600082015250565b60006130996011836125d9565b91506130a482613063565b602082019050919050565b600060208201905081810360008301526130c88161308c565b9050919050565b60008190508160005260206000209050919050565b60006020601f8301049050919050565b600082821b905092915050565b6000600883026131317fffffffffffffffffffffffffffffffffffffffffffffffffffffffffffffffff826130f4565b61313b86836130f4565b95508019841693508086168417925050509392505050565b6000819050919050565b600061317861317361316e8461264d565b613153565b61264d565b9050919050565b6000819050919050565b6131928361315d565b6131a661319e8261317f565b848454613101565b825550505050565b600090565b6131bb6131ae565b6131c6818484613189565b505050565b5b818110156131ea576131df6000826131b3565b6001810190506131cc565b5050565b601f82111561322f57613200816130cf565b613209846130e4565b81016020851015613218578190505b61322c613224856130e4565b8301826131cb565b50505b505050565b600082821c905092915050565b600061325260001984600802613234565b1980831691505092915050565b600061326b8383613241565b9150826002028217905092915050565b613284826125ce565b67ffffffffffffffff81111561329d5761329c61245a565b5b6132a78254612e4f565b6132b28282856131ee565b600060209050601f8311600181146132e557600084156132d3578287015190505b6132dd858261325f565b865550613345565b601f1984166132f3866130cf565b60005b8281101561331b578489015182556001820191506020850194506020810190506132f6565b868310156133385784890151613334601f891682613241565b8355505b6001600288020188555050505b505050505050565b7f4e487b7100000000000000000000000000000000000000000000000000000000600052601160045260246000fd5b60006133878261264d565b91507fffffffffffffffffffffffffffffffffffffffffffffffffffffffffffffffff82036133b9576133b861334d565b5b600182019050919050565b7f47656e65726174656420494420616c7265616479206578697374730000000000600082015250565b60006133fa601b836125d9565b9150613405826133c4565b602082019050919050565b60006020820190508181036000830152613429816133ed565b9050919050565b7f5368697070657220616c72656164792065786973747300000000000000000000600082015250565b60006134666016836125d9565b915061347182613430565b602082019050919050565b6000602082019050818103600083015261349581613459565b9050919050565b7f42696e20646f6573206e6f742065786973740000000000000000000000000000600082015250565b60006134d26012836125d9565b91506134dd8261349c565b602082019050919050565b60006020820190508181036000830152613501816134c5565b9050919050565b7f5368697070657220646f6573206e6f7420657869737400000000000000000000600082015250565b600061353e6016836125d9565b915061354982613508565b602082019050919050565b6000602082019050818103600083015261356d81613531565b9050919050565b7f536869707065722063616e206265206d6f646966696564000000000000000000600082015250565b60006135aa6017836125d9565b91506135b582613574565b602082019050919050565b600060208201905081810360008301526135d98161359d565b9050919050565b7f4e487b7100000000000000000000000000000000000000000000000000000000600052603260045260246000fd5b600081905092915050565b60008190508160005260206000209050919050565b6000815461363c81612e4f565b613646818661360f565b945060018216600081146136615760018114613676576136a9565b60ff19831686528115158202860193506136a9565b61367f8561361a565b60005b838110156136a157815481890152600182019150602081019050613682565b838801955050505b50505092915050565b60006136be828461362f565b915081905092915050565b60006136d48261264d565b91506136df8361264d565b92508282039050818111156136f7576136f661334d565b5b92915050565b60006137088261264d565b91506137138361264d565b925082820190508082111561372b5761372a61334d565b5b92915050565b60008154905061374081612e4f565b9050919050565b60008190508160005260206000209050919050565b81810361376a575050613842565b61377382613731565b67ffffffffffffffff81111561378c5761378b61245a565b5b6137968254612e4f565b6137a18282856131ee565b6000601f8311600181146137d057600084156137be578287015490505b6137c8858261325f565b86555061383b565b601f1984166137de87613747565b96506137e9866130cf565b60005b82811015613811578489015482556001820191506001850194506020810190506137ec565b8683101561382e578489015461382a601f891682613241565b8355505b6001600288020188555050505b5050505050505b565b7f4e487b7100000000000000000000000000000000000000000000000000000000600052603160045260246000fd5b600061387e8261264d565b9150600082036138915761389061334d565b5b600182039050919050565b600081546138a981612e4f565b6138b38186612f12565b945060018216600081146138ce57600181146138e357613916565b60ff1983168652811515820286019350613916565b6138ec856130cf565b60005b8381101561390e578154818901526001820191506020810190506138ef565b838801955050505b50505092915050565b600061392b828461389c565b915081905092915050565b7f436f6c6c656374696f6e20646f65736e27742065786973740000000000000000600082015250565b600061396c6018836125d9565b915061397782613936565b602082019050919050565b6000602082019050818103600083015261399b8161395f565b9050919050565b6000819050919050565b6139bd6139b88261264d565b6139a2565b82525050565b60006139cf82866139ac565b6020820191506139df82856139ac565b6020820191506139ef82846139ac565b602082019150819050949350505050565b7f4e487b7100000000000000000000000000000000000000000000000000000000600052601260045260246000fd5b6000613a3a8261264d565b9150613a458361264d565b925082613a5557613a54613a00565b5b828204905092915050565b6000613a6b8261264d565b9150613a768361264d565b925082613a8657613a85613a00565b5b82820690509291505056fea264697066735822122093014218b7df976c5e00f072f6242646c2f5d55d3e31cdba0b52351defee404464736f6c63430008130033",
  "immutableReferences": {},
  "source": "// SPDX-License-Identifier: MIT\r\npragma solidity ^0.8.0;\r\n\r\ncontract WasteManagement {\r\n    struct Bin {\r\n        string id; // Changed type to string\r\n        string location;\r\n        uint256 capacity;\r\n        uint256 currentWeight;\r\n    }\r\n    struct Waste {\r\n        string id;\r\n        string status;\r\n        uint256 weight;\r\n        address citizenId;\r\n        address shipperId;\r\n        address recyclerId;\r\n        string binId; // Changed type to string\r\n    }\r\n    struct Collection {\r\n        string idCollection;\r\n        address shipperNotified;\r\n        string binNotif; // Changed type to string\r\n        bool done;\r\n        string date;\r\n        string status;\r\n    }\r\n    event BinCreated(string id);\r\n    event CollectionCreated(string id);\r\n    event ModifShipper(string message);\r\n    event ModifCitizen(string message);\r\n    uint256 public wasteCount;\r\n    uint256 public binCount;\r\n    uint256 public collectionCount;\r\n    mapping(string => Bin) public bins; // Changed key type to string\r\n    mapping(string => Collection) public collections;\r\n    string[] binIds; // Changed type to string\r\n    string[] collectionIds;\r\n    string[] public wasteIds; // Changed type to string\r\n    mapping(string => Waste) public wastes; // Changed key type to string\r\n    address[] citizens;\r\n    address recycler = address(0x4494f3bb19F95BB33EC116887b9dbd728C008f9b);\r\n    address[] shippers;\r\n    mapping(string => bool) isBin;\r\n    mapping(string => bool) isCollection;\r\n    mapping(string => bool) isWaste;\r\n    mapping(address => bool) isCitizen;\r\n    mapping(address => bool) isShipper;\r\n    address public owner;\r\n    //mapping(address => mapping(string => Notif)) public notifications; // Changed key type to string\r\n    mapping(address => uint256) public citizenRewards;\r\n    \r\n\r\n\r\n    modifier onlyOwner() {\r\n        require(msg.sender == owner, \"Only owner can call this function\");\r\n        _;\r\n    }\r\n\r\n    constructor() {\r\n        owner = msg.sender;\r\n    }\r\n\r\n\r\n\r\n                     //*************Bin************//\r\n    function createBin(string memory _location,  uint256 _capacity, uint256 _currentWeight) external onlyOwner returns (string memory) {\r\n        string memory _id = generateUniqueId();\r\n        require(!isBin[_id], \"Generated ID already exists\");\r\n        bins[_id] = Bin(_id, _location,  _capacity, _currentWeight);\r\n        binIds.push(_id);\r\n        binCount++;\r\n        isBin[_id] = true;\r\n        emit BinCreated(_id);\r\n        return _id;\r\n    }\r\n\r\n    function modifyBin(string memory _id, string memory _location,  uint256 _capacity, uint256 _currentWeight) external onlyOwner {\r\n        require(isBin[_id], \"Bin does not exist\");\r\n        bins[_id] = Bin(_id, _location,  _capacity, _currentWeight);\r\n    }\r\n\r\n    function deleteBin(string memory _id) external onlyOwner {\r\n        require(isBin[_id], \"Bin does not exist\");\r\n        \r\n        // Update mappings and arrays\r\n        isBin[_id] = false;\r\n        delete bins[_id];\r\n        \r\n        // Find and remove the bin ID from binIds array\r\n        for (uint256 i = 0; i < binIds.length; i++) {\r\n            if (keccak256(bytes(binIds[i])) == keccak256(bytes(_id))) {\r\n                for (uint256 j = i; j < binIds.length - 1; j++) {\r\n                    binIds[j] = binIds[j + 1];\r\n                }\r\n                binIds.pop();\r\n                isBin[_id]=false;\r\n                break;\r\n            }\r\n        }\r\n        \r\n        // Decrement binCount\r\n        binCount--;\r\n    }\r\n    \r\n    function getBins() public view returns (string[] memory, string[] memory, uint256[] memory, uint256[] memory) {\r\n        string[] memory ids = new string[](binCount);\r\n        string[] memory locations = new string[](binCount);\r\n       \r\n        uint256[] memory capacities = new uint256[](binCount);\r\n        uint256[] memory currentWeights = new uint256[](binCount);\r\n\r\n        for (uint256 i = 0; i < binCount; i++) {\r\n            Bin memory bin = bins[binIds[i]];\r\n            ids[i] = bin.id;\r\n            locations[i] = bin.location;\r\n            capacities[i] = bin.capacity;\r\n            currentWeights[i] = bin.currentWeight;\r\n        }\r\n\r\n        return (ids, locations, capacities, currentWeights);\r\n    }\r\n    function generateUniqueId() internal view returns (string memory) {\r\n        bytes32 hash = keccak256(abi.encodePacked(block.timestamp, block.prevrandao, binCount));\r\n        return toStringUniqueId((uint256(hash)));\r\n    }\r\n    //ena zedt fazat uint64 bech nsa8arha\r\n\r\n    function toStringUniqueId(uint256 value) internal pure returns (string memory) {\r\n        if (value == 0) {\r\n            return \"0\";\r\n        }\r\n        uint256 temp = value;\r\n        uint256 digits;\r\n        while (temp != 0) {\r\n            digits++;\r\n            temp /= 10;\r\n        }\r\n        bytes memory buffer = new bytes(digits);\r\n        while (value != 0) {\r\n            digits -= 1;\r\n            buffer[digits] = bytes1(uint8(48 + uint256(value % 10)));\r\n            value /= 10;\r\n        }\r\n        return string(buffer);\r\n    }\r\n\r\n                   //*****************Shipper********************//\r\n\r\n\r\n\r\n    function createShipper(address _shipper) external onlyOwner {\r\n        require(!isShipper[_shipper], \"Shipper already exists\");\r\n\r\n        shippers.push(_shipper);\r\n        isShipper[_shipper] = true;\r\n    }\r\n\r\n    function getShippers() public view returns (address[] memory) {\r\n        return shippers;\r\n    }\r\n\r\n    // function notifyShipper(address _shipper, string memory _idBin, string memory _date) external onlyOwner {\r\n\r\n    //     require(isShipper[_shipper], \"Shipper doesn't exist\");\r\n    //     require(isBin[_idBin], \"Bin doesn't exist\");\r\n    //     notifications[_shipper][_idBin] = Notif(_shipper, _idBin, false);\r\n    // }\r\n\r\n    function createCollection (address _shipper, string memory _idBin, string memory _date)external onlyOwner returns(string memory) {\r\n        string memory _idCollection = generateUniqueId();\r\n        require(!isCollection[_idCollection], \"Generated IDCollection already exists\");\r\n        require(isShipper[_shipper], \"Shipper doesn't exist\");\r\n        require(isBin[_idBin], \"Bin doesn't exist\");\r\n        collections[_idCollection] = Collection(_idCollection, _shipper,  _idBin, false,_date,\"Waiting\");\r\n        collectionIds.push(_idCollection);\r\n        collectionCount++;\r\n        isCollection[_idCollection] = true;\r\n        emit CollectionCreated(_idCollection);\r\n        return _idCollection;\r\n    }\r\n    function ShipWasteById(string memory _idCollection, address _shipperId) external onlyOwner {\r\n        require(isShipper[_shipperId], \"Shipper doesn't exist\");\r\n        require(isCollection[_idCollection], \"Collection doesn't exist\");\r\n        collections[_idCollection].status = \"Shipped\";\r\n        collections[_idCollection].shipperNotified = _shipperId;\r\n    }\r\n    // function getNotifByShipper(address _shipper) public view returns (Notif[] memory) {\r\n    //     Notif[] memory shipperNotifications = new Notif[](binCount);\r\n\r\n    //     for (uint256 i = 0; i < binCount; i++) {\r\n    //         string memory binId = binIds[i];\r\n    //         if (isBin[binId]) {\r\n    //             shipperNotifications[i] = notifications[_shipper][binId];\r\n    //         }\r\n    //     }\r\n\r\n    //     return shipperNotifications;\r\n    // }\r\n\r\n    // function getAllNotif() public view returns (Notif[] memory) {\r\n    //     uint256 totalNotifications = 0;\r\n    //     for (uint256 i = 0; i < shippers.length; i++) {\r\n    //         for (uint256 j = 0; j < binCount; j++) {\r\n    //             string memory binId = binIds[j];\r\n    //             if (isBin[binId] && notifications[shippers[i]][binId].shipperNotified != address(0)) {\r\n    //                 totalNotifications++;\r\n    //             }\r\n    //         }\r\n    //     }\r\n\r\n    //     Notif[] memory allNotifications = new Notif[](totalNotifications);\r\n\r\n    //     uint256 index = 0;\r\n    //     for (uint256 i = 0; i < shippers.length; i++) {\r\n    //         for (uint256 j = 0; j < binCount; j++) {\r\n    //             string memory binId = binIds[j];\r\n    //             Notif memory notification = notifications[shippers[i]][binId];\r\n    //             if (isBin[binId] && notification.shipperNotified != address(0)) {\r\n    //                 allNotifications[index] = notification;\r\n    //                 index++;\r\n    //             }\r\n    //         }\r\n    //     }\r\n\r\n    //     return allNotifications;\r\n    // }\r\n\r\n    function deleteShipper(address _shipperAddress) external onlyOwner {\r\n        for (uint256 i = 0; i < shippers.length; i++) {\r\n            if (shippers[i] == _shipperAddress) {\r\n                shippers[i] = shippers[\r\n                    shippers.length - 1\r\n                ];\r\n                shippers.pop();\r\n                isShipper[_shipperAddress]=false;\r\n                break;\r\n            }\r\n        }\r\n    }\r\n\r\n    function modifyShipper(address _shipperAddress) external onlyOwner {\r\n        require(isShipper[ _shipperAddress], \"Shipper does not exist\");\r\n        \r\n        // Emit a message after the require statement\r\n        emit ModifShipper(\"Shipper can be modified\");\r\n        \r\n        // Further logic here if needed\r\n    }\r\n                        //*****************Citizen********************//\r\n    // function createCitizen(address _citizen) external onlyOwner {\r\n    //     require(!isCitizen[_citizen], \"Citizen already exists\");\r\n    //     require(_citizen != owner, \"Cannot create citizen with owner's address\");\r\n\r\n    //     citizens.push(_citizen);\r\n    //     isCitizen[_citizen] = true;\r\n    // }\r\n\r\n    // function getCitizens() public view returns (address[] memory) {\r\n    //     return citizens;\r\n    // }\r\n\r\n    // function deleteCitizen(address _citizenAddress) external onlyOwner {\r\n    //     for (uint256 i = 0; i < citizens.length; i++) {\r\n    //         if (citizens[i] == _citizenAddress) {\r\n    //             citizens[i] = citizens[\r\n    //                 citizens.length - 1\r\n    //             ];\r\n    //             citizens.pop();\r\n    //             isCitizen[_citizenAddress]=false;\r\n    //             break;\r\n    //         }\r\n    //     }\r\n    // }\r\n    // function modifyCitizen(address _citizenAddress) external onlyOwner {\r\n    //     require(isCitizen[ _citizenAddress], \"Citizen does not exist\");\r\n        \r\n    //     // Emit a message after the require statement\r\n    //     emit ModifCitizen(\"Citizen can be modified\");\r\n        \r\n    //     // Further logic here if needed\r\n    // }\r\n    // function getIsBin(string memory _binId) external view returns (bool) {\r\n    //     require(isBin[_binId], \"Bin doesn't exist\");\r\n    //     return isBin[_binId];\r\n    // }\r\n\r\n    // function getIsCitizen(address _citizenId) external view returns (bool) {\r\n    //     require(isCitizen[_citizenId], \"Citizen doesn't exist\");\r\n    //     return isCitizen[_citizenId];\r\n    // }\r\n\r\n    // function getIsWaste(string memory _wasteId) external view returns (bool) {\r\n    //     require(isWaste[_wasteId], \"Watse doesn't exist\");\r\n    //     return isWaste[_wasteId];\r\n    // }\r\n\r\n    // function setWaste(string memory _wasteId) external  {\r\n    //     require(isWaste[_wasteId], \"Watse doesn't exist\");\r\n    //      isWaste[_wasteId]=true;\r\n    // }\r\n    //  function setWasteCount(uint256 _count) external {\r\n    //     wasteCount = _count;\r\n    // }\r\n    // function getWasteCount() external view returns (uint256) {\r\n    //     return wasteCount;\r\n    // }\r\n    // function setWastes(string memory _wasteId,Waste memory waste) external{\r\n    //     wastes[_wasteId]=waste;\r\n\r\n//    }\r\n}",
  "sourcePath": "C:\\Users\\MSI\\Desktop\\PFA_GUI - Copie\\truffle\\contracts\\WasteManagement.sol",
  "compiler": {
    "name": "solc",
    "version": "0.8.19+commit.7dd6d404.Emscripten.clang"
  },
  "schemaVersion": "3.4.16",
  "updatedAt": "2024-02-28T18:00:40.431Z",
  "networkType": "ethereum",
  "devdoc": {
    "kind": "dev",
    "methods": {},
    "version": 1
  },
  "userdoc": {
    "kind": "user",
    "methods": {},
    "version": 1
  }
}