{
  "contractName": "WasteManagement",
  "abi": [
    {
      "inputs": [],
      "stateMutability": "nonpayable",
      "type": "constructor"
    },
    {
      "anonymous": false,
      "inputs": [
        {
          "indexed": false,
          "internalType": "string",
          "name": "id",
          "type": "string"
        }
      ],
      "name": "BinCreated",
      "type": "event"
    },
    {
      "anonymous": false,
      "inputs": [
        {
          "indexed": false,
          "internalType": "string",
          "name": "message",
          "type": "string"
        }
      ],
      "name": "ModifCitizen",
      "type": "event"
    },
    {
      "anonymous": false,
      "inputs": [
        {
          "indexed": false,
          "internalType": "string",
          "name": "message",
          "type": "string"
        }
      ],
      "name": "ModifShipper",
      "type": "event"
    },
    {
      "inputs": [],
      "name": "binCount",
      "outputs": [
        {
          "internalType": "uint256",
          "name": "",
          "type": "uint256"
        }
      ],
      "stateMutability": "view",
      "type": "function",
      "constant": true
    },
    {
      "inputs": [
        {
          "internalType": "string",
          "name": "",
          "type": "string"
        }
      ],
      "name": "bins",
      "outputs": [
        {
          "internalType": "string",
          "name": "id",
          "type": "string"
        },
        {
          "internalType": "string",
          "name": "location",
          "type": "string"
        },
        {
          "internalType": "uint256",
          "name": "capacity",
          "type": "uint256"
        },
        {
          "internalType": "uint256",
          "name": "currentWeight",
          "type": "uint256"
        }
      ],
      "stateMutability": "view",
      "type": "function",
      "constant": true
    },
    {
      "inputs": [
        {
          "internalType": "address",
          "name": "",
          "type": "address"
        }
      ],
      "name": "citizenRewards",
      "outputs": [
        {
          "internalType": "uint256",
          "name": "",
          "type": "uint256"
        }
      ],
      "stateMutability": "view",
      "type": "function",
      "constant": true
    },
    {
      "inputs": [
        {
          "internalType": "address",
          "name": "",
          "type": "address"
        },
        {
          "internalType": "string",
          "name": "",
          "type": "string"
        }
      ],
      "name": "notifications",
      "outputs": [
        {
          "internalType": "address",
          "name": "shipperNotified",
          "type": "address"
        },
        {
          "internalType": "string",
          "name": "binNotif",
          "type": "string"
        },
        {
          "internalType": "bool",
          "name": "done",
          "type": "bool"
        }
      ],
      "stateMutability": "view",
      "type": "function",
      "constant": true
    },
    {
      "inputs": [],
      "name": "owner",
      "outputs": [
        {
          "internalType": "address",
          "name": "",
          "type": "address"
        }
      ],
      "stateMutability": "view",
      "type": "function",
      "constant": true
    },
    {
      "inputs": [],
      "name": "wasteCount",
      "outputs": [
        {
          "internalType": "uint256",
          "name": "",
          "type": "uint256"
        }
      ],
      "stateMutability": "view",
      "type": "function",
      "constant": true
    },
    {
      "inputs": [
        {
          "internalType": "uint256",
          "name": "",
          "type": "uint256"
        }
      ],
      "name": "wasteIds",
      "outputs": [
        {
          "internalType": "string",
          "name": "",
          "type": "string"
        }
      ],
      "stateMutability": "view",
      "type": "function",
      "constant": true
    },
    {
      "inputs": [
        {
          "internalType": "string",
          "name": "",
          "type": "string"
        }
      ],
      "name": "wastes",
      "outputs": [
        {
          "internalType": "string",
          "name": "id",
          "type": "string"
        },
        {
          "internalType": "string",
          "name": "status",
          "type": "string"
        },
        {
          "internalType": "uint256",
          "name": "weight",
          "type": "uint256"
        },
        {
          "internalType": "address",
          "name": "citizenId",
          "type": "address"
        },
        {
          "internalType": "address",
          "name": "shipperId",
          "type": "address"
        },
        {
          "internalType": "address",
          "name": "recyclerId",
          "type": "address"
        },
        {
          "internalType": "string",
          "name": "binId",
          "type": "string"
        }
      ],
      "stateMutability": "view",
      "type": "function",
      "constant": true
    },
    {
      "inputs": [
        {
          "internalType": "string",
          "name": "_location",
          "type": "string"
        },
        {
          "internalType": "uint256",
          "name": "_capacity",
          "type": "uint256"
        },
        {
          "internalType": "uint256",
          "name": "_currentWeight",
          "type": "uint256"
        }
      ],
      "name": "createBin",
      "outputs": [
        {
          "internalType": "string",
          "name": "",
          "type": "string"
        }
      ],
      "stateMutability": "nonpayable",
      "type": "function"
    },
    {
      "inputs": [
        {
          "internalType": "string",
          "name": "_id",
          "type": "string"
        },
        {
          "internalType": "string",
          "name": "_location",
          "type": "string"
        },
        {
          "internalType": "uint256",
          "name": "_capacity",
          "type": "uint256"
        },
        {
          "internalType": "uint256",
          "name": "_currentWeight",
          "type": "uint256"
        }
      ],
      "name": "modifyBin",
      "outputs": [],
      "stateMutability": "nonpayable",
      "type": "function"
    },
    {
      "inputs": [
        {
          "internalType": "string",
          "name": "_id",
          "type": "string"
        }
      ],
      "name": "deleteBin",
      "outputs": [],
      "stateMutability": "nonpayable",
      "type": "function"
    },
    {
      "inputs": [],
      "name": "getBins",
      "outputs": [
        {
          "internalType": "string[]",
          "name": "",
          "type": "string[]"
        },
        {
          "internalType": "string[]",
          "name": "",
          "type": "string[]"
        },
        {
          "internalType": "uint256[]",
          "name": "",
          "type": "uint256[]"
        },
        {
          "internalType": "uint256[]",
          "name": "",
          "type": "uint256[]"
        }
      ],
      "stateMutability": "view",
      "type": "function",
      "constant": true
    },
    {
      "inputs": [
        {
          "internalType": "address",
          "name": "_shipper",
          "type": "address"
        }
      ],
      "name": "createShipper",
      "outputs": [],
      "stateMutability": "nonpayable",
      "type": "function"
    },
    {
      "inputs": [],
      "name": "getShippers",
      "outputs": [
        {
          "internalType": "address[]",
          "name": "",
          "type": "address[]"
        }
      ],
      "stateMutability": "view",
      "type": "function",
      "constant": true
    },
    {
      "inputs": [
        {
          "internalType": "address",
          "name": "_shipper",
          "type": "address"
        },
        {
          "internalType": "string",
          "name": "_idBin",
          "type": "string"
        }
      ],
      "name": "notifyShipper",
      "outputs": [],
      "stateMutability": "nonpayable",
      "type": "function"
    },
    {
      "inputs": [
        {
          "internalType": "address",
          "name": "_shipper",
          "type": "address"
        }
      ],
      "name": "getNotifByShipper",
      "outputs": [
        {
          "components": [
            {
              "internalType": "address",
              "name": "shipperNotified",
              "type": "address"
            },
            {
              "internalType": "string",
              "name": "binNotif",
              "type": "string"
            },
            {
              "internalType": "bool",
              "name": "done",
              "type": "bool"
            }
          ],
          "internalType": "struct WasteManagement.Notif[]",
          "name": "",
          "type": "tuple[]"
        }
      ],
      "stateMutability": "view",
      "type": "function",
      "constant": true
    },
    {
      "inputs": [],
      "name": "getAllNotif",
      "outputs": [
        {
          "components": [
            {
              "internalType": "address",
              "name": "shipperNotified",
              "type": "address"
            },
            {
              "internalType": "string",
              "name": "binNotif",
              "type": "string"
            },
            {
              "internalType": "bool",
              "name": "done",
              "type": "bool"
            }
          ],
          "internalType": "struct WasteManagement.Notif[]",
          "name": "",
          "type": "tuple[]"
        }
      ],
      "stateMutability": "view",
      "type": "function",
      "constant": true
    },
    {
      "inputs": [
        {
          "internalType": "address",
          "name": "_shipperAddress",
          "type": "address"
        }
      ],
      "name": "deleteShipper",
      "outputs": [],
      "stateMutability": "nonpayable",
      "type": "function"
    },
    {
      "inputs": [
        {
          "internalType": "address",
          "name": "_shipperAddress",
          "type": "address"
        }
      ],
      "name": "modifyShipper",
      "outputs": [],
      "stateMutability": "nonpayable",
      "type": "function"
    }
  ],
  "bytecode": "0x6080604052734494f3bb19f95bb33ec116887b9dbd728c008f9b600760006101000a81548173ffffffffffffffffffffffffffffffffffffffff021916908373ffffffffffffffffffffffffffffffffffffffff16021790555034801561006557600080fd5b5033600d60006101000a81548173ffffffffffffffffffffffffffffffffffffffff021916908373ffffffffffffffffffffffffffffffffffffffff160217905550613dad806100b66000396000f3fe608060405234801561001057600080fd5b50600436106101215760003560e01c80638da5cb5b116100ad578063cc3b2e8811610071578063cc3b2e8814610339578063ce4717df14610357578063d597280214610373578063df129891146103a3578063e042a402146103bf57610121565b80638da5cb5b146102975780638e44b615146102b5578063963464f1146102e5578063aef16e7614610301578063c9b5ac5b1461031d57610121565b80634a19d56d116100f45780634a19d56d146101b1578063537a828f146101e75780636a10fe941461021757806378bfbc281461023557806381d066331461026757610121565b80630977c961146101265780630ebc36981461014457806313a172f3146101605780631620739314610193575b600080fd5b61012e6103e0565b60405161013b9190612994565b60405180910390f35b61015e60048036038101906101599190612b2b565b6109a4565b005b61017a60048036038101906101759190612b87565b610c3e565b60405161018a9493929190612c33565b60405180910390f35b61019b610d94565b6040516101a89190612c86565b60405180910390f35b6101cb60048036038101906101c69190612b87565b610d9a565b6040516101de9796959493929190612cb0565b60405180910390f35b61020160048036038101906101fc9190612d60565b610fea565b60405161020e9190612d8d565b60405180910390f35b61021f611096565b60405161022c9190612e5e565b60405180910390f35b61024f600480360381019061024a9190612b2b565b611124565b60405161025e93929190612e8f565b60405180910390f35b610281600480360381019061027c9190612ecd565b611226565b60405161028e9190612d8d565b60405180910390f35b61029f611478565b6040516102ac9190612f3c565b60405180910390f35b6102cf60048036038101906102ca9190612f57565b61149e565b6040516102dc9190612994565b60405180910390f35b6102ff60048036038101906102fa9190612f57565b611789565b005b61031b60048036038101906103169190612f84565b611964565b005b61033760048036038101906103329190612f57565b611ae7565b005b610341611c3b565b60405161034e9190612c86565b60405180910390f35b610371600480360381019061036c9190612b87565b611c41565b005b61038d60048036038101906103889190612f57565b611f37565b60405161039a9190612c86565b60405180910390f35b6103bd60048036038101906103b89190612f57565b611f4f565b005b6103c76121c7565b6040516103d794939291906131a3565b60405180910390f35b60606000805b6008805490508110156106085760005b6001548110156105f45760006003828154811061041657610415613204565b5b90600052602060002001805461042b90613262565b80601f016020809104026020016040519081016040528092919081815260200182805461045790613262565b80156104a45780601f10610479576101008083540402835291602001916104a4565b820191906000526020600020905b81548152906001019060200180831161048757829003601f168201915b505050505090506009816040516104bb91906132cf565b908152602001604051809103902060009054906101000a900460ff1680156105cc5750600073ffffffffffffffffffffffffffffffffffffffff16600e60006008868154811061050e5761050d613204565b5b9060005260206000200160009054906101000a900473ffffffffffffffffffffffffffffffffffffffff1673ffffffffffffffffffffffffffffffffffffffff1673ffffffffffffffffffffffffffffffffffffffff1681526020019081526020016000208260405161058191906132cf565b908152602001604051809103902060000160009054906101000a900473ffffffffffffffffffffffffffffffffffffffff1673ffffffffffffffffffffffffffffffffffffffff1614155b156105e05783806105dc90613315565b9450505b5080806105ec90613315565b9150506103f6565b50808061060090613315565b9150506103e6565b5060008167ffffffffffffffff81111561062557610624612a00565b5b60405190808252806020026020018201604052801561065e57816020015b61064b612700565b8152602001906001900390816106435790505b5090506000805b60088054905081101561099a5760005b6001548110156109865760006003828154811061069557610694613204565b5b9060005260206000200180546106aa90613262565b80601f01602080910402602001604051908101604052809291908181526020018280546106d690613262565b80156107235780601f106106f857610100808354040283529160200191610723565b820191906000526020600020905b81548152906001019060200180831161070657829003601f168201915b505050505090506000600e60006008868154811061074457610743613204565b5b9060005260206000200160009054906101000a900473ffffffffffffffffffffffffffffffffffffffff1673ffffffffffffffffffffffffffffffffffffffff1673ffffffffffffffffffffffffffffffffffffffff168152602001908152602001600020826040516107b791906132cf565b90815260200160405180910390206040518060600160405290816000820160009054906101000a900473ffffffffffffffffffffffffffffffffffffffff1673ffffffffffffffffffffffffffffffffffffffff1673ffffffffffffffffffffffffffffffffffffffff16815260200160018201805461083690613262565b80601f016020809104026020016040519081016040528092919081815260200182805461086290613262565b80156108af5780601f10610884576101008083540402835291602001916108af565b820191906000526020600020905b81548152906001019060200180831161089257829003601f168201915b505050505081526020016002820160009054906101000a900460ff16151515158152505090506009826040516108e591906132cf565b908152602001604051809103902060009054906101000a900460ff16801561093e5750600073ffffffffffffffffffffffffffffffffffffffff16816000015173ffffffffffffffffffffffffffffffffffffffff1614155b15610971578086868151811061095757610956613204565b5b6020026020010181905250848061096d90613315565b9550505b5050808061097e90613315565b915050610675565b50808061099290613315565b915050610665565b5081935050505090565b600d60009054906101000a900473ffffffffffffffffffffffffffffffffffffffff1673ffffffffffffffffffffffffffffffffffffffff163373ffffffffffffffffffffffffffffffffffffffff1614610a34576040517f08c379a0000000000000000000000000000000000000000000000000000000008152600401610a2b906133cf565b60405180910390fd5b600c60008373ffffffffffffffffffffffffffffffffffffffff1673ffffffffffffffffffffffffffffffffffffffff16815260200190815260200160002060009054906101000a900460ff16610ac0576040517f08c379a0000000000000000000000000000000000000000000000000000000008152600401610ab79061343b565b60405180910390fd5b600981604051610ad091906132cf565b908152602001604051809103902060009054906101000a900460ff16610b2b576040517f08c379a0000000000000000000000000000000000000000000000000000000008152600401610b22906134a7565b60405180910390fd5b60405180606001604052808373ffffffffffffffffffffffffffffffffffffffff16815260200182815260200160001515815250600e60008473ffffffffffffffffffffffffffffffffffffffff1673ffffffffffffffffffffffffffffffffffffffff16815260200190815260200160002082604051610bac91906132cf565b908152602001604051809103902060008201518160000160006101000a81548173ffffffffffffffffffffffffffffffffffffffff021916908373ffffffffffffffffffffffffffffffffffffffff1602179055506020820151816001019081610c169190613673565b5060408201518160020160006101000a81548160ff0219169083151502179055509050505050565b600281805160208101820180518482526020830160208501208183528095505050505050600091509050806000018054610c7790613262565b80601f0160208091040260200160405190810160405280929190818152602001828054610ca390613262565b8015610cf05780601f10610cc557610100808354040283529160200191610cf0565b820191906000526020600020905b815481529060010190602001808311610cd357829003601f168201915b505050505090806001018054610d0590613262565b80601f0160208091040260200160405190810160405280929190818152602001828054610d3190613262565b8015610d7e5780601f10610d5357610100808354040283529160200191610d7e565b820191906000526020600020905b815481529060010190602001808311610d6157829003601f168201915b5050505050908060020154908060030154905084565b60005481565b600581805160208101820180518482526020830160208501208183528095505050505050600091509050806000018054610dd390613262565b80601f0160208091040260200160405190810160405280929190818152602001828054610dff90613262565b8015610e4c5780601f10610e2157610100808354040283529160200191610e4c565b820191906000526020600020905b815481529060010190602001808311610e2f57829003601f168201915b505050505090806001018054610e6190613262565b80601f0160208091040260200160405190810160405280929190818152602001828054610e8d90613262565b8015610eda5780601f10610eaf57610100808354040283529160200191610eda565b820191906000526020600020905b815481529060010190602001808311610ebd57829003601f168201915b5050505050908060020154908060030160009054906101000a900473ffffffffffffffffffffffffffffffffffffffff16908060040160009054906101000a900473ffffffffffffffffffffffffffffffffffffffff16908060050160009054906101000a900473ffffffffffffffffffffffffffffffffffffffff1690806006018054610f6790613262565b80601f0160208091040260200160405190810160405280929190818152602001828054610f9390613262565b8015610fe05780601f10610fb557610100808354040283529160200191610fe0565b820191906000526020600020905b815481529060010190602001808311610fc357829003601f168201915b5050505050905087565b60048181548110610ffa57600080fd5b90600052602060002001600091509050805461101590613262565b80601f016020809104026020016040519081016040528092919081815260200182805461104190613262565b801561108e5780601f106110635761010080835404028352916020019161108e565b820191906000526020600020905b81548152906001019060200180831161107157829003601f168201915b505050505081565b6060600880548060200260200160405190810160405280929190818152602001828054801561111a57602002820191906000526020600020905b8160009054906101000a900473ffffffffffffffffffffffffffffffffffffffff1673ffffffffffffffffffffffffffffffffffffffff16815260200190600101908083116110d0575b5050505050905090565b600e60205281600052604060002081805160208101820180518482526020830160208501208183528095505050505050600091509150508060000160009054906101000a900473ffffffffffffffffffffffffffffffffffffffff169080600101805461119090613262565b80601f01602080910402602001604051908101604052809291908181526020018280546111bc90613262565b80156112095780601f106111de57610100808354040283529160200191611209565b820191906000526020600020905b8154815290600101906020018083116111ec57829003601f168201915b5050505050908060020160009054906101000a900460ff16905083565b6060600d60009054906101000a900473ffffffffffffffffffffffffffffffffffffffff1673ffffffffffffffffffffffffffffffffffffffff163373ffffffffffffffffffffffffffffffffffffffff16146112b8576040517f08c379a00000000000000000000000000000000000000000000000000000000081526004016112af906133cf565b60405180910390fd5b60006112c261255b565b90506009816040516112d491906132cf565b908152602001604051809103902060009054906101000a900460ff1615611330576040517f08c379a000000000000000000000000000000000000000000000000000000000815260040161132790613791565b60405180910390fd5b60405180608001604052808281526020018681526020018581526020018481525060028260405161136191906132cf565b908152602001604051809103902060008201518160000190816113849190613673565b50602082015181600101908161139a9190613673565b5060408201518160020155606082015181600301559050506003819080600181540180825580915050600190039060005260206000200160009091909190915090816113e69190613673565b50600160008154809291906113fa90613315565b9190505550600160098260405161141191906132cf565b908152602001604051809103902060006101000a81548160ff0219169083151502179055507fd5413a7934f1aa973af7bc53f68df06953b49031401619e5997d54afb849377e816040516114659190612d8d565b60405180910390a1809150509392505050565b600d60009054906101000a900473ffffffffffffffffffffffffffffffffffffffff1681565b6060600060015467ffffffffffffffff8111156114be576114bd612a00565b5b6040519080825280602002602001820160405280156114f757816020015b6114e4612700565b8152602001906001900390816114dc5790505b50905060005b60015481101561177f5760006003828154811061151d5761151c613204565b5b90600052602060002001805461153290613262565b80601f016020809104026020016040519081016040528092919081815260200182805461155e90613262565b80156115ab5780601f10611580576101008083540402835291602001916115ab565b820191906000526020600020905b81548152906001019060200180831161158e57829003601f168201915b505050505090506009816040516115c291906132cf565b908152602001604051809103902060009054906101000a900460ff161561176b57600e60008673ffffffffffffffffffffffffffffffffffffffff1673ffffffffffffffffffffffffffffffffffffffff1681526020019081526020016000208160405161163091906132cf565b90815260200160405180910390206040518060600160405290816000820160009054906101000a900473ffffffffffffffffffffffffffffffffffffffff1673ffffffffffffffffffffffffffffffffffffffff1673ffffffffffffffffffffffffffffffffffffffff1681526020016001820180546116af90613262565b80601f01602080910402602001604051908101604052809291908181526020018280546116db90613262565b80156117285780601f106116fd57610100808354040283529160200191611728565b820191906000526020600020905b81548152906001019060200180831161170b57829003601f168201915b505050505081526020016002820160009054906101000a900460ff16151515158152505083838151811061175f5761175e613204565b5b60200260200101819052505b50808061177790613315565b9150506114fd565b5080915050919050565b600d60009054906101000a900473ffffffffffffffffffffffffffffffffffffffff1673ffffffffffffffffffffffffffffffffffffffff163373ffffffffffffffffffffffffffffffffffffffff1614611819576040517f08c379a0000000000000000000000000000000000000000000000000000000008152600401611810906133cf565b60405180910390fd5b600c60008273ffffffffffffffffffffffffffffffffffffffff1673ffffffffffffffffffffffffffffffffffffffff16815260200190815260200160002060009054906101000a900460ff16156118a6576040517f08c379a000000000000000000000000000000000000000000000000000000000815260040161189d906137fd565b60405180910390fd5b6008819080600181540180825580915050600190039060005260206000200160009091909190916101000a81548173ffffffffffffffffffffffffffffffffffffffff021916908373ffffffffffffffffffffffffffffffffffffffff1602179055506001600c60008373ffffffffffffffffffffffffffffffffffffffff1673ffffffffffffffffffffffffffffffffffffffff16815260200190815260200160002060006101000a81548160ff02191690831515021790555050565b600d60009054906101000a900473ffffffffffffffffffffffffffffffffffffffff1673ffffffffffffffffffffffffffffffffffffffff163373ffffffffffffffffffffffffffffffffffffffff16146119f4576040517f08c379a00000000000000000000000000000000000000000000000000000000081526004016119eb906133cf565b60405180910390fd5b600984604051611a0491906132cf565b908152602001604051809103902060009054906101000a900460ff16611a5f576040517f08c379a0000000000000000000000000000000000000000000000000000000008152600401611a5690613869565b60405180910390fd5b604051806080016040528085815260200184815260200183815260200182815250600285604051611a9091906132cf565b90815260200160405180910390206000820151816000019081611ab39190613673565b506020820151816001019081611ac99190613673565b50604082015181600201556060820151816003015590505050505050565b600d60009054906101000a900473ffffffffffffffffffffffffffffffffffffffff1673ffffffffffffffffffffffffffffffffffffffff163373ffffffffffffffffffffffffffffffffffffffff1614611b77576040517f08c379a0000000000000000000000000000000000000000000000000000000008152600401611b6e906133cf565b60405180910390fd5b600c60008273ffffffffffffffffffffffffffffffffffffffff1673ffffffffffffffffffffffffffffffffffffffff16815260200190815260200160002060009054906101000a900460ff16611c03576040517f08c379a0000000000000000000000000000000000000000000000000000000008152600401611bfa906138d5565b60405180910390fd5b7f7d0afd94fbb67c41dce82b00240b23eb17cd64b8971fe1b722eee0363a2dede0604051611c3090613941565b60405180910390a150565b60015481565b600d60009054906101000a900473ffffffffffffffffffffffffffffffffffffffff1673ffffffffffffffffffffffffffffffffffffffff163373ffffffffffffffffffffffffffffffffffffffff1614611cd1576040517f08c379a0000000000000000000000000000000000000000000000000000000008152600401611cc8906133cf565b60405180910390fd5b600981604051611ce191906132cf565b908152602001604051809103902060009054906101000a900460ff16611d3c576040517f08c379a0000000000000000000000000000000000000000000000000000000008152600401611d3390613869565b60405180910390fd5b6000600982604051611d4e91906132cf565b908152602001604051809103902060006101000a81548160ff021916908315150217905550600281604051611d8391906132cf565b908152602001604051809103902060008082016000611da29190612739565b600182016000611db29190612739565b60028201600090556003820160009055505060005b600380549050811015611f1b57818051906020012060038281548110611df057611def613204565b5b90600052602060002001604051611e079190613a04565b604051809103902003611f085760008190505b6001600380549050611e2c9190613a1b565b811015611e9b576003600182611e429190613a4f565b81548110611e5357611e52613204565b5b9060005260206000200160038281548110611e7157611e70613204565b5b906000526020600020019081611e879190613aae565b508080611e9390613315565b915050611e1a565b506003805480611eae57611ead613b96565b5b600190038181906000526020600020016000611eca9190612739565b90556000600983604051611ede91906132cf565b908152602001604051809103902060006101000a81548160ff021916908315150217905550611f1b565b8080611f1390613315565b915050611dc7565b5060016000815480929190611f2f90613bc5565b919050555050565b600f6020528060005260406000206000915090505481565b600d60009054906101000a900473ffffffffffffffffffffffffffffffffffffffff1673ffffffffffffffffffffffffffffffffffffffff163373ffffffffffffffffffffffffffffffffffffffff1614611fdf576040517f08c379a0000000000000000000000000000000000000000000000000000000008152600401611fd6906133cf565b60405180910390fd5b60005b6008805490508110156121c3578173ffffffffffffffffffffffffffffffffffffffff166008828154811061201a57612019613204565b5b9060005260206000200160009054906101000a900473ffffffffffffffffffffffffffffffffffffffff1673ffffffffffffffffffffffffffffffffffffffff16036121b057600860016008805490506120749190613a1b565b8154811061208557612084613204565b5b9060005260206000200160009054906101000a900473ffffffffffffffffffffffffffffffffffffffff16600882815481106120c4576120c3613204565b5b9060005260206000200160006101000a81548173ffffffffffffffffffffffffffffffffffffffff021916908373ffffffffffffffffffffffffffffffffffffffff160217905550600880548061211e5761211d613b96565b5b6001900381819060005260206000200160006101000a81549073ffffffffffffffffffffffffffffffffffffffff021916905590556000600c60008473ffffffffffffffffffffffffffffffffffffffff1673ffffffffffffffffffffffffffffffffffffffff16815260200190815260200160002060006101000a81548160ff0219169083151502179055506121c3565b80806121bb90613315565b915050611fe2565b5050565b606080606080600060015467ffffffffffffffff8111156121eb576121ea612a00565b5b60405190808252806020026020018201604052801561221e57816020015b60608152602001906001900390816122095790505b509050600060015467ffffffffffffffff81111561223f5761223e612a00565b5b60405190808252806020026020018201604052801561227257816020015b606081526020019060019003908161225d5790505b509050600060015467ffffffffffffffff81111561229357612292612a00565b5b6040519080825280602002602001820160405280156122c15781602001602082028036833780820191505090505b509050600060015467ffffffffffffffff8111156122e2576122e1612a00565b5b6040519080825280602002602001820160405280156123105781602001602082028036833780820191505090505b50905060005b60015481101561254457600060026003838154811061233857612337613204565b5b9060005260206000200160405161234f9190613c71565b908152602001604051809103902060405180608001604052908160008201805461237890613262565b80601f01602080910402602001604051908101604052809291908181526020018280546123a490613262565b80156123f15780601f106123c6576101008083540402835291602001916123f1565b820191906000526020600020905b8154815290600101906020018083116123d457829003601f168201915b5050505050815260200160018201805461240a90613262565b80601f016020809104026020016040519081016040528092919081815260200182805461243690613262565b80156124835780601f1061245857610100808354040283529160200191612483565b820191906000526020600020905b81548152906001019060200180831161246657829003601f168201915b5050505050815260200160028201548152602001600382015481525050905080600001518683815181106124ba576124b9613204565b5b602002602001018190525080602001518583815181106124dd576124dc613204565b5b60200260200101819052508060400151848381518110612500576124ff613204565b5b602002602001018181525050806060015183838151811061252457612523613204565b5b60200260200101818152505050808061253c90613315565b915050612316565b508383838397509750975097505050505090919293565b60606000424460015460405160200161257693929190613ca9565b60405160208183030381529060405280519060200120905061259a8160001c6125a0565b91505090565b6060600082036125e7576040518060400160405280600181526020017f300000000000000000000000000000000000000000000000000000000000000081525090506126fb565b600082905060005b6000821461261957808061260290613315565b915050600a826126129190613d15565b91506125ef565b60008167ffffffffffffffff81111561263557612634612a00565b5b6040519080825280601f01601f1916602001820160405280156126675781602001600182028036833780820191505090505b5090505b600085146126f4576001826126809190613a1b565b9150600a8561268f9190613d46565b603061269b9190613a4f565b60f81b8183815181106126b1576126b0613204565b5b60200101907effffffffffffffffffffffffffffffffffffffffffffffffffffffffffffff1916908160001a905350600a856126ed9190613d15565b945061266b565b8093505050505b919050565b6040518060600160405280600073ffffffffffffffffffffffffffffffffffffffff168152602001606081526020016000151581525090565b50805461274590613262565b6000825580601f106127575750612776565b601f0160209004906000526020600020908101906127759190612779565b5b50565b5b8082111561279257600081600090555060010161277a565b5090565b600081519050919050565b600082825260208201905092915050565b6000819050602082019050919050565b600073ffffffffffffffffffffffffffffffffffffffff82169050919050565b60006127ed826127c2565b9050919050565b6127fd816127e2565b82525050565b600081519050919050565b600082825260208201905092915050565b60005b8381101561283d578082015181840152602081019050612822565b60008484015250505050565b6000601f19601f8301169050919050565b600061286582612803565b61286f818561280e565b935061287f81856020860161281f565b61288881612849565b840191505092915050565b60008115159050919050565b6128a881612893565b82525050565b60006060830160008301516128c660008601826127f4565b50602083015184820360208601526128de828261285a565b91505060408301516128f3604086018261289f565b508091505092915050565b600061290a83836128ae565b905092915050565b6000602082019050919050565b600061292a82612796565b61293481856127a1565b935083602082028501612946856127b2565b8060005b85811015612982578484038952815161296385826128fe565b945061296e83612912565b925060208a0199505060018101905061294a565b50829750879550505050505092915050565b600060208201905081810360008301526129ae818461291f565b905092915050565b6000604051905090565b600080fd5b600080fd5b6129d3816127e2565b81146129de57600080fd5b50565b6000813590506129f0816129ca565b92915050565b600080fd5b600080fd5b7f4e487b7100000000000000000000000000000000000000000000000000000000600052604160045260246000fd5b612a3882612849565b810181811067ffffffffffffffff82111715612a5757612a56612a00565b5b80604052505050565b6000612a6a6129b6565b9050612a768282612a2f565b919050565b600067ffffffffffffffff821115612a9657612a95612a00565b5b612a9f82612849565b9050602081019050919050565b82818337600083830152505050565b6000612ace612ac984612a7b565b612a60565b905082815260208101848484011115612aea57612ae96129fb565b5b612af5848285612aac565b509392505050565b600082601f830112612b1257612b116129f6565b5b8135612b22848260208601612abb565b91505092915050565b60008060408385031215612b4257612b416129c0565b5b6000612b50858286016129e1565b925050602083013567ffffffffffffffff811115612b7157612b706129c5565b5b612b7d85828601612afd565b9150509250929050565b600060208284031215612b9d57612b9c6129c0565b5b600082013567ffffffffffffffff811115612bbb57612bba6129c5565b5b612bc784828501612afd565b91505092915050565b600082825260208201905092915050565b6000612bec82612803565b612bf68185612bd0565b9350612c0681856020860161281f565b612c0f81612849565b840191505092915050565b6000819050919050565b612c2d81612c1a565b82525050565b60006080820190508181036000830152612c4d8187612be1565b90508181036020830152612c618186612be1565b9050612c706040830185612c24565b612c7d6060830184612c24565b95945050505050565b6000602082019050612c9b6000830184612c24565b92915050565b612caa816127e2565b82525050565b600060e0820190508181036000830152612cca818a612be1565b90508181036020830152612cde8189612be1565b9050612ced6040830188612c24565b612cfa6060830187612ca1565b612d076080830186612ca1565b612d1460a0830185612ca1565b81810360c0830152612d268184612be1565b905098975050505050505050565b612d3d81612c1a565b8114612d4857600080fd5b50565b600081359050612d5a81612d34565b92915050565b600060208284031215612d7657612d756129c0565b5b6000612d8484828501612d4b565b91505092915050565b60006020820190508181036000830152612da78184612be1565b905092915050565b600081519050919050565b600082825260208201905092915050565b6000819050602082019050919050565b6000612de783836127f4565b60208301905092915050565b6000602082019050919050565b6000612e0b82612daf565b612e158185612dba565b9350612e2083612dcb565b8060005b83811015612e51578151612e388882612ddb565b9750612e4383612df3565b925050600181019050612e24565b5085935050505092915050565b60006020820190508181036000830152612e788184612e00565b905092915050565b612e8981612893565b82525050565b6000606082019050612ea46000830186612ca1565b8181036020830152612eb68185612be1565b9050612ec56040830184612e80565b949350505050565b600080600060608486031215612ee657612ee56129c0565b5b600084013567ffffffffffffffff811115612f0457612f036129c5565b5b612f1086828701612afd565b9350506020612f2186828701612d4b565b9250506040612f3286828701612d4b565b9150509250925092565b6000602082019050612f516000830184612ca1565b92915050565b600060208284031215612f6d57612f6c6129c0565b5b6000612f7b848285016129e1565b91505092915050565b60008060008060808587031215612f9e57612f9d6129c0565b5b600085013567ffffffffffffffff811115612fbc57612fbb6129c5565b5b612fc887828801612afd565b945050602085013567ffffffffffffffff811115612fe957612fe86129c5565b5b612ff587828801612afd565b935050604061300687828801612d4b565b925050606061301787828801612d4b565b91505092959194509250565b600081519050919050565b600082825260208201905092915050565b6000819050602082019050919050565b600061305b838361285a565b905092915050565b6000602082019050919050565b600061307b82613023565b613085818561302e565b9350836020820285016130978561303f565b8060005b858110156130d357848403895281516130b4858261304f565b94506130bf83613063565b925060208a0199505060018101905061309b565b50829750879550505050505092915050565b600081519050919050565b600082825260208201905092915050565b6000819050602082019050919050565b61311a81612c1a565b82525050565b600061312c8383613111565b60208301905092915050565b6000602082019050919050565b6000613150826130e5565b61315a81856130f0565b935061316583613101565b8060005b8381101561319657815161317d8882613120565b975061318883613138565b925050600181019050613169565b5085935050505092915050565b600060808201905081810360008301526131bd8187613070565b905081810360208301526131d18186613070565b905081810360408301526131e58185613145565b905081810360608301526131f98184613145565b905095945050505050565b7f4e487b7100000000000000000000000000000000000000000000000000000000600052603260045260246000fd5b7f4e487b7100000000000000000000000000000000000000000000000000000000600052602260045260246000fd5b6000600282049050600182168061327a57607f821691505b60208210810361328d5761328c613233565b5b50919050565b600081905092915050565b60006132a982612803565b6132b38185613293565b93506132c381856020860161281f565b80840191505092915050565b60006132db828461329e565b915081905092915050565b7f4e487b7100000000000000000000000000000000000000000000000000000000600052601160045260246000fd5b600061332082612c1a565b91507fffffffffffffffffffffffffffffffffffffffffffffffffffffffffffffffff8203613352576133516132e6565b5b600182019050919050565b7f4f6e6c79206f776e65722063616e2063616c6c20746869732066756e6374696f60008201527f6e00000000000000000000000000000000000000000000000000000000000000602082015250565b60006133b9602183612bd0565b91506133c48261335d565b604082019050919050565b600060208201905081810360008301526133e8816133ac565b9050919050565b7f5368697070657220646f65736e27742065786973740000000000000000000000600082015250565b6000613425601583612bd0565b9150613430826133ef565b602082019050919050565b6000602082019050818103600083015261345481613418565b9050919050565b7f42696e20646f65736e2774206578697374000000000000000000000000000000600082015250565b6000613491601183612bd0565b915061349c8261345b565b602082019050919050565b600060208201905081810360008301526134c081613484565b9050919050565b60008190508160005260206000209050919050565b60006020601f8301049050919050565b600082821b905092915050565b6000600883026135297fffffffffffffffffffffffffffffffffffffffffffffffffffffffffffffffff826134ec565b61353386836134ec565b95508019841693508086168417925050509392505050565b6000819050919050565b600061357061356b61356684612c1a565b61354b565b612c1a565b9050919050565b6000819050919050565b61358a83613555565b61359e61359682613577565b8484546134f9565b825550505050565b600090565b6135b36135a6565b6135be818484613581565b505050565b5b818110156135e2576135d76000826135ab565b6001810190506135c4565b5050565b601f821115613627576135f8816134c7565b613601846134dc565b81016020851015613610578190505b61362461361c856134dc565b8301826135c3565b50505b505050565b600082821c905092915050565b600061364a6000198460080261362c565b1980831691505092915050565b60006136638383613639565b9150826002028217905092915050565b61367c82612803565b67ffffffffffffffff81111561369557613694612a00565b5b61369f8254613262565b6136aa8282856135e6565b600060209050601f8311600181146136dd57600084156136cb578287015190505b6136d58582613657565b86555061373d565b601f1984166136eb866134c7565b60005b82811015613713578489015182556001820191506020850194506020810190506136ee565b86831015613730578489015161372c601f891682613639565b8355505b6001600288020188555050505b505050505050565b7f47656e65726174656420494420616c7265616479206578697374730000000000600082015250565b600061377b601b83612bd0565b915061378682613745565b602082019050919050565b600060208201905081810360008301526137aa8161376e565b9050919050565b7f5368697070657220616c72656164792065786973747300000000000000000000600082015250565b60006137e7601683612bd0565b91506137f2826137b1565b602082019050919050565b60006020820190508181036000830152613816816137da565b9050919050565b7f42696e20646f6573206e6f742065786973740000000000000000000000000000600082015250565b6000613853601283612bd0565b915061385e8261381d565b602082019050919050565b6000602082019050818103600083015261388281613846565b9050919050565b7f5368697070657220646f6573206e6f7420657869737400000000000000000000600082015250565b60006138bf601683612bd0565b91506138ca82613889565b602082019050919050565b600060208201905081810360008301526138ee816138b2565b9050919050565b7f536869707065722063616e206265206d6f646966696564000000000000000000600082015250565b600061392b601783612bd0565b9150613936826138f5565b602082019050919050565b6000602082019050818103600083015261395a8161391e565b9050919050565b600081905092915050565b60008190508160005260206000209050919050565b6000815461398e81613262565b6139988186613961565b945060018216600081146139b357600181146139c8576139fb565b60ff19831686528115158202860193506139fb565b6139d18561396c565b60005b838110156139f3578154818901526001820191506020810190506139d4565b838801955050505b50505092915050565b6000613a108284613981565b915081905092915050565b6000613a2682612c1a565b9150613a3183612c1a565b9250828203905081811115613a4957613a486132e6565b5b92915050565b6000613a5a82612c1a565b9150613a6583612c1a565b9250828201905080821115613a7d57613a7c6132e6565b5b92915050565b600081549050613a9281613262565b9050919050565b60008190508160005260206000209050919050565b818103613abc575050613b94565b613ac582613a83565b67ffffffffffffffff811115613ade57613add612a00565b5b613ae88254613262565b613af38282856135e6565b6000601f831160018114613b225760008415613b10578287015490505b613b1a8582613657565b865550613b8d565b601f198416613b3087613a99565b9650613b3b866134c7565b60005b82811015613b6357848901548255600182019150600185019450602081019050613b3e565b86831015613b805784890154613b7c601f891682613639565b8355505b6001600288020188555050505b5050505050505b565b7f4e487b7100000000000000000000000000000000000000000000000000000000600052603160045260246000fd5b6000613bd082612c1a565b915060008203613be357613be26132e6565b5b600182039050919050565b60008154613bfb81613262565b613c058186613293565b94506001821660008114613c205760018114613c3557613c68565b60ff1983168652811515820286019350613c68565b613c3e856134c7565b60005b83811015613c6057815481890152600182019150602081019050613c41565b838801955050505b50505092915050565b6000613c7d8284613bee565b915081905092915050565b6000819050919050565b613ca3613c9e82612c1a565b613c88565b82525050565b6000613cb58286613c92565b602082019150613cc58285613c92565b602082019150613cd58284613c92565b602082019150819050949350505050565b7f4e487b7100000000000000000000000000000000000000000000000000000000600052601260045260246000fd5b6000613d2082612c1a565b9150613d2b83612c1a565b925082613d3b57613d3a613ce6565b5b828204905092915050565b6000613d5182612c1a565b9150613d5c83612c1a565b925082613d6c57613d6b613ce6565b5b82820690509291505056fea26469706673582212208aad22cb327ac132427b7c788be0d0288e72d2fb543150331578ba13caa3524464736f6c63430008130033",
  "immutableReferences": {},
  "source": "// SPDX-License-Identifier: MIT\r\npragma solidity ^0.8.0;\r\n\r\ncontract WasteManagement {\r\n    struct Bin {\r\n        string id; // Changed type to string\r\n        string location;\r\n        uint256 capacity;\r\n        uint256 currentWeight;\r\n    }\r\n    struct Waste {\r\n        string id;\r\n        string status;\r\n        uint256 weight;\r\n        address citizenId;\r\n        address shipperId;\r\n        address recyclerId;\r\n        string binId; // Changed type to string\r\n    }\r\n    struct Notif {\r\n        address shipperNotified;\r\n        string binNotif; // Changed type to string\r\n        bool done;\r\n    }\r\n    event BinCreated(string id);\r\n    event ModifShipper(string message);\r\n    event ModifCitizen(string message);\r\n    uint256 public wasteCount;\r\n    uint256 public binCount;\r\n    mapping(string => Bin) public bins; // Changed key type to string\r\n    string[] binIds; // Changed type to string\r\n    string[] public wasteIds; // Changed type to string\r\n    mapping(string => Waste) public wastes; // Changed key type to string\r\n    address[] citizens;\r\n    address recycler = address(0x4494f3bb19F95BB33EC116887b9dbd728C008f9b);\r\n    address[] shippers;\r\n    mapping(string => bool) isBin;\r\n    mapping(string => bool) isWaste;\r\n    mapping(address => bool) isCitizen;\r\n    mapping(address => bool) isShipper;\r\n    address public owner;\r\n    mapping(address => mapping(string => Notif)) public notifications; // Changed key type to string\r\n    mapping(address => uint256) public citizenRewards;\r\n    \r\n\r\n\r\n    modifier onlyOwner() {\r\n        require(msg.sender == owner, \"Only owner can call this function\");\r\n        _;\r\n    }\r\n\r\n    constructor() {\r\n        owner = msg.sender;\r\n    }\r\n\r\n\r\n\r\n                     //*************Bin************//\r\n    function createBin(string memory _location,  uint256 _capacity, uint256 _currentWeight) external onlyOwner returns (string memory) {\r\n        string memory _id = generateUniqueId();\r\n        require(!isBin[_id], \"Generated ID already exists\");\r\n        bins[_id] = Bin(_id, _location,  _capacity, _currentWeight);\r\n        binIds.push(_id);\r\n        binCount++;\r\n        isBin[_id] = true;\r\n        emit BinCreated(_id);\r\n        return _id;\r\n    }\r\n\r\n    function modifyBin(string memory _id, string memory _location,  uint256 _capacity, uint256 _currentWeight) external onlyOwner {\r\n        require(isBin[_id], \"Bin does not exist\");\r\n        bins[_id] = Bin(_id, _location,  _capacity, _currentWeight);\r\n    }\r\n\r\n    function deleteBin(string memory _id) external onlyOwner {\r\n        require(isBin[_id], \"Bin does not exist\");\r\n        \r\n        // Update mappings and arrays\r\n        isBin[_id] = false;\r\n        delete bins[_id];\r\n        \r\n        // Find and remove the bin ID from binIds array\r\n        for (uint256 i = 0; i < binIds.length; i++) {\r\n            if (keccak256(bytes(binIds[i])) == keccak256(bytes(_id))) {\r\n                for (uint256 j = i; j < binIds.length - 1; j++) {\r\n                    binIds[j] = binIds[j + 1];\r\n                }\r\n                binIds.pop();\r\n                isBin[_id]=false;\r\n                break;\r\n            }\r\n        }\r\n        \r\n        // Decrement binCount\r\n        binCount--;\r\n    }\r\n    \r\n    function getBins() public view returns (string[] memory, string[] memory, uint256[] memory, uint256[] memory) {\r\n        string[] memory ids = new string[](binCount);\r\n        string[] memory locations = new string[](binCount);\r\n       \r\n        uint256[] memory capacities = new uint256[](binCount);\r\n        uint256[] memory currentWeights = new uint256[](binCount);\r\n\r\n        for (uint256 i = 0; i < binCount; i++) {\r\n            Bin memory bin = bins[binIds[i]];\r\n            ids[i] = bin.id;\r\n            locations[i] = bin.location;\r\n            capacities[i] = bin.capacity;\r\n            currentWeights[i] = bin.currentWeight;\r\n        }\r\n\r\n        return (ids, locations, capacities, currentWeights);\r\n    }\r\n    function generateUniqueId() internal view returns (string memory) {\r\n        bytes32 hash = keccak256(abi.encodePacked(block.timestamp, block.prevrandao, binCount));\r\n        return toStringUniqueId((uint256(hash)));\r\n    }\r\n    //ena zedt fazat uint64 bech nsa8arha\r\n\r\n    function toStringUniqueId(uint256 value) internal pure returns (string memory) {\r\n        if (value == 0) {\r\n            return \"0\";\r\n        }\r\n        uint256 temp = value;\r\n        uint256 digits;\r\n        while (temp != 0) {\r\n            digits++;\r\n            temp /= 10;\r\n        }\r\n        bytes memory buffer = new bytes(digits);\r\n        while (value != 0) {\r\n            digits -= 1;\r\n            buffer[digits] = bytes1(uint8(48 + uint256(value % 10)));\r\n            value /= 10;\r\n        }\r\n        return string(buffer);\r\n    }\r\n\r\n                   //*****************Shipper********************//\r\n\r\n\r\n\r\n    function createShipper(address _shipper) external onlyOwner {\r\n        require(!isShipper[_shipper], \"Shipper already exists\");\r\n\r\n        shippers.push(_shipper);\r\n        isShipper[_shipper] = true;\r\n    }\r\n\r\n    function getShippers() public view returns (address[] memory) {\r\n        return shippers;\r\n    }\r\n\r\n    function notifyShipper(address _shipper, string memory _idBin) external onlyOwner {\r\n        require(isShipper[_shipper], \"Shipper doesn't exist\");\r\n        require(isBin[_idBin], \"Bin doesn't exist\");\r\n        notifications[_shipper][_idBin] = Notif(_shipper, _idBin, false);\r\n    }\r\n\r\n    function getNotifByShipper(address _shipper) public view returns (Notif[] memory) {\r\n        Notif[] memory shipperNotifications = new Notif[](binCount);\r\n\r\n        for (uint256 i = 0; i < binCount; i++) {\r\n            string memory binId = binIds[i];\r\n            if (isBin[binId]) {\r\n                shipperNotifications[i] = notifications[_shipper][binId];\r\n            }\r\n        }\r\n\r\n        return shipperNotifications;\r\n    }\r\n\r\n    function getAllNotif() public view returns (Notif[] memory) {\r\n        uint256 totalNotifications = 0;\r\n        for (uint256 i = 0; i < shippers.length; i++) {\r\n            for (uint256 j = 0; j < binCount; j++) {\r\n                string memory binId = binIds[j];\r\n                if (isBin[binId] && notifications[shippers[i]][binId].shipperNotified != address(0)) {\r\n                    totalNotifications++;\r\n                }\r\n            }\r\n        }\r\n\r\n        Notif[] memory allNotifications = new Notif[](totalNotifications);\r\n\r\n        uint256 index = 0;\r\n        for (uint256 i = 0; i < shippers.length; i++) {\r\n            for (uint256 j = 0; j < binCount; j++) {\r\n                string memory binId = binIds[j];\r\n                Notif memory notification = notifications[shippers[i]][binId];\r\n                if (isBin[binId] && notification.shipperNotified != address(0)) {\r\n                    allNotifications[index] = notification;\r\n                    index++;\r\n                }\r\n            }\r\n        }\r\n\r\n        return allNotifications;\r\n    }\r\n\r\n    function deleteShipper(address _shipperAddress) external onlyOwner {\r\n        for (uint256 i = 0; i < shippers.length; i++) {\r\n            if (shippers[i] == _shipperAddress) {\r\n                shippers[i] = shippers[\r\n                    shippers.length - 1\r\n                ];\r\n                shippers.pop();\r\n                isShipper[_shipperAddress]=false;\r\n                break;\r\n            }\r\n        }\r\n    }\r\n\r\n    function modifyShipper(address _shipperAddress) external onlyOwner {\r\n        require(isShipper[ _shipperAddress], \"Shipper does not exist\");\r\n        \r\n        // Emit a message after the require statement\r\n        emit ModifShipper(\"Shipper can be modified\");\r\n        \r\n        // Further logic here if needed\r\n    }\r\n                        //*****************Citizen********************//\r\n    // function createCitizen(address _citizen) external onlyOwner {\r\n    //     require(!isCitizen[_citizen], \"Citizen already exists\");\r\n    //     require(_citizen != owner, \"Cannot create citizen with owner's address\");\r\n\r\n    //     citizens.push(_citizen);\r\n    //     isCitizen[_citizen] = true;\r\n    // }\r\n\r\n    // function getCitizens() public view returns (address[] memory) {\r\n    //     return citizens;\r\n    // }\r\n\r\n    // function deleteCitizen(address _citizenAddress) external onlyOwner {\r\n    //     for (uint256 i = 0; i < citizens.length; i++) {\r\n    //         if (citizens[i] == _citizenAddress) {\r\n    //             citizens[i] = citizens[\r\n    //                 citizens.length - 1\r\n    //             ];\r\n    //             citizens.pop();\r\n    //             isCitizen[_citizenAddress]=false;\r\n    //             break;\r\n    //         }\r\n    //     }\r\n    // }\r\n    // function modifyCitizen(address _citizenAddress) external onlyOwner {\r\n    //     require(isCitizen[ _citizenAddress], \"Citizen does not exist\");\r\n        \r\n    //     // Emit a message after the require statement\r\n    //     emit ModifCitizen(\"Citizen can be modified\");\r\n        \r\n    //     // Further logic here if needed\r\n    // }\r\n    // function getIsBin(string memory _binId) external view returns (bool) {\r\n    //     require(isBin[_binId], \"Bin doesn't exist\");\r\n    //     return isBin[_binId];\r\n    // }\r\n\r\n    // function getIsCitizen(address _citizenId) external view returns (bool) {\r\n    //     require(isCitizen[_citizenId], \"Citizen doesn't exist\");\r\n    //     return isCitizen[_citizenId];\r\n    // }\r\n\r\n    // function getIsWaste(string memory _wasteId) external view returns (bool) {\r\n    //     require(isWaste[_wasteId], \"Watse doesn't exist\");\r\n    //     return isWaste[_wasteId];\r\n    // }\r\n\r\n    // function setWaste(string memory _wasteId) external  {\r\n    //     require(isWaste[_wasteId], \"Watse doesn't exist\");\r\n    //      isWaste[_wasteId]=true;\r\n    // }\r\n    //  function setWasteCount(uint256 _count) external {\r\n    //     wasteCount = _count;\r\n    // }\r\n    // function getWasteCount() external view returns (uint256) {\r\n    //     return wasteCount;\r\n    // }\r\n    // function setWastes(string memory _wasteId,Waste memory waste) external{\r\n    //     wastes[_wasteId]=waste;\r\n\r\n//    }\r\n}",
  "sourcePath": "C:\\Users\\MSI\\Desktop\\PFA_GUI - Copie\\truffle\\contracts\\WasteManagement.sol",
  "compiler": {
    "name": "solc",
    "version": "0.8.19+commit.7dd6d404.Emscripten.clang"
  },
  "schemaVersion": "3.4.16",
  "updatedAt": "2024-02-28T15:14:50.775Z",
  "networkType": "ethereum",
  "devdoc": {
    "kind": "dev",
    "methods": {},
    "version": 1
  },
  "userdoc": {
    "kind": "user",
    "methods": {},
    "version": 1
  }
}