{
  "contractName": "WasteManagement",
  "abi": [
    {
      "inputs": [],
      "stateMutability": "nonpayable",
      "type": "constructor"
    },
    {
      "inputs": [
        {
          "internalType": "address",
          "name": "spender",
          "type": "address"
        },
        {
          "internalType": "uint256",
          "name": "allowance",
          "type": "uint256"
        },
        {
          "internalType": "uint256",
          "name": "needed",
          "type": "uint256"
        }
      ],
      "name": "ERC20InsufficientAllowance",
      "type": "error"
    },
    {
      "inputs": [
        {
          "internalType": "address",
          "name": "sender",
          "type": "address"
        },
        {
          "internalType": "uint256",
          "name": "balance",
          "type": "uint256"
        },
        {
          "internalType": "uint256",
          "name": "needed",
          "type": "uint256"
        }
      ],
      "name": "ERC20InsufficientBalance",
      "type": "error"
    },
    {
      "inputs": [
        {
          "internalType": "address",
          "name": "approver",
          "type": "address"
        }
      ],
      "name": "ERC20InvalidApprover",
      "type": "error"
    },
    {
      "inputs": [
        {
          "internalType": "address",
          "name": "receiver",
          "type": "address"
        }
      ],
      "name": "ERC20InvalidReceiver",
      "type": "error"
    },
    {
      "inputs": [
        {
          "internalType": "address",
          "name": "sender",
          "type": "address"
        }
      ],
      "name": "ERC20InvalidSender",
      "type": "error"
    },
    {
      "inputs": [
        {
          "internalType": "address",
          "name": "spender",
          "type": "address"
        }
      ],
      "name": "ERC20InvalidSpender",
      "type": "error"
    },
    {
      "inputs": [
        {
          "internalType": "address",
          "name": "owner",
          "type": "address"
        }
      ],
      "name": "OwnableInvalidOwner",
      "type": "error"
    },
    {
      "inputs": [
        {
          "internalType": "address",
          "name": "account",
          "type": "address"
        }
      ],
      "name": "OwnableUnauthorizedAccount",
      "type": "error"
    },
    {
      "anonymous": false,
      "inputs": [
        {
          "indexed": true,
          "internalType": "address",
          "name": "owner",
          "type": "address"
        },
        {
          "indexed": true,
          "internalType": "address",
          "name": "spender",
          "type": "address"
        },
        {
          "indexed": false,
          "internalType": "uint256",
          "name": "value",
          "type": "uint256"
        }
      ],
      "name": "Approval",
      "type": "event"
    },
    {
      "anonymous": false,
      "inputs": [
        {
          "indexed": false,
          "internalType": "string",
          "name": "id",
          "type": "string"
        }
      ],
      "name": "BinCreated",
      "type": "event"
    },
    {
      "anonymous": false,
      "inputs": [
        {
          "indexed": false,
          "internalType": "string",
          "name": "id",
          "type": "string"
        }
      ],
      "name": "CollectionCreated",
      "type": "event"
    },
    {
      "anonymous": false,
      "inputs": [
        {
          "indexed": false,
          "internalType": "string",
          "name": "message",
          "type": "string"
        }
      ],
      "name": "ModifCitizen",
      "type": "event"
    },
    {
      "anonymous": false,
      "inputs": [
        {
          "indexed": false,
          "internalType": "string",
          "name": "message",
          "type": "string"
        }
      ],
      "name": "ModifShipper",
      "type": "event"
    },
    {
      "anonymous": false,
      "inputs": [
        {
          "indexed": true,
          "internalType": "address",
          "name": "previousOwner",
          "type": "address"
        },
        {
          "indexed": true,
          "internalType": "address",
          "name": "newOwner",
          "type": "address"
        }
      ],
      "name": "OwnershipTransferred",
      "type": "event"
    },
    {
      "anonymous": false,
      "inputs": [
        {
          "indexed": true,
          "internalType": "address",
          "name": "from",
          "type": "address"
        },
        {
          "indexed": true,
          "internalType": "address",
          "name": "to",
          "type": "address"
        },
        {
          "indexed": false,
          "internalType": "uint256",
          "name": "value",
          "type": "uint256"
        }
      ],
      "name": "Transfer",
      "type": "event"
    },
    {
      "inputs": [
        {
          "internalType": "address",
          "name": "owner",
          "type": "address"
        },
        {
          "internalType": "address",
          "name": "spender",
          "type": "address"
        }
      ],
      "name": "allowance",
      "outputs": [
        {
          "internalType": "uint256",
          "name": "",
          "type": "uint256"
        }
      ],
      "stateMutability": "view",
      "type": "function",
      "constant": true
    },
    {
      "inputs": [
        {
          "internalType": "address",
          "name": "spender",
          "type": "address"
        },
        {
          "internalType": "uint256",
          "name": "value",
          "type": "uint256"
        }
      ],
      "name": "approve",
      "outputs": [
        {
          "internalType": "bool",
          "name": "",
          "type": "bool"
        }
      ],
      "stateMutability": "nonpayable",
      "type": "function"
    },
    {
      "inputs": [
        {
          "internalType": "address",
          "name": "account",
          "type": "address"
        }
      ],
      "name": "balanceOf",
      "outputs": [
        {
          "internalType": "uint256",
          "name": "",
          "type": "uint256"
        }
      ],
      "stateMutability": "view",
      "type": "function",
      "constant": true
    },
    {
      "inputs": [],
      "name": "binCount",
      "outputs": [
        {
          "internalType": "uint256",
          "name": "",
          "type": "uint256"
        }
      ],
      "stateMutability": "view",
      "type": "function",
      "constant": true
    },
    {
      "inputs": [
        {
          "internalType": "string",
          "name": "",
          "type": "string"
        }
      ],
      "name": "bins",
      "outputs": [
        {
          "internalType": "string",
          "name": "id",
          "type": "string"
        },
        {
          "internalType": "string",
          "name": "location",
          "type": "string"
        },
        {
          "internalType": "uint256",
          "name": "capacity",
          "type": "uint256"
        },
        {
          "internalType": "uint256",
          "name": "currentWeight",
          "type": "uint256"
        }
      ],
      "stateMutability": "view",
      "type": "function",
      "constant": true
    },
    {
      "inputs": [
        {
          "internalType": "address",
          "name": "",
          "type": "address"
        }
      ],
      "name": "citizenRewards",
      "outputs": [
        {
          "internalType": "uint256",
          "name": "",
          "type": "uint256"
        }
      ],
      "stateMutability": "view",
      "type": "function",
      "constant": true
    },
    {
      "inputs": [],
      "name": "collectionCount",
      "outputs": [
        {
          "internalType": "uint256",
          "name": "",
          "type": "uint256"
        }
      ],
      "stateMutability": "view",
      "type": "function",
      "constant": true
    },
    {
      "inputs": [
        {
          "internalType": "string",
          "name": "",
          "type": "string"
        }
      ],
      "name": "collections",
      "outputs": [
        {
          "internalType": "string",
          "name": "idCollection",
          "type": "string"
        },
        {
          "internalType": "address",
          "name": "shipperNotified",
          "type": "address"
        },
        {
          "internalType": "string",
          "name": "binNotif",
          "type": "string"
        },
        {
          "internalType": "bool",
          "name": "done",
          "type": "bool"
        },
        {
          "internalType": "string",
          "name": "date",
          "type": "string"
        },
        {
          "internalType": "string",
          "name": "status",
          "type": "string"
        }
      ],
      "stateMutability": "view",
      "type": "function",
      "constant": true
    },
    {
      "inputs": [],
      "name": "decimals",
      "outputs": [
        {
          "internalType": "uint8",
          "name": "",
          "type": "uint8"
        }
      ],
      "stateMutability": "view",
      "type": "function",
      "constant": true
    },
    {
      "inputs": [],
      "name": "dispoRC",
      "outputs": [
        {
          "internalType": "uint256",
          "name": "",
          "type": "uint256"
        }
      ],
      "stateMutability": "view",
      "type": "function",
      "constant": true
    },
    {
      "inputs": [],
      "name": "maxSupply",
      "outputs": [
        {
          "internalType": "uint256",
          "name": "",
          "type": "uint256"
        }
      ],
      "stateMutability": "view",
      "type": "function",
      "constant": true
    },
    {
      "inputs": [],
      "name": "name",
      "outputs": [
        {
          "internalType": "string",
          "name": "",
          "type": "string"
        }
      ],
      "stateMutability": "view",
      "type": "function",
      "constant": true
    },
    {
      "inputs": [],
      "name": "owner",
      "outputs": [
        {
          "internalType": "address",
          "name": "",
          "type": "address"
        }
      ],
      "stateMutability": "view",
      "type": "function",
      "constant": true
    },
    {
      "inputs": [],
      "name": "renounceOwnership",
      "outputs": [],
      "stateMutability": "nonpayable",
      "type": "function"
    },
    {
      "inputs": [],
      "name": "symbol",
      "outputs": [
        {
          "internalType": "string",
          "name": "",
          "type": "string"
        }
      ],
      "stateMutability": "view",
      "type": "function",
      "constant": true
    },
    {
      "inputs": [],
      "name": "totalSupply",
      "outputs": [
        {
          "internalType": "uint256",
          "name": "",
          "type": "uint256"
        }
      ],
      "stateMutability": "view",
      "type": "function",
      "constant": true
    },
    {
      "inputs": [
        {
          "internalType": "address",
          "name": "from",
          "type": "address"
        },
        {
          "internalType": "address",
          "name": "to",
          "type": "address"
        },
        {
          "internalType": "uint256",
          "name": "value",
          "type": "uint256"
        }
      ],
      "name": "transferFrom",
      "outputs": [
        {
          "internalType": "bool",
          "name": "",
          "type": "bool"
        }
      ],
      "stateMutability": "nonpayable",
      "type": "function"
    },
    {
      "inputs": [
        {
          "internalType": "address",
          "name": "newOwner",
          "type": "address"
        }
      ],
      "name": "transferOwnership",
      "outputs": [],
      "stateMutability": "nonpayable",
      "type": "function"
    },
    {
      "inputs": [],
      "name": "wasteCount",
      "outputs": [
        {
          "internalType": "uint256",
          "name": "",
          "type": "uint256"
        }
      ],
      "stateMutability": "view",
      "type": "function",
      "constant": true
    },
    {
      "inputs": [
        {
          "internalType": "uint256",
          "name": "",
          "type": "uint256"
        }
      ],
      "name": "wasteIds",
      "outputs": [
        {
          "internalType": "string",
          "name": "",
          "type": "string"
        }
      ],
      "stateMutability": "view",
      "type": "function",
      "constant": true
    },
    {
      "inputs": [
        {
          "internalType": "string",
          "name": "",
          "type": "string"
        }
      ],
      "name": "wastes",
      "outputs": [
        {
          "internalType": "string",
          "name": "id",
          "type": "string"
        },
        {
          "internalType": "string",
          "name": "status",
          "type": "string"
        },
        {
          "internalType": "uint256",
          "name": "weight",
          "type": "uint256"
        },
        {
          "internalType": "address",
          "name": "citizenId",
          "type": "address"
        },
        {
          "internalType": "address",
          "name": "shipperId",
          "type": "address"
        },
        {
          "internalType": "address",
          "name": "recyclerId",
          "type": "address"
        },
        {
          "internalType": "string",
          "name": "binId",
          "type": "string"
        },
        {
          "internalType": "string",
          "name": "dateCollection",
          "type": "string"
        }
      ],
      "stateMutability": "view",
      "type": "function",
      "constant": true
    },
    {
      "inputs": [
        {
          "internalType": "address",
          "name": "to",
          "type": "address"
        },
        {
          "internalType": "uint256",
          "name": "amount",
          "type": "uint256"
        }
      ],
      "name": "mint",
      "outputs": [],
      "stateMutability": "nonpayable",
      "type": "function"
    },
    {
      "inputs": [
        {
          "internalType": "address",
          "name": "recipient",
          "type": "address"
        },
        {
          "internalType": "uint256",
          "name": "amount",
          "type": "uint256"
        }
      ],
      "name": "transfer",
      "outputs": [
        {
          "internalType": "bool",
          "name": "",
          "type": "bool"
        }
      ],
      "stateMutability": "nonpayable",
      "type": "function"
    },
    {
      "inputs": [
        {
          "internalType": "string",
          "name": "_location",
          "type": "string"
        },
        {
          "internalType": "uint256",
          "name": "_capacity",
          "type": "uint256"
        },
        {
          "internalType": "uint256",
          "name": "_currentWeight",
          "type": "uint256"
        }
      ],
      "name": "createBin",
      "outputs": [
        {
          "internalType": "string",
          "name": "",
          "type": "string"
        }
      ],
      "stateMutability": "nonpayable",
      "type": "function"
    },
    {
      "inputs": [
        {
          "internalType": "string",
          "name": "_id",
          "type": "string"
        },
        {
          "internalType": "string",
          "name": "_location",
          "type": "string"
        },
        {
          "internalType": "uint256",
          "name": "_capacity",
          "type": "uint256"
        }
      ],
      "name": "modifyBin",
      "outputs": [],
      "stateMutability": "nonpayable",
      "type": "function"
    },
    {
      "inputs": [
        {
          "internalType": "string",
          "name": "_id",
          "type": "string"
        }
      ],
      "name": "deleteBin",
      "outputs": [],
      "stateMutability": "nonpayable",
      "type": "function"
    },
    {
      "inputs": [
        {
          "internalType": "address",
          "name": "_shipper",
          "type": "address"
        }
      ],
      "name": "createShipper",
      "outputs": [],
      "stateMutability": "nonpayable",
      "type": "function"
    },
    {
      "inputs": [
        {
          "internalType": "uint256",
          "name": "_weight",
          "type": "uint256"
        },
        {
          "internalType": "address",
          "name": "_citizenId",
          "type": "address"
        },
        {
          "internalType": "string",
          "name": "_binId",
          "type": "string"
        }
      ],
      "name": "createWaste",
      "outputs": [],
      "stateMutability": "nonpayable",
      "type": "function"
    },
    {
      "inputs": [
        {
          "internalType": "address",
          "name": "_shipper",
          "type": "address"
        },
        {
          "internalType": "string",
          "name": "_idBin",
          "type": "string"
        },
        {
          "internalType": "string",
          "name": "_date",
          "type": "string"
        }
      ],
      "name": "createCollection",
      "outputs": [
        {
          "internalType": "string",
          "name": "",
          "type": "string"
        }
      ],
      "stateMutability": "nonpayable",
      "type": "function"
    },
    {
      "inputs": [
        {
          "internalType": "string",
          "name": "_idCollection",
          "type": "string"
        },
        {
          "internalType": "address",
          "name": "_shipperId",
          "type": "address"
        },
        {
          "internalType": "string",
          "name": "_date",
          "type": "string"
        }
      ],
      "name": "shipCollection",
      "outputs": [],
      "stateMutability": "nonpayable",
      "type": "function"
    },
    {
      "inputs": [
        {
          "internalType": "address",
          "name": "_shipperAddress",
          "type": "address"
        }
      ],
      "name": "deleteShipper",
      "outputs": [],
      "stateMutability": "nonpayable",
      "type": "function"
    },
    {
      "inputs": [
        {
          "internalType": "address",
          "name": "_shipperAddress",
          "type": "address"
        }
      ],
      "name": "modifyShipper",
      "outputs": [],
      "stateMutability": "nonpayable",
      "type": "function"
    },
    {
      "inputs": [
        {
          "internalType": "string",
          "name": "_idCollection",
          "type": "string"
        },
        {
          "internalType": "string",
          "name": "_date",
          "type": "string"
        }
      ],
      "name": "recycleCollection",
      "outputs": [],
      "stateMutability": "nonpayable",
      "type": "function"
    },
    {
      "inputs": [
        {
          "internalType": "address",
          "name": "_citizen",
          "type": "address"
        }
      ],
      "name": "createCitizen",
      "outputs": [],
      "stateMutability": "nonpayable",
      "type": "function"
    },
    {
      "inputs": [
        {
          "internalType": "address",
          "name": "_citizenAddress",
          "type": "address"
        }
      ],
      "name": "deleteCitizen",
      "outputs": [],
      "stateMutability": "nonpayable",
      "type": "function"
    },
    {
      "inputs": [
        {
          "internalType": "address",
          "name": "_citizenAddress",
          "type": "address"
        }
      ],
      "name": "modifyCitizen",
      "outputs": [],
      "stateMutability": "nonpayable",
      "type": "function"
    }
  ],
  "bytecode": "0x608060405273056ba2e0789740fb3c8c8c4e6b1d2b247d296ab3601060006101000a81548173ffffffffffffffffffffffffffffffffffffffff021916908373ffffffffffffffffffffffffffffffffffffffff16021790555060006018553480156200006b57600080fd5b50336040518060400160405280601281526020017f477265656e4561726e205472616e7366657200000000000000000000000000008152506040518060400160405280600381526020017f47524e00000000000000000000000000000000000000000000000000000000008152508160039081620000ea919062000a9a565b508060049081620000fc919062000a9a565b505050600073ffffffffffffffffffffffffffffffffffffffff168173ffffffffffffffffffffffffffffffffffffffff1603620001745760006040517f1e4fbdf70000000000000000000000000000000000000000000000000000000081526004016200016b919062000bc6565b60405180910390fd5b62000185816200020560201b60201c565b50683635c9adc5dea00000601a81905550620001b133683635c9adc5dea00000620002cb60201b60201c565b620001ee601060009054906101000a900473ffffffffffffffffffffffffffffffffffffffff16683635c9adc5dea000006200035560201b60201c565b50683635c9adc5dea00000601b8190555062000d3b565b6000600560009054906101000a900473ffffffffffffffffffffffffffffffffffffffff16905081600560006101000a81548173ffffffffffffffffffffffffffffffffffffffff021916908373ffffffffffffffffffffffffffffffffffffffff1602179055508173ffffffffffffffffffffffffffffffffffffffff168173ffffffffffffffffffffffffffffffffffffffff167f8be0079c531659141344cd1fd0a4f28419497f9722a3daafe3b4186f6b6457e060405160405180910390a35050565b620002db6200038360201b60201c565b601a5481620002ef6200042560201b60201c565b620002fb919062000c12565b11156200033f576040517f08c379a0000000000000000000000000000000000000000000000000000000008152600401620003369062000cae565b60405180910390fd5b6200035182826200042f60201b60201c565b5050565b6000620003796200036b620004bc60201b60201c565b8484620004c460201b60201c565b6001905092915050565b62000393620004bc60201b60201c565b73ffffffffffffffffffffffffffffffffffffffff16620003b9620005c660201b60201c565b73ffffffffffffffffffffffffffffffffffffffff16146200042357620003e5620004bc60201b60201c565b6040517f118cdaa70000000000000000000000000000000000000000000000000000000081526004016200041a919062000bc6565b60405180910390fd5b565b6000600254905090565b600073ffffffffffffffffffffffffffffffffffffffff168273ffffffffffffffffffffffffffffffffffffffff1603620004a45760006040517fec442f050000000000000000000000000000000000000000000000000000000081526004016200049b919062000bc6565b60405180910390fd5b620004b860008383620005f060201b60201c565b5050565b600033905090565b600073ffffffffffffffffffffffffffffffffffffffff168373ffffffffffffffffffffffffffffffffffffffff1603620005395760006040517f96c6fd1e00000000000000000000000000000000000000000000000000000000815260040162000530919062000bc6565b60405180910390fd5b600073ffffffffffffffffffffffffffffffffffffffff168273ffffffffffffffffffffffffffffffffffffffff1603620005ae5760006040517fec442f05000000000000000000000000000000000000000000000000000000008152600401620005a5919062000bc6565b60405180910390fd5b620005c1838383620005f060201b60201c565b505050565b6000600560009054906101000a900473ffffffffffffffffffffffffffffffffffffffff16905090565b600073ffffffffffffffffffffffffffffffffffffffff168373ffffffffffffffffffffffffffffffffffffffff16036200064657806002600082825462000639919062000c12565b925050819055506200071c565b60008060008573ffffffffffffffffffffffffffffffffffffffff1673ffffffffffffffffffffffffffffffffffffffff16815260200190815260200160002054905081811015620006d5578381836040517fe450d38c000000000000000000000000000000000000000000000000000000008152600401620006cc9392919062000ce1565b60405180910390fd5b8181036000808673ffffffffffffffffffffffffffffffffffffffff1673ffffffffffffffffffffffffffffffffffffffff16815260200190815260200160002081905550505b600073ffffffffffffffffffffffffffffffffffffffff168273ffffffffffffffffffffffffffffffffffffffff1603620007675780600260008282540392505081905550620007b4565b806000808473ffffffffffffffffffffffffffffffffffffffff1673ffffffffffffffffffffffffffffffffffffffff168152602001908152602001600020600082825401925050819055505b8173ffffffffffffffffffffffffffffffffffffffff168373ffffffffffffffffffffffffffffffffffffffff167fddf252ad1be2c89b69c2b068fc378daa952ba7f163c4a11628f55a4df523b3ef8360405162000813919062000d1e565b60405180910390a3505050565b600081519050919050565b7f4e487b7100000000000000000000000000000000000000000000000000000000600052604160045260246000fd5b7f4e487b7100000000000000000000000000000000000000000000000000000000600052602260045260246000fd5b60006002820490506001821680620008a257607f821691505b602082108103620008b857620008b76200085a565b5b50919050565b60008190508160005260206000209050919050565b60006020601f8301049050919050565b600082821b905092915050565b600060088302620009227fffffffffffffffffffffffffffffffffffffffffffffffffffffffffffffffff82620008e3565b6200092e8683620008e3565b95508019841693508086168417925050509392505050565b6000819050919050565b6000819050919050565b60006200097b620009756200096f8462000946565b62000950565b62000946565b9050919050565b6000819050919050565b62000997836200095a565b620009af620009a68262000982565b848454620008f0565b825550505050565b600090565b620009c6620009b7565b620009d38184846200098c565b505050565b5b81811015620009fb57620009ef600082620009bc565b600181019050620009d9565b5050565b601f82111562000a4a5762000a1481620008be565b62000a1f84620008d3565b8101602085101562000a2f578190505b62000a4762000a3e85620008d3565b830182620009d8565b50505b505050565b600082821c905092915050565b600062000a6f6000198460080262000a4f565b1980831691505092915050565b600062000a8a838362000a5c565b9150826002028217905092915050565b62000aa58262000820565b67ffffffffffffffff81111562000ac15762000ac06200082b565b5b62000acd825462000889565b62000ada828285620009ff565b600060209050601f83116001811462000b12576000841562000afd578287015190505b62000b09858262000a7c565b86555062000b79565b601f19841662000b2286620008be565b60005b8281101562000b4c5784890151825560018201915060208501945060208101905062000b25565b8683101562000b6c578489015162000b68601f89168262000a5c565b8355505b6001600288020188555050505b505050505050565b600073ffffffffffffffffffffffffffffffffffffffff82169050919050565b600062000bae8262000b81565b9050919050565b62000bc08162000ba1565b82525050565b600060208201905062000bdd600083018462000bb5565b92915050565b7f4e487b7100000000000000000000000000000000000000000000000000000000600052601160045260246000fd5b600062000c1f8262000946565b915062000c2c8362000946565b925082820190508082111562000c475762000c4662000be3565b5b92915050565b600082825260208201905092915050565b7f4d617820537570706c7920457863656564656400000000000000000000000000600082015250565b600062000c9660138362000c4d565b915062000ca38262000c5e565b602082019050919050565b6000602082019050818103600083015262000cc98162000c87565b9050919050565b62000cdb8162000946565b82525050565b600060608201905062000cf8600083018662000bb5565b62000d07602083018562000cd0565b62000d16604083018462000cd0565b949350505050565b600060208201905062000d35600083018462000cd0565b92915050565b615bb38062000d4b6000396000f3fe608060405234801561001057600080fd5b506004361061021c5760003560e01c8063715018a611610125578063cc3b2e88116100ad578063d5abeb011161007c578063d5abeb0114610670578063dd62ed3e1461068e578063df129891146106be578063e088d28e146106da578063f2fde38b146106f65761021c565b8063cc3b2e88146105e8578063ce4717df14610606578063d57f966b14610622578063d5972802146106405761021c565b80638da5cb5b116100f45780638da5cb5b1461054457806395d89b4114610562578063963464f114610580578063a9059cbb1461059c578063c9b5ac5b146105cc5761021c565b8063715018a6146104d2578063715624c9146104dc57806381d06633146104f85780638d68d807146105285761021c565b806335a9c596116101a85780634a19d56d116101775780634a19d56d146103ea57806351793e0614610421578063537a828f1461043d57806366e54d7b1461046d57806370a08231146104a25761021c565b806335a9c596146103665780633c1bc3b9146103965780633e8176dc146103b257806340c10f19146103ce5761021c565b806318160ddd116101ef57806318160ddd146102c05780631b8926d1146102de578063236b831c146102fc57806323b872dd14610318578063313ce567146103485761021c565b806306fdde0314610221578063095ea7b31461023f57806313a172f31461026f57806316207393146102a2575b600080fd5b610229610712565b60405161023691906140a9565b60405180910390f35b61025960048036038101906102549190614173565b6107a4565b60405161026691906141ce565b60405180910390f35b6102896004803603810190610284919061431e565b6107c7565b6040516102999493929190614376565b60405180910390f35b6102aa61091d565b6040516102b791906143c9565b60405180910390f35b6102c8610923565b6040516102d591906143c9565b60405180910390f35b6102e661092d565b6040516102f391906143c9565b60405180910390f35b610316600480360381019061031191906143e4565b610933565b005b610332600480360381019061032d9190614411565b6109ff565b60405161033f91906141ce565b60405180910390f35b610350610a2e565b60405161035d9190614480565b60405180910390f35b610380600480360381019061037b919061449b565b610a37565b60405161038d91906140a9565b60405180910390f35b6103b060048036038101906103ab91906143e4565b61124e565b005b6103cc60048036038101906103c79190614526565b611399565b005b6103e860048036038101906103e39190614173565b61187b565b005b61040460048036038101906103ff919061431e565b6118e8565b6040516104189897969594939291906145c0565b60405180910390f35b61043b6004803603810190610436919061465a565b611bc6565b005b610457600480360381019061045291906146c9565b61210f565b60405161046491906140a9565b60405180910390f35b6104876004803603810190610482919061431e565b6121bb565b604051610499969594939291906146f6565b60405180910390f35b6104bc60048036038101906104b791906143e4565b61245a565b6040516104c991906143c9565b60405180910390f35b6104da6124a2565b005b6104f660048036038101906104f19190614773565b6124b6565b005b610512600480360381019061050d91906147eb565b612855565b60405161051f91906140a9565b60405180910390f35b610542600480360381019061053d91906143e4565b612a1f565b005b61054c612c9b565b604051610559919061485a565b60405180910390f35b61056a612cc5565b60405161057791906140a9565b60405180910390f35b61059a600480360381019061059591906143e4565b612d57565b005b6105b660048036038101906105b19190614173565b612eaa565b6040516105c391906141ce565b60405180910390f35b6105e660048036038101906105e191906143e4565b612ec8565b005b6105f0612f94565b6040516105fd91906143c9565b60405180910390f35b610620600480360381019061061b919061431e565b612f9a565b005b61062a613208565b60405161063791906143c9565b60405180910390f35b61065a600480360381019061065591906143e4565b61320e565b60405161066791906143c9565b60405180910390f35b610678613226565b60405161068591906143c9565b60405180910390f35b6106a860048036038101906106a39190614875565b61322c565b6040516106b591906143c9565b60405180910390f35b6106d860048036038101906106d391906143e4565b6132b3565b005b6106f460048036038101906106ef91906148b5565b61352f565b005b610710600480360381019061070b91906143e4565b613622565b005b6060600380546107219061496f565b80601f016020809104026020016040519081016040528092919081815260200182805461074d9061496f565b801561079a5780601f1061076f5761010080835404028352916020019161079a565b820191906000526020600020905b81548152906001019060200180831161077d57829003601f168201915b5050505050905090565b6000806107af6136a8565b90506107bc8185856136b0565b600191505092915050565b6009818051602081018201805184825260208301602085012081835280955050505050506000915090508060000180546108009061496f565b80601f016020809104026020016040519081016040528092919081815260200182805461082c9061496f565b80156108795780601f1061084e57610100808354040283529160200191610879565b820191906000526020600020905b81548152906001019060200180831161085c57829003601f168201915b50505050509080600101805461088e9061496f565b80601f01602080910402602001604051908101604052809291908181526020018280546108ba9061496f565b80156109075780601f106108dc57610100808354040283529160200191610907565b820191906000526020600020905b8154815290600101906020018083116108ea57829003601f168201915b5050505050908060020154908060030154905084565b60065481565b6000600254905090565b601b5481565b61093b6136c2565b601560008273ffffffffffffffffffffffffffffffffffffffff1673ffffffffffffffffffffffffffffffffffffffff16815260200190815260200160002060009054906101000a900460ff166109c7576040517f08c379a00000000000000000000000000000000000000000000000000000000081526004016109be906149ec565b60405180910390fd5b7fb93a331b14aae9427dff15bad12885145072068d20db5bc47066d700abfe7dea6040516109f490614a58565b60405180910390a150565b600080610a0a6136a8565b9050610a17858285613749565b610a228585856137dd565b60019150509392505050565b60006012905090565b6060610a416136c2565b601660008573ffffffffffffffffffffffffffffffffffffffff1673ffffffffffffffffffffffffffffffffffffffff16815260200190815260200160002060009054906101000a900460ff16610acd576040517f08c379a0000000000000000000000000000000000000000000000000000000008152600401610ac490614ac4565b60405180910390fd5b601283604051610add9190614b20565b908152602001604051809103902060009054906101000a900460ff16610b38576040517f08c379a0000000000000000000000000000000000000000000000000000000008152600401610b2f90614b83565b60405180910390fd5b60005b600c80549050811015610c27576000600a600c8381548110610b6057610b5f614ba3565b5b90600052602060002001604051610b779190614c6a565b90815260200160405180910390209050848051906020012081600201604051610ba09190614d24565b6040518091039020148015610bd35750838051906020012081600401604051610bc99190614d24565b6040518091039020145b15610c13576040517f08c379a0000000000000000000000000000000000000000000000000000000008152600401610c0a90614dad565b60405180910390fd5b508080610c1f90614dfc565b915050610b3b565b506000610c326138d1565b9050601381604051610c449190614b20565b908152602001604051809103902060009054906101000a900460ff1615610ca0576040517f08c379a0000000000000000000000000000000000000000000000000000000008152600401610c9790614eb6565b60405180910390fd5b60005b600d80549050811015610ddf576000600e600d8381548110610cc857610cc7614ba3565b5b90600052602060002001604051610cdf9190614c6a565b90815260200160405180910390209050858051906020012081600601604051610d089190614d24565b6040518091039020148015610d7057506040518060400160405280600781526020017f57616974696e67000000000000000000000000000000000000000000000000008152508051906020012081600101604051610d669190614d24565b6040518091039020145b15610dcb5784816007019081610d86919061506d565b50868160040160006101000a81548173ffffffffffffffffffffffffffffffffffffffff021916908373ffffffffffffffffffffffffffffffffffffffff1602179055505b508080610dd790614dfc565b915050610ca3565b506040518060c001604052808281526020018673ffffffffffffffffffffffffffffffffffffffff1681526020018581526020016000151581526020018481526020016040518060400160405280600781526020017f57616974696e6700000000000000000000000000000000000000000000000000815250815250600a82604051610e6b9190614b20565b90815260200160405180910390206000820151816000019081610e8e919061506d565b5060208201518160010160006101000a81548173ffffffffffffffffffffffffffffffffffffffff021916908373ffffffffffffffffffffffffffffffffffffffff1602179055506040820151816002019081610eeb919061506d565b5060608201518160030160006101000a81548160ff0219169083151502179055506080820151816004019081610f21919061506d565b5060a0820151816005019081610f37919061506d565b509050506103e8600985604051610f4e9190614b20565b908152602001604051809103902060020154610f6a919061513f565b601b5411610fc057610f8533683635c9adc5dea0000061187b565b610fba601060009054906101000a900473ffffffffffffffffffffffffffffffffffffffff16683635c9adc5dea00000612eaa565b50611008565b6103e8600985604051610fd39190614b20565b908152602001604051809103902060020154610fef919061513f565b601b60008282546110009190615181565b925050819055505b600c8190806001815401808255809150506001900390600052602060002001600090919091909150908161103c919061506d565b506008600081548092919061105090614dfc565b919050555060016013826040516110679190614b20565b908152602001604051809103902060006101000a81548160ff021916908315150217905550601960008673ffffffffffffffffffffffffffffffffffffffff1673ffffffffffffffffffffffffffffffffffffffff168152602001908152602001600020836040516110d99190614b20565b908152602001604051809103902060020160009054906101000a900460ff1661120c5760405180606001604052808673ffffffffffffffffffffffffffffffffffffffff16815260200185815260200160001515815250601960008773ffffffffffffffffffffffffffffffffffffffff1673ffffffffffffffffffffffffffffffffffffffff1681526020019081526020016000208460405161117d9190614b20565b908152602001604051809103902060008201518160000160006101000a81548173ffffffffffffffffffffffffffffffffffffffff021916908373ffffffffffffffffffffffffffffffffffffffff16021790555060208201518160010190816111e7919061506d565b5060408201518160020160006101000a81548160ff0219169083151502179055509050505b7ff2e193f96c77b8eebe5989f9851e54078a47d1e2d8e3ca74dca8a4aeb249aebf8160405161123b91906140a9565b60405180910390a1809150509392505050565b601560008273ffffffffffffffffffffffffffffffffffffffff1673ffffffffffffffffffffffffffffffffffffffff16815260200190815260200160002060009054906101000a900460ff16156112db576040517f08c379a00000000000000000000000000000000000000000000000000000000081526004016112d290615201565b60405180910390fd5b600f819080600181540180825580915050600190039060005260206000200160009091909190916101000a81548173ffffffffffffffffffffffffffffffffffffffff021916908373ffffffffffffffffffffffffffffffffffffffff1602179055506001601560008373ffffffffffffffffffffffffffffffffffffffff1673ffffffffffffffffffffffffffffffffffffffff16815260200190815260200160002060006101000a81548160ff02191690831515021790555050565b6013836040516113a99190614b20565b908152602001604051809103902060009054906101000a900460ff16611404576040517f08c379a00000000000000000000000000000000000000000000000000000000081526004016113fb9061526d565b60405180910390fd5b8173ffffffffffffffffffffffffffffffffffffffff163373ffffffffffffffffffffffffffffffffffffffff1614611472576040517f08c379a0000000000000000000000000000000000000000000000000000000008152600401611469906152d9565b60405180910390fd5b8173ffffffffffffffffffffffffffffffffffffffff16600a846040516114999190614b20565b908152602001604051809103902060010160009054906101000a900473ffffffffffffffffffffffffffffffffffffffff1673ffffffffffffffffffffffffffffffffffffffff1614611521576040517f08c379a00000000000000000000000000000000000000000000000000000000081526004016115189061536b565b60405180910390fd5b6000600a846040516115339190614b20565b9081526020016040518091039020600401905060005b600d80549050811015611723576000600e600d838154811061156e5761156d614ba3565b5b906000526020600020016040516115859190614c6a565b90815260200160405180910390209050600a866040516115a59190614b20565b90815260200160405180910390206002016040516115c39190614d24565b6040518091039020816006016040516115dc9190614d24565b604051809103902014801561164057508473ffffffffffffffffffffffffffffffffffffffff168160040160009054906101000a900473ffffffffffffffffffffffffffffffffffffffff1673ffffffffffffffffffffffffffffffffffffffff16145b80156116985750600a866040516116579190614b20565b90815260200160405180910390206004016040516116759190614d24565b60405180910390208160070160405161168e9190614d24565b6040518091039020145b1561170f57838160070190816116ae919061506d565b506040518060400160405280600781526020017f53686970706564000000000000000000000000000000000000000000000000008152508160010190816116f5919061506d565b506018600081548092919061170990614dfc565b91905055505b50808061171b90614dfc565b915050611549565b5060006009600a866040516117389190614b20565b90815260200160405180910390206002016040516117569190614c6a565b90815260200160405180910390206003018190555081600a8560405161177c9190614b20565b90815260200160405180910390206004019081611799919061506d565b506040518060400160405280600781526020017f5368697070656400000000000000000000000000000000000000000000000000815250600a856040516117e09190614b20565b908152602001604051809103902060050190816117fd919061506d565b506001601960008573ffffffffffffffffffffffffffffffffffffffff1673ffffffffffffffffffffffffffffffffffffffff1681526020019081526020016000208260405161184d9190615423565b908152602001604051809103902060020160006101000a81548160ff02191690831515021790555050505050565b6118836136c2565b601a548161188f610923565b611899919061543a565b11156118da576040517f08c379a00000000000000000000000000000000000000000000000000000000081526004016118d1906154ba565b60405180910390fd5b6118e48282613a78565b5050565b600e818051602081018201805184825260208301602085012081835280955050505050506000915090508060000180546119219061496f565b80601f016020809104026020016040519081016040528092919081815260200182805461194d9061496f565b801561199a5780601f1061196f5761010080835404028352916020019161199a565b820191906000526020600020905b81548152906001019060200180831161197d57829003601f168201915b5050505050908060010180546119af9061496f565b80601f01602080910402602001604051908101604052809291908181526020018280546119db9061496f565b8015611a285780601f106119fd57610100808354040283529160200191611a28565b820191906000526020600020905b815481529060010190602001808311611a0b57829003601f168201915b5050505050908060020154908060030160009054906101000a900473ffffffffffffffffffffffffffffffffffffffff16908060040160009054906101000a900473ffffffffffffffffffffffffffffffffffffffff16908060050160009054906101000a900473ffffffffffffffffffffffffffffffffffffffff1690806006018054611ab59061496f565b80601f0160208091040260200160405190810160405280929190818152602001828054611ae19061496f565b8015611b2e5780601f10611b0357610100808354040283529160200191611b2e565b820191906000526020600020905b815481529060010190602001808311611b1157829003601f168201915b505050505090806007018054611b439061496f565b80601f0160208091040260200160405190810160405280929190818152602001828054611b6f9061496f565b8015611bbc5780601f10611b9157610100808354040283529160200191611bbc565b820191906000526020600020905b815481529060010190602001808311611b9f57829003601f168201915b5050505050905088565b6000611bd06138d1565b9050601282604051611be29190614b20565b908152602001604051809103902060009054906101000a900460ff16611c3d576040517f08c379a0000000000000000000000000000000000000000000000000000000008152600401611c3490614b83565b60405180910390fd5b601560008473ffffffffffffffffffffffffffffffffffffffff1673ffffffffffffffffffffffffffffffffffffffff16815260200190815260200160002060009054906101000a900460ff16611cc9576040517f08c379a0000000000000000000000000000000000000000000000000000000008152600401611cc090615526565b60405180910390fd5b601481604051611cd99190614b20565b908152602001604051809103902060009054906101000a900460ff1615611d35576040517f08c379a0000000000000000000000000000000000000000000000000000000008152600401611d2c90615592565b60405180910390fd5b83600983604051611d469190614b20565b908152602001604051809103902060030154600984604051611d689190614b20565b908152602001604051809103902060020154611d849190615181565b1015611dc5576040517f08c379a0000000000000000000000000000000000000000000000000000000008152600401611dbc906155fe565b60405180910390fd5b8273ffffffffffffffffffffffffffffffffffffffff163373ffffffffffffffffffffffffffffffffffffffff1614611e33576040517f08c379a0000000000000000000000000000000000000000000000000000000008152600401611e2a906152d9565b60405180910390fd5b6040518061010001604052808281526020016040518060400160405280600781526020017f57616974696e670000000000000000000000000000000000000000000000000081525081526020018581526020018473ffffffffffffffffffffffffffffffffffffffff168152602001600073ffffffffffffffffffffffffffffffffffffffff168152602001600073ffffffffffffffffffffffffffffffffffffffff16815260200183815260200160405180602001604052806000815250815250600e82604051611f059190614b20565b90815260200160405180910390206000820151816000019081611f28919061506d565b506020820151816001019081611f3e919061506d565b506040820151816002015560608201518160030160006101000a81548173ffffffffffffffffffffffffffffffffffffffff021916908373ffffffffffffffffffffffffffffffffffffffff16021790555060808201518160040160006101000a81548173ffffffffffffffffffffffffffffffffffffffff021916908373ffffffffffffffffffffffffffffffffffffffff16021790555060a08201518160050160006101000a81548173ffffffffffffffffffffffffffffffffffffffff021916908373ffffffffffffffffffffffffffffffffffffffff16021790555060c0820151816006019081612033919061506d565b5060e0820151816007019081612049919061506d565b509050508360098360405161205e9190614b20565b9081526020016040518091039020600301600082825461207e919061543a565b92505081905550600d819080600181540180825580915050600190039060005260206000200160009091909190915090816120b9919061506d565b5060016014826040516120cc9190614b20565b908152602001604051809103902060006101000a81548160ff0219169083151502179055506006600081548092919061210490614dfc565b919050555050505050565b600d818154811061211f57600080fd5b90600052602060002001600091509050805461213a9061496f565b80601f01602080910402602001604051908101604052809291908181526020018280546121669061496f565b80156121b35780601f10612188576101008083540402835291602001916121b3565b820191906000526020600020905b81548152906001019060200180831161219657829003601f168201915b505050505081565b600a818051602081018201805184825260208301602085012081835280955050505050506000915090508060000180546121f49061496f565b80601f01602080910402602001604051908101604052809291908181526020018280546122209061496f565b801561226d5780601f106122425761010080835404028352916020019161226d565b820191906000526020600020905b81548152906001019060200180831161225057829003601f168201915b5050505050908060010160009054906101000a900473ffffffffffffffffffffffffffffffffffffffff16908060020180546122a89061496f565b80601f01602080910402602001604051908101604052809291908181526020018280546122d49061496f565b80156123215780601f106122f657610100808354040283529160200191612321565b820191906000526020600020905b81548152906001019060200180831161230457829003601f168201915b5050505050908060030160009054906101000a900460ff16908060040180546123499061496f565b80601f01602080910402602001604051908101604052809291908181526020018280546123759061496f565b80156123c25780601f10612397576101008083540402835291602001916123c2565b820191906000526020600020905b8154815290600101906020018083116123a557829003601f168201915b5050505050908060050180546123d79061496f565b80601f01602080910402602001604051908101604052809291908181526020018280546124039061496f565b80156124505780601f1061242557610100808354040283529160200191612450565b820191906000526020600020905b81548152906001019060200180831161243357829003601f168201915b5050505050905086565b60008060008373ffffffffffffffffffffffffffffffffffffffff1673ffffffffffffffffffffffffffffffffffffffff168152602001908152602001600020549050919050565b6124aa6136c2565b6124b46000613afa565b565b6013826040516124c69190614b20565b908152602001604051809103902060009054906101000a900460ff16612521576040517f08c379a00000000000000000000000000000000000000000000000000000000081526004016125189061526d565b60405180910390fd5b601060009054906101000a900473ffffffffffffffffffffffffffffffffffffffff1673ffffffffffffffffffffffffffffffffffffffff163373ffffffffffffffffffffffffffffffffffffffff16146125b1576040517f08c379a00000000000000000000000000000000000000000000000000000000081526004016125a8906152d9565b60405180910390fd5b60005b600d805490508110156127bd576000600e600d83815481106125d9576125d8614ba3565b5b906000526020600020016040516125f09190614c6a565b90815260200160405180910390209050600a846040516126109190614b20565b908152602001604051809103902060020160405161262e9190614d24565b6040518091039020816006016040516126479190614d24565b60405180910390201480156126a85750600a846040516126679190614b20565b90815260200160405180910390206004016040516126859190614d24565b60405180910390208160070160405161269e9190614d24565b6040518091039020145b156127a9576040518060400160405280600781526020017f536869707065640000000000000000000000000000000000000000000000000081525080519060200120816001016040516126fb9190614d24565b6040518091039020036127a85782816007019081612719919061506d565b506040518060400160405280600781526020017f526563796c656400000000000000000000000000000000000000000000000000815250816001019081612760919061506d565b5060006103e88260020154612775919061513f565b90506127a58260030160009054906101000a900473ffffffffffffffffffffffffffffffffffffffff1682612eaa565b50505b5b5080806127b590614dfc565b9150506125b4565b5080600a836040516127cf9190614b20565b908152602001604051809103902060040190816127ec919061506d565b506040518060400160405280600781526020017f526563796c656400000000000000000000000000000000000000000000000000815250600a836040516128339190614b20565b90815260200160405180910390206005019081612850919061506d565b505050565b606061285f6136c2565b60006128696138d1565b905060128160405161287b9190614b20565b908152602001604051809103902060009054906101000a900460ff16156128d7576040517f08c379a00000000000000000000000000000000000000000000000000000000081526004016128ce9061566a565b60405180910390fd5b6040518060800160405280828152602001868152602001858152602001848152506009826040516129089190614b20565b9081526020016040518091039020600082015181600001908161292b919061506d565b506020820151816001019081612941919061506d565b506040820151816002015560608201518160030155905050600b8190806001815401808255809150506001900390600052602060002001600090919091909150908161298d919061506d565b50600760008154809291906129a190614dfc565b919050555060016012826040516129b89190614b20565b908152602001604051809103902060006101000a81548160ff0219169083151502179055507fd5413a7934f1aa973af7bc53f68df06953b49031401619e5997d54afb849377e81604051612a0c91906140a9565b60405180910390a1809150509392505050565b612a276136c2565b601560008273ffffffffffffffffffffffffffffffffffffffff1673ffffffffffffffffffffffffffffffffffffffff16815260200190815260200160002060009054906101000a900460ff16612ab3576040517f08c379a0000000000000000000000000000000000000000000000000000000008152600401612aaa906149ec565b60405180910390fd5b60005b600f80549050811015612c97578173ffffffffffffffffffffffffffffffffffffffff16600f8281548110612aee57612aed614ba3565b5b9060005260206000200160009054906101000a900473ffffffffffffffffffffffffffffffffffffffff1673ffffffffffffffffffffffffffffffffffffffff1603612c8457600f6001600f80549050612b489190615181565b81548110612b5957612b58614ba3565b5b9060005260206000200160009054906101000a900473ffffffffffffffffffffffffffffffffffffffff16600f8281548110612b9857612b97614ba3565b5b9060005260206000200160006101000a81548173ffffffffffffffffffffffffffffffffffffffff021916908373ffffffffffffffffffffffffffffffffffffffff160217905550600f805480612bf257612bf161568a565b5b6001900381819060005260206000200160006101000a81549073ffffffffffffffffffffffffffffffffffffffff021916905590556000601560008473ffffffffffffffffffffffffffffffffffffffff1673ffffffffffffffffffffffffffffffffffffffff16815260200190815260200160002060006101000a81548160ff021916908315150217905550612c97565b8080612c8f90614dfc565b915050612ab6565b5050565b6000600560009054906101000a900473ffffffffffffffffffffffffffffffffffffffff16905090565b606060048054612cd49061496f565b80601f0160208091040260200160405190810160405280929190818152602001828054612d009061496f565b8015612d4d5780601f10612d2257610100808354040283529160200191612d4d565b820191906000526020600020905b815481529060010190602001808311612d3057829003601f168201915b5050505050905090565b612d5f6136c2565b601660008273ffffffffffffffffffffffffffffffffffffffff1673ffffffffffffffffffffffffffffffffffffffff16815260200190815260200160002060009054906101000a900460ff1615612dec576040517f08c379a0000000000000000000000000000000000000000000000000000000008152600401612de390615705565b60405180910390fd5b6011819080600181540180825580915050600190039060005260206000200160009091909190916101000a81548173ffffffffffffffffffffffffffffffffffffffff021916908373ffffffffffffffffffffffffffffffffffffffff1602179055506001601660008373ffffffffffffffffffffffffffffffffffffffff1673ffffffffffffffffffffffffffffffffffffffff16815260200190815260200160002060006101000a81548160ff02191690831515021790555050565b6000612ebe612eb76136a8565b84846137dd565b6001905092915050565b612ed06136c2565b601660008273ffffffffffffffffffffffffffffffffffffffff1673ffffffffffffffffffffffffffffffffffffffff16815260200190815260200160002060009054906101000a900460ff16612f5c576040517f08c379a0000000000000000000000000000000000000000000000000000000008152600401612f5390615771565b60405180910390fd5b7f7d0afd94fbb67c41dce82b00240b23eb17cd64b8971fe1b722eee0363a2dede0604051612f89906157dd565b60405180910390a150565b60075481565b612fa26136c2565b601281604051612fb29190614b20565b908152602001604051809103902060009054906101000a900460ff1661300d576040517f08c379a000000000000000000000000000000000000000000000000000000000815260040161300490615849565b60405180910390fd5b600060128260405161301f9190614b20565b908152602001604051809103902060006101000a81548160ff0219169083151502179055506009816040516130549190614b20565b9081526020016040518091039020600080820160006130739190613fbc565b6001820160006130839190613fbc565b60028201600090556003820160009055505060005b600b805490508110156131ec578180519060200120600b82815481106130c1576130c0614ba3565b5b906000526020600020016040516130d89190614d24565b6040518091039020036131d95760008190505b6001600b805490506130fd9190615181565b81101561316c57600b600182613113919061543a565b8154811061312457613123614ba3565b5b90600052602060002001600b828154811061314257613141614ba3565b5b906000526020600020019081613158919061587f565b50808061316490614dfc565b9150506130eb565b50600b80548061317f5761317e61568a565b5b60019003818190600052602060002001600061319b9190613fbc565b905560006012836040516131af9190614b20565b908152602001604051809103902060006101000a81548160ff0219169083151502179055506131ec565b80806131e490614dfc565b915050613098565b506007600081548092919061320090615967565b919050555050565b60085481565b60176020528060005260406000206000915090505481565b601a5481565b6000600160008473ffffffffffffffffffffffffffffffffffffffff1673ffffffffffffffffffffffffffffffffffffffff16815260200190815260200160002060008373ffffffffffffffffffffffffffffffffffffffff1673ffffffffffffffffffffffffffffffffffffffff16815260200190815260200160002054905092915050565b6132bb6136c2565b601660008273ffffffffffffffffffffffffffffffffffffffff1673ffffffffffffffffffffffffffffffffffffffff16815260200190815260200160002060009054906101000a900460ff16613347576040517f08c379a000000000000000000000000000000000000000000000000000000000815260040161333e90615771565b60405180910390fd5b60005b60118054905081101561352b578173ffffffffffffffffffffffffffffffffffffffff166011828154811061338257613381614ba3565b5b9060005260206000200160009054906101000a900473ffffffffffffffffffffffffffffffffffffffff1673ffffffffffffffffffffffffffffffffffffffff160361351857601160016011805490506133dc9190615181565b815481106133ed576133ec614ba3565b5b9060005260206000200160009054906101000a900473ffffffffffffffffffffffffffffffffffffffff166011828154811061342c5761342b614ba3565b5b9060005260206000200160006101000a81548173ffffffffffffffffffffffffffffffffffffffff021916908373ffffffffffffffffffffffffffffffffffffffff16021790555060118054806134865761348561568a565b5b6001900381819060005260206000200160006101000a81549073ffffffffffffffffffffffffffffffffffffffff021916905590556000601660008473ffffffffffffffffffffffffffffffffffffffff1673ffffffffffffffffffffffffffffffffffffffff16815260200190815260200160002060006101000a81548160ff02191690831515021790555061352b565b808061352390614dfc565b91505061334a565b5050565b60128360405161353f9190614b20565b908152602001604051809103902060009054906101000a900460ff1661359a576040517f08c379a000000000000000000000000000000000000000000000000000000000815260040161359190615849565b60405180910390fd5b604051806080016040528084815260200183815260200182815260200160008152506009846040516135cc9190614b20565b908152602001604051809103902060008201518160000190816135ef919061506d565b506020820151816001019081613605919061506d565b506040820151816002015560608201518160030155905050505050565b61362a6136c2565b600073ffffffffffffffffffffffffffffffffffffffff168173ffffffffffffffffffffffffffffffffffffffff160361369c5760006040517f1e4fbdf7000000000000000000000000000000000000000000000000000000008152600401613693919061485a565b60405180910390fd5b6136a581613afa565b50565b600033905090565b6136bd8383836001613bc0565b505050565b6136ca6136a8565b73ffffffffffffffffffffffffffffffffffffffff166136e8612c9b565b73ffffffffffffffffffffffffffffffffffffffff16146137475761370b6136a8565b6040517f118cdaa700000000000000000000000000000000000000000000000000000000815260040161373e919061485a565b60405180910390fd5b565b6000613755848461322c565b90507fffffffffffffffffffffffffffffffffffffffffffffffffffffffffffffffff81146137d757818110156137c7578281836040517ffb8f41b20000000000000000000000000000000000000000000000000000000081526004016137be93929190615990565b60405180910390fd5b6137d684848484036000613bc0565b5b50505050565b600073ffffffffffffffffffffffffffffffffffffffff168373ffffffffffffffffffffffffffffffffffffffff160361384f5760006040517f96c6fd1e000000000000000000000000000000000000000000000000000000008152600401613846919061485a565b60405180910390fd5b600073ffffffffffffffffffffffffffffffffffffffff168273ffffffffffffffffffffffffffffffffffffffff16036138c15760006040517fec442f050000000000000000000000000000000000000000000000000000000081526004016138b8919061485a565b60405180910390fd5b6138cc838383613d97565b505050565b60606000424441336007546006546008546040516020016138f89796959493929190615a6b565b60405160208183030381529060405280519060200120905060008160001c90506000810361395f576040518060400160405280600181526020017f300000000000000000000000000000000000000000000000000000000000000081525092505050613a75565b600081905060005b6000821461399157808061397a90614dfc565b915050600a8261398a9190615b1b565b9150613967565b60008167ffffffffffffffff8111156139ad576139ac6141f3565b5b6040519080825280601f01601f1916602001820160405280156139df5781602001600182028036833780820191505090505b5090505b60008414613a6c576001826139f89190615181565b9150600a84613a079190615b4c565b6030613a13919061543a565b60f81b818381518110613a2957613a28614ba3565b5b60200101907effffffffffffffffffffffffffffffffffffffffffffffffffffffffffffff1916908160001a905350600a84613a659190615b1b565b93506139e3565b80955050505050505b90565b600073ffffffffffffffffffffffffffffffffffffffff168273ffffffffffffffffffffffffffffffffffffffff1603613aea5760006040517fec442f05000000000000000000000000000000000000000000000000000000008152600401613ae1919061485a565b60405180910390fd5b613af660008383613d97565b5050565b6000600560009054906101000a900473ffffffffffffffffffffffffffffffffffffffff16905081600560006101000a81548173ffffffffffffffffffffffffffffffffffffffff021916908373ffffffffffffffffffffffffffffffffffffffff1602179055508173ffffffffffffffffffffffffffffffffffffffff168173ffffffffffffffffffffffffffffffffffffffff167f8be0079c531659141344cd1fd0a4f28419497f9722a3daafe3b4186f6b6457e060405160405180910390a35050565b600073ffffffffffffffffffffffffffffffffffffffff168473ffffffffffffffffffffffffffffffffffffffff1603613c325760006040517fe602df05000000000000000000000000000000000000000000000000000000008152600401613c29919061485a565b60405180910390fd5b600073ffffffffffffffffffffffffffffffffffffffff168373ffffffffffffffffffffffffffffffffffffffff1603613ca45760006040517f94280d62000000000000000000000000000000000000000000000000000000008152600401613c9b919061485a565b60405180910390fd5b81600160008673ffffffffffffffffffffffffffffffffffffffff1673ffffffffffffffffffffffffffffffffffffffff16815260200190815260200160002060008573ffffffffffffffffffffffffffffffffffffffff1673ffffffffffffffffffffffffffffffffffffffff168152602001908152602001600020819055508015613d91578273ffffffffffffffffffffffffffffffffffffffff168473ffffffffffffffffffffffffffffffffffffffff167f8c5be1e5ebec7d5bd14f71427d1e84f3dd0314c0f7b2291e5b200ac8c7c3b92584604051613d8891906143c9565b60405180910390a35b50505050565b600073ffffffffffffffffffffffffffffffffffffffff168373ffffffffffffffffffffffffffffffffffffffff1603613de9578060026000828254613ddd919061543a565b92505081905550613ebc565b60008060008573ffffffffffffffffffffffffffffffffffffffff1673ffffffffffffffffffffffffffffffffffffffff16815260200190815260200160002054905081811015613e75578381836040517fe450d38c000000000000000000000000000000000000000000000000000000008152600401613e6c93929190615990565b60405180910390fd5b8181036000808673ffffffffffffffffffffffffffffffffffffffff1673ffffffffffffffffffffffffffffffffffffffff16815260200190815260200160002081905550505b600073ffffffffffffffffffffffffffffffffffffffff168273ffffffffffffffffffffffffffffffffffffffff1603613f055780600260008282540392505081905550613f52565b806000808473ffffffffffffffffffffffffffffffffffffffff1673ffffffffffffffffffffffffffffffffffffffff168152602001908152602001600020600082825401925050819055505b8173ffffffffffffffffffffffffffffffffffffffff168373ffffffffffffffffffffffffffffffffffffffff167fddf252ad1be2c89b69c2b068fc378daa952ba7f163c4a11628f55a4df523b3ef83604051613faf91906143c9565b60405180910390a3505050565b508054613fc89061496f565b6000825580601f10613fda5750613ff9565b601f016020900490600052602060002090810190613ff89190613ffc565b5b50565b5b80821115614015576000816000905550600101613ffd565b5090565b600081519050919050565b600082825260208201905092915050565b60005b83811015614053578082015181840152602081019050614038565b60008484015250505050565b6000601f19601f8301169050919050565b600061407b82614019565b6140858185614024565b9350614095818560208601614035565b61409e8161405f565b840191505092915050565b600060208201905081810360008301526140c38184614070565b905092915050565b6000604051905090565b600080fd5b600080fd5b600073ffffffffffffffffffffffffffffffffffffffff82169050919050565b600061410a826140df565b9050919050565b61411a816140ff565b811461412557600080fd5b50565b60008135905061413781614111565b92915050565b6000819050919050565b6141508161413d565b811461415b57600080fd5b50565b60008135905061416d81614147565b92915050565b6000806040838503121561418a576141896140d5565b5b600061419885828601614128565b92505060206141a98582860161415e565b9150509250929050565b60008115159050919050565b6141c8816141b3565b82525050565b60006020820190506141e360008301846141bf565b92915050565b600080fd5b600080fd5b7f4e487b7100000000000000000000000000000000000000000000000000000000600052604160045260246000fd5b61422b8261405f565b810181811067ffffffffffffffff8211171561424a576142496141f3565b5b80604052505050565b600061425d6140cb565b90506142698282614222565b919050565b600067ffffffffffffffff821115614289576142886141f3565b5b6142928261405f565b9050602081019050919050565b82818337600083830152505050565b60006142c16142bc8461426e565b614253565b9050828152602081018484840111156142dd576142dc6141ee565b5b6142e884828561429f565b509392505050565b600082601f830112614305576143046141e9565b5b81356143158482602086016142ae565b91505092915050565b600060208284031215614334576143336140d5565b5b600082013567ffffffffffffffff811115614352576143516140da565b5b61435e848285016142f0565b91505092915050565b6143708161413d565b82525050565b600060808201905081810360008301526143908187614070565b905081810360208301526143a48186614070565b90506143b36040830185614367565b6143c06060830184614367565b95945050505050565b60006020820190506143de6000830184614367565b92915050565b6000602082840312156143fa576143f96140d5565b5b600061440884828501614128565b91505092915050565b60008060006060848603121561442a576144296140d5565b5b600061443886828701614128565b935050602061444986828701614128565b925050604061445a8682870161415e565b9150509250925092565b600060ff82169050919050565b61447a81614464565b82525050565b60006020820190506144956000830184614471565b92915050565b6000806000606084860312156144b4576144b36140d5565b5b60006144c286828701614128565b935050602084013567ffffffffffffffff8111156144e3576144e26140da565b5b6144ef868287016142f0565b925050604084013567ffffffffffffffff8111156145105761450f6140da565b5b61451c868287016142f0565b9150509250925092565b60008060006060848603121561453f5761453e6140d5565b5b600084013567ffffffffffffffff81111561455d5761455c6140da565b5b614569868287016142f0565b935050602061457a86828701614128565b925050604084013567ffffffffffffffff81111561459b5761459a6140da565b5b6145a7868287016142f0565b9150509250925092565b6145ba816140ff565b82525050565b60006101008201905081810360008301526145db818b614070565b905081810360208301526145ef818a614070565b90506145fe6040830189614367565b61460b60608301886145b1565b61461860808301876145b1565b61462560a08301866145b1565b81810360c08301526146378185614070565b905081810360e083015261464b8184614070565b90509998505050505050505050565b600080600060608486031215614673576146726140d5565b5b60006146818682870161415e565b935050602061469286828701614128565b925050604084013567ffffffffffffffff8111156146b3576146b26140da565b5b6146bf868287016142f0565b9150509250925092565b6000602082840312156146df576146de6140d5565b5b60006146ed8482850161415e565b91505092915050565b600060c08201905081810360008301526147108189614070565b905061471f60208301886145b1565b81810360408301526147318187614070565b905061474060608301866141bf565b81810360808301526147528185614070565b905081810360a08301526147668184614070565b9050979650505050505050565b6000806040838503121561478a576147896140d5565b5b600083013567ffffffffffffffff8111156147a8576147a76140da565b5b6147b4858286016142f0565b925050602083013567ffffffffffffffff8111156147d5576147d46140da565b5b6147e1858286016142f0565b9150509250929050565b600080600060608486031215614804576148036140d5565b5b600084013567ffffffffffffffff811115614822576148216140da565b5b61482e868287016142f0565b935050602061483f8682870161415e565b92505060406148508682870161415e565b9150509250925092565b600060208201905061486f60008301846145b1565b92915050565b6000806040838503121561488c5761488b6140d5565b5b600061489a85828601614128565b92505060206148ab85828601614128565b9150509250929050565b6000806000606084860312156148ce576148cd6140d5565b5b600084013567ffffffffffffffff8111156148ec576148eb6140da565b5b6148f8868287016142f0565b935050602084013567ffffffffffffffff811115614919576149186140da565b5b614925868287016142f0565b92505060406149368682870161415e565b9150509250925092565b7f4e487b7100000000000000000000000000000000000000000000000000000000600052602260045260246000fd5b6000600282049050600182168061498757607f821691505b60208210810361499a57614999614940565b5b50919050565b7f436974697a656e20646f6573206e6f7420657869737400000000000000000000600082015250565b60006149d6601683614024565b91506149e1826149a0565b602082019050919050565b60006020820190508181036000830152614a05816149c9565b9050919050565b7f436974697a656e2063616e206265206d6f646966696564000000000000000000600082015250565b6000614a42601783614024565b9150614a4d82614a0c565b602082019050919050565b60006020820190508181036000830152614a7181614a35565b9050919050565b7f5368697070657220646f65736e27742065786973740000000000000000000000600082015250565b6000614aae601583614024565b9150614ab982614a78565b602082019050919050565b60006020820190508181036000830152614add81614aa1565b9050919050565b600081905092915050565b6000614afa82614019565b614b048185614ae4565b9350614b14818560208601614035565b80840191505092915050565b6000614b2c8284614aef565b915081905092915050565b7f42696e20646f65736e2774206578697374000000000000000000000000000000600082015250565b6000614b6d601183614024565b9150614b7882614b37565b602082019050919050565b60006020820190508181036000830152614b9c81614b60565b9050919050565b7f4e487b7100000000000000000000000000000000000000000000000000000000600052603260045260246000fd5b60008190508160005260206000209050919050565b60008154614bf48161496f565b614bfe8186614ae4565b94506001821660008114614c195760018114614c2e57614c61565b60ff1983168652811515820286019350614c61565b614c3785614bd2565b60005b83811015614c5957815481890152600182019150602081019050614c3a565b838801955050505b50505092915050565b6000614c768284614be7565b915081905092915050565b600081905092915050565b60008190508160005260206000209050919050565b60008154614cae8161496f565b614cb88186614c81565b94506001821660008114614cd35760018114614ce857614d1b565b60ff1983168652811515820286019350614d1b565b614cf185614c8c565b60005b83811015614d1357815481890152600182019150602081019050614cf4565b838801955050505b50505092915050565b6000614d308284614ca1565b915081905092915050565b7f436f6c6c656374696f6e20616c72656164792065786973747320666f7220746860008201527f69732062696e20616e6420646174650000000000000000000000000000000000602082015250565b6000614d97602f83614024565b9150614da282614d3b565b604082019050919050565b60006020820190508181036000830152614dc681614d8a565b9050919050565b7f4e487b7100000000000000000000000000000000000000000000000000000000600052601160045260246000fd5b6000614e078261413d565b91507fffffffffffffffffffffffffffffffffffffffffffffffffffffffffffffffff8203614e3957614e38614dcd565b5b600182019050919050565b7f47656e657261746564204944436f6c6c656374696f6e20616c7265616479206560008201527f7869737473000000000000000000000000000000000000000000000000000000602082015250565b6000614ea0602583614024565b9150614eab82614e44565b604082019050919050565b60006020820190508181036000830152614ecf81614e93565b9050919050565b60006020601f8301049050919050565b600082821b905092915050565b600060088302614f237fffffffffffffffffffffffffffffffffffffffffffffffffffffffffffffffff82614ee6565b614f2d8683614ee6565b95508019841693508086168417925050509392505050565b6000819050919050565b6000614f6a614f65614f608461413d565b614f45565b61413d565b9050919050565b6000819050919050565b614f8483614f4f565b614f98614f9082614f71565b848454614ef3565b825550505050565b600090565b614fad614fa0565b614fb8818484614f7b565b505050565b5b81811015614fdc57614fd1600082614fa5565b600181019050614fbe565b5050565b601f82111561502157614ff281614bd2565b614ffb84614ed6565b8101602085101561500a578190505b61501e61501685614ed6565b830182614fbd565b50505b505050565b600082821c905092915050565b600061504460001984600802615026565b1980831691505092915050565b600061505d8383615033565b9150826002028217905092915050565b61507682614019565b67ffffffffffffffff81111561508f5761508e6141f3565b5b615099825461496f565b6150a4828285614fe0565b600060209050601f8311600181146150d757600084156150c5578287015190505b6150cf8582615051565b865550615137565b601f1984166150e586614bd2565b60005b8281101561510d578489015182556001820191506020850194506020810190506150e8565b8683101561512a5784890151615126601f891682615033565b8355505b6001600288020188555050505b505050505050565b600061514a8261413d565b91506151558361413d565b92508282026151638161413d565b9150828204841483151761517a57615179614dcd565b5b5092915050565b600061518c8261413d565b91506151978361413d565b92508282039050818111156151af576151ae614dcd565b5b92915050565b7f436974697a656e20616c72656164792065786973747300000000000000000000600082015250565b60006151eb601683614024565b91506151f6826151b5565b602082019050919050565b6000602082019050818103600083015261521a816151de565b9050919050565b7f436f6c6c656374696f6e20646f65736e27742065786973740000000000000000600082015250565b6000615257601883614024565b915061526282615221565b602082019050919050565b600060208201905081810360008301526152868161524a565b9050919050565b7f20466f7262696464656e20000000000000000000000000000000000000000000600082015250565b60006152c3600b83614024565b91506152ce8261528d565b602082019050919050565b600060208201905081810360008301526152f2816152b6565b9050919050565b7f5468697320636f6c6c656374696f6e20646f65736e277420636f6e6365726e2060008201527f7468697320736869707065720000000000000000000000000000000000000000602082015250565b6000615355602c83614024565b9150615360826152f9565b604082019050919050565b6000602082019050818103600083015261538481615348565b9050919050565b60008190508160005260206000209050919050565b600081546153ad8161496f565b6153b78186614ae4565b945060018216600081146153d257600181146153e75761541a565b60ff198316865281151582028601935061541a565b6153f08561538b565b60005b83811015615412578154818901526001820191506020810190506153f3565b838801955050505b50505092915050565b600061542f82846153a0565b915081905092915050565b60006154458261413d565b91506154508361413d565b925082820190508082111561546857615467614dcd565b5b92915050565b7f4d617820537570706c7920457863656564656400000000000000000000000000600082015250565b60006154a4601383614024565b91506154af8261546e565b602082019050919050565b600060208201905081810360008301526154d381615497565b9050919050565b7f436974697a656e20646f65736e27742065786973740000000000000000000000600082015250565b6000615510601583614024565b915061551b826154da565b602082019050919050565b6000602082019050818103600083015261553f81615503565b9050919050565b7f576173746520616c726561647920657869737473000000000000000000000000600082015250565b600061557c601483614024565b915061558782615546565b602082019050919050565b600060208201905081810360008301526155ab8161556f565b9050919050565b7f42696e2063617061636974792065786365656465640000000000000000000000600082015250565b60006155e8601583614024565b91506155f3826155b2565b602082019050919050565b60006020820190508181036000830152615617816155db565b9050919050565b7f47656e65726174656420494420616c7265616479206578697374730000000000600082015250565b6000615654601b83614024565b915061565f8261561e565b602082019050919050565b6000602082019050818103600083015261568381615647565b9050919050565b7f4e487b7100000000000000000000000000000000000000000000000000000000600052603160045260246000fd5b7f5368697070657220616c72656164792065786973747300000000000000000000600082015250565b60006156ef601683614024565b91506156fa826156b9565b602082019050919050565b6000602082019050818103600083015261571e816156e2565b9050919050565b7f5368697070657220646f6573206e6f7420657869737400000000000000000000600082015250565b600061575b601683614024565b915061576682615725565b602082019050919050565b6000602082019050818103600083015261578a8161574e565b9050919050565b7f536869707065722063616e206265206d6f646966696564000000000000000000600082015250565b60006157c7601783614024565b91506157d282615791565b602082019050919050565b600060208201905081810360008301526157f6816157ba565b9050919050565b7f42696e20646f6573206e6f742065786973740000000000000000000000000000600082015250565b6000615833601283614024565b915061583e826157fd565b602082019050919050565b6000602082019050818103600083015261586281615826565b9050919050565b6000815490506158788161496f565b9050919050565b81810361588d575050615965565b61589682615869565b67ffffffffffffffff8111156158af576158ae6141f3565b5b6158b9825461496f565b6158c4828285614fe0565b6000601f8311600181146158f357600084156158e1578287015490505b6158eb8582615051565b86555061595e565b601f1984166159018761538b565b965061590c86614bd2565b60005b828110156159345784890154825560018201915060018501945060208101905061590f565b86831015615951578489015461594d601f891682615033565b8355505b6001600288020188555050505b5050505050505b565b60006159728261413d565b91506000820361598557615984614dcd565b5b600182039050919050565b60006060820190506159a560008301866145b1565b6159b26020830185614367565b6159bf6040830184614367565b949350505050565b6000819050919050565b6159e26159dd8261413d565b6159c7565b82525050565b60006159f3826140df565b9050919050565b60008160601b9050919050565b6000615a12826159fa565b9050919050565b6000615a2482615a07565b9050919050565b615a3c615a37826159e8565b615a19565b82525050565b6000615a4d82615a07565b9050919050565b615a65615a60826140ff565b615a42565b82525050565b6000615a77828a6159d1565b602082019150615a8782896159d1565b602082019150615a978288615a2b565b601482019150615aa78287615a54565b601482019150615ab782866159d1565b602082019150615ac782856159d1565b602082019150615ad782846159d1565b60208201915081905098975050505050505050565b7f4e487b7100000000000000000000000000000000000000000000000000000000600052601260045260246000fd5b6000615b268261413d565b9150615b318361413d565b925082615b4157615b40615aec565b5b828204905092915050565b6000615b578261413d565b9150615b628361413d565b925082615b7257615b71615aec565b5b82820690509291505056fea2646970667358221220c23420f54768bf8fbbd075e00f9dfd1a613c3bac53ee2c0ec447f28f9050c1a464736f6c63430008140033",
  "immutableReferences": {},
  "source": "// SPDX-License-Identifier: MIT\r\npragma solidity >=0.8.0;\r\n\r\nimport \"@openzeppelin/contracts/token/ERC20/ERC20.sol\";\r\nimport \"@openzeppelin/contracts/access/Ownable.sol\";\r\n\r\ncontract WasteManagement is ERC20, Ownable {\r\n    struct Bin {\r\n        string id; // Changed type to string\r\n        string location;\r\n        uint256 capacity;\r\n        uint256 currentWeight;\r\n    }\r\n    struct Waste {\r\n        string id;\r\n        string status;\r\n        uint256 weight;\r\n        address citizenId;\r\n        address shipperId;\r\n        address recyclerId;\r\n        string binId; // Changed type to string\r\n        string dateCollection;\r\n    }\r\n    struct Collection {\r\n        string idCollection;\r\n        address shipperNotified;\r\n        string binNotif; // Changed type to string\r\n        bool done;\r\n        string date;\r\n        string status;\r\n    }\r\n    struct Notif {\r\n        address shipperNotified;\r\n        string binNotif; // Changed type to string\r\n        bool done;\r\n    }\r\n    event BinCreated(string id);\r\n    //event BinCreated(string id);\r\n    event CollectionCreated(string id);\r\n    event ModifShipper(string message);\r\n    event ModifCitizen(string message);\r\n    uint public wasteCount;\r\n    uint public binCount;\r\n    uint public collectionCount;\r\n    mapping(string => Bin) public bins; // Changed key type to string\r\n    mapping(string => Collection) public collections;\r\n    string[] binIds; // Changed type to string\r\n    string[] collectionIds;\r\n    string[] public wasteIds; // Changed type to string\r\n    mapping(string => Waste) public wastes; // Changed key type to string\r\n    address[] citizens;\r\n    address recycler = address(0x056ba2E0789740FB3C8c8C4E6B1d2B247D296ab3);\r\n    //recycler yesmmine : 0x056ba2E0789740FB3C8c8C4E6B1d2B247D296ab3\r\n    //recycler houssem : 0x56383d8e914BA54040125bAeD014ddCAE01DE81A\r\n    address[] shippers;\r\n    mapping(string => bool) isBin;\r\n    mapping(string => bool) isCollection;\r\n    mapping(string => bool) isWaste;\r\n    mapping(address => bool) isCitizen;\r\n    mapping(address => bool) isShipper;\r\n    //mapping(address => mapping(string => Notif)) public notifications; // Changed key type to string\r\n    mapping(address => uint256) public citizenRewards;\r\n    uint256 shipCount=0;\r\n    mapping(address => mapping(string => Notif))  notifications;\r\n\r\n\r\n    uint public maxSupply;\r\n    uint public dispoRC;\r\n    constructor() ERC20(\"GreenEarn Transfer\", \"GRN\") Ownable(msg.sender) {\r\n        maxSupply = 1000000000000000000000; // 1000000000000000000000 GRN\r\n        mint(msg.sender, 1000000000000000000000); // Mint initial supply to contract deployer\r\n        transfer(recycler, 1000000000000000000000);\r\n        dispoRC=1000000000000000000000;\r\n    }\r\n\r\n    function mint(address to, uint amount) public onlyOwner {\r\n        require(totalSupply() + amount <= maxSupply, \"Max Supply Exceeded\");\r\n        _mint(to, amount);\r\n    }\r\n\r\n    function transfer(address recipient, uint256 amount) public override returns (bool) {\r\n        _transfer(_msgSender(), recipient, amount);\r\n        return true;\r\n    }\r\n\r\n                     //*************Bin************//\r\n    function createBin(string memory _location,  uint256 _capacity, uint256 _currentWeight) external onlyOwner returns (string memory) {\r\n        string memory _id = generateUniqueId();\r\n        require(!isBin[_id], \"Generated ID already exists\");\r\n        bins[_id] = Bin(_id, _location,  _capacity, _currentWeight);\r\n        binIds.push(_id);\r\n        binCount++;\r\n        isBin[_id] = true;\r\n        emit BinCreated(_id);\r\n        return _id;\r\n    \r\n    }\r\n\r\n    function modifyBin(string memory _id, string memory _location,  uint256 _capacity) external {\r\n        require(isBin[_id], \"Bin does not exist\");\r\n        bins[_id] = Bin(_id, _location,_capacity,0);\r\n    }\r\n\r\n    function deleteBin(string memory _id) external onlyOwner {\r\n        require(isBin[_id], \"Bin does not exist\");\r\n        \r\n        // Update mappings and arrays\r\n        isBin[_id] = false;\r\n        delete bins[_id];\r\n        \r\n        // Find and remove the bin ID from binIds array\r\n        for (uint256 i = 0; i < binIds.length; i++) {\r\n            if (keccak256(bytes(binIds[i])) == keccak256(bytes(_id))) {\r\n                for (uint256 j = i; j < binIds.length - 1; j++) {\r\n                    binIds[j] = binIds[j + 1];\r\n                }\r\n                binIds.pop();\r\n                isBin[_id]=false;\r\n                break;\r\n            }\r\n        }\r\n        \r\n        // Decrement binCount\r\n        binCount--;\r\n    }\r\n    \r\n   \r\n    function generateUniqueId() internal  returns (string memory) {\r\n        bytes32 hash = keccak256(abi.encodePacked(block.timestamp,block.prevrandao,block.coinbase,msg.sender,binCount,wasteCount,collectionCount ));\r\n\r\n        // Convert hash to string\r\n        uint256 value = uint256(hash);\r\n        if (value == 0) {\r\n            return \"0\";\r\n        }\r\n        \r\n        uint256 temp = value;\r\n        uint256 digits;\r\n        \r\n        while (temp != 0) {\r\n            digits++;\r\n            temp /= 10;\r\n        }\r\n        \r\n        bytes memory buffer = new bytes(digits);\r\n        \r\n        while (value != 0) {\r\n            digits -= 1;\r\n            buffer[digits] = bytes1(uint8(48 + uint256(value % 10)));\r\n            value /= 10;\r\n        }\r\n        \r\n        return string(buffer);\r\n    }\r\n\r\n                   //*****************Shipper********************//\r\n    function createShipper(address _shipper) external onlyOwner {\r\n        require(!isShipper[_shipper], \"Shipper already exists\");\r\n\r\n        shippers.push(_shipper);\r\n        isShipper[_shipper] = true;\r\n    }\r\n\r\n\r\n    function createWaste(uint256 _weight, address _citizenId, string memory _binId) external {\r\n        string memory _id = generateUniqueId();\r\n\r\n        require(isBin[_binId], \"Bin doesn't exist\");\r\n        require(isCitizen[_citizenId], \"Citizen doesn't exist\");\r\n        require(!isWaste[_id], \"Waste already exists\");\r\n        require(bins[_binId].capacity - bins[_binId].currentWeight >= _weight, \"Bin capacity exceeded\");\r\n        require(msg.sender==_citizenId,\" Forbidden \");\r\n        // Create waste\r\n        wastes[_id] = Waste(_id, \"Waiting\", _weight, _citizenId, address(0), address(0), _binId, \"\");\r\n        bins[_binId].currentWeight+=_weight;\r\n        wasteIds.push(_id);\r\n        isWaste[_id] = true;\r\n        wasteCount++;\r\n    }\r\n\r\n    function createCollection(address _shipper, string memory _idBin, string memory _date) external onlyOwner returns (string memory) {\r\n        require(isShipper[_shipper], \"Shipper doesn't exist\");\r\n        require(isBin[_idBin], \"Bin doesn't exist\");\r\n\r\n        // Check if a collection with the same bin and date already exists\r\n        for (uint256 i = 0; i < collectionIds.length; i++) {\r\n            Collection storage collection = collections[collectionIds[i]];\r\n            if (keccak256(bytes(collection.binNotif)) == keccak256(bytes(_idBin)) && keccak256(bytes(collection.date)) == keccak256(bytes(_date))) {\r\n                revert(\"Collection already exists for this bin and date\");\r\n            }\r\n        }\r\n        // Generate a unique ID for the new collection\r\n        string memory _idCollection = generateUniqueId();\r\n        require(!isCollection[_idCollection], \"Generated IDCollection already exists\");\r\n\r\n        // Update dateCollection for waiting wastes with the same bin ID\r\n        for (uint256 j = 0; j < wasteIds.length; j++) {\r\n            Waste storage waste = wastes[wasteIds[j]];\r\n            if (keccak256(bytes(waste.binId)) == keccak256(bytes(_idBin)) && keccak256(bytes(waste.status)) == keccak256(bytes(\"Waiting\"))) {\r\n                waste.dateCollection = _date;\r\n                waste.shipperId=_shipper;\r\n            }\r\n        }\r\n        // Create the new collection\r\n        collections[_idCollection] = Collection(_idCollection, _shipper, _idBin, false, _date, \"Waiting\");\r\n        if(dispoRC <= (bins[_idBin].capacity)*1000){\r\n            mint(msg.sender, 1000000000000000000000); // Mint initial supply to contract deployer\r\n            transfer(recycler, 1000000000000000000000);\r\n        }\r\n        else{\r\n            dispoRC-=(bins[_idBin].capacity)*1000;\r\n        }\r\n        collectionIds.push(_idCollection);\r\n        collectionCount++;\r\n        isCollection[_idCollection] = true;\r\n         if (!notifications[_shipper][_date].done) {\r\n            // If not, create a new notification\r\n            notifications[_shipper][_date] = Notif(_shipper, _idBin, false);\r\n        }\r\n\r\n        emit CollectionCreated(_idCollection); \r\n        return _idCollection;\r\n    }\r\n\r\n\r\n    function shipCollection(string memory _idCollection, address _shipperId, string memory _date) external  {\r\n        require(isCollection[_idCollection], \"Collection doesn't exist\");\r\n        require(msg.sender==_shipperId,\" Forbidden \");\r\n        if (collections[_idCollection].shipperNotified != _shipperId) {\r\n            revert(\"This collection doesn't concern this shipper\");\r\n        }\r\n        string storage date= collections[_idCollection].date;\r\n        // Update collection status and shipper notification\r\n        // Update waste status and dateCollection for all wastes in the collection\r\n        for (uint256 i = 0; i < wasteIds.length; i++) {\r\n            Waste storage waste = wastes[wasteIds[i]];\r\n            if ((keccak256(bytes(waste.binId)) == keccak256(bytes(collections[_idCollection].binNotif)) )&&\r\n                (waste.shipperId == _shipperId) && (keccak256(bytes(waste.dateCollection)) == keccak256(bytes(collections[_idCollection].date)))) {\r\n                    waste.dateCollection = _date;\r\n                    waste.status = \"Shipped\"; \r\n                    shipCount++; // Increment shipCount for each waste that meets the conditions\r\n            }\r\n        }\r\n        bins[collections[_idCollection].binNotif].currentWeight = 0;\r\n        collections[_idCollection].date = _date;\r\n        collections[_idCollection].status = \"Shipped\";\r\n        notifications[_shipperId][date].done=true;\r\n    }\r\n \r\n    function deleteShipper(address _shipperAddress) external onlyOwner {\r\n        require(isShipper[_shipperAddress], \"Shipper does not exist\");\r\n        for (uint256 i = 0; i < shippers.length; i++) {\r\n            if (shippers[i] == _shipperAddress) {\r\n                shippers[i] = shippers[\r\n                    shippers.length - 1\r\n                ];\r\n                shippers.pop();\r\n                isShipper[_shipperAddress]=false;\r\n                break;\r\n            }\r\n        }\r\n    }\r\n\r\n    function modifyShipper(address _shipperAddress) external onlyOwner {\r\n        require(isShipper[ _shipperAddress], \"Shipper does not exist\");\r\n        \r\n        // Emit a message after the require statement\r\n        emit ModifShipper(\"Shipper can be modified\");\r\n        \r\n        // Further logic here if needed\r\n    }\r\n    \r\n                         //*****************Recycler********************//\r\n    \r\n    function recycleCollection(string memory _idCollection,string memory _date) external  {\r\n        require(isCollection[_idCollection], \"Collection doesn't exist\");\r\n        require(msg.sender==recycler,\" Forbidden \");\r\n        for (uint256 i = 0; i < wasteIds.length; i++) {\r\n            Waste storage waste = wastes[wasteIds[i]];\r\n            if (keccak256(bytes(waste.binId)) == keccak256(bytes(collections[_idCollection].binNotif)) &&\r\n                keccak256(bytes(waste.dateCollection)) == keccak256(bytes(collections[_idCollection].date))) {\r\n                if (keccak256(bytes(waste.status)) == keccak256(bytes(\"Shipped\"))) {\r\n                    waste.dateCollection=_date;\r\n                    waste.status = \"Recyled\";\r\n                    uint256 rewardAmount = waste.weight * 1000; // Example: 1000 tokens per unit weight\r\n                    // Transfer reward to citizen\r\n                   // _transfer(msg.sender, waste.citizenId, rewardAmount);\r\n                    transfer(waste.citizenId,  rewardAmount);\r\n                }\r\n            }\r\n        }\r\n        collections[_idCollection].date=_date;\r\n        collections[_idCollection].status = \"Recyled\";\r\n    }                         \r\n                     \r\n                     \r\n                        //*****************Citizen********************//\r\n    function createCitizen(address _citizen) external {\r\n        require(!isCitizen[_citizen], \"Citizen already exists\");\r\n       // require(_citizen != owner, \"Cannot create citizen with owner's address\");\r\n\r\n        citizens.push(_citizen);\r\n        isCitizen[_citizen] = true;\r\n    }\r\n\r\n    function deleteCitizen(address _citizenAddress) external onlyOwner {\r\n        require(isCitizen[_citizenAddress], \"Citizen does not exist\");\r\n        for (uint256 i = 0; i < citizens.length; i++) {\r\n            if (citizens[i] == _citizenAddress) {\r\n                citizens[i] = citizens[\r\n                    citizens.length - 1\r\n                ];\r\n                citizens.pop();\r\n                isCitizen[_citizenAddress]=false;\r\n                break;\r\n            }\r\n        }\r\n    }\r\n\r\n    function modifyCitizen(address _citizenAddress) external onlyOwner {\r\n        require(isCitizen[ _citizenAddress], \"Citizen does not exist\");\r\n        \r\n        // Emit a message after the require statement\r\n        emit ModifCitizen(\"Citizen can be modified\");\r\n        \r\n        // Further logic here if needed\r\n    }\r\n\r\n    // function getIsBin(string memory _binId) internal view returns (bool) {\r\n    //     require(isBin[_binId], \"Bin doesn't exist\");\r\n    //     return isBin[_binId];\r\n    // }\r\n\r\n    // function getIsCitizen(address _citizenId) internal view returns (bool) {\r\n    //     require(isCitizen[_citizenId], \"Citizen doesn't exist\");\r\n    //     return isCitizen[_citizenId];\r\n    // }\r\n\r\n    // function CheckWaste(string memory _wasteId) internal view returns (bool) {\r\n    //     require(!isWaste[_wasteId], \"Watse exist\");\r\n    //     return !isWaste[_wasteId];\r\n    // }\r\n\r\n    // function setWaste(string memory _wasteId,uint256 _weight,address _citizenId,string memory _binId) internal {\r\n    //     wastes[_wasteId]=Waste(_wasteId, \"Waiting\", _weight, _citizenId, address(0), address(0), _binId, \"\");\r\n    //     wasteIds.push(_wasteId);\r\n    //     isWaste[_wasteId]=true;\r\n    //     wasteCount++;\r\n    //    // emit WasteCreated(_wasteId);\r\n\r\n       \r\n    // }\r\n\r\n\r\n    /*TEEEEEEEEEEEEEEEEEEEEEEEEEEEEEEESTS */\r\n    // function getCountWaste() view external onlyOwner() returns (uint256){\r\n    //     return wasteCount;\r\n    // }\r\n\r\n    // function getWastes()view external onlyOwner returns (Waste[]memory){\r\n    //     Waste[] memory trash = new Waste[](wasteIds.length);\r\n    //      for (uint256 i = 0; i < wasteIds.length; i++) {\r\n    //         Waste storage waste = wastes[wasteIds[i]];\r\n    //         trash[i]=waste;\r\n    //      }\r\n    //     return trash;\r\n    // }\r\n\r\n    // function getWastesIDs()view external onlyOwner returns (string[] memory){\r\n       \r\n    //     return wasteIds;\r\n    // }\r\n\r\n    // function getWastesStatus()view external onlyOwner returns (string[] memory,string[] memory){\r\n    //     string[] memory Status = new string[](wasteIds.length);\r\n    //     for (uint256 i = 0; i < wasteIds.length; i++) {\r\n    //         Waste storage waste = wastes[wasteIds[i]];\r\n    //         Status[i] = waste.status;\r\n    //     }\r\n    //     return(wasteIds,Status);\r\n    // }\r\n\r\n    // function getCollectionsIds()view external onlyOwner returns(string[] memory) {\r\n    //      return collectionIds;\r\n    // } \r\n\r\n    // function getCollectionsStatus()view external onlyOwner returns(string[] memory) {\r\n    //       string[] memory Status = new string[](collectionIds.length);\r\n    //     for (uint256 i = 0; i < collectionIds.length; i++) {\r\n    //         Collection storage coll = collections[collectionIds[i]];\r\n    //         Status[i] = coll.status;\r\n    //     }\r\n    //     return(Status);\r\n    // } \r\n\r\n    // // function getShipCount() view external onlyOwner() returns(uint256){\r\n    // //     return shipCount;\r\n    // // }\r\n    // // function getCitizens() public view returns (address[] memory) {\r\n    // //     return citizens;\r\n    // // }\r\n    // function getNotifByShipper(address _shipper) public view returns (Notif[] memory) {\r\n    //     Notif[] memory shipperNotifications = new Notif[](binCount);\r\n\r\n    //     for (uint256 i = 0; i < binCount; i++) {\r\n    //         string memory binId = binIds[i];\r\n    //         if (isBin[binId]) {\r\n    //             shipperNotifications[i] = notifications[_shipper][binId];\r\n    //         }\r\n    //     }\r\n\r\n    //     return shipperNotifications;\r\n    // }\r\n // function getBins() public view returns (string[] memory, string[] memory, uint256[] memory, uint256[] memory) {\r\n    //     string[] memory ids = new string[](binCount);\r\n    //     string[] memory locations = new string[](binCount);\r\n       \r\n    //     uint256[] memory capacities = new uint256[](binCount);\r\n    //     uint256[] memory currentWeights = new uint256[](binCount);\r\n\r\n    //     for (uint256 i = 0; i < binCount; i++) {\r\n    //         Bin memory bin = bins[binIds[i]];\r\n    //         ids[i] = bin.id;\r\n    //         locations[i] = bin.location;\r\n    //         capacities[i] = bin.capacity;\r\n    //         currentWeights[i] = bin.currentWeight;\r\n    //     }\r\n\r\n    //     return (ids, locations, capacities, currentWeights);\r\n    // }\r\n    // Function to generate a unique ID\r\n    \r\n    \r\n    // function getShippers() public view returns (address[] memory) {\r\n    //     return shippers;\r\n    // }\r\n\r\n    // function notifyShipper(address _shipper, string memory _idBin, string memory _date) external onlyOwner {\r\n\r\n    //     require(isShipper[_shipper], \"Shipper doesn't exist\");\r\n    //     require(isBin[_idBin], \"Bin doesn't exist\");\r\n    //     notifications[_shipper][_idBin] = Notif(_shipper, _idBin, false);\r\n    // }\r\n\r\n}",
  "sourcePath": "C:\\PFA_GUI - Copie\\truffle\\contracts\\WasteManagement.sol",
  "compiler": {
    "name": "solc",
    "version": "0.8.20+commit.a1b79de6.Emscripten.clang"
  },
  "schemaVersion": "3.4.16",
  "updatedAt": "2024-12-08T21:52:55.926Z",
  "networkType": "ethereum",
  "devdoc": {
    "errors": {
      "ERC20InsufficientAllowance(address,uint256,uint256)": [
        {
          "details": "Indicates a failure with the `spender`s `allowance`. Used in transfers.",
          "params": {
            "allowance": "Amount of tokens a `spender` is allowed to operate with.",
            "needed": "Minimum amount required to perform a transfer.",
            "spender": "Address that may be allowed to operate on tokens without being their owner."
          }
        }
      ],
      "ERC20InsufficientBalance(address,uint256,uint256)": [
        {
          "details": "Indicates an error related to the current `balance` of a `sender`. Used in transfers.",
          "params": {
            "balance": "Current balance for the interacting account.",
            "needed": "Minimum amount required to perform a transfer.",
            "sender": "Address whose tokens are being transferred."
          }
        }
      ],
      "ERC20InvalidApprover(address)": [
        {
          "details": "Indicates a failure with the `approver` of a token to be approved. Used in approvals.",
          "params": {
            "approver": "Address initiating an approval operation."
          }
        }
      ],
      "ERC20InvalidReceiver(address)": [
        {
          "details": "Indicates a failure with the token `receiver`. Used in transfers.",
          "params": {
            "receiver": "Address to which tokens are being transferred."
          }
        }
      ],
      "ERC20InvalidSender(address)": [
        {
          "details": "Indicates a failure with the token `sender`. Used in transfers.",
          "params": {
            "sender": "Address whose tokens are being transferred."
          }
        }
      ],
      "ERC20InvalidSpender(address)": [
        {
          "details": "Indicates a failure with the `spender` to be approved. Used in approvals.",
          "params": {
            "spender": "Address that may be allowed to operate on tokens without being their owner."
          }
        }
      ],
      "OwnableInvalidOwner(address)": [
        {
          "details": "The owner is not a valid owner account. (eg. `address(0)`)"
        }
      ],
      "OwnableUnauthorizedAccount(address)": [
        {
          "details": "The caller account is not authorized to perform an operation."
        }
      ]
    },
    "events": {
      "Approval(address,address,uint256)": {
        "details": "Emitted when the allowance of a `spender` for an `owner` is set by a call to {approve}. `value` is the new allowance."
      },
      "Transfer(address,address,uint256)": {
        "details": "Emitted when `value` tokens are moved from one account (`from`) to another (`to`). Note that `value` may be zero."
      }
    },
    "kind": "dev",
    "methods": {
      "allowance(address,address)": {
        "details": "See {IERC20-allowance}."
      },
      "approve(address,uint256)": {
        "details": "See {IERC20-approve}. NOTE: If `value` is the maximum `uint256`, the allowance is not updated on `transferFrom`. This is semantically equivalent to an infinite approval. Requirements: - `spender` cannot be the zero address."
      },
      "balanceOf(address)": {
        "details": "See {IERC20-balanceOf}."
      },
      "decimals()": {
        "details": "Returns the number of decimals used to get its user representation. For example, if `decimals` equals `2`, a balance of `505` tokens should be displayed to a user as `5.05` (`505 / 10 ** 2`). Tokens usually opt for a value of 18, imitating the relationship between Ether and Wei. This is the default value returned by this function, unless it's overridden. NOTE: This information is only used for _display_ purposes: it in no way affects any of the arithmetic of the contract, including {IERC20-balanceOf} and {IERC20-transfer}."
      },
      "name()": {
        "details": "Returns the name of the token."
      },
      "owner()": {
        "details": "Returns the address of the current owner."
      },
      "renounceOwnership()": {
        "details": "Leaves the contract without owner. It will not be possible to call `onlyOwner` functions. Can only be called by the current owner. NOTE: Renouncing ownership will leave the contract without an owner, thereby disabling any functionality that is only available to the owner."
      },
      "symbol()": {
        "details": "Returns the symbol of the token, usually a shorter version of the name."
      },
      "totalSupply()": {
        "details": "See {IERC20-totalSupply}."
      },
      "transferFrom(address,address,uint256)": {
        "details": "See {IERC20-transferFrom}. Emits an {Approval} event indicating the updated allowance. This is not required by the EIP. See the note at the beginning of {ERC20}. NOTE: Does not update the allowance if the current allowance is the maximum `uint256`. Requirements: - `from` and `to` cannot be the zero address. - `from` must have a balance of at least `value`. - the caller must have allowance for ``from``'s tokens of at least `value`."
      },
      "transferOwnership(address)": {
        "details": "Transfers ownership of the contract to a new account (`newOwner`). Can only be called by the current owner."
      }
    },
    "version": 1
  },
  "userdoc": {
    "kind": "user",
    "methods": {},
    "version": 1
  }
}