{
  "contractName": "WasteManagement",
  "abi": [
    {
      "inputs": [],
      "stateMutability": "nonpayable",
      "type": "constructor"
    },
    {
      "anonymous": false,
      "inputs": [
        {
          "indexed": false,
          "internalType": "string",
          "name": "id",
          "type": "string"
        }
      ],
      "name": "BinCreated",
      "type": "event"
    },
    {
      "anonymous": false,
      "inputs": [
        {
          "indexed": false,
          "internalType": "string",
          "name": "id",
          "type": "string"
        }
      ],
      "name": "CollectionCreated",
      "type": "event"
    },
    {
      "anonymous": false,
      "inputs": [
        {
          "indexed": false,
          "internalType": "string",
          "name": "message",
          "type": "string"
        }
      ],
      "name": "ModifCitizen",
      "type": "event"
    },
    {
      "anonymous": false,
      "inputs": [
        {
          "indexed": false,
          "internalType": "string",
          "name": "message",
          "type": "string"
        }
      ],
      "name": "ModifShipper",
      "type": "event"
    },
    {
      "inputs": [],
      "name": "binCount",
      "outputs": [
        {
          "internalType": "uint256",
          "name": "",
          "type": "uint256"
        }
      ],
      "stateMutability": "view",
      "type": "function",
      "constant": true
    },
    {
      "inputs": [
        {
          "internalType": "string",
          "name": "",
          "type": "string"
        }
      ],
      "name": "bins",
      "outputs": [
        {
          "internalType": "string",
          "name": "id",
          "type": "string"
        },
        {
          "internalType": "string",
          "name": "location",
          "type": "string"
        },
        {
          "internalType": "uint256",
          "name": "capacity",
          "type": "uint256"
        },
        {
          "internalType": "uint256",
          "name": "currentWeight",
          "type": "uint256"
        }
      ],
      "stateMutability": "view",
      "type": "function",
      "constant": true
    },
    {
      "inputs": [
        {
          "internalType": "address",
          "name": "",
          "type": "address"
        }
      ],
      "name": "citizenRewards",
      "outputs": [
        {
          "internalType": "uint256",
          "name": "",
          "type": "uint256"
        }
      ],
      "stateMutability": "view",
      "type": "function",
      "constant": true
    },
    {
      "inputs": [],
      "name": "collectionCount",
      "outputs": [
        {
          "internalType": "uint256",
          "name": "",
          "type": "uint256"
        }
      ],
      "stateMutability": "view",
      "type": "function",
      "constant": true
    },
    {
      "inputs": [
        {
          "internalType": "string",
          "name": "",
          "type": "string"
        }
      ],
      "name": "collections",
      "outputs": [
        {
          "internalType": "string",
          "name": "idCollection",
          "type": "string"
        },
        {
          "internalType": "address",
          "name": "shipperNotified",
          "type": "address"
        },
        {
          "internalType": "string",
          "name": "binNotif",
          "type": "string"
        },
        {
          "internalType": "bool",
          "name": "done",
          "type": "bool"
        },
        {
          "internalType": "string",
          "name": "date",
          "type": "string"
        },
        {
          "internalType": "string",
          "name": "status",
          "type": "string"
        }
      ],
      "stateMutability": "view",
      "type": "function",
      "constant": true
    },
    {
      "inputs": [],
      "name": "owner",
      "outputs": [
        {
          "internalType": "address",
          "name": "",
          "type": "address"
        }
      ],
      "stateMutability": "view",
      "type": "function",
      "constant": true
    },
    {
      "inputs": [],
      "name": "wasteCount",
      "outputs": [
        {
          "internalType": "uint256",
          "name": "",
          "type": "uint256"
        }
      ],
      "stateMutability": "view",
      "type": "function",
      "constant": true
    },
    {
      "inputs": [
        {
          "internalType": "uint256",
          "name": "",
          "type": "uint256"
        }
      ],
      "name": "wasteIds",
      "outputs": [
        {
          "internalType": "string",
          "name": "",
          "type": "string"
        }
      ],
      "stateMutability": "view",
      "type": "function",
      "constant": true
    },
    {
      "inputs": [
        {
          "internalType": "string",
          "name": "",
          "type": "string"
        }
      ],
      "name": "wastes",
      "outputs": [
        {
          "internalType": "string",
          "name": "id",
          "type": "string"
        },
        {
          "internalType": "string",
          "name": "status",
          "type": "string"
        },
        {
          "internalType": "uint256",
          "name": "weight",
          "type": "uint256"
        },
        {
          "internalType": "address",
          "name": "citizenId",
          "type": "address"
        },
        {
          "internalType": "address",
          "name": "shipperId",
          "type": "address"
        },
        {
          "internalType": "address",
          "name": "recyclerId",
          "type": "address"
        },
        {
          "internalType": "string",
          "name": "binId",
          "type": "string"
        },
        {
          "internalType": "string",
          "name": "dateCollection",
          "type": "string"
        }
      ],
      "stateMutability": "view",
      "type": "function",
      "constant": true
    },
    {
      "inputs": [
        {
          "internalType": "string",
          "name": "_location",
          "type": "string"
        },
        {
          "internalType": "uint256",
          "name": "_capacity",
          "type": "uint256"
        },
        {
          "internalType": "uint256",
          "name": "_currentWeight",
          "type": "uint256"
        }
      ],
      "name": "createBin",
      "outputs": [
        {
          "internalType": "string",
          "name": "",
          "type": "string"
        }
      ],
      "stateMutability": "nonpayable",
      "type": "function"
    },
    {
      "inputs": [],
      "name": "getBins",
      "outputs": [
        {
          "internalType": "string[]",
          "name": "",
          "type": "string[]"
        },
        {
          "internalType": "string[]",
          "name": "",
          "type": "string[]"
        },
        {
          "internalType": "uint256[]",
          "name": "",
          "type": "uint256[]"
        },
        {
          "internalType": "uint256[]",
          "name": "",
          "type": "uint256[]"
        }
      ],
      "stateMutability": "view",
      "type": "function",
      "constant": true
    },
    {
      "inputs": [
        {
          "internalType": "address",
          "name": "_shipper",
          "type": "address"
        }
      ],
      "name": "createShipper",
      "outputs": [],
      "stateMutability": "nonpayable",
      "type": "function"
    },
    {
      "inputs": [
        {
          "internalType": "address",
          "name": "_shipper",
          "type": "address"
        },
        {
          "internalType": "string",
          "name": "_idBin",
          "type": "string"
        },
        {
          "internalType": "string",
          "name": "_date",
          "type": "string"
        }
      ],
      "name": "createCollection",
      "outputs": [
        {
          "internalType": "string",
          "name": "",
          "type": "string"
        }
      ],
      "stateMutability": "nonpayable",
      "type": "function"
    },
    {
      "inputs": [
        {
          "internalType": "string",
          "name": "_idCollection",
          "type": "string"
        },
        {
          "internalType": "address",
          "name": "_shipperId",
          "type": "address"
        },
        {
          "internalType": "string",
          "name": "_date",
          "type": "string"
        }
      ],
      "name": "shipCollection",
      "outputs": [],
      "stateMutability": "nonpayable",
      "type": "function"
    },
    {
      "inputs": [
        {
          "internalType": "string",
          "name": "_idCollection",
          "type": "string"
        },
        {
          "internalType": "string",
          "name": "_date",
          "type": "string"
        }
      ],
      "name": "recycleCollection",
      "outputs": [],
      "stateMutability": "nonpayable",
      "type": "function"
    },
    {
      "inputs": [
        {
          "internalType": "address",
          "name": "_citizen",
          "type": "address"
        }
      ],
      "name": "createCitizen",
      "outputs": [],
      "stateMutability": "nonpayable",
      "type": "function"
    },
    {
      "inputs": [
        {
          "internalType": "string",
          "name": "_binId",
          "type": "string"
        }
      ],
      "name": "getIsBin",
      "outputs": [
        {
          "internalType": "bool",
          "name": "",
          "type": "bool"
        }
      ],
      "stateMutability": "view",
      "type": "function",
      "constant": true
    },
    {
      "inputs": [
        {
          "internalType": "address",
          "name": "_citizenId",
          "type": "address"
        }
      ],
      "name": "getIsCitizen",
      "outputs": [
        {
          "internalType": "bool",
          "name": "",
          "type": "bool"
        }
      ],
      "stateMutability": "view",
      "type": "function",
      "constant": true
    },
    {
      "inputs": [
        {
          "internalType": "string",
          "name": "_wasteId",
          "type": "string"
        }
      ],
      "name": "CheckWaste",
      "outputs": [
        {
          "internalType": "bool",
          "name": "",
          "type": "bool"
        }
      ],
      "stateMutability": "view",
      "type": "function",
      "constant": true
    },
    {
      "inputs": [
        {
          "internalType": "string",
          "name": "_wasteId",
          "type": "string"
        },
        {
          "internalType": "uint256",
          "name": "_weight",
          "type": "uint256"
        },
        {
          "internalType": "address",
          "name": "_citizenId",
          "type": "address"
        },
        {
          "internalType": "string",
          "name": "_binId",
          "type": "string"
        }
      ],
      "name": "setWaste",
      "outputs": [],
      "stateMutability": "nonpayable",
      "type": "function"
    },
    {
      "inputs": [],
      "name": "getWastes",
      "outputs": [
        {
          "components": [
            {
              "internalType": "string",
              "name": "id",
              "type": "string"
            },
            {
              "internalType": "string",
              "name": "status",
              "type": "string"
            },
            {
              "internalType": "uint256",
              "name": "weight",
              "type": "uint256"
            },
            {
              "internalType": "address",
              "name": "citizenId",
              "type": "address"
            },
            {
              "internalType": "address",
              "name": "shipperId",
              "type": "address"
            },
            {
              "internalType": "address",
              "name": "recyclerId",
              "type": "address"
            },
            {
              "internalType": "string",
              "name": "binId",
              "type": "string"
            },
            {
              "internalType": "string",
              "name": "dateCollection",
              "type": "string"
            }
          ],
          "internalType": "struct WasteManagement.Waste[]",
          "name": "",
          "type": "tuple[]"
        }
      ],
      "stateMutability": "view",
      "type": "function",
      "constant": true
    },
    {
      "inputs": [],
      "name": "getWastesIDs",
      "outputs": [
        {
          "internalType": "string[]",
          "name": "",
          "type": "string[]"
        }
      ],
      "stateMutability": "view",
      "type": "function",
      "constant": true
    },
    {
      "inputs": [],
      "name": "getWastesStatus",
      "outputs": [
        {
          "internalType": "string[]",
          "name": "",
          "type": "string[]"
        },
        {
          "internalType": "string[]",
          "name": "",
          "type": "string[]"
        }
      ],
      "stateMutability": "view",
      "type": "function",
      "constant": true
    },
    {
      "inputs": [],
      "name": "getCollectionsIds",
      "outputs": [
        {
          "internalType": "string[]",
          "name": "",
          "type": "string[]"
        }
      ],
      "stateMutability": "view",
      "type": "function",
      "constant": true
    },
    {
      "inputs": [],
      "name": "getCollectionsStatus",
      "outputs": [
        {
          "internalType": "string[]",
          "name": "",
          "type": "string[]"
        }
      ],
      "stateMutability": "view",
      "type": "function",
      "constant": true
    },
    {
      "inputs": [
        {
          "internalType": "address",
          "name": "_shipper",
          "type": "address"
        }
      ],
      "name": "getNotifByShipper",
      "outputs": [
        {
          "components": [
            {
              "internalType": "address",
              "name": "shipperNotified",
              "type": "address"
            },
            {
              "internalType": "string",
              "name": "binNotif",
              "type": "string"
            },
            {
              "internalType": "bool",
              "name": "done",
              "type": "bool"
            }
          ],
          "internalType": "struct WasteManagement.Notif[]",
          "name": "",
          "type": "tuple[]"
        }
      ],
      "stateMutability": "view",
      "type": "function",
      "constant": true
    }
  ],
  "bytecode": "0x6080604052734494f3bb19f95bb33ec116887b9dbd728c008f9b600a60006101000a81548173ffffffffffffffffffffffffffffffffffffffff021916908373ffffffffffffffffffffffffffffffffffffffff160217905550600060135534801561006a57600080fd5b5033601160006101000a81548173ffffffffffffffffffffffffffffffffffffffff021916908373ffffffffffffffffffffffffffffffffffffffff1602179055506158f080620000bc6000396000f3fe608060405234801561001057600080fd5b506004361061018e5760003560e01c80638da5cb5b116100de578063cc3b2e8811610097578063e042a40211610071578063e042a402146104e1578063e1c7b8d514610502578063eb96083314610532578063fb576d12146105505761018e565b8063cc3b2e8814610475578063d57f966b14610493578063d5972802146104b15761018e565b80638da5cb5b146103a15780638e44b615146103bf578063963464f1146103ef578063a08c10791461040b578063ac7ef1e914610427578063c773e649146104455761018e565b80633e8176dc1161014b578063537a828f11610125578063537a828f146102f057806366e54d7b14610320578063715624c91461035557806381d06633146103715761018e565b80633e8176dc1461026d5780633edb6272146102895780634a19d56d146102b95761018e565b8063113caa3d1461019357806313a172f3146101b157806316207393146101e4578063314dc3701461020257806335a9c596146102215780633c1bc3b914610251575b600080fd5b61019b61056e565b6040516101a89190613eaa565b60405180910390f35b6101cb60048036038101906101c69190614015565b6106d7565b6040516101db94939291906140c1565b60405180910390f35b6101ec61082d565b6040516101f99190614114565b60405180910390f35b61020a610833565b60405161021892919061412f565b60405180910390f35b61023b600480360381019061023691906141c4565b610b0b565b604051610248919061424f565b60405180910390f35b61026b60048036038101906102669190614271565b6112dd565b005b6102876004803603810190610282919061429e565b611548565b005b6102a3600480360381019061029e9190614015565b611a05565b6040516102b09190614344565b60405180910390f35b6102d360048036038101906102ce9190614015565b611aa5565b6040516102e798979695949392919061436e565b60405180910390f35b61030a60048036038101906103059190614434565b611d83565b604051610317919061424f565b60405180910390f35b61033a60048036038101906103359190614015565b611e2f565b60405161034c96959493929190614461565b60405180910390f35b61036f600480360381019061036a91906144de565b6120ce565b005b61038b60048036038101906103869190614556565b612397565b604051610398919061424f565b60405180910390f35b6103a96125e9565b6040516103b691906145c5565b60405180910390f35b6103d960048036038101906103d49190614271565b61260f565b6040516103e69190614710565b60405180910390f35b61040960048036038101906104049190614271565b6128fa565b005b61042560048036038101906104209190614732565b612ad5565b005b61042f612d78565b60405161043c9190613eaa565b60405180910390f35b61045f600480360381019061045a9190614271565b612f77565b60405161046c9190614344565b60405180910390f35b61047d613059565b60405161048a9190614114565b60405180910390f35b61049b61305f565b6040516104a89190614114565b60405180910390f35b6104cb60048036038101906104c69190614271565b613065565b6040516104d89190614114565b60405180910390f35b6104e961307d565b6040516104f9949392919061488f565b60405180910390f35b61051c60048036038101906105179190614015565b613411565b6040516105299190614344565b60405180910390f35b61053a6134b3565b6040516105479190613eaa565b60405180910390f35b61055861361c565b6040516105659190614a77565b60405180910390f35b6060601160009054906101000a900473ffffffffffffffffffffffffffffffffffffffff1673ffffffffffffffffffffffffffffffffffffffff163373ffffffffffffffffffffffffffffffffffffffff1614610600576040517f08c379a00000000000000000000000000000000000000000000000000000000081526004016105f790614b0b565b60405180910390fd5b6006805480602002602001604051908101604052809291908181526020016000905b828210156106ce57838290600052602060002001805461064190614b5a565b80601f016020809104026020016040519081016040528092919081815260200182805461066d90614b5a565b80156106ba5780601f1061068f576101008083540402835291602001916106ba565b820191906000526020600020905b81548152906001019060200180831161069d57829003601f168201915b505050505081526020019060010190610622565b50505050905090565b60038180516020810182018051848252602083016020850120818352809550505050505060009150905080600001805461071090614b5a565b80601f016020809104026020016040519081016040528092919081815260200182805461073c90614b5a565b80156107895780601f1061075e57610100808354040283529160200191610789565b820191906000526020600020905b81548152906001019060200180831161076c57829003601f168201915b50505050509080600101805461079e90614b5a565b80601f01602080910402602001604051908101604052809291908181526020018280546107ca90614b5a565b80156108175780601f106107ec57610100808354040283529160200191610817565b820191906000526020600020905b8154815290600101906020018083116107fa57829003601f168201915b5050505050908060020154908060030154905084565b60005481565b606080601160009054906101000a900473ffffffffffffffffffffffffffffffffffffffff1673ffffffffffffffffffffffffffffffffffffffff163373ffffffffffffffffffffffffffffffffffffffff16146108c6576040517f08c379a00000000000000000000000000000000000000000000000000000000081526004016108bd90614b0b565b60405180910390fd5b600060078054905067ffffffffffffffff8111156108e7576108e6613eea565b5b60405190808252806020026020018201604052801561091a57816020015b60608152602001906001900390816109055790505b50905060005b600780549050811015610a2b57600060086007838154811061094557610944614b8b565b5b9060005260206000200160405161095c9190614c5d565b9081526020016040518091039020905080600101805461097b90614b5a565b80601f01602080910402602001604051908101604052809291908181526020018280546109a790614b5a565b80156109f45780601f106109c9576101008083540402835291602001916109f4565b820191906000526020600020905b8154815290600101906020018083116109d757829003601f168201915b5050505050838381518110610a0c57610a0b614b8b565b5b6020026020010181905250508080610a2390614ca3565b915050610920565b5060078181805480602002602001604051908101604052809291908181526020016000905b82821015610afc578382906000526020600020018054610a6f90614b5a565b80601f0160208091040260200160405190810160405280929190818152602001828054610a9b90614b5a565b8015610ae85780601f10610abd57610100808354040283529160200191610ae8565b820191906000526020600020905b815481529060010190602001808311610acb57829003601f168201915b505050505081526020019060010190610a50565b50505050915092509250509091565b6060601160009054906101000a900473ffffffffffffffffffffffffffffffffffffffff1673ffffffffffffffffffffffffffffffffffffffff163373ffffffffffffffffffffffffffffffffffffffff1614610b9d576040517f08c379a0000000000000000000000000000000000000000000000000000000008152600401610b9490614b0b565b60405180910390fd5b601060008573ffffffffffffffffffffffffffffffffffffffff1673ffffffffffffffffffffffffffffffffffffffff16815260200190815260200160002060009054906101000a900460ff16610c29576040517f08c379a0000000000000000000000000000000000000000000000000000000008152600401610c2090614d37565b60405180910390fd5b600c83604051610c399190614d88565b908152602001604051809103902060009054906101000a900460ff16610c94576040517f08c379a0000000000000000000000000000000000000000000000000000000008152600401610c8b90614deb565b60405180910390fd5b60005b600680549050811015610d83576000600460068381548110610cbc57610cbb614b8b565b5b90600052602060002001604051610cd39190614c5d565b90815260200160405180910390209050848051906020012081600201604051610cfc9190614eae565b6040518091039020148015610d2f5750838051906020012081600401604051610d259190614eae565b6040518091039020145b15610d6f576040517f08c379a0000000000000000000000000000000000000000000000000000000008152600401610d6690614f37565b60405180910390fd5b508080610d7b90614ca3565b915050610c97565b506000610d8e613af5565b9050600d81604051610da09190614d88565b908152602001604051809103902060009054906101000a900460ff1615610dfc576040517f08c379a0000000000000000000000000000000000000000000000000000000008152600401610df390614fc9565b60405180910390fd5b60005b600780549050811015610f3b576000600860078381548110610e2457610e23614b8b565b5b90600052602060002001604051610e3b9190614c5d565b90815260200160405180910390209050858051906020012081600601604051610e649190614eae565b6040518091039020148015610ecc57506040518060400160405280600781526020017f57616974696e67000000000000000000000000000000000000000000000000008152508051906020012081600101604051610ec29190614eae565b6040518091039020145b15610f275784816007019081610ee29190615180565b50868160040160006101000a81548173ffffffffffffffffffffffffffffffffffffffff021916908373ffffffffffffffffffffffffffffffffffffffff1602179055505b508080610f3390614ca3565b915050610dff565b506040518060c001604052808281526020018673ffffffffffffffffffffffffffffffffffffffff1681526020018581526020016000151581526020018481526020016040518060400160405280600781526020017f57616974696e6700000000000000000000000000000000000000000000000000815250815250600482604051610fc79190614d88565b90815260200160405180910390206000820151816000019081610fea9190615180565b5060208201518160010160006101000a81548173ffffffffffffffffffffffffffffffffffffffff021916908373ffffffffffffffffffffffffffffffffffffffff16021790555060408201518160020190816110479190615180565b5060608201518160030160006101000a81548160ff021916908315150217905550608082015181600401908161107d9190615180565b5060a08201518160050190816110939190615180565b509050506006819080600181540180825580915050600190039060005260206000200160009091909190915090816110cb9190615180565b50600260008154809291906110df90614ca3565b91905055506001600d826040516110f69190614d88565b908152602001604051809103902060006101000a81548160ff021916908315150217905550601460008673ffffffffffffffffffffffffffffffffffffffff1673ffffffffffffffffffffffffffffffffffffffff168152602001908152602001600020836040516111689190614d88565b908152602001604051809103902060020160009054906101000a900460ff1661129b5760405180606001604052808673ffffffffffffffffffffffffffffffffffffffff16815260200185815260200160001515815250601460008773ffffffffffffffffffffffffffffffffffffffff1673ffffffffffffffffffffffffffffffffffffffff1681526020019081526020016000208460405161120c9190614d88565b908152602001604051809103902060008201518160000160006101000a81548173ffffffffffffffffffffffffffffffffffffffff021916908373ffffffffffffffffffffffffffffffffffffffff16021790555060208201518160010190816112769190615180565b5060408201518160020160006101000a81548160ff0219169083151502179055509050505b7ff2e193f96c77b8eebe5989f9851e54078a47d1e2d8e3ca74dca8a4aeb249aebf816040516112ca919061424f565b60405180910390a1809150509392505050565b601160009054906101000a900473ffffffffffffffffffffffffffffffffffffffff1673ffffffffffffffffffffffffffffffffffffffff163373ffffffffffffffffffffffffffffffffffffffff161461136d576040517f08c379a000000000000000000000000000000000000000000000000000000000815260040161136490614b0b565b60405180910390fd5b600f60008273ffffffffffffffffffffffffffffffffffffffff1673ffffffffffffffffffffffffffffffffffffffff16815260200190815260200160002060009054906101000a900460ff16156113fa576040517f08c379a00000000000000000000000000000000000000000000000000000000081526004016113f19061529e565b60405180910390fd5b601160009054906101000a900473ffffffffffffffffffffffffffffffffffffffff1673ffffffffffffffffffffffffffffffffffffffff168173ffffffffffffffffffffffffffffffffffffffff160361148a576040517f08c379a000000000000000000000000000000000000000000000000000000000815260040161148190615330565b60405180910390fd5b6009819080600181540180825580915050600190039060005260206000200160009091909190916101000a81548173ffffffffffffffffffffffffffffffffffffffff021916908373ffffffffffffffffffffffffffffffffffffffff1602179055506001600f60008373ffffffffffffffffffffffffffffffffffffffff1673ffffffffffffffffffffffffffffffffffffffff16815260200190815260200160002060006101000a81548160ff02191690831515021790555050565b601160009054906101000a900473ffffffffffffffffffffffffffffffffffffffff1673ffffffffffffffffffffffffffffffffffffffff163373ffffffffffffffffffffffffffffffffffffffff16146115d8576040517f08c379a00000000000000000000000000000000000000000000000000000000081526004016115cf90614b0b565b60405180910390fd5b600d836040516115e89190614d88565b908152602001604051809103902060009054906101000a900460ff16611643576040517f08c379a000000000000000000000000000000000000000000000000000000000815260040161163a9061539c565b60405180910390fd5b8173ffffffffffffffffffffffffffffffffffffffff1660048460405161166a9190614d88565b908152602001604051809103902060010160009054906101000a900473ffffffffffffffffffffffffffffffffffffffff1673ffffffffffffffffffffffffffffffffffffffff16146116f2576040517f08c379a00000000000000000000000000000000000000000000000000000000081526004016116e99061542e565b60405180910390fd5b60006004846040516117049190614d88565b9081526020016040518091039020600401905060005b6007805490508110156118f457600060086007838154811061173f5761173e614b8b565b5b906000526020600020016040516117569190614c5d565b908152602001604051809103902090506004866040516117769190614d88565b90815260200160405180910390206002016040516117949190614eae565b6040518091039020816006016040516117ad9190614eae565b604051809103902014801561181157508473ffffffffffffffffffffffffffffffffffffffff168160040160009054906101000a900473ffffffffffffffffffffffffffffffffffffffff1673ffffffffffffffffffffffffffffffffffffffff16145b801561186957506004866040516118289190614d88565b90815260200160405180910390206004016040516118469190614eae565b60405180910390208160070160405161185f9190614eae565b6040518091039020145b156118e0578381600701908161187f9190615180565b506040518060400160405280600781526020017f53686970706564000000000000000000000000000000000000000000000000008152508160010190816118c69190615180565b50601360008154809291906118da90614ca3565b91905055505b5080806118ec90614ca3565b91505061171a565b50816004856040516119069190614d88565b908152602001604051809103902060040190816119239190615180565b506040518060400160405280600781526020017f536869707065640000000000000000000000000000000000000000000000000081525060048560405161196a9190614d88565b908152602001604051809103902060050190816119879190615180565b506001601460008573ffffffffffffffffffffffffffffffffffffffff1673ffffffffffffffffffffffffffffffffffffffff168152602001908152602001600020826040516119d791906154e6565b908152602001604051809103902060020160006101000a81548160ff02191690831515021790555050505050565b6000600c82604051611a179190614d88565b908152602001604051809103902060009054906101000a900460ff16611a72576040517f08c379a0000000000000000000000000000000000000000000000000000000008152600401611a6990614deb565b60405180910390fd5b600c82604051611a829190614d88565b908152602001604051809103902060009054906101000a900460ff169050919050565b600881805160208101820180518482526020830160208501208183528095505050505050600091509050806000018054611ade90614b5a565b80601f0160208091040260200160405190810160405280929190818152602001828054611b0a90614b5a565b8015611b575780601f10611b2c57610100808354040283529160200191611b57565b820191906000526020600020905b815481529060010190602001808311611b3a57829003601f168201915b505050505090806001018054611b6c90614b5a565b80601f0160208091040260200160405190810160405280929190818152602001828054611b9890614b5a565b8015611be55780601f10611bba57610100808354040283529160200191611be5565b820191906000526020600020905b815481529060010190602001808311611bc857829003601f168201915b5050505050908060020154908060030160009054906101000a900473ffffffffffffffffffffffffffffffffffffffff16908060040160009054906101000a900473ffffffffffffffffffffffffffffffffffffffff16908060050160009054906101000a900473ffffffffffffffffffffffffffffffffffffffff1690806006018054611c7290614b5a565b80601f0160208091040260200160405190810160405280929190818152602001828054611c9e90614b5a565b8015611ceb5780601f10611cc057610100808354040283529160200191611ceb565b820191906000526020600020905b815481529060010190602001808311611cce57829003601f168201915b505050505090806007018054611d0090614b5a565b80601f0160208091040260200160405190810160405280929190818152602001828054611d2c90614b5a565b8015611d795780601f10611d4e57610100808354040283529160200191611d79565b820191906000526020600020905b815481529060010190602001808311611d5c57829003601f168201915b5050505050905088565b60078181548110611d9357600080fd5b906000526020600020016000915090508054611dae90614b5a565b80601f0160208091040260200160405190810160405280929190818152602001828054611dda90614b5a565b8015611e275780601f10611dfc57610100808354040283529160200191611e27565b820191906000526020600020905b815481529060010190602001808311611e0a57829003601f168201915b505050505081565b600481805160208101820180518482526020830160208501208183528095505050505050600091509050806000018054611e6890614b5a565b80601f0160208091040260200160405190810160405280929190818152602001828054611e9490614b5a565b8015611ee15780601f10611eb657610100808354040283529160200191611ee1565b820191906000526020600020905b815481529060010190602001808311611ec457829003601f168201915b5050505050908060010160009054906101000a900473ffffffffffffffffffffffffffffffffffffffff1690806002018054611f1c90614b5a565b80601f0160208091040260200160405190810160405280929190818152602001828054611f4890614b5a565b8015611f955780601f10611f6a57610100808354040283529160200191611f95565b820191906000526020600020905b815481529060010190602001808311611f7857829003601f168201915b5050505050908060030160009054906101000a900460ff1690806004018054611fbd90614b5a565b80601f0160208091040260200160405190810160405280929190818152602001828054611fe990614b5a565b80156120365780601f1061200b57610100808354040283529160200191612036565b820191906000526020600020905b81548152906001019060200180831161201957829003601f168201915b50505050509080600501805461204b90614b5a565b80601f016020809104026020016040519081016040528092919081815260200182805461207790614b5a565b80156120c45780601f10612099576101008083540402835291602001916120c4565b820191906000526020600020905b8154815290600101906020018083116120a757829003601f168201915b5050505050905086565b600d826040516120de9190614d88565b908152602001604051809103902060009054906101000a900460ff16612139576040517f08c379a00000000000000000000000000000000000000000000000000000000081526004016121309061539c565b60405180910390fd5b60005b6007805490508110156122ff57600060086007838154811061216157612160614b8b565b5b906000526020600020016040516121789190614c5d565b908152602001604051809103902090506004846040516121989190614d88565b90815260200160405180910390206002016040516121b69190614eae565b6040518091039020816006016040516121cf9190614eae565b604051809103902014801561223057506004846040516121ef9190614d88565b908152602001604051809103902060040160405161220d9190614eae565b6040518091039020816007016040516122269190614eae565b6040518091039020145b156122eb576040518060400160405280600781526020017f536869707065640000000000000000000000000000000000000000000000000081525080519060200120816001016040516122839190614eae565b6040518091039020036122ea57828160070190816122a19190615180565b506040518060400160405280600781526020017f526563796c6564000000000000000000000000000000000000000000000000008152508160010190816122e89190615180565b505b5b5080806122f790614ca3565b91505061213c565b50806004836040516123119190614d88565b9081526020016040518091039020600401908161232e9190615180565b506040518060400160405280600781526020017f526563796c6564000000000000000000000000000000000000000000000000008152506004836040516123759190614d88565b908152602001604051809103902060050190816123929190615180565b505050565b6060601160009054906101000a900473ffffffffffffffffffffffffffffffffffffffff1673ffffffffffffffffffffffffffffffffffffffff163373ffffffffffffffffffffffffffffffffffffffff1614612429576040517f08c379a000000000000000000000000000000000000000000000000000000000815260040161242090614b0b565b60405180910390fd5b6000612433613af5565b9050600c816040516124459190614d88565b908152602001604051809103902060009054906101000a900460ff16156124a1576040517f08c379a000000000000000000000000000000000000000000000000000000000815260040161249890615549565b60405180910390fd5b6040518060800160405280828152602001868152602001858152602001848152506003826040516124d29190614d88565b908152602001604051809103902060008201518160000190816124f59190615180565b50602082015181600101908161250b9190615180565b5060408201518160020155606082015181600301559050506005819080600181540180825580915050600190039060005260206000200160009091909190915090816125579190615180565b506001600081548092919061256b90614ca3565b91905055506001600c826040516125829190614d88565b908152602001604051809103902060006101000a81548160ff0219169083151502179055507fd5413a7934f1aa973af7bc53f68df06953b49031401619e5997d54afb849377e816040516125d6919061424f565b60405180910390a1809150509392505050565b601160009054906101000a900473ffffffffffffffffffffffffffffffffffffffff1681565b6060600060015467ffffffffffffffff81111561262f5761262e613eea565b5b60405190808252806020026020018201604052801561266857816020015b612655613c98565b81526020019060019003908161264d5790505b50905060005b6001548110156128f05760006005828154811061268e5761268d614b8b565b5b9060005260206000200180546126a390614b5a565b80601f01602080910402602001604051908101604052809291908181526020018280546126cf90614b5a565b801561271c5780601f106126f15761010080835404028352916020019161271c565b820191906000526020600020905b8154815290600101906020018083116126ff57829003601f168201915b50505050509050600c816040516127339190614d88565b908152602001604051809103902060009054906101000a900460ff16156128dc57601460008673ffffffffffffffffffffffffffffffffffffffff1673ffffffffffffffffffffffffffffffffffffffff168152602001908152602001600020816040516127a19190614d88565b90815260200160405180910390206040518060600160405290816000820160009054906101000a900473ffffffffffffffffffffffffffffffffffffffff1673ffffffffffffffffffffffffffffffffffffffff1673ffffffffffffffffffffffffffffffffffffffff16815260200160018201805461282090614b5a565b80601f016020809104026020016040519081016040528092919081815260200182805461284c90614b5a565b80156128995780601f1061286e57610100808354040283529160200191612899565b820191906000526020600020905b81548152906001019060200180831161287c57829003601f168201915b505050505081526020016002820160009054906101000a900460ff1615151515815250508383815181106128d0576128cf614b8b565b5b60200260200101819052505b5080806128e890614ca3565b91505061266e565b5080915050919050565b601160009054906101000a900473ffffffffffffffffffffffffffffffffffffffff1673ffffffffffffffffffffffffffffffffffffffff163373ffffffffffffffffffffffffffffffffffffffff161461298a576040517f08c379a000000000000000000000000000000000000000000000000000000000815260040161298190614b0b565b60405180910390fd5b601060008273ffffffffffffffffffffffffffffffffffffffff1673ffffffffffffffffffffffffffffffffffffffff16815260200190815260200160002060009054906101000a900460ff1615612a17576040517f08c379a0000000000000000000000000000000000000000000000000000000008152600401612a0e906155b5565b60405180910390fd5b600b819080600181540180825580915050600190039060005260206000200160009091909190916101000a81548173ffffffffffffffffffffffffffffffffffffffff021916908373ffffffffffffffffffffffffffffffffffffffff1602179055506001601060008373ffffffffffffffffffffffffffffffffffffffff1673ffffffffffffffffffffffffffffffffffffffff16815260200190815260200160002060006101000a81548160ff02191690831515021790555050565b6040518061010001604052808581526020016040518060400160405280600781526020017f57616974696e670000000000000000000000000000000000000000000000000081525081526020018481526020018373ffffffffffffffffffffffffffffffffffffffff168152602001600073ffffffffffffffffffffffffffffffffffffffff168152602001600073ffffffffffffffffffffffffffffffffffffffff16815260200182815260200160405180602001604052806000815250815250600885604051612ba79190614d88565b90815260200160405180910390206000820151816000019081612bca9190615180565b506020820151816001019081612be09190615180565b506040820151816002015560608201518160030160006101000a81548173ffffffffffffffffffffffffffffffffffffffff021916908373ffffffffffffffffffffffffffffffffffffffff16021790555060808201518160040160006101000a81548173ffffffffffffffffffffffffffffffffffffffff021916908373ffffffffffffffffffffffffffffffffffffffff16021790555060a08201518160050160006101000a81548173ffffffffffffffffffffffffffffffffffffffff021916908373ffffffffffffffffffffffffffffffffffffffff16021790555060c0820151816006019081612cd59190615180565b5060e0820151816007019081612ceb9190615180565b50905050600784908060018154018082558091505060019003906000526020600020016000909190919091509081612d239190615180565b506001600e85604051612d369190614d88565b908152602001604051809103902060006101000a81548160ff021916908315150217905550600080815480929190612d6d90614ca3565b919050555050505050565b6060601160009054906101000a900473ffffffffffffffffffffffffffffffffffffffff1673ffffffffffffffffffffffffffffffffffffffff163373ffffffffffffffffffffffffffffffffffffffff1614612e0a576040517f08c379a0000000000000000000000000000000000000000000000000000000008152600401612e0190614b0b565b60405180910390fd5b600060068054905067ffffffffffffffff811115612e2b57612e2a613eea565b5b604051908082528060200260200182016040528015612e5e57816020015b6060815260200190600190039081612e495790505b50905060005b600680549050811015612f6f576000600460068381548110612e8957612e88614b8b565b5b90600052602060002001604051612ea09190614c5d565b90815260200160405180910390209050806005018054612ebf90614b5a565b80601f0160208091040260200160405190810160405280929190818152602001828054612eeb90614b5a565b8015612f385780601f10612f0d57610100808354040283529160200191612f38565b820191906000526020600020905b815481529060010190602001808311612f1b57829003601f168201915b5050505050838381518110612f5057612f4f614b8b565b5b6020026020010181905250508080612f6790614ca3565b915050612e64565b508091505090565b6000600f60008373ffffffffffffffffffffffffffffffffffffffff1673ffffffffffffffffffffffffffffffffffffffff16815260200190815260200160002060009054906101000a900460ff16613005576040517f08c379a0000000000000000000000000000000000000000000000000000000008152600401612ffc90615621565b60405180910390fd5b600f60008373ffffffffffffffffffffffffffffffffffffffff1673ffffffffffffffffffffffffffffffffffffffff16815260200190815260200160002060009054906101000a900460ff169050919050565b60015481565b60025481565b60126020528060005260406000206000915090505481565b606080606080600060015467ffffffffffffffff8111156130a1576130a0613eea565b5b6040519080825280602002602001820160405280156130d457816020015b60608152602001906001900390816130bf5790505b509050600060015467ffffffffffffffff8111156130f5576130f4613eea565b5b60405190808252806020026020018201604052801561312857816020015b60608152602001906001900390816131135790505b509050600060015467ffffffffffffffff81111561314957613148613eea565b5b6040519080825280602002602001820160405280156131775781602001602082028036833780820191505090505b509050600060015467ffffffffffffffff81111561319857613197613eea565b5b6040519080825280602002602001820160405280156131c65781602001602082028036833780820191505090505b50905060005b6001548110156133fa5760006003600583815481106131ee576131ed614b8b565b5b906000526020600020016040516132059190614c5d565b908152602001604051809103902060405180608001604052908160008201805461322e90614b5a565b80601f016020809104026020016040519081016040528092919081815260200182805461325a90614b5a565b80156132a75780601f1061327c576101008083540402835291602001916132a7565b820191906000526020600020905b81548152906001019060200180831161328a57829003601f168201915b505050505081526020016001820180546132c090614b5a565b80601f01602080910402602001604051908101604052809291908181526020018280546132ec90614b5a565b80156133395780601f1061330e57610100808354040283529160200191613339565b820191906000526020600020905b81548152906001019060200180831161331c57829003601f168201915b5050505050815260200160028201548152602001600382015481525050905080600001518683815181106133705761336f614b8b565b5b6020026020010181905250806020015185838151811061339357613392614b8b565b5b602002602001018190525080604001518483815181106133b6576133b5614b8b565b5b60200260200101818152505080606001518383815181106133da576133d9614b8b565b5b6020026020010181815250505080806133f290614ca3565b9150506131cc565b508383838397509750975097505050505090919293565b6000600e826040516134239190614d88565b908152602001604051809103902060009054906101000a900460ff161561347f576040517f08c379a00000000000000000000000000000000000000000000000000000000081526004016134769061568d565b60405180910390fd5b600e8260405161348f9190614d88565b908152602001604051809103902060009054906101000a900460ff16159050919050565b6060601160009054906101000a900473ffffffffffffffffffffffffffffffffffffffff1673ffffffffffffffffffffffffffffffffffffffff163373ffffffffffffffffffffffffffffffffffffffff1614613545576040517f08c379a000000000000000000000000000000000000000000000000000000000815260040161353c90614b0b565b60405180910390fd5b6007805480602002602001604051908101604052809291908181526020016000905b8282101561361357838290600052602060002001805461358690614b5a565b80601f01602080910402602001604051908101604052809291908181526020018280546135b290614b5a565b80156135ff5780601f106135d4576101008083540402835291602001916135ff565b820191906000526020600020905b8154815290600101906020018083116135e257829003601f168201915b505050505081526020019060010190613567565b50505050905090565b6060601160009054906101000a900473ffffffffffffffffffffffffffffffffffffffff1673ffffffffffffffffffffffffffffffffffffffff163373ffffffffffffffffffffffffffffffffffffffff16146136ae576040517f08c379a00000000000000000000000000000000000000000000000000000000081526004016136a590614b0b565b60405180910390fd5b600060078054905067ffffffffffffffff8111156136cf576136ce613eea565b5b60405190808252806020026020018201604052801561370857816020015b6136f5613cd1565b8152602001906001900390816136ed5790505b50905060005b600780549050811015613aed57600060086007838154811061373357613732614b8b565b5b9060005260206000200160405161374a9190614c5d565b90815260200160405180910390209050806040518061010001604052908160008201805461377790614b5a565b80601f01602080910402602001604051908101604052809291908181526020018280546137a390614b5a565b80156137f05780601f106137c5576101008083540402835291602001916137f0565b820191906000526020600020905b8154815290600101906020018083116137d357829003601f168201915b5050505050815260200160018201805461380990614b5a565b80601f016020809104026020016040519081016040528092919081815260200182805461383590614b5a565b80156138825780601f1061385757610100808354040283529160200191613882565b820191906000526020600020905b81548152906001019060200180831161386557829003601f168201915b50505050508152602001600282015481526020016003820160009054906101000a900473ffffffffffffffffffffffffffffffffffffffff1673ffffffffffffffffffffffffffffffffffffffff1673ffffffffffffffffffffffffffffffffffffffff1681526020016004820160009054906101000a900473ffffffffffffffffffffffffffffffffffffffff1673ffffffffffffffffffffffffffffffffffffffff1673ffffffffffffffffffffffffffffffffffffffff1681526020016005820160009054906101000a900473ffffffffffffffffffffffffffffffffffffffff1673ffffffffffffffffffffffffffffffffffffffff1673ffffffffffffffffffffffffffffffffffffffff1681526020016006820180546139a790614b5a565b80601f01602080910402602001604051908101604052809291908181526020018280546139d390614b5a565b8015613a205780601f106139f557610100808354040283529160200191613a20565b820191906000526020600020905b815481529060010190602001808311613a0357829003601f168201915b50505050508152602001600782018054613a3990614b5a565b80601f0160208091040260200160405190810160405280929190818152602001828054613a6590614b5a565b8015613ab25780601f10613a8757610100808354040283529160200191613ab2565b820191906000526020600020905b815481529060010190602001808311613a9557829003601f168201915b505050505081525050838381518110613ace57613acd614b8b565b5b6020026020010181905250508080613ae590614ca3565b91505061370e565b508091505090565b6060600042444133600154600254604051602001613b1896959493929190615751565b60405160208183030381529060405280519060200120905060008160001c905060008103613b7f576040518060400160405280600181526020017f300000000000000000000000000000000000000000000000000000000000000081525092505050613c95565b600081905060005b60008214613bb1578080613b9a90614ca3565b915050600a82613baa91906157f0565b9150613b87565b60008167ffffffffffffffff811115613bcd57613bcc613eea565b5b6040519080825280601f01601f191660200182016040528015613bff5781602001600182028036833780820191505090505b5090505b60008414613c8c57600182613c189190615821565b9150600a84613c279190615855565b6030613c339190615886565b60f81b818381518110613c4957613c48614b8b565b5b60200101907effffffffffffffffffffffffffffffffffffffffffffffffffffffffffffff1916908160001a905350600a84613c8591906157f0565b9350613c03565b80955050505050505b90565b6040518060600160405280600073ffffffffffffffffffffffffffffffffffffffff168152602001606081526020016000151581525090565b604051806101000160405280606081526020016060815260200160008152602001600073ffffffffffffffffffffffffffffffffffffffff168152602001600073ffffffffffffffffffffffffffffffffffffffff168152602001600073ffffffffffffffffffffffffffffffffffffffff16815260200160608152602001606081525090565b600081519050919050565b600082825260208201905092915050565b6000819050602082019050919050565b600081519050919050565b600082825260208201905092915050565b60005b83811015613dbe578082015181840152602081019050613da3565b60008484015250505050565b6000601f19601f8301169050919050565b6000613de682613d84565b613df08185613d8f565b9350613e00818560208601613da0565b613e0981613dca565b840191505092915050565b6000613e208383613ddb565b905092915050565b6000602082019050919050565b6000613e4082613d58565b613e4a8185613d63565b935083602082028501613e5c85613d74565b8060005b85811015613e985784840389528151613e798582613e14565b9450613e8483613e28565b925060208a01995050600181019050613e60565b50829750879550505050505092915050565b60006020820190508181036000830152613ec48184613e35565b905092915050565b6000604051905090565b600080fd5b600080fd5b600080fd5b600080fd5b7f4e487b7100000000000000000000000000000000000000000000000000000000600052604160045260246000fd5b613f2282613dca565b810181811067ffffffffffffffff82111715613f4157613f40613eea565b5b80604052505050565b6000613f54613ecc565b9050613f608282613f19565b919050565b600067ffffffffffffffff821115613f8057613f7f613eea565b5b613f8982613dca565b9050602081019050919050565b82818337600083830152505050565b6000613fb8613fb384613f65565b613f4a565b905082815260208101848484011115613fd457613fd3613ee5565b5b613fdf848285613f96565b509392505050565b600082601f830112613ffc57613ffb613ee0565b5b813561400c848260208601613fa5565b91505092915050565b60006020828403121561402b5761402a613ed6565b5b600082013567ffffffffffffffff81111561404957614048613edb565b5b61405584828501613fe7565b91505092915050565b600082825260208201905092915050565b600061407a82613d84565b614084818561405e565b9350614094818560208601613da0565b61409d81613dca565b840191505092915050565b6000819050919050565b6140bb816140a8565b82525050565b600060808201905081810360008301526140db818761406f565b905081810360208301526140ef818661406f565b90506140fe60408301856140b2565b61410b60608301846140b2565b95945050505050565b600060208201905061412960008301846140b2565b92915050565b600060408201905081810360008301526141498185613e35565b9050818103602083015261415d8184613e35565b90509392505050565b600073ffffffffffffffffffffffffffffffffffffffff82169050919050565b600061419182614166565b9050919050565b6141a181614186565b81146141ac57600080fd5b50565b6000813590506141be81614198565b92915050565b6000806000606084860312156141dd576141dc613ed6565b5b60006141eb868287016141af565b935050602084013567ffffffffffffffff81111561420c5761420b613edb565b5b61421886828701613fe7565b925050604084013567ffffffffffffffff81111561423957614238613edb565b5b61424586828701613fe7565b9150509250925092565b60006020820190508181036000830152614269818461406f565b905092915050565b60006020828403121561428757614286613ed6565b5b6000614295848285016141af565b91505092915050565b6000806000606084860312156142b7576142b6613ed6565b5b600084013567ffffffffffffffff8111156142d5576142d4613edb565b5b6142e186828701613fe7565b93505060206142f2868287016141af565b925050604084013567ffffffffffffffff81111561431357614312613edb565b5b61431f86828701613fe7565b9150509250925092565b60008115159050919050565b61433e81614329565b82525050565b60006020820190506143596000830184614335565b92915050565b61436881614186565b82525050565b6000610100820190508181036000830152614389818b61406f565b9050818103602083015261439d818a61406f565b90506143ac60408301896140b2565b6143b9606083018861435f565b6143c6608083018761435f565b6143d360a083018661435f565b81810360c08301526143e5818561406f565b905081810360e08301526143f9818461406f565b90509998505050505050505050565b614411816140a8565b811461441c57600080fd5b50565b60008135905061442e81614408565b92915050565b60006020828403121561444a57614449613ed6565b5b60006144588482850161441f565b91505092915050565b600060c082019050818103600083015261447b818961406f565b905061448a602083018861435f565b818103604083015261449c818761406f565b90506144ab6060830186614335565b81810360808301526144bd818561406f565b905081810360a08301526144d1818461406f565b9050979650505050505050565b600080604083850312156144f5576144f4613ed6565b5b600083013567ffffffffffffffff81111561451357614512613edb565b5b61451f85828601613fe7565b925050602083013567ffffffffffffffff8111156145405761453f613edb565b5b61454c85828601613fe7565b9150509250929050565b60008060006060848603121561456f5761456e613ed6565b5b600084013567ffffffffffffffff81111561458d5761458c613edb565b5b61459986828701613fe7565b93505060206145aa8682870161441f565b92505060406145bb8682870161441f565b9150509250925092565b60006020820190506145da600083018461435f565b92915050565b600081519050919050565b600082825260208201905092915050565b6000819050602082019050919050565b61461581614186565b82525050565b61462481614329565b82525050565b6000606083016000830151614642600086018261460c565b506020830151848203602086015261465a8282613ddb565b915050604083015161466f604086018261461b565b508091505092915050565b6000614686838361462a565b905092915050565b6000602082019050919050565b60006146a6826145e0565b6146b081856145eb565b9350836020820285016146c2856145fc565b8060005b858110156146fe57848403895281516146df858261467a565b94506146ea8361468e565b925060208a019950506001810190506146c6565b50829750879550505050505092915050565b6000602082019050818103600083015261472a818461469b565b905092915050565b6000806000806080858703121561474c5761474b613ed6565b5b600085013567ffffffffffffffff81111561476a57614769613edb565b5b61477687828801613fe7565b94505060206147878782880161441f565b9350506040614798878288016141af565b925050606085013567ffffffffffffffff8111156147b9576147b8613edb565b5b6147c587828801613fe7565b91505092959194509250565b600081519050919050565b600082825260208201905092915050565b6000819050602082019050919050565b614806816140a8565b82525050565b600061481883836147fd565b60208301905092915050565b6000602082019050919050565b600061483c826147d1565b61484681856147dc565b9350614851836147ed565b8060005b83811015614882578151614869888261480c565b975061487483614824565b925050600181019050614855565b5085935050505092915050565b600060808201905081810360008301526148a98187613e35565b905081810360208301526148bd8186613e35565b905081810360408301526148d18185614831565b905081810360608301526148e58184614831565b905095945050505050565b600081519050919050565b600082825260208201905092915050565b6000819050602082019050919050565b600061010083016000830151848203600086015261493a8282613ddb565b915050602083015184820360208601526149548282613ddb565b915050604083015161496960408601826147fd565b50606083015161497c606086018261460c565b50608083015161498f608086018261460c565b5060a08301516149a260a086018261460c565b5060c083015184820360c08601526149ba8282613ddb565b91505060e083015184820360e08601526149d48282613ddb565b9150508091505092915050565b60006149ed838361491c565b905092915050565b6000602082019050919050565b6000614a0d826148f0565b614a1781856148fb565b935083602082028501614a298561490c565b8060005b85811015614a655784840389528151614a4685826149e1565b9450614a51836149f5565b925060208a01995050600181019050614a2d565b50829750879550505050505092915050565b60006020820190508181036000830152614a918184614a02565b905092915050565b7f4f6e6c79206f776e65722063616e2063616c6c20746869732066756e6374696f60008201527f6e00000000000000000000000000000000000000000000000000000000000000602082015250565b6000614af560218361405e565b9150614b0082614a99565b604082019050919050565b60006020820190508181036000830152614b2481614ae8565b9050919050565b7f4e487b7100000000000000000000000000000000000000000000000000000000600052602260045260246000fd5b60006002820490506001821680614b7257607f821691505b602082108103614b8557614b84614b2b565b5b50919050565b7f4e487b7100000000000000000000000000000000000000000000000000000000600052603260045260246000fd5b600081905092915050565b60008190508160005260206000209050919050565b60008154614be781614b5a565b614bf18186614bba565b94506001821660008114614c0c5760018114614c2157614c54565b60ff1983168652811515820286019350614c54565b614c2a85614bc5565b60005b83811015614c4c57815481890152600182019150602081019050614c2d565b838801955050505b50505092915050565b6000614c698284614bda565b915081905092915050565b7f4e487b7100000000000000000000000000000000000000000000000000000000600052601160045260246000fd5b6000614cae826140a8565b91507fffffffffffffffffffffffffffffffffffffffffffffffffffffffffffffffff8203614ce057614cdf614c74565b5b600182019050919050565b7f5368697070657220646f65736e27742065786973740000000000000000000000600082015250565b6000614d2160158361405e565b9150614d2c82614ceb565b602082019050919050565b60006020820190508181036000830152614d5081614d14565b9050919050565b6000614d6282613d84565b614d6c8185614bba565b9350614d7c818560208601613da0565b80840191505092915050565b6000614d948284614d57565b915081905092915050565b7f42696e20646f65736e2774206578697374000000000000000000000000000000600082015250565b6000614dd560118361405e565b9150614de082614d9f565b602082019050919050565b60006020820190508181036000830152614e0481614dc8565b9050919050565b600081905092915050565b60008190508160005260206000209050919050565b60008154614e3881614b5a565b614e428186614e0b565b94506001821660008114614e5d5760018114614e7257614ea5565b60ff1983168652811515820286019350614ea5565b614e7b85614e16565b60005b83811015614e9d57815481890152600182019150602081019050614e7e565b838801955050505b50505092915050565b6000614eba8284614e2b565b915081905092915050565b7f436f6c6c656374696f6e20616c72656164792065786973747320666f7220746860008201527f69732062696e20616e6420646174650000000000000000000000000000000000602082015250565b6000614f21602f8361405e565b9150614f2c82614ec5565b604082019050919050565b60006020820190508181036000830152614f5081614f14565b9050919050565b7f47656e657261746564204944436f6c6c656374696f6e20616c7265616479206560008201527f7869737473000000000000000000000000000000000000000000000000000000602082015250565b6000614fb360258361405e565b9150614fbe82614f57565b604082019050919050565b60006020820190508181036000830152614fe281614fa6565b9050919050565b60006020601f8301049050919050565b600082821b905092915050565b6000600883026150367fffffffffffffffffffffffffffffffffffffffffffffffffffffffffffffffff82614ff9565b6150408683614ff9565b95508019841693508086168417925050509392505050565b6000819050919050565b600061507d615078615073846140a8565b615058565b6140a8565b9050919050565b6000819050919050565b61509783615062565b6150ab6150a382615084565b848454615006565b825550505050565b600090565b6150c06150b3565b6150cb81848461508e565b505050565b5b818110156150ef576150e46000826150b8565b6001810190506150d1565b5050565b601f8211156151345761510581614bc5565b61510e84614fe9565b8101602085101561511d578190505b61513161512985614fe9565b8301826150d0565b50505b505050565b600082821c905092915050565b600061515760001984600802615139565b1980831691505092915050565b60006151708383615146565b9150826002028217905092915050565b61518982613d84565b67ffffffffffffffff8111156151a2576151a1613eea565b5b6151ac8254614b5a565b6151b78282856150f3565b600060209050601f8311600181146151ea57600084156151d8578287015190505b6151e28582615164565b86555061524a565b601f1984166151f886614bc5565b60005b82811015615220578489015182556001820191506020850194506020810190506151fb565b8683101561523d5784890151615239601f891682615146565b8355505b6001600288020188555050505b505050505050565b7f436974697a656e20616c72656164792065786973747300000000000000000000600082015250565b600061528860168361405e565b915061529382615252565b602082019050919050565b600060208201905081810360008301526152b78161527b565b9050919050565b7f43616e6e6f742063726561746520636974697a656e2077697468206f776e657260008201527f2773206164647265737300000000000000000000000000000000000000000000602082015250565b600061531a602a8361405e565b9150615325826152be565b604082019050919050565b600060208201905081810360008301526153498161530d565b9050919050565b7f436f6c6c656374696f6e20646f65736e27742065786973740000000000000000600082015250565b600061538660188361405e565b915061539182615350565b602082019050919050565b600060208201905081810360008301526153b581615379565b9050919050565b7f5468697320636f6c6c656374696f6e20646f65736e277420636f6e6365726e2060008201527f7468697320736869707065720000000000000000000000000000000000000000602082015250565b6000615418602c8361405e565b9150615423826153bc565b604082019050919050565b600060208201905081810360008301526154478161540b565b9050919050565b60008190508160005260206000209050919050565b6000815461547081614b5a565b61547a8186614bba565b9450600182166000811461549557600181146154aa576154dd565b60ff19831686528115158202860193506154dd565b6154b38561544e565b60005b838110156154d5578154818901526001820191506020810190506154b6565b838801955050505b50505092915050565b60006154f28284615463565b915081905092915050565b7f47656e65726174656420494420616c7265616479206578697374730000000000600082015250565b6000615533601b8361405e565b915061553e826154fd565b602082019050919050565b6000602082019050818103600083015261556281615526565b9050919050565b7f5368697070657220616c72656164792065786973747300000000000000000000600082015250565b600061559f60168361405e565b91506155aa82615569565b602082019050919050565b600060208201905081810360008301526155ce81615592565b9050919050565b7f436974697a656e20646f65736e27742065786973740000000000000000000000600082015250565b600061560b60158361405e565b9150615616826155d5565b602082019050919050565b6000602082019050818103600083015261563a816155fe565b9050919050565b7f5761747365206578697374000000000000000000000000000000000000000000600082015250565b6000615677600b8361405e565b915061568282615641565b602082019050919050565b600060208201905081810360008301526156a68161566a565b9050919050565b6000819050919050565b6156c86156c3826140a8565b6156ad565b82525050565b60006156d982614166565b9050919050565b60008160601b9050919050565b60006156f8826156e0565b9050919050565b600061570a826156ed565b9050919050565b61572261571d826156ce565b6156ff565b82525050565b6000615733826156ed565b9050919050565b61574b61574682614186565b615728565b82525050565b600061575d82896156b7565b60208201915061576d82886156b7565b60208201915061577d8287615711565b60148201915061578d828661573a565b60148201915061579d82856156b7565b6020820191506157ad82846156b7565b602082019150819050979650505050505050565b7f4e487b7100000000000000000000000000000000000000000000000000000000600052601260045260246000fd5b60006157fb826140a8565b9150615806836140a8565b925082615816576158156157c1565b5b828204905092915050565b600061582c826140a8565b9150615837836140a8565b925082820390508181111561584f5761584e614c74565b5b92915050565b6000615860826140a8565b915061586b836140a8565b92508261587b5761587a6157c1565b5b828206905092915050565b6000615891826140a8565b915061589c836140a8565b92508282019050808211156158b4576158b3614c74565b5b9291505056fea2646970667358221220d748a0bb6a15606eeca959ef831b31b9d56ac541e1e4288ed307e0092e52548264736f6c63430008130033",
  "immutableReferences": {},
  "source": "// SPDX-License-Identifier: MIT\r\npragma solidity ^0.8.0;\r\n\r\ncontract WasteManagement {\r\n    struct Bin {\r\n        string id; // Changed type to string\r\n        string location;\r\n        uint256 capacity;\r\n        uint256 currentWeight;\r\n    }\r\n    struct Waste {\r\n        string id;\r\n        string status;\r\n        uint256 weight;\r\n        address citizenId;\r\n        address shipperId;\r\n        address recyclerId;\r\n        string binId; // Changed type to string\r\n        string dateCollection;\r\n    }\r\n    struct Collection {\r\n        string idCollection;\r\n        address shipperNotified;\r\n        string binNotif; // Changed type to string\r\n        bool done;\r\n        string date;\r\n        string status;\r\n    }\r\n    struct Notif {\r\n        address shipperNotified;\r\n        string binNotif; // Changed type to string\r\n        bool done;\r\n    }\r\n    event BinCreated(string id);\r\n    //event BinCreated(string id);\r\n    event CollectionCreated(string id);\r\n    event ModifShipper(string message);\r\n    event ModifCitizen(string message);\r\n    uint256 public wasteCount;\r\n    uint256 public binCount;\r\n    uint256 public collectionCount;\r\n    mapping(string => Bin) public bins; // Changed key type to string\r\n    mapping(string => Collection) public collections;\r\n    string[] binIds; // Changed type to string\r\n    string[] collectionIds;\r\n    string[] public wasteIds; // Changed type to string\r\n    mapping(string => Waste) public wastes; // Changed key type to string\r\n    address[] citizens;\r\n    address recycler = address(0x4494f3bb19F95BB33EC116887b9dbd728C008f9b);\r\n    address[] shippers;\r\n    mapping(string => bool) isBin;\r\n    mapping(string => bool) isCollection;\r\n    mapping(string => bool) isWaste;\r\n    mapping(address => bool) isCitizen;\r\n    mapping(address => bool) isShipper;\r\n    address public owner;\r\n    //mapping(address => mapping(string => Notif)) public notifications; // Changed key type to string\r\n    mapping(address => uint256) public citizenRewards;\r\n    uint256 shipCount=0;\r\n    mapping(address => mapping(string => Notif))  notifications;\r\n\r\n\r\n    modifier onlyOwner() {\r\n        require(msg.sender == owner, \"Only owner can call this function\");\r\n        _;\r\n    }\r\n\r\n    constructor() {\r\n        owner = msg.sender;\r\n    }\r\n\r\n\r\n\r\n                     //*************Bin************//\r\n    function createBin(string memory _location,  uint256 _capacity, uint256 _currentWeight) external onlyOwner returns (string memory) {\r\n        string memory _id = generateUniqueId();\r\n        require(!isBin[_id], \"Generated ID already exists\");\r\n        bins[_id] = Bin(_id, _location,  _capacity, _currentWeight);\r\n        binIds.push(_id);\r\n        binCount++;\r\n        isBin[_id] = true;\r\n        emit BinCreated(_id);\r\n        return _id;\r\n    }\r\n\r\n    // function modifyBin(string memory _id, string memory _location,  uint256 _capacity, uint256 _currentWeight) external onlyOwner {\r\n    //     require(isBin[_id], \"Bin does not exist\");\r\n    //     bins[_id] = Bin(_id, _location,  _capacity, _currentWeight);\r\n    // }\r\n\r\n    // function deleteBin(string memory _id) external onlyOwner {\r\n    //     require(isBin[_id], \"Bin does not exist\");\r\n        \r\n    //     // Update mappings and arrays\r\n    //     isBin[_id] = false;\r\n    //     delete bins[_id];\r\n        \r\n    //     // Find and remove the bin ID from binIds array\r\n    //     for (uint256 i = 0; i < binIds.length; i++) {\r\n    //         if (keccak256(bytes(binIds[i])) == keccak256(bytes(_id))) {\r\n    //             for (uint256 j = i; j < binIds.length - 1; j++) {\r\n    //                 binIds[j] = binIds[j + 1];\r\n    //             }\r\n    //             binIds.pop();\r\n    //             isBin[_id]=false;\r\n    //             break;\r\n    //         }\r\n    //     }\r\n        \r\n    //     // Decrement binCount\r\n    //     binCount--;\r\n    // }\r\n    \r\n    function getBins() public view returns (string[] memory, string[] memory, uint256[] memory, uint256[] memory) {\r\n        string[] memory ids = new string[](binCount);\r\n        string[] memory locations = new string[](binCount);\r\n       \r\n        uint256[] memory capacities = new uint256[](binCount);\r\n        uint256[] memory currentWeights = new uint256[](binCount);\r\n\r\n        for (uint256 i = 0; i < binCount; i++) {\r\n            Bin memory bin = bins[binIds[i]];\r\n            ids[i] = bin.id;\r\n            locations[i] = bin.location;\r\n            capacities[i] = bin.capacity;\r\n            currentWeights[i] = bin.currentWeight;\r\n        }\r\n\r\n        return (ids, locations, capacities, currentWeights);\r\n    }\r\n    // function generateUniqueId() internal view returns (string memory) {\r\n    //     bytes32 hash = keccak256(abi.encodePacked(block.timestamp, block.prevrandao, binCount));\r\n    //     uint256 value=(uint256(hash));\r\n    //     if (value == 0) {\r\n    //         return \"0\";\r\n    //     }\r\n    //     uint256 temp = value;\r\n    //     uint256 digits;\r\n    //     while (temp != 0) {\r\n    //         digits++;\r\n    //         temp /= 10;\r\n    //     }\r\n    //     bytes memory buffer = new bytes(digits);\r\n    //     while (value != 0) {\r\n    //         digits -= 1;\r\n    //         buffer[digits] = bytes1(uint8(48 + uint256(value % 10)));\r\n    //         value /= 10;\r\n    //     }\r\n    //     return string(buffer);\r\n    // }\r\n\r\n// Function to generate a unique ID\r\nfunction generateUniqueId() internal view returns (string memory) {\r\n    bytes32 hash = keccak256(abi.encodePacked(\r\n        block.timestamp,\r\n        block.prevrandao,\r\n        block.coinbase,\r\n        msg.sender,\r\n        binCount,\r\n        collectionCount // Assuming this is a counter for collections\r\n    ));\r\n\r\n    // Convert hash to string\r\n    uint256 value = uint256(hash);\r\n    if (value == 0) {\r\n        return \"0\";\r\n    }\r\n    \r\n    uint256 temp = value;\r\n    uint256 digits;\r\n    \r\n    while (temp != 0) {\r\n        digits++;\r\n        temp /= 10;\r\n    }\r\n    \r\n    bytes memory buffer = new bytes(digits);\r\n    \r\n    while (value != 0) {\r\n        digits -= 1;\r\n        buffer[digits] = bytes1(uint8(48 + uint256(value % 10)));\r\n        value /= 10;\r\n    }\r\n    \r\n    return string(buffer);\r\n}\r\n\r\n                   //*****************Shipper********************//\r\n    function createShipper(address _shipper) external onlyOwner {\r\n        require(!isShipper[_shipper], \"Shipper already exists\");\r\n\r\n        shippers.push(_shipper);\r\n        isShipper[_shipper] = true;\r\n    }\r\n\r\n    // function getShippers() public view returns (address[] memory) {\r\n    //     return shippers;\r\n    // }\r\n\r\n    // function notifyShipper(address _shipper, string memory _idBin, string memory _date) external onlyOwner {\r\n\r\n    //     require(isShipper[_shipper], \"Shipper doesn't exist\");\r\n    //     require(isBin[_idBin], \"Bin doesn't exist\");\r\n    //     notifications[_shipper][_idBin] = Notif(_shipper, _idBin, false);\r\n    // }\r\n\r\n    function createCollection(address _shipper, string memory _idBin, string memory _date) external onlyOwner returns (string memory) {\r\n        require(isShipper[_shipper], \"Shipper doesn't exist\");\r\n        require(isBin[_idBin], \"Bin doesn't exist\");\r\n\r\n        // Check if a collection with the same bin and date already exists\r\n        for (uint256 i = 0; i < collectionIds.length; i++) {\r\n            Collection storage collection = collections[collectionIds[i]];\r\n            if (keccak256(bytes(collection.binNotif)) == keccak256(bytes(_idBin)) && keccak256(bytes(collection.date)) == keccak256(bytes(_date))) {\r\n                revert(\"Collection already exists for this bin and date\");\r\n            }\r\n        }\r\n        // Generate a unique ID for the new collection\r\n        string memory _idCollection = generateUniqueId();\r\n        require(!isCollection[_idCollection], \"Generated IDCollection already exists\");\r\n\r\n        // Update dateCollection for waiting wastes with the same bin ID\r\n        for (uint256 j = 0; j < wasteIds.length; j++) {\r\n            Waste storage waste = wastes[wasteIds[j]];\r\n            if (keccak256(bytes(waste.binId)) == keccak256(bytes(_idBin)) && keccak256(bytes(waste.status)) == keccak256(bytes(\"Waiting\"))) {\r\n                waste.dateCollection = _date;\r\n                waste.shipperId=_shipper;\r\n            }\r\n        }\r\n        // Create the new collection\r\n        collections[_idCollection] = Collection(_idCollection, _shipper, _idBin, false, _date, \"Waiting\");\r\n        collectionIds.push(_idCollection);\r\n        collectionCount++;\r\n        isCollection[_idCollection] = true;\r\n         if (!notifications[_shipper][_date].done) {\r\n            // If not, create a new notification\r\n            notifications[_shipper][_date] = Notif(_shipper, _idBin, false);\r\n        }\r\n        emit CollectionCreated(_idCollection);\r\n\r\n        return _idCollection;\r\n    }\r\n\r\n\r\n    function shipCollection(string memory _idCollection, address _shipperId, string memory _date) external onlyOwner  {\r\n        require(isCollection[_idCollection], \"Collection doesn't exist\");\r\n        if (collections[_idCollection].shipperNotified != _shipperId) {\r\n            revert(\"This collection doesn't concern this shipper\");\r\n        }\r\n        string storage date= collections[_idCollection].date;\r\n        // Update collection status and shipper notification\r\n        // Update waste status and dateCollection for all wastes in the collection\r\n        for (uint256 i = 0; i < wasteIds.length; i++) {\r\n            Waste storage waste = wastes[wasteIds[i]];\r\n            if ((keccak256(bytes(waste.binId)) == keccak256(bytes(collections[_idCollection].binNotif)) )&&\r\n                (waste.shipperId == _shipperId) && (keccak256(bytes(waste.dateCollection)) == keccak256(bytes(collections[_idCollection].date)))) {\r\n                    waste.dateCollection = _date;\r\n                    waste.status = \"Shipped\"; \r\n                    shipCount++; // Increment shipCount for each waste that meets the conditions\r\n            }\r\n        }\r\n        collections[_idCollection].date = _date;\r\n        collections[_idCollection].status = \"Shipped\";\r\n        notifications[_shipperId][date].done=true;\r\n    }\r\n \r\n    // function deleteShipper(address _shipperAddress) external onlyOwner {\r\n    //     for (uint256 i = 0; i < shippers.length; i++) {\r\n    //         if (shippers[i] == _shipperAddress) {\r\n    //             shippers[i] = shippers[\r\n    //                 shippers.length - 1\r\n    //             ];\r\n    //             shippers.pop();\r\n    //             isShipper[_shipperAddress]=false;\r\n    //             break;\r\n    //         }\r\n    //     }\r\n    // }\r\n\r\n    // function modifyShipper(address _shipperAddress) external onlyOwner {\r\n    //     require(isShipper[ _shipperAddress], \"Shipper does not exist\");\r\n        \r\n    //     // Emit a message after the require statement\r\n    //     emit ModifShipper(\"Shipper can be modified\");\r\n        \r\n    //     // Further logic here if needed\r\n    // }\r\n    \r\n                         //*****************Recycler********************//\r\n    \r\n    function recycleCollection(string memory _idCollection,string memory _date) external  {\r\n        require(isCollection[_idCollection], \"Collection doesn't exist\");\r\n        \r\n        for (uint256 i = 0; i < wasteIds.length; i++) {\r\n            Waste storage waste = wastes[wasteIds[i]];\r\n            if (keccak256(bytes(waste.binId)) == keccak256(bytes(collections[_idCollection].binNotif)) &&\r\n                keccak256(bytes(waste.dateCollection)) == keccak256(bytes(collections[_idCollection].date))) {\r\n                if (keccak256(bytes(waste.status)) == keccak256(bytes(\"Shipped\"))) {\r\n                    waste.dateCollection=_date;\r\n                    waste.status = \"Recyled\";\r\n                }\r\n            }\r\n        }\r\n        collections[_idCollection].date=_date;\r\n        collections[_idCollection].status = \"Recyled\";\r\n    }                         \r\n                     \r\n                     \r\n                        //*****************Citizen********************//\r\n    function createCitizen(address _citizen) external onlyOwner {\r\n        require(!isCitizen[_citizen], \"Citizen already exists\");\r\n        require(_citizen != owner, \"Cannot create citizen with owner's address\");\r\n\r\n        citizens.push(_citizen);\r\n        isCitizen[_citizen] = true;\r\n    }\r\n\r\n    // function deleteCitizen(address _citizenAddress) external onlyOwner {\r\n    //     for (uint256 i = 0; i < citizens.length; i++) {\r\n    //         if (citizens[i] == _citizenAddress) {\r\n    //             citizens[i] = citizens[\r\n    //                 citizens.length - 1\r\n    //             ];\r\n    //             citizens.pop();\r\n    //             isCitizen[_citizenAddress]=false;\r\n    //             break;\r\n    //         }\r\n    //     }\r\n    // }\r\n\r\n    // function modifyCitizen(address _citizenAddress) external onlyOwner {\r\n    //     require(isCitizen[ _citizenAddress], \"Citizen does not exist\");\r\n        \r\n    //     // Emit a message after the require statement\r\n    //     emit ModifCitizen(\"Citizen can be modified\");\r\n        \r\n    //     // Further logic here if needed\r\n    // }\r\n\r\n    function getIsBin(string memory _binId) external view returns (bool) {\r\n        require(isBin[_binId], \"Bin doesn't exist\");\r\n        return isBin[_binId];\r\n    }\r\n\r\n    function getIsCitizen(address _citizenId) external view returns (bool) {\r\n        require(isCitizen[_citizenId], \"Citizen doesn't exist\");\r\n        return isCitizen[_citizenId];\r\n    }\r\n\r\n    function CheckWaste(string memory _wasteId) external view returns (bool) {\r\n        require(!isWaste[_wasteId], \"Watse exist\");\r\n        return !isWaste[_wasteId];\r\n    }\r\n\r\n    function setWaste(string memory _wasteId,uint256 _weight,address _citizenId,string memory _binId) external {\r\n        wastes[_wasteId]=Waste(_wasteId, \"Waiting\", _weight, _citizenId, address(0), address(0), _binId, \"\");\r\n        wasteIds.push(_wasteId);\r\n        isWaste[_wasteId]=true;\r\n        wasteCount++;\r\n       // emit WasteCreated(_wasteId);\r\n\r\n       \r\n    }\r\n\r\n\r\n    /*TEEEEEEEEEEEEEEEEEEEEEEEEEEEEEEESTS */\r\n    // function getCountWaste() view external onlyOwner() returns (uint256){\r\n    //     return wasteCount;\r\n    // }\r\n\r\n    function getWastes()view external onlyOwner returns (Waste[]memory){\r\n        Waste[] memory trash = new Waste[](wasteIds.length);\r\n         for (uint256 i = 0; i < wasteIds.length; i++) {\r\n            Waste storage waste = wastes[wasteIds[i]];\r\n            trash[i]=waste;\r\n         }\r\n        return trash;\r\n    }\r\n\r\n    function getWastesIDs()view external onlyOwner returns (string[] memory){\r\n       \r\n        return wasteIds;\r\n    }\r\n\r\n    function getWastesStatus()view external onlyOwner returns (string[] memory,string[] memory){\r\n        string[] memory Status = new string[](wasteIds.length);\r\n        for (uint256 i = 0; i < wasteIds.length; i++) {\r\n            Waste storage waste = wastes[wasteIds[i]];\r\n            Status[i] = waste.status;\r\n        }\r\n        return(wasteIds,Status);\r\n    }\r\n\r\n    function getCollectionsIds()view external onlyOwner returns(string[] memory) {\r\n         return collectionIds;\r\n    } \r\n\r\n    function getCollectionsStatus()view external onlyOwner returns(string[] memory) {\r\n          string[] memory Status = new string[](collectionIds.length);\r\n        for (uint256 i = 0; i < collectionIds.length; i++) {\r\n            Collection storage coll = collections[collectionIds[i]];\r\n            Status[i] = coll.status;\r\n        }\r\n        return(Status);\r\n    } \r\n\r\n    // function getShipCount() view external onlyOwner() returns(uint256){\r\n    //     return shipCount;\r\n    // }\r\n    // function getCitizens() public view returns (address[] memory) {\r\n    //     return citizens;\r\n    // }\r\n    function getNotifByShipper(address _shipper) public view returns (Notif[] memory) {\r\n        Notif[] memory shipperNotifications = new Notif[](binCount);\r\n\r\n        for (uint256 i = 0; i < binCount; i++) {\r\n            string memory binId = binIds[i];\r\n            if (isBin[binId]) {\r\n                shipperNotifications[i] = notifications[_shipper][binId];\r\n            }\r\n        }\r\n\r\n        return shipperNotifications;\r\n    }\r\n\r\n}",
  "sourcePath": "C:\\Users\\Asma\\Desktop\\FinalGreenEarn\\testPFAAuthManager\\truffle\\contracts\\WasteManagement.sol",
  "compiler": {
    "name": "solc",
    "version": "0.8.19+commit.7dd6d404.Emscripten.clang"
  },
  "schemaVersion": "3.4.16",
  "updatedAt": "2024-03-19T22:55:43.756Z",
  "networkType": "ethereum",
  "devdoc": {
    "kind": "dev",
    "methods": {},
    "version": 1
  },
  "userdoc": {
    "kind": "user",
    "methods": {},
    "version": 1
  }
}