{
  "contractName": "WasteManagement",
  "abi": [
    {
      "inputs": [],
      "stateMutability": "nonpayable",
      "type": "constructor"
    },
    {
      "anonymous": false,
      "inputs": [
        {
          "indexed": false,
          "internalType": "string",
          "name": "id",
          "type": "string"
        }
      ],
      "name": "BinCreated",
      "type": "event"
    },
    {
      "anonymous": false,
      "inputs": [
        {
          "indexed": false,
          "internalType": "string",
          "name": "id",
          "type": "string"
        }
      ],
      "name": "CollectionCreated",
      "type": "event"
    },
    {
      "anonymous": false,
      "inputs": [
        {
          "indexed": false,
          "internalType": "string",
          "name": "message",
          "type": "string"
        }
      ],
      "name": "ModifCitizen",
      "type": "event"
    },
    {
      "anonymous": false,
      "inputs": [
        {
          "indexed": false,
          "internalType": "string",
          "name": "message",
          "type": "string"
        }
      ],
      "name": "ModifShipper",
      "type": "event"
    },
    {
      "inputs": [],
      "name": "binCount",
      "outputs": [
        {
          "internalType": "uint256",
          "name": "",
          "type": "uint256"
        }
      ],
      "stateMutability": "view",
      "type": "function",
      "constant": true
    },
    {
      "inputs": [
        {
          "internalType": "string",
          "name": "",
          "type": "string"
        }
      ],
      "name": "bins",
      "outputs": [
        {
          "internalType": "string",
          "name": "id",
          "type": "string"
        },
        {
          "internalType": "string",
          "name": "location",
          "type": "string"
        },
        {
          "internalType": "uint256",
          "name": "capacity",
          "type": "uint256"
        },
        {
          "internalType": "uint256",
          "name": "currentWeight",
          "type": "uint256"
        }
      ],
      "stateMutability": "view",
      "type": "function",
      "constant": true
    },
    {
      "inputs": [
        {
          "internalType": "address",
          "name": "",
          "type": "address"
        }
      ],
      "name": "citizenRewards",
      "outputs": [
        {
          "internalType": "uint256",
          "name": "",
          "type": "uint256"
        }
      ],
      "stateMutability": "view",
      "type": "function",
      "constant": true
    },
    {
      "inputs": [],
      "name": "collectionCount",
      "outputs": [
        {
          "internalType": "uint256",
          "name": "",
          "type": "uint256"
        }
      ],
      "stateMutability": "view",
      "type": "function",
      "constant": true
    },
    {
      "inputs": [
        {
          "internalType": "string",
          "name": "",
          "type": "string"
        }
      ],
      "name": "collections",
      "outputs": [
        {
          "internalType": "string",
          "name": "idCollection",
          "type": "string"
        },
        {
          "internalType": "address",
          "name": "shipperNotified",
          "type": "address"
        },
        {
          "internalType": "string",
          "name": "binNotif",
          "type": "string"
        },
        {
          "internalType": "bool",
          "name": "done",
          "type": "bool"
        },
        {
          "internalType": "string",
          "name": "date",
          "type": "string"
        },
        {
          "internalType": "string",
          "name": "status",
          "type": "string"
        }
      ],
      "stateMutability": "view",
      "type": "function",
      "constant": true
    },
    {
      "inputs": [],
      "name": "owner",
      "outputs": [
        {
          "internalType": "address",
          "name": "",
          "type": "address"
        }
      ],
      "stateMutability": "view",
      "type": "function",
      "constant": true
    },
    {
      "inputs": [],
      "name": "wasteCount",
      "outputs": [
        {
          "internalType": "uint256",
          "name": "",
          "type": "uint256"
        }
      ],
      "stateMutability": "view",
      "type": "function",
      "constant": true
    },
    {
      "inputs": [
        {
          "internalType": "uint256",
          "name": "",
          "type": "uint256"
        }
      ],
      "name": "wasteIds",
      "outputs": [
        {
          "internalType": "string",
          "name": "",
          "type": "string"
        }
      ],
      "stateMutability": "view",
      "type": "function",
      "constant": true
    },
    {
      "inputs": [
        {
          "internalType": "string",
          "name": "",
          "type": "string"
        }
      ],
      "name": "wastes",
      "outputs": [
        {
          "internalType": "string",
          "name": "id",
          "type": "string"
        },
        {
          "internalType": "string",
          "name": "status",
          "type": "string"
        },
        {
          "internalType": "uint256",
          "name": "weight",
          "type": "uint256"
        },
        {
          "internalType": "address",
          "name": "citizenId",
          "type": "address"
        },
        {
          "internalType": "address",
          "name": "shipperId",
          "type": "address"
        },
        {
          "internalType": "address",
          "name": "recyclerId",
          "type": "address"
        },
        {
          "internalType": "string",
          "name": "binId",
          "type": "string"
        },
        {
          "internalType": "string",
          "name": "dateCollection",
          "type": "string"
        }
      ],
      "stateMutability": "view",
      "type": "function",
      "constant": true
    },
    {
      "inputs": [
        {
          "internalType": "string",
          "name": "_location",
          "type": "string"
        },
        {
          "internalType": "uint256",
          "name": "_capacity",
          "type": "uint256"
        },
        {
          "internalType": "uint256",
          "name": "_currentWeight",
          "type": "uint256"
        }
      ],
      "name": "createBin",
      "outputs": [
        {
          "internalType": "string",
          "name": "",
          "type": "string"
        }
      ],
      "stateMutability": "nonpayable",
      "type": "function"
    },
    {
      "inputs": [
        {
          "internalType": "string",
          "name": "_id",
          "type": "string"
        },
        {
          "internalType": "string",
          "name": "_location",
          "type": "string"
        },
        {
          "internalType": "uint256",
          "name": "_capacity",
          "type": "uint256"
        },
        {
          "internalType": "uint256",
          "name": "_currentWeight",
          "type": "uint256"
        }
      ],
      "name": "modifyBin",
      "outputs": [],
      "stateMutability": "nonpayable",
      "type": "function"
    },
    {
      "inputs": [
        {
          "internalType": "string",
          "name": "_id",
          "type": "string"
        }
      ],
      "name": "deleteBin",
      "outputs": [],
      "stateMutability": "nonpayable",
      "type": "function"
    },
    {
      "inputs": [],
      "name": "getBins",
      "outputs": [
        {
          "internalType": "string[]",
          "name": "",
          "type": "string[]"
        },
        {
          "internalType": "string[]",
          "name": "",
          "type": "string[]"
        },
        {
          "internalType": "uint256[]",
          "name": "",
          "type": "uint256[]"
        },
        {
          "internalType": "uint256[]",
          "name": "",
          "type": "uint256[]"
        }
      ],
      "stateMutability": "view",
      "type": "function",
      "constant": true
    },
    {
      "inputs": [
        {
          "internalType": "address",
          "name": "_shipper",
          "type": "address"
        }
      ],
      "name": "createShipper",
      "outputs": [],
      "stateMutability": "nonpayable",
      "type": "function"
    },
    {
      "inputs": [
        {
          "internalType": "address",
          "name": "_shipper",
          "type": "address"
        },
        {
          "internalType": "string",
          "name": "_idBin",
          "type": "string"
        },
        {
          "internalType": "string",
          "name": "_date",
          "type": "string"
        }
      ],
      "name": "createCollection",
      "outputs": [
        {
          "internalType": "string",
          "name": "",
          "type": "string"
        }
      ],
      "stateMutability": "nonpayable",
      "type": "function"
    },
    {
      "inputs": [
        {
          "internalType": "string",
          "name": "_idCollection",
          "type": "string"
        },
        {
          "internalType": "address",
          "name": "_shipperId",
          "type": "address"
        },
        {
          "internalType": "string",
          "name": "_date",
          "type": "string"
        }
      ],
      "name": "ShipCollection",
      "outputs": [],
      "stateMutability": "nonpayable",
      "type": "function"
    },
    {
      "inputs": [
        {
          "internalType": "address",
          "name": "_shipperAddress",
          "type": "address"
        }
      ],
      "name": "deleteShipper",
      "outputs": [],
      "stateMutability": "nonpayable",
      "type": "function"
    },
    {
      "inputs": [
        {
          "internalType": "address",
          "name": "_shipperAddress",
          "type": "address"
        }
      ],
      "name": "modifyShipper",
      "outputs": [],
      "stateMutability": "nonpayable",
      "type": "function"
    },
    {
      "inputs": [
        {
          "internalType": "string",
          "name": "_idCollection",
          "type": "string"
        },
        {
          "internalType": "string",
          "name": "_date",
          "type": "string"
        }
      ],
      "name": "RecycleCollection",
      "outputs": [],
      "stateMutability": "nonpayable",
      "type": "function"
    },
    {
      "inputs": [
        {
          "internalType": "address",
          "name": "_citizen",
          "type": "address"
        }
      ],
      "name": "createCitizen",
      "outputs": [],
      "stateMutability": "nonpayable",
      "type": "function"
    },
    {
      "inputs": [
        {
          "internalType": "address",
          "name": "_citizenAddress",
          "type": "address"
        }
      ],
      "name": "deleteCitizen",
      "outputs": [],
      "stateMutability": "nonpayable",
      "type": "function"
    },
    {
      "inputs": [
        {
          "internalType": "address",
          "name": "_citizenAddress",
          "type": "address"
        }
      ],
      "name": "modifyCitizen",
      "outputs": [],
      "stateMutability": "nonpayable",
      "type": "function"
    },
    {
      "inputs": [
        {
          "internalType": "string",
          "name": "_binId",
          "type": "string"
        }
      ],
      "name": "getIsBin",
      "outputs": [
        {
          "internalType": "bool",
          "name": "",
          "type": "bool"
        }
      ],
      "stateMutability": "view",
      "type": "function",
      "constant": true
    },
    {
      "inputs": [
        {
          "internalType": "address",
          "name": "_citizenId",
          "type": "address"
        }
      ],
      "name": "getIsCitizen",
      "outputs": [
        {
          "internalType": "bool",
          "name": "",
          "type": "bool"
        }
      ],
      "stateMutability": "view",
      "type": "function",
      "constant": true
    },
    {
      "inputs": [
        {
          "internalType": "string",
          "name": "_wasteId",
          "type": "string"
        }
      ],
      "name": "CheckWaste",
      "outputs": [
        {
          "internalType": "bool",
          "name": "",
          "type": "bool"
        }
      ],
      "stateMutability": "view",
      "type": "function",
      "constant": true
    },
    {
      "inputs": [
        {
          "internalType": "string",
          "name": "_wasteId",
          "type": "string"
        },
        {
          "internalType": "uint256",
          "name": "_weight",
          "type": "uint256"
        },
        {
          "internalType": "address",
          "name": "_citizenId",
          "type": "address"
        },
        {
          "internalType": "string",
          "name": "_binId",
          "type": "string"
        }
      ],
      "name": "setWaste",
      "outputs": [],
      "stateMutability": "nonpayable",
      "type": "function"
    },
    {
      "inputs": [],
      "name": "getCountWaste",
      "outputs": [
        {
          "internalType": "uint256",
          "name": "",
          "type": "uint256"
        }
      ],
      "stateMutability": "view",
      "type": "function",
      "constant": true
    },
    {
      "inputs": [],
      "name": "getWastes",
      "outputs": [
        {
          "components": [
            {
              "internalType": "string",
              "name": "id",
              "type": "string"
            },
            {
              "internalType": "string",
              "name": "status",
              "type": "string"
            },
            {
              "internalType": "uint256",
              "name": "weight",
              "type": "uint256"
            },
            {
              "internalType": "address",
              "name": "citizenId",
              "type": "address"
            },
            {
              "internalType": "address",
              "name": "shipperId",
              "type": "address"
            },
            {
              "internalType": "address",
              "name": "recyclerId",
              "type": "address"
            },
            {
              "internalType": "string",
              "name": "binId",
              "type": "string"
            },
            {
              "internalType": "string",
              "name": "dateCollection",
              "type": "string"
            }
          ],
          "internalType": "struct WasteManagement.Waste[]",
          "name": "",
          "type": "tuple[]"
        }
      ],
      "stateMutability": "view",
      "type": "function",
      "constant": true
    },
    {
      "inputs": [],
      "name": "getWastesStatus",
      "outputs": [
        {
          "internalType": "string[]",
          "name": "",
          "type": "string[]"
        },
        {
          "internalType": "string[]",
          "name": "",
          "type": "string[]"
        }
      ],
      "stateMutability": "view",
      "type": "function",
      "constant": true
    },
    {
      "inputs": [],
      "name": "getCollectionsIds",
      "outputs": [
        {
          "internalType": "string[]",
          "name": "",
          "type": "string[]"
        }
      ],
      "stateMutability": "view",
      "type": "function",
      "constant": true
    }
  ],
  "bytecode": "0x6080604052734494f3bb19f95bb33ec116887b9dbd728c008f9b600a60006101000a81548173ffffffffffffffffffffffffffffffffffffffff021916908373ffffffffffffffffffffffffffffffffffffffff16021790555034801561006557600080fd5b5033601160006101000a81548173ffffffffffffffffffffffffffffffffffffffff021916908373ffffffffffffffffffffffffffffffffffffffff160217905550615d9580620000b76000396000f3fe608060405234801561001057600080fd5b50600436106101da5760003560e01c80638da5cb5b11610104578063cc3b2e88116100a2578063df12989111610071578063df12989114610589578063e042a402146105a5578063e1c7b8d5146105c6578063fb576d12146105f6576101da565b8063cc3b2e8814610501578063ce4717df1461051f578063d57f966b1461053b578063d597280214610559576101da565b8063a08c1079116100de578063a08c10791461047d578063aef16e7614610499578063c773e649146104b5578063c9b5ac5b146104e5576101da565b80638da5cb5b146104255780638f8c7b9014610443578063963464f114610461576101da565b806335a9c5961161017c578063537a828f1161014b578063537a828f1461037457806366e54d7b146103a457806381d06633146103d95780638d68d80714610409576101da565b806335a9c596146102c15780633c1bc3b9146102f15780633edb62721461030d5780634a19d56d1461033d576101da565b806316207393116101b8578063162073931461024c578063236b831c1461026a578063314dc3701461028657806334ab7576146102a5576101da565b8063038e7c11146101df578063113caa3d146101fb57806313a172f314610219575b600080fd5b6101f960048036038101906101f491906142fd565b610614565b005b6102036108dd565b60405161021091906144b6565b60405180910390f35b610233600480360381019061022e91906144d8565b610a46565b6040516102439493929190614584565b60405180910390f35b610254610b9c565b60405161026191906145d7565b60405180910390f35b610284600480360381019061027f9190614650565b610ba2565b005b61028e610cf6565b60405161029c92919061467d565b60405180910390f35b6102bf60048036038101906102ba91906146b4565b610fce565b005b6102db60048036038101906102d6919061473f565b61146f565b6040516102e891906147ca565b60405180910390f35b61030b60048036038101906103069190614650565b61198e565b005b610327600480360381019061032291906144d8565b611bf9565b6040516103349190614807565b60405180910390f35b610357600480360381019061035291906144d8565b611c99565b60405161036b989796959493929190614831565b60405180910390f35b61038e600480360381019061038991906148f7565b611f77565b60405161039b91906147ca565b60405180910390f35b6103be60048036038101906103b991906144d8565b612023565b6040516103d096959493929190614924565b60405180910390f35b6103f360048036038101906103ee91906149a1565b6122c2565b60405161040091906147ca565b60405180910390f35b610423600480360381019061041e9190614650565b612514565b005b61042d61278c565b60405161043a9190614a10565b60405180910390f35b61044b6127b2565b60405161045891906145d7565b60405180910390f35b61047b60048036038101906104769190614650565b61284c565b005b61049760048036038101906104929190614a2b565b612a27565b005b6104b360048036038101906104ae9190614aca565b612cca565b005b6104cf60048036038101906104ca9190614650565b612e4d565b6040516104dc9190614807565b60405180910390f35b6104ff60048036038101906104fa9190614650565b612f2f565b005b610509613083565b60405161051691906145d7565b60405180910390f35b610539600480360381019061053491906144d8565b613089565b005b61054361337f565b60405161055091906145d7565b60405180910390f35b610573600480360381019061056e9190614650565b613385565b60405161058091906145d7565b60405180910390f35b6105a3600480360381019061059e9190614650565b61339d565b005b6105ad613615565b6040516105bd9493929190614c27565b60405180910390f35b6105e060048036038101906105db91906144d8565b6139a9565b6040516105ed9190614807565b60405180910390f35b6105fe613a4b565b60405161060b9190614e1e565b60405180910390f35b600d826040516106249190614e7c565b908152602001604051809103902060009054906101000a900460ff1661067f576040517f08c379a000000000000000000000000000000000000000000000000000000000815260040161067690614edf565b60405180910390fd5b6040518060400160405280600781526020017f526563796c6564000000000000000000000000000000000000000000000000008152506004836040516106c59190614e7c565b908152602001604051809103902060050190816106e2919061510b565b5060005b6007805490508110156108d857600060086007838154811061070b5761070a6151dd565b5b90600052602060002001604051610722919061528f565b908152602001604051809103902090506004846040516107429190614e7c565b90815260200160405180910390206002016040516107609190615349565b6040518091039020816006016040516107799190615349565b60405180910390201480156107da57506004846040516107999190614e7c565b90815260200160405180910390206004016040516107b79190615349565b6040518091039020816007016040516107d09190615349565b6040518091039020145b156108c4576040518060400160405280600781526020017f5368697070656400000000000000000000000000000000000000000000000000815250805190602001208160010160405161082d9190615349565b6040518091039020036108c3578260048560405161084b9190614e7c565b90815260200160405180910390206004019081610868919061510b565b508281600701908161087a919061510b565b506040518060400160405280600781526020017f526563796c6564000000000000000000000000000000000000000000000000008152508160010190816108c1919061510b565b505b5b5080806108d09061538f565b9150506106e6565b505050565b6060601160009054906101000a900473ffffffffffffffffffffffffffffffffffffffff1673ffffffffffffffffffffffffffffffffffffffff163373ffffffffffffffffffffffffffffffffffffffff161461096f576040517f08c379a000000000000000000000000000000000000000000000000000000000815260040161096690615449565b60405180910390fd5b6006805480602002602001604051908101604052809291908181526020016000905b82821015610a3d5783829060005260206000200180546109b090614f2e565b80601f01602080910402602001604051908101604052809291908181526020018280546109dc90614f2e565b8015610a295780601f106109fe57610100808354040283529160200191610a29565b820191906000526020600020905b815481529060010190602001808311610a0c57829003601f168201915b505050505081526020019060010190610991565b50505050905090565b600381805160208101820180518482526020830160208501208183528095505050505050600091509050806000018054610a7f90614f2e565b80601f0160208091040260200160405190810160405280929190818152602001828054610aab90614f2e565b8015610af85780601f10610acd57610100808354040283529160200191610af8565b820191906000526020600020905b815481529060010190602001808311610adb57829003601f168201915b505050505090806001018054610b0d90614f2e565b80601f0160208091040260200160405190810160405280929190818152602001828054610b3990614f2e565b8015610b865780601f10610b5b57610100808354040283529160200191610b86565b820191906000526020600020905b815481529060010190602001808311610b6957829003601f168201915b5050505050908060020154908060030154905084565b60005481565b601160009054906101000a900473ffffffffffffffffffffffffffffffffffffffff1673ffffffffffffffffffffffffffffffffffffffff163373ffffffffffffffffffffffffffffffffffffffff1614610c32576040517f08c379a0000000000000000000000000000000000000000000000000000000008152600401610c2990615449565b60405180910390fd5b600f60008273ffffffffffffffffffffffffffffffffffffffff1673ffffffffffffffffffffffffffffffffffffffff16815260200190815260200160002060009054906101000a900460ff16610cbe576040517f08c379a0000000000000000000000000000000000000000000000000000000008152600401610cb5906154b5565b60405180910390fd5b7fb93a331b14aae9427dff15bad12885145072068d20db5bc47066d700abfe7dea604051610ceb90615521565b60405180910390a150565b606080601160009054906101000a900473ffffffffffffffffffffffffffffffffffffffff1673ffffffffffffffffffffffffffffffffffffffff163373ffffffffffffffffffffffffffffffffffffffff1614610d89576040517f08c379a0000000000000000000000000000000000000000000000000000000008152600401610d8090615449565b60405180910390fd5b600060078054905067ffffffffffffffff811115610daa57610da96141d2565b5b604051908082528060200260200182016040528015610ddd57816020015b6060815260200190600190039081610dc85790505b50905060005b600780549050811015610eee576000600860078381548110610e0857610e076151dd565b5b90600052602060002001604051610e1f919061528f565b90815260200160405180910390209050806001018054610e3e90614f2e565b80601f0160208091040260200160405190810160405280929190818152602001828054610e6a90614f2e565b8015610eb75780601f10610e8c57610100808354040283529160200191610eb7565b820191906000526020600020905b815481529060010190602001808311610e9a57829003601f168201915b5050505050838381518110610ecf57610ece6151dd565b5b6020026020010181905250508080610ee69061538f565b915050610de3565b5060078181805480602002602001604051908101604052809291908181526020016000905b82821015610fbf578382906000526020600020018054610f3290614f2e565b80601f0160208091040260200160405190810160405280929190818152602001828054610f5e90614f2e565b8015610fab5780601f10610f8057610100808354040283529160200191610fab565b820191906000526020600020905b815481529060010190602001808311610f8e57829003601f168201915b505050505081526020019060010190610f13565b50505050915092509250509091565b601160009054906101000a900473ffffffffffffffffffffffffffffffffffffffff1673ffffffffffffffffffffffffffffffffffffffff163373ffffffffffffffffffffffffffffffffffffffff161461105e576040517f08c379a000000000000000000000000000000000000000000000000000000000815260040161105590615449565b60405180910390fd5b601060008373ffffffffffffffffffffffffffffffffffffffff1673ffffffffffffffffffffffffffffffffffffffff16815260200190815260200160002060009054906101000a900460ff166110ea576040517f08c379a00000000000000000000000000000000000000000000000000000000081526004016110e19061558d565b60405180910390fd5b600d836040516110fa9190614e7c565b908152602001604051809103902060009054906101000a900460ff16611155576040517f08c379a000000000000000000000000000000000000000000000000000000000815260040161114c90614edf565b60405180910390fd5b6040518060400160405280600781526020017f536869707065640000000000000000000000000000000000000000000000000081525060048460405161119b9190614e7c565b908152602001604051809103902060050190816111b8919061510b565b50816004846040516111ca9190614e7c565b908152602001604051809103902060010160006101000a81548173ffffffffffffffffffffffffffffffffffffffff021916908373ffffffffffffffffffffffffffffffffffffffff16021790555060005b600780549050811015611469576000600860078381548110611241576112406151dd565b5b90600052602060002001604051611258919061528f565b908152602001604051809103902090506004856040516112789190614e7c565b90815260200160405180910390206002016040516112969190615349565b6040518091039020816006016040516112af9190615349565b604051809103902014801561131357508373ffffffffffffffffffffffffffffffffffffffff168160040160009054906101000a900473ffffffffffffffffffffffffffffffffffffffff1673ffffffffffffffffffffffffffffffffffffffff16145b801561136b575060048560405161132a9190614e7c565b90815260200160405180910390206004016040516113489190615349565b6040518091039020816007016040516113619190615349565b6040518091039020145b15611455576040518060400160405280600781526020017f57616974696e670000000000000000000000000000000000000000000000000081525080519060200120816001016040516113be9190615349565b60405180910390200361145457826004866040516113dc9190614e7c565b908152602001604051809103902060040190816113f9919061510b565b508281600701908161140b919061510b565b506040518060400160405280600781526020017f5368697070656400000000000000000000000000000000000000000000000000815250816001019081611452919061510b565b505b5b5080806114619061538f565b91505061121c565b50505050565b6060601160009054906101000a900473ffffffffffffffffffffffffffffffffffffffff1673ffffffffffffffffffffffffffffffffffffffff163373ffffffffffffffffffffffffffffffffffffffff1614611501576040517f08c379a00000000000000000000000000000000000000000000000000000000081526004016114f890615449565b60405180910390fd5b600061150b613f24565b9050600d8160405161151d9190614e7c565b908152602001604051809103902060009054906101000a900460ff1615611579576040517f08c379a00000000000000000000000000000000000000000000000000000000081526004016115709061561f565b60405180910390fd5b601060008673ffffffffffffffffffffffffffffffffffffffff1673ffffffffffffffffffffffffffffffffffffffff16815260200190815260200160002060009054906101000a900460ff16611605576040517f08c379a00000000000000000000000000000000000000000000000000000000081526004016115fc9061558d565b60405180910390fd5b600c846040516116159190614e7c565b908152602001604051809103902060009054906101000a900460ff16611670576040517f08c379a00000000000000000000000000000000000000000000000000000000081526004016116679061568b565b60405180910390fd5b60005b60078054905081101561176c576000600860078381548110611698576116976151dd565b5b906000526020600020016040516116af919061528f565b908152602001604051809103902090508580519060200120816006016040516116d89190615349565b604051809103902014801561174057506040518060400160405280600781526020017f57616974696e670000000000000000000000000000000000000000000000000081525080519060200120816001016040516117369190615349565b6040518091039020145b156117585784816007019081611756919061510b565b505b5080806117649061538f565b915050611673565b506040518060c001604052808281526020018673ffffffffffffffffffffffffffffffffffffffff1681526020018581526020016000151581526020018481526020016040518060400160405280600781526020017f57616974696e67000000000000000000000000000000000000000000000000008152508152506004826040516117f89190614e7c565b9081526020016040518091039020600082015181600001908161181b919061510b565b5060208201518160010160006101000a81548173ffffffffffffffffffffffffffffffffffffffff021916908373ffffffffffffffffffffffffffffffffffffffff1602179055506040820151816002019081611878919061510b565b5060608201518160030160006101000a81548160ff02191690831515021790555060808201518160040190816118ae919061510b565b5060a08201518160050190816118c4919061510b565b509050506006819080600181540180825580915050600190039060005260206000200160009091909190915090816118fc919061510b565b50600260008154809291906119109061538f565b91905055506001600d826040516119279190614e7c565b908152602001604051809103902060006101000a81548160ff0219169083151502179055507ff2e193f96c77b8eebe5989f9851e54078a47d1e2d8e3ca74dca8a4aeb249aebf8160405161197b91906147ca565b60405180910390a1809150509392505050565b601160009054906101000a900473ffffffffffffffffffffffffffffffffffffffff1673ffffffffffffffffffffffffffffffffffffffff163373ffffffffffffffffffffffffffffffffffffffff1614611a1e576040517f08c379a0000000000000000000000000000000000000000000000000000000008152600401611a1590615449565b60405180910390fd5b600f60008273ffffffffffffffffffffffffffffffffffffffff1673ffffffffffffffffffffffffffffffffffffffff16815260200190815260200160002060009054906101000a900460ff1615611aab576040517f08c379a0000000000000000000000000000000000000000000000000000000008152600401611aa2906156f7565b60405180910390fd5b601160009054906101000a900473ffffffffffffffffffffffffffffffffffffffff1673ffffffffffffffffffffffffffffffffffffffff168173ffffffffffffffffffffffffffffffffffffffff1603611b3b576040517f08c379a0000000000000000000000000000000000000000000000000000000008152600401611b3290615789565b60405180910390fd5b6009819080600181540180825580915050600190039060005260206000200160009091909190916101000a81548173ffffffffffffffffffffffffffffffffffffffff021916908373ffffffffffffffffffffffffffffffffffffffff1602179055506001600f60008373ffffffffffffffffffffffffffffffffffffffff1673ffffffffffffffffffffffffffffffffffffffff16815260200190815260200160002060006101000a81548160ff02191690831515021790555050565b6000600c82604051611c0b9190614e7c565b908152602001604051809103902060009054906101000a900460ff16611c66576040517f08c379a0000000000000000000000000000000000000000000000000000000008152600401611c5d9061568b565b60405180910390fd5b600c82604051611c769190614e7c565b908152602001604051809103902060009054906101000a900460ff169050919050565b600881805160208101820180518482526020830160208501208183528095505050505050600091509050806000018054611cd290614f2e565b80601f0160208091040260200160405190810160405280929190818152602001828054611cfe90614f2e565b8015611d4b5780601f10611d2057610100808354040283529160200191611d4b565b820191906000526020600020905b815481529060010190602001808311611d2e57829003601f168201915b505050505090806001018054611d6090614f2e565b80601f0160208091040260200160405190810160405280929190818152602001828054611d8c90614f2e565b8015611dd95780601f10611dae57610100808354040283529160200191611dd9565b820191906000526020600020905b815481529060010190602001808311611dbc57829003601f168201915b5050505050908060020154908060030160009054906101000a900473ffffffffffffffffffffffffffffffffffffffff16908060040160009054906101000a900473ffffffffffffffffffffffffffffffffffffffff16908060050160009054906101000a900473ffffffffffffffffffffffffffffffffffffffff1690806006018054611e6690614f2e565b80601f0160208091040260200160405190810160405280929190818152602001828054611e9290614f2e565b8015611edf5780601f10611eb457610100808354040283529160200191611edf565b820191906000526020600020905b815481529060010190602001808311611ec257829003601f168201915b505050505090806007018054611ef490614f2e565b80601f0160208091040260200160405190810160405280929190818152602001828054611f2090614f2e565b8015611f6d5780601f10611f4257610100808354040283529160200191611f6d565b820191906000526020600020905b815481529060010190602001808311611f5057829003601f168201915b5050505050905088565b60078181548110611f8757600080fd5b906000526020600020016000915090508054611fa290614f2e565b80601f0160208091040260200160405190810160405280929190818152602001828054611fce90614f2e565b801561201b5780601f10611ff05761010080835404028352916020019161201b565b820191906000526020600020905b815481529060010190602001808311611ffe57829003601f168201915b505050505081565b60048180516020810182018051848252602083016020850120818352809550505050505060009150905080600001805461205c90614f2e565b80601f016020809104026020016040519081016040528092919081815260200182805461208890614f2e565b80156120d55780601f106120aa576101008083540402835291602001916120d5565b820191906000526020600020905b8154815290600101906020018083116120b857829003601f168201915b5050505050908060010160009054906101000a900473ffffffffffffffffffffffffffffffffffffffff169080600201805461211090614f2e565b80601f016020809104026020016040519081016040528092919081815260200182805461213c90614f2e565b80156121895780601f1061215e57610100808354040283529160200191612189565b820191906000526020600020905b81548152906001019060200180831161216c57829003601f168201915b5050505050908060030160009054906101000a900460ff16908060040180546121b190614f2e565b80601f01602080910402602001604051908101604052809291908181526020018280546121dd90614f2e565b801561222a5780601f106121ff5761010080835404028352916020019161222a565b820191906000526020600020905b81548152906001019060200180831161220d57829003601f168201915b50505050509080600501805461223f90614f2e565b80601f016020809104026020016040519081016040528092919081815260200182805461226b90614f2e565b80156122b85780601f1061228d576101008083540402835291602001916122b8565b820191906000526020600020905b81548152906001019060200180831161229b57829003601f168201915b5050505050905086565b6060601160009054906101000a900473ffffffffffffffffffffffffffffffffffffffff1673ffffffffffffffffffffffffffffffffffffffff163373ffffffffffffffffffffffffffffffffffffffff1614612354576040517f08c379a000000000000000000000000000000000000000000000000000000000815260040161234b90615449565b60405180910390fd5b600061235e613f24565b9050600c816040516123709190614e7c565b908152602001604051809103902060009054906101000a900460ff16156123cc576040517f08c379a00000000000000000000000000000000000000000000000000000000081526004016123c3906157f5565b60405180910390fd5b6040518060800160405280828152602001868152602001858152602001848152506003826040516123fd9190614e7c565b90815260200160405180910390206000820151816000019081612420919061510b565b506020820151816001019081612436919061510b565b506040820151816002015560608201518160030155905050600581908060018154018082558091505060019003906000526020600020016000909190919091509081612482919061510b565b50600160008154809291906124969061538f565b91905055506001600c826040516124ad9190614e7c565b908152602001604051809103902060006101000a81548160ff0219169083151502179055507fd5413a7934f1aa973af7bc53f68df06953b49031401619e5997d54afb849377e8160405161250191906147ca565b60405180910390a1809150509392505050565b601160009054906101000a900473ffffffffffffffffffffffffffffffffffffffff1673ffffffffffffffffffffffffffffffffffffffff163373ffffffffffffffffffffffffffffffffffffffff16146125a4576040517f08c379a000000000000000000000000000000000000000000000000000000000815260040161259b90615449565b60405180910390fd5b60005b600980549050811015612788578173ffffffffffffffffffffffffffffffffffffffff16600982815481106125df576125de6151dd565b5b9060005260206000200160009054906101000a900473ffffffffffffffffffffffffffffffffffffffff1673ffffffffffffffffffffffffffffffffffffffff160361277557600960016009805490506126399190615815565b8154811061264a576126496151dd565b5b9060005260206000200160009054906101000a900473ffffffffffffffffffffffffffffffffffffffff1660098281548110612689576126886151dd565b5b9060005260206000200160006101000a81548173ffffffffffffffffffffffffffffffffffffffff021916908373ffffffffffffffffffffffffffffffffffffffff16021790555060098054806126e3576126e2615849565b5b6001900381819060005260206000200160006101000a81549073ffffffffffffffffffffffffffffffffffffffff021916905590556000600f60008473ffffffffffffffffffffffffffffffffffffffff1673ffffffffffffffffffffffffffffffffffffffff16815260200190815260200160002060006101000a81548160ff021916908315150217905550612788565b80806127809061538f565b9150506125a7565b5050565b601160009054906101000a900473ffffffffffffffffffffffffffffffffffffffff1681565b6000601160009054906101000a900473ffffffffffffffffffffffffffffffffffffffff1673ffffffffffffffffffffffffffffffffffffffff163373ffffffffffffffffffffffffffffffffffffffff1614612844576040517f08c379a000000000000000000000000000000000000000000000000000000000815260040161283b90615449565b60405180910390fd5b600054905090565b601160009054906101000a900473ffffffffffffffffffffffffffffffffffffffff1673ffffffffffffffffffffffffffffffffffffffff163373ffffffffffffffffffffffffffffffffffffffff16146128dc576040517f08c379a00000000000000000000000000000000000000000000000000000000081526004016128d390615449565b60405180910390fd5b601060008273ffffffffffffffffffffffffffffffffffffffff1673ffffffffffffffffffffffffffffffffffffffff16815260200190815260200160002060009054906101000a900460ff1615612969576040517f08c379a0000000000000000000000000000000000000000000000000000000008152600401612960906158c4565b60405180910390fd5b600b819080600181540180825580915050600190039060005260206000200160009091909190916101000a81548173ffffffffffffffffffffffffffffffffffffffff021916908373ffffffffffffffffffffffffffffffffffffffff1602179055506001601060008373ffffffffffffffffffffffffffffffffffffffff1673ffffffffffffffffffffffffffffffffffffffff16815260200190815260200160002060006101000a81548160ff02191690831515021790555050565b6040518061010001604052808581526020016040518060400160405280600781526020017f57616974696e670000000000000000000000000000000000000000000000000081525081526020018481526020018373ffffffffffffffffffffffffffffffffffffffff168152602001600073ffffffffffffffffffffffffffffffffffffffff168152602001600073ffffffffffffffffffffffffffffffffffffffff16815260200182815260200160405180602001604052806000815250815250600885604051612af99190614e7c565b90815260200160405180910390206000820151816000019081612b1c919061510b565b506020820151816001019081612b32919061510b565b506040820151816002015560608201518160030160006101000a81548173ffffffffffffffffffffffffffffffffffffffff021916908373ffffffffffffffffffffffffffffffffffffffff16021790555060808201518160040160006101000a81548173ffffffffffffffffffffffffffffffffffffffff021916908373ffffffffffffffffffffffffffffffffffffffff16021790555060a08201518160050160006101000a81548173ffffffffffffffffffffffffffffffffffffffff021916908373ffffffffffffffffffffffffffffffffffffffff16021790555060c0820151816006019081612c27919061510b565b5060e0820151816007019081612c3d919061510b565b50905050600784908060018154018082558091505060019003906000526020600020016000909190919091509081612c75919061510b565b506001600e85604051612c889190614e7c565b908152602001604051809103902060006101000a81548160ff021916908315150217905550600080815480929190612cbf9061538f565b919050555050505050565b601160009054906101000a900473ffffffffffffffffffffffffffffffffffffffff1673ffffffffffffffffffffffffffffffffffffffff163373ffffffffffffffffffffffffffffffffffffffff1614612d5a576040517f08c379a0000000000000000000000000000000000000000000000000000000008152600401612d5190615449565b60405180910390fd5b600c84604051612d6a9190614e7c565b908152602001604051809103902060009054906101000a900460ff16612dc5576040517f08c379a0000000000000000000000000000000000000000000000000000000008152600401612dbc90615930565b60405180910390fd5b604051806080016040528085815260200184815260200183815260200182815250600385604051612df69190614e7c565b90815260200160405180910390206000820151816000019081612e19919061510b565b506020820151816001019081612e2f919061510b565b50604082015181600201556060820151816003015590505050505050565b6000600f60008373ffffffffffffffffffffffffffffffffffffffff1673ffffffffffffffffffffffffffffffffffffffff16815260200190815260200160002060009054906101000a900460ff16612edb576040517f08c379a0000000000000000000000000000000000000000000000000000000008152600401612ed29061599c565b60405180910390fd5b600f60008373ffffffffffffffffffffffffffffffffffffffff1673ffffffffffffffffffffffffffffffffffffffff16815260200190815260200160002060009054906101000a900460ff169050919050565b601160009054906101000a900473ffffffffffffffffffffffffffffffffffffffff1673ffffffffffffffffffffffffffffffffffffffff163373ffffffffffffffffffffffffffffffffffffffff1614612fbf576040517f08c379a0000000000000000000000000000000000000000000000000000000008152600401612fb690615449565b60405180910390fd5b601060008273ffffffffffffffffffffffffffffffffffffffff1673ffffffffffffffffffffffffffffffffffffffff16815260200190815260200160002060009054906101000a900460ff1661304b576040517f08c379a000000000000000000000000000000000000000000000000000000000815260040161304290615a08565b60405180910390fd5b7f7d0afd94fbb67c41dce82b00240b23eb17cd64b8971fe1b722eee0363a2dede060405161307890615a74565b60405180910390a150565b60015481565b601160009054906101000a900473ffffffffffffffffffffffffffffffffffffffff1673ffffffffffffffffffffffffffffffffffffffff163373ffffffffffffffffffffffffffffffffffffffff1614613119576040517f08c379a000000000000000000000000000000000000000000000000000000000815260040161311090615449565b60405180910390fd5b600c816040516131299190614e7c565b908152602001604051809103902060009054906101000a900460ff16613184576040517f08c379a000000000000000000000000000000000000000000000000000000000815260040161317b90615930565b60405180910390fd5b6000600c826040516131969190614e7c565b908152602001604051809103902060006101000a81548160ff0219169083151502179055506003816040516131cb9190614e7c565b9081526020016040518091039020600080820160006131ea91906140bf565b6001820160006131fa91906140bf565b60028201600090556003820160009055505060005b60058054905081101561336357818051906020012060058281548110613238576132376151dd565b5b9060005260206000200160405161324f9190615349565b6040518091039020036133505760008190505b60016005805490506132749190615815565b8110156132e357600560018261328a9190615a94565b8154811061329b5761329a6151dd565b5b90600052602060002001600582815481106132b9576132b86151dd565b5b9060005260206000200190816132cf9190615af3565b5080806132db9061538f565b915050613262565b5060058054806132f6576132f5615849565b5b60019003818190600052602060002001600061331291906140bf565b90556000600c836040516133269190614e7c565b908152602001604051809103902060006101000a81548160ff021916908315150217905550613363565b808061335b9061538f565b91505061320f565b506001600081548092919061337790615bdb565b919050555050565b60025481565b60126020528060005260406000206000915090505481565b601160009054906101000a900473ffffffffffffffffffffffffffffffffffffffff1673ffffffffffffffffffffffffffffffffffffffff163373ffffffffffffffffffffffffffffffffffffffff161461342d576040517f08c379a000000000000000000000000000000000000000000000000000000000815260040161342490615449565b60405180910390fd5b60005b600b80549050811015613611578173ffffffffffffffffffffffffffffffffffffffff16600b8281548110613468576134676151dd565b5b9060005260206000200160009054906101000a900473ffffffffffffffffffffffffffffffffffffffff1673ffffffffffffffffffffffffffffffffffffffff16036135fe57600b6001600b805490506134c29190615815565b815481106134d3576134d26151dd565b5b9060005260206000200160009054906101000a900473ffffffffffffffffffffffffffffffffffffffff16600b8281548110613512576135116151dd565b5b9060005260206000200160006101000a81548173ffffffffffffffffffffffffffffffffffffffff021916908373ffffffffffffffffffffffffffffffffffffffff160217905550600b80548061356c5761356b615849565b5b6001900381819060005260206000200160006101000a81549073ffffffffffffffffffffffffffffffffffffffff021916905590556000601060008473ffffffffffffffffffffffffffffffffffffffff1673ffffffffffffffffffffffffffffffffffffffff16815260200190815260200160002060006101000a81548160ff021916908315150217905550613611565b80806136099061538f565b915050613430565b5050565b606080606080600060015467ffffffffffffffff811115613639576136386141d2565b5b60405190808252806020026020018201604052801561366c57816020015b60608152602001906001900390816136575790505b509050600060015467ffffffffffffffff81111561368d5761368c6141d2565b5b6040519080825280602002602001820160405280156136c057816020015b60608152602001906001900390816136ab5790505b509050600060015467ffffffffffffffff8111156136e1576136e06141d2565b5b60405190808252806020026020018201604052801561370f5781602001602082028036833780820191505090505b509050600060015467ffffffffffffffff8111156137305761372f6141d2565b5b60405190808252806020026020018201604052801561375e5781602001602082028036833780820191505090505b50905060005b600154811015613992576000600360058381548110613786576137856151dd565b5b9060005260206000200160405161379d919061528f565b90815260200160405180910390206040518060800160405290816000820180546137c690614f2e565b80601f01602080910402602001604051908101604052809291908181526020018280546137f290614f2e565b801561383f5780601f106138145761010080835404028352916020019161383f565b820191906000526020600020905b81548152906001019060200180831161382257829003601f168201915b5050505050815260200160018201805461385890614f2e565b80601f016020809104026020016040519081016040528092919081815260200182805461388490614f2e565b80156138d15780601f106138a6576101008083540402835291602001916138d1565b820191906000526020600020905b8154815290600101906020018083116138b457829003601f168201915b505050505081526020016002820154815260200160038201548152505090508060000151868381518110613908576139076151dd565b5b6020026020010181905250806020015185838151811061392b5761392a6151dd565b5b6020026020010181905250806040015184838151811061394e5761394d6151dd565b5b6020026020010181815250508060600151838381518110613972576139716151dd565b5b60200260200101818152505050808061398a9061538f565b915050613764565b508383838397509750975097505050505090919293565b6000600e826040516139bb9190614e7c565b908152602001604051809103902060009054906101000a900460ff1615613a17576040517f08c379a0000000000000000000000000000000000000000000000000000000008152600401613a0e90615c50565b60405180910390fd5b600e82604051613a279190614e7c565b908152602001604051809103902060009054906101000a900460ff16159050919050565b6060601160009054906101000a900473ffffffffffffffffffffffffffffffffffffffff1673ffffffffffffffffffffffffffffffffffffffff163373ffffffffffffffffffffffffffffffffffffffff1614613add576040517f08c379a0000000000000000000000000000000000000000000000000000000008152600401613ad490615449565b60405180910390fd5b600060078054905067ffffffffffffffff811115613afe57613afd6141d2565b5b604051908082528060200260200182016040528015613b3757816020015b613b246140ff565b815260200190600190039081613b1c5790505b50905060005b600780549050811015613f1c576000600860078381548110613b6257613b616151dd565b5b90600052602060002001604051613b79919061528f565b908152602001604051809103902090508060405180610100016040529081600082018054613ba690614f2e565b80601f0160208091040260200160405190810160405280929190818152602001828054613bd290614f2e565b8015613c1f5780601f10613bf457610100808354040283529160200191613c1f565b820191906000526020600020905b815481529060010190602001808311613c0257829003601f168201915b50505050508152602001600182018054613c3890614f2e565b80601f0160208091040260200160405190810160405280929190818152602001828054613c6490614f2e565b8015613cb15780601f10613c8657610100808354040283529160200191613cb1565b820191906000526020600020905b815481529060010190602001808311613c9457829003601f168201915b50505050508152602001600282015481526020016003820160009054906101000a900473ffffffffffffffffffffffffffffffffffffffff1673ffffffffffffffffffffffffffffffffffffffff1673ffffffffffffffffffffffffffffffffffffffff1681526020016004820160009054906101000a900473ffffffffffffffffffffffffffffffffffffffff1673ffffffffffffffffffffffffffffffffffffffff1673ffffffffffffffffffffffffffffffffffffffff1681526020016005820160009054906101000a900473ffffffffffffffffffffffffffffffffffffffff1673ffffffffffffffffffffffffffffffffffffffff1673ffffffffffffffffffffffffffffffffffffffff168152602001600682018054613dd690614f2e565b80601f0160208091040260200160405190810160405280929190818152602001828054613e0290614f2e565b8015613e4f5780601f10613e2457610100808354040283529160200191613e4f565b820191906000526020600020905b815481529060010190602001808311613e3257829003601f168201915b50505050508152602001600782018054613e6890614f2e565b80601f0160208091040260200160405190810160405280929190818152602001828054613e9490614f2e565b8015613ee15780601f10613eb657610100808354040283529160200191613ee1565b820191906000526020600020905b815481529060010190602001808311613ec457829003601f168201915b505050505081525050838381518110613efd57613efc6151dd565b5b6020026020010181905250508080613f149061538f565b915050613b3d565b508091505090565b606060004244600154604051602001613f3f93929190615c91565b60405160208183030381529060405280519060200120905060008160001c905060008103613fa6576040518060400160405280600181526020017f3000000000000000000000000000000000000000000000000000000000000000815250925050506140bc565b600081905060005b60008214613fd8578080613fc19061538f565b915050600a82613fd19190615cfd565b9150613fae565b60008167ffffffffffffffff811115613ff457613ff36141d2565b5b6040519080825280601f01601f1916602001820160405280156140265781602001600182028036833780820191505090505b5090505b600084146140b35760018261403f9190615815565b9150600a8461404e9190615d2e565b603061405a9190615a94565b60f81b8183815181106140705761406f6151dd565b5b60200101907effffffffffffffffffffffffffffffffffffffffffffffffffffffffffffff1916908160001a905350600a846140ac9190615cfd565b935061402a565b80955050505050505b90565b5080546140cb90614f2e565b6000825580601f106140dd57506140fc565b601f0160209004906000526020600020908101906140fb9190614186565b5b50565b604051806101000160405280606081526020016060815260200160008152602001600073ffffffffffffffffffffffffffffffffffffffff168152602001600073ffffffffffffffffffffffffffffffffffffffff168152602001600073ffffffffffffffffffffffffffffffffffffffff16815260200160608152602001606081525090565b5b8082111561419f576000816000905550600101614187565b5090565b6000604051905090565b600080fd5b600080fd5b600080fd5b600080fd5b6000601f19601f8301169050919050565b7f4e487b7100000000000000000000000000000000000000000000000000000000600052604160045260246000fd5b61420a826141c1565b810181811067ffffffffffffffff82111715614229576142286141d2565b5b80604052505050565b600061423c6141a3565b90506142488282614201565b919050565b600067ffffffffffffffff821115614268576142676141d2565b5b614271826141c1565b9050602081019050919050565b82818337600083830152505050565b60006142a061429b8461424d565b614232565b9050828152602081018484840111156142bc576142bb6141bc565b5b6142c784828561427e565b509392505050565b600082601f8301126142e4576142e36141b7565b5b81356142f484826020860161428d565b91505092915050565b60008060408385031215614314576143136141ad565b5b600083013567ffffffffffffffff811115614332576143316141b2565b5b61433e858286016142cf565b925050602083013567ffffffffffffffff81111561435f5761435e6141b2565b5b61436b858286016142cf565b9150509250929050565b600081519050919050565b600082825260208201905092915050565b6000819050602082019050919050565b600081519050919050565b600082825260208201905092915050565b60005b838110156143db5780820151818401526020810190506143c0565b60008484015250505050565b60006143f2826143a1565b6143fc81856143ac565b935061440c8185602086016143bd565b614415816141c1565b840191505092915050565b600061442c83836143e7565b905092915050565b6000602082019050919050565b600061444c82614375565b6144568185614380565b93508360208202850161446885614391565b8060005b858110156144a457848403895281516144858582614420565b945061449083614434565b925060208a0199505060018101905061446c565b50829750879550505050505092915050565b600060208201905081810360008301526144d08184614441565b905092915050565b6000602082840312156144ee576144ed6141ad565b5b600082013567ffffffffffffffff81111561450c5761450b6141b2565b5b614518848285016142cf565b91505092915050565b600082825260208201905092915050565b600061453d826143a1565b6145478185614521565b93506145578185602086016143bd565b614560816141c1565b840191505092915050565b6000819050919050565b61457e8161456b565b82525050565b6000608082019050818103600083015261459e8187614532565b905081810360208301526145b28186614532565b90506145c16040830185614575565b6145ce6060830184614575565b95945050505050565b60006020820190506145ec6000830184614575565b92915050565b600073ffffffffffffffffffffffffffffffffffffffff82169050919050565b600061461d826145f2565b9050919050565b61462d81614612565b811461463857600080fd5b50565b60008135905061464a81614624565b92915050565b600060208284031215614666576146656141ad565b5b60006146748482850161463b565b91505092915050565b600060408201905081810360008301526146978185614441565b905081810360208301526146ab8184614441565b90509392505050565b6000806000606084860312156146cd576146cc6141ad565b5b600084013567ffffffffffffffff8111156146eb576146ea6141b2565b5b6146f7868287016142cf565b93505060206147088682870161463b565b925050604084013567ffffffffffffffff811115614729576147286141b2565b5b614735868287016142cf565b9150509250925092565b600080600060608486031215614758576147576141ad565b5b60006147668682870161463b565b935050602084013567ffffffffffffffff811115614787576147866141b2565b5b614793868287016142cf565b925050604084013567ffffffffffffffff8111156147b4576147b36141b2565b5b6147c0868287016142cf565b9150509250925092565b600060208201905081810360008301526147e48184614532565b905092915050565b60008115159050919050565b614801816147ec565b82525050565b600060208201905061481c60008301846147f8565b92915050565b61482b81614612565b82525050565b600061010082019050818103600083015261484c818b614532565b90508181036020830152614860818a614532565b905061486f6040830189614575565b61487c6060830188614822565b6148896080830187614822565b61489660a0830186614822565b81810360c08301526148a88185614532565b905081810360e08301526148bc8184614532565b90509998505050505050505050565b6148d48161456b565b81146148df57600080fd5b50565b6000813590506148f1816148cb565b92915050565b60006020828403121561490d5761490c6141ad565b5b600061491b848285016148e2565b91505092915050565b600060c082019050818103600083015261493e8189614532565b905061494d6020830188614822565b818103604083015261495f8187614532565b905061496e60608301866147f8565b81810360808301526149808185614532565b905081810360a08301526149948184614532565b9050979650505050505050565b6000806000606084860312156149ba576149b96141ad565b5b600084013567ffffffffffffffff8111156149d8576149d76141b2565b5b6149e4868287016142cf565b93505060206149f5868287016148e2565b9250506040614a06868287016148e2565b9150509250925092565b6000602082019050614a256000830184614822565b92915050565b60008060008060808587031215614a4557614a446141ad565b5b600085013567ffffffffffffffff811115614a6357614a626141b2565b5b614a6f878288016142cf565b9450506020614a80878288016148e2565b9350506040614a918782880161463b565b925050606085013567ffffffffffffffff811115614ab257614ab16141b2565b5b614abe878288016142cf565b91505092959194509250565b60008060008060808587031215614ae457614ae36141ad565b5b600085013567ffffffffffffffff811115614b0257614b016141b2565b5b614b0e878288016142cf565b945050602085013567ffffffffffffffff811115614b2f57614b2e6141b2565b5b614b3b878288016142cf565b9350506040614b4c878288016148e2565b9250506060614b5d878288016148e2565b91505092959194509250565b600081519050919050565b600082825260208201905092915050565b6000819050602082019050919050565b614b9e8161456b565b82525050565b6000614bb08383614b95565b60208301905092915050565b6000602082019050919050565b6000614bd482614b69565b614bde8185614b74565b9350614be983614b85565b8060005b83811015614c1a578151614c018882614ba4565b9750614c0c83614bbc565b925050600181019050614bed565b5085935050505092915050565b60006080820190508181036000830152614c418187614441565b90508181036020830152614c558186614441565b90508181036040830152614c698185614bc9565b90508181036060830152614c7d8184614bc9565b905095945050505050565b600081519050919050565b600082825260208201905092915050565b6000819050602082019050919050565b614cbd81614612565b82525050565b6000610100830160008301518482036000860152614ce182826143e7565b91505060208301518482036020860152614cfb82826143e7565b9150506040830151614d106040860182614b95565b506060830151614d236060860182614cb4565b506080830151614d366080860182614cb4565b5060a0830151614d4960a0860182614cb4565b5060c083015184820360c0860152614d6182826143e7565b91505060e083015184820360e0860152614d7b82826143e7565b9150508091505092915050565b6000614d948383614cc3565b905092915050565b6000602082019050919050565b6000614db482614c88565b614dbe8185614c93565b935083602082028501614dd085614ca4565b8060005b85811015614e0c5784840389528151614ded8582614d88565b9450614df883614d9c565b925060208a01995050600181019050614dd4565b50829750879550505050505092915050565b60006020820190508181036000830152614e388184614da9565b905092915050565b600081905092915050565b6000614e56826143a1565b614e608185614e40565b9350614e708185602086016143bd565b80840191505092915050565b6000614e888284614e4b565b915081905092915050565b7f436f6c6c656374696f6e20646f65736e27742065786973740000000000000000600082015250565b6000614ec9601883614521565b9150614ed482614e93565b602082019050919050565b60006020820190508181036000830152614ef881614ebc565b9050919050565b7f4e487b7100000000000000000000000000000000000000000000000000000000600052602260045260246000fd5b60006002820490506001821680614f4657607f821691505b602082108103614f5957614f58614eff565b5b50919050565b60008190508160005260206000209050919050565b60006020601f8301049050919050565b600082821b905092915050565b600060088302614fc17fffffffffffffffffffffffffffffffffffffffffffffffffffffffffffffffff82614f84565b614fcb8683614f84565b95508019841693508086168417925050509392505050565b6000819050919050565b6000615008615003614ffe8461456b565b614fe3565b61456b565b9050919050565b6000819050919050565b61502283614fed565b61503661502e8261500f565b848454614f91565b825550505050565b600090565b61504b61503e565b615056818484615019565b505050565b5b8181101561507a5761506f600082615043565b60018101905061505c565b5050565b601f8211156150bf5761509081614f5f565b61509984614f74565b810160208510156150a8578190505b6150bc6150b485614f74565b83018261505b565b50505b505050565b600082821c905092915050565b60006150e2600019846008026150c4565b1980831691505092915050565b60006150fb83836150d1565b9150826002028217905092915050565b615114826143a1565b67ffffffffffffffff81111561512d5761512c6141d2565b5b6151378254614f2e565b61514282828561507e565b600060209050601f8311600181146151755760008415615163578287015190505b61516d85826150ef565b8655506151d5565b601f19841661518386614f5f565b60005b828110156151ab57848901518255600182019150602085019450602081019050615186565b868310156151c857848901516151c4601f8916826150d1565b8355505b6001600288020188555050505b505050505050565b7f4e487b7100000000000000000000000000000000000000000000000000000000600052603260045260246000fd5b6000815461521981614f2e565b6152238186614e40565b9450600182166000811461523e576001811461525357615286565b60ff1983168652811515820286019350615286565b61525c85614f5f565b60005b8381101561527e5781548189015260018201915060208101905061525f565b838801955050505b50505092915050565b600061529b828461520c565b915081905092915050565b600081905092915050565b60008190508160005260206000209050919050565b600081546152d381614f2e565b6152dd81866152a6565b945060018216600081146152f8576001811461530d57615340565b60ff1983168652811515820286019350615340565b615316856152b1565b60005b8381101561533857815481890152600182019150602081019050615319565b838801955050505b50505092915050565b600061535582846152c6565b915081905092915050565b7f4e487b7100000000000000000000000000000000000000000000000000000000600052601160045260246000fd5b600061539a8261456b565b91507fffffffffffffffffffffffffffffffffffffffffffffffffffffffffffffffff82036153cc576153cb615360565b5b600182019050919050565b7f4f6e6c79206f776e65722063616e2063616c6c20746869732066756e6374696f60008201527f6e00000000000000000000000000000000000000000000000000000000000000602082015250565b6000615433602183614521565b915061543e826153d7565b604082019050919050565b6000602082019050818103600083015261546281615426565b9050919050565b7f436974697a656e20646f6573206e6f7420657869737400000000000000000000600082015250565b600061549f601683614521565b91506154aa82615469565b602082019050919050565b600060208201905081810360008301526154ce81615492565b9050919050565b7f436974697a656e2063616e206265206d6f646966696564000000000000000000600082015250565b600061550b601783614521565b9150615516826154d5565b602082019050919050565b6000602082019050818103600083015261553a816154fe565b9050919050565b7f5368697070657220646f65736e27742065786973740000000000000000000000600082015250565b6000615577601583614521565b915061558282615541565b602082019050919050565b600060208201905081810360008301526155a68161556a565b9050919050565b7f47656e657261746564204944436f6c6c656374696f6e20616c7265616479206560008201527f7869737473000000000000000000000000000000000000000000000000000000602082015250565b6000615609602583614521565b9150615614826155ad565b604082019050919050565b60006020820190508181036000830152615638816155fc565b9050919050565b7f42696e20646f65736e2774206578697374000000000000000000000000000000600082015250565b6000615675601183614521565b91506156808261563f565b602082019050919050565b600060208201905081810360008301526156a481615668565b9050919050565b7f436974697a656e20616c72656164792065786973747300000000000000000000600082015250565b60006156e1601683614521565b91506156ec826156ab565b602082019050919050565b60006020820190508181036000830152615710816156d4565b9050919050565b7f43616e6e6f742063726561746520636974697a656e2077697468206f776e657260008201527f2773206164647265737300000000000000000000000000000000000000000000602082015250565b6000615773602a83614521565b915061577e82615717565b604082019050919050565b600060208201905081810360008301526157a281615766565b9050919050565b7f47656e65726174656420494420616c7265616479206578697374730000000000600082015250565b60006157df601b83614521565b91506157ea826157a9565b602082019050919050565b6000602082019050818103600083015261580e816157d2565b9050919050565b60006158208261456b565b915061582b8361456b565b925082820390508181111561584357615842615360565b5b92915050565b7f4e487b7100000000000000000000000000000000000000000000000000000000600052603160045260246000fd5b7f5368697070657220616c72656164792065786973747300000000000000000000600082015250565b60006158ae601683614521565b91506158b982615878565b602082019050919050565b600060208201905081810360008301526158dd816158a1565b9050919050565b7f42696e20646f6573206e6f742065786973740000000000000000000000000000600082015250565b600061591a601283614521565b9150615925826158e4565b602082019050919050565b600060208201905081810360008301526159498161590d565b9050919050565b7f436974697a656e20646f65736e27742065786973740000000000000000000000600082015250565b6000615986601583614521565b915061599182615950565b602082019050919050565b600060208201905081810360008301526159b581615979565b9050919050565b7f5368697070657220646f6573206e6f7420657869737400000000000000000000600082015250565b60006159f2601683614521565b91506159fd826159bc565b602082019050919050565b60006020820190508181036000830152615a21816159e5565b9050919050565b7f536869707065722063616e206265206d6f646966696564000000000000000000600082015250565b6000615a5e601783614521565b9150615a6982615a28565b602082019050919050565b60006020820190508181036000830152615a8d81615a51565b9050919050565b6000615a9f8261456b565b9150615aaa8361456b565b9250828201905080821115615ac257615ac1615360565b5b92915050565b600081549050615ad781614f2e565b9050919050565b60008190508160005260206000209050919050565b818103615b01575050615bd9565b615b0a82615ac8565b67ffffffffffffffff811115615b2357615b226141d2565b5b615b2d8254614f2e565b615b3882828561507e565b6000601f831160018114615b675760008415615b55578287015490505b615b5f85826150ef565b865550615bd2565b601f198416615b7587615ade565b9650615b8086614f5f565b60005b82811015615ba857848901548255600182019150600185019450602081019050615b83565b86831015615bc55784890154615bc1601f8916826150d1565b8355505b6001600288020188555050505b5050505050505b565b6000615be68261456b565b915060008203615bf957615bf8615360565b5b600182039050919050565b7f5761747365206578697374000000000000000000000000000000000000000000600082015250565b6000615c3a600b83614521565b9150615c4582615c04565b602082019050919050565b60006020820190508181036000830152615c6981615c2d565b9050919050565b6000819050919050565b615c8b615c868261456b565b615c70565b82525050565b6000615c9d8286615c7a565b602082019150615cad8285615c7a565b602082019150615cbd8284615c7a565b602082019150819050949350505050565b7f4e487b7100000000000000000000000000000000000000000000000000000000600052601260045260246000fd5b6000615d088261456b565b9150615d138361456b565b925082615d2357615d22615cce565b5b828204905092915050565b6000615d398261456b565b9150615d448361456b565b925082615d5457615d53615cce565b5b82820690509291505056fea2646970667358221220e81be69ce4f8701007b6b7a178433534f887abc2dd36dc7130630836a51a4cb664736f6c63430008130033",
  "immutableReferences": {},
  "source": "// SPDX-License-Identifier: MIT\r\npragma solidity ^0.8.0;\r\n\r\ncontract WasteManagement {\r\n    struct Bin {\r\n        string id; // Changed type to string\r\n        string location;\r\n        uint256 capacity;\r\n        uint256 currentWeight;\r\n    }\r\n    struct Waste {\r\n        string id;\r\n        string status;\r\n        uint256 weight;\r\n        address citizenId;\r\n        address shipperId;\r\n        address recyclerId;\r\n        string binId; // Changed type to string\r\n        string dateCollection;\r\n    }\r\n    struct Collection {\r\n        string idCollection;\r\n        address shipperNotified;\r\n        string binNotif; // Changed type to string\r\n        bool done;\r\n        string date;\r\n        string status;\r\n    }\r\n    event BinCreated(string id);\r\n    event CollectionCreated(string id);\r\n    event ModifShipper(string message);\r\n    event ModifCitizen(string message);\r\n    uint256 public wasteCount;\r\n    uint256 public binCount;\r\n    uint256 public collectionCount;\r\n    mapping(string => Bin) public bins; // Changed key type to string\r\n    mapping(string => Collection) public collections;\r\n    string[] binIds; // Changed type to string\r\n    string[] collectionIds;\r\n    string[] public wasteIds; // Changed type to string\r\n    mapping(string => Waste) public wastes; // Changed key type to string\r\n    address[] citizens;\r\n    address recycler = address(0x4494f3bb19F95BB33EC116887b9dbd728C008f9b);\r\n    address[] shippers;\r\n    mapping(string => bool) isBin;\r\n    mapping(string => bool) isCollection;\r\n    mapping(string => bool) isWaste;\r\n    mapping(address => bool) isCitizen;\r\n    mapping(address => bool) isShipper;\r\n    address public owner;\r\n    //mapping(address => mapping(string => Notif)) public notifications; // Changed key type to string\r\n    mapping(address => uint256) public citizenRewards;\r\n    \r\n\r\n\r\n    modifier onlyOwner() {\r\n        require(msg.sender == owner, \"Only owner can call this function\");\r\n        _;\r\n    }\r\n\r\n    constructor() {\r\n        owner = msg.sender;\r\n    }\r\n\r\n\r\n\r\n                     //*************Bin************//\r\n    function createBin(string memory _location,  uint256 _capacity, uint256 _currentWeight) external onlyOwner returns (string memory) {\r\n        string memory _id = generateUniqueId();\r\n        require(!isBin[_id], \"Generated ID already exists\");\r\n        bins[_id] = Bin(_id, _location,  _capacity, _currentWeight);\r\n        binIds.push(_id);\r\n        binCount++;\r\n        isBin[_id] = true;\r\n        emit BinCreated(_id);\r\n        return _id;\r\n    }\r\n\r\n    function modifyBin(string memory _id, string memory _location,  uint256 _capacity, uint256 _currentWeight) external onlyOwner {\r\n        require(isBin[_id], \"Bin does not exist\");\r\n        bins[_id] = Bin(_id, _location,  _capacity, _currentWeight);\r\n    }\r\n\r\n    function deleteBin(string memory _id) external onlyOwner {\r\n        require(isBin[_id], \"Bin does not exist\");\r\n        \r\n        // Update mappings and arrays\r\n        isBin[_id] = false;\r\n        delete bins[_id];\r\n        \r\n        // Find and remove the bin ID from binIds array\r\n        for (uint256 i = 0; i < binIds.length; i++) {\r\n            if (keccak256(bytes(binIds[i])) == keccak256(bytes(_id))) {\r\n                for (uint256 j = i; j < binIds.length - 1; j++) {\r\n                    binIds[j] = binIds[j + 1];\r\n                }\r\n                binIds.pop();\r\n                isBin[_id]=false;\r\n                break;\r\n            }\r\n        }\r\n        \r\n        // Decrement binCount\r\n        binCount--;\r\n    }\r\n    \r\n    function getBins() public view returns (string[] memory, string[] memory, uint256[] memory, uint256[] memory) {\r\n        string[] memory ids = new string[](binCount);\r\n        string[] memory locations = new string[](binCount);\r\n       \r\n        uint256[] memory capacities = new uint256[](binCount);\r\n        uint256[] memory currentWeights = new uint256[](binCount);\r\n\r\n        for (uint256 i = 0; i < binCount; i++) {\r\n            Bin memory bin = bins[binIds[i]];\r\n            ids[i] = bin.id;\r\n            locations[i] = bin.location;\r\n            capacities[i] = bin.capacity;\r\n            currentWeights[i] = bin.currentWeight;\r\n        }\r\n\r\n        return (ids, locations, capacities, currentWeights);\r\n    }\r\n    function generateUniqueId() internal view returns (string memory) {\r\n        bytes32 hash = keccak256(abi.encodePacked(block.timestamp, block.prevrandao, binCount));\r\n        uint256 value=(uint256(hash));\r\n        if (value == 0) {\r\n            return \"0\";\r\n        }\r\n        uint256 temp = value;\r\n        uint256 digits;\r\n        while (temp != 0) {\r\n            digits++;\r\n            temp /= 10;\r\n        }\r\n        bytes memory buffer = new bytes(digits);\r\n        while (value != 0) {\r\n            digits -= 1;\r\n            buffer[digits] = bytes1(uint8(48 + uint256(value % 10)));\r\n            value /= 10;\r\n        }\r\n        return string(buffer);\r\n    }\r\n\r\n\r\n                   //*****************Shipper********************//\r\n    function createShipper(address _shipper) external onlyOwner {\r\n        require(!isShipper[_shipper], \"Shipper already exists\");\r\n\r\n        shippers.push(_shipper);\r\n        isShipper[_shipper] = true;\r\n    }\r\n\r\n    // function getShippers() public view returns (address[] memory) {\r\n    //     return shippers;\r\n    // }\r\n\r\n    // function notifyShipper(address _shipper, string memory _idBin, string memory _date) external onlyOwner {\r\n\r\n    //     require(isShipper[_shipper], \"Shipper doesn't exist\");\r\n    //     require(isBin[_idBin], \"Bin doesn't exist\");\r\n    //     notifications[_shipper][_idBin] = Notif(_shipper, _idBin, false);\r\n    // }\r\n\r\n    function createCollection (address _shipper, string memory _idBin, string memory _date)external onlyOwner returns(string memory) {\r\n        string memory _idCollection = generateUniqueId();\r\n        require(!isCollection[_idCollection], \"Generated IDCollection already exists\");\r\n        require(isShipper[_shipper], \"Shipper doesn't exist\");\r\n        require(isBin[_idBin], \"Bin doesn't exist\");\r\n        for (uint256 i = 0; i < wasteIds.length; i++) {\r\n            Waste storage waste = wastes[wasteIds[i]];\r\n            if (keccak256(bytes(waste.binId)) == keccak256(bytes(_idBin)) && (keccak256(bytes(waste.status)) == keccak256(bytes(\"Waiting\")))) {\r\n                waste.dateCollection = _date;\r\n            }\r\n        }\r\n        collections[_idCollection] = Collection(_idCollection, _shipper,  _idBin, false,_date,\"Waiting\");\r\n        collectionIds.push(_idCollection);\r\n        collectionCount++;\r\n        isCollection[_idCollection] = true;\r\n        emit CollectionCreated(_idCollection);\r\n        return _idCollection;\r\n    }\r\n\r\n    function ShipCollection(string memory _idCollection, address _shipperId,string memory _date) external onlyOwner  {\r\n        require(isShipper[_shipperId], \"Shipper doesn't exist\");\r\n        require(isCollection[_idCollection], \"Collection doesn't exist\");\r\n        collections[_idCollection].status = \"Shipped\";\r\n        collections[_idCollection].shipperNotified = _shipperId;\r\n        for (uint256 i = 0; i < wasteIds.length; i++) {\r\n            Waste storage waste = wastes[wasteIds[i]];\r\n            if (keccak256(bytes(waste.binId)) == keccak256(bytes(collections[_idCollection].binNotif)) &&\r\n                waste.shipperId == _shipperId &&\r\n                keccak256(bytes(waste.dateCollection)) == keccak256(bytes(collections[_idCollection].date))) {\r\n                if (keccak256(bytes(waste.status)) == keccak256(bytes(\"Waiting\"))) {\r\n                    collections[_idCollection].date=_date;\r\n                    waste.dateCollection=_date;\r\n                    waste.status = \"Shipped\";\r\n                }\r\n            }\r\n        }\r\n        \r\n    }  \r\n\r\n    function deleteShipper(address _shipperAddress) external onlyOwner {\r\n        for (uint256 i = 0; i < shippers.length; i++) {\r\n            if (shippers[i] == _shipperAddress) {\r\n                shippers[i] = shippers[\r\n                    shippers.length - 1\r\n                ];\r\n                shippers.pop();\r\n                isShipper[_shipperAddress]=false;\r\n                break;\r\n            }\r\n        }\r\n    }\r\n\r\n    function modifyShipper(address _shipperAddress) external onlyOwner {\r\n        require(isShipper[ _shipperAddress], \"Shipper does not exist\");\r\n        \r\n        // Emit a message after the require statement\r\n        emit ModifShipper(\"Shipper can be modified\");\r\n        \r\n        // Further logic here if needed\r\n    }\r\n    \r\n                         //*****************Recycler********************//\r\n    \r\n    function RecycleCollection(string memory _idCollection,string memory _date) external  {\r\n        require(isCollection[_idCollection], \"Collection doesn't exist\");\r\n        collections[_idCollection].status = \"Recyled\";\r\n        for (uint256 i = 0; i < wasteIds.length; i++) {\r\n            Waste storage waste = wastes[wasteIds[i]];\r\n            if (keccak256(bytes(waste.binId)) == keccak256(bytes(collections[_idCollection].binNotif)) &&\r\n                keccak256(bytes(waste.dateCollection)) == keccak256(bytes(collections[_idCollection].date))) {\r\n                if (keccak256(bytes(waste.status)) == keccak256(bytes(\"Shipped\"))) {\r\n                    collections[_idCollection].date=_date;\r\n                    waste.dateCollection=_date;\r\n                    waste.status = \"Recyled\";\r\n                }\r\n            }\r\n        }\r\n    }                         \r\n                     \r\n                     \r\n                        //*****************Citizen********************//\r\n    function createCitizen(address _citizen) external onlyOwner {\r\n        require(!isCitizen[_citizen], \"Citizen already exists\");\r\n        require(_citizen != owner, \"Cannot create citizen with owner's address\");\r\n\r\n        citizens.push(_citizen);\r\n        isCitizen[_citizen] = true;\r\n    }\r\n\r\n    function deleteCitizen(address _citizenAddress) external onlyOwner {\r\n        for (uint256 i = 0; i < citizens.length; i++) {\r\n            if (citizens[i] == _citizenAddress) {\r\n                citizens[i] = citizens[\r\n                    citizens.length - 1\r\n                ];\r\n                citizens.pop();\r\n                isCitizen[_citizenAddress]=false;\r\n                break;\r\n            }\r\n        }\r\n    }\r\n\r\n    function modifyCitizen(address _citizenAddress) external onlyOwner {\r\n        require(isCitizen[ _citizenAddress], \"Citizen does not exist\");\r\n        \r\n        // Emit a message after the require statement\r\n        emit ModifCitizen(\"Citizen can be modified\");\r\n        \r\n        // Further logic here if needed\r\n    }\r\n\r\n    function getIsBin(string memory _binId) external view returns (bool) {\r\n        require(isBin[_binId], \"Bin doesn't exist\");\r\n        return isBin[_binId];\r\n    }\r\n\r\n    function getIsCitizen(address _citizenId) external view returns (bool) {\r\n        require(isCitizen[_citizenId], \"Citizen doesn't exist\");\r\n        return isCitizen[_citizenId];\r\n    }\r\n\r\n    function CheckWaste(string memory _wasteId) external view returns (bool) {\r\n        require(!isWaste[_wasteId], \"Watse exist\");\r\n        return !isWaste[_wasteId];\r\n    }\r\n\r\n    function setWaste(string memory _wasteId,uint256 _weight,address _citizenId,string memory _binId) external {\r\n        wastes[_wasteId]=Waste(_wasteId, \"Waiting\", _weight, _citizenId, address(0), address(0), _binId, \"\");\r\n        wasteIds.push(_wasteId);\r\n        isWaste[_wasteId]=true;\r\n        wasteCount++;\r\n       // emit WasteCreated(_wasteId);\r\n\r\n       \r\n    }\r\n\r\n\r\n    /*TEEEEEEEEEEEEEEEEEEEEEEEEEEEEEEESTS */\r\n    function getCountWaste() view external onlyOwner() returns (uint256){\r\n        return wasteCount;\r\n    }\r\n\r\n    function getWastes()view external onlyOwner returns (Waste[]memory){\r\n        Waste[] memory trash = new Waste[](wasteIds.length);\r\n         for (uint256 i = 0; i < wasteIds.length; i++) {\r\n            Waste storage waste = wastes[wasteIds[i]];\r\n            trash[i]=waste;\r\n         }\r\n        return trash;\r\n    }\r\n\r\n    // function getWastesIDs()view external onlyOwner returns (string[] memory){\r\n       \r\n    //     return wasteIds;\r\n    // }\r\n\r\n    function getWastesStatus()view external onlyOwner returns (string[] memory,string[] memory){\r\n        string[] memory Status = new string[](wasteIds.length);\r\n        for (uint256 i = 0; i < wasteIds.length; i++) {\r\n            Waste storage waste = wastes[wasteIds[i]];\r\n            Status[i] = waste.status;\r\n        }\r\n        return(wasteIds,Status);\r\n    }\r\n\r\n    function getCollectionsIds()view external onlyOwner returns(string[] memory) {\r\n         return collectionIds;\r\n    } \r\n    // function getCitizens() public view returns (address[] memory) {\r\n    //     return citizens;\r\n    // }\r\n\r\n}",
  "sourcePath": "C:\\Users\\Asma\\Desktop\\FinalGreenEarn\\testPFAAuthManager\\truffle\\contracts\\WasteManagement.sol",
  "compiler": {
    "name": "solc",
    "version": "0.8.19+commit.7dd6d404.Emscripten.clang"
  },
  "schemaVersion": "3.4.16",
  "updatedAt": "2024-03-01T19:47:09.107Z",
  "networkType": "ethereum",
  "devdoc": {
    "kind": "dev",
    "methods": {},
    "version": 1
  },
  "userdoc": {
    "kind": "user",
    "methods": {},
    "version": 1
  }
}